:020000041FFFDC
:100800000000000085C3FF1FF0E4FF1F14E5FF1F79
:100810002CEAFF1F000000000000000000000000A4
:1008200000000000000000000000000000000000C8
:1008300000000000000000000000000000000000B8
:1008400000000000000000000000000000000000A8
:100850000000000000000000000000000000000098
:100860000000000000000000000000000000000088
:100870000000000000000000000000000000000078
:100880000000000000000000000000000000000068
:100890000000000000000000000000000000000058
:1008A0000000000000000000000000000000000048
:1008B0000000000000000000000000000000000038
:1008C0000000000000000000000000000000000028
:1008D0000000000000000000000000000000000018
:1008E0000000000000000000000000000000000008
:1008F00000000000000000000000000000000000F8
:1009000000000000000000000000000000000000E7
:1009100000000000000000000000000000000000D7
:1009200000000000000000000000000000000000C7
:1009300000000000000000000000000000000000B7
:1009400000000000000000000000000000000000A7
:100950000000000000000000000000000000000097
:100960000000000000000000000000000000000087
:100970000000000000000000000000000000000077
:100980000000000000000000000000000000000067
:1009900081B6FF1F45B7FF1FC5CFFF1F0000000036
:1009A0000000000000000000000000000000000047
:1009B0000000000000000000000000000000000037
:1009C0000000000000000000000000000000000027
:1009D0000000000000000000000000000000000017
:1009E0000000000000000000000000000000000007
:1009F00000000000000000000000000000000000F7
:100A000000000000000000000000000000000000E6
:100A100000000000000000000000000000000000D6
:100A200000000000000000000000000000000000C6
:100A300000000000000000000000000000000000B6
:100A400000000000000000000000000000000000A6
:100A50000000000000000000000000000000000096
:100A60000000000000000000000000000000000086
:100A70000000000000000000000000000000000076
:100A80000000000000000000000000000000000066
:100A90000000000000000000000000000000000056
:100AA0000000000000000000000000000000000046
:100AB0000000000000000000000000000000000036
:100AC0000000000000000000000000000000000026
:100AD0000000000000000000000000000000000016
:100AE0000000000000000000000000000000000006
:100AF00000000000000000000000000000000000F6
:100B000000000000000000000000000000000000E5
:100B100000000000000000000000000000000000D5
:100B200000000000000000000000000000000000C5
:100B300000000000000000000000000000000000B5
:100B400000000000000000000000000000000000A5
:100B50000000000000000000000000000000000095
:100B60000000000000000000000000000000000085
:100B7000D9BAFF1F000000000000000000000000C4
:100B80000000000000000000000000000000000065
:100B90000000000011ADFF1F000000000000000079
:100BA00000000000000000000000000049AEFF1F30
:100BB0000000000000000000B9ADFF1F01AEFF1FE4
:100BC000F5ACFF1F00000000000000000000000066
:100BD0000000000000000000000000000000000015
:100BE0000000000000000000000000000000000005
:100BF0000000000035ACFF1F0000000000000000F6
:0C0C000001FF01FF01FF01FF41000000A7
:020000041FFFDC
:1048000038220020D548FF1FDD48FF1FDF48FF1F6B
:104810000000000000000000000000000000000098
:10482000000000000000000000000000E148FF1F41
:104830000000000000000000E348FF1FE548FF1FE4
:104840000000000000000000000000000000000068
:104850000000000000000000000000000000000058
:104860000000000000000000000000000000000048
:104870000000000000000000000000000000000038
:104880000000000000000000000000000000000028
:104890000000000000000000000000000000000018
:1048A0000000000000000000000000000000000008
:1048B00000000000000000000000000000000000F8
:1048C0000348854600F06CF90048004715C2FF1FF9
:1048D000382200200448804704480047FEE7FEE7EE
:1048E000FEE7FEE7FEE7FEE73D66FF1FC148FF1F4C
:1048F000F0B51FB40646002082B005464024019161
:1049000000901BE0019922460F46304600F0F4F873
:10491000049A059B801A994110D3104619462246E5
:1049200000F0DAF8361A8F41019722460120002163
:10493000009F00F0D1F838184D4100902046641EC9
:104940000028DFDC019B00982946324607B0F0BD05
:10495000F0B51FB486B00020009001900290069838
:10496000069980B204900798090C020400141143C0
:1049700007900027089D099806913E463C46039003
:104980000398A9B20204000C039004982D0C15435F
:1049900048430021224600F09FF8C71971411034A6
:1049A0000E46402CECDB3846029A00F095F8009A4F
:1049B000019B80180090594102980191103002909B
:1049C0004028CCDB00980BB0F0BD000038B50446A1
:1049D000C0681821401E4843A16840183C21484344
:1049E000616840183C2148432168451860690C21E2
:1049F0004843216940186921C900401A302100F05C
:104A00000DF9114A50434219084600921A2902DB57
:104A10000E49511800910C2100F000F90C4A504346
:104A2000009A801800900B4806E0491E425C074B34
:104A30005A43009BD21800920029F6DC21466846B2
:104A400000F074F8009838BD801F8607805101007F
:104A50008033E10130E6FF1F10B5431A934209D2BB
:104A60008318881803E0401E01785B1E1970521EDF
:104A7000F9D210BD03460B439B0703D009E008C9D8
:104A8000121F08C0042AFAD203E00B780370401CFE
:104A9000491C521EF9D210BDD2B201E00270401C76
:104AA000491EFBD270470022F6E710B513460A46AE
:104AB00004461946FFF7F0FF204610BD10B500224E
:104AC00000E0521C835C8C5CA34201D1002BF8D126
:104AD000D8B2E1B2401A10BD10B5202A04DB01465D
:104AE000203A9140002010BD914020239C1A03469B
:104AF000E3401943904010BD10B5202A04DB08465E
:104B0000203AD040002110BD0B46D340D040202495
:104B1000A21A91400843194610BD000010B5024981
:104B200000F004F810BD00000C12002070B50C4617
:104B300000683C2100F078F821603C2100F074F816
:104B40006160182100F070F80546A1600721001D82
:104B500000F06AF8A1610F48A90008180E4900F09A
:104B600063F80246443288086261E0613B2802D360
:104B7000910700D0401C0021084B0A462161995C36
:104B8000814203D8401A521C2261F8E7401CE060C1
:104B9000204670BD6C0B0000B50500003CE6FF1F11
:104BA000064C0125064E05E0E36807CC2B430C3C80
:104BB00098471034B442F7D3FFF786FEACE6FF1FE8
:104BC000FCE6FF1F70B58C180578401C6B075B0F67
:104BD00001D10378401C2A1106D10278401C03E061
:104BE00006780E70401C491C5B1EF9D12B0705D4BA
:104BF0000023521E0DD40B70491CFAE70378401CA9
:104C0000CB1A921C03E01D780D70491C5B1C521ED0
:104C1000F9D5A142D8D3002070BD000003B40148EB
:104C2000019001BD9502000003B40148019001BD4F
:104C30006902000003B40148019001BDC13C0100BC
:104C400003B40148019001BDED3C010003B40148EB
:104C5000019001BDC93A010003B40148019001BDB2
:104C60005518000003B40148019001BD351800003B
:104C700003B40148019001BD7181000003B40148F3
:104C8000019001BD2D15000003B40148019001BD44
:104C90006941010003B40148019001BD39140000CD
:104CA00003B40148019001BD1117000003B401488D
:104CB000019001BDF13E010003B40148019001BD26
:104CC0001B3D010003B40148019001BD71140000B7
:104CD00003B40148019001BDC131000003B4014893
:104CE000019001BDB142010003B40148019001BD32
:104CF000D542010003B40148019001BDC912000072
:104D000003B40148019001BD3D42010003B40148D4
:104D1000019001BD5D19000003B40148019001BD7F
:104D2000593A010003B40148019001BDC1180000C7
:104D300003B40148019001BD3515000003B40148DA
:104D4000019001BD4117000003B40148019001BD6D
:104D5000E915000003B40148019001BD897B000002
:104D600003B40148019001BDD520000003B40148FF
:104D7000019001BDA5E5000003B40148019001BD0B
:104D8000C91F000003B40148019001BDB51E000019
:104D900003B40148019001BD3D1C000003B401486B
:104DA000019001BD0D1D000003B40148019001BD3B
:104DB0008306000003B40148019001BD01430100D6
:104DC00003B40148019001BDE120000003B4014893
:104DD000019001BDF53C010003B40148019001BD03
:104DE0005D3F010003B40148019001BDDD210000D9
:104DF00003B40148019001BD5590000003B401487F
:104E0000019001BD01E6000003B40148019001BD1D
:104E10005108000003B40148019001BD7D3A010032
:104E200003B40148019001BD913F010003B4014862
:104E3000019001BDA942010003B40148019001BDE8
:104E40001910000003B40148019001BD113A01009E
:104E500003B40148019001BDA53C010003B4014821
:104E6000019001BD3917000003B40148019001BD54
:104E70008117000003B40148019001BD4D2A0000D4
:104E800003B40148019001BD292A000003B4014880
:104E9000019001BDD136000003B40148019001BD6D
:104EA0006D07000003B40148019001BDBD0700007B
:104EB00003B40148019001BD891C000003B40148FE
:104EC000019001BDE907000003B40148019001BD54
:104ED0003D07000003B40148019001BD211A000004
:104EE00003B40148019001BD050E000003B4014860
:104EF000019001BD2D0E000003B40148019001BDD9
:104F00008922000003B40148019001BD610E000038
:104F100003B40148019001BD9D0E000003B4014897
:104F2000019001BDD50E000003B40148019001BD00
:104F3000FD0E000003B40148019001BD610F0000A7
:104F400003B40148019001BDED3A010003B40148EA
:104F5000019001BDBD02000003B40148019001BDF4
:104F6000E997000003B40148019001BD3D9800009D
:104F700003B40148019001BDE58D000003B4014870
:104F8000019001BD4977010003B40148019001BDC2
:104F90008D3C010003B40148019001BDE55B0000B8
:104FA00003B40148019001BDE129000003B40148A8
:104FB000019001BD9937000003B40148019001BD83
:104FC0005114000003B40148019001BD091F000005
:104FD00003B40148019001BDA579000003B4014864
:104FE000019001BD4103000010B5034A132103489D
:104FF00001F0AAF810BD000078E4FF1F14E7FF1FBE
:10500000F8B504460D4616460027002C05D12A4661
:1050100031460448FFF70EFE01E0022700BF00BF43
:105020003846F8BDFDE6FF1FFFB58DB000200B90A0
:105030000C900BAA0E990D9800F086F804460A2CE5
:105040005EDA204604F049FA054634480078022822
:1050500001D1012000E0002000902A462146109B4B
:105060000F9804F011F91422002106A8FFF7E8FDBB
:105070002146062251432431C8B206AA102107F066
:10508000B9F9002815D11022FF2106A8FFF7DEFD8F
:1050900000280ED12146062251432531C8B20AAA62
:1050A000042107F0A7F9E907C90F06AA0F98FFF72F
:1050B000D3FD21467031C8B202AA102107F09AF937
:1050C000002813D102A804F01CFA00260CE0B0005E
:1050D00002A947183888002804D0BA7839880F9870
:1050E00001F082F8701CC6B2042EF0DB02202840CA
:1050F000002804D00A4801780F9801F05FF800BF3B
:105100001098042806D105480078022802D10F988B
:1051100004F06CFA002011B0F0BD000091E9FF1F0F
:1051200090E9FF1F10B50446054804600548017862
:105130002620FFF797FD0348007800F0FFFF10BD21
:10514000A4E9FF1F90E9FF1FF8B506460F46144675
:105150000A25002E06D0012E05D0022E11D0032ED6
:1051600029D11BE000BF384604F068F905460A2D36
:1051700006DA002C04D0062239462046FFF75AFDF5
:105180001AE0384604F072F905460A2D05DA002CBB
:1051900003D02146284604F083F90DE0384604F098
:1051A000FFF905460A2D05DA002C03D021462846D2
:1051B00004F076F900E000BF00BF2846F8BD00000B
:1051C000FEB506460D4614460020029001208002DE
:1051D000301A0300FFF74CFD110A161F2B37434E00
:1051E0005A6370ABB7C3D2E5E585E500012D06D162
:1051F0002078022803DC20787249087001E018202A
:105200000290DBE0022D03D120886F49088001E085
:1052100018200290D2E0012D06D12078012803DC6D
:1052200020786A49087001E018200290C6E0012D3C
:1052300006D12078042803DC20786549087001E055
:1052400018200290BAE0012D06D12078012803DC55
:1052500020786049087001E018200290AEE0102D1F
:1052600005D1102221465C48FFF7E4FC01E018203C
:105270000290A3E0012D06D12078012803DC2078DC
:105280005649087001E01820029097E0012D03D1E3
:1052900020785349087001E0182002908EE0042D18
:1052A00007D150492068884203D84F4920680860D8
:1052B00001E01820029081E0002D0FD1FFF7DEFC05
:1052C000002807D104F028F8502007F08FF804F0E8
:1052D0002DF905E001204549087001E018200290F1
:1052E0006CE0072D20D10622611C6846FFF7CCFC3C
:1052F000207800226946FFF727FF07460A2F10DAB9
:10530000FFF7BCFC002808D1384604F015F85020FF
:1053100007F06CF804F00AF905E001203449C8559B
:1053200001E00220029001E01820029046E0012DE9
:1053300006D12078012803DC20782E49087001E08E
:10534000182002903AE0012D06D12078092803DCCC
:1053500020782949087001E0182002902EE0012DE4
:1053600009D12078072806DB2078102803DC207874
:105370002249087001E0182002901FE0012D0DD194
:105380001F48077820781E490870002F05D108466D
:105390000078012801D104F0C9F801E0182002903A
:1053A0000CE0272E07DA022D05D121883046FFF7C1
:1053B00059FC029001E00220029000BF00BF029859
:1053C000FEBD000091E9FF1F92E9FF1F94E9FF1F56
:1053D00095E9FF1F96E9FF1F9A08002097E9FF1F34
:1053E0009AE9FF1F3F420F009CE9FF1FA9E9FF1F39
:1053F0003609002098E9FF1F99E9FF1FA0E9FF1F68
:10540000A8E9FF1F70B505460C46002603200002E0
:10541000281A0300FFF72CFC1D10141A20242A2E32
:1054200032394044484E52565A5E62666A6E72780D
:105430007C809084888C900045480078207084E0BF
:10544000102244492046FFF7F5FB7EE01022424936
:105450002046FFF7EFFB78E040480068206074E0EA
:1054600006223F492046FFF7E5FB6EE03D48007805
:1054700020706AE03C480088208066E03B48027863
:105480003B492046FFF7D6FB5FE03A4802783A49AD
:105490002046FFF7CFFB58E038480078207054E0F2
:1054A00037480078207050E0062236492046FFF742
:1054B000C1FB4AE034480078207046E03348007869
:1054C000207042E03248008820803EE03148008869
:1054D00020803AE030480078208036E02F4800886D
:1054E000208032E02E48008820802EE02D48008861
:1054F00020802AE02C480088208026E006222B49C4
:105500002046FFF797FB20E02948008820801CE018
:1055100028480088208018E027480088208014E070
:1055200026480078207010E02548008820800CE094
:1055300024480088208008E0272D04DA2846FFF759
:10554000A9FB208000E0022600BF00BF304670BDEE
:105550002AE9FF1F5A0800206A0800202CE9FF1FD3
:1055600030E9FF1F36E9FF1F38E9FF1F3AE9FF1F47
:105570003BE9FF1F5AE9FF1F7A0800205BE9FF1F84
:105580005CE9FF1F5DE9FF1F63E9FF1F64E9FF1F7F
:1055900066E9FF1F6CE9FF1F74E9FF1F76E9FF1F33
:1055A00078E9FF1F7AE9FF1F7CE9FF1F6EE9FF1F03
:1055B0007EE9FF1F80E9FF1F82E9FF1F29E9FF1F26
:1055C00068E9FF1F6AE9FF1F10B50446134804701D
:1055D000002013490870401E124908800F480078C7
:1055E000FFF75EFB042010490870102200210F48CD
:1055F000FFF726FB102200210D48FFF721FB0020BA
:105600000C4908600C4908700C49087001200C49CD
:10561000087000200B49087010BD000028E9FF1F2A
:1056200029E9FF1F66E9FF1F2AE9FF1F5A0800202A
:105630006A0800202CE9FF1F5BE9FF1F5CE9FF1FE0
:1056400063E9FF1F64E9FF1FFEB506460C46012013
:10565000C0032040002810D047480078FFF726FB01
:10566000051E05D0284604F0BDF92846FFF724FBA7
:1056700020460121C9034840FEBD0120800320408F
:10568000002804D02046012189034840F4E7E007C0
:10569000C00F00283ED039480078002836D038485E
:1056A0000078052803D10320694608700CE03548CE
:1056B00001786846017034480178684641700622D6
:1056C0003249801CFFF7B6FA31480178684601720A
:1056D0003048017868464172694627480078FFF7EC
:1056E000F1FA002811D00720254908702A480068DF
:1056F00000280AD0284800680068002805D02648FD
:10570000006801681E480078884700BF20460121D4
:105710004840B1E702202040002816D01848007801
:1057200005280ED11D480088FFF7D2FA1C480088D2
:10573000002806D01A48028802210F480078FFF797
:10574000CDFA20460221484096E704202040002858
:1057500006D0002004F0E2F92046042148408BE7FF
:1057600008202040002805D003F08AFF20460821A9
:10577000484081E700207FE728E9FF1F36E9FF1F47
:1057800029E9FF1F5BE9FF1F5CE9FF1F5DE9FF1FC0
:1057900063E9FF1F64E9FF1F88E9FF1F66E9FF1F38
:1057A0006CE9FF1FF8B504460D4617461E4617481C
:1057B0000078052801D01420F8BD062C23DB192021
:1057C000C00184421FDA062D1DDB85421BDAFF2053
:1057D000F530874217DA0A2E15DB1920C001864200
:1057E00011DA0B4804800B4805800B4807800B48F2
:1057F0000680069804F092F9042109480078FFF722
:1058000073FA0020D8E71820D6E7000029E9FF1F27
:1058100076E9FF1F78E9FF1F7AE9FF1F7CE9FF1F88
:1058200028E9FF1FF8B506460C46154600200090F3
:10583000BA4830180300FFF71BFA190E1924FD2D82
:105840006A738DA7B3BFCAD6FDE2FCFBFAF9F8FD77
:10585000FDFDFDF7FD00102C05D110222946B048B2
:10586000FFF7E8F901E01820009054E1102C05D171
:1058700010222946AB48FFF7DDF901E0182000901F
:1058800049E1042C03D1A8492868086001E01820E8
:10589000009040E1012C37D1A44807782878A3492B
:1058A0000870002F14D008460078002810D1A048B6
:1058B0000078022807D09E480078062803D09C482C
:1058C000007804281FD19B480078FFF713FA1AE0EC
:1058D000002F18D195480078002814D094480078FB
:1058E00001280BD092480078032807D09048007810
:1058F000052803D08E480078042804D101218D4862
:105900000078FFF7FDF901E01820009003E1022C78
:1059100003D128888849088001E018200090FAE027
:105920001F2C14DC1F2200218448FFF789F922462E
:1059300029468248FFF77EF9814804707F4B224652
:1059400001217C480078FFF7E1F9009001E0182080
:105950000090E0E01F2C14DC1F2200217948FFF7A3
:105960006FF9224629467748FFF764F976480470B4
:10597000744B027800216F480078FFF7C7F9009058
:1059800001E018200090C6E0012C06D128780428F8
:1059900003DC28786D49087001E018200090BAE017
:1059A000012C06D12878032803DC28786849087080
:1059B00001E018200090AEE0062C05D10622294611
:1059C0006448FFF737F901E018200090A3E0012CAC
:1059D00006D12878072803DC28785F49087001E0A1
:1059E0001820009097E0012C06D12878032803DCCA
:1059F00028785A49087001E0182000908BE0022CAA
:105A000019D128885649088008460088002814D0F3
:105A100047480078052810D10846028802214548E9
:105A20000078FFF75BF908E04EE03EE030E020E070
:105A300010E003E062E0182000906CE0012C06D139
:105A40002878012803DC28784649087001E01820EE
:105A5000009060E02888022C08D1062806DB192176
:105A6000C901884202DC4049088001E01821009108
:105A700051E02888022C08D1062806DB1921C9012B
:105A8000884202DC3949088001E01821009142E097
:105A90002888022C06D1FF21F531884202DA3449E8
:105AA000088001E01821009135E02888022C08D1F7
:105AB0000A2806DB1921C901884202DC2D49088029
:105AC00001E01821009126E02F78012C13D1012F3D
:105AD00011D1082117480078FFF71EF9002807D1D7
:105AE00004F01CF8042113480078FFF7FDF804E0E7
:105AF0001620009001E0182000900CE0272E07DA15
:105B0000022C05D129883046FFF7ACF8009001E05F
:105B10000220009000BF00BF0098F8BDFFFCFFFF0F
:105B20005A0800206A0800202CE9FF1F36E9FF1FF1
:105B300029E9FF1F28E9FF1F38E9FF1F3BE9FF1F85
:105B40003AE9FF1F7A0800205AE9FF1F5BE9FF1FAF
:105B50005CE9FF1F5DE9FF1F63E9FF1F64E9FF1FA9
:105B60006CE9FF1F74E9FF1F76E9FF1F78E9FF1F4B
:105B70007AE9FF1F7CE9FF1F10B50446064800784C
:105B8000002807D1002C01D00448046003F0AEFFC8
:105B9000002010BD1120FCE729E9FF1F88E9FF1F45
:105BA00010B507480078052807D113220548018859
:105BB00005480078FFF7B6F810BD1220FCE700009A
:105BC00029E9FF1F66E9FF1F28E9FF1FF8B507460F
:105BD0000C461E4602252300FFF74AF80A0F060866
:105BE0000C090F0D0F0B0E0F002508E007E0002534
:105BF00005E004E003E002E001E0022500BF00BF91
:105C0000002D0FD121463846FFF792F80546002DAA
:105C100008D13046079A0699FFF790F8FFF794F8F5
:105C2000FFF798F82846F8BD70B504460025E00750
:105C3000C00F002805D0044A0421044800F084FA6B
:105C40000546284670BD00008CE4FF1F64E8FF1F76
:105C500010B503460C46002109E00801C018C068D1
:105C6000904202D10801C01810BD481C81B2A14267
:105C7000F3DB0020F8E7000010B504460F4804707D
:105C80000F49104800F024F800200AE00021C94321
:105C9000C2000D4B99520021C200D2185160411C24
:105CA000C8B20128F2DB012004F07CFC0348007834
:105CB000FFF756F80548FFF759F810BD44E8FF1FF5
:105CC0005AE8FF1FFFFF000048E8FF1FD59CFF1F99
:105CD00070B506460C46104886420ED1002009E0F9
:105CE0000021C9438200A152002182001219917043
:105CF000411CC8B20228F3DB0CE02146304603F019
:105D00009CFF0546002D04D00020C04328800020C1
:105D1000A87000BF70BD0000FFFF0000FFB581B09C
:105D20000C4615461F46002000900A98002826D1F0
:105D3000022F21D1287869780902401886B23146AD
:105D40000B988143002914D1E168019800F0E8F92B
:105D5000B04210D03246E168019800F07BFA009022
:105D60000098002807D161893246019800F006FAB0
:105D700001E08020009004E00D20009001E00B2065
:105D80000090009805B0F0BDFFB5C3B01D460026D9
:105D9000002745E0B90043980C1820882349884221
:105DA0003CD0A078002839D02846449A4C99FFF777
:105DB0004FFF4290429800282FD01D480078C01E07
:105DC000C0B2002204A902310192009102906A89B6
:105DD00020884B1C0390429900F050F800281BD1FA
:105DE0004298408969460882A078C007C00F002801
:105DF00005D0208804A9459AFEF7BEFF0643A07887
:105E000002210840002807D02088039004A94D9B58
:105E1000459AFEF7B7FF064300BF00BF781CC7B224
:105E2000022FB7DB304647B0F0BD0000FFFF000097
:105E3000EC10FF1F70B506460C460120C003204041
:105E4000002816D00C480078FEF730FF051E0BD056
:105E50002878B02803D1284604F050F800E000BFAD
:105E600000BF2846FEF728FF20460121C90348400D
:105E700070BD0020FCE7000044E8FF1FFFB587B0BD
:105E80000D461C46109E002006900590287A102191
:105E90000840002814D0099803F0C4FE0746002FDC
:105EA00005D00A2229460798B847059001E00E2040
:105EB00005900598002802D005980BB0F0BD00BFF2
:105EC000287802287ED168680078696849780902D4
:105ED000401880B20490292212020498811A90423C
:105EE00071D009DC8B49401A0FD001280ED002284E
:105EF00048D0032868D118E0012966D002297DD056
:105F000003297CD00429F5D1C9E000BF11980028ED
:105F100008D1EF68387830703A7820467968FEF713
:105F200089FE01E00B200590D6E01198002826D1CB
:105F300001203070E868007820706989491C88B2B7
:105F40000021FEF725FF0746002F0FD03178387863
:105F5000801C08183070B87A607078890012A070C0
:105F60003A78E01C7968FEF765FE07E03078001D9E
:105F7000307004220021601CFEF762FE01E00B205D
:105F80000590A9E01198002844D1E86800880190A4
:105F9000042030700198207001980012607003A9ED
:105FA0000198FEF7F5FE0746002F29D0F86800900B
:105FB00002AB6846828958493846FEF7EFFE002852
:105FC0000ED103E08AE039E083E046E03B7802212D
:105FD00052487A68FEF7E8FE002801D1401E029080
:105FE00000980078022808D1009802224168201DFC
:105FF000FEF720FE3078801C307003E00DE01EE0DC
:106000000198029068460089A070684600890012D5
:10601000E07001E00B2005905EE0119800280AD1A5
:10602000E968079800F07CF8074602203070277076
:106030003812607001E00B2005904DE000BF119810
:10604000002807D1E9680888022131702070011208
:10605000617001E00B2005903EE0E868FEF7AAFEC3
:10606000C7B21198B84217DC1198B84201D1002785
:1060700009E0129911984018B84201DA129F02E023
:106080001198381AC7B23770EA68119811183A4651
:106090002046FEF7CFFD01E0072005901CE0119897
:1060A000002813D1E8680721317001782170417808
:1060B00061708178A17041880912E17001792171C4
:1060C00081796171C1880912A17101E00B200590ED
:1060D00002E00120069000BF00BF01E00120069011
:1060E0000698012813D1099803F0CCFD0746002F2C
:1060F0000AD0129911983346224601910090294600
:106100000798B847059001E00E20059000BF05985C
:10611000D3E6000000280000FFFF00001E7C010005
:1061200070B505460E463146284603F086FD044606
:10613000002C01D0A07870BD0020FCE70149087058
:106140007047000045E8FF1FFEB504460F4616469F
:10615000002C0FD0019468460780FEF731FE0546FB
:10616000002D06D1002E04D06089314604F0F2F9EA
:10617000054600E002252846FEBD0000F8B50546AC
:106180000E4617460C480078FF2813D00A20FEF769
:106190001DFE0446002C0CD0B12020700020607041
:1061A00020716580E6802781214603480078FEF74C
:1061B00013FE00BFF8BD000045E8FF1F70B50446A0
:1061C0000D4608492046FFF7ABFF06460220304047
:1061D000002804D029462046FEF704FE70BD0120A9
:1061E000FCE700005AE8FF1F7CB505460E46144642
:1061F000684604712004010E6846417100200223A4
:1062000001AA31460090284600F001F87CBDFFB598
:1062100083B00D461E4602A92846FEF7B9FD01903F
:106220000198002811D06846008903F047FD074611
:10623000002F08D00C98F3B20090059A01990398AA
:10624000B847044600E00E2400E00124204607B0D1
:10625000F0BD0000F8B505460F46164639462846FB
:1062600003F0EBFC0446002C09D13946054803F045
:10627000E4FC0446002C01D11120F8BD2580A67055
:106280000020FAE7FFFF000070B504460025E00794
:10629000C00F002805D0044A07210448FFF754FF27
:1062A0000546284670BD0000A0E4FF1FB8E8FF1FA8
:1062B00070B505460C460026002D04D0012D08D0EF
:1062C000042D10D109E0152209492046FEF7B2FC41
:1062D0000BE008480088208007E008220649204695
:1062E000FEF7BAFB01E0022600BF00BF304670BDDA
:1062F00044080020AAE8FF1FAEE8FF1FF8B50646D5
:106300000C46154600273300FEF7B2FC0805143C86
:106310003C1C3C26313C152C0ADC162200211C4872
:10632000FEF78EFC224629461948FEF783FC00E062
:10633000182729E0022C03D128881649088000E09C
:10634000182721E0082C05D1082229461248FEF71B
:1063500083FB00E0182717E0012C06D10F492878AD
:10636000CA69283104F052FA00E018270CE0012C29
:1063700006D10A492878CA6B483104F047FA00E090
:10638000182701E0022700BF00BF3846F8BD000013
:1063900044080020AAE8FF1FAEE8FF1FB8E8FF1F6F
:1063A000C206D20E01219140014A116070470000DF
:1063B00000E100E010B5002819DA1A4A03071B0FA4
:1063C000083B9B089B00D2588307DC0EFF23A340A9
:1063D0009A438B071B0E8407E40EA3401A43114B0C
:1063E0000407240F083CA408A4001A5118E00E4A20
:1063F00003231B02D21883089B00D2588307DC0EAC
:10640000FF23A3409A438B071B0E8407E40EA3408F
:106410001A43054B032424021B198408A4001A51B3
:1064200010BD00001CED00E000E100E010B5002808
:1064300019DA1A4A03071B0F083B9B089B00D25826
:106440008307DC0EFF23A3409A438B071B0E8407B0
:10645000E40EA3401A43114B0407240F083CA40880
:10646000A4001A5118E00E4A03231B02D218830815
:106470009B00D2588307DC0EFF23A3409A438B076F
:106480001B0E8407E40EA3401A43054B0324240289
:106490001B198408A4001A5110BD00001CED00E077
:1064A00000E100E010B5002819DA1A4A03071B0FB3
:1064B000083B9B089B00D2588307DC0EFF23A340B8
:1064C0009A438B071B0E8407E40EA3401A43114B1B
:1064D0000407240F083CA408A4001A5118E00E4A2F
:1064E00003231B02D21883089B00D2588307DC0EBB
:1064F000FF23A3409A438B071B0E8407E40EA3409F
:106500001A43054B032424021B198408A4001A51C2
:1065100010BD00001CED00E000E100E010B5002817
:1065200019DA1A4A03071B0F083B9B089B00D25835
:106530008307DC0EFF23A3409A438B071B0E8407BF
:10654000E40EA3401A43114B0407240F083CA4088F
:10655000A4001A5118E00E4A03231B02D218830824
:106560009B00D2588307DC0EFF23A3409A438B077E
:106570001B0E8407E40EA3401A43054B0324240298
:106580001B198408A4001A5110BD00001CED00E086
:1065900000E100E0F8B50446002003460A5C8507E8
:1065A000ED0EAA401343401C0428F7DB00F01EFF49
:1065B0000028FBD101F072FF21022004090E0843DC
:1065C000FF273F0221463940084372B600211A4D89
:1065D000A960194E0002803E801C3060336062B6B4
:1065E00000F004FF0028FBD101F048FF1120000655
:1065F000201869462A695207FCD572B60422AA609F
:1066000004020204240E2243384002431002C01C3C
:10661000306062B628694007FCD530780870307861
:106620004870307888703078C8700098984201D0EF
:106630000020F8BD0120F8BD800008110148024982
:106640000860704740787D0144EDFF1FF8B50646AD
:106650000027FEF7CDFB05460AE0FEF7C9FB04461E
:10666000AC4201D3601B02E00348401B00190746FF
:10667000B742F2D3F8BD0000FFFFFF0010B586B0AF
:106680000446142101A8FEF70EFA012C06D101A937
:10669000012000F04FF801A807F0D4FB022C01D133
:1066A00001F006FC06B010BD70B505460C46094861
:1066B00085420DD0012C07D0022C09D1012128469A
:1066C000FEF79CFB002803D103492846FFF700FB97
:1066D00070BD0000FEFF000092EBFF1F0146002985
:1066E00003D003480160002070471120FCE7000040
:1066F00068EBFF1F70B50446002509490948FFF7FC
:10670000E7FA0948FEF732FBE007C00F002805D082
:10671000064A14210648FFF717FD0546284670BDB6
:1067200092EBFF1FFFFF0000A966FF1F24E6FF1F7B
:1067300004ECFF1F70B504460D4600262300FEF74B
:1067400097FA05040A10161C220014221049284644
:10675000FEF782F919E014220E492846FEF77CF96B
:1067600013E014220C492846FEF776F90DE00422C6
:106770000A492846FEF770F907E00422084928462E
:10678000FEF76AF901E0022600BF00BF304670BD87
:106790008011002094110020A8110020ACEBFF1FF5
:1067A000D7EBFF1FFEB505460C46164600272B000B
:1067B000FEF75EFA0504101C32485E00002C07DD6F
:1067C000142C05DC224631462C48FEF745F900E042
:1067D00018274FE0002C07DD142C05DC224631463B
:1067E0002748FEF739F900E0182743E0002C11DDB7
:1067F000142C0FDC224631462248FEF72DF9FF20EB
:106800001421214B0022009101901E491F48FFF7DF
:10681000BBFA00E018272DE0002C11DD142C0FDC52
:10682000224631461A48FEF717F9FF201421164B6D
:1068300000220091019016491648FFF7A5FA00E0E2
:10684000182717E0002C11DD142C0FDC22463146EE
:106850001148FEF701F9FF2014210B4B0022009193
:1068600001900D490D48FFF78FFA00E0182701E06D
:10687000022700BF00BF3846FEBD00008011002087
:1068800094110020A811002004ECFF1F92EBFF1FC1
:10689000ACEBFF1FB0EBFF1FD7EBFF1FDCEBFF1FC5
:1068A0001CB5044621463FA005F01EFF052C04D16F
:1068B00041494248FEF7A6FD71E0414800780528AD
:1068C0002CD1052C2AD00120019001213A480088C2
:1068D00007F07EFC042C0CD120210820FEF7C2F921
:1068E00020210920FEF7BEF936490020FEF7BAF94B
:1068F0000DE0192189010820FEF7B4F91921890159
:106900000920FEF7AFF900210846FEF7ABF901AA0E
:1069100001212A480938FEF785FF40E02848007821
:10692000022825D1032C23D127480078002803D042
:1069300000202549087032E00820FEF7ABF9202836
:106940002DD101200190192189010820FEF78AF933
:10695000192189010920FEF785F900210846FEF773
:1069600081F901AA012115480938FEF75BFF16E0FD
:10697000012C14D16946C1208000FEF743FD684612
:106980004179C17101798171C17841710021017131
:10699000C1706A4608210020FEF732FB00BF08489C
:1069A00004701CBD577269737447617053746174CD
:1069B0006543423A2025640064EAFF1F0E0300008D
:1069C00031EAFF1F3075000066EAFF1F10B504466C
:1069D00020791E2807D104A005F086FE6088FEF706
:1069E00013FA00F02EFC10BD57726973745F707259
:1069F0006F63657373474154544D73670A00000019
:106A00000FB410B504A9074B02AA039800F01CF8B4
:106A1000044602A9002000F0BFF9204610BC08BCC3
:106A200004B01847996DFF1F02E008C8121F08C183
:106A3000002AFAD170477047002001E001C1121FFF
:106A4000002AFBD170470000FFB58FB00546002635
:106A500006E025280AD0129A119990476D1C761CE1
:106A600028780028F5D1304613B0F0BD00240294F8
:106A70000121B54A009400E004436D1C2B780846C0
:106A8000203B98401042F7D128782A280ED00222C5
:106A9000287801463039092916D802990A23594322
:106AA0003039401814436D1C0290F1E7109802C869
:106AB00002911090002904DA012040030443484267
:106AC0000290022004436D1C28782E2817D1042040
:106AD000044368786D1C2A280CD110986D1C02C8DC
:106AE000009110900BE000990A2251433039401870
:106AF0006D1C00902878014630390929F3D928788F
:106B00006C2810D006DC4C281AD068280ED06A28D1
:106B100017D104E0742813D07A2812D110E0012094
:106B2000400504430CE00121090501E003210905AA
:106B30000C436978814203D10120000524186D1CA3
:106B40006D1C2878692874D006DC00288BD0632857
:106B500027D0642806D16CE06E2808D073282CD08A
:106B6000752878D0129A11999047761C5FE06002E0
:106B7000400F022809D003280DD00428109801687E
:106B80000DD00E60001D109051E01098F2170168B2
:106B90000E604A60F6E7109801680E80F2E70E700A
:106BA000F0E710986A4601781173001D10900020DC
:106BB000507303A80190012005E0109802C80191CC
:106BC00010900020C04361070CD5002700E07F1C17
:106BD00000998F420FDA8742F9DB0199C95D0029DC
:106BE000F5D108E0002700E07F1C8742FCDB01991B
:106BF000C95D0029F8D102982146C01B0290129B62
:106C0000119A00F0B3F88019C61907E001980199AC
:106C10000078491C0191129A119990477F1EF5D274
:106C20002146129B119A029800F090F886196D1C6B
:106C300016E70A200190109901C910916102490FCD
:106C4000032900D100B2042900D140B2002803DAA0
:106C500040422D2103E00DE0210504D52B216A4699
:106C60001173012103E0E10711D02021F7E70CAFF8
:106C70000C9114E00A200190109901C91091610251
:106C8000490F032900D180B2042900D1C0B20021EC
:106C9000EDE70199FDF7C8FF30317F1E39700028FC
:106CA000F7D104A8C01B20300190600704D5012053
:106CB00000048443009801E001200090019988427B
:106CC00001DD401A00E00020411800900C980918DE
:106CD0000298401A0290E00306D42146129B119AB2
:106CE000029800F043F8861900200D9008E003A9EF
:106CF000085C129A119990470D98401C761C0D90D3
:106D00000C998842F3DBE0030CD52146129B119AC3
:106D1000029800F02BF8861904E0129A302011999D
:106D20009047761C0099481E00900029F5DC05E08C
:106D30003878129A7F1C11999047761C0199481E49
:106D400001900029F4DC6BE709280100F8B504463E
:106D500000251E461746880404D405E03946202045
:106D6000B0476D1C641EF9D52846F8BDFFB5044632
:106D7000002581B01E46C80301D5302700E020273A
:106D8000880404D505E038460399B0476D1C641E9D
:106D9000F9D5284605B0F0BD0A68531C0B60107089
:106DA000704710B502211D20FFF7B8FB10BD000091
:106DB00030B58BB004465F48047006211F20FDF7F4
:106DC00051FF01210A9107210991002108910791A2
:106DD000142106911E210591002104917D21C900F5
:106DE000039155A103C902910190002100916A46C7
:106DF00001215348FEF716FD01AA06215048801CC8
:106E0000FEF710FD09AA0121C3208000FEF70AFD4C
:106E10000AAA01214A48001FFEF704FD08AA022120
:106E20004748C01EFEF7FEFC464A15216120C000FF
:106E3000FEF7F8FC444A11214148801EFEF7F2FC9F
:106E400007AA012131200001FEF7ECFC06AA02216D
:106E50003B480830FEF7E6FC05AA02213848093015
:106E6000FEF7E0FC04AA022135480A30FEF7DAFCFE
:106E700003AA0221C5208000FEF7D4FC334A152165
:106E80000020FFF73BFA1925AD0129460620FDF742
:106E9000E9FE29460720FDF7E5FE29460820FDF713
:106EA000E1FE29460920FDF7DDFE00200A900021C1
:106EB00009910121089103210791012106910AAA54
:106EC00004218120C000FEF77BF909AA0121880274
:106ED000FEF776F908AA01211948F930FEF770F992
:106EE00007AA01211648FA30FEF76AF906AA01211D
:106EF0001348FD30FEF764F90020C043FFF7C4F9E2
:106F00000020C043FEF790FEFEF76EF805F07CFB14
:106F10000F4807F041F90020C043FFF7EBFB0D4895
:106F2000FFF7DCFB012103480078FDF7E9FE0BB019
:106F300030BD000030EAFF1F010203040506000017
:106F40000903000032EAFF1F47EAFF1F58EAFF1F4C
:106F500085E1FF1F7D66FF1F70B506460C460120C8
:106F6000C0032040002810D026480078FDF79EFE80
:106F7000051E05D0284600F055F82846FDF79CFE72
:106F800020460121C903484070BDE007C00F00281A
:106F900013D01D48FEF7F0FD1C48FEF7C3F8022190
:106FA00018480078FDF7ACFE19A005F09DFB06F02F
:106FB00035FF204601214840E6E704202040002814
:106FC00003D0204604214840DEE701204002204053
:106FD000002804D02046012149024840D4E702207D
:106FE000204000280BD005F061FB0D4A0221054826
:106FF0000078FDF773FE204602214840C4E70020D8
:10700000C2E7000030EAFF1F68EAFF1F18E5FF1F14
:107010007765636861745F696E69740A00000000D7
:107020008813000010B504462078B02802D120460D
:10703000FFF7CCFC10BD0000FEB504460027194840
:10704000192292010023056841682846FDF750FC8B
:10705000009001A806F07EFA1248806801998842E3
:1070600003D9114900984018009010490198FDF784
:10707000DBFD0099401800906846FDF74FFD07467C
:10708000387C401C2071B88A09494018E080387B60
:10709000E070387AA07038796070387820700020FD
:1070A000FEBD0000280D0020C2F5280040060000AB
:1070B0006C070000F1B584B001A806F04BFA049803
:1070C000FDF784FC00260546294614A005F00CFBBC
:1070D0001921890100202C46374603910290204651
:1070E0003946029B039AFDF733FC05460E463146AE
:1070F00000220198281A9141094A03C208490198BF
:10710000886008A005F0F0FA1021054805F0FEFBA4
:107110000CA005F0E9FA05B0F0BD000025780000EC
:10712000280D00206170705F6461746574696D651D
:107130005F61646A7573745F626173656C696E65C3
:107140003A0A00000A00000003B58FB02C2104A801
:10715000FDF7A9FC10A80078401E089010A84088F0
:107160001649401A099008A8C07F079008A8807F98
:10717000069008A8407F059008A8007F049010A002
:1071800005F0B2FA08A8017F427F807F0192029148
:10719000009008A8C37F10A8027841880DA005F0D0
:1071A000A3FA04A8FFF786FF1021114805F0AEFBF3
:1071B00010A005F099FA002011B000BD6C07000086
:1071C0000A6170705F6461746574696D655F736591
:1071D000743A0A0054696D652069732025642D2571
:1071E000642D25642C2025643A25643A25640A0020
:1071F000280D00200A00000010B5FDF70BFE01204D
:10720000FDF70EFEFDF712FE002010BDF0B50024C4
:107210008E464A1E12E0714600230D1B6D1E0AE0C9
:107220009E0031188C46875949688F4202D9815196
:1072300061464F605B1C9D42F2D8641C9442EAD3C5
:10724000F0BD10B500F002F810BD0000F0B5BFB001
:10725000002601253B493C48FEF7D4F83B49394814
:107260000088FEF75DFF074602203840002866D000
:1072700037484089694688803648006814282ADDE6
:10728000002E28D114208871002409E032480068BB
:10729000001932490968095C01A803300155641CD2
:1072A000142CF3DB2E480378002201A9254800881E
:1072B000FDF768FD0546002D0CD127480068143005
:1072C0002549086023480068143822490860284688
:1072D0003FB0F0BD01261F480068142809D01D48A2
:1072E000006800282BDD1B480068142827DA002ED0
:1072F00025D11848007869468871002409E01648AD
:107300000068001915490968095C01A80330015596
:10731000641C104800688442F1DB114803780022A5
:1073200001A908480088FDF72DFD0546002D05D16F
:10733000084908600B4908702846C9E70126122051
:10734000C6E7000054EBFF1F0E03000092EBFF1F87
:1073500084ECFF1F5CEBFF1F60EBFF1F58EBFF1F70
:1073600030EAFF1F64EBFF1F70B504460D46054869
:10737000046005480560002004490860FFF766FFC7
:1073800070BD000058EBFF1F5CEBFF1F60EBFF1FA1
:1073900008B50548009068460078122801D1012000
:1073A00008BD0020FCE700007856341210B500201C
:1073B000054CFF212218401C51704028FADB05F0D3
:1073C0008DFC207010BD0000C811002010B50020F9
:1073D000054CFF212218401C51700628FADB05F0ED
:1073E0009BFC207010BD00004DEDFF1F0848016997
:1073F0004907FCD5012181600549052280390A70C1
:1074000002695207FCD50878C007C00F704700001A
:107410008000081110B502460B460021002000BF75
:1074200003E0545C60404C1CE1B29942F9DB10BDB2
:10743000F0B58646080CFF268446002388B23746FE
:107440001C46194601228A4005461540CD402C199C
:10745000A4B2FF2F02D1012C00D18FB265462A4081
:10746000CA40D21893B2FF2E02D1012B00D18EB2A6
:10747000491C1029E6DB012C02D0102C08D009E0B1
:10748000012B07D13001C019714608700220F0BDF0
:10749000102B01D00320F0BD0120F0BD10B5282134
:1074A0000148FDF700FB10BD200C0020032800DA86
:1074B0007047012189078968012282409143012296
:1074C0009207916000BFF3E7032800DA70470121BB
:1074D0008907896801228240114301229207916045
:1074E00000BFF3E701480068704700001010FF1F5D
:1074F00001218907096801228240914301229207F4
:10750000116011460968012282401143012292074D
:107510001160704730B585B004460D4603A8FFF7EB
:107520008BFD21786846017061784170408A7D2129
:107530000901401AC1B268468170017CC170C17BEB
:107540000171817B4171417B8171017BC171082196
:10755000FFF760FF694608720921684600F04CF8A1
:1075600005B030BDF8B504460F462646B178F07830
:1075700004F0BCFC0546002D00D100E00A200546C1
:10758000EAB23946204600F04FF8F8BD70B504461F
:107590000D4600222946204600F046F870BD10B581
:1075A00086B00446217868460171617841710121F5
:1075B0008171002101A8C170022101710121684679
:1075C0004172002101A8817101216846C172002128
:1075D00001A8017203A90131C1208000FDF712FF4B
:1075E000132101A8FFF716FF6946C875142101A8E9
:1075F00000F002F806B010BD70B5BEB006460D46EC
:10760000F8216846FDF74FFA69468D70002404E0C2
:10761000315D00A803300155641CAC42F8DB6846BC
:1076200006F0F0FD3EB070BD70B5C0B004460D462A
:107630001646207869460871012D01DD607800E06A
:1076400000206946487168468671032101A8FFF74A
:10765000E1FE01466846C171F82102A8FDF723FA50
:107660000421684681720179C172417902A80171D1
:107670006846817902A841716846C17902A8817182
:1076800006F0C0FD40B070BDF0B587B004460F46AF
:107690000026254605A8FFF7CFFCA8787D21090123
:1076A000411868464182E97801742979C173697982
:1076B0008173A9794173E9790173017B427B807BF6
:1076C0000192029100906846C37B027C418A07A028
:1076D00005F00AF804990398FFF736FD0646F2B262
:1076E00039462046FFF7A0FF07B0F0BD636D645F29
:1076F0007365745F74696D653A2025642C25642C6C
:1077000025642C25642C252C25640A00F8B5064632
:107710000D4617462A46314607A004F0E5FF00242F
:1077200007E0A0003A5821460DA004F0DDFF601CE0
:10773000C4B2AC42F5DBF8BD636D642069642069B6
:107740007320307825782C20706172616D657465C6
:1077500072206E756D2069732025640A0000000098
:10776000706172616D202564203A2025730A000043
:107770007FB505460C460E4B0FCB6E460FC6002C50
:1077800002D1062004B070BD0A4A0B49222003F042
:107790004DFF68460FC804F045F9084845600020D1
:1077A000074908704880054884600020EAE7000027
:1077B00054E5FF1FED7AFF1FD97AFF1F3811002013
:1077C000380D0020F0B58DB000200C90614F0120E5
:1077D00080023818406803903D1D002002900190FF
:1077E000009001240BE0601E285C612805D1285D13
:1077F000742802D1601C84B204E0601C84B27888D2
:10780000A042F0DC00BF7888A04204D152A004F06E
:107810006BFF0DB0F0BD2819029014E0285D202800
:1078200002D0285D002802D1002028550EE0285DF6
:10783000202802DB285D7D2803DD50A004F054FFE2
:10784000E7E7601C84B27888A042E7DC00BF0298BA
:10785000FDF7B0FA002803D153A004F045FFD8E7A4
:1078600000261EE0F1000398405A002805D0F100E0
:10787000039808184068002803D152A004F034FF90
:10788000C7E7F2000398101841680298FDF716F94F
:10789000002804D1F1000398405A0C9003E0701CBA
:1078A00086B2202EDEDB00BF0C98002803D14FA04B
:1078B00004F01AFFADE7601C84B2281901903BE088
:1078C000285D202818D1002028550198FDF772FA6C
:1078D000002800D133E00099890004AA0198505093
:1078E0000098401CC0B200900098082800DB26E0F9
:1078F0002819401C01901DE0285D00280FD1019837
:10790000FDF758FA002800D119E00099890004AA6F
:10791000019850500098401CC0B200900FE0285DC4
:10792000202802DB285D7D2803DD3BA004F0DCFE7F
:107930006FE700BF601C84B27888A042C0DC00BF43
:1079400001208002381804AA836800990C9898478F
:1079500000BF5EE7380D00205061727365206669D4
:107960006C65642C20646964206E6F7420666F758A
:107970006E6420226174220A00000000506172735C
:1079800065206661696C65642C20636D64206861A4
:107990007320696C6C6567616C20636861726163F8
:1079A0007465720A000000005061727365206661A0
:1079B000696C65642C20636D6420697320656D704B
:1079C00074790A005061727365206661696C656440
:1079D0002C20636D64206973206E6F74206D617458
:1079E000636820636D646C6973740A00506172731C
:1079F00065206661696C65642C20636D6420697321
:107A0000206E6F74206D6174636820636D646C69AF
:107A100073745F310A000000506172736520666103
:107A2000696C65642C20706172616D65746572208B
:107A300068617320696C6C6567616C206368617252
:107A400061637465720A0000F8B50646214C201D7A
:107A500000903078012802D0022838D100E000BF21
:107A600077682078002804D1222003F0ABFD0120A4
:107A700020702078012826D1002520E0785D0D288F
:107A800002D0785D0A2811D10021628800988154C3
:107A90006088401C608002202070FFF793FE002069
:107AA00020706080222003F00DFE0BE0795D62887B
:107AB000009881546088401C6080681CC5B2307A90
:107AC000A842DBDC02E0222003F0FCFD00E000BF66
:107AD00000BFF8BD380D002010B500210A2003F0CA
:107AE0004BFA01210A2003F04BFB10BD10B5002119
:107AF0000E2003F07FFB01210E2003F07BFB002111
:107B00000E2003F077FB002409E00A2003F00AFBB3
:107B1000002803D1222003F055FD02E0641C142C40
:107B2000F3DB00BF00210E2003F064FB01210E20D7
:107B300003F060FB00210E2003F05CFB00200149F4
:107B4000087010BD380D002070B586B005460C4693
:107B500014220EA101A8FCF77FFFAD1D06260FE041
:107B6000681E05460078001101A9085C2070641C9D
:107B700028780007000F085C2070641C701EC6B2D5
:107B8000002EEDDC064806B070BD00003031323307
:107B90003435363738394142434445460000000009
:107BA000BC11002070B504460D461646002D01D1CB
:107BB000002070BDE44348E029786D1C6140C8B2E4
:107BC00000F056F8210A4840044629786D1C6140AF
:107BD000C8B200F04DF8210A4840044629786D1CCF
:107BE0006140C8B200F044F8210A484004462978B0
:107BF0006D1C6140C8B200F03BF8210A48400446C1
:107C000029786D1C6140C8B200F032F8210A484062
:107C1000044629786D1C6140C8B200F029F8210A99
:107C20004840044629786D1C6140C8B200F020F835
:107C3000210A4840044629786D1C6140C8B200F012
:107C400017F8210A48400446083E082EB4DA002EF0
:107C50000CD000BF29786D1C6140C8B200F008F854
:107C6000210A48400446701E061EF3D1E043A0E7F7
:107C700010B501460846084B002209E0C407E40F8E
:107C8000002C02D044085C4000E044082046521C0E
:107C9000082AF3DB10BD00002083B8EDFFB583B0E8
:107CA0000F461D460D9E0C9C0020029078680078BF
:107CB000796849780902401880B20190714A0198A8
:107CC000811A904268D00ADC6F49401800280FD012
:107CD000012822D0022835D0032872D147E001299B
:107CE00073D002296FD003296ED02929F5D1ABE0DA
:107CF000082C02D3072002900EE00820001BB0429F
:107D000001D9304601E00820001B28702A785F481E
:107D100001190598FCF78EFFB0E00C2C02D3072068
:107D200002900EE00C20001BB04201D9304601E069
:107D30000C20001B28702A78554801190598FCF77B
:107D400079FF9BE00D2C02D3072002900EE00D205E
:107D5000001BB04201D9304601E00D20001B287005
:107D60002A784C4801190598FCF764FF86E0112C2D
:107D700002D3072002900EE01120001BB04201D96F
:107D8000304601E01120001B28702A784248011972
:107D90000598FCF74FFF71E0112C02D307200290E9
:107DA0000EE01120001BB04201D9304601E0112045
:107DB000001B28702A78394801190598FCF73AFF0A
:107DC0005CE056E001E015E029E0112C02D3072029
:107DD00002900EE01120001BB04201D9304601E0B4
:107DE0001120001B28702A782D4801190598FCF7EE
:107DF00021FF43E0112C02D3072002900EE0112056
:107E0000001BB04201D9304601E01120001B287050
:107E10002A78244801190598FCF70CFF2EE00E2C57
:107E200002D3072002900EE00E20001BB04201D9C1
:107E3000304601E00E20001B28702A781A480119EC
:107E40000598FCF7F7FE19E0072C02D307200290F3
:107E50000EE00720001BB04201D9304601E00720A8
:107E6000001B28702A78114801190598FCF7E2FEDA
:107E700004E0002028700A20029000BF00BF029892
:107E800007B0F0BD272A0000DDD5FFFFFDE6FF1F8C
:107E900004E4FF1F11E4FF1F1FE4FF1F31E4FF1F75
:107EA00043E4FF1F55E4FF1F67E4FF1F0DE7FF1FBB
:107EB0001CB5002001900090694601A800F01EF852
:107EC0000198002800D11CBD06A0009904F00CFC0C
:107ED00000990198FFF748FA0099019805F092FF80
:107EE00000BFF0E73E3E6465766963655F61757467
:107EF000682C6C656E3A25780A00000030B599B0A0
:107F000004460D4600201890284903C91791169081
:107F100027484089401C26494881264802F0ECFB4E
:107F200054222249083101A8FCF796FD18A80190B7
:107F300001A800F0C3FA2049097840182860286891
:107F400004F082F920602068002804D11BA004F00E
:107F5000CBFB19B030BD184B1B782868C21A164BE2
:107F60001B782068C11801A800F026FC002802DA5E
:107F700000202060EDE7164803F0D0FD10A98883AB
:107F8000298888B203F0CAFD014610A84183084938
:107F9000488903F0C3FD10A9C88307490A7816A9C8
:107FA0002068FCF759FD00BFD3E7000074E5FF1F10
:107FB0005011002045EBFF1F44EBFF1F0A4E6F746A
:107FC00020656E6F756768206D656D6F7279210031
:107FD000112700001CB5002001900090694601A8FF
:107FE00000F01EF80198002800D11CBD06A00099E1
:107FF00004F07AFB00990198FFF7B6F9009901980F
:1080000005F000FF00BFF0E73E3E646576696365FA
:108010005F696E69742C6C656E3A2578200A0000E1
:1080200030B58BB004460D4600200A90274903C99D
:108030000991089026484089401C2549488102F052
:108040002BFB1C222149083101A8FCF705FD0AA8D9
:10805000019001A800F087FB1E49097840182860AC
:10806000286804F0F1F820602068002804D11AA0E4
:1080700004F03AFB0BB030BD164B1B782868C21ACF
:10808000144B1B782068C11801A800F055FC00288B
:1080900002DA00202060EDE7144803F03FFD694656
:1080A0008884298888B203F039FD014668464184F6
:1080B0000749488903F032FD6946C88405490A78B2
:1080C00008A92068FCF7C8FC00BFD3E7D0E5FF1F74
:1080D000501100204BEBFF1F0A4E6F7420656E6F2E
:1080E000756768206D656D6F727921001327000038
:1080F000FFB58BB005460E461F4600200A9060492A
:1081000003C9099108905F484089401C5D49488136
:108110005D490988C81904F097F80446002C04D179
:108120005AA004F0E1FA0FB0F0BDFE202070CF207D
:108130006070012003F0F2FC608053490988C9197E
:1081400088B203F0EBFCA080012003F0E7FCE080A4
:108150004C49488903F0E2FC2081002060814A49B3
:10816000098860183A460D99FCF776FC00200490C7
:108170000590069007900AA804900594424800884C
:10818000C119069104A800F0D4FC454909784018AB
:108190003060306804F058F828602868002803D15F
:1081A0003AA004F0A1FABEE73D4B1B783068C21A32
:1081B0003B4B1B782868C11804A800F023FC00285A
:1081C00005DA0020286037A004F08EFAABE73E48BD
:1081D00003F0A4FC69468884318888B203F09EFCD1
:1081E0000146684641842749488903F097FC69465F
:1081F000C8842B490A7808A92868FCF72DFC002CB4
:1082000003D0204601F002F8002430A004F06CFAFC
:10821000286803900020019009E0019A0398815C8E
:108220002EA004F061FA0198401CC0B201903168A0
:1082300001988142F1D8286802900299888804F058
:1082400039F80146019026A004F04EFA02994888B8
:1082500004F030F80146019024A004F045FA029998
:10826000C88804F027F80146019023A004F03CFAE6
:108270000448C088401C0349C88000BF53E7000081
:1082800008E6FF1F5011002050EBFF1F0A4E6F74CD
:1082900020656E6F756768206D656D6F727921005E
:1082A00052EBFF1F0A6570625F7061636B5F7365FD
:1082B0006E645F646174615F72657175657374206B
:1082C0006572726F72210000122700000A23237367
:1082D000656E6420646174613A2000002025780096
:1082E0000A20434D4449443A202564000A206C6525
:1082F0006E3A2025640000000A205365713A20255B
:108300006400000010B590B000200F900A900B9010
:108310000C9000240990142104A8FCF7C4FB002051
:108320000190029003900DA9C1208000FDF76AF82A
:1083300001A90DA8FFF708FC0AA90020FDF7B8FF66
:1083400001AB0AAA0CA104A8FEF75AFB0446A3B28B
:1083500004AA09A90FA8FFF7CBFE0F98002801D1A6
:1083600010B010BD09990F98FEF7FEFF09990F98FC
:1083700005F048FD00BFF3E725733A2573000000C0
:1083800010B58EB000200D90182107A8FCF78BFBCC
:10839000142102A8FCF787FB00240020019007A904
:1083A000FDF786FF07AA0DA102A8FEF729FB0446E8
:1083B000A3B202AA01A90DA8FFF79AFE0D98002802
:1083C00001D10EB010BD01990D98FEF7CDFF0199B6
:1083D0000D9805F017FD00BFF3E7000025733A7014
:1083E0006F6E670030B593B0002012900F90109020
:1083F00011900E9000240025342101A8FCF753FBB6
:108400000FA90020FDF754FF01252B460FAA0DA14F
:1084100001A8FEF7F5FA0446A3B201AA0EA912A814
:10842000FFF766FE1298002801D113B030BD0E99F7
:108430001298FEF799FF0E99129805F0E3FC00BF21
:10844000F3E7000025733A627325640070B50446B3
:1084500026460948855DFF2D00D170BD00212846C4
:1084600002F068FD0021284602F0F8FD00212846B0
:1084700002F02CFE00BFF0E748E5FF1F0648016947
:108480004907FCD500218160034A0421803A11701C
:1084900001694907FCD57047800008110648016949
:1084A0004907FCD500218160034A0621803A1170FA
:1084B00001694907FCD570478000081170B5044672
:1084C00000250026206800F04EF8064631460A20B6
:1084D00000F068F945192079002804D01220E168DD
:1084E00000F060F9451900221820216900F04FFEC4
:1084F000451900222020616900F049FE4519217EBE
:108500000022282000F043FE4519607E002804D098
:108510003220216A00F046F945192420005D002828
:1085200004D03A20E16A00F03DF945193020005DA1
:10853000002804D05220A16B00F034F945193C20EA
:10854000005D002804D05A20616C00F02BF9451919
:108550004820005D002804D06220216D00F022F93F
:108560004519284670BD014600207047F8B50446FD
:108570000E4617463246A168206800F039F80546D5
:10858000002D01DA0020F8BDA268511B22685019A5
:108590006A4600F0ACF84519009838602068401928
:1085A000F1E770B504460D462946204600F059F81B
:1085B00070BD70B504460D462946204600F051F8BE
:1085C00070BD70B504460D46164632462946204613
:1085D000FFF7CCFF70BD0146C868704770B5044610
:1085E0000D461646324629462046FFF7BFFF70BDAE
:1085F000F7B582B005460E4600242DE02046641CE7
:10860000285C019008E0019800022146641C695C26
:108610004906490E08430190601E285C80210840ED
:10862000002801D0B442EEDB04990198884202D1BF
:10863000204605B0F0BD019988B200F07CF80090AA
:10864000311B2819009A00F024F80746002F01DAA0
:10865000641C01E0E41900BFB442CFDB0020C0433A
:10866000E7E7F8B504460E463246A1682068FFF7F2
:10867000BFFF0546002D01DA0020F8BD0020009064
:10868000A268511B226850196A4600F030F8009821
:10869000F3E7F8B505460E4617460024002F06D02E
:1086A000012F0FD0022F0FD0052F1AD117E000BFD6
:1086B0002046641C285C80210840002801D0B44278
:1086C000F6DB11E008340FE000200090311B281980
:1086D0006A4600F00CF804190098241804E0241DE0
:1086E00002E00020C043F8BD00BF2046FBE770B5A4
:1086F00003460C4600210846491C185C45066D0ED1
:108700000FE0A14202DB0020C04370BD052900DB61
:108710000DE0585C4006400ECE00761AB04005438E
:10872000491C481E185C802630400028E9D100BF53
:1087300015600846E9E701464807400F0A12002A7B
:1087400001D04A05500F704770B504460D462A46C1
:10875000A1682068FFF74CFF0646002E01DA0020D2
:1087600070BD0120FCE770B5044600250026206896
:10877000FFF7F9FE064631460A2000F013F84519C6
:108780002079002804D01220E16800F00BF8451988
:10879000207C002804D01A20A16900F003F84519B4
:1087A000284670BD70B505460C4600222146284675
:1087B00000F0EDFC001970BDF0B587B004460E4620
:1087C00017463A46314603A800F0B1F82068FFF793
:1087D000CAFE0290029803F037FD01902068029AC9
:1087E000019900F091F80546002D05DA019800F096
:1087F0000DFD284607B0F0BD0A2103A8029B019A8F
:1088000000F0EFF90546019800F000FD002D01DAB7
:108810002846EFE7207900280AD0122103A8E36850
:10882000A26800F0A3F90546002D01DA2846E1E729
:10883000182103A8226900F0CAF90546002D01DAC3
:108840002846D7E7202103A8626900F0C0F9054651
:10885000002D01DA2846CDE7227E282103A800F06A
:10886000ACF90546002D01DA2846C3E7607E0028F2
:108870000AD0322103A8236AE26900F077F905469D
:10888000002D01DA2846B5E72420005D00280AD033
:108890003A2103A8E36AA26A00F068F90546002DB0
:1088A00001DA2846A6E73020005D00280AD05221D0
:1088B00003A8A36B626B00F0A0F90546002D01DA56
:1088C000284697E73C20005D00280AD05A2103A8DB
:1088D000636C226C00F091F90546002D01DA284600
:1088E00088E74820005D00280AD0622103A8236D94
:1088F000E26C00F082F90546002D01DA284679E79E
:1089000003A8FFF768FE75E77FB506460C461546D7
:108910002A462146684600F00AF86846FFF75BFEE3
:1089200004B070BD0146CA688868801A704741600B
:1089300082600023C3607047F0B587B004460E46DE
:1089400017463A46314603A8FFF7F1FF2068FFF7C4
:108950000AFE0290029803F077FC01902068029AC8
:108960000199FFF7D1FF0546002D05DA019800F0C7
:108970004DFC284607B0F0BD0A2103A8029B019ACE
:1089800000F02FF90546019800F040FC002D01DAB7
:108990002846EFE7207900280AD0122103A8E368CF
:1089A000A26800F0E3F80546002D01DA2846E1E769
:1089B000207C00280AD01A2103A8A369626900F06C
:1089C000D5F80546002D01DA2846D3E703A8FFF7BE
:1089D00002FECFE770B504460E4615462046FFF767
:1089E000A1FFA8420BDBE268616888182A4631467D
:1089F000FCF732F8E0684019E060284670BD0020BE
:108A0000C043FBE7F0B587B004460E4617463A462A
:108A1000314603A8FFF78BFF2068FFF7A4FD029003
:108A2000029803F011FC01902068029A0199FFF767
:108A30006BFF0546002D05DA019800F0E7FB28469C
:108A400007B0F0BD0A2103A8029B019A00F0C9F803
:108A50000546019800F0DAFB002D01DA2846EFE721
:108A6000122103A8A368626800F080F80546002D73
:108A700001DA2846E4E7207B002809D0E2891821A2
:108A800003A800F09AF80546002D01DA2846D7E73A
:108A900003A8FFF7A0FDD3E770B504460D462846AE
:108AA00004F01CFC06462046FFF73CFFB0420EDBFC
:108AB000E26860688118022E03D12804000E087055
:108AC000491C0D70E0688019E060304670BD0020E0
:108AD000C043FBE77CB505460E46002000900190A0
:108AE000002400BF7006400E69460855601E00282D
:108AF00005D4085C80210843611E6A465054F6097B
:108B0000641C002E01D0052CECDB2846FFF70AFF81
:108B1000A0420BDBEA686968881822466946FBF7C1
:108B20009BFFE8680019E86020467CBD0020C04338
:108B3000FBE770B50446002500262068FFF713FD0B
:108B4000064631460A20FFF72DFE45191220A1687E
:108B5000FFF728FE4519207B002805D0E189002277
:108B6000182000F014FB4519284670BDFFB581B0F0
:108B700017461E46002502990198FFF78DFF04460F
:108B8000002C02DA204605B0F0BD2D1931460198BF
:108B9000FFF7A0FF0446002C01DA2046F3E72D1969
:108BA000324639460198FFF715FF0446002C01DADA
:108BB0002046E8E72D192846E5E770B504460D463E
:108BC000164632462946204600F023F870BD70B59F
:108BD00004460D46164632462946204600F019F84E
:108BE00070BDF8B504460D4616461F463B46324654
:108BF00029462046FFF7BAFFF8BDF8B504460D46F2
:108C000016461F463B46324629462046FFF7AEFF32
:108C1000F8BDF7B507461646002538460199FFF717
:108C20003BFF0446002C01DA2046FEBD2D193146DB
:108C30003846FFF74FFF0446002C01DA2046F4E7E0
:108C40002D192846F1E7F0B585B005460E463246A7
:108C5000294601A800F088F80A2101A8FFF774FD51
:108C6000002801D105B0F0BD122101A8FFF76CFD6D
:108C7000002800D1F6E70C2003F0E6FA04460020B5
:108C800020606060A0606A460A2101A8FFF799FC95
:108C900007463846009900F032F820602068002826
:108CA00004D1204600F0B2FA0020DBE72246083269
:108CB000122101A8FFF75AFC60602046D2E710B5E8
:108CC0000446206800F04AF8204600F09FFA10BDE4
:108CD0007FB504460D462A462146684600F044F812
:108CE000042003F0B1FA064600203060304604B09C
:108CF00070BD10B50446204600F088FA10BD7FB55F
:108D000005460E4632462946684600F02DF80821F1
:108D10006846FFF719FD002801D104B070BD10208E
:108D200003F092FA0446002020606060A060E060DA
:108D300008216846FFF73DFC206012216846FFF7D6
:108D400003FD002808D022460C3212216846FFF7A6
:108D500045FCA060012020712046DEE710B50446E6
:108D6000204600F053FA10BD016082607047000099
:108D7000F0B585B005460E463246294601A8FFF7F4
:108D8000F3FF0A2101A8FFF7DFFC002801D105B09D
:108D9000F0BD102101A8FFF7D7FC002800D1F6E7AD
:108DA000182101A8FFF7D0FC002800D1EFE75C20D4
:108DB00003F04AFA04465C212046FBF774FE6A463B
:108DC0000A2101A8FFF7FDFB074638460099FFF787
:108DD00096FF20602068002804D1204600F016FA93
:108DE0000020D4E7102101A8FFF73BFC60601821A8
:108DF00001A8FFF736FCA060202101A8FFF7A4FC22
:108E0000002806D0202101A8FFF72BFC20610120BB
:108E10002073282101A8FFF797FC002806D02821FD
:108E200001A8FFF7BEFB607501202075302101A865
:108E3000FFF78AFC002806D0302101A8FFF711FCBB
:108E4000A0610120A0755A2101A8FFF77DFC002830
:108E500008D0224624325A2101A8FFF7BFFB206226
:108E600001202077602101A8FFF76EFC002809D0BF
:108E7000602101A8FFF795FBC1B22920015501210E
:108E8000282001556A2101A8FFF75EFC002809D0BF
:108E9000224630326A2101A8FFF7A0FBE0620121DF
:108EA0002A200155722101A8FFF74EFC002809D0A5
:108EB00022463C32722101A8FFF790FBA0630121FA
:108EC00034200155782101A8FFF73EFC002807D087
:108ED000782101A8FFF76DFB606401214020015556
:108EE0000F4901A8FFF730FC002807D00C4901A862
:108EF000FFF75FFBE064012148200155094901A803
:108F0000FFF722FC002809D022465832054901A863
:108F1000FFF764FB6065012150200155204636E7CC
:108F200001800000018A000010B504462068FFF7A8
:108F300015FF204600F06AF910BDF0B585B0054672
:108F40000E463246294601A8FFF70EFF0A2101A866
:108F5000FFF7FAFB002801D105B0F0BD122101A8EE
:108F6000FFF7F2FB002800D1F6E7102003F06CF9C0
:108F70000446002020606060A060E0606A460A212C
:108F800001A8FFF71EFB074638460099FFF7A0FE31
:108F900020602068002804D1204600F037F9002026
:108FA000DAE722460832122101A8FFF7DFFA6060F3
:108FB000182101A8FFF7C8FB002806D0182101A836
:108FC000FFF7EFFAE081012020732046C4E710B5D7
:108FD00004462068FFF78DFE204600F017F910BD0B
:108FE000F0B585B005460E463246294601A8FFF782
:108FF000BBFE0A2101A8FFF7A7FB002801D105B09D
:10900000F0BD102003F020F90446002020606060CD
:10901000A060E0606A460A2101A8FFF7D2FA07467D
:1090200038460099FFF76BFE20602068002804D1C5
:10903000204600F0EBF80020E1E7122101A8FFF73D
:1090400083FB002808D022460C32122101A8FFF72A
:109050008DFAA060012020712046D0E710B50446AB
:109060002068FFF77BFE204600F0D0F810BDF0B579
:1090700085B005460E463246294601A8FFF774FE24
:109080000A2101A8FFF760FB002801D105B0F0BD5F
:10909000102101A8FFF758FB002800D1F6E70820AF
:1090A00003F0D2F804460020206060606A460A217E
:1090B00001A8FFF786FA074638460099FFF708FE31
:1090C00020602068002804D1204600F09FF800208E
:1090D000DCE7102101A8FFF764FA20712046D5E7EC
:1090E00010B504462068FFF704FE204600F08EF815
:1090F00010BDF0B585B005460E463246294601A89A
:10910000FFF732FE0A2101A8FFF71EFB002801D15C
:1091100005B0F0BD102101A8FFF716FB002800D113
:10912000F6E7182101A8FFF70FFB002800D1EFE7B1
:10913000082003F089F804460020206060606A4639
:109140000A2101A8FFF73DFA074638460099FFF7C4
:10915000BFFD20602068002804D1204600F056F8AA
:109160000020D5E7102101A8FFF71BFA2071182174
:1091700001A8FFF716FA60712046C9E710B504464A
:109180002068FFF7B6FD204600F040F810BDF8B5A6
:1091900007460C461646002E03D06000E10F4840FB
:1091A0000446002500BFE4096D1C002C01D0052DEC
:1091B000F9DB384604F092F84019F8BD0346000286
:1091C000012100B5000A490388421BD3FEF70EF9BE
:1091D0000028FBD1FFF762F90B49002088601902D3
:1091E0001804090E0843FF2109020B4018430649E1
:1091F0000002803920300860FEF7F8F80028FBD123
:10920000FFF73CF900BD00008000081110B50028F0
:1092100023D0124B0022001F196803E0814203D8BB
:109220000A4649680029F9D1002A0AD01368841A2D
:109230009C4204D1006818181060104602E050608B
:1092400000E01860002907D002680B1A934203D18E
:109250000B68D21802604968416010BD54EDFF1FD1
:1092600010B507480068002806D005480068FBF7DD
:1092700023FD0020024908600A200249087010BD41
:10928000ACE9FF1FAAE9FF1FFFB587B00C461646E1
:109290001F46082F05D12046062148432230C5B27B
:1092A00004E02046062148432130C5B21C2200219B
:1092B0006846FBF7C5FC6A461C21284603F09AF86D
:1092C00000280ED16846807E07280ADB6846807E2B
:1092D000102806DCF107C90F6A46109B0798FBF7B8
:1092E000ABFD0BB0F0BD000070B5002500240DE013
:1092F0000E216143074A88180622FF21FBF7A6FCCE
:10930000002801D1681CC5B2601CC4B20A2CEFDB76
:10931000284670BDAA08002070B50025002405E08D
:10932000204600F009F80546601CC4B20A2C01DA98
:10933000002DF5D0284670BD30B58FB004463D48AD
:10934000007884420BD101213B480078FBF77AFD7D
:10935000022139480078FBF775FDFFF781FF2146B0
:10936000062251432031C8B20BAA0E2103F042F865
:1093700000285AD10622FF210BA8FBF767FC002822
:1093800053D10E22FF210BA8FBF75AFC1C22FF2110
:1093900004A8FBF755FC1022FF216846FBF750FCA0
:1093A0002146062251432031C8B20BAA0E2103F0F8
:1093B0004DF805462146062251432131C8B204AA80
:1093C0001C2103F043F80543214606225143223174
:1093D000C8B204AA1C2103F039F80543214606222D
:1093E00051432331C8B204AA102103F02FF80543DA
:1093F0002146062251432431C8B204AA102103F0A9
:1094000025F805432146062251432531C8B204AA56
:10941000042103F01BF8054321467031C8B26A46A7
:10942000102103F013F8054300E0002528460FB093
:1094300030BD0000AAE9FF1F90E9FF1F70B5054687
:1094400000240DE00E216143074A881806222946B0
:10945000FBF7FEFC002801D0204670BD601CC4B2A2
:109460000A2CEFDB0A20F8E7AA08002070B50546B1
:1094700000240EE00E216143084A8918881D062247
:109480002946FBF7E5FC002801D0204670BD601C92
:10949000C4B20A2CEEDB0A20F8E70000AA0800207C
:1094A0007FB504460D460A2C01DA002D02D10220B8
:1094B00004B070BD2146062251432031C8B26A462D
:1094C0000E2102F097FF0646002E04D106226946BF
:1094D0002846FBF7AFFB3046EAE71FB504462146B6
:1094E000062251432031C8B26A460E2102F082FFA3
:1094F000002804D168468089C0B204B010BD0020A5
:10950000FBE7014600200DE082008A5AD243830027
:10951000CA52820052189278D24383005B189A7024
:10952000421CD0B20428EFDB7047000010B50024C5
:1095300026E00E216143184BCA18214606235943E1
:109540002031C8B20E2102F055FF002816D00E219E
:109550006143114A88180622FF21FBF771FB0E2197
:1095600061430D4A8918881D0622FF21FBF768FB1D
:1095700000210E206043084A80188181601CC4B21B
:109580000A2CD6DB05480078002801D000F04AF804
:1095900000F066F810BD0000AA080020A8E9FF1F2F
:1095A0007FB5054600241CE02146062251432331A5
:1095B000C8B26A46102102F01DFF00280FD1102208
:1095C000FF216846FBF742FB002808D12946684680
:1095D000FBF744FC002802D1204604B070BD601C9B
:1095E000C4B20A2CE0DB0A20F7E7000070B505469C
:1095F00000240A480078002801D0012000E0002063
:10960000044307480078002801D0042000E000202F
:10961000044321462846FBF727FC70BD97E9FF1F4E
:1096200094E9FF1F10B5FBF725FC002412E00E2182
:1096300061430A4A88180622FF21FBF707FB00282E
:1096400006D10E206043054A81180020FBF718FC64
:10965000601CC4B20A2CEADB10BD0000AA0800207E
:1096600008B5FFF741FE012802DD0220009001E06D
:109670000A2000906A4601210520FCF73FFE08BD44
:1096800008B50E480078002815D0012802D002281D
:1096900010D10CE001200090094803880948028895
:1096A0000948018809480088FCF77CF804E0FCF7C9
:1096B00077FA01E000BF00BF00BF08BD84E9FF1FCB
:1096C0007CE9FF1F7AE9FF1F78E9FF1F76E9FF1F9A
:1096D000F8B504460026A0780300FBF7C9FA080590
:1096E000FE214A4B8FE3FDFE25466F78002F10D1F7
:1096F0000622E91CA748FBF79DFA0120A64908703D
:10970000A64BA74802780121A6480078FBF7FEFA8D
:109710000746002F02D007209F490870012625E147
:109720002546687800281CD1E878002809D09E4B8F
:109730009E48027800219B480078FBF7E7FA6870A2
:109740000FE09548007802280BD001219548007859
:10975000FBF7E2FA002804D1012192480078FBF7D8
:10976000CFFA6878002803D007208B4908700126BB
:10977000FCE000BF2546687800283AD1A07803288D
:109780000BD185480078052803D10620824908704E
:1097900032E00220804908702EE0854800880028C9
:1097A0000BD08448007800280AD081480288012123
:1097B0007C480078FBF792FA02E000207D490870AF
:1097C00075480078062803D105207349087013E016
:1097D00071480078042808D10120764908700121D9
:1097E00070480078FBF78CFA06E003206A4908709D
:1097F00002E00720684908700126B7E0254668782E
:10980000002840D10622291D6B48FBF713FA68890E
:109810006A490880A8896A490880E88969490880F6
:1098200005205D49087068480088002806D0664811
:10983000028802215B480078FBF750FAA889634947
:109840000880E88962490880288A6249088062485D
:10985000007801280DD11F20FBF71CFA07467D2058
:10986000C0007843024604214E480078FBF736FAE0
:1098700000BF6A89E8780423291DFBF7D5FB002087
:109880004C4908700CE06878312806D1002049491D
:10989000087003204049087002E007203E49087024
:1098A000012663E02546062200214348FBF7C8F95C
:1098B000002046490880464908804649088004211E
:1098C00038480078FBF710FA082136480078FBF793
:1098D0000BFAA879082801E01FE046E003D1042034
:1098E0002D49087002E003202B49087001263148F9
:1098F0000078002804D02B480078FBF7FBF907E03C
:1099000001202C490870012126480078FBF7F8F95E
:109910000020C0432949088028E025460821214825
:109920000078FBF7E1F9687800281DD1E88827491D
:1099300008802889264908806889264908800421EA
:1099400018480078FBF7E8F900280DD12348006893
:10995000002809D02148006803681E4802881C4876
:1099600001881A480088984700E000BF00BF012E18
:109970000ED11B48006800280AD01948006800680A
:10998000002805D016480068016803480078884719
:10999000F8BD000030E9FF1F29E9FF1F3BE9FF1F69
:1099A0003AE9FF1F28E9FF1F7A0800205AE9FF1F44
:1099B00038E9FF1F36E9FF1F6EE9FF1F66E9FF1F49
:1099C00068E9FF1F6AE9FF1F6CE9FF1F7EE9FF1FBF
:1099D00080E9FF1F82E9FF1F74E9FF1F8CE9FF1F69
:1099E00088E9FF1FF8B504462078912804D0A22802
:1099F00041D0D02861D13AE060780E2828D12546A0
:109A0000A8882F49884217D1A868C07846B22D4847
:109A1000007805280FD17F2E0DD02B480068002834
:109A200009D0294800684068002804D0264800680A
:109A30004168304688470AE0A8882449884206D110
:109A4000A86883784278017821A002F04DFE0DE0ED
:109A500060780F2801D1204608E060783E2805D1C3
:109A600020468178072900D000BF00BF26E02046AD
:109A7000FFF72EFE22E02546687913281CD12E46DA
:109A80000836308801280BD116480078022807D103
:109A9000082115480078FBF727F9FCF781F80AE060
:109AA0000520FBF7F7F807463A4608210E480078EC
:109AB000FBF714F900BF00BF00E000BF00BFF8BD16
:109AC0000514000029E9FF1F88E9FF1F222000007C
:109AD0005B48434920444C455D256420256420258E
:109AE000640A000084E9FF1F28E9FF1F1CB506482F
:109AF0000649074B0022009101900648017806486C
:109B00000078FCF763F81CBD2CE9FF1F6A080020F1
:109B10005A0800202AE9FF1F28E9FF1F7CB50446E8
:109B20001E4800881E490988884211DB1B480088AE
:109B30001C49098888420BDC1B4800881B4909889E
:109B4000884205D11A4800881A490988884223D0DA
:109B50000520FBF79FF805461148018868460180FB
:109B60001048018868464180104801886846818015
:109B7000104801886846C1800F48027869460F483E
:109B80000088FBF783F90E4804702A4608210A482A
:109B90000078FBF7A3F800BF7CBD00007EE9FF1F43
:109BA00076E9FF1F78E9FF1F80E9FF1F7AE9FF1FB1
:109BB00082E9FF1F7CE9FF1F28E9FF1F66E9FF1FFD
:109BC00084E9FF1FF8B506460F46304600F046F818
:109BD0000446002C06D1114800F040F80446002C41
:109BE00000D02680002C17D0002511E0F820684313
:109BF0006168085A002809D1F82169436268501841
:109C0000F8223946FBF716F80020F8BD681CC5B2EB
:109C1000034800788542E9DB0920F6E7FFFF0000F2
:109C200050E8FF1F70B50546284600F037F8044697
:109C3000002C00D170BDA068FCE703460A46002155
:109C400008E08800105A984202D1880080187047B6
:109C5000481CC1B20229F4DB0020F8E702460021CB
:109C600009E0C800064B185A904202D1C800C0183B
:109C70007047481CC1B20129F3DB0020F8E700005F
:109C800048E8FF1F70B50546284600F007F804466F
:109C9000002C00D170BD2068FCE700000246064899
:109CA000016805E08888904201D18868704709689A
:109CB0000029F7D10020F9E754E8FF1F70B50546E9
:109CC0002846FFF7EBFF0446002C00D170BD60680A
:109CD000FCE70000F3B581B00C46012C07D0022C44
:109CE00029D101210198FBF789F8002823D1019897
:109CF000FFF7B4FF0546002D18D000260EE0F8202F
:109D0000704369680F183888002800D10AE0F822EB
:109D100000213846FAF794FF701CC6B20648007856
:109D20008642ECDB00BF0020C04328800349019835
:109D3000FBF7CEFF00BFFEBD50E8FF1F5AE8FF1F34
:109D400070B50446044D054800882880608829467F
:109D5000FBF7A2F8002070BD4A070020EE10FF1F9D
:109D6000F3B585B00546284608300490002768887A
:109D7000FFF774FF0646002E35D00020039029E03F
:109D80007168F822039850430C182088002800D1ED
:109D900025E004980078012811D16088009023798B
:109DA00021886888621D0290FCF731FA0746002F6F
:109DB00005D0002104980170218806980180F822BE
:109DC00000212046FAF73CFF002020800398401C29
:109DD000C0B203900849097803988842D0DB00BFDD
:109DE0000020C0433080002F02D16888FBF75AF86A
:109DF000384607B0F0BD000050E8FF1FF3B585B04E
:109E000007463D460835384C162200212046FAF711
:109E100017FF04A800902B79698828886A1D039091
:109E2000FBF746F8064648E030480078C01FC0B24D
:109E300000212F4A00920191029078882D4B6946AB
:109E40000A8A3146FCF71AF8002812D1E879284925
:109E5000097888420DD126480278264928460830DC
:109E6000FAF7F6FF002804D0718920788200A01C40
:109E70008152698803AB6846028A3046FAF78EFF42
:109E8000064620788100A01C405A002814D0002EDD
:109E900009D0684681892278501C20709200A01C4D
:109EA0001018418008E00021C9432278501C20701E
:109EB0009200A01C1018418000BF002E04D0207812
:109EC0000D4909888842AFDB2078002806DD7888B4
