:020000041FFFDC
:1008000000000000158AFF1FEC96FF1F1097FF1FC6
:100810004C03002000000000000000000000000069
:1008200000000000000000000000000000000000C8
:1008300000000000000000000000000000000000B8
:1008400000000000000000000000000000000000A8
:100850000000000000000000000000000000000098
:100860000000000000000000000000000000000088
:100870000000000000000000000000000000000078
:100880000000000000000000000000000000000068
:100890000000000000000000000000000000000058
:1008A0000000000000000000000000000000000048
:1008B0000000000000000000000000000000000038
:1008C0000000000000000000000000000000000028
:1008D0000000000000000000000000000000000018
:1008E0000000000000000000000000000000000008
:1008F00000000000000000000000000000000000F8
:1009000000000000000000000000000000000000E7
:1009100000000000000000000000000000000000D7
:1009200000000000000000000000000000000000C7
:1009300000000000000000000000000000000000B7
:1009400000000000000000000000000000000000A7
:100950000000000000000000000000000000000097
:100960000000000000000000000000000000000087
:100970000000000000000000000000000000000077
:100980000000000000000000000000000000000067
:100990001D81FF1FB181FF1F2D91FF1F000000006F
:1009A0000000000000000000000000000000000047
:1009B0000000000000000000000000000000000037
:1009C0000000000000000000000000000000000027
:1009D0000000000000000000000000000000000017
:1009E0000000000000000000000000000000000007
:1009F00000000000000000000000000000000000F7
:100A000000000000000000000000000000000000E6
:100A100000000000000000000000000000000000D6
:100A200000000000000000000000000000000000C6
:100A300000000000000000000000000000000000B6
:100A400000000000000000000000000000000000A6
:100A50000000000000000000000000000000000096
:100A60000000000000000000000000000000000086
:100A70000000000000000000000000000000000076
:100A80000000000000000000000000000000000066
:100A90000000000000000000000000000000000056
:100AA0000000000000000000000000000000000046
:100AB0000000000000000000000000000000000036
:100AC0000000000000000000000000000000000026
:100AD0000000000000000000000000000000000016
:100AE0000000000000000000000000000000000006
:100AF00000000000000000000000000000000000F6
:100B000000000000000000000000000000000000E5
:100B100000000000000000000000000000000000D5
:100B200000000000000000000000000000000000C5
:100B300000000000000000000000000000000000B5
:100B400000000000000000000000000000000000A5
:100B50000000000000000000000000000000000095
:100B60000000000000000000000000000000000085
:100B70008D84FF1F00000000000000000000000046
:100B80000000000000000000000000000000000065
:100B90000000000000000000000000000000000055
:100BA000000000000000000000000000CD78FF1FE2
:100BB0000000000000000000000000000000000035
:100BC000B578FF1F000000000000000000000000DA
:100BD0000000000000000000000000000000000015
:100BE0000000000000000000000000000000000005
:100BF00000000000000000000000000000000000F5
:0C0C000001FF01FF01FF01FF41000000A7
:020000041FFFDC
:10480000C82B0020D548FF1FDD48FF1FDF48FF1FD2
:104810000000000000000000000000000000000098
:10482000000000000000000000000000E148FF1F41
:104830000000000000000000E348FF1FE548FF1FE4
:104840000000000000000000000000000000000068
:104850000000000000000000000000000000000058
:104860000000000000000000000000000000000048
:104870000000000000000000000000000000000038
:104880000000000000000000000000000000000028
:104890000000000000000000000000000000000018
:1048A0000000000000000000000000000000000008
:1048B00000000000000000000000000000000000F8
:1048C0000348854600F038F800480047E189FF1F9B
:1048D000C82B00200448804704480047FEE7FEE755
:1048E000FEE7FEE7FEE7FEE7B95EFF1FC148FF1FD8
:1048F00003460B439B0703D009E008C9121F08C0F9
:10490000042AFAD203E00B780370401C491C521EA3
:10491000F9D27047D2B201E00270401C491EFBD2AE
:1049200070470022F6E710B513460A4604461946BA
:10493000FFF7F0FF204610BD064C0125064E05E0AE
:10494000E36807CC2B430C3C98471034B442F7D3B0
:10495000FFF7BAFFCC97FF1F0C98FF1F70B58C189C
:104960000578401C6B075B0F01D10378401C2A11AE
:1049700006D10278401C03E006780E70401C491CEA
:104980005B1EF9D12B0705D40023521E0DD40B70EA
:10499000491CFAE70378401CCB1A921C03E01D78EF
:1049A0000D70491C5B1C521EF9D5A142D8D30020C2
:1049B00070BD000003B40148019001BDC13C01007D
:1049C00003B40148019001BDED3C010003B401486E
:1049D000019001BD1910000003B40148019001BD10
:1049E000C93A010003B40148019001BD5518000007
:1049F00003B40148019001BD8117000003B40148D0
:104A0000019001BD3518000003B40148019001BDBB
:104A1000A53C010003B40148019001BD3917000015
:104A200003B40148019001BD7181000003B4014845
:104A3000019001BD3914000003B40148019001BD8B
:104A40001117000003B40148019001BDF13E0100BF
:104A500003B40148019001BD1B3D010003B40148AE
:104A6000019001BD7114000003B40148019001BD23
:104A7000C131000003B40148019001BDB142010001
:104A800003B40148019001BDD542010003B40148BF
:104A9000019001BDC912000003B40148019001BD9D
:104AA0003D42010003B40148019001BD5D190000C1
:104AB00003B40148019001BD593A010003B4014813
:104AC000019001BDC118000003B40148019001BD6F
:104AD0003515000003B40148019001BD41170000E5
:104AE00003B40148019001BDE915000003B4014879
:104AF000019001BD897B000003B40148019001BD14
:104B0000D520000003B40148019001BDA5E50000D7
:104B100003B40148019001BD3D1C000003B40148ED
:104B2000019001BD0D1D000003B40148019001BDBD
:104B30008306000003B40148019001BD0143010058
:104B400003B40148019001BDE120000003B4014815
:104B5000019001BDED3A010003B40148019001BD8F
:104B6000F53C010003B40148019001BD5D3F010027
:104B700003B40148019001BDDD21000003B40148E8
:104B8000019001BD01E6000003B40148019001BDA0
:104B9000C91F000003B40148019001BD55900000F9
:104BA00003B40148019001BD7D3A010003B40148FE
:104BB000019001BD913F010003B40148019001BD86
:104BC000A942010003B40148019001BD9502000013
:104BD00003B40148019001BD6902000003B401481B
:104BE000019001BDD136000003B40148019001BD20
:104BF000BD07000003B40148019001BD891C0000FD
:104C000003B40148019001BDE907000003B4014865
:104C1000019001BD6D07000003B40148019001BD82
:104C2000FD0E000003B40148019001BD2D0E0000EF
:104C300003B40148019001BD3D07000003B40148E1
:104C4000019001BD211A000003B40148019001BD8B
:104C5000050E000003B40148019001BD8922000047
:104C600003B40148019001BD610E000003B4014886
:104C7000019001BD9D0E000003B40148019001BDEB
:104C8000D50E000003B40148019001BD610F000082
:104C900003B40148019001BDE997000003B4014845
:104CA000019001BD3D98000003B40148019001BD91
:104CB000E58D000003B40148019001BD4977010072
:104CC00003B40148019001BD8D3C010003B40148CB
:104CD000019001BDE55B000003B40148019001BDF6
:104CE000E129000003B40148019001BD993700009B
:104CF00003B40148019001BD5114000003B4014800
:104D0000019001BD091F000003B40148019001BDDD
:104D1000A579000003B40148019001BD41030000E2
:104D200010B5034A1321034800F068FD10BD0000D0
:104D30009C96FF1F1400002010B500241346002885
:104D400002D00224204610BD0A4619460148FFF74A
:104D500031FEF7E70B000020FFB595B00025109558
:104D600010AA119500F0A6F806460A287CD204463F
:104D70000620444320462030C0B26A460E2103F08C
:104D80007BFE002802D168468089C5B2179813902F
:104D9000404818990078022813D000201290082962
:104DA00011D020462130C7B21C2200216846FFF7EF
:104DB00007FE6A461C21384603F05EFE002805D037
:104DC00010E00120EAE720462230ECE76846807ECA
:104DD000C01F092806D8E907C90F6A46129B139815
:104DE000FFF7F4FD1422002107A8FFF7E9FD204694
:104DF0002430C0B207AA102103F03EFE002812D1D1
:104E00001022FF2107A8FFF7E7FD00280BD125346A
:104E1000E0B20BAA042103F02FFEE907C90F07AA8D
:104E20001798FFF7DFFD7036F0B20CAA102103F0DF
:104E300023FE002811D10CA801F0A3FD00240CAE24
:104E4000A00080190188002903D08278179800F00B
:104E500031FD641CE4B2042CF2D3A80704D50D483C
:104E6000017B179800F014FD189804280FD1094908
:104E7000087802280BD10A791798002A00D001225D
:104E80004978002900D004211143FFF7B1FD00202B
:104E900019B0F0BDAC01002010B5054CA061217B1C
:104EA0002620FFF7ABFD207B00F0A2FC10BD000028
:104EB000AC010020F0B50A2485B015460F46002845
:104EC00006D0012804D0022810D0032846D11FE0C4
:104ED000084601F023FD04460A283FD2002D3DD0AC
:104EE000062239462846FFF765FD37E01D4E0024AF
:104EF0000E206043801906223946801DFFF784FD8D
:104F0000002823D1641CE4B20A2CF1D30A241DE04A
:104F100000242046062148432330C0B26A461021AF
:104F200003F0AAFD00280CD11022FF216846FFF7EC
:104F300053FD002805D139466846FFF76BFD002870
:104F400004D0641CE4B20A2CE3D3DFE70A2C05D2B8
:104F5000002D03D02946204601F0F8FC204605B07C
:104F6000F0BD0000B40E002070B50C4601460320D1
:104F700000020A1A002534481300FFF751FD1D10E6
:104F800012151C1F2326282C303234383A3C3E4060
:104F9000424446484A4E50525A5456585A00C079D4
:104FA00011E01022294902E0284910221031204640
:104FB000FFF700FD45E0C06A206042E0224906227A
:104FC0003C31F4E7007820703BE0808936E01E49F0
:104FD00042784231EBE71D4982781F39E7E7007AD2
:104FE000F1E7407AEFE7184906223031DFE7807AAF
:104FF000E9E7C07AE7E7C08920E0808A1EE0C07850
:105000001CE0C08A1AE0008B18E0408B16E0808B11
:1050100014E00D4906223631C9E7C08B0EE0008C42
:105020000CE0408C0AE08079CDE7008A06E0408AF7
:1050300004E0272904D20846FFF7F8FC208000E0AE
:105040000225284670BD0000540200207F0F00207A
:1050500070B50E4C00256071A571691EE181FFF7E6
:10506000EBFC0420E071102200210948FFF7A8FCA6
:105070000748102200211030FFF7A2FCE5622572DC
:1050800065720120A072E57270BD0000540200201C
:105090007F0F0020FEB53B4D0C4608040CD5687907
:1050A000FFF7D0FC050004D001F074FD2846FFF79F
:1050B000CFFC0120C00360E0600403D50120800321
:1050C0004840FEBD2F48E1070126807900292AD0FB
:1050D0002978002920D0052821D0287A694608702F
:1050E000687A4870274900A8062230310230FFF75D
:1050F00061FCA87A69460872E87A48726879FFF715
:10510000ADFC002808D00720A871696A002903D0E7
:105110000968002900D0884720467040FEBD032062
:1051200069460870E5E7A1070DD5052809D1E8898A
:10513000FFF79AFCAA8A002A03D002216879FFF7B8
:1051400099FC022019E0600704D5002001F07AFDE7
:10515000042012E0200712D52879012802D0022865
:105160000AD107E00096AB8B6A8B298BE88A00F0A6
:105170000BF801E000F05AF908206040FEBD002065
:10518000FEBD000054020020F8B5134C069DA67920
:10519000052E01D01420F8BD104F861FBE4219D233
:1051A000062917D3BE1DB14214D2FF27F537BA42E4
:1051B00010D20A2B0ED3B3420CD2E0822183628339
:1051C000A383284601F03EFD04216079FFF758FCD7
:1051D0000020F8BD1820F8BD540200207A0C000011
:1051E000F7B50C4680490098164642187F4F0025B7
:1051F0007879B9791300FFF713FC190E141BE92015
:1052000040455970777E888FE996A2A9B4BFC8E956
:10521000E9E9E9D3E900102C76D11022314674482F
:105220006FE0102C70D1724810223146103068E0C7
:10523000042C69D13068F862CEE0012C64D13B784F
:1052400032783A70002B0AD0002A07D1022903D005
:10525000062901D0042901D1FFF718FCBCE0002A7F
:105260000AD0012905D0032903D0052901D004293A
:1052700002D10121FFF710FCAEE0022C44D13088AE
:10528000B881A9E01F2C3FD858481F220021423086
:10529000FFF796FB5548224631464230FFF78AFB1E
:1052A000524B7C7042332246012112E01F2C7CD8E5
:1052B0004F481F2200211F38FFF782FB4C4822462F
:1052C00031461F38FFF776FB494BBC701F3B224627
:1052D00000217879FFF7E6FB83E0012C65D1307877
:1052E000042862D8387277E0012C5ED13078032828
:1052F0005BD8787270E0062C57D13C4806223146C4
:105300003030FFF757FB67E04FE0012C4DD130788C
:1053100007284AD8B8725FE0012C46D130780328BC
:1053200043D8F87258E0022C3FD13288BA82002A62
:1053300052D0052950D10221FFF79CFB4CE0012CF3
:1053400033D13078012830D8F87045E03088022C0D
:105350002BD1062829D31921C901884225D8F882E2
:105360003AE03088022C20D106281ED31921C90129
:1053700088421AD838832FE03088022C15D1FF21BB
:10538000F531884211D2788326E03088022C0CD186
:105390000A280AD31921C901884206D8B8831BE01C
:1053A0003178012C01D1012901D0182514E0082100
:1053B000FFF77EFB002801D016250DE0002001F04C
:1053C00041FC04217879FFF75BFB05E00098272872
:1053D00001D2022C02D002252846FEBD3188FFF7FB
:1053E0000DFB0546F8E70000FFFCFFFF540200201C
:1053F0007F0F00201CB50B4CA179002901D0112092
:105400001CBD002800D06062064907482C310346C5
:1054100001910090103B0022E179607900F016F8CC
:1054200000201CBD540200208F0F002010B506483C
:105430008179052901D0122010BDC189132240793C
:10544000FFF73CFB10BD000054020020F8B51D46DC
:105450000224069F079E0B00FFF7E2FA0A150806D2
:105460000608150615060615002C0CD1FFF72CFBB7
:10547000040008D1324639462846FFF72BFBFFF7D8
:105480002FFBFFF733FB2046F8BD0000014610B5A7
:105490000020C90704D0034A0421034800F0AEF9F4
:1054A00010BD0000B096FF1F6801002070B50F4DC1
:1054B0000F4CA87029461431204600F01DF8002139
:1054C00028460B460C30CA0084521218491C0906A3
:1054D0005360090EF7D0012001F0D0FFA878FFF744
:1054E0000BFB0448FFF70EFB70BD00004C010020D1
:1054F000FFFF00000D6DFF1F70B50A4C0025A04294
:1055000009D1002082008C525218401CC0B2957004
:105510000228F7D370BD01F0C8FB0028FAD0048040
:10552000857070BDFFFF0000F8B50E46074606996E
:1055300000240798002902D00B242046F8BD022B36
:1055400001D00D24F9E711785278120289188DB232
:105550002946814301D08024EFE73846F16800F006
:105560003FF9A842E9D02A463846F16800F0D0F960
:105570000400E2D171892A46384600F06DF9DCE773
:1055800070B50C46080412D50A488078FFF75AFA1D
:10559000050008D02878B02802D1284601F0A0FCE8
:1055A0002846FFF755FA0120C003604070BD002077
:1055B00070BD00004C010020FFB583B0087A0025C3
:1055C0000C9E1C460F46C0060DD5059801F066FBE3
:1055D000030006D00A22394603989847050035D1C2
:1055E00001E00E2532E0387802281DD178682922A2
:1055F0000178407812020002081881B2881A91429C
:105600007ED009DC7348081A23D0012821D0022853
:105610004FD0032808D125E0012872D0022871D08C
:1056200003286DD004286ED0059801F05FFB002898
:105630006AD00568002DD4D00E990D980191009084
:105640003346224639460398A8470546284607B000
:10565000F0BD0D98002872D1F86801783170027899
:10566000416896E00D98002869D101203070F868F3
:105670000021007820707889401C80B2FFF748FA3A
:1056800000280DD0317802788918891C3170817A10
:1056900061704189090AA17002784168E01C79E0D3
:1056A00030780422001D30700021601CFFF788F95B
:1056B000CCE70D98002875D1F86802A90088009001
:1056C00004203070009820700098000A60700098E4
:1056D000FFF71EFA070029D0F86800906846028993
:1056E00001AB3D493846FFF719FA002810D13B7845
:1056F00002213A487A68FFF717FA002808D104E037
:1057000026E030E01CE04AE062E0334869468880E9
:105710000098007802280CD1009802224168201DD0
:10572000FFF748F93078801C307002E06946009835
:10573000888068468088A070000AE07086E731E0C3
:105740000D9800282ED1F968039800F049F804E07C
:105750000D98002826D1F868008802213170207049
:10576000000A607072E7F868FFF7E4F90D99C0B2BB
:10577000814212D8814201D1002206E00E9A891896
:10578000814202D30D99401AC2B23270F9680D9865
:1057900009182046FFF70EF958E7072556E70D9838
:1057A000002801D00B2551E70721F86831700178F6
:1057B0002170417861708178A1704188090AE17097
:1057C0000179217181796171C088000AA0713DE77A
:1057D00000252FE700280000FFFF00001E7C0100CD
:1057E00010B501F062FA002800D0807810BD0000EA
:1057F00001490870704700004C0100207CB5154637
:10580000040019D0684601940180FFF799F903005C
:105810001DD1002D1BD06489002C0DD00C20FFF76A
:1058200095F900280AD0002303608480094A856026
:105830005168002904D006E0022308E0132306E0A3
:10584000506004E011460A68002AFBD1086018463F
:105850007CBD00004C010020F8B50C4C07462078B8
:1058600015460E46FF280FD00A20FFF775F90100F4
:105870000AD0B12008700020487008714F80CE8097
:105880000D812078FFF76EF9F8BD00004C01002073
:1058900070B50C4605460649FFF7A2FF800704D500
:1058A00021462846FFF764F970BD012070BD000055
:1058B000600100201CB56B461A71120A5A71002251
:1058C0000092022301AA00F001F81CBDFFB583B0CD
:1058D00008461E4601A90C9FFFF71AF9050014D0CF
:1058E0006846808801F002FA00280AD04468002C3B
:1058F00009D00097F3B22946059A0398A04707B04C
:10590000F0BD0024F3E70E20F9E70120F7E70000DF
:1059100070B514460E46054601F0C7F9002806D1B9
:105920003146054801F0C1F9002803D00580847094
:10593000002070BD112070BDFFFF0000014610B5B2
:105940000020C90704D0034A07210348FFF756FF88
:1059500010BD0000C496FF1FE001002070B50D4689
:10596000164600241D490300FFF75AF808051234B3
:10597000341934222934152D23D816220021184831
:10598000FFF71EF82A4631461548FFF713F822E0C4
:10599000022D16D111491088103908801BE0082DFE
:1059A0000FD10E48082231460838FEF7A1FF12E059
:1059B000012D06D1CA6909493078283107E0012D47
:1059C00001D0182407E0CA6B04493078483101F04F
:1059D0000AFE00E00224204670BD0000E001002025
:1059E0004A0F0020FEB50446014633A003F06CF8D0
:1059F000374D052C08D028781927BF01052809D074
:105A00000026022830D031E0314932480C31FFF70E
:105A1000ABFA4FE001206946087002212879FFF7B0
:105A20002FF80121A88900F071F8042C09D1202158
:105A30000820FEF7E3FF20210920FEF7DFFF2649BB
:105A400008E039460820FEF7D9FF39460920FEF75D
:105A5000D5FF00210020FEF7D1FF1E486A46012134
:105A60000938FFF7BDFB25E0032C02D0012C0ED036
:105A700020E0E878002801D0EE701BE00820FEF757
:105A8000D5FF202816D1012069460870D9E7C1202A
:105A900069468000FFF768FA69464879C871087955
:105AA0008871C87848710E71CE706A46082100204E
:105AB000FFF742F92C70FEBD486561727452617443
:105AC00065476170537461746543423A20256400F0
:105AD000500300200E0300003075000070B505462D
:105AE000002407490748FFF707FDE80706D00448E8
:105AF000054A08210830FFF781FE0446204670BDA4
:105B0000C0020020FFFF0000E096FF1F10B5044612
:105B1000084884420DD0012907D0022909D101216A
:105B20002046FFF72BF8002803D103492046FFF752
:105B3000E3FC10BDFEFF0000C002002070B58AB07B
:105B4000484C6A462071012010750721117600210A
:105B500011811173C8211184C900118290837D25A0
:105B6000ED00958440A003C80191009006214048B3
:105B7000FFF736FBC32006AA01218000FFF730FBA8
:105B80003B4805AA0121801FFFF72AFB384802AADB
:105B90000221401FFFF724FB224661202032112101
:105BA000C000FFF71DFB324822460E320721001FBE
:105BB000FFF716FB312003AA01210001FFF710FBBC
:105BC0002B4808AA0221801DFFF70AFB284804AAD7
:105BD0000221C01DFFF704FB254807AA0221083057
:105BE000FFF7FEFAC52009AA02218000FFF7F8FAA4
:105BF0002246313215210020FFF7B0FE02206A460E
:105C00001070012100F0A6F8FF26913631460620DB
:105C1000FEF7F4FE31460720FEF7F0FE314608207D
:105C2000FEF7ECFE31460920FEF7E8FE0026F643BB
:105C30003046FFF783FE3046FFF728FCFFF770F889
:105C40003046FFF74BFF0B4800F07EF8012120792A
:105C5000FEF722FF2A4610212079FEF70BFF0AB03B
:105C600070BD00005003002001020304050600007F
:105C70000B030000CD84FF1F70B50C460546084994
:105C8000FFF7AEFDC00709D0054800220830408D5F
:105C9000208021462846FEF777FF70BD122070BD98
:105CA000C002002070B5214D0C46080409D52879A2
:105CB000FEF7C8FE002801D0FEF7CAFE0120C0038F
:105CC0002BE0E00708D019481830FFF793FB18487D
:105CD000FFF7E2F8012020E0A0070FD515A002F0A1
:105CE000F3FE2878052807D102F00CFC7D22120172
:105CF00002212879FEF7BEFE02200EE0200701D522
:105D000008200FE0E0060AD500F0B0FA7D22D200AC
:105D100010212879FEF7AEFE1020604070BDA0066D
:105D200002D52020484070BD002070BD50030020E7
:105D30001C97FF1F48454152545F504552494F44FC
:105D400049435F4556540A000149486070470000C6
:105D5000B802002001460020012902D0022901D00A
:105D6000022070471178014A11707047B802002074
:105D7000002805DBC106C90E0120884001490860E2
:105D80007047000000E100E08307FF22DB0E9A402D
:105D90008907090E9940002808DB830809489B0001
:105DA0001818036893430B43036070470007000F04
:105DB0000838830804489B001818C36993430B43B1
:105DC000C361704700E400E000ED00E08307FF22BC
:105DD000DB0E9A408907090E9940002808DB8308EA
:105DE00009489B001818036893430B4303607047EE
:105DF0000007000F0838830804489B001818C3697F
:105E000093430B43C361704700E400E000ED00E002
:105E1000F8B50446002003460A5C8507ED0EAA404B
:105E20001343401C0428F7DB00F0D8F80028FBD10E
:105E300000F0E4F921022004090E0843FF273F0285
:105E400021463940084372B600211A4DA960194E07
:105E50000002803E801C3060336062B600F0BEF805
:105E60000028FBD100F0BAF911200006201869467D
:105E70002A695207FCD572B60422AA600402020401
:105E8000240E2243384002431002C01C306062B628
:105E900028694007FCD53078087030784870307831
:105EA00088703078C8700098984201D00020F8BD02
:105EB0000120F8BD800008110249014808607047C0
:105EC00040787D01AC030020F8B506460027FEF7B8
:105ED00061FE04460648051B06E0FEF75BFEA04295
:105EE00001D3071B00E02F18B742F6D3F8BD00001E
:105EF000FFFFFF0008B500020091000A0422694676
:105F0000FFF786FF002800D0012008BDEFF30380D3
:105F1000704702E008C8121F08C1002AFAD1704772
:105F20007047002001E001C1121F002AFBD1704719
:105F300010B5FEF735FE0120FEF738FEFEF73CFEF9
:105F4000002010BDF0B500248E464A1E12E07146B6
:105F500000230D1B6D1E0AE09E0031188C468759E8
:105F600049688F4202D9815161464F605B1C9D4256
:105F7000F2D8641C9442EAD3F0BD000001680A051F
:105F800008D11031044A016052781203914201D3C2
:105F9000891A016070470000A003002010B500209E
:105FA000054CFF212218401C51704028FADB02F0FA
:105FB00063FF207010BD00008323002010B5002077
:105FC000054CFF212218401C51700628FADB02F014
:105FD00071FF207010BD0000B50300200848016962
:105FE0004907FCD5012181600549052280390A70E5
:105FF00002695207FCD50878C007C00F704700003F
:1060000080000811F0B58646080CFF268446002360
:1060100088B237461C46194601228A40054615407B
:10602000CD402C19A4B2FF2F02D1012C00D18FB288
:1060300065462A40CA40D21893B2FF2E02D1012BE6
:1060400000D18EB2491C1029E6DB012C02D0102CA5
:1060500008D009E0012B07D13001C0197146087042
:106060000220F0BD102B01D00320F0BD0120F0BDB7
:10607000032806D3012189078B680122824013433C
:106080008B60704701480068704700001010FF1FC8
:10609000012292071368012181408B43136010682D
:1060A0000843106070470000F8B5496894460A78C4
:1060B00049780698090251188FB2444A11210025E7
:1060C000079CBE1A091A974243D009DC404ABA1805
:1060D00013D0012A1CD0022A25D0032A08D12EE091
:1060E000012E40D0022E48D0032E50D0292E5AD057
:1060F000002018700A252846F8BD082855D2082126
:10610000091AA14200D80C46E2B21A70314957E090
:106110000C284AD20C21091AA14200D80C46E2B23E
:106120001A702D494CE00D283FD20D21091AA142C9
:1061300000D80C462849E2B21A700D3140E011280F
:1061400033D2A14200D80C462349E2B21A701B3167
:1061500036E0112829D2A14200D80C461E49E2B2ED
:106160001A702D312CE011281FD2A14200D80C4604
:106170001949E2B21A703F3122E0112815D2A1422A
:1061800000D80C461449E2B21A70513118E00E28BA
:106190000BD20E21091AA14200D80C460E49E2B2D8
:1061A0001A7063310CE0072801D30725A3E7072104
:1061B000091AA14200D80C460649E2B21A70C91F5A
:1061C00009186046FEF7F6FB95E70000272A000055
:1061D000DDD5FFFF0B0000202896FF1F0648016950
:1061E0004907FCD500218160034A0421803A1170DF
:1061F00001694907FCD5704780000811064801690C
:106200004907FCD500218160034A0621803A1170BC
:1062100001694907FCD57047800008110346000258
:10622000012100B5000A490388421BD3FFF7D6FEBF
:106230000028FBD1FFF7E2FF0B490020886019021C
:106240001804090E0843FF2109020B4018430649B0
:106250000002803920300860FFF7C0FE0028FBD123
:10626000FFF7BCFF00BD000080000811FEB5002054
:106270009B4D009068780A2803D39AA002F024FC72
:10628000FEBD01F021FC002808D104219A4801F04C
:1062900007FC010002D099A002F016FC9A4E0021E2
:1062A00032469A48FEF78CFB984C00202054401C44
:1062B00080B2B042FAD32878012806D0022835D01F
:1062C00003287DD0042830D1F1E091A002F0FCFB3E
:1062D00001F0A6FB044601469CA002F0F5FB01205C
:1062E0000246012C0BD9894901F0BAFC010003D008
:1062F00082A002F0E9FB02E098A002F0E5FB324642
:10630000304694420BD9814901F0AAFC010003D028
:106310007AA002F0D9FB02E090A002F0D5FB01F0D8
:106320007FFB014689A002F0CFFBAFE08EA002F018
:10633000CBFB754E002132467448FEF741FB012726
:1063400001AB32467149384601F02EFC060003D0FD
:1063500001466AA002F0B8FB394692A002F0B4FBF5
:106360006A46918891A002F0AFFB93A002F0ACFBCB
:1063700000216A460846928805E0235CC7B2BB420A
:1063800005D1401C80B29042F7D3002901D08DA0E6
:1063900000E08EA002F098FB5B4F00213A465B487C
:1063A000FEF70EFB3A4601AB5849104601F0FCFBE4
:1063B000002E03D0314651A002F086FB394600E0A2
:1063C0001FE083A002F080FB6946898877A002F075
:1063D0007BFB79A002F078FB002269461046898891
:1063E00005E0235CC6B2B34205D1401C80B28842AE
:1063F000F7D3002A01D073A000E074A002F064FB80
:1064000044E075A002F060FB01F00AFB01464FA0DA
:1064100002F05AFB684601F027FB01467DA0009A76
:1064200002F052FB0124204601F054FB01000BD185
:1064300066A002F049FB01AB32463449204601F028
:10644000B3FB0146252802D02CA002F03DFB3046CC
:1064500001F040FB01003FD15CA002F035FB01AB35
:1064600030463246294901F09FFB0146252833D1A9
:1064700001F0D6FA014635A002F026FB684601F08D
:10648000F3FA014663A0009A02F01EFB2878401C34
:10649000C0B22870042800D8F2E60120287068787D
:1064A000401CC1B26970634802F00EFBFEBD624839
:1064B00002F00AFB01F0B4FA014624A002F004FB4A
:1064C000684601F0D1FA014652A0009A02F0FCFAA7
:1064D00001F01CFA0100CBD008A002F0F5FAC7E7E2
:1064E000A80300206673206578616D706C65206577
:1064F0006E64210A00000000005000116572726F86
:10650000723A25640A000000FF0F00008413002087
:106510000A66735F77726974652E2E2E2E2E2E2ECC
:106520002E2E2E2E2E2E2E2E2E2E2E2E2E2E2E2E8B
:106530002E2E2E2E2E2E2E2E2E2E2E2E2E2E2E2E7B
:106540002E2E2E2E2E2E2E2E2E0A00006672656501
:106550005F73697A653A25640A000000777269748E
:1065600065206F6B0A0000000A66735F72656164E4
:106570002E2E2E2E2E2E2E2E2E2E2E2E2E2E2E2E3B
:106580002E2E2E2E2E2E2E2E2E2E2E2E2E2E2E2E2B
:106590002E2E2E2E2E2E2E2E2E2E2E2E2E2E2E2E1B
:1065A0000A00000069643A25640A00006964206CEE
:1065B000656E3A25640A0000696420646174613A7A
:1065C0000A0000006572726F720A00006F6B0A00A9
:1065D0000A69643A25640A000A66735F64656C653B
:1065E00074652E2E2E2E2E2E2E2E2E2E2E2E2E2E4E
:1065F0002E2E2E2E2E2E2E2E2E2E2E2E2E2E2E2EBB
:106600002E2E2E2E2E2E2E2E2E2E2E2E2E2E2E2EAA
:106610002E2E0A00676172626167655F73697A6531
:106620003A256420676172626167655F6E756D3AD5
:1066300025640A004097FF1F8497FF1FF0B5524E54
:10664000524F99B07168396071783971FF21B97111
:1066500010210024797125460922FF21F81DFEF73B
:10666000AFF94E22002104A8FEF7AAF935E03868F8
:106670002103401802F09EFE014610226846FEF7F4
:1066800099F900983968884218D1684600793979B3
:10669000884213D168464079797988420ED168469C
:1066A00071788079491E884225DAA04201D10225FD
:1066B00000E0032504A90855B8710CE00098401CBF
:1066C00019D168460079FF2815D168464079FF281E
:1066D00011D104A90855641CE4B23979A142C6D885
:1066E000042D08D0B8790024FF2807D0012D05D04B
:1066F000002004AA24E0202019B0F0BD00250DE000
:10670000BD713868290340181022204902F060FE4C
:10671000002801D01F20EFE76D1CEDB23879401E34
:10672000A842EDDC3C743879401E787410207882E1
:106730000120307026E0135C002B03D0401CC0B257
:106740008142F8D881421DD9401E0818FEF73AFA56
:10675000797401203070002218A91046189400F0B6
:1067600017F8002802D0212802D004E0189901E08F
:10677000012109037982C0B2212803D0002801D069
:106780002A20B9E70020B7E7A003002070130020FB
:10679000F7B5012484B000200E4627460190A6E0FC
:1067A0005C480179407CC019FEF712FAC8B2FF2C90
:1067B00003D3FF3CA4B2FF2C36D2049A002A01D1A5
:1067C000544A11740003012503900198002803D056
:1067D00000200190281906E0012C05D92819811EF6
:1067E000FF291ADA401E85B2039829010818029081
:1067F000484801680298081802F0DCFD01460422AE
:106800006846FEF7D7F8049800280ED0012822D059
:10681000022842D0062007B0F0BDFF200230401B06
:10682000201A84B2012001905FE000998803800F54
:1068300004D0022802D0032852D107E00803800FB9
:10684000012821D1080D21E0012124E00298000552
:10685000000D306055E000988203910F04D00229AA
:1068600005D003293CD152E0910F022908D132888A
:1068700081B292B2914203D106990298086040E039
:106880000103890F01293ED0012429E00C21FEF7E4
:106890009FF90029D8D1441822E000988103890F7C
:1068A00004D00229ECD003291AD12AE00103890F70
:1068B000012903D0306801240C300BE0000D0C21BD
:1068C000FEF786F9002900D0012144180C20316818
:1068D000604308183060069806990068401C0860FC
:1068E0006D1CADB2FF2D00D86FE77F1CFFB20A48C8
:1068F0004078874200D253E70498002805D0012849
:1069000005D0002087E7000DC0E7212083E7252080
:1069100081E7000070130020A003002070B50A4D2D
:10692000064600240E206043401906223146FEF739
:106930006BF8002801D0204670BD641CE4B20A2C1C
:10694000F0D30A2070BD0000B40E00207FB50D46C4
:106950000A280CD2002D0AD0062148432030C0B2AC
:106960006A460E2102F088F8040003D007E00220F6
:1069700004B070BD062269462846FEF71BF8204683
:10698000F6E700218A00835A491CDB438352121820
:106990009378C9B2DB4393700429F3D370470000A6
:1069A000F8B5074600200090784CB97805460726D0
:1069B0006079A2790B00FEF733F80805DD1A363648
:1069C0005E98C1DD787800285AD170480622F91CFB
:1069D0003C30FDF7EFFF0120A0716C4B01464233C4
:1069E00062786079FEF75EF8002849D1C5E07978D1
:1069F000002945D1F978002906D0654BA2780021FD
:106A0000FEF750F878700AE0022A0BD00121FEF759
:106A10004FF8002803D101216079FEF73DF878781E
:106A200000282DD1F8BD7B78002B29D1032909D06E
:106A3000A289002A0CD0217800290AD00121FEF772
:106A400019F806E0052A01D0022012E0062010E025
:106A50002570A079062802D0042802D008E005207D
:106A600007E00120207001466079FEF715F884E008
:106A70000320A07181E07878002803D0312832D03B
:106A8000A6717AE041480622391D3630FDF792FFA3
:106A90007889E081B8892082F88960820520A07118
:106AA000A28A002A03D002216079FDF7E3FFB889AA
:106AB000E083F8892084388A6084E07801280AD14C
:106AC0001F20FDF7B3FF7D21C90048430246042182
:106AD0006079FDF7CFFF7A89F8780423391DFEF736
:106AE0003BF9257049E02570C2E7284806220021BD
:106AF0003630FDF765FFE5832584658404216079E0
:106B0000FDF7BEFF08216079FDF7BAFFB8790828C4
:106B100008D00320A0712078002805D06079FDF707
:106B2000B5FF07E00420F5E70120207001466079F9
:106B3000FDF7B2FF0020C043E0811EE00821FDF711
:106B40009FFF7878002800D06CE7F888E0833889C8
:106B500020847889608404216079FDF7A9FF0028EA
:106B6000F2D1A06A0028EFD00368628C218CE08B00
:106B70009847F8BD00980028FBD0606A0028F8D03C
:106B800001680029F5D0A0798847F8BD540200209B
:106B9000600F002010B50178224C912906D0A2295F
:106BA00026D0D02901D1FFF7FBFE10BD41780E2978
:106BB000FBD181881C4A91420FD18168032008567D
:106BC000A1790529F1D17F28EFD0616A0029ECD0A5
:106BD00049680029E9D0884710BD144A9142FBD189
:106BE000806883784278017811A001F06DFF10BDB4
:106BF00041791329FBD10089012802D1207902288B
:106C000008D00520FDF712FF024608216079FDF744
:106C100031FF10BD08216079FDF732FFFEF706FC59
:106C200010BD0000540200200514000022200000C6
:106C30005B48434920444C455D256420256420255C
:106C4000640A00007CB5144C0546E08BE18A88425A
:106C50000AD3218B884207D8208C618B884203D1CC
:106C6000608CA18B884216D00520FDF7DFFE06461A
:106C7000E08A69460880208B4880608B8880A08BE2
:106C8000C8806279E089FDF7A9FF257132460821A5
:106C90006079FDF7EFFE7CBD5402002010B500F0D6
:106CA00025F8002800D0806810BD00229300CB5A40
:106CB000834202D1900040187047521CD2B2022A7F
:106CC000F4D3002070470000074A0021CB00D35ABC
:106CD000834202D1C80080187047491C0906090E7A
:106CE000F4D0002070470000580100200649496890
:106CF00005E08A88824201D18868704709680029C6
:106D0000F7D10020704700004C010020F8B507467D
:106D1000012906D0022924D10121FDF72FFF0028E7
:106D20001FD13846FFF7D0FF050015D000240D4EC7
:106D30000CE0F8206968604308180188002908D031
:106D4000F8220021FDF73CFE641CE4B27078844216
:106D5000EFD30020C0432880024938461431FEF7A3
:106D6000CBFBF8BD4C010020F3B5074683B00830DB
:106D7000029000267888FFF7A7FF019000282FD007
:106D8000002523E001984168F82068430C18218809
:106D900000291FD00298007801280ED16088009049
:106DA00023797888621DFEF791FD060005D00299CF
:106DB00000200870049821880180F82200212046D4
:106DC000FDF7FEFD00206D1C2080EDB207484078E5
:106DD0008542D7D30021C9430198002E018002D1FA
:106DE0007888FDF701FF304605B0F0BD4C0100206A
:106DF000F3B50546364C074685B008351622002106
:106E00002046FDF7DDFD03A800902B7969882888CE
:106E10006A1DFDF7EFFE064644E02E482E49007835
:106E20000022C01FC0B2009101920290284B694617
:106E30008A897888F63B3146FEF7BEFB002812D1DE
:106E40002548E979C01EC27891420CD120492846D4
:106E5000F6390830FDF7D8FD002804D02178708974
:106E600089000919488068468289698804AB3046E0
:106E7000FDF754FE21780646880000194288002A52
:106E800010D0002E05D06A46128A491C21708280DB
:106E90000AE00A060020920DC0431219491C217015
:106EA000908006E0002E04D00C48217800888142B2
:106EB000B3D32078002806D078882146FDF7A0FEBD
:106EC000002007B0F0BD0698298801800A20F8E765
:106ED000AA0D0020EC10FF1F4F010020F410FF1F2F
:106EE000F0B585B0044600256846858120790E28D6
:106EF0007ED00EDC082822D004DC022812D006281E
:106F00006ED117E0264608360A281ED00C2867D115
:106F100038E0102879D012287CD016287FD0182885
:106F20005ED181E044484349008808806088FDF7CD
:106F30006DFE55E003A92046FFF75AFF03E003A9C1
:106F4000204600F06DF905463BE0308804A9FDF7C6
:106F5000DFFD010014D03948364F00780097401EFD
:106F6000C0B2019502906A4660887B1C128AFEF7C7
:106F700023FB05001DD160883946FDF74DFE20E05A
:106F8000012516E0308804A9FDF7C2FD0100F7D005
:106F90002A4872880078274F401EC0B2019200979D
:106FA00002906A466088128A7B1CFEF705FB05008A
:106FB00003D030886946888103E060883946FDF750
:106FC00031FE002D0CD06078142809D019492079A1
:106FD00008706846808948800D716088FDF728FE3A
:106FE0002046FDF72BFE16488168002906D003E0F5
:106FF00006E00AE00EE012E02046884705B0F0BD4A
:1070000003A9204600F098F99DE703A9204600F067
:107010006BF898E703A9204600F0F2F993E703A97B
:10702000204600F00FF88EE703A92046FFF79CFEEC
:1070300089E70000AA0D0020EE10FF1FEC10FF1FD3
:107040004C010020F8B504460F4605460834008977
:107050006946FDF75DFD06003DD0307A80060ED50D
:1070600068460088FFF71AFE030006D068881222DF
:1070700031469847061E02D02EE00E262CE06E8880
:107080003046FFF721FE010005D11548FFF71CFE31
:1070900001000ED00E80134A0020567807E0F82336
:1070A0004A684343D25A002A07D0401CC0B2B042BB
:1070B000F5D30926002E09D00EE04968F822504386
:1070C00008182146FDF776FC0026F3E7688821467C
:1070D000FDF7BAFD02E00126208838803046F8BD71
:1070E000FFFF00004C010020F3B587B0079A04A809
:1070F0000832039200900026137951881088454C7D
:107100003746521DFDF776FD054669E00798297A56
:107110004088FDF79FFD070003D00898698901802A
:1071200060E03D48002100783C4A801FC0B20191D8
:10713000029000920798374B69460A8A4088F63BCE
:107140002946FEF739FA0700E7D1002E2BD0334845
:107150006178C01EC078021D914245D131182E4879
:107160000088801F81423FDCA119A87A8870761CB4
:10717000F0B269892218090A401C9170C6B20398BE
:1071800005AB41886846028A2846FDF7C7FC050022
:107190000FD06946888AA11988706946761C898A49
:1071A000F0B2090A0AE01D48C01EC078001D6070D8
:1071B000DAE7FF21A0198170761CF0B222189170D5
:1071C0001649401CC91ECA78C6B21249A019F63920
:1071D000801CFDF7EFFB1148C01EC0783018C6B206
:1071E000002D93D1002E0CD061783046FDF7F0FCD5
:1071F0002070079821464088FDF732FD002009B035
:10720000F0BD002F00D10A2703980188089801805B
:107210003846F4E7AA0D0020EC10FF1F4F010020B4
:10722000F3B585B00598404D0830039007880024D9
:10723000019455E004A80090039803794188421D09
:107240003846FDF7D7FC06004FD005987789317A8C
:107250004088FDF7FFFC0190002846D1334800210B
:107260000078334A001FC0B2009201910290059845
:107270002D4B69460A8A4088F63B3146FEF79CF959
:107280000190002831D1002C3ED029486978C01ED9
:10729000C078801C81422AD1254BDB1ED87821186A
:1072A00022480088001F81421FDC2919B07A8870AB
:1072B000641CE0B22A187189401C090A9170C4B29A
:1072C000194928191E46DA78F639801CFDF772FB39
:1072D000F0782018C4B21748874206D07F1CBFB28E
:1072E00012480088001F8442A4DD002C12D0697867
:1072F0002046FDF76DFC2870059829464088FDF76B
:10730000B5FC002007B0F0BD0948C01EC078801C45
:107310006870C1E70198002801D10A200190069801
:1073200007800198EEE70000AA0D0020EC10FF1F77
:107330004F010020FFFF0000F3B585B000272D4C62
:10734000059E27703D46083642E06800305A03A982
:10735000FDF7DEFB010017D02748284B007800938B
:10736000401EC0B20022019202900598214B6A464D
:107370004088F63B9289FEF71FF9070006D06800A7
:10738000315A0698018031E00127F8E71B4821783F
:10739000C01EC2788C468B18174909884A1E934232
:1073A00003DD6246891A491EC1702278611C531898
:1073B00012481049C01EC278F6391846FDF7FAFA8D
:1073C0000E482178C01EC07808186D1C2070EDB2E0
:1073D000B07DA84205D9084821780088401E814226
:1073E000B3DB059821464088FDF746FC384607B0D8
:1073F000F0BD0000AA0D0020EC10FF1F4F0100207F
:10740000F3B5054683B006460835008901A9FDF7A6
:107410007FFB3746E8370446002822D0207A8006D2
:107420000ED568468088FFF739FC030006D07088C7
:10743000122221469847040002D013E00E2411E0E6
:1074400000200090AB7829887088EA1CFEF73EFA8D
:10745000040007D1387E00280AD17088FDF712FC9D
:1074600003E00124049829880180387E002802D096
:10747000002005B0F0BD2046FBE70000F8B504464B
:107480000246F820424319480025064645700C364E
:107490007068002807D00020C1008919401C000630
:1074A0004D60000EF8D0124F00213846FDF788FAE3
:1074B000002318466043C0B2F8214843C1190B4865
:1074C000DA000C3016187160002105E0F8224A43FA
:1074D0007068491C8552C9B2A142F7D35B1C1B06D8
:1074E0001B0EE6D0014844700020F8BD4C0100207E
:1074F000BC0B00207CB50C78069D022C0ED14C688C
:107500002678647824023419054EA4B2F44205D1D9
:10751000022400950194FEF707F87CBD01207CBD94
:10752000FED6FFFFF8B5069800271D4614460E4606
:10753000002801D00B20F8BD30780021022801D0AE
:1075400019704DE07068027840780002101815221A
:1075500080B25202801A0300FDF762FA0504121F7E
:107560001A254100F068FDF7E5FAC2B20798824299
:1075700000D902462A70F1682046FDF71BFA30E078
:10758000F0680221008829702070000A607028E0ED
:10759000062028700246F168EEE701202870F068A6
:1075A000007820701DE0F068002816D008212970AE
:1075B000017821700188090A61708178A170418881
:1075C000090AE170017921718188090A6171817963
:1075D000A171C088000AE07103E0297001E0297000
:1075E00001273846F8BD10B50B78840702D5022470
:1075F000234301E0FD2423400B7003070B7802D5E1
:107600000824234301E0F72423400B7083060B7802
:1076100002D52024234301E0DF2423400B700A21FC
:10762000084201D1810603D510780C21084304E0FB
:10763000002803D11078F3210840107010BD00001D
:10764000FFB581B0087800240A9E1F460D46022827
:107650000FD168680178407800020818152180B2BF
:107660004902401A09D0012829D0022848D003280D
:107670003CD00124204605B0F0BDE868FDF75AFA79
:10768000C0B2864205D8F0190090152803D90D2400
:10769000F0E70724EEE7E8683A4680190399FDF71A
:1076A00089F90098EA6880B2002111541C484068AA
:1076B0000028DFD001680029DCD0002012E0002E75
:1076C00012D1022BE3D10399E8680A7849780902BC
:1076D00051180180124840680028CBD00168002969
:1076E000C8D001208847C5E70B24C3E7002EFBD193
:1076F000062BCCD10622E8680399FDF75BF9B9E7C0
:10770000002EF1D1012BC2D103980078002803D0BC
:10771000012801D08024ADE7E9680870AAE70000DD
:10772000D001002010B5122801D3052010BD0B4B4D
:107730009C6B01228240104620439863586B904313
:107740005863D86B002906D09043D863186B024366
:107750001A63002010BD1043F7E7000000800040CE
:10776000084B042807D2012207E0104300E09043B1
:107770005861002070470122123882405869002960
:10778000F5D0F2E70038004070B50F4E00243519EF
:107790006878022806D9E0B200F0A4FB0146E0B206
:1077A00000F0BCFB232C0ADA6878022807D9E0B283
:1077B00000F098FB0C216143891920314871641C49
:1077C000232CE4DB70BD00009810002070B502216E
:1077D0001020FEF7FBFA1020FEF7CAFA114E002423
:1077E0000C206043801920300079002813D0E0B2CB
:1077F00000F0BCFBE5B2284600F074FB00280ED078
:1078000000210C226A43921920325279824202D01E
:10781000284600F03DF8641C232CE1DB70BD0121FB
:10782000EFE7000098100020F3B5184E81B00F4626
:10783000002401200199A040084222D0384201D101
:10784000012500E00025E0B2294600F021F80C20D7
:10785000604380194168806800290DD0002806D057
:10786000002D02D00021E0B203E00121FBE7E0B2ED
:107870000021FFF757FF04E0002802D0E0B2012109
:10788000F7E7641C122CD4DBFEBD0000BC10002006
:10789000074A0C2343439B185A68002A01D0002949
:1078A00004D09A68002A02D0012900D110477047FD
:1078B000BC10002010B50448C16B034A4032106868
:1078C000D060FFF7B1FF10BD0080004010B50E483A
:1078D00080680007000F062807D007DC02280BD0BD
:1078E000042802D1012000F0A1FF10BD072806D016
:1078F0000C28FAD10220F6E700F0C0FF10BD0248C4
:107900004030C06B10BD000000400040F0B589B0B1
:1079100000200090FEF7FAFA800602D0292009B074
:10792000F0BD3D48007800280DD03C4F787C059094
:107930003979401CFDF74CF9C8B20790059800034F
:10794000002400903BE02720E9E707983146001922
:10795000FDF73EF90D030695BC71059831460019F7
:10796000FDF736F908033968102240182B4901F059
:107970002FFD002847D1002C02D100981030009034
:10798000002610353868401901F014FD0146042224
:1079900004A8FDF70FF804988003800F022815D083
:1079A000032804D0761CF6B21035FF2EEAD31A490C
:1079B000069849680818FEF731FC641CE4B23E7969
:1079C000701EA042C1DCFEF739FEA8E73968281D09
:1079D000081801F0EFFC01460C2201A8FCF7EAFFB1
:1079E000386800990422401804A901F0F1FC00282D
:1079F00009D100983968001D08180C2201A901F06E
:107A0000E7FC002801D01F2089E700981030009083
:107A10006846FEF7B3FAC5E7A00300207013002004
:107A200070B50F4900200978002916D00D4A0125AC
:107A3000548A2D03AC420FD2507C1179127C40182D
:107A4000801A401EFDF7BEF8FF2000014143281BAD
:107A500040180C214843000970BD002070BD000093
:107A6000A0030020701300201CB5044600200090E5
:107A700001900A480078002808D001AA694602202F
:107A8000FEF786FE002803D001201CBD27201CBD68
:107A9000002C01D00198206000981CBDA00300209C
:107AA00010B5084A1378002B01D0272010BD03051C
:107AB00001D1032901D2062010BD51705060FEF79C
:107AC000BDFD10BDA00300200148007870470000F4
:107AD000A0030020FEB5002405460094FEF716FA28
:107AE000800601D02920FEBD24480078002807D058
:107AF0006946284600F046F8002803D02520FEBD40
:107B00002720FEBD1E4E00993068401801F052FC3F
:107B10000146042201A8FCF74DFF01980C21000D3D
:107B2000FDF756F8002900D00121451803273F042E
:107B30001FE030680099401801F03CFC0146042227
:107B400001A8FCF737FF01980099B843019030680D
:107B50000422401801A901F03BFC002801D01F209D
:107B6000FEBD0098103000906846FEF707FA641CCE
:107B7000A4B2AC42DDD30020FEBD0000A003002073
:107B80007013002008B500230093064B1B78002BD0
:107B900006D00A46009069460120FEF7F9FD08BDAF
:107BA000272008BDA0030020FFB583B01C46164661
:107BB0000F460025FEF7AAF9800602D0292007B05B
:107BC000F0BD2548007800280BD0002F0BD0002EE8
:107BD00009D069460398FFF7D5FF002805D0252076
:107BE000EDE72720EBE72220E9E71C480099006831
:107BF000401801F0DFFB0146042201A8FCF7DAFE81
:107C0000002C02D00198000D20800198040DB44290
:107C10001CD91FE00C2C01D30C2000E02046C6B27A
:107C20000E4801680098001D081801F0C3FB0146CA
:107C300078193246FCF7BEFEA01B84B200981030C3
:107C40000090A81985B26846FEF798F9002CE1D19A
:107C50000020B4E72620B2E7A00300207013002024
:107C6000F7B588B014460546FEF750F9800602D0F5
:107C700029200BB0F0BD47480078002809D00998AA
:107C8000002804D0002C02D04348844203D922208B
:107C9000EFE72720EDE7FFF7C3FEA04201D2232044
:107CA000E7E705A92846FFF76DFF002806D128461B
:107CB000FFF710FF002801D00120DAE70098210526
:107CC0000003000B084300900694684605800321DA
:107CD0000098090488430121490440180327BF0480
:107CE00000900C2C01D83843009000260C2C10D9A1
:107CF0000698A042009803D1B8430121890402E00C
:107D0000B8430121C90440180C250C3CA4B20090D2
:107D10000AE000980103890F022901D0012901D14D
:107D2000B8430090E5B200241C48428A0168007CF8
:107D300089180003081805900422694601A8FCF779
:107D400039FE09982A46811902A8FCF733FE2A1D3C
:107D500001A9059801F03CFB002801D01F2088E70D
:107D600070190E4D86B2688A0121103080B2090365
:107D7000688288420AD1287C2979401CFCF728FFB8
:107D8000687C814202D0102068822974002CADD119
:107D900000206EE7A0030020FF0F000070130020FA
:107DA000C306DB0E01229A40064B40098000C01832
:107DB0000029C16801D0114300E09143C160002057
:107DC000704700000038004030B50D4604460121E0
:107DD000FFF7E6FFA108074889000A189169A00784
:107DE000C00EFF23834099438540294391610020C1
:107DF00030BD00000038004010B5114C207800283C
:107E000001D0072010BDFF21C9310D48FCF789FDC5
:107E1000012020700B490020086348630A4908626A
:107E2000486202211020FDF7D1FF1020FDF7A0FFCE
:107E3000064A07490D2000F04FF9002010BD000050
:107E4000981000200080004080F00040CD77FF1F98
:107E50008977FF1F30B50D460446042803D320461A
:107E60001F38032803D801212046FFF779FC0021A1
:107E70002046FFF795FF01200B49122C08D2A040A5
:107E80004A68002D01D0024300E082434A6008E0C6
:107E9000123CA0400A69002D01D0024300E0824359
:107EA0000A61002030BD00000080004070B50C4623
:107EB0000A21FCF78DFE4A008A1801210B46521C4C
:107EC0009340551CA9400B43D9438300044818181C
:107ED00083680B402146914019438160002070BDAA
:107EE00000F000400C4A0C4B0121403A122807D206
:107EF00081405068084201D0106809E0186907E025
:107F0000123881401069084201D0D06800E05869F9
:107F1000084000D00120704740800040F8B50E4670
:107F200005460A21FCF754FE48000918EA06012418
:107F3000D20E204690406A0993000B4A9A18136AA1
:107F4000034313628C40084F2846803F0A21FCF708
:107F50003FFE8000C0198168002E01D0214300E05F
:107F6000A14381600020F8BD80F0004070B5054657
:107F700018480C226A43141861680126002902D1AE
:107F8000A168002906D0134924394919122D03D3B9
:107F9000032302E0122070BD04234B7001218154A1
:107FA00000212846FFF756FF6068002810D0A0681F
:107FB00000280CD02846FFF795FF002801D00121AA
:107FC00000E000212846FFF7ADFB002070BD002631
:107FD0003146F7E7BC10002010B50948007800F0E2
:107FE000B3F9012000F06AF91F2000F017F8FFF73D
:107FF00003FF00F087FD03A000F066FD10BD000048
:10800000E312FF1F616C6C206472697665722069EF
:108010006E6974204F4B210A000000000449420998
:1080200003D0002048600620704748600020704759
:108030009803002010B50448112243681521034815
:1080400001F010FA002010BD980300201CF0004041
:1080500010B578210948FCF764FC0948007801282C
:1080600005D0022806D0032806D0042804D1FCF746
:108070000FFE01E0FCF712FE002010BDF8120020F8
:108080009803002010B512490446097812200129EE
:1080900014D0042912D072B600210E4B0C224A4390
:1080A0009A5C002A11D0A2420CD10C22514301202B
:1080B000C9184870FCF7ECFD002006E0FCF7E8FD6D
:1080C000002010BD491C0A29E8DB62B610BD000083
:1080D00098030020F812002070B500240E4E2346AD
:1080E0000C255D43755D854201D1072070BD002DD3
:1080F0000BD05B1C0A2BF3DB002C0AD0002363702F
:108100002070A2601846616070BD0C2463439C1906
:10811000F2E7032070BD0000F812002070B5FFF7F1
:1081200089FF0A4D002420460C214843295C002980
:1081300009D040194068002800D08047641C0A2CF0
:10814000F1DB002070BD122070BD0000F81200208D
:1081500070B515490022097801290FD004290DD0E6
:1081600072B60021114D0E460C234B43EC5C002CE3
:108170000FD0844205D15B195E7007E0FCF788FDE3
:108180000CE05B195B78002B00D0521C491C0A29BB
:10819000EADB002A04D0FCF77BFD62B6002070BD4C
:1081A000FCF77CFDF9E7000098030020F81200209E
:1081B00070B50A4D002420460C214843295C002953
:1081C00009D040198068002800D08047641C0A2C20
:1081D000F1DB002070BD122070BD0000F8120020FD
:1081E00010B516490A200870154901200870154974
:1081F0000020087000F030F813480421C1611349D1
:108200008160C16001611249416101210A20FFF7CB
:108210004DFE0D480D230F221221143001F022F9DA
:1082200000210420FDF7B0FD01210220FDF7ACFD87
:10823000084A00212020FFF74FFF10BDE112FF1F69
:10824000E212FF1F0013FF1F00F00040B66DDB3687
:10825000B6EDC3B07993FF1F70B5154800220068D2
:108260000424866B1025134813493300FCF7D8FB10
:10827000070808050C0E1308050005600C600DE0EA
:1082800020220260052004E0302305E04022026045
:108290000620086002E0602303600A60FCF704FD2A
:1082A000FCF708FD00F042FF00F024FE70BD000066
:1082B000B00300202010FF1F2410FF1FF8B51F4E31
:1082C0001E4F08361E4C1125012820D000281DD134
:1082D00000211020FFF7EAFD00211120FFF7E6FD45
:1082E000032308220921304601F0BCF806220023AE
:1082F0001146304601F0B6F816231B221F213846DE
:1083000001F0B0F82068C16AA943C162F8BD052335
:108310001B221F21384601F0A5F80A4B0722102125
:10832000304601F09FF8062201231146304601F045
:1083300099F82068C16A2943E7E7000014F000407B
:10834000B0030020FB030000F8B5FF212D312B4EB8
:108350002B4C00281AD001232A4A9B04022817D04C
:108360008025012819D016681E43166053680646FA
:108370000B360127B7403B43536053682B43536090
:1083800003281AD0042833D01F4A17E0266016E0CD
:1083900015681D4315601D4A10E017681F431760DC
:1083A000536801277F05BB43536053683F123B432B
:1083B000536053682B435360E8E7154A2260491E17
:1083C0000904090CFBD103460E4800220321001FBB
:1083D00001F048F801208007C1690E4D890709D5D1
:1083E00080690005010E491C2068FCF7F1FB02E0E2
:1083F000094AE3E720682860F8BD00000048E8016A
:108400001810FF1F40F0004000D8B8050024F40009
:10841000006CDC021010FF1F0090D0031FB5124C3F
:108420002078002802D0112004B010BD20210E4871
:10843000FCF777FA6846407A002803D16846C07A8C
:10844000002801D00520EFE768460FC810340FC49C
:108450000120203C207001F08BF8044A0021082004
:10846000FFF73AFE0020DFE7D81200207195FF1FCA
:1084700010B5054A927E002A02D001F039F810BDED
:1084800001F002F810BD0000D81200206D46294608
:1084900006A000F019FB0024A000295809A000F054
:1084A00013FB641C102CF7DBFEE7000048617264CC
:1084B000204661756C742053502069732025780A1A
:1084C00000000000307825782C00000010B50C4B1F
:1084D000012806D002280ED0032801D10020D88020
:1084E00010BD18780528FBD17D22120102211879D0
:1084F000FCF7C0FA10BD02211879FCF7C1FA10BDD3
:108500005003002010B51F4C1C4A1D49A378501D74
:10851000C95CD17063781371CB0702D0002303705C
:10852000401C0B0704D5E38803701B0A4370801CB2
:10853000C90608D521890170090A417061898170D5
:10854000090AC170001D801AC01E90700B49A089D5
:10855000FDF792FBE0880A30E0806078401CC0B2F2
:108560006070502801D149206070C1B20F20000313
:10857000FCF72EFB6081208110BD0000A00F0020C1
:108580001497FF1F5003002030B5039C0020002CDF
:1085900001D00B2030BD4C682578647824022C195A
:1085A000054DA4B2AC4205D101241C70C9680978FC
:1085B000117030BD0A2030BD382A0000FEB51546C6
:1085C0004A68002416785278089F1202B218184E92
:1085D00092B29219174E16D0FF3A382A02D00A24C6
:1085E0002046FEBD002F01D00B24F9E7012B01D05E
:1085F0000D24F5E72878012801D08024F0E7C96828
:10860000087003200FE00122019200972A46FCF730
:108610008BFF0400E4D1697828780902401800042F
:10862000000C03D0012071688847D9E70220FAE7DF
:10863000FED6FFFFB8020020F8B56B4A69496C4BC3
:108640006A481160D861002084000023401C0B514F
:10865000FF28F9DD1068FF2201468031654B6F323B
:108660008B600A250565C262634A13788363634B96
:10867000C3611378022B06D01378032B05D013782F
:10868000042B04D005E0102302E0142300E018239B
:1086900003625B4B4361594B3424963383613C2323
:1086A000CB603623C363082344643A2603644E60D8
:1086B00031260E603B26CE634626CE640F46392611
:1086C000403758C732260E6502260E661E274F66B3
:1086D0004226543158C1CC608B6005240E614C6138
:1086E0005A2460390C614B613C248C61AF24E40056
:1086F00004601478022C06D01478032C05D014786A
:10870000042C05D005E0102400E00924446000E0BA
:108710004360FF242D3484601926760106616400CD
:10872000C460384E7D278664FF00CF674762364EAF
:10873000C664364F87627327C76506274765876516
:10874000C31D0827F9331F60022747668466092482
:10875000C4662F4C046708244467FF242D348467C3
:108760002C4CC4672C4806601078022806D010787C
:10877000032807D01078042808D00AE01220C86126
:10878000192001E00C20CD61086202E008200D6292
:10879000C8611C4888627D20C000886764204862E8
:1087A00005200F63C862C820486300208863382012
:1087B0005860AF21C9001948996118644B201962AB
:1087C000C000D8617D2000015862164914488860B5
:1087D0001449154880318862FDF7E0FBFDF7EEFB98
:1087E000F8BD0000000CFF1FB0030020000CFF1FAD
:1087F0000010FF1FC82B0020E312FF1F46050000DA
:1088000060E3160050C30000740E00006A180000F8
:10881000204E0000881300009412FF1F004000113A
:10882000F988FF1F0009FF1FF58EFF1F70B5114C5F
:1088300088B0217E104B03AD00290BD00E4980314A
:108840004968CAB2002102E01E786E54491C914268
:10885000FADB04E0197D012219786B461973E1698E
:10886000002905D06B46187001951A726846884732
:1088700008B070BDD8120020004000403EB51B4A31
:108880001178101D00292FD0117E00292CD0917E47
:10889000002929D00178022926D18188448883685B
:1088A000091B89B2102900D9102100290BD0104CC6
:1088B0000A46491E89B2002A16D04288551C4580B6
:1088C0009A5C2270F4E701210170002141808180CF
:1088D000D169002905D007486C460DC80DC468460B
:1088E00088470820FFF734FC3EBD0000D812002066
:1088F000004000403497FF1F70B52B4800680128E6
:1089000003D12A48816F491C81672A48284941615F
:108910000121C1600160284A506BC1B2274800782C
:10892000002817D126480023C356002B254BC356D9
:1089300006DB1B040024045720021818401808E026
:10894000FF331B0400240457200218181E4B401844
:10895000C0185063022901D2022102E0502900D937
:1089600050211A48027814481430022A11D0184AAB
:108970001478184B1D78AC4214D914781B78E31A7C
:10898000891E49104B4311784901C91A10314B1106
:1089900003E0114A1478114BECE70022072100F0A4
:1089A00061FD70BD1378F8E75812FF1FD03BFF1F21
:1089B000FF3F000000100340800003405312FF1FE0
:1089C0000013FF1F00000000FFFE0000E212FF1F67
:1089D000DD12FF1FDE12FF1FDF12FF1FE012FF1F5D
:1089E00010B50A49032008700121C9020848FCF7A4
:1089F00067F9FFF721FEFFF72BFBFFF7F1FBFFF70E
:108A0000EBFAFDF795FA002010BD0000E312FF1FFE
:108A1000BC03002070B500241220FCF797F815491C
:108A2000122208600021FBF7CBFF20460124FCF74F
:108A30004DF902252046FCF74FF903242846FCF7A0
:108A400051F904252046FCF753F905242846FCF784
:108A500055F906252046FCF757F907242846FCF768
:108A6000F7FA08252046FCF721FD2846FDF766F8B1
:108A700070BD00004C030020F8B516460F460546B1
:108A800000F084FC044629460AA000F01DF8002CE2
:108A90000DD02068401C0AD03A46211D3046FBF715
:108AA00089FF3946304600F0ADF80020F8BD0A20B5
:108AB000F8BD00006F73616C5F736E765F72656105
:108AC000643A25780A0000000FB410B578210B48ED
:108AD000FBF727FF03AA0020029900F01BF80748C4
:108AE000FCF718F981B20548FFF7C2FC04490020E1
:108AF000088010BC08BC04B01847000060120020B9
:108B00009603002010B5024B0FCBFFF787FC10BD7A
:108B10002497FF1FF7B5002584B016460C46612741
:108B20005FE0252857D100226078641C1346002896
:108B30005AD025284FD02D2801D10123641C0220B2
:108B40002178302907D10343641CF9E70A214A43FD
:108B5000303A8218641C2078014630390929F5D949
:108B6000C1B273290AD064280ED0782811D05828B1
:108B700017D075281DD0632821D031E002CE0029FE
:108B800000D11EA1049822E068468CC00123316800
:108B900013E068468CC008E0361D049800F062F8C7
:108BA00017E04120019300920290002310223168C7
:108BB000F2E768468CC0316800230A22ECE731787E
:108BC000684601730021417303A9361D049800F023
:108BD00092F8451904E0C1B2049800F02DF86D1C1C
:108BE000641C207800289CD10498002803D00499A4
:108BF000002009680870284607B0F0BD286E756C23
:108C00006C29000070B5002406464D1E07E007A041
:108C1000FFF75AFF06A0FFF757FF641CA4B2315DAF
:108C2000AC42F4DB03A0FFF74FFF70BD25782C00AA
:108C30002000000025780A00C9B2002805D002688B
:108C400011700168491C01607047044A1088782837
:108C5000FAD2034B1954401C108070479603002031
:108C600060120020FFB583B000270C9E3D4608002F
:108C700005D0002B13D0059A0A2A0CD00FE0302023
:108C8000694608700020487032460D9B039800F03A
:108C900032F807B0F0BD002901DA01274042002177
:108CA0006A4602ACD17203340AE00599FBF790FFE3
:108CB0000A2902DB0E9A89183A393031641E217074
:108CC0000028F2D1002F0ED0002E09D00D98800779
:108CD00006D52D210398FFF7AFFF6D1C761E02E02D
:108CE0002D20641E2070324621460D9B039800F013
:108CF00002F84019CDE7FFB50025202781B01446C2
:108D00000E46002A0FDD0021304601E0401C491CC0
:108D10000278002AFAD1A14201DB002400E0641AA3
:108D2000980700D53027D80706D00DE039460198BE
:108D3000FFF782FF641E6D1C002CF7DC04E0019835
:108D4000FFF77AFF6D1C761C31780029F7D105E01A
:108D500039460198FFF770FF641E6D1C002CF7DC8C
:108D6000284605B0F0BD000070B5164C144DE06902
:108D700040084000E0610620FDF7A6F811484038A1
:108D8000826980210A438261E26901231A43E26118
:108D9000A26A920503D42A466D1E002AF8DC002D33
:108DA00007DB226A7E23D60B82691E409A43324338
:108DB000826182698A4382613006400E70BD000084
:108DC000983A000040F00040FFB581B00D460646DD
:108DD00010240C4F0CE0FFF7C7FFB04208D2A842A6
:108DE00006D90499039800F00FF8C019C72804D3D6
:108DF0002046641EE4B20028EDD11020001BC0B252
:108E000005B0F0BD21F1FFFFF0B5002591B00E4691
:108E100007462C460BE01020FDF756F81448406A30
:108E2000A2008104890C6846641C8150E4B2BC42F3
:108E3000F1D339466846FDF785F80E4A00205742BF
:108E40006C460EE081006358934201D9D91900E0C5
:108E5000D11A642902D9002011B0F0BD5D19401C5F
:108E6000C0B2B042EED331462846FBF7B1FEF3E77D
:108E700040F00040420F0000F8B50C4D0C4E0024AD
:108E8000A000401901686846FDF7BCF8022805D02B
:108E9000002C02DD012800D10320F8BD32196946FB
:108EA0000978641C5170402CEADBF8BD0008001101
:108EB00083230020F8B500240C4D0D4F0526A0009B
:108EC000401901686846FDF79DF8022805D0002C7E
:108ED00002DD012800D10320F8BD321B6946D219FA
:108EE0000978641C5170062CE9DBF8BD00090011FB
:108EF000B503002010B500F011F800F0C9F9064ADA
:108F00000121582000F03CF904230822194638209A
:108F1000FFF75AFF10BD0000F812FF1FF8B52F48E9
:108F200003782F4C16221B21204600F09BFA0323C6
:108F300011221221204600F095FA241D0623162244
:108F40001A21204600F08EFA032312221321204614
:108F500000F088FA23480078032828D0002319223B
:108F60001A21204600F07EFA0B2304220721204616
:108F700000F078FA1C4E337816221721204600F0B4
:108F800071FA1B4D1948E86042152A611948686159
:108F90001949A961164C40346260A060E160144F29
:108FA0001648403F38603078012802D00BE0032398
:108FB000D5E7002201231146384600F053FAFF207E
:108FC0004130286160600E4800780E49C006C00B31
:108FD0004018B8630C48E861F8BD0000DC12FF1FC0
:108FE00040F00040E312FF1FB403002020010020E6
:108FF000C0000340A403B00000008A04242D000038
:10900000E112FF1F250800002FFF260070B5304930
:109010002F4A4039002825D0022823D08B1513620F
:109020005A020A612B4A0A632B4A127801231B0356
:10903000D2184A612649264CC039803C002815D0F8
:109040006522264DD202264B012819D002281CD0B9
:10905000244E80190860244848602260A560E360BF
:10906000224819E080231362DA02DAE72048086018
:109070000020A0601F4820601F48E0601F480BE0F0
:109080001F480860A5602260E9E71D48401C086091
:10909000A5602260E3601B4820610D48FF23002289
:1090A0000721B43800F0DEF9174860611748A06165
:1090B0001748E06117482062174860621748A062AD
:1090C0001748E062174820631748606370BD0000CE
:1090D000C000034003000001DD12FF1F5555553746
:1090E000D6BE898E00800698545A98508055082222
:1090F0000080067800280B0007EE7536806608228F
:109100000180064280450822A49C5C544C0C040358
:10911000025A544E483C36332D007F5D57514B4523
:109120003C363056504A443E322C262010B5FFF7CC
:10913000F5FE0448007800F009F803480078FFF7CE
:1091400065FF10BDE112FF1FE212FF1F10B50446BC
:1091500009483F2C0DD00D230F22122100F082F977
:109160000648816BE2060905090DD20B11438163A4
:1091700010BD0823F0E7000014F000408000034019
:10918000F0B5364C666AA56A00236362A362344C6C
:1091900060630E20206263624020A0625020E06283
:1091A0002A2060622E484030012926D080210162A9
:1091B0002C49FF232A48A533403083602A4B436063
:1091C000274B2A48403B18617D20C000401EFDD23D
:1091D000274889050F18224840388763244B5B1CB9
:1091E000C91881632449234809780B00FBF718FC50
:1091F000070B0B100D0F100B1000FF210131016246
:1092000018498331D5E71D4802E01D4800E01D489C
:109210001D4911601249403103E0CB6ADB439B0FCB
:1092200011D0401EF9D20E48403887630020A0625A
:10923000E062886060622062FF204130606207481F
:1092400046628562F0BDC86A104B18401060106815
:109250000122000C120480184860E4E7001003406B
:1092600080000340CA0200002020000080560C202D
:109270006465210010270000E312FF1F204E00004C
:1092800030750000409C000000002020FFFF3F3FA1
:1092900000B50021022000F021F80C49801C087064
:1092A0000021422000F01AF80949801C08700121B1
:1092B000022000F013F80749801C087001214220A9
:1092C00000F00CF80449801C087000BDDD12FF1F7F
:1092D000DE12FF1FDF12FF1FE012FF1F30B51D4C13
:1092E0001B4A22601B4A4032012914D01A49D1601E
:1092F00050630E20106200215162FF201530506231
:109300001648057816482B00FBF78AFB070A0A0760
:109310000C0E0F0A0F001349E9E71148401E04E044
:10932000114802E0114800E01148401EFDD20948F2
:109330008030406B51620002000E11620D49D16015
:10934000FF21413151626521C902216030BD000019
:1093500010000300400003407F407200E312FF1F33
:109360000F2700007F405200204E000030750000A3
:10937000409C00004040100010B500210420FCF784
:1093800003FD01210220FCF7FFFC10BD0103702842
:1093900007D0712805D020380C2804D203480818BB
:1093A00070470348FBE700207047000000000511EC
:1093B00000C00011054A5168884204D35278120354
:1093C0005118814200D8222070470000A0030020DD
:1093D000F8B517460D4606460024FCF797FD8006B3
:1093E00001D02920F8BD1E494868864206D3497835
:1093F00009030818B04201D9B0071AD02220F8BDDD
:10940000381B012819D0022819D003281CD028198C
:109410004278295D120289188278C0781204000609
:10942000101809183046FCF765FD002815D0241DDA
:10943000361DBC42E4D30020F8BD295DF2E72919AE
:109440004978285D090206E02819417880780902E8
:1094500000040818295D4118E4E71F20F8BD00004A
:10946000A0030020F0B506680024E44393400127E0
:1094700004E03D469540AC43521CD2B28A42F8D932
:1094800026401E430660F0BDF8B50025164C164B6D
:10949000164E403C009504E0009A571C0097B242DB
:1094A0001BDCDA6BD207F7D10BE0009A531C009358
:1094B000B24212DC227D9206F7D502782270401C5F
:1094C00000950A46491E89B2002A0095F2D106E0AD
:1094D0000098411C0091B04201DD0D20F8BD207DB7
:1094E0004006F5D50020F8BD40400040A0860100B0
:1094F00070B51D4C0D1E08D0002806D0217800291B
:1095000008D0012903D0112070BD062070BDE1886C
:10951000A94201D2032070BDA36801462A4618461D
:10952000FBF7E6F9A5800020608002252570A08861
:10953000A268102800D910200C4B5968A943596023
:1095400004E061884E1C6680515C19700146401E23
:1095500080B20029F5D15868284358600820FEF7EA
:1095600091FD002070BD0000DC1200200040004092
:10957000F8B5224CFCF786FD07460820FCF778FD7D
:109580000820FCF785FD20780821FEF71DFC607897
:109590000921FEF719FC1A4D00262E736168381157
:1095A0004A088018FBF714FB2E6180212973020AF8
:1095B0002A71287003202873207A002802D087227D
:1095C0002A7200E02E7201226A60002802D06868C8
:1095D00008436860A07A002803D068680221084325
:1095E000686001210748C902016007480168090253
:1095F000090A020711430160F8BD0000E8120020CB
:109600000040004000E100E008E400E00A18232ADE
:10961000242A252A262A272A282A292A2A2A502A99
:10962000020000000C96FF1F4D6F64656C204E75A4
:109630006D6265720053657269616C204E756D6272
:109640006572004669726D77617265205265766950
:1096500073696F6E0048617264776172652052654C
:10966000766973696F6E00536F66747761726520F7
:109670005265766973696F6E004D616E75666163E0
:109680007475726572204E616D6500FE00657870BC
:109690006572696D656E74616C000000A960FF1FE2
:1096A0000000000000000000020000001A7C010021
:1096B00000000000F574FF1F000000000200000021
:1096C000187C01002575FF1F4176FF1F0000000078
:1096D0000D18372A382A392A02000000D096FF1FB9
:1096E0008985FF1FBD85FF1F00000000DD5F0000B2
:1096F00099300000293800003116000035200000A4
:10970000C57A00009550FF1F8155FF1FA55CFF1F04
:109710000900000000040E161E1F000000000000DB
:1097200000000000090AFFFF00C201000100000064
:109730000000000003000000000000000000000026
:109740000A66732074657374206379636C653A25C7
:10975000642E2E2E2E2E2E2E2E2E2E2E2E2E2E2EF3
:109760002E2E2E2E2E2E2E2E2E2E2E2E2E2E2E2E19
:109770002E2E2E2E2E2E2E2E2E2E2E2E2E2E2E2E09
:109780002E0A00000A66735F676172626167655F37
:10979000636F6C6C6563742E2E2E2E2E2E2E2E2E45
:1097A0002E2E2E2E2E2E2E2E2E2E2E2E2E2E2E2ED9
:1097B0002E2E2E2E2E2E2E2E2E2E2E2E2E2E2E2EC9
:1097C0002E2E2E2E2E2E2E0A000000000C98FF1F8B
:1097D00000000020BC0300005C49FF1F000CFF1FBD
:1097E000BC0300200C000000125FFF1FBC03002020
:1097F000000CFF1F000400005C49FF1F6099FF1F61
:10980000BC0300200C280000225FFF1F320224014D
:1098100004059310012914141C7C0129122D209693
:10982000FF1F105A2210291329101A0E1829105A36
:109830000B1069204B4401105A1020DA28405A4579
:10984000205A1220DA35205A46205A1420DA4320B2
:109850005A47205A1620DA55205A48205A1820DA3A
:1098600067205A49205A1A20DA79205A4A205A1C6D
:1098700020DA8B205A4B205A1E2022045B20020142
:10988000021BFF39545944DAA8545AA8541A3A1002
:10989000A9301A281032031A60203220491E2405EC
:1098A0003F10220A2AE81B0119125032A0ABE8032C
:1098B00078DABC784B5002786A30FC4A0F10692085
:1098C0005A51205A32105AD0A869205A52205A3878
:1098D000102AD8201302029A019A653075FFFF12F0
:1098E000060B1E800CB679FE031C010612102977A8
:1098F000C93299E8DAD8E85AB5A81AD218415AB646
:10990000101A2820298F5AC01069305AB7101AD45B
:10991000302910DAB8204B4803105AD6681AB920FB
:1099200082084B4905071B03495B19C83503020D23
:10993000184BE5597C1817100946532D54455354BC
:10994000617274205261746550687948650D290C04
:10995000B12968C129103C40787D1769FD000000DD
:040000051FFF48C1D0
:00000001FF
