:020000041FFFDC
:1008000000000000D1D7FF1F241100204811002054
:10081000882D002000000000000000000000000003
:1008200000000000000000000000000000000000C8
:1008300000000000000000000000000000000000B8
:1008400000000000000000000000000000000000A8
:100850000000000000000000000000000000000098
:100860000000000000000000000000000000000088
:100870000000000000000000000000000000000078
:100880000000000000000000000000000000000068
:100890000000000000000000000000000000000058
:1008A0000000000000000000000000000000000048
:1008B0000000000000000000000000000000000038
:1008C0000000000000000000000000000000000028
:1008D0000000000000000000000000000000000018
:1008E0000000000000000000000000000000000008
:1008F00000000000000000000000000000000000F8
:1009000000000000000000000000000000000000E7
:1009100000000000000000000000000000000000D7
:1009200000000000000000000000000000000000C7
:1009300000000000000000000000000000000000B7
:1009400000000000000000000000000000000000A7
:100950000000000000000000000000000000000097
:100960000000000000000000000000000000000087
:100970000000000000000000000000000000000077
:100980000000000000000000000000000000000067
:1009900025C2FF1FE9C2FF1F79E3FF1F000000000F
:1009A0000000000000000000000000000000000047
:1009B0000000000000000000000000000000000037
:1009C0000000000000000000000000000000000027
:1009D0000000000000000000000000000000000017
:1009E0000000000000000000000000000000000007
:1009F00000000000000000000000000000000000F7
:100A000000000000000000000000000000000000E6
:100A100000000000000000000000000000000000D6
:100A200000000000000000000000000000000000C6
:100A300000000000000000000000000000000000B6
:100A400000000000000000000000000000000000A6
:100A50000000000000000000000000000000000096
:100A60000000000000000000000000000000000086
:100A70000000000000000000000000000000000076
:100A80000000000000000000000000000000000066
:100A90000000000000000000000000000000000056
:100AA0000000000000000000000000000000000046
:100AB0000000000000000000000000000000000036
:100AC0000000000000000000000000000000000026
:100AD0000000000000000000000000000000000016
:100AE0000000000000000000000000000000000006
:100AF00000000000000000000000000000000000F6
:100B000000000000000000000000000000000000E5
:100B100000000000000000000000000000000000D5
:100B200000000000000000000000000000000000C5
:100B300000000000000000000000000000000000B5
:100B400000000000000000000000000000000000A5
:100B50000000000000000000000000000000000095
:100B60000000000000000000000000000000000085
:100B70007DC6FF1F00000000000000000000000014
:100B80000000000000000000000000000000000065
:100B90000000000039B0FF1F00000000000000004E
:100BA00000000000000000000000000071B1FF1F05
:100BB0000000000000000000E1B0FF1F29B1FF1F8E
:100BC0001DB0FF1F0000000000000000000000003A
:100BD0000000000000000000000000000000000015
:100BE0000000000000000000000000000000000005
:100BF000000000005DAFFF1F0000000000000000CB
:0C0C000001FF01FF01FF01FF41000000A7
:020000041FFFDC
:1048000018610020D548FF1FDD48FF1FDF48FF1F4C
:104810000000000000000000000000000000000098
:10482000000000000000000000000000E148FF1F41
:104830000000000000000000E348FF1FE548FF1FE4
:104840000000000000000000000000000000000068
:104850000000000000000000000000000000000058
:104860000000000000000000000000000000000048
:104870000000000000000000000000000000000038
:104880000000000000000000000000000000000028
:104890000000000000000000000000000000000018
:1048A0000000000000000000000000000000000008
:1048B00000000000000000000000000000000000F8
:1048C0000348854600F084FD00480047C1D4FF1F1F
:1048D000186100200448804704480047FEE7FEE7CF
:1048E000FEE7FEE7FEE7FEE7156DFF1FC148FF1F6D
:1048F000F0B51FB40646002082B005464024019161
:1049000000901BE0019922460F46304600F04FFB15
:10491000049A059B801A994110D3104619462246E5
:1049200000F035FB361A8F41019722460120002105
:10493000009F00F02CFB38184D4100902046641E6B
:104940000028DFDC019B00982946324607B0F0BD05
:10495000F0B51FB486B00020009001900290069838
:10496000069980B204900798090C020400141143C0
:1049700007900027089D099806913E463C46039003
:104980000398A9B20204000C039004982D0C15435F
:1049900048430021224600F0FAFAC7197141103449
:1049A0000E46402CECDB3846029A00F0F0FA009AF2
:1049B000019B80180090594102980191103002909B
:1049C0004028CCDB00980BB0F0BD000038B50446A1
:1049D000C0681821401E4843A16840183C21484344
:1049E000616840183C2148432168451860690C21E2
:1049F0004843216940186921C900401A302100F05C
:104A00009FFD114A50434219084600921A2902DBC1
:104A10000E49511800910C2100F092FD0C4A5043B0
:104A2000009A801800900B4806E0491E425C074B34
:104A30005A43009BD21800920029F6DC21466846B2
:104A400000F0CEFA009838BD801F86078051010023
:104A50008033E1013429002003460B439B0703D038
:104A600009E008C9121F08C0042AFAD203E00B7833
:104A70000370401C491C521EF9D27047D2B201E0AB
:104A80000270401C491EFBD270470022F6E710B5A9
:104A900013460A4604461946FFF7F0FF204610BDAC
:104AA00010B5002200E0521C835C8C5CA34201D153
:104AB000002BF8D1D8B2E1B2401A10BD70B5104D3C
:104AC000002800D12868002414E00A4602E09E4233
:104AD00003D0521C1378002BF9D1DAB2224307D04D
:104AE000002B06D0002C04D000210170401C04E0F3
:104AF0000446401C0678002EE7D12860204670BD91
:104B0000D831002070B5064602F0F4F90468054675
:104B10000A220021304600F09DFA2C6070BDF8B5E5
:104B200002464A40D40F42004B0052085B089A42AA
:104B300002D20246084611464A0023D0C30D4A005D
:104B4000DDB2120EAD1A202D35DA49020126490ACE
:104B5000F6058A19002C00D0524220214F1B114625
:104B6000B9402A411018C20D9A4221D0002C17D00A
:104B7000012D08DCDA05801AD20F8019D207DBB2CA
:104B800000F0A8FAF8BDDA05801A012340001B06E0
:104B9000C01880185A428018CA0F1043490007E015
:104BA0004908C2071143DA05801A801940088018A5
:104BB00000F088FAF8BD61000122511A001BF7E7E6
:104BC0000122D2075140AAE70122D2075040A6E7AE
:104BD000024670B54A40D30FDB0740002DD04A0093
:104BE0002AD0010E140E000212020919400A520ABC
:104BF0008418E50104465443000A120A2E04504367
:104C0000A4194219200CC543AA18120C0125AD03A2
:104C1000521C521912047F39240400D0521C104334
:104C200001D44000491EC2B20C06C0092018401C25
:104C30004008802A02D003E0002070BD40084000F8
:104C4000002900DA0020184370BD70B502464A40C2
:104C5000D50F40004A00ED0740085208002814D044
:104C6000002A12D0C40DD30D41020120C00552020A
:104C7000490A520AE41A091812187D34914201D3E4
:104C8000641C00E04900002C01DA002070BD002304
:104C9000914201D3891A0343400849000028F7D103
:104CA00000290AD0914202D10121C90705E09142B1
:104CB00001D2012101E00121C943E005C0184019DA
:104CC00000F000FA70BD0000F0B51FB488B00B9979
:104CD0000998002448400999C00F490049080991E2
:104CE000C0070B990090490049080B910999089851
:104CF000A64608431CD00B990A98084318D0099877
:104D000001244000420D4800410D0998240500038C
:104D1000000B204309900B980003000B20430B90DD
:104D200050181C494018002201901446104605E016
:104D3000002001460DB0F0BD032801DA034600E073
:104D400003239C46C11A0AAE0AE05F0008ADED5B82
:104D50004F00F75B7D430027AA187C41491C5B1E6E
:104D60006145F2DD410004AB5A522104120C0A43A2
:104D7000240C401C0828DFDB019802900099704643
:104D800001910090059B049A0799069800F0E8F9B4
:104D9000D0E700000DFCFFFFF0B50C465C4085B08D
:104DA000E40FE40703944C0000266408590094467D
:104DB000490802460296224321D062460A431ED089
:104DC0006200570D4A000E032303550D01240246CD
:104DD0002C492405781B1B0B360B40182343264314
:104DE000614600901C46501AB44103D30098401C01
:104DF000009002E0921800985B41002803DA00203E
:104E0000014605B0F0BD0020012109050746864690
:104E100011E064461D46141BB54106D36546521B7E
:104E2000B341744607430C43A646CD0740084908E2
:104E3000284392185B4105460D43EAD110461843BA
:104E400013D06046194650407140084306D0604672
:104E5000101AB34106D20122002306E000220123EA
:104E6000DB0702E00122D24353100098744601058B
:104E7000381C6141029C039D0019694100F063F9EF
:104E8000BFE70000FD030000C217C10F504010B57E
:104E90004018CA079623002100F01CF910BD10B578
:104EA00000229623114600F015F910BD0EB5C21769
:104EB000C10F5040CA0740180021054B02930192D0
:104EC00000910A460B4600F04BF903B000BD00000C
:104ED00033040000C20F410040020123400ADB05F9
:104EE000D207090EC0187F2901DA002070479629E1
:104EF00003DC9623591AC84001E096398840002AFD
:104F0000F4D040427047410040020122400AD205DD
:104F1000090E80187F2901DA00207047962903DCEA
:104F20009622511AC8407047963988407047C20F80
:104F3000D207400040080BD0C10D0723DB01C91880
:104F400040020905400A1143C20840071143704757
:104F5000002001467047CB0FDB07490010B5490818
:104F600002460A4307D00A0D07240903E401090B8E
:104F7000121B002A01DC002010BDC900440F0C43A5
:104F8000C100E018D205801800F09CF810BD10B5E3
:104F9000202A04DB0146203A9140002010BD9140B8
:104FA00020239C1A0346E3401943904010BD10B5DE
:104FB000202A04DB0846203AD040002110BD0B46D1
:104FC000D340D0402024A21A91400843194610BD76
:104FD00010B5024900F004F810BD0000E8580020A8
:104FE00070B50C4600683C2100F0B0FA21603C210D
:104FF00000F0ACFA6160182100F0A8FA0546A16043
:105000000721001D00F0A2FAA1610F48A9000818AD
:105010000E4900F09BFA0246443288086261E06162
:105020003B2802D3910700D0401C0021084B0A46C0
:105030002161995C814203D8401A521C2261F8E731
:10504000401CE060204670BD6C0B0000B505000000
:1050500040290020F7B5009C0F4600262578641CE7
:10506000002D05D000F0DAF90068405DC007F5D1E9
:105070002B2D02D02D2D18D0641E39462046029AC1
:1050800000F0D0F9002F04D03968A14201D1009975
:1050900039607105022400290BDA4042002803DD43
:1050A00001F028FF0460A007FEBD01208002064336
:1050B000E3E70028F8DA01F01DFF04600048FEBDB8
:1050C000FFFFFF7F002904DA401C490001D140089E
:1050D0004000704770B40024050C05D11024000472
:1050E00002D1002921D01124050E01D1000208347B
:1050F000050F01D10001241D850F01D18000A41CE2
:10510000002801DB4000641C002908D020252E1B4C
:105110000D46F540A14000D0012129430843010676
:105120001B1B000ADB1D02D5002070BC7047DB058D
:10513000181880180029F8DA401C4900F5D170BC15
:1051400040084000704710B5002B08DA0024401CCE
:10515000614192185B411A4301D14008400010BDE3
:10516000F0B51FB482B005460C0003D0084601F02C
:10517000A9FE02E001F0A6FE203002460090214682
:105180002846FFF704FF049B059A04460F46184380
:105190001143084314D0184610431BD000984021F7
:1051A0000A1A18460599FFF702FF05460E46009AAF
:1051B00005990498FFF7EBFE084305D0012004E0B1
:1051C0002046394607B0F0BD0020C11705430E4305
:1051D0002C43374300990E986305401A7905E40A79
:1051E00000220C43FD0A0A3002D500200146E9E7FF
:1051F0000105101969410C9C0D9D00196941FFF7CB
:10520000A2FFDFE7F0B507460846584087B0C00F59
:10521000049048000E46590040084908BC1A8841CD
:1052200005D2384631461E4617460B460246580000
:10523000400810434CD0300D039040055900400DFC
:10524000490D0590401A0290402872DA1803012196
:10525000000B09050843019004980092002805D02E
:105260000199524200208841009201900298402109
:105270000A1A01990098FFF78AFE05460C466B460C
:1052800007CB00F0B7F8C0197141039A0E0D002347
:10529000D71756401A467A40164344D0049A002A3B
:1052A0002DD0029A012A039A15DC1205C01A9141E9
:1052B00001263605001C7141D20F059ED2070093CE
:1052C000019202962A462346FFF74AFF07B0F0BD37
:1052D00038463146FAE71605224A0F46B218C01A78
:1052E000B74101210905001C4F4100187F411146BB
:1052F00018187941E20F10436D19644113E0E20779
:105300006D0815436408C2071443039A0126120569
:10531000C01A91413605001C7141CE074008304348
:105320004908C01851412A462346FFF70CFFCDE734
:10533000FFE7049801224000C117121A00238B4195
:1053400004983146C417381AA141EEE730B401245D
:10535000E407634030BC55E730B40124E407614002
:1053600030BC4FE70000E0FF4A0009030123090BAE
:105370001B0519430A4B10B5520D9A4202DA002060
:10538000014610BD064B34339A4203DC9A1AFFF7EC
:105390000EFE10BD034BD218FFF7F9FD10BD000043
:1053A000FF030000CDFBFFFF10B5002904DB012443
:1053B000E40740428C412146002B04DB1C460123BC
:1053C000DB075242A341994200D1904210BD000038
:1053D000064C0125064E05E0E36807CC2B430C3C48
:1053E00098471034B442F7D3FFF76EFA042A00202E
:1053F000542A002010B5202A06DBCB170846203A95
:105400001041C1170B4306E00B461341D040202446
:10541000A21A91400843194610BD00000048704789
:10542000D0290020F7B582B0029C00272078641CA8
:1054300015460197302802D0002D15D015E02078B0
:105440000127641C782804D0582802D0002D09D0E8
:105450000BE0002D01D0102D07D10027102520785A
:10546000641C02E0082500E00A250026009610E0F2
:105470000099012769430818020C294680B271433C
:1054800000908E183804864201D3012001902078C4
:10549000641C294600F019F80028E9DA039800286E
:1054A00005D0002F01D0641E00E0029C046001982A
:1054B000002806D001F01EFD02210160C81E05B0C3
:1054C000F0BD009930040843F9E73A2800D230389B
:1054D000202302469A43412A01D310463738884296
:1054E00001D30020C043704770B58C180578401C6C
:1054F0006B075B0F01D10378401C2A1106D102789B
:10550000401C03E006780E70401C491C5B1EF9D15C
:105510002B0705D40023521E0DD40B70491CFAE74B
:105520000378401CCB1A921C03E01D780D70491CB7
:105530005B1C521EF9D5A142D8D3002070BD0000DB
:1055400003B40148019001BD9502000003B4014875
:10555000019001BD6902000003B40148019001BD42
:10556000C13C010003B40148019001BDED3C0100C4
:1055700003B40148019001BDC93A010003B40148D8
:10558000019001BD5518000003B40148019001BD10
:105590003518000003B40148019001BD718100007D
:1055A00003B40148019001BD3914000003B401485F
:1055B000019001BD1117000003B40148019001BD25
:1055C000F13E010003B40148019001BD1B3D010003
:1055D00003B40148019001BD7114000003B40148F7
:1055E000019001BDC131000003B40148019001BD2B
:1055F000B142010003B40148019001BDD542010050
:1056000003B40148019001BDC912000003B4014870
:10561000019001BD3D42010003B40148019001BD6C
:105620005D19000003B40148019001BD593A010021
:1056300003B40148019001BDC118000003B4014842
:10564000019001BD3515000003B40148019001BD72
:105650004117000003B40148019001BDE9150000A5
:1056600003B40148019001BD897B000003B40148E7
:10567000019001BDD520000003B40148019001BD97
:10568000A5E5000003B40148019001BD3D1C0000E8
:1056900003B40148019001BD0D1D000003B4014891
:1056A000019001BD8306000003B40148019001BDD3
:1056B0000143010003B40148019001BDE120000055
:1056C00003B40148019001BDF53C010003B4014859
:1056D000019001BD5D3F010003B40148019001BD8F
:1056E000DD21000003B40148019001BD5590000088
:1056F00003B40148019001BD7D3A010003B40148A3
:10570000019001BD913F010003B40148019001BD2A
:10571000A942010003B40148019001BD410300000A
:1057200003B40148019001BD1910000003B4014801
:10573000019001BDA53C010003B40148019001BDE9
:105740003917000003B40148019001BD8117000022
:1057500003B40148019001BDD136000003B40148F3
:10576000019001BD01E6000003B40148019001BDB4
:105770006D07000003B40148019001BDBD070000A2
:1057800003B40148019001BD891C000003B4014825
:10579000019001BDE907000003B40148019001BD7B
:1057A0003D07000003B40148019001BD211A00002B
:1057B00003B40148019001BD050E000003B4014887
:1057C000019001BD2D0E000003B40148019001BD00
:1057D0008922000003B40148019001BD610E000060
:1057E00003B40148019001BD9D0E000003B40148BF
:1057F000019001BDD50E000003B40148019001BD28
:10580000FD0E000003B40148019001BD610F0000CE
:1058100003B40148019001BDED3A010003B4014811
:10582000019001BD4F03000003B40148019001BD88
:10583000E997000003B40148019001BD3D980000C4
:1058400003B40148019001BDE58D000003B4014897
:10585000019001BD4977010003B40148019001BDE9
:105860008D3C010003B40148019001BDE55B0000DF
:1058700003B40148019001BDE129000003B40148CF
:10588000019001BD9937000003B40148019001BDAA
:105890005114000003B40148019001BD091F00002C
:1058A00003B40148019001BDA579000003B401488B
:1058B000019001BDC91F000010B5034A1321034820
:1058C00000F01EFF10BD0000AC1000206C2A00206C
:1058D000F8B504460D4616460027002C05D12A4689
:1058E00031460448FFF738FE01E0022700BF00BF41
:1058F0003846F8BD552A0020FFB58DB000200B902A
:105900000C900BAA0E990D9800F086F804460A2C0C
:105910005EDA204603F021FE05463448007802286E
:1059200001D1012000E0002000902A462146109B72
:105930000F9803F093FD1422002106A8FFF712FE32
:105940002146062251432431C8B206AA102107F08D
:1059500073FF002815D11022FF2106A8FFF708FECB
:1059600000280ED12146062251432531C8B20AAA89
:10597000042107F061FFE907C90F06AA0F98FFF796
:10598000FDFD21467031C8B202AA102107F054FF74
:10599000002813D102A803F0F4FD00260CE0B000AB
:1059A00002A947183888002804D0BA7839880F9897
:1059B00000F0F6FE701CC6B2042EF0DB0220284078
:1059C000002804D00A4801780F9800F0D3FE00BFE9
:1059D0001098042806D105480078022802D10F98B3
:1059E00003F008FE002011B0F0BD0000012C0020E3
:1059F000002C002010B504460548046005480178D5
:105A00002620FFF7C1FD0348007800F073FE10BDAB
:105A1000142C0020002C0020F8B506460F46144632
:105A20000A25002E06D0012E05D0022E11D0032EFD
:105A300029D11BE000BF384603F040FD05460A2D82
:105A400006DA002C04D0062239462046FFF784FDF2
:105A50001AE0384603F04AFD05460A2D05DA002C07
:105A600003D02146284603F05BFD0DE0384603F0E5
:105A70009CFD05460A2D05DA002C03D02146284658
:105A800003F04EFD00E000BF00BF2846F8BD000057
:105A900070B505460C46002603200002281A0300B4
:105AA000FFF778FD1D10141A20242A2E32394044A5
:105AB000484E52565A5E62666A6E72787C80908456
:105AC000888C900045480078207084E0102244497A
:105AD0002046FFF741FD7EE0102242492046FFF7B5
:105AE0003BFD78E040480068206074E006223F49B2
:105AF0002046FFF731FD6EE03D48007820706AE0F7
:105B00003C480088208066E03B4802783B492046BC
:105B1000FFF722FD5FE03A4802783A492046FFF756
:105B20001BFD58E038480078207054E03748007872
:105B3000207050E0062236492046FFF70DFD4AE06E
:105B400034480078207046E033480078207042E006
:105B50003248008820803EE03148008820803AE0CA
:105B600030480078208036E02F480088208032E0DE
:105B70002E48008820802EE02D48008820802AE0D2
:105B80002C480088208026E006222B492046FFF77B
:105B9000E3FC20E02948008820801CE02848008899
:105BA000208018E027480088208014E026480078EC
:105BB000207010E02548008820800CE024480088F0
:105BC000208008E0272D04DA2846FFF7E9FC208032
:105BD00000E0022600BF00BF304670BDAE2C0020A2
:105BE000844D0020944D0020B02C0020B42C0020C7
:105BF000BA2C0020BC2C0020BE2C0020BF2C002082
:105C0000DE2C0020A44D0020DF2C0020E02C002002
:105C1000E12C0020E72C0020E82C0020EA2C0020BA
:105C2000F02C0020F82C0020FA2C0020FC2C002066
:105C3000FE2C0020002D0020F22C0020022D002040
:105C4000042D0020062D0020AD2C0020EC2C00207F
:105C5000EE2C002010B504461348047000201349B0
:105C60000870401E124908800F480078FFF79EFC1C
:105C7000042010490870102200210F48FFF772FC21
:105C8000102200210D48FFF76DFC00200C49086030
:105C90000C4908700C49087001200C49087000205C
:105CA0000B49087010BD0000AC2C0020AD2C00206A
:105CB000EA2C0020AE2C0020844D0020944D0020C2
:105CC000B02C0020DF2C0020E02C0020E72C00204E
:105CD000E82C0020FEB506460C460120C0032040FB
:105CE000002810D047480078FFF766FC051E05D055
:105CF000284603F04DFE2846FFF764FC20460121AC
:105D0000C9034840FEBD012080032040002804D084
:105D10002046012189034840F4E7E007C00F00282E
:105D20003ED039480078002836D038480078052819
:105D300003D10320694608700CE0354801786846B5
:105D40000170344801786846417006223249801C4F
:105D5000FFF702FC3148017868460172304801784B
:105D600068464172694627480078FFF731FC0028F1
:105D700011D00720254908702A48006800280AD059
:105D8000284800680068002805D026480068016897
:105D90001E480078884700BF204601214840B1E7EF
:105DA00002202040002816D01848007805280ED17F
:105DB0001D480088FFF712FC1C480088002806D008
:105DC0001A48028802210F480078FFF70DFC204690
:105DD0000221484096E704202040002806D00020F9
:105DE00003F072FE2046042148408BE70820204043
:105DF000002805D003F01AFC20460821484081E71E
:105E000000207FE7AC2C0020BA2C0020AD2C002015
:105E1000DF2C0020E02C0020E12C0020E72C0020CB
:105E2000E82C00200C2D0020EA2C0020F02C002073
:105E3000F8B504460D4617461E4617480078052853
:105E400001D01420F8BD062C23DB1920C0018442A8
:105E50001FDA062D1DDB85421BDAFF20F530874255
:105E600017DA0A2E15DB1920C001864211DA0B4819
:105E700004800B4805800B4807800B480680069875
:105E800003F022FE042109480078FFF7B3FB00204D
:105E9000D8E71820D6E70000AD2C0020FA2C00200F
:105EA000FC2C0020FE2C0020002D0020AC2C00201B
:105EB000F8B506460C46154600200090BA48301842
:105EC0000300FFF767FB190E1924FD2D6A738DA7D8
:105ED000B3BFCAD6FDE2FCFBFAF9F8FDFDFDFDF704
:105EE000FD00102C05D110222946B048FFF734FBE5
:105EF00001E01820009054E1102C05D11022294611
:105F0000AB48FFF729FB01E01820009049E1042C81
:105F100003D1A8492868086001E01820009040E1FA
:105F2000012C37D1A44807782878A3490870002F9E
:105F300014D008460078002810D1A0480078022824
:105F400007D09E480078062803D09C480078042893
:105F50001FD19B480078FFF753FB1AE0002F18D1A0
:105F600095480078002814D09448007801280BD078
:105F700092480078032807D090480078052803D07D
:105F80008E480078042804D101218D480078FFF75D
:105F90003DFB01E01820009003E1022C03D128888A
:105FA0008849088001E018200090FAE01F2C14DCDA
:105FB0001F2200218448FFF7D5FA2246294682484D
:105FC000FFF7CAFA814804707F4B224601217C48C2
:105FD0000078FFF721FB009001E018200090E0E03E
:105FE0001F2C14DC1F2200217948FFF7BBFA224640
:105FF00029467748FFF7B0FA76480470744B027868
:1060000000216F480078FFF707FB009001E018209F
:106010000090C6E0012C06D12878042803DC2878FB
:106020006D49087001E018200090BAE0012C06D1FB
:106030002878032803DC28786849087001E01820D4
:106040000090AEE0062C05D1062229466448FFF7F1
:1060500083FA01E018200090A3E0012C06D12878F3
:10606000072803DC28785F49087001E018200090B9
:1060700097E0012C06D12878032803DC28785A49B8
:10608000087001E0182000908BE0022C19D12888BC
:106090005649088008460088002814D047480078F0
:1060A000052810D108460288022145480078FFF7EC
:1060B0009BFA08E04EE03EE030E020E010E003E034
:1060C00062E0182000906CE0012C06D128780128AD
:1060D00003DC28784649087001E01820009060E051
:1060E0002888022C08D1062806DB1921C90188421C
:1060F00002DC4049088001E01821009151E0288825
:10610000022C08D1062806DB1921C901884202DCCD
:106110003949088001E01821009142E02888022CCA
:1061200006D1FF21F531884202DA3449088001E0C6
:106130001821009135E02888022C08D10A2806DBB6
:106140001921C901884202DC2D49088001E018218B
:10615000009126E02F78012C13D1012F11D10821B5
:1061600017480078FFF75EFA002807D103F0ACFC6F
:10617000042113480078FFF73DFA04E01620009050
:1061800001E0182000900CE0272E07DA022C05D140
:1061900029883046FFF7F8F9009001E002200090CE
:1061A00000BF00BF0098F8BDFFFCFFFF844D00203A
:1061B000944D0020B02C0020BA2C0020AD2C0020E3
:1061C000AC2C0020BC2C0020BF2C0020BE2C0020BA
:1061D000A44D0020DE2C0020DF2C0020E02C00202D
:1061E000E12C0020E72C0020E82C0020F02C0020DF
:1061F000F82C0020FA2C0020FC2C0020FE2C002083
:10620000002D002010B5044606480078002807D16C
:10621000002C01D00448046003F03EFC002010BDB7
:106220001120FCE7AD2C00200C2D002010B50748F4
:106230000078052807D11322054801880548007811
:10624000FFF7F6F910BD1220FCE70000AD2C00208E
:10625000EA2C0020AC2C0020F8B507460C461E4660
:1062600002252300FFF796F90A0F06080C090F0D07
:106270000F0B0E0F002508E007E0002505E004E005
:1062800003E002E001E0022500BF00BF002D0FD1B6
:1062900021463846FFF7D2F90546002D08D1304691
:1062A000079A0699FFF7D0F9FFF7D4F9FFF7D8F965
:1062B0002846F8BD70B504460025E007C00F002849
:1062C00005D0044A0421044800F01AFA054628467D
:1062D00070BD0000C0100020BC2B002010B504468B
:1062E0000F4804700F49104800F024F800200AE01D
:1062F0000021C943C2000D4B99520021C200D2189F
:106300005160411CC8B20128F2DB012004F02AF9D7
:1063100003480078FFF7AAF90548FFF7ADF910BD6B
:106320009C2B0020B22B0020FFFF0000A02B0020A0
:10633000819CFF1F70B506460C46104886420ED160
:10634000002009E00021C9438200A15200218200FF
:1063500012199170411CC8B20228F3DB0CE02146EF
:10636000304603F040FC0546002D04D00020C04319
:1063700028800020A87000BF70BD0000FFFF000053
:10638000FFB581B00C4615461F46002000900A98C4
:10639000002826D1022F21D12878697809024018D7
:1063A00086B231460B988143002914D1E1680198E7
:1063B00000F092F9B04210D03246E168019800F046
:1063C00025FA00900098002807D16189324601988B
:1063D00000F0B0F901E08020009004E00D20009072
:1063E00001E00B200090009805B0F0BD70B50646A6
:1063F0000C460120C0032040002816D00C4800782D
:10640000FFF7DAF8051E0BD02878B02803D128460C
:1064100003F04AFD00E000BF00BF2846FFF7D2F8B6
:1064200020460121C903484070BD0020FCE7000060
:106430009C2B0020FFB587B00D461C46109E002007
:1064400006900590287A10210840002814D0099859
:1064500003F0BEFB0746002F05D00A222946079805
:10646000B847059001E00E2005900598002802D05D
:1064700005980BB0F0BD00BF287802287ED168686F
:106480000078696849780902401880B2049029228E
:1064900012020498811A904271D009DC8B49401A8B
:1064A0000FD001280ED0022848D0032868D118E068
:1064B000012966D002297DD003297CD00429F5D199
:1064C000C9E000BF1198002808D1EF683878307013
:1064D0003A7820467968FFF73FF801E00B200590F5
:1064E000D6E01198002826D101203070E8680078A5
:1064F00020706989491C88B20021FFF7C3F807465C
:10650000002F0FD031783878801C08183070B87A96
:10651000607078890012A0703A78E01C7968FFF703
:106520001BF807E03078001D307004220021601C49
:10653000FFF718F801E00B200590A9E0119800285A
:1065400044D1E868008801900420307001982070E0
:1065500001980012607003A90198FFF793F80746AD
:10656000002F29D0F868009002AB6846828958490C
:106570003846FFF78DF800280ED103E08AE039E0B5
:1065800083E046E03B78022152487A68FFF786F8BC
:10659000002801D1401E029000980078022808D1FE
:1065A000009802224168201DFEF7D6FF3078801C3B
:1065B000307003E00DE01EE001980290684600890B
:1065C000A070684600890012E07001E00B20059081
:1065D0005EE0119800280AD1E968079800F07CF87D
:1065E00007460220307027703812607001E00B20DF
:1065F00005904DE000BF1198002807D1E968088890
:106600000221317020700112617001E00B200590B1
:106610003EE0E868FFF748F8C7B21198B84217DCC7
:106620001198B84201D1002709E012991198401839
:10663000B84201DA129F02E01198381AC7B23770D7
:10664000EA68119811183A462046FEF785FF01E0E6
:10665000072005901CE01198002813D1E868072155
:10666000317001782170417861708178A170418822
:106670000912E1700179217181796171C188091272
:10668000A17101E00B20059002E00120069000BFFF
:1066900000BF01E0012006900698012813D1099857
:1066A00003F0C6FA0746002F0AD012991198334614
:1066B00022460191009029460798B847059001E0CD
:1066C0000E20059000BF0598D3E6000000280000CA
:1066D000FFFF00001E7C010070B505460E463146E6
:1066E000284603F080FA0446002C01D0A07870BD43
:1066F0000020FCE701490870704700009D2B002036
:10670000FEB504460F461646002C0FD0019468468D
:106710000780FEF7CFFF0546002D06D1002E04D0DE
:106720006089314603F0F6FE054600E00225284662
:10673000FEBD0000F8B505460E4617460C48007829
:10674000FF2813D00A20FEF7BBFF0446002C0CD014
:10675000B12020700020607020716580E680278164
:10676000214603480078FEF7B1FF00BFF8BD0000E6
:106770009D2B002070B504460D4608492046FFF7C2
:10678000ABFF064602203040002804D029462046B0
:10679000FEF7A2FF70BD0120FCE70000B22B002035
:1067A0007CB505460E461446684604712004010E69
:1067B000684641710020022301AA31460090284614
:1067C00000F001F87CBDFFB583B00D461E4602A95E
:1067D0002846FEF757FF01900198002811D068461F
:1067E000008903F041FA0746002F08D00C98F3B255
:1067F0000090059A01990398B847044600E00E24DA
:1068000000E00124204607B0F0BD0000F8B50546C1
:106810000F4616463946284603F0E5F90446002C93
:1068200009D13946054803F0DEF90446002C01D1B0
:106830001120F8BD2580A6700020FAE7FFFF0000B8
:10684000F0B5044615460846CA17520F1218D21062
:106850006A4312199E5C0A46C817400F8018C01080
:10686000C000081A37460741F807C00FF0BDF8B559
:1068700004460D462146E617760F7618F610D01D11
:10688000C7177F0F3F18FF106F43F6199E5D0096E4
:106890002146E017400F4018C010C000201A0726FC
:1068A000361A00983041C007C00FF8BD70B50446D5
:1068B0000025E007C00F002805D0044A072104483E
:1068C000FFF71EFF0546284670BD0000D4100020CB
:1068D0003C2C0020F8B506460C4615460027330030
:1068E000FEF758FE0805143C3C1C3C26313C152C98
:1068F0000ADC162200211C48FEF734FE22462946F7
:106900001948FEF729FE00E0182729E0022C03D1E0
:1069100028881649088000E0182721E0082C05D1B6
:10692000082229461248FEF797F800E0182717E0DA
:10693000012C06D10F492878CA69283104F0E0F803
:1069400000E018270CE0012C06D10A492878CA6B10
:10695000483104F0D5F800E0182701E0022700BF15
:1069600000BF3846F8BD00006E4D00202E2C0020E0
:10697000322C00203C2C002070B50446204605F047
:106980001DF8054600211C2004F0A6FE00211D2054
:1069900004F0A2FE284670BD10B51D221C21012066
:1069A00005F0D2F80121084605F026F810BDF8B52B
:1069B00006460C4615466846047045703C21304634
:1069C00004F0E6FF72B6304605F032F9022269465D
:1069D000304605F00FF962B6304605F03BF9F8BDD8
:1069E000002805DBC206D20E01219140014A116048
:1069F0007047000000E100E010B5002819DB1A4ADA
:106A000003231B02D21883089B00D2588307DC0E95
:106A1000FF23A3409A438B071B0E8407E40EA34079
:106A20001A43114B032424021B198408A4001A5191
:106A300018E00E4A03071B0F083B9B089B00D25827
:106A40008307DC0EFF23A3409A438B071B0E8407AA
:106A5000E40EA3401A43054B0407240F083CA40886
:106A6000A4001A5110BD000000E100E01CED00E0A0
:106A700010B5002819DB1A4A03231B02D218830819
:106A80009B00D2588307DC0EFF23A3409A438B0759
:106A90001B0E8407E40EA3401A43114B0324240267
:106AA0001B198408A4001A5118E00E4A03071B0F93
:106AB000083B9B089B00D2588307DC0EFF23A340B2
:106AC0009A438B071B0E8407E40EA3401A43054B21
:106AD0000407240F083CA408A4001A5110BD0000AC
:106AE00000E100E01CED00E010B5002819DB1A4AB7
:106AF00003231B02D21883089B00D2588307DC0EA5
:106B0000FF23A3409A438B071B0E8407E40EA34088
:106B10001A43114B032424021B198408A4001A51A0
:106B200018E00E4A03071B0F083B9B089B00D25836
:106B30008307DC0EFF23A3409A438B071B0E8407B9
:106B4000E40EA3401A43054B0407240F083CA40895
:106B5000A4001A5110BD000000E100E01CED00E0AF
:106B600010B5002819DB1A4A03231B02D218830828
:106B70009B00D2588307DC0EFF23A3409A438B0768
:106B80001B0E8407E40EA3401A43114B0324240276
:106B90001B198408A4001A5118E00E4A03071B0FA2
:106BA000083B9B089B00D2588307DC0EFF23A340C1
:106BB0009A438B071B0E8407E40EA3401A43054B30
:106BC0000407240F083CA408A4001A5110BD0000BB
:106BD00000E100E01CED00E010B5002819DB1A4AC6
:106BE00003231B02D21883089B00D2588307DC0EB4
:106BF000FF23A3409A438B071B0E8407E40EA34098
:106C00001A43114B032424021B198408A4001A51AF
:106C100018E00E4A03071B0F083B9B089B00D25845
:106C20008307DC0EFF23A3409A438B071B0E8407C8
:106C3000E40EA3401A43054B0407240F083CA408A4
:106C4000A4001A5110BD000000E100E01CED00E0BE
:106C5000F8B515460C46CE17760F3619F610F60124
:106C6000361836B20096802805DA402903DA002863
:106C700001DB002900DAF8BD0B4C009EA2190C467E
:106C8000CE17760F3619F610F6008F1B0126BE4080
:106C9000F3B2012D02D114781C4301E014789C4317
:106CA000147000BFE7E7000076530020F7B581B00D
:106CB0000B464026019D751B28B20546C617760F68
:106CC0007619F610F601F61836B20096802B05DA22
:106CD000402803DA002B01DB002800DAFFBD0C4D51
:106CE000009EAA190546C617760F7619F610F6000B
:106CF000871B0126BE40F4B2039D012D02D11578F9
:106D0000254301E01578A543157000BFE6E70000B4
:106D100076530020014802490860704740787D01A1
:106D200098310020F8B506460027FEF7DBFC054643
:106D30000AE0FEF7D7FC0446AC4201D3601B02E038
:106D40000348401B00190746B742F2D3F8BD0000C4
:106D5000FFFFFF001CB5044621463DA006F060FE83
:106D6000052C04D13F494048FEF792FE6DE03F48B4
:106D7000007805282AD1052C28D001200190012176
:106D8000384800880AF05AF8042C0CD12021082039
:106D9000FEF7FAFB20210920FEF7F6FB344900201C
:106DA000FEF7F2FB0BE020210820FEF7EDFB20218F
:106DB0000920FEF7E9FB00210846FEF7E5FB01AAE2
:106DC000012129480938FFF773F83EE02748007889
:106DD000022823D1032C21D126480078002803D093
:106DE00000202449087030E00820FEF7D9FB202855
:106DF0002BD10120019020210820FEF7C5FB202186
:106E00000920FEF7C1FB00210846FEF7BDFB01AAE1
:106E1000012115480938FFF74BF816E0012C14D171
:106E20006946C1208000FEF733FE68464179C17192
:106E300001798171C178417100210171C1706A4687
:106E400008210020FEF744FD00BF084804701CBD67
:106E50005772697374476170537461746543423A41
:106E600020256400B62D00200E0300008D2D00208B
:106E700030750000B82D002070B505460C4622463E
:106E800000212846FFF793FD70BD70B505460C46FE
:106E9000224640212846FFF78AFD70BD0FB410B589
:106EA00004A9074B02AA039800F042F9044602A97C
:106EB000002000F0D9FC204610BC08BC04B01847E4
:106EC0006978FF1F2021020C01D010211046020A10
:106ED00001D010460839020901D01046091F820866
:106EE00001D01046891E420801D0881E7047081A3A
:106EF0007047000000487047DC31002002E008C8FD
:106F0000121F08C1002AFAD170477047002001E023
:106F100001C1121F002AFBD170470000F0B51FB459
:106F200086B00998089A030D0021024314D05148F5
:106F3000514A1818504305141198012810981AD076
:106F4000281A401C00264D4F4D490096019104908F
:106F5000002812DA444211E01198012449A30128C3
:106F600001D11098C1430698119A84600360C260F1
:106F700041600BB0F0BD4042E4E70446210500202B
:106F80003F4A001C51410391029012E0E00707D0F4
:106F900032463B4601990098FDF796FE019100901C
:106FA00032463B4610461946FDF78EFE06460F4612
:106FB0006410002CEAD10498039B0028029A0999D6
:106FC000089806DAFDF780FE019B009AFDF77CFE2B
:106FD00005E0FDF7E1FE019B009AFDF7DDFE0446AA
:106FE0000E460022284BFEF7DFF903D80020C043ED
:106FF000014607E00022254B20463146FEF702F904
:10700000FEF7B2F9102409E0002C0ADB0A22002363
:10701000FDF76EFC079B30321A55641E02460A4388
:10702000F2D11122641C079B121B1C19119B012B0E
:1070300003D0012308430ED10AE0084304D01120F5
:1070400010900020119077E71098151A6D1E0BE034
:107050001098824202DD00236D1C03E0824201DAB7
:1070600000236D1E002BEED0069811998260C1603E
:1070700030C07EE701FCFFFF104D0000000014400F
:107080000000F03F300000000000F0430000E03F4F
:10709000FFB581B006461F460A9C05F08FFA0090A6
:1070A00035461C48854205D01B48854202D0062043
:1070B00005B0F0BD3046029904F06AFC72B6304665
:1070C00004F0B6FD3046039900F02EF82146304614
:1070D00004F0E2FE62B618E0286F08210840082894
:1070E00007D1286938707F1C601EC4B2002C00D103
:1070F0000CE0009804F0DCFE64216143884204D96E
:1071000006A006F08DFC0D20D2E7E5E700BF0020C9
:10711000CEE70000005000400058004049324320B4
:10712000524420544F0A000002461161704700008B
:10713000FFB597B00646002518E2252877D1002430
:107140002746FD49049400E00443761C3278012070
:10715000203A90400842F7D130782A280ED00222F7
:10716000307801463039092916D804990A23594341
:10717000303940181443761C0490F1E7189802C87F
:1071800004911890002904DA012040030443484286
:10719000049002200443761C30782E2814D1042059
:1071A00004437078761C2A2809D11898761C80C868
:1071B000189009E00A214F43303FC719761C3078F8
:1071C000014630390929F5D930786C2810D006DC11
:1071D0004C281AD068280ED06A2817D104E07428E9
:1071E00013D07A2812D110E00120400504430CE0AE
:1071F0000121090501E0032109050C437178814251
:1072000003D1012000052418761C761C30781190DB
:1072100066280BD013DC58287DD009DC00287BD0F1
:107220004528F6D04628F4D047281AD1A5E118E021
:10723000632835D0642870D0652812D19DE170286C
:107240006CD008DC6728F1D069287BD06E280DD07F
:107250006F2806D1BAE073282ED0752871D078280F
:1072600059D01A9A199990476D1C7EE16002400F1F
:10727000022809D003280DD00428189801680DD0E1
:107280000D60001D189070E11898EA1701680D60F4
:107290004A60F6E7189801680D80F2E70D70F0E794
:1072A00018986A4601781172001D189000205072DB
:1072B00002A80090012005E0189802C8189000204C
:1072C0000091C04361070DD5002101E00199491CDF
:1072D0000191B94212DA8142F8DB009A515C00292F
:1072E000F4D10BE0002101E00199491C0191814298
:1072F000FADB019A0099895C0029F5D1019904987B
:107300001A9B471A21463846199A00F097FA0199B4
:10731000401945180BE04FE02CE113E04EE00098D7
:1073200000990078491C00911A9A19999047019880
:10733000401E0190401CF2D1214638461A9B199AF2
:1073400010E137E00A200021009001916002410F16
:10735000022907D0189A01CA1892C2179446032925
:1073600008D00AE01898C01DC108C90005C91891C5
:10737000944607E000B2C2179446042902D140B2F5
:10738000C1178C4600226146944506DA0A46002160
:10739000404291418C462D2102E0210504D52B214C
:1073A0006A461173012103E0E10701D02021F7E7CC
:1073B000029155E00A200AE0102008E01020009019
:1073C0000021042004430191082703E00820002144
:1073D000019100906002410F022907D0189A01CA5A
:1073E000189200229446032908D008E01898C01D7E
:1073F000C108C90005C91891944603E080B2042968
:1074000000D1C0B200210291210729D5119970291C
:1074100006D0009A1021019B4A401A4305D00EE085
:1074200040216A461173012108E06146014306D0FC
:1074300030216A4611731199517302210291009A09
:107440000821019B4A401A430AD16146014301D1F8
:10745000610705D530216A46117301217F1E029113
:107460001199582904D035A10E910DA90D910DE067
:1074700037A1F9E76146019B009AFDF739FA0E9BA7
:107480008C469B5C0D9A521E0D921370614601430F
:10749000F0D10D9805A9081A20300190600703D596
:1074A00001200004844300E001270198874201DDA8
:1074B000381A00E00020019900904118029809183C
:1074C0000498401A0490E00306D421461A9B199AA6
:1074D000049800F0B3F94519002706E003A81A9AAA
:1074E000C05D199990476D1C7F1C02988742F5DB9F
:1074F000E0030CD521461A9B199A049800F09EF9D6
:10750000451904E01A9A3020199990476D1C00998A
:10751000481E00900029F5DC08E00D980D990078D0
:10752000491C0D911A9A199990476D1C0199481E92
:1075300001900029F1DC63E1092801003031323388
:10754000343536373839616263646566000000009F
:107550003031323334353637383941424344454689
:107560000000000000F05AF94519761C3078002818
:1075700000D0E2E528461BB0F0BD600700D4062726
:107580001898C01DC108C90048680A680831C30FAF
:10759000DB071891190001D09CA108E0210501D555
:1075A0009BA104E0E10701D09AA100E09AA1430069
:1075B00011985B08109165280CD006DC452809D08D
:1075C00046281DD0472841D141E0662818D06728B9
:1075D0003CD13CE00021112F01DB112000E0781CA0
:1075E0000191009008A911A8FFF798FC1399059143
:1075F0000021119A15927F1C12980197009150E07A
:107600000120C00703900120019008A9009711A84C
:10761000FFF784FC139A149905920022119B0092A3
:1076200012981593059A0192002901D0104602E0A4
:10763000791C40180190381A01D5019804E04042A5
:10764000401E0090781C0190C01B029043E0012F67
:1076500000DA01270021112F01DD112000E038465A
:107660000191009008A911A8FFF758FC1399059102
:10767000119A0021129815920091019721070CD4BC
:107680000599B94201DB019900E00191012904DD6E
:10769000159A491E515C302906D0B84201DA011D05
:1076A00005DA0121029115E00199491EEDE7002854
:1076B00005DC0099411800910199091A03E0019A2B
:1076C000411C914200DD01910099401A401C02903A
:1076D0000120C0070390200706D402990198814237
:1076E00002DB0020C043029000206946C87707AF44
:1076F000012103980337C907884224D00220119042
:107700002B201290039800280CDA404203902D2081
:10771000129007E00A210398FDF718FF30317F1E11
:10772000039039701199481E11900029F2DC0398DA
:107730000028EFD1791E1298087030782021084077
:107740004530BF1E387006A8C01BC01D039010989E
:107750000078002800D00120019941180298C01734
:107760000918039809180498401A401E0490E00371
:1077700006D421461A9B199A049800F05FF845191F
:1077800010980078002803D01A9A199990476D1C18
:10779000E00324D521461A9B199A049800F04EF86C
:1077A00045191CE00098002807DB009905988842DD
:1077B00003DD1598405C199901E0199930201A9A57
:1077C000904700986D1C401C00900298401E02904B
:1077D000002804D11A9A2E20199990476D1C0199FE
:1077E000481E01900029DDDC05E038781A9A7F1CDC
:1077F000199990476D1C0399481E03900029F4DCE9
:1078000021461A9B199A0498ACE600002D0000004E
:107810002B0000002000000000000000F8B5044626
:1078200000251E461746880404D405E0394620206A
:10783000B0476D1C641EF9D52846F8BDFFB5044657
:10784000002581B01E46C80301D5302700E020275F
:10785000880404D505E038460399B0476D1C641EC2
:10786000F9D5284605B0F0BD0A68531C0B601070AE
:10787000704710B502211D20FFF772F910BD0000FE
:1078800030B58BB004464B48047001210A910721A2
:1078900009910021089101210791142106911E21CF
:1078A000059100210491FF21F531039142A103C903
:1078B0000291019001AA06214148FEF7F9FA09AAAE
:1078C0000121C3208000FEF7F3FA0AAA01213C48F7
:1078D000801FFEF7EDFA08AA02213948401FFEF783
:1078E000E7FA384A0B216120C000FEF7E1FA364A78
:1078F00007213348001FFEF7DBFA07AA01213120D8
:107900000001FEF7D5FA06AA02212D48801DFEF7D8
:10791000CFFA05AA02212A48C01DFEF7C9FA04AA17
:10792000022127480830FEF7C3FA03AA0221C52026
:107930008000FEF7BDFA254A15210020FEF7CAFF98
:10794000FF25913529460620FDF71EFE2946072012
:10795000FDF71AFE29460820FDF716FE29460920E4
:10796000FDF712FE0020C043FEF7A0FF0020C04339
:10797000FEF7A0FCFDF7A0FF154809F03DFA05F061
:10798000FDFF00F097F901210A480078FDF73EFE5F
:1079900005F0BEFB0F4801F02BFC0F4807F0E0F9A3
:1079A00007F006FD00F0E2FA0C4805F019FA0BB0FA
:1079B00030BD00008C2D00200102030405060000EC
:1079C0000B0300008E2D0020992D0020A02D0020FB
:1079D000210D002099D5FF1FBDD7FF1FD9D5FF1F4F
:1079E00070B506460C460120C0032040002810D088
:1079F0004D480078FDF7E0FD051E05D0284600F053
:107A0000A1F82846FDF7DEFD20460121C9034840C4
:107A100070BDE007C00F002809D04448FEF7F2FB14
:107A20004348FDF7E7FF204601214840F0E70420E6
:107A30002040002805D000F09FF92046042148404E
:107A4000E6E702202040002806D0002008F0B6FB20
:107A5000204602214840DBE708202040002806D0CD
:107A6000002007F0ADFC204608214840D0E7102058
:107A70002040002805D001F039FC20461021484064
:107A8000C6E720202040002805D000F089FA2046D3
:107A900020214840BCE780202040002812D000F080
:107AA00017FA002801D0012000E0022005462946EF
:107AB00020A005F0B5FF284607F070FA2046802187
:107AC0004840A5E740202040002806D0032007F0CA
:107AD00065FA2046402148409AE7FF2001302040C7
:107AE000002806D001F058FA2046FF210131484015
:107AF0008EE7012040022040002806D005F0EEFB72
:107B0000204601214902484082E7012080022040AE
:107B1000002806D004F070F920460121890248406F
:107B200076E7002074E700008C2D0020BC2D00209B
:107B300090110020626174745F6576745F74202513
:107B4000640A000070B504462078B12810D109A05D
:107B500005F066FF25462889022808D10BA005F00C
:107B60005FFF1148017811480088FEF703FE00BF4F
:107B700070BD0000474154545F534552565F4D530A
:107B8000475F4556454E540A00000000496E64693F
:107B900063617465207365727669636520636861EB
:107BA0006E67650A000000008C2D0020B62D0020B5
:107BB000FEB50446002718480122D20300230568B9
:107BC00041682846FCF794FE009001A807F0C1F830
:107BD000114880680199884204D90098FF30FF302D
:107BE000023000900198C00B009940180090684640
:107BF000FDF7EEF90746387C401C2071B88A07492A
:107C00004018E080387BE070387AA0703879607076
:107C1000387820700020FEBDE85700206C07000077
:107C2000F1B584B001A807F094F80498FCF7CEFEF3
:107C300000260546294614A005F0F2FE0121C903DD
:107C400000202C4637460391029020463946029B7D
:107C5000039AFCF77DFE05460E4631460022019848
:107C6000281A9141094A03C208490198886008A06E
:107C700005F0D6FE1021054805F0FCFF0CA005F02C
:107C8000CFFE05B0F0BD000025780000E8570020C9
:107C90006170705F6461746574696D655F61646A69
:107CA0007573745F626173656C696E653A0A000092
:107CB0000A00000010B500F0C5F9024801F0F0F923
:107CC00010BD00003075000003B58FB02C2104A852
:107CD000FCF7DBFE10A80078401E089010A8408832
:107CE0001649401A099008A8C07F079008A8807F0D
:107CF000069008A8407F059008A8007F049010A077
:107D000005F08EFE08A8017F427F807F01920291DC
:107D1000009008A8C37F10A8027841880DA005F044
:107D20007FFE04A8FFF77CFF1021114805F0A2FF99
:107D300010A005F075FE002011B000BD6C0700001A
:107D40000A6170705F6461746574696D655F736505
:107D5000743A0A0054696D652069732025642D25E5
:107D6000642D25642C2025643A25643A25640A0094
:107D7000E85700200A00000008B50020009068467F
:107D800006F0E7FF0C488068009988420AD90A4843
:107D90000168406801231B060022C9185041064AA9
:107DA00011605060044900988860044801F078F937
:107DB00000F0CEFB08BD0000E85700203075000041
:107DC00010B5FDF795FC0120FDF798FCFDF79CFC34
:107DD000002010BDF0B500248E464A1E12E0714608
:107DE00000230D1B6D1E0AE09E0031188C4687593A
:107DF00049688F4202D9815161464F605B1C9D42A8
:107E0000F2D8641C9442EAD3F0BD0000FEB50746E8
:107E1000194C386801282DD1002000903A7B387920
:107E20000123B96803F0FCFAA060A068FDF77FF8B1
:107E30000546124A124BFCF747FF01910090FDF7EF
:107E40008AF8A060A068FDF745F87D21C900484385
:107E500060600C49A068FCF7BBFE0646FDF73AF8E7
:107E60000546294608A005F0DBFD40210C480078B6
:107E7000FDF7CCFBFEBD0000984E0020CDCCCCCC55
:107E8000CCCC124000007A44626174745F6D65610D
:107E9000737572655F6576742025640A00000000C2
:107EA0008C2D002038B5084800680090074A032050
:107EB000009903F083F90446002C01D0204638BD18
:107EC00003F03CFA0020FAE7BC1100200D7EFF1FF2
:107ED0000148007870470000984E002070B50546B4
:107EE0000C4621460FA005F09BFD002C0CD1134839
:107EF0000078002814D10120104908708021104812
:107F00000078FDF783FB0BE00C480078002807D0D1
:107F100000200A490870802109480078FDF776FBA7
:107F200070BD0000626174745F6368617267655F51
:107F30006576745F68646C2025640A00984E0020A2
:107F40008C2D002010B500210B2003F0FDFB064A0C
:107F500011460C2003F0FEFC0446002C01D0204604
:107F600010BD0020FCE70000DD7EFF1F10B508A05B
:107F700005F056FD09480021016041608160FFF76E
:107F8000E1FFFF20F53000F025F8002010BD0000D3
:107F9000626174745F696E69740A0000984E002013
:107FA00010B500F007F8024800F014F810BD00000A
:107FB0003075000010B503A005F032FDFFF772FF29
:107FC00010BD0000626174745F6D656173757265E8
:107FD0000A00000010B5044622462021024800781D
:107FE000FDF702FB002010BD8C2D002001488068A9
:107FF00070470000984E002001484068704700001C
:10800000984E002010B50020054CFF212218401C7E
:1080100051704028FADB06F015F8207010BD000002
:108020001058002010B50020054CFF212218401CDC
:1080300051700628FADB06F023F8207010BD00000E
:10804000D131002010B58EB003A802F0B3FB049A22
:10805000039905980192029100900798421C064CE2
:108060000898011905A0069B05F0DAFC03A8FFF7A4
:10807000D7FD0EB010BD00006C070000636865639B
:108080006B5F64656661756C745F64617465746967
:108090006D650A54696D652069732025642D25641A
:1080A0002D25642C2025643A25643A2564000000BF
:1080B00010B502460B460021002000BF03E0545CCF
:1080C00060404C1CE1B29942F9DB10BDF0B5864628
:1080D000080CFF268446002388B237461C46194602
:1080E00001228A4005461540CD402C19A4B2FF2F2D
:1080F00002D1012C00D18FB265462A40CA40D21865
:1081000093B2FF2E02D1012B00D18EB2491C10294F
:10811000E6DB012C02D0102C08D009E0012B07D19E
:108120003001C019714608700220F0BD102B01D03B
:108130000320F0BD0120F0BD10B528210148FCF757
:10814000A4FC10BD60520020032800DA7047012112
:108150008907896801228240914301229207916038
:1081600000BFF3E7032800DA704701218907896817
:1081700001228240114301229207916000BFF3E780
:1081800001480068704700001010FF1F0121890797
:108190000968012282409143012292071160114631
:1081A0000968012282401143012292071160704741
:1081B00070B504460D4600222946204600F056F9C7
:1081C00070BD70B504460D4601F022F80F22294615
:1081D000204600F04BF970BD70B504460D4601F025
:1081E0004FF800222946204600F040F970BD0000FB
:1081F00070B504460D460120034908700022294647
:10820000204600F033F970BD702E002070B5044692
:108210000D4600200349087000222946204600F040
:1082200025F970BD702E002030B585B004460D468E
:1082300003A8FFF7BDFC21786846017061784170A2
:10824000408A7D210901401AC1B268468170017CD3
:10825000C170C17B0171817B4171417B8171017B67
:10826000C1710821FFF724FF694608720921684699
:1082700000F0E4F805B030BDF8B504460F462646D8
:10828000B178F07804F032FF0546002D00D100E00F
:108290000A200546EAB23946204600F0E7F8F8BD64
:1082A00070B504460D4600222946204600F0DEF84F
:1082B00070BD0000F3B585B005462E46324C6068AF
:1082C00004900698001FC0B20390B0788006800E1C
:1082D0000290B0788709607A0190002F01D0012FB9
:1082E00022D180210498FCF7D0FBF11C039A04985A
:1082F000FCF7B2FB02982070039860700020607257
:10830000002F09D1607205F0F3F800222846069983
:1083100000F0ACF807B0F0BD0120607201222846E1
:10832000069900F0A3F8F5E7019800282AD02178F3
:108330000298814207D0002020700A222846069920
:1083400000F094F8E6E7627804995018F11C039A5B
:10835000FCF782FB6178039808186070022F09D13E
:108360000020607205F0C4F800222846069900F04B
:108370007DF8CFE70120607201222846069900F0BF
:1083800075F8C7E70020C5E7FC4D002010B586B0A2
:10839000044621786846017161784171012181713B
:1083A000002101A8C17002210171012168464172BA
:1083B000002101A8817101216846C172002101A834
:1083C000017203A90131C1208000FDF761FB132177
:1083D00001A8FFF76DFE6946C875142101A800F0D9
:1083E0002DF806B010BD00007CB504460E46FFF720
:1083F00003FE85B229460BA005F012FB21786846E2
:10840000017061784170857028126946C870042136
:108410006846FFF74DFE694608710521684600F081
:108420000DF87CBD636D645F726561645F62617449
:10843000745F766F6C743A2025780A0070B5BEB010
:1084400006460D46F8216846FCF71FFB69468D700D
:10845000002404E0315D00A803300155641CAC42E7
:10846000F8DB684608F004FD3EB070BD70B5C0B0E2
:1084700004460D461646207869460871012D01DD37
:10848000607800E0002069464871684686710321E3
:1084900001A8FFF70DFE01466846C171F82102A848
:1084A000FCF7F3FA0421684681720179C1724179BF
:1084B00002A801716846817902A841716846C179B4
:1084C00002A8817108F0D4FC40B070BDF0B587B04F
:1084D00004460F460026254605A8FFF769FBA87845
:1084E0007D210901411868464182E97801742979A2
:1084F000C17369798173A9794173E9790173017B4A
:10850000427B807B0192029100906846C37B027C93
:10851000418A07A005F084FA04990398FFF7D4FB79
:108520000646F2B239462046FFF7A0FF07B0F0BD7D
:10853000636D645F7365745F74696D653A2025646B
:108540002C25642C25642C25642C252C25640A00FC
:1085500000B585B003A8FFF72BFB6846017B427B83
:10856000807B0192029100906846C37B027C418A25
:1085700002A005F055FA05B000BD000054696D6514
:108580002069732025642D25642D25642C20256405
:108590003A25643A25640A00FFB583B00F461D46AC
:1085A0000D9E0C9C002002907868007879684978CC
:1085B0000902401880B20190714A0198811A9042D4
:1085C00068D00ADC6F49401800280FD0012822D05B
:1085D000022835D0032872D147E0012973D002293F
:1085E0006FD003296ED02929F5D1ABE0082C02D336
:1085F000072002900EE00820001BB04201D930464F
:1086000001E00820001B28702A785F4801190598AE
:10861000FCF7A2FFB0E00C2C02D3072002900EE082
:108620000C20001BB04201D9304601E00C20001B99
:1086300028702A78554801190598FCF78DFF9BE0B2
:108640000D2C02D3072002900EE00D20001BB0423B
:1086500001D9304601E00D20001B28702A784C48D3
:1086600001190598FCF778FF86E0112C02D307204A
:1086700002900EE01120001BB04201D9304601E00B
:108680001120001B28702A78424801190598FCF730
:1086900063FF71E0112C02D3072002900EE011203D
:1086A000001BB04201D9304601E01120001B2870A8
:1086B0002A78394801190598FCF74EFF5CE056E02E
:1086C00001E015E029E0112C02D3072002900EE012
:1086D0001120001BB04201D9304601E01120001BDF
:1086E00028702A782D4801190598FCF735FF43E0DA
:1086F000112C02D3072002900EE01120001BB04283
:1087000001D9304601E01120001B28702A78244846
:1087100001190598FCF720FF2EE00E2C02D307204C
:1087200002900EE00E20001BB04201D9304601E05D
:108730000E20001B28702A781A4801190598FCF7AA
:108740000BFF19E0072C02D3072002900EE0072050
:10875000001BB04201D9304601E00720001B287001
:108760002A78114801190598FCF7F6FE04E000206C
:1087700028700A20029000BF00BF029807B0F0BD29
:10878000272A0000DDD5FFFF552A002038100020E1
:1087900045100020531000206510002077100020A5
:1087A000891000209B100020652A002070B5044627
:1087B00026460948855DFF2D00D170BD0021284661
:1087C00002F0F6FE0021284602F086FF002128462E
:1087D00002F0BAFF00BFF0E7DC110020F7B584B06B
:1087E0003A4F6846808A80B203906846C08A85B254
:1087F0002946EA17520F5218D210D200AA1A2ED1C7
:108800006A461A20105EC217520F1218D210D200F8
:10881000821A24D1002418E000260FE00021284607
:10882000EA17520F1218D2101219D2019319039A93
:108830009A183B4612339954701C86B26946182028
:10884000085EB042EADC601C84B26A461A20105E00
:10885000C117490F0918C910A142DDDC25E068469F
:10886000008B80B202906846408B80B201906846CF
:10887000808A80B203906846C08A85B2002410E0E6
:10888000002609E0621911B2039AB21810B2002250
:10889000FEF7DEF9701C86B202988642F2DB601C9D
:1088A00084B201988442EBDB00BF3889401C3881D8
:1088B000082205A938460A30FCF7CEF8082205A997
:1088C0000498FCF7C9F807B0F0BD0000645300201D
:1088D000FFB589B01E460A98049000273046FCF781
:1088E00019FF80B203900B98002806D0012806D00B
:1088F000022806D0032808D105E09B2407E07C2449
:1089000005E0872403E0912401E07C2400BF00BF40
:10891000002168468183C183018441848182C182B0
:1089200001834183002722E0F55D302D01DB392DE5
:1089300006DD6846008A083001B26846018214E00C
:1089400028463038001982B201A8049900F078F85E
:1089500002990198069105906846018A008B401C97
:10896000081801B26846018200BF781C87B20398DC
:108970008742D9DB6846018D8183418DC183018A9D
:10898000491C008D081A01B268460184418BC08AD7
:1089900009186846C08B081A01B26846418408224B
:1089A00007A90998FCF758F80DB0F0BDF7B582B0EB
:1089B0006846008A80B201906846408A80B2009082
:1089C00068460C26865F0E27C75F00250FE000244F
:1089D00008E0EA1911B2A21910B20122FEF738F923
:1089E000601C04B201988442F3DB681C05B2009855
:1089F0008542ECDB082203A90298FCF72DF805B0AC
:108A0000F0BD000037B582B0054614460021684627
:108A1000018041808180C180B22C06DD0822694638
:108A20002846FCF719F805B030BDA00003490A58E4
:108A30002846039900F022F800BFF4E7A82E002092
:108A400037B582B005461446002168460180418052
:108A50008180C180B22C06DD082269462846FBF7DA
:108A6000FBFF05B030BDA00003490A582846039912
:108A700000F0B6F800BFF4E7A82E0020F7B588B0E4
:108A8000174656480790387804907E786846242127
:108A9000415E03912621415E029100218182C182C3
:108AA000018341836A462621515ECA17520F52182C
:108AB000D210D2008A1A50D13046F217520F121833
:108AC000D210D200B21A48D100243FE0002538E08D
:108AD0006B462621595ECA17520F5218D21012192E
:108AE000002A2CDB24229A5E5219002A27DB24223A
:108AF0009A5E5219802A22DC6A462620105EC2172E
:108B0000520F1218D2101219102A18DC204604999C
:108B10004843001D4019395C68462622825ED01702
:108B20000192420F01981018C0100019C00142199B
:108B300068462423C35ED218079812308154681CFB
:108B400005B204988542C3DB601C04B2F117490FDB
:108B50008919C910A142B9DC1CE0002418E00025E5
:108B600011E03B1D21462846049AFDF769FE01905D
:108B7000029AA21811B2039AAA1810B2019AFEF72B
:108B800067F8681C05B204988542EADB601C04B2F1
:108B9000B442E4DB6946888C88822620085EC117CF
:108BA000490F0918C910C900421A6946C98C891AA7
:108BB0000AB26946CA82049800B20883F01DC11740
:108BC000490F0918C910C9000AB269464A83082228
:108BD00005A90898FBF740FF0BB0F0BD64530020D7
:108BE000F7B586B0144627786078039068461C2154
:108BF000415E02911E21415E01910021018241826C
:108C00008182C182002617E0002511E0231D3A462B
:108C100031462846FDF714FE0090019AB21811B2B1
:108C2000029AAA1810B2009AFEF740F8681C05B222
:108C3000BD42EBDB701C06B203988642E4DB69465A
:108C4000888B08821E20085EC117490F0918C910B9
:108C5000C900421A6946C98B891A0AB269464A8212
:108C600038B288820399C81DC117490F0918C91065
:108C7000C9000AB26946CA82082204A90698FBF70D
:108C8000EBFE09B0F0BDF7B588B01446207805902A
:108C900060780490E77868462421415E039126219C
:108CA000415E0291002F00D1059F0021684601839B
:108CB00041838183C183002517E0002611E0231D35
:108CC00029463046059AFDF7D2FD0190029AAA186E
:108CD00011B2039AB21810B2019AFDF7E7FF701CA7
:108CE00006B2BE42EBDB681C05B204988542E4DBA9
:108CF0006946888C08832620085EC117490F091829
:108D0000C910C900421A6946C98C891A0AB2694653
:108D10004A8338B288830499C81DC117490F0918BE
:108D2000C910C9000AB26946CA83082206A9089870
:108D3000FBF792FE0BB0F0BD1FB50E4C04F011F91D
:108D40000D492046FBF7A1FE0020208020810B4822
:108D500006F052F96060002168460181418180215E
:108D600081814021C181039A0299FFF737FD00F00C
:108D70003FF81FBD645300201404000000001011D0
:108D800010B5034C04F065F90020208010BD0000F0
:108D90006453002010B5034C04F06FF901202080CB
:108DA00010BD0000645300201CB5104C0021684623
:108DB00001804180802181804021C180208901285B
:108DC00005D1082221460A316846FBF745FE2246B6
:108DD00012320199009804F064F90020208160812A
:108DE0000021A181E18121821CBD0000645300208B
:108DF0001CB50B4C00216846018041808021818098
:108E00004021C180224612320199009804F049F9AC
:108E10000020208160810021A181E18121821CBD8F
:108E200064530020F7B592B0164637462B4807909A
:108E30001398069000216846018241828182C18296
:108E4000018141818181C18125E011A9384607F066
:108E5000B0FE85B2002D00D11EE07F19079908AA47
:108E6000486810A9898806F0CDF90446002C00D086
:108E700011E008AA68460699FFF705FF01990098D6
:108E8000039102906846018B8089401C081801B24A
:108E90006846018300BFD8E700BF10A881896846F3
:108EA000018210A8C18968464182018B491C10A823
:108EB0008089081A01B268468182C18940890918EF
:108EC0006846408A081A01B26846C182082204A98D
:108ED0001298FBF7C1FD15B0F0BD000064530020EF
:108EE000F7B590B0154600242A4F1198069000213E
:108EF0006846018241828182C182018141818181F2
:108F0000C18100BF22E06000285A002800D11FE084
:108F10006200A95A07AA786806F074F90646002E7E
:108F200000D011E007AA68460699FFF7ACFE019948
:108F30000098039102906846018B8089401C0818B4
:108F400001B26846018300BF601C84B2142CDADBD6
:108F500000BF10A881886846018210A8C1886846B1
:108F60004182018B491C10A88088081A01B268460A
:108F70008182C189408909186846408A081A01B26D
:108F80006846C182082204A91098FBF765FD13B05A
:108F9000F0BD00006453002030B587B0FF20913051
:108FA00003F056FF03F071FF0546012306AA1321C3
:108FB000284603F077FF012305AA1721284603F06E
:108FC00071FF284603F051FF6846007E40210840AB
:108FD000002804D003F0C4FE2CA004F021FD684654
:108FE000007E08210840002808D004206946087344
:108FF000002004902948816803A888476846007EBD
:1090000004210840002808D000200490022069466E
:1090100008732248816803A888476846007EC00715
:10902000C00F002820D003F030FF0546012302AA1C
:109030001021284603F036FF012301AA11212846FA
:1090400003F030FF284603F010FF68460179007AEC
:1090500003F0B8FE044668464473202101730F48AC
:10906000816803A8884700BF6846007E2021084029
:10907000002807D003F0F8FE7D20C00003F0E8FED2
:1090800003F06EFE002007B030BD00006669666F19
:109090002069732066756C6C0D0A0000A44E0020D8
:1090A00010B504462246042102480078FCF79CFAD9
:1090B00010BD00008C2D0020F0B587B005460F468E
:1090C00000240021069105910491039102910191E0
:1090D0003F480088002803D13E48006807B0F0BD33
:1090E0002E46B0B2002101F0B7FA06463046002302
:1090F00006AA05A901F0FCFA0446002C02D1354865
:109100000068EBE734480068344988420AD832489E
:1091100000686946098B40182F49086003203049D0
:10912000087002E004202E490870002003AB04AA56
:1091300000906846018B808A05F0E0FC0446002C14
:1091400002D124480068C9E7002001AB02AA0090C0
:1091500068468189008A01F0B7FB0446002C02D1E1
:109160001C480068BAE7002001AB02AA00906846DC
:109170000179007A03F0B0FA04466846007A15498E
:109180000860002C02D108460068A7E7154800785F
:109190006946097A884205D11348007869460979F9
:1091A000884212D06846007A0E49087068460079F5
:1091B0000D4908700D480068002806D0084601785F
:1091C00008480078094A126890470248006885E715
:1091D0009C310020AC310020A83100207017000025
:1091E000A43100209E3100209F310020A0310020BA
:1091F00010B5044600F044F801480460002010BD9A
:109200007C2E00200020014908607047AC3100200E
:1092100010B500F0EBF8044613A004F001FC08229E
:109220000121204600F0FEF800220821204600F02F
:10923000F9F87F220A21204600F0F4F8C7220D2118
:10924000204600F0EFF8204600F0C0F8FFF7DAFF04
:109250000020094908600120084908701E2003F019
:109260002FFA002010BD0000656D373078785F73ED
:10927000746172740A000000782E0020802E002095
:1092800010B50020134908601349087000F0AEF8CB
:10929000044612A004F0C4FB08220121204600F07D
:1092A000C1F800220821204600F0BCF87F220A21E4
:1092B000204600F0B7F8C7220D21204600F0B2F892
:1092C00000220121204600F0ADF8204600F07EF893
:1092D000002010BD782E0020802E0020656D3730D4
:1092E00078785F73746F700A000000007FB5002506
:1092F0002E480078002800D17FBD00F077F80646A0
:1093000003AA3021304600F07DF802AA3121304610
:1093100000F078F8304600F059F86946087A000203
:10932000097B08430546224800784007000F214981
:109330000D521F4800784007400F07280BD102212B
:1093400068460170082141701A48019068461A4920
:109350000968884700BF16480068401C1449086027
:1093600000231A4619462846FFF7A6FE044613486E
:109370000068844214D0214611A004F051FB0F482C
:1093800004600D48006800280AD001216846017079
:10939000447000200190684607490968884700BF6B
:1093A0001E2003F08DF900BFA6E70000802E0020EC
:1093B000842E0020884E00207C2E0020782E002055
:1093C000656D373078782025640A000070B5044652
:1093D000204602F0F3FA054600211A2002F07CF93B
:1093E00000211B2002F078F9284670BD10B51B2221
:1093F0001A21002002F0A8FB0121002002F0FCFA53
:1094000010BD0000F8B506460C46154601202B4657
:109410002246009002480178304602F0BBFBF8BDBE
:10942000742E0020F8B506460C46154668460470B2
:10943000457009480178304602F0AAFA72B6304603
:1094400002F0F6FB02226946304602F0D3FB62B618
:10945000304602F0FFFBF8BD742E0020FFB587B048
:109460000C4616461F46082F05D1204606214843C4
:109470002230C5B204E02046062148432130C5B25F
:109480001C2200216846FCF76DF86A461C2128461C
:1094900004F0D2F900280ED16846807E07280ADB46
:1094A0006846807E102806DCF107C90F6A46109BCB
:1094B0000798FCF735F90BB0F0BD000070B5054614
:1094C00000240DE00E216143074A88180622294630
:1094D000FCF72CF9002801D0204670BD601CC4B2F6
:1094E0000A2CEFDB0A20F8E7D84C002070B50546BF
:1094F00000240EE00E216143084A8918881D0622C7
:109500002946FCF713F9002801D0204670BD601CE5
:10951000C4B20A2CEEDB0A20F8E70000D84C002089
:109520007FB504460D460A2C01DA002D02D1022037
:1095300004B070BD2146062251432031C8B26A46AC
:109540000E2104F079F90646002E04D10622694660
:109550002846FCF701F83046EAE71FB504462146E5
:10956000062251432031C8B26A460E2104F064F944
:10957000002804D168468089C0B204B010BD002024
:10958000FBE7014600200DE082008A5AD2438300A7
:10959000CA52820052189278D24383005B189A70A4
:1095A000421CD0B20428EFDB70477FB5054600248B
:1095B0001CE02146062251432331C8B26A461021DD
:1095C00004F03AF900280FD11022FF216846FBF77A
:1095D000CFFF002808D129466846FCF7ADF80028DF
:1095E00002D1204604B070BD601CC4B20A2CE0DB7E
:1095F0000A20F7E770B5054600240A4800780028DD
:1096000001D0012000E00020044307480078002832
:1096100001D0042000E00020044321462846FCF746
:1096200091F870BD072C0020042C002008B50E48CE
:109630000078002815D0012802D0022810D10CE0B3
:1096400001200090094803880948028809480188D8
:1096500009480088FCF7ECFB04E0FCF7E7FD01E0BB
:1096600000BF00BF00BF08BD082D0020002D002056
:10967000FE2C0020FC2C0020FA2C0020F8B504461B
:109680000026A0780300FBF785FF0805FE214A4B62
:109690008FE3FDFE25466F78002F10D10622E91CCE
:1096A000A748FBF759FF0120A6490870A64BA74819
:1096B00002780121A6480078FBF7AEFF0746002F8D
:1096C00002D007209F490870012625E125466878C9
:1096D00000281CD1E878002809D09E4B9E480278CB
:1096E00000219B480078FBF797FF68700FE09548D2
:1096F000007802280BD0012195480078FBF792FFF3
:10970000002804D1012192480078FBF77FFF687898
:10971000002803D007208B4908700126FCE000BF19
:109720002546687800283AD1A07803280BD18548CF
:109730000078052803D106208249087032E0022013
:10974000804908702EE08548008800280BD08448A6
:10975000007800280AD08148028801217C480078DE
:10976000FBF742FF02E000207D4908707548007851
:10977000062803D105207349087013E0714800786A
:10978000042808D10120764908700121704800782A
:10979000FBF73CFF06E003206A49087002E007205F
:1097A000684908700126B7E025466878002840D14E
:1097B0000622291D6B48FBF7CFFE68896A4908809D
:1097C000A8896A490880E8896949088005205D49B7
:1097D000087068480088002806D066480288022180
:1097E0005B480078FBF700FFA88963490880E88997
:1097F00062490880288A6249088062480078012806
:109800000DD11F20FBF7CCFE07467D20C00078431A
:10981000024604214E480078FBF7E6FE00BF6A8945
:10982000E8780423291DFCF767F800204C490870EC
:109830000CE06878312806D10020494908700320DF
:109840004049087002E007203E490870012663E0A5
:109850002546062200214348FBF784FE00204649A6
:109860000880464908804649088004213848007825
:10987000FBF7C0FE082136480078FBF7BBFEA8794D
:10988000082801E01FE046E003D104202D490870BC
:1098900002E003202B490870012631480078002897
:1098A00004D02B480078FBF7ABFE07E001202C49E1
:1098B0000870012126480078FBF7A8FE0020C0436D
:1098C0002949088028E02546082121480078FBF72F
:1098D00091FE687800281DD1E888274908802889EA
:1098E000264908806889264908800421184800789C
:1098F000FBF798FE00280DD123480068002809D006
:109900002148006803681E4802881C4801881A48DC
:109910000088984700E000BF00BF012E0ED11B4811
:10992000006800280AD0194800680068002805D09F
:10993000164800680168034800788847F8BD0000B1
:10994000B42C0020AD2C0020BF2C0020BE2C002009
:10995000AC2C0020A44D0020DE2C0020BC2C0020CC
:10996000BA2C0020F22C0020EA2C0020EC2C002045
:10997000EE2C0020F02C0020022D0020042D0020D1
:10998000062D0020F82C0020102D00200C2D00208A
:10999000F8B504462078912804D0A22841D0D028D8
:1099A00061D13AE060780E2828D12546A8882F4951
:1099B000884217D1A868C07846B22D48007805289B
:1099C0000FD17F2E0DD02B480068002809D02948E0
:1099D00000684068002804D0264800684168304686
:1099E00088470AE0A8882449884206D1A868837875
:1099F0004278017821A004F013F80DE060780F2878
:109A000001D1204608E060783E2805D120468178C3
:109A1000072900D000BF00BF26E02046FFF72EFE3A
:109A200022E02546687913281CD12E460836308856
:109A300001280BD116480078022807D108211548C3
:109A40000078FBF7D7FDFCF7F1FB0AE00520FBF7F8
:109A5000A7FD07463A4608210E480078FBF7C4FDEB
:109A600000BF00BF00E000BF00BFF8BD051400004C
:109A7000AD2C00200C2D0020222000005B48434923
:109A800020444C455D25642025642025640A00009F
:109A9000082D0020AC2C00201CB506480649074BB9
:109AA0000022009101900648017806480078FCF7F2
:109AB000D3FB1CBDB02C0020944D0020844D002011
:109AC000AE2C0020AC2C00207CB504461E4800883B
:109AD0001E490988884211DB1B4800881C490988F7
:109AE00088420BDC1B4800881B490988884205D145
:109AF0001A4800881A490988884223D00520FBF7B4
:109B00004FFD0546114801886846018010480188CC
:109B10006846418010480188684681801048018865
:109B20006846C1800F48027869460F480088FBF7F5
:109B30000FFE0E4804702A4608210A480078FBF7F9
:109B400053FD00BF7CBD0000022D0020FA2C002038
:109B5000FC2C0020042D0020FE2C0020062D0020CF
:109B6000002D0020AC2C0020EA2C0020082D002025
:109B7000F8B506460F46304600F046F80446002C7D
:109B800006D1114800F040F80446002C00D0268091
:109B9000002C17D0002511E0F82068436168085AAE
:109BA000002809D1F821694362685018F822394623
:109BB000FBF7D2FC0020F8BD681CC5B20348007852
:109BC0008542E9DB0920F6E7FFFF0000A82B002013
:109BD00070B50546284600F037F80446002C00D141
:109BE00070BDA068FCE703460A46002108E0880033
:109BF000105A984202D1880080187047481CC1B2A0
:109C00000229F4DB0020F8E70246002109E0C80041
:109C1000064B185A904202D1C800C0187047481C21
:109C2000C1B20129F3DB0020F8E70000A02B0020DF
:109C300070B50546284600F007F80446002C00D110
:109C400070BD2068FCE7000002460648016805E098
:109C50008888904201D18868704709680029F7D147
:109C60000020F9E7AC2B002070B505462846FFF729
:109C7000EBFF0446002C00D170BD6068FCE70000DB
:109C8000F3B581B00C46012C07D0022C29D101215B
:109C90000198FBF763FD002823D10198FFF7B4FF7B
:109CA0000546002D18D000260EE0F82070436968A4
:109CB0000F183888002800D10AE0F8220021384621
:109CC000FBF750FC701CC6B2064800788642ECDBFD
:109CD00000BF0020C043288003490198FCF72AFBFD
:109CE00000BFFEBDA82B0020B22B002070B504469B
:109CF000044D05480088288060882946FBF734FD1C
:109D0000002070BDCE4B0020EE10FF1FF3B585B0D4
:109D1000054628460830049000276888FFF774FF3E
:109D20000646002E35D00020039029E07168F82205
:109D3000039850430C182088002800D125E004988F
:109D40000078012811D160880090237921886888E3
:109D5000621D0290FCF737FD0746002F05D0002159
:109D600004980170218806980180F822002120467D
:109D7000FBF7F8FB002020800398401CC0B2039042
:109D80000849097803988842D0DB00BF0020C0430F
:109D90003080002F02D16888FBF7ECFC384607B012
:109DA000F0BD0000A82B0020F3B585B007463D4666
:109DB0000835384C162200212046FBF7D3FB04A8B7
:109DC00000902B79698828886A1D0390FBF7D8FCDE
:109DD000064648E030480078C01FC0B200212F4A34
:109DE00000920191029078882D4B69460A8A31468B
:109DF000FCF720FB002812D1E8792849097888422D
:109E00000DD126480278264928460830FBF78EFCFB
:109E1000002804D0718920788200A01C81526988B2
:109E200003AB6846028A3046FBF732FC06462078D0
:109E30008100A01C405A002814D0002E09D068468A
:109E400081892278501C20709200A01C101841803B
:109E500008E00021C9432278501C20709200A01C09
:109E60001018418000BF002E04D020780D490988C9
:109E70008842AFDB2078002806DD78882146FBF792
:109E800085FC002007B0F0BD2988069801800A20D3
:109E9000F8E70000CE4B0020EC10FF1FB02B002095
:109EA000D84A0020F410FF1FF8B5054600200090A6
:109EB00028790E2833D00CDC08281ED004DC0228B8
:109EC00010D0062849D112E00A281CD00C2844D111
