:020000041FFFDC
:1008000000000000716FFF1FC87AFF1FEC7AFF1F06
:10081000FC050120000000000000000000000000B6
:1008200000000000000000000000000000000000C8
:1008300000000000000000000000000000000000B8
:1008400000000000000000000000000000000000A8
:100850000000000000000000000000000000000098
:100860000000000000000000000000000000000088
:100870000000000000000000000000000000000078
:100880000000000000000000000000000000000068
:100890000000000000000000000000000000000058
:1008A0000000000000000000000000000000000048
:1008B0000000000000000000000000000000000038
:1008C0000000000000000000000000000000000028
:1008D0000000000000000000000000000000000018
:1008E0000000000000000000000000000000000008
:1008F00000000000000000000000000000000000F8
:1009000000000000000000000000000000000000E7
:1009100000000000000000000000000000000000D7
:1009200000000000000000000000000000000000C7
:1009300000000000000000000000000000000000B7
:1009400000000000000000000000000000000000A7
:100950000000000000000000000000000000000097
:100960000000000000000000000000000000000087
:100970000000000000000000000000000000000077
:100980000000000000000000000000000000000067
:10099000490201207D020120BD74FF1F00000000FC
:1009A0000000000000000000000000000000000047
:1009B0000000000000000000000000000000000037
:1009C0000000000000000000000000000000000027
:1009D0000000000000000000000000000000000017
:1009E0000000000000000000000000000000000007
:1009F00000000000000000000000000000000000F7
:100A000000000000000000000000000000000000E6
:100A100000000000000000000000000000000000D6
:100A200000000000000000000000000000000000C6
:100A300000000000000000000000000000000000B6
:100A400000000000000000000000000000000000A6
:100A50000000000000000000000000000000000096
:100A60000000000000000000000000000000000086
:100A70000000000000000000000000000000000076
:100A80000000000000000000000000000000000066
:100A90000000000000000000000000000000000056
:100AA0000000000000000000000000000000000046
:100AB0000000000000000000000000000000000036
:100AC0000000000000000000000000000000000026
:100AD0000000000000000000000000000000000016
:100AE0000000000000000000000000000000000006
:100AF00000000000000000000000000000000000F6
:100B000000000000000000000000000000000000E5
:100B100000000000000000000000000000000000D5
:100B200000000000000000000000000000000000C5
:100B300000000000000000000000000000000000B5
:100B400000000000000000000000000000000000A5
:100B50000000000000000000000000000000000095
:100B60000000000000000000000000000000000085
:100B70001D6CFF1F000000000000000000000000CE
:100B80000000000000000000000000000000000065
:100B90000000000000000000000000000000000055
:100BA0000000000000000000000000000000000045
:100BB0000000000000000000000000000000000035
:100BC00021010120000000000000000000000000E2
:100BD0000000000000000000000000000000000015
:100BE0000000000000000000000000000000000005
:100BF00000000000000000000000000000000000F5
:0C0C000001FF01FF01FF01FF41000000A7
:020000041FFFDC
:10480000301B0120D548FF1FDD48FF1FDF48FF1F79
:104810000000000000000000000000000000000098
:10482000000000000000000000000000E148FF1F41
:104830000000000000000000E348FF1FE548FF1FE4
:104840000000000000000000000000000000000068
:104850000000000000000000000000000000000058
:104860000000000000000000000000000000000048
:104870000000000000000000000000000000000038
:104880000000000000000000000000000000000028
:104890000000000000000000000000000000000018
:1048A0000000000000000000000000000000000008
:1048B00000000000000000000000000000000000F8
:1048C0000348854600F038F800480047056FFF1F91
:1048D000301B01200448804704480047FEE7FEE7FC
:1048E000FEE7FEE7FEE7FEE76D5BFF1FC148FF1F27
:1048F00003460B439B0703D009E008C9121F08C0F9
:10490000042AFAD203E00B780370401C491C521EA3
:10491000F9D27047D2B201E00270401C491EFBD2AE
:1049200070470022F6E710B513460A4604461946BA
:10493000FFF7F0FF204610BD064C0125064E05E0AE
:10494000E36807CC2B430C3C98471034B442F7D3B0
:10495000FFF7BAFF247BFF1F747BFF1F70B58C1815
:104960000578401C6B075B0F01D10378401C2A11AE
:1049700006D10278401C03E006780E70401C491CEA
:104980005B1EF9D12B0705D40023521E0DD40B70EA
:10499000491CFAE70378401CCB1A921C03E01D78EF
:1049A0000D70491C5B1C521EF9D5A142D8D30020C2
:1049B00070BD000003B40148019001BDC13C01007D
:1049C00003B40148019001BD7181000003B40148A6
:1049D000019001BD3914000003B40148019001BDEC
:1049E0001117000003B40148019001BDED3C010026
:1049F00003B40148019001BDF13E010003B4014838
:104A0000019001BD1B3D010003B40148019001BDAF
:104A10007114000003B40148019001BDC1310000D0
:104A200003B40148019001BDB142010003B4014843
:104A3000019001BDC912000003B40148019001BDFD
:104A40003D42010003B40148019001BD5D19000021
:104A500003B40148019001BD593A010003B4014873
:104A6000019001BDD542010003B40148019001BD90
:104A70003518000003B40148019001BDC1180000C1
:104A800003B40148019001BD3515000003B401488D
:104A9000019001BD4117000003B40148019001BD20
:104AA000E915000003B40148019001BD897B0000B5
:104AB00003B40148019001BDD520000003B40148B2
:104AC000019001BDA5E5000003B40148019001BDBE
:104AD000C91F000003B40148019001BDB51E0000CC
:104AE00003B40148019001BD3D1C000003B401481E
:104AF000019001BD0D1D000003B40148019001BDEE
:104B00008306000003B40148019001BD0143010088
:104B100003B40148019001BDE120000003B4014845
:104B2000019001BDED3A010003B40148019001BDBF
:104B3000295E000003B40148019001BD2D6400000E
:104B400003B40148019001BD7D3A010003B401485E
:104B5000019001BD913F010003B40148019001BDE6
:104B6000A942010003B40148019001BDAD5D000000
:104B700003B40148019001BDE15D000003B40148A8
:104B8000019001BDD136000003B40148019001BD80
:104B9000BD07000003B40148019001BD891C00005D
:104BA00003B40148019001BDA53C010003B40148D4
:104BB000019001BDE907000003B40148019001BD67
:104BC0006D07000003B40148019001BDFD0E000017
:104BD00003B40148019001BD2D0E000003B401484B
:104BE000019001BD3D07000003B40148019001BDE3
:104BF000211A000003B40148019001BD050E000018
:104C000003B40148019001BD8922000003B40148AA
:104C1000019001BD6902000003B40148019001BD8B
:104C2000610E000003B40148019001BD9D0E00001B
:104C300003B40148019001BDD50E000003B4014842
:104C4000019001BD610F000003B40148019001BD56
:104C5000E58D000003B40148019001BD49770100D2
:104C600003B40148019001BD8D3C010003B401482B
:104C7000019001BDE55B000003B40148019001BD56
:104C8000E129000003B40148019001BD99370000FB
:104C900003B40148019001BD5114000003B4014860
:104CA000019001BD091F000003B40148019001BD3E
:104CB000A579000003B40148019001BDED2F00006B
:104CC00003B40148019001BD615D000003B40148D7
:104CD000019001BD615E000003B40148019001BD77
:104CE000915D000003B40148019001BD4D3000000A
:104CF00003B40148019001BD01E6000010B5034A6C
:104D00001321034800F076FC10BD0000A87AFF1FB5
:104D10004004012010B500241346002802D00224CC
:104D2000204610BD0A4619460148FFF743FEF7E743
:104D30003704012070B50C460146032000020A1A10
:104D4000002534481300FFF73BFE1D1012151C1FF1
:104D50002326282C303234383A3C3E4042444648E0
:104D60004A4E50525A5456585A00C07911E01022F7
:104D7000294902E02849102210312046FFF71AFE87
:104D800045E0C06A206042E0224906223C31F4E757
:104D9000007820703BE0808936E01E49427842313D
:104DA000EBE71D4982781F39E7E7007AF1E7407A9F
:104DB000EFE7184906223031DFE7807AE9E7C07A69
:104DC000E7E7C08920E0808A1EE0C0781CE0C08A46
:104DD0001AE0008B18E0408B16E0808B14E00D4940
:104DE00006223631C9E7C08B0EE0008C0CE0408C07
:104DF0000AE08079CDE7008A06E0408A04E02729AE
:104E000004D20846FFF7E2FD208000E00225284694
:104E100070BD0000A40801208514012070B50E4C5F
:104E200000256071A571691EE181FFF7D5FD0420A1
:104E3000E071102200210948FFF7D4FD0748102235
:104E400000211030FFF7CEFDE5622572657201206A
:104E5000A072E57270BD0000A40801208514012035
:104E60003EB5344D0C4608040CD56879FFF7C0FDFB
:104E7000050004D001F0D8F82846FFF7BFFD012057
:104E8000C00352E0600403D50120800348403EBDCA
:104E90002848E107807929D02978002920D00528E1
:104EA00020D0297A68460170697A4170214906222A
:104EB0003031801CFFF77EFDA97A68460172E97ADD
:104EC000417269466879FFF79FFD002808D00720E6
:104ED000A871696A002903D00968002900D08847B1
:104EE000012022E0032069460870E5E7A1070DD5FF
:104EF000052809D1E889FFF78DFDAA8A002A03D089
:104F000002216879FFF78CFD02200EE0600704D5CE
:104F1000002001F0C9F8042007E0200707D5287910
:104F2000022801D100F02EF9082060403EBD00208B
:104F30003EBD0000A4080120F7B50D468049009849
:104F4000164642187F4F00247879B9791300FFF78D
:104F500037FD190E141BE92040455970777E888F64
:104F6000E996A2A9B4BFC8E9E9E9E9D3E900102D9F
:104F700076D11022314674486FE0102D70D17248FE
:104F800010223146103068E0042D69D13068F86293
:104F9000CEE0012D64D13B7832783A70002B0AD0F4
:104FA000002A07D1022903D0062901D0042901D102
:104FB000FFF73CFDBCE0002A0AD0012905D00329F7
:104FC00003D0052901D0042902D10121FFF734FDC6
:104FD000AEE0022D44D13088B881A9E01F2D3FD822
:104FE00058481F2200214230FFF7FCFC55482A4652
:104FF00031464230FFF7DEFC524B7D7042332A4689
:10500000012112E01F2D7CD84F481F2200211F389C
:10501000FFF7E8FC4C482A4631461F38FFF7CAFC28
:10502000494B2A461F3BBD7000217879FFF70AFDE6
:1050300083E0012D65D13078042862D8387277E09A
:10504000012D5ED1307803285BD8787270E0062D90
:1050500057D13C48062231463030FFF7ABFC67E0C1
:105060004FE0012D4DD1307807284AD8B8725FE063
:10507000012D46D13078032843D8F87258E0022D2C
:105080003FD13288BA82002A52D0052950D102215C
:10509000FFF7C6FC4CE0012D33D13078012830D821
:1050A000F87045E03088022D2BD1062829D319212C
:1050B000C901884225D8F8823AE03088022D20D1F3
:1050C00006281ED31921C90188421AD838832FE037
:1050D0003088022D15D1FF21F531884211D2788315
:1050E00026E03088022D0CD10A280AD31921C901E3
:1050F000884206D8B8831BE03178012D01D10129FF
:1051000001D0182414E00821FFF7A2FC002801D0E8
:1051100016240DE0002000F0C7FF04217879FFF786
:105120009DFC05E00098272801D2022D02D0022420
:105130002046FEBD3188FFF797FC0446F8E70000E3
:10514000FFFCFFFFA4080120851401201CB50B4CB7
:10515000A179002901D011201CBD002800D0606277
:10516000064907482C31034601910090103B00226C
:10517000E179607900F016F800201CBDA408012038
:105180009514012010B506488179052901D0122017
:1051900010BDC18913224079FFF76CFC10BD0000DF
:1051A000A4080120F8B51D460224069F079E0B00A7
:1051B000FFF706FC0511041111041100FFF760FC54
:1051C000040008D1324639462846FFF75FFCFFF756
:1051D00063FCFFF767FC2046F8BD0000014610B5F0
:1051E0000020C90704D0034A0421034800F002FA52
:1051F00010BD0000187BFF1F6008012010B50023C0
:1052000009E01C012418E468944202D1190108182D
:1052100010BD5B1C9BB28B42F3D3002010BD00007D
:1052200070B50F4D0F4CA87029461031204600F084
:105230001DF8002128460B460830CA008452121877
:10524000491C09065360090EF7D0012001F024FB28
:10525000A878FFF72DFC0448FFF730FC70BD000074
:1052600048080120FFFF00007561FF1F70B50A4C60
:105270000025A04209D1002082008C525218401C07
:10528000C0B295700228F7D370BD00F042FF00282D
:10529000FAD00480857070BDFFFF0000F8B50E469F
:1052A0000746069900240798002902D00B242046BF
:1052B000F8BD022B01D00D24F9E7117852781202C3
:1052C00089188DB22946814301D08024EFE7384602
:1052D000F16800F087F9A842E9D02A463846F1681B
:1052E00000F0D6F90446E2E7FFB506460020C3B059
:1052F000234F05460490A80084192088B84238D06E
:10530000A078002835D0449A4C994698FFF776FF4C
:10531000039000282DD01B4805A900780231C01E3B
:10532000C0B20091029000224698019242894B1C23
:105330002088039900F044F800281AD103986946A0
:1053400040898882A078C00707D0208805A9459A9F
:10535000FFF7BAFB049908430490A078800708D5AA
:10536000208805A94D9B459AFFF7B4FB0499084393
:1053700004906D1CEDB2022DBDD3049847B0F0BD72
:10538000FFFF0000EC10FF1F70B50C46080412D59B
:105390000A488078FFF72CFB050008D02878B02851
:1053A00002D1284600F0A4FF2846FFF727FB012082
:1053B000C003604070BD002070BD0000480801209F
:1053C000FFB587B0087A0025109E1C460F46C00620
:1053D0000DD5099800F096FE030006D00A22394642
:1053E00007989847050035D101E00E2532E038785E
:1053F00002281DD178682922017840781202000223
:10540000081880B2811A90427ED009DC7249401A95
:1054100023D0012821D0022851D0032808D125E02B
:10542000012972D0022971D003296DD004296ED0D0
:10543000099800F08FFE0028D7D00568002DD4D041
:1054400012991198019100903346224639460798E7
:10545000A847054628460BB0F0BD1198002873D127
:10546000F868017831700278416897E01198002857
:105470006AD101203070F8680021007820707889A6
:10548000401C80B2FFF72CFB00280FD03178027847
:105490008918891C3170817A61704189090AA1706B
:1054A00002784168E01CFFF785FAD3E730780422E0
:1054B000001D30700021601CFFF794FACAE71198B4
:1054C000002872D1F86804A9008800900420307088
:1054D000009820700098000A60700098FFF700FBA9
:1054E000070028D0F86805906846028A03AB3B495C
:1054F0003846FFF7FBFA00280FD13B7802213848E5
:105500007A68FFF7F9FA03E027E031E01DE049E0AF
:10551000002802D131486946888105980078022820
:105520000CD1059802224168201DFFF743FA30781C
:10553000801C307002E06946009888816846808946
:10554000A070000AE07085E72FE0119800282CD1A8
:10555000F968079800F046F804E01198002824D173
:10556000F8680088022131702070000A607071E7CD
:10557000F868FFF7C7FA1199C0B2814210D881428A
:1055800001D1002206E0129A8918814202D31199B2
:10559000401AC2B23270F96811980918204682E7A1
:1055A000072557E71198002801D00B2552E707215E
:1055B000F868317001782170417861708178A1704C
:1055C0004188090AE1700179217181796171C0888E
:1055D000000AA0713EE7000000280000FFFF000065
:1055E0001E7C010010B500F094FD002800D08078EA
:1055F00010BD00007CB51446050019D06846019521
:105600000180FFF785FA03001DD1002C1BD06D89A6
:10561000002D0DD00C20FFF781FA00280AD00023BE
:1056200003608580094A84605168002904D006E03F
:10563000022308E0132306E0506004E011460A68E4
:10564000002AFBD1086018467CBD000048080120F4
:10565000FFB583B008461E4601A90C9FFFF740FA2C
:10566000050012D06846808800F074FD00280AD03A
:105670004468002C07D00097F3B22946059A039896
:10568000A04707B0F0BD0E20FBE70120F9E70000BE
:1056900070B514460E46054600F03BFD002806D1C5
:1056A0003146054800F035FD002803D005808470A0
:1056B000002070BD112070BDFFFF0000014610B535
:1056C0000020C90704D0034A07210348FFF792FFCF
:1056D00010BD0000BC7AFF1F8805012070B50D4683
:1056E000164600241D490300FFF76AF90805123425
:1056F000341934222934152D23D8162200211848B4
:10570000FFF770F92A4631461548FFF753F922E0B2
:10571000022D16D111491088103908801BE0082D80
:105720000FD10E48082231460838FFF7E1F812E0A1
:10573000012D06D1CA6909493078283107E0012DC9
:1057400001D0182407E0CA6B04493078483101F0D1
:1057500058F900E00224204670BD000088050120B1
:10576000201101208307FF22DB0E9A408907090ED2
:105770009940002808DB830809489B001B1818681B
:1057800090430843186070470007000F08388308EB
:1057900004489B001B18D86990430843D8617047A0
:1057A00000E400E000ED00E070B5604C8CB0607289
:1057B00001F08EFC5E48FFF7B7F906211F20FFF7C6
:1057C00053F9012168460172017307210174002514
:1057D000858218218183192149010184FF21858453
:1057E000F531018553A003C8009054480191017818
:1057F0006846017606AA01215148FFF79DFB5048F3
:105800006A460621801CFFF797FBC32004AA0121EA
:105810008000FFF791FB4A4802AA0121001FFFF711
:105820008BFB474805AA0221C01EFFF785FB2246D5
:10583000612030321C21C000FFF77EFB4048224629
:105840004C321E21801EFFF777FB312003AA012175
:105850000001FFF771FB3A4807AA02210830FFF761
:105860006BFB374808AA02210930FFF765FB344873
:1058700009AA02210A30FFF75FFBC5200AAA02210C
:105880008000FFF759FB22466A3215210020FFF7FE
:1058900025FF1926B60131460620FFF7E5F8314607
:1058A0000720FFF7E1F831460820FFF7DDF8314621
:1058B0000920FFF7D9F86E1E3046FFF7FFFE30468D
:1058C000FFF78CFCFFF71AFA304600F0C9F81DA06C
:1058D0000FC86E460FC61F49684601821E49818364
:1058E0000F21017505766A461021002000F002F9AB
:1058F00004AA0221012000F0FDF8022107AA0846AF
:1059000000F0F8F805AA0121032000F0F3F806AA38
:105910000121042000F0EEF82046103000F0E4F8F9
:105920000121607AFFF788F80CB070BD00060120F5
:105930001D77FF1F01020304050600002C0401204F
:1059400009030000FDA50693A4E24FB1AFCFC6EB5B
:105950000764782574270000ED6B0000FEB53D4D0F
:105960000C4608040AD5687AFFF742F8002801D0EF
:10597000FFF744F801212046C90367E0E00701264C
:1059800000280BD033481430FFF7E0FB324A0221E5
:10599000687AFFF745F820467040FEBD200709D51C
:1059A000684606706A4601212C48FFF7C5FA0820B0
:1059B0006040FEBD600602D50846402146E0A007D3
:1059C00046D5244E00271C362AE0A889010A3170EA
:1059D0007070002F18D1214869461130FFF7AAF9DD
:1059E0001E4801A91230FFF7A5F968460188080A88
:1059F000B073F17368468088307402A90020FFF705
:105A000099F86846007A7074124A14211C320520F5
:105A100001F072FF002806D1A889401CA8817F1CD4
:105A200068788742D1DB6A89002A07D0A8780028E5
:105A30000AD10221687AFEF7F3FF05E00221687AB5
:105A4000FFF70CF80020A881204602214840FEBD47
:105A50000020FEBD000601208813000005030000A1
:105A600070B50546002409490948FFF7FFFB0948BE
:105A7000FFF724F8E80706D00448074A18210A303F
:105A8000FFF7B8FD0446204670BD000096060120D1
:105A9000FFFF0000C978FF1F047BFF1F70B50C4695
:105AA000014600250E480B00FEF78AFF0504070992
:105AB0000C0F160010220B490AE0408800E0808895
:105AC00020800AE00078207007E006491422103197
:105AD0002046FEF76FFF00E00225284670BD00005B
:105AE0008806012045110120002801D000207047C0
:105AF0001120704770B5154602460024194813005E
:105B0000FEF75EFF05040A131C212C00102923D880
:105B10000A46294614481CE002291DD169782A78D2
:105B20000902114349BA418019E0022914D1697868
:105B30002A780902114349BA818010E001290BD16A
:105B4000297801700BE0142906D807480A4629462F
:105B50001030FEF72FFF02E0182400E00224204658
:105B600070BD00008806012045110120024901484E
:105B70000860704740787D011009012002E008C8E4
:105B8000121F08C1002AFAD170477047002001E0B7
:105B900001C1121F002AFBD1704710B5FEF7D0FFDC
:105BA0000120FEF7D3FFFEF7D7FF002010BDF0B5B0
:105BB00000248E464A1E12E0714600230D1B6D1E06
:105BC0000AE09E0031188C46875949688F4202D9F5
:105BD000815161464F605B1C9D42F2D8641C944227
:105BE000EAD3F0BD10B586B0044614220FA1684672
:105BF000FEF77EFE1249302008707820487006209B
:105C0000891C6A46A41D641E2378401E1B09D35CB0
:105C10000B70237800061B071B0FD35C4B70891C8D
:105C2000000EF0D10870064806B010BD3031323396
:105C30003435363738394142434445460000000088
:105C4000361101203EB5002469462046FEF78AFF42
:105C5000641CE4B2252CF7D3FEF78AFF3EBD00009A
:105C600010B50020054CFF212218401C517040281F
:105C7000FADB01F0C9FA207010BD0000E81601201F
:105C800010B50020054CFF212218401C5170062839
:105C9000FADB01F0D7FA207010BD000019090120CD
:105CA000F0B58646080CFF268446002388B23746A6
:105CB0001C46194601228A4005461540CD402C1944
:105CC000A4B2FF2F02D1012C00D18FB265462A4029
:105CD000CA40D21893B2FF2E02D1012B00D18EB24E
:105CE000491C1029E6DB012C02D0102C08D009E059
:105CF000012B07D13001C019714608700220F0BD98
:105D0000102B01D00320F0BD0120F0BDF8B549688B
:105D100094460A784978069C090251188EB2444A82
:105D2000112100250798B71A091B964243D009DCB8
:105D3000404AB21813D0012A1CD0022A25D0032AC7
:105D400008D12EE0012F40D0022F48D0032F50D091
:105D5000292F5AD0002018700A252846F8BD082C93
:105D600055D20821091B814200D80846C2B21A70D8
:105D7000314857E00C2C4AD20C21091B814200D833
:105D80000846C2B21A702D484CE00D2C3FD20D21AE
:105D9000091B814200D80846C2B228481A700D304B
:105DA00040E0112C33D2814200D80846C2B22348C9
:105DB0001A701B3036E0112C29D2814200D80846D7
:105DC000C2B21E481A702D302CE0112C1FD2814215
:105DD00000D80846C2B219481A703F3022E0112C90
:105DE00015D2814200D80846C2B214481A70513008
:105DF00018E00E2C0BD20E21091B814200D8084658
:105E0000C2B20E481A7063300CE0072C01D307258C
:105E1000A3E70721091B814200D80846C2B2064801
:105E20001A70C01F01196046FEF7C4FD95E7000017
:105E3000272A0000DDD5FFFF37040120347AFF1F39
:105E4000F8B5774C87780146002507266079A27956
:105E50003B00FEF7B5FD0805361A37375F94C736A5
:105E6000487800285CD16E4806223C30C91CFEF7F9
:105E7000A1FD0120A0716A4B01464233627860792E
:105E8000FEF7E0FD00284BD1A2E00F46497800293B
:105E900046D1F978002906D0624BA2780021FEF79E
:105EA000D1FD78700AE0022A0BD00121FEF7D0FD67
:105EB000002803D101216079FEF7BEFD7878002823
:105EC0002ED1F8BD497800292AD1032F09D0A28903
:105ED000002A0CD0217800290AD00121FEF7A0FD6C
:105EE00006E0052A01D0022012E0062010E025700D
:105EF000A079062802D0042802D008E0052007E097
:105F00000120207001466079FEF796FD60E00320D5
:105F1000A0715DE048780F46002803D031282CD0CE
:105F2000A67155E03E480622391D3630FEF742FD87
:105F30007889E081B8892082F88960820520A07183
:105F4000A28A002A03D002216079FEF769FDB88990
:105F5000E083F8892084388A6084E07801280AD1B7
:105F60001F20FEF733FD7D21C9004843024604216E
:105F70006079FEF755FD25702AE02570C7E72848AF
:105F80000E46062200213630FEF72CFDE5832584DF
:105F9000658404216079FEF761FD08216079FEF7D0
:105FA0005DFDB079082808D00320A0712078002872
:105FB00005D06079FEF73AFD07E00420F5E70120FF
:105FC000207001466079FEF737FD0020C043E08174
:105FD000606A002800D174E701680029FBD0A0792D
:105FE0008847F8BD0D460821FEF738FD6878294638
:105FF0000028F6D1E888E0832889208448896084D5
:1060000004216079FEF724FD0028EAD1A06A002867
:10601000E7D00368628C218CE08B9847F8BD0000C4
:10602000A40801206614012010B501781C4C9129A8
:1060300006D0A2291BD0D02901D1FFF701FF10BD46
:1060400041780E29FBD18188164A9142F7D18168A7
:1060500003200856A1790529F1D17F28EFD0616A84
:106060000029ECD049680029E9D0884710BD417962
:106070001329FBD10089012802D12079022808D0F8
:106080000520FEF7A3FC024608216079FEF7C8FC54
:1060900010BD08216079FEF7E1FCFFF773F810BD31
:1060A000A4080120051400007CB5154C0546E08BC2
:1060B000E18A88420AD3218B884207D8208C618BE1
:1060C000884203D1608CA18B884217D00520FEF74F
:1060D0007DFC0646E18A68460180218B4180618B08
:1060E0008180A18BC18062796946E089FEF746FD17
:1060F0002571324608216079FEF792FC7CBD0000D4
:10610000A408012010B500F025F8002800D0806810
:1061100010BD00229300CB5A834202D19000401858
:106120007047521CD2B2022AF4D3002070470000FC
:10613000074A0021CB00D35A834202D1C8008018FD
:106140007047491C0906090EF4D000207047000072
:10615000500801200649496805E08A88824201D139
:106160008868704709680029F7D10020704700004F
:106170004808012070470000F3B5064683B0083098
:106180000190002000907088FFF7D2FF07002FD009
:10619000002523E0F820796868430C18218800293D
:1061A00020D00198007801280FD1608800902379D1
:1061B0007088621DFFF74CFA0090002805D0019905
:1061C00000200870049821880180F82200212046D0
:1061D000FEF708FC00206D1C2080EDB207484078D7
:1061E0008542D7D30020C04338800098002802D1D0
:1061F0007088FEF7C9FC009805B0F0BD4808012082
:10620000F3B50546364C064685B008351622002102
:106210002046FEF7E7FB03A800902B7969882888C1
:106220006A1DFEF7B7FC074644E02E482E49007869
:106230000022C01FC0B2009101920290284B694613
:106240008A897088F63B3946FFF7BAF8002812D1E0
:106250002548E979C01EC27891420CD120492846D0
:10626000F6390830FEF79CFC002804D021787889A4
:1062700089000919488068468289698804AB3846D4
:10628000FEF734FC07462078810009194A88002A65
:1062900010D0002F05D06A46128A401C20708A80D8
:1062A0000AE002060021920DC9431219401C207019
:1062B000918006E0002F04D00C48217800888142AC
:1062C000B3D32078002806D070882146FEF76EFCF4
:1062D000002007B0F0BD0698298801800A20F8E761
:1062E0006C130120EC10FF1F4B080120F410FF1F5E
:1062F000F0B585B0044600276846878120790E28CE
:1063000067D00EDC082822D004DC022812D0062830
:1063100017D117E0254608350A281DD00C287FD153
:1063200037E010285AD012285DD0162860D01828DF
:1063300076D162E03E483D49008808806088FEF7DB
:106340003BFC6DE003A92046FFF75AFF59E003A983
:10635000204600F06DF954E0288804A9FEF7C0FB40
:10636000010014D03348314E00780197401EC0B26E
:10637000009602906A466088731C128AFFF720F824
:1063800000281DD160883146FEF71CFC48E0012042
:1063900016E0288804A9FEF7A3FB0100F7D02548E2
:1063A0006A880078214E401EC0B201920096029089
:1063B0006A466088128A731CFFF702F8002803D02F
:1063C00029886A4691811CE060883146FEF700FC0E
:1063D00026E003A9204600F0BFF912E003A92046F9
:1063E00000F07AF80DE003A9204600F017FA08E063
:1063F00003A9204600F020F803E003A92046FFF798
:10640000BBFE00280CD06178142909D007492279F5
:106410000A706A4692894A8008716088FEF7DEFB3E
:106420002046FEF7E1FB05B0F0BD00006C13012033
:10643000EE10FF1FEC10FF1FF8B504460F4605468F
:10644000083400896946FEF74BFB06003AD0307AE3
:1064500080060ED568460088FFF754FE030006D07C
:106460006888122231469847060002D02BE00E269B
:1064700029E06E883046FFF75BFE010005D1144825
:10648000FFF756FE01000ED00E80124A002052780F
:1064900007E0F8264B6846439B5B002B05D0401C69
:1064A000C0B29042F5D309260DE04968F822504366
:1064B00008182146FEF77EFA002668882146FEF776
:1064C00099FB02E00126208838803046F8BD0000A4
:1064D000FFFF000048080120F3B58BB000200B9EA1
:1064E0000746039004A800903246337B71893089B7
:1064F0004C4C0D320836FEF74DFB054678E00B9804
:10650000297A4088FEF77CFB070003D00C98698944
:1065100001806FE04448002100780191801FC0B2E3
:10652000424A029000920B983E4B69460A8A408884
:10653000F63B2946FEF744FF0700E7D10398002801
:1065400034D03A486278C01EC178081D824254D1C6
:106550000398411834480088801F81424DDC03981D
:10656000A97A2018817003986989401CC0B222184A
:10657000090A401C9170C0B203906846028A718873
:1065800007AB2846FEF7B2FA050015D06946888B9E
:1065900003996118887003986946401C898BC0B2C2
:1065A000090A2218401C9170C0B210E01F48C01E9A
:1065B000C078001D6070D2E70399FF2061188870D1
:1065C0000399491CC9B262189070491CC8B2174996
:1065D0000390C91ECA7813492018F639801CFEF7AB
:1065E000E9F912490398C91EC9784018C0B203904E
:1065F000002D84D1039800280CD061780398FEF711
:1066000005FB20700B9821464088FEF705FB002013
:106610000DB0F0BD002F00D10A270C9930880880FA
:106620003846F5E76C130120EC10FF1F4B080120E2
:10663000F3B587B0079F00243889434D26460837B5
:10664000059064E003A800903B7979887A1D05984D
:10665000FEF7A0FA049000284DD0408905900498D8
:10666000017A07984088FEF7CBFA060054D13748E4
:1066700000210078364A001FC0B2019102900092BA
:106680000798314B69468A894088F63B0499FEF7A2
:1066900097FE060040D1002C30D02D486978C01EEE
:1066A000C078801C814239D1294BDB1ED878211853
:1066B00026480088001F81421DDC04982919807A31
:1066C0008870641CE0B204992A184989401C090AA0
:1066D00091701946CA78C4B21B492819F639801C32
:1066E000FEF768F91A481B49C01EC0782018C4B2CA
:1066F0000598884208D1002C10D11EE01448C01E15
:10670000C078801C6870CFE7401C80B205900F48AD
:106710000088001F844295DD002C0CD0697820464B
:10672000FEF774FA2870079829464088FEF77AFA2F
:10673000002009B0F0BD002E00D10A260898059966
:1067400001803046F5E700006C130120EC10FF1FBC
:106750004B080120FFFF0000F3B585B000272C4C4B
:10676000059E27703D46083641E06800305A03A96F
:10677000FEF7B6F9010017D02648274B00780093A2
:10678000401EC0B20022019202900598204B6A463A
:106790004088F63B9289FEF713FE070006D068009A
:1067A000315A0698018030E00127F8E71A4821782D
:1067B000C01EC0780A1817480088431E9A4204DD9C
:1067C000401A1549C91E401EC8702178601C08185F
:1067D0001149C91ECA780E49F639FEF7EBF80E4882
:1067E0002178C01EC07808186D1C2070EDB2B07DF5
:1067F000A84205D9074821780088401E8142B4DBB1
:10680000059821464088FEF713FA384607B0F0BDD8
:106810006C130120EC10FF1F4B080120F3B5054657
:1068200083B004460835008901A9FEF759F92746C7
:10683000E8370646002822D0307A80060ED5684612
:106840008088FFF75FFC030006D060881222314683
:106850009847060002D013E00E2611E000200090B9
:10686000AB7829886088EA1CFEF7F2FE060007D1A3
:10687000387E002807D16088FEF7E0F903E00126A2
:10688000049829880180387E002802D0002005B0B5
:10689000F0BD3046FBE70000F8B504460246F8209C
:1068A0004243194800250746457008377868002894
:1068B00007D00020C100C919401C00064D60000E21
:1068C000F8D0124E00213046FEF78CF80020014629
:1068D0006143C9B2F82251438B190B49C2000831F8
:1068E00052180021536005E0F8274F435368491CB4
:1068F000DD53C9B2A142F7D3401C0006000EE6D01A
:10690000014844700020F8BD480801207E11012094
:106910007CB50C78069D022C0ED14C6826786478E4
:1069200024023419054EA4B2F44205D10224009584
:106930000194FEF7B3FC7CBD01207CBDFED6FFFFB9
:10694000F8B5069800271D4614460E46002801D0CB
:106950000B20F8BD30780021022801D019704DE0DD
:1069600070680278407800021018152280B2520236
:10697000801A0300FEF724F80504121F1A254100AF
:10698000F068FEF7BFF8C2B20798824200D902460B
:106990002A70F1682046FEF70DF830E0F068022119
:1069A000008829702070000A607028E00620287096
:1069B0000246F168EEE701202870F0680078207048
:1069C0001DE0F068002816D0082129700178217098
:1069D0000188090A61708178A1704188090AE17013
:1069E000017921718188090A61718179A171C08859
:1069F000000AE07103E0297001E0297001273846A0
:106A0000F8BD10B50B78840702D50224234301E0BA
:106A1000FD2423400B7003070B7802D50824234381
:106A200001E0F72423400B7083060B7802D5202465
:106A3000234301E0DF2423400B700A21084201D1E7
:106A4000810603D510780C21084304E0002803D107
:106A50001078F3210840107010BD0000FFB581B020
:106A6000087800240A9E1F460D4602280FD1686848
:106A70000178407800020818152180B24902401AB6
:106A800009D0012829D0022848D003283CD001246D
:106A9000204605B0F0BDE868FEF734F8C0B2864283
:106AA00005D8F0190090152803D90D24F0E7072424
:106AB000EEE7E8683A4680190399FDF77BFF0098F6
:106AC000EA6880B2002111541C4840680028DFD0D9
:106AD00001680029DCD0002012E0002E12D1022B28
:106AE000E3D10399E8680A784978090251180180CE
:106AF000124840680028CBD001680029C8D0012086
:106B00008847C5E70B24C3E7002EFBD1062BCCD169
:106B10000622E8680399FDF74DFFB9E7002EF1D191
:106B2000012BC2D103980078002803D0012801D09E
:106B30008024ADE7E9680870AAE700007805012025
:106B400010B516490A20087015490120087015492A
:106B50000020087000F030F813480421C161134987
:106B60008160C16001611249416101210A2019F06F
:106B7000E3FA0D480D230F221221143019F044FCC2
:106B800000210420FEF7EEFD01210220FEF7EAFDC0
:106B9000084A0021202019F039FB10BDE112FF1F27
:106BA000E212FF1F0013FF1F00F00040B66DDB363E
:106BB000B6EDC3B00977FF1F70B515480022006815
:106BC0000424866B1025134813493300FDF7F8FEA3
:106BD000070808050C0E1308050005600C600DE0A1
:106BE00020220260052004E0302305E040220260FC
:106BF0000620086002E0602303600A60FEF724F8C4
:106C0000FEF728F800F05AFC00F03CFB70BD0000D5
:106C1000140901202010FF1F2410FF1F0020401C1A
:106C20001028FCDBFEE70000F8B56B4A69496C4BA5
:106C30006A481160D861002084000023401C0B5179
:106C4000FF28F9DD1068FF2201468031654B6F3265
:106C50008B600A250565C262634A13788363634BC0
:106C6000C3611378022B06D01378032B05D0137859
:106C7000042B04D005E0102302E0142300E01823C5
:106C800003625B4B4361594B3424963383613C234D
:106C9000CB603623C363082344643A2603644E6002
:106CA00031260E603B26CE634626CE640F4639263B
:106CB000403758C732260E6502260E661E274F66DD
:106CC0004226543158C1CC608B6005240E614C6162
:106CD0005A2460390C614B613C248C61AF24E40080
:106CE00004601478022C06D01478032C05D0147894
:106CF000042C05D005E0102400E00924446000E0E5
:106D00004360FF242D3484601926760106616400F7
:106D1000C460384E7D278664FF00CF674762364ED9
:106D2000C664364F87627327C76506274765876540
:106D3000C31D0827F9331F600227476684660924AC
:106D4000C4662F4C046708244467FF242D348467ED
:106D50002C4CC4672C4806601078022806D01078A6
:106D6000032807D01078042808D00AE01220C86150
:106D7000192001E00C20CD61086202E008200D62BC
:106D8000C8611C4888627D20C00088676420486212
:106D900005200F63C862C82048630020886338203C
:106DA0005860AF21C9001948996118644B201962D5
:106DB000C000D8617D2000015862164914488860DF
:106DC0001449154880318862FEF74AFFFEF758FFE4
:106DD000F8BD0000000CFF1F14090120000CFF1F6C
:106DE0000010FF1F301B0120E312FF1F46050000AB
:106DF00060E3160050C30000740E00006A18000023
:106E0000204E0000881300009412FF1F0040001164
:106E10001D6EFF1F0009FF1F8572FF1F70B52B48F5
:106E20000068012803D12A48816F491C81672A48DC
:106E3000284941610121C1600160284A506BC1B2FB
:106E400027480078002817D126480023C356002B76
:106E5000254BC35606DB1B040024045720021818D8
:106E6000401808E0FF331B040024045720021818C0
:106E70001E4B4018C0185063022901D2022102E0C3
:106E8000502900D950211A48027814481430022A97
:106E900011D0184A1478184B1D78AC4214D91478C4
:106EA0001B78E31A891E49104B4311784901C91A0E
:106EB00010314B1103E0114A1478114BECE700221A
:106EC000072119F0A1FA70BD1378F8E75812FF1FD7
:106ED000D03BFF1FFF3F0000001003408000034035
:106EE0005312FF1F0013FF1F00000000FFFE0000F1
:106EF000E212FF1FDD12FF1FDE12FF1FDF12FF1F56
:106F0000E012FF1F70B5164D02202870154C0026A8
:106F1000667081021448FDF7A3FEFFF785FE19F0A5
:106F20005BF9FFF70DFE287819F006FA607819F082
:106F3000BDF9092019F036F90E2019F017F90B499F
:106F4000002804D0032020704B20C00002E02670EF
:106F5000AF20C00009680860FEF71FFE002070BD6A
:106F6000E312FF1F2C040120200901201409012035
:106F700070B500241220FDF7D1FD154912220860DA
:106F80000021FDF72FFD20460124FDF76FFE0225AD
:106F90002046FDF771FE03242846FDF773FE042505
:106FA0002046FDF775FE05242846FDF777FE0625E9
:106FB0002046FDF779FE07242846FDF72FFF082518
:106FC0002046FEF72DF92846FEF7EEFB70BD0000C7
:106FD000FC05012070B50646374D8AB0687A00245A
:106FE0003300FDF7EDFC0665044C656562650594AC
:106FF000069407940121684608940172C12003A9F0
:107000008000FDF797FE6846017B0170417B41706F
:10701000817B81700471C470417CC171017C81717C
:10702000C17B41716A4608210020FDF773FE03A869
:10703000FEF7D8FD01460E2205A8FDF7BBFC1E4851
:1070400005AC08223B30A11DFDF7B4FC1A4808220C
:10705000A11D7330FDF7AEFC174A612030321C21B0
:10706000C000FDF769FF144A15216A320020FEF7BF
:1070700035FB02AA01211148FDF75EFF18E002214D
:10708000FDF7ECFCAC816C81FDF772FD0C4880696A
:10709000287A00280CD02C72BFF34F8F0A49094878
:1070A000C860BFF34F8F00BFFDE70021FDF702FE70
:1070B0002E700AB070BD000000060120050300001C
:1070C00000F000400400FA0500ED00E07047000009
:1070D000084A07491078022808D1002013185B7865
:1070E0000B70401CC0B2491C0628F7D310787047BB
:1070F0003112FF1F1909012070B5164C144DE069BB
:1071000040084000E061062018F08CFF114840382C
:10711000826980210A438261E26901231A43E261A4
:10712000A26A920503D42A466D1E002AF8DC002DBF
:1071300007DB226A7E23D60B82691E409A433243C4
:10714000826182698A4382613006400E70BD000010
:10715000983A000040F00040FFB581B00D46064669
:1071600010240C4F0CE0FFF7C7FFB04208D2A84232
:1071700006D90499039800F00FF8C019C72804D362
:107180002046641EE4B20028EDD11020001BC0B2DE
:1071900005B0F0BD21F1FFFFF0B5002591B00E461E
:1071A00007462C460BE0102018F03CFF1448406ABC
:1071B000A2008104890C6846641C8150E4B2BC4280
:1071C000F1D339466846FEF7F2FC0E4A00205742DA
:1071D0006C460EE081006358934201D9D91900E052
:1071E000D11A642902D9002011B0F0BD5D19401CEC
:1071F000C0B2B042EED331462846FDF707FDF3E7B3
:1072000040F00040420F0000F8B50C4D0C4E002439
:10721000A000401901686846FEF742FD022805D02B
:10722000002C02DD012800D10320F8BD3219694687
:107230000978641C5170402CEADBF8BD000800118D
:10724000E8160120F8B500240C4D0D4F0526A000CE
:10725000401901686846FEF723FD022805D0002C7E
:1072600002DD012800D10320F8BD321B6946D21986
:107270000978641C5170062CE9DBF8BD0009001187
:107280001909012010B500F011F800F0C9F9064AFB
:107290000121582000F03CF9042308221946382027
:1072A000FFF75AFF10BD0000F812FF1FF8B52F4876
:1072B00003782F4C16221B21204619F0A5F8032332
:1072C00011221221204619F09FF8241D06231622B0
:1072D0001A21204619F098F8032312221321204680
:1072E00019F092F823480078032828D000231922A7
:1072F0001A21204619F088F80B2304220721204682
:1073000019F082F81C4E337816221721204619F006
:107310007BF81B4D1948E86042152A6119486861DD
:107320001949A961164C40346260A060E160144FB5
:107330001648403F38603078012802D00BE0032324
:10734000D5E7002201231146384619F05DF8FF20E9
:107350004130286160600E4800780E49C006C00BBD
:107360004018B8630C48E861F8BD0000DC12FF1F4C
:1073700040F00040E312FF1F180901202001002007
:10738000C0000340A403B00000008A04242D0000C4
:10739000E112FF1F250800002FFF260070B53049BD
:1073A0002F4A4039002825D0022823D08B1513629C
:1073B0005A020A612B4A0A632B4A127801231B03E3
:1073C000D2184A612649264CC039803C002815D085
:1073D0006522264DD202264B012819D002281CD046
:1073E000244E80190860244848602260A560E3604C
:1073F000224819E080231362DA02DAE720480860A5
:107400000020A0601F4820601F48E0601F480BE07C
:107410001F480860A5602260E9E71D48401C08601D
:10742000A5602260E3601B4820610D48FF23002215
:107430000721B43818F0E8FF174860611748A061C9
:107440001748E06117482062174860621748A06239
:107450001748E062174820631748606370BD00005A
:10746000C000034003000001DD12FF1F55555537D2
:10747000D6BE898E00800698545A985080550822AE
:107480000080067800280B0007EE7536806608221B
:107490000180064280450822A49C5C544C0C0403E5
:1074A000025A544E483C36332D007F5D57514B45B0
:1074B0003C363056504A443E322C262010B5FFF759
:1074C000F5FE0448007800F009F803480078FFF75B
:1074D00065FF10BDE112FF1FE212FF1F10B5044649
:1074E00009483F2C0DD00D230F22122118F08CFFDC
:1074F0000648816BE2060905090DD20B1143816331
:1075000010BD0823F0E7000014F0004080000340A5
:10751000F0B5364C666AA56A00236362A362344CF8
:1075200060630E20206263624020A0625020E0620F
:107530002A2060622E484030012926D08021016235
:107540002C49FF232A48A533403083602A4B4360EF
:10755000274B2A48403B18617D20C000401EFDD2C9
:10756000274889050F18224840388763244B5B1C45
:10757000C91881632449234809780B00FDF720FAD4
:10758000070B0B100D0F100B1000FF2101310162D2
:1075900018498331D5E71D4802E01D4800E01D4829
:1075A0001D4911601249403103E0CB6ADB439B0F58
:1075B00011D0401EF9D20E48403887630020A062E7
:1075C000E062886060622062FF20413060620748AC
:1075D00046628562F0BDC86A104B184010601068A2
:1075E0000122000C120480184860E4E700100340F8
:1075F00080000340CA0200002020000080560C20BA
:107600006465210010270000E312FF1F204E0000D8
:1076100030750000409C000000002020FFFF3F3F2D
:1076200000B50021022000F021F80C49801C0870F0
:107630000021422000F01AF80949801C087001213D
:10764000022000F013F80749801C08700121422035
:1076500000F00CF80449801C087000BDDD12FF1F0B
:10766000DE12FF1FDF12FF1FE012FF1F30B51D4C9F
:107670001B4A22601B4A4032012914D01A49D160AA
:1076800050630E20106200215162FF2015305062BD
:107690001648057816482B00FDF792F9070A0A07E5
:1076A0000C0E0F0A0F001349E9E71148401E04E0D1
:1076B000114802E0114800E01148401EFDD209487F
:1076C0008030406B51620002000E11620D49D160A2
:1076D000FF21413151626521C902216030BD0000A6
:1076E00010000300400003407F407200E312FF1FC0
:1076F0000F2700007F405200204E00003075000030
:10770000409C00004040100010B500210420FEF70E
:1077100029F801210220FEF725F810BD00B58BB035
:107720006846FDF7CDFA00280BD068460178C807F7
:1077300002D000200BB000BD1B20FDF7C7FA0120CE
:10774000F8E700211B20FDF7C1FA08A8FDF7C4FAED
:10775000F5E70000F0B58FB004284BD103A9FEF780
:107760009DF96846007B0026534A5449544CFF2833
:1077700042D0FE2847D0FD2851D0FC283AD000281E
:1077800050D0012836D16846417B6171827B2271DD
:10779000C37BA371007C8900E071062900D2062119
:1077A0006C469200A184062A00D20622228564211A
:1077B0004843A38520860120207109AA022141485F
:1077C000FDF7BAFB3F480AAA0221401CFDF7B4FBB3
:1077D0003C480BAA0221801CFDF7AEFBC5200CAA79
:1077E00002218000FDF7A8FB364801AA01210830DC
:1077F000FDF7A2FB0FB0F0BD6846407BE07016704D
:10780000AF20C00006E06846407BE07003201070A7
:107810004B20C0000968086000F092F8EAE7FEF724
:1078200011FAE7E70120FDF75DFA6846407BC109E0
:107830004006A170400E8100401860816846807B40
:107840006070204801A9401DFDF774FA68468088E1
:10785000810008188003050C68468580A778002FF2
:1078600000D06581608900281FD0A84204D2C000E2
:107870002946FDF7CBF960706078002804D101201B
:1078800060706D1CA8086081002F04D00221607A0E
:10789000FDF710FAAEE70021607AFDF70BFA628976
:1078A0000221607AFDF7BCF8A4E70221607AFDF7B7
:1078B000D5F8A6819EE700002C04012014090120C0
:1078C000000601201103000010B504460848844258
:1078D0000DD0012907D0022909D101212046FDF749
:1078E00007FA002803D103492046FDF7BFFC10BD6D
:1078F000FEFF00008E0601207CB514460D460528CB
:1079000001D002207CBD0C490020FDF76BFEC007B2
:1079100010D02A4621460948FDF74CF8FF211820CF
:10792000054B019100900A33002204490248FDF7FB
:10793000DBFC7CBD10207CBD960601206911012076
:1079400030B589B069460020FEF7A8F807A90120E4
:10795000FEF7A4F808A90220FEF7A0F804A9032066
:10796000FEF79CF8102269462648FDF723F82548C3
:107970006946898B09384176090A81766946098CFE
:10798000C176090A01776946097C4177FDF7FAFB60
:1079900000206946087505AA01211B48FDF7CCFAAD
:1079A0001A48007869460876174806AA0121001D82
:1079B000FDF7C2FA134D553DE87804012146062033
:1079C000FDF752F821460720FDF74EF82146082022
:1079D000FDF74AF821460920FDF746F80A482A46ED
:1079E0004C321E21801CFDF7A7FA6946087C084925
:1079F0000870FFF773FD074A0821687AFDF710F851
:107A000009B030BD55060120050300002C040120FB
:107A1000E112FF1F881300000A18232A242A252AAE
:107A2000262A272A282A292A2A2A502A0200000040
:107A3000187AFF1F4D6F64656C204E756D6265721C
:107A40000053657269616C204E756D626572004607
:107A500069726D77617265205265766973696F6EC0
:107A60000048617264776172652052657669736956
:107A70006F6E00536F667477617265205265766928
:107A800073696F6E004D616E7566616374757265C2
:107A900072204E616D6500FE006578706572696DDB
:107AA000656E74616C0000000D5DFF1F000000003A
:107AB0000000000002000000187C01004169FF1F67
:107AC0005D6AFF1F00000000DD5F000099300000CC
:107AD000293800003116000035200000C57A00006A
:107AE000614EFF1F8953FF1F5D59FF1F09F0FFF112
:107AF000FFF2FFF3FFF4FFF5FFF6FF0002000000C6
:107B0000ED7AFF1F000000000000000000000000F0
:107B1000020000001A7C0100000000001169FF1F34
:107B2000000000000080FF1F000001202C04000066
:107B30007C5BFF1F2C84FF1F2C040120F404000039
:107B40005C49FF1F000CFF1F200901200C000000F2
:107B50007C5BFF1F20090120000CFF1F00040000B8
:107B60005C49FF1F0C86FF1F200901201012000036
:047B70008C5BFF1F0C
:020000041FFFDC
:1080000003B40148019001BD5590000003B401483C
:10801000019001BDE997000003B40148019001BD42
:108020003D980000F8B506460024FFF7E9FF054635
:108030000648471B06E0FFF7E3FFA84201D3441BB5
:1080400000E03C18B442F6D3F8BD0000FFFFFF008B
:1080500010B5122801D3052010BD0C4B9C6B0122DA
:108060008240104620439863586B90435863DC6B02
:10807000002907D020469043D863186B02431A6347
:10808000002010BD10462043F6E7000000800040AD
:10809000F3B5194E002481B0074601252846A040BB
:1080A000384225D00299084201D1012000E0002089
:1080B0000090E0B2009900F021F80C206043801994
:1080C0004168806800290ED0002807D00098002859
:1080D00002D00021E0B203E00121FBE7E0B2002181
:1080E000FFF7B6FF04E0002802D0E0B20121F7E775
:1080F000641C122CD2DBFEBD44150120074A0C2360
:1081000043439B185A68002A01D0002904D09A687A
:10811000002A02D0012900D11047704744150120E0
:1081200010B50448C16B034A40321068D060FFF7B5
:10813000AFFF10BD0080004070B50C460A21E4F787
:1081400065FD4A00891801221346491C8B404D1CCD
:10815000AA40134382000448121890688C40984348
:1081600004439460002070BD00F000400C4A0C4BAA
:108170000121403A122807D281405068084201D0BC
:10818000106809E0186907E0123881401069084258
:1081900001D0D06800E05869084000D00120704745
:1081A000408000400449420903D000204860062076
:1081B00070474860002070470809012010B5044846
:1081C000112243681521034800F01EF9002010BD5C
:1081D000080901201CF0004010B578210948E4F797
:1081E000A0FB09480078012805D0022806D0032802
:1081F00006D0042804D1FFF709FF01E0FFF70CFFC8
:10820000002010BDA81401200809012030B50D4C34
:1082100000230C255D43655D854201D1072030BDFB
:10822000002D04D05B1C0A2BF3DB032030BD0C2592
:108230006B431B19F9D000245C7018709A602046BB
:10824000596030BDA814012070B5FFF7B7FF0A4D83
:10825000002420460C214843295C002909D04019FC
:108260004068002800D08047641C0A2CF1DB002005
:1082700070BD122070BD0000A814012070B50A4D19
:10828000002420460C214843295C002909D04019CC
:108290008068002800D08047641C0A2CF1DB002095
:1082A00070BD122070BD0000A8140120F8B51F4D4C
:1082B0001E4F08351E4C1126012820D000281DD144
:1082C00000211020FFF738FF00211120FFF734FFB5
:1082D000032308220921284600F096F806220023ED
:1082E0001146284600F090F816231B221F2138461D
:1082F00000F08AF82068C16AB143C162F8BD052365
:108300001B221F21384600F07FF80A4B072210215C
:10831000284600F079F8062201231146284600F08D
:1083200073F82068C16A3143E7E7000014F00040A9
:1083300014090120FB030000F8B5FF222D322A4E5C
:108340002A4C002832D0012329499B0402282FD02F
:108350008025012831D00E681E430E604B6806460A
:108360000B360127B7403B434B604B682B434B60B8
:10837000032832D0042832D01E492160521E120434
:10838000120CFBD103461A480321001F00F03CF8F1
:1083900001208007C169184D890722D58069000531
:1083A000010E491C2068E4F731FC1BE02660E5E77C
:1083B0000D681D430D601149DFE70F681F430F6013
:1083C0004B6801277F05BB434B604B683F123B4323
:1083D0004B604B682B434B60E8E70949CDE70949FF
:1083E000CBE720682860F8BD0048E8011810FF1F9F
:1083F00040F0004000D8B8051010FF1F0024F40022
:10840000006CDC020090D003F0B504680025ED4359
:108410009340012704E03E469640B543521CD2B239
:108420008A42F8D92C401C430460F0BD211202247A
:108430000104059310013202141C7C0129122D2C19
:108440007AFF1F105A22102D2E040120101A1A181C
:1084500029105A371069204B7005105A1C20DA3445
:10846000405A71205A1E20DA41205A72205A202088
:10847000DA4F205A73205A2220DA61205A74205A87
:108480002420DA73205A75205A2620DA85205A765D
:10849000205A2820DA97205A77205A2A201B3004A5
:1084A00010590181125032A02BE803115A1C38DAFE
:1084B000B4485AF8485A30105B2011D859105AF96C
:1084C000205A32106A78F859105AFA105A38102A7D
:1084D00080108983146406C88205180B5577FF1F26
:1084E000D56FFF1FCD70B45820020304050607089E
:1084F000090A0B0C0D0E0F101112131412095068FB
:1085000079706C7573202D4601140512181520031F
:10851000020A170201061AFF4C18180215FDA506DB
:1085200093A4E24FB1AFCFC6EB0764782527746BF5
:10853000EDC5389A503852201E0A55554944070156
:108540001929A65A1CB8ADFC7AFF1FD84B7F06D854
:108550001AEF1832034B4511106A26E8592069308A
:108560005A86105AF1305A8A106930CB2008305A96
:1085700027105AF330DA8C30DA28305A2F105AF597
:1085800030DA8830DA30305A37105AF730DA55C0DE
:10859000DA38305A3F101AF93029105A69301A283F
:1085A000202940DA96701A40300140264D616A6FEA
:1085B000723D0A4D696E082D506F77650826526529
:1085C0007365742008124E4F544946590217FF290B
:1085D000905A1C90AD107BFF1FD05AA0D01A3A10B1
:1085E000A93069D01A582029C12A010D715C307553
:1085F000FF6B120623800C9AE81C011A0C1E020164
:0C8600000622713C40787D8D691000005E
:040000051FFF48C1D0
:00000001FF
