:020000041FFFDC
:100800000000000031C6FF1F5CD6FF1F88D6FF1F07
:1008100034DEFF1F000000000000000000000000A8
:1008200000000000000000000000000000000000C8
:1008300000000000000000000000000000000000B8
:1008400000000000000000000000000000000000A8
:100850000000000000000000000000000000000098
:100860000000000000000000000000000000000088
:100870000000000000000000000000000000000078
:100880000000000000000000000000000000000068
:100890000000000000000000000000000000000058
:1008A0000000000000000000000000000000000048
:1008B0000000000000000000000000000000000038
:1008C0000000000000000000000000000000000028
:1008D0000000000000000000000000000000000018
:1008E0000000000000000000000000000000000008
:1008F00000000000000000000000000000000000F8
:1009000000000000000000000000000000000000E7
:1009100000000000000000000000000000000000D7
:1009200000000000000000000000000000000000C7
:1009300000000000000000000000000000000000B7
:1009400000000000000000000000000000000000A7
:100950000000000000000000000000000000000097
:100960000000000000000000000000000000000087
:100970000000000000000000000000000000000077
:100980000000000000000000000000000000000067
:10099000A1B2FF1F65B3FF1F71CFFF1F0000000052
:1009A0000000000000000000000000000000000047
:1009B0000000000000000000000000000000000037
:1009C0000000000000000000000000000000000027
:1009D0000000000000000000000000000000000017
:1009E0000000000000000000000000000000000007
:1009F00000000000000000000000000000000000F7
:100A000000000000000000000000000000000000E6
:100A100000000000000000000000000000000000D6
:100A200000000000000000000000000000000000C6
:100A300000000000000000000000000000000000B6
:100A400000000000000000000000000000000000A6
:100A50000000000000000000000000000000000096
:100A60000000000000000000000000000000000086
:100A70000000000000000000000000000000000076
:100A80000000000000000000000000000000000066
:100A90000000000000000000000000000000000056
:100AA0000000000000000000000000000000000046
:100AB0000000000000000000000000000000000036
:100AC0000000000000000000000000000000000026
:100AD0000000000000000000000000000000000016
:100AE0000000000000000000000000000000000006
:100AF00000000000000000000000000000000000F6
:100B000000000000000000000000000000000000E5
:100B100000000000000000000000000000000000D5
:100B200000000000000000000000000000000000C5
:100B300000000000000000000000000000000000B5
:100B400000000000000000000000000000000000A5
:100B50000000000000000000000000000000000095
:100B60000000000000000000000000000000000085
:100B7000B1B6FF1F000000000000000000000000F0
:100B80000000000000000000000000000000000065
:100B90000000000000000000000000000000000055
:100BA0000000000000000000000000003DADFF1F3D
:100BB0000000000000000000000000000000000035
:100BC00021ADFF1F00000000000000000000000039
:100BD0000000000000000000000000000000000015
:100BE0000000000000000000000000000000000005
:100BF00000000000000000000000000000000000F5
:0C0C000001FF01FF01FF01FF41000000A7
:020000041FFFDC
:10480000A0090020D548FF1FDD48FF1FDF48FF1F1C
:104810000000000000000000000000000000000098
:10482000000000000000000000000000E148FF1F41
:104830000000000000000000E348FF1FE548FF1FE4
:10484000E748FF1FE748FF1FE748FF1FE748FF1F34
:10485000E748FF1FE748FF1FE748FF1FE748FF1F24
:10486000E748FF1FE748FF1FE748FF1FE748FF1F14
:10487000E748FF1FE748FF1FE748FF1FE748FF1F04
:10488000E748FF1FE748FF1FE748FF1FE748FF1FF4
:104890000000000000000000000000000000000018
:1048A0000000000000000000000000000000000008
:1048B000E748FF1F00000000E748FF1FE748FF1F11
:1048C0000348854600F038F8004800479DC1FF1FA7
:1048D000A00900200448804704480047FEE7FEE79F
:1048E000FEE7FEE7FEE7FEE73574FF1FC148FF1F46
:1048F00003460B439B0703D009E008C9121F08C0F9
:10490000042AFAD203E00B780370401C491C521EA3
:10491000F9D27047D2B201E00270401C491EFBD2AE
:1049200070470022F6E710B513460A4604461946BA
:10493000FFF7F0FF204610BD064C0125064E05E0AE
:10494000E36807CC2B430C3C98471034B442F7D3B0
:10495000FFF7BAFFE4D7FF1F34D8FF1F70B58C18DC
:104960000578401C6B075B0F01D10378401C2A11AE
:1049700006D10278401C03E006780E70401C491CEA
:104980005B1EF9D12B0705D40023521E0DD40B70EA
:10499000491CFAE70378401CCB1A921C03E01D78EF
:1049A0000D70491C5B1C521EF9D5A142D8D30020C2
:1049B00070BD000003B40148019001BDF922000060
:1049C00003B40148019001BD01E6000003B40148B1
:1049D000019001BD7181000003B40148019001BD47
:1049E000C13C010003B40148019001BD391400002D
:1049F00003B40148019001BDED3C010003B401483E
:104A0000019001BDC93A010003B40148019001BD04
:104A10005518000003B40148019001BD690200006F
:104A200003B40148019001BD6D15000003B40148B5
:104A3000019001BDA118000003B40148019001BD1F
:104A4000F13E010003B40148019001BD1B3D01008E
:104A500003B40148019001BD3D42010003B4014887
:104A6000019001BDB9E4000003B40148019001BD0B
:104A70002D15000003B40148019001BD3518000058
:104A800003B40148019001BD79E5000003B4014879
:104A9000019001BD6941010003B40148019001BDCD
:104AA0001117000003B40148019001BD711400000A
:104AB00003B40148019001BDC131000003B40148B5
:104AC000019001BDB142010003B40148019001BD54
:104AD000D542010003B40148019001BDC912000094
:104AE00003B40148019001BD5D19000003B4014801
:104AF000019001BD593A010003B40148019001BD84
:104B0000C118000003B40148019001BD3515000033
:104B100003B40148019001BD4117000003B40148EE
:104B2000019001BDE915000003B40148019001BDE9
:104B3000897B000003B40148019001BDD52000002D
:104B400003B40148019001BDA5E5000003B401488C
:104B5000019001BD3D1C000003B40148019001BD5E
:104B60000D1D000003B40148019001BD8306000043
:104B700003B40148019001BD0143010003B40148A1
:104B8000019001BDE120000003B40148019001BD86
:104B9000F53C010003B40148019001BD5D3F0100F7
:104BA00003B40148019001BDDD21000003B40148B8
:104BB000019001BD211F000003B40148019001BD17
:104BC000C920000003B40148019001BD9502000016
:104BD00003B40148019001BD5590000003B40148A1
:104BE000019001BDED3A010003B40148019001BDFF
:104BF0000923000003B40148019001BDC53B010039
:104C000003B40148019001BD7D3A010003B401489D
:104C1000019001BD913F010003B40148019001BD25
:104C2000A942010003B40148019001BDC91F000061
:104C300003B40148019001BD591B000003B40148B1
:104C4000019001BDD91A000003B40148019001BDD3
:104C50009D1A000003B40148019001BD710F0000CE
:104C600003B40148019001BD1910000003B40148CC
:104C7000019001BD113A010003B40148019001BD4A
:104C8000A53C010003B40148019001BD39170000A3
:104C900003B40148019001BD8117000003B401482D
:104CA000019001BD891C000003B40148019001BDC1
:104CB0004D2A000003B40148019001BD292A0000DB
:104CC00003B40148019001BDD136000003B401488E
:104CD000019001BD6D07000003B40148019001BDC2
:104CE000BD07000003B40148019001BDE9070000C1
:104CF00003B40148019001BD3D07000003B4014821
:104D0000019001BD211A000003B40148019001BDCA
:104D1000050E000003B40148019001BD2D0E0000F6
:104D200003B40148019001BD8922000003B4014889
:104D3000019001BD610E000003B40148019001BD66
:104D40009D0E000003B40148019001BDD50E000086
:104D500003B40148019001BDFD0E000003B40148F9
:104D6000019001BD610F000003B40148019001BD35
:104D7000E997000003B40148019001BD3D9800008F
:104D800003B40148019001BDE58D000003B4014862
:104D9000019001BD4977010003B40148019001BDB4
:104DA0008D3C010003B40148019001BDE55B0000AA
:104DB00003B40148019001BDE129000003B401489A
:104DC000019001BD9937000003B40148019001BD75
:104DD0005114000003B40148019001BD091F0000F7
:104DE00003B40148019001BDA579000003B4014856
:104DF000019001BD4103000070B506460C46154602
:104E00002A462146304606F011FE2946204600F08B
:104E100011F870BDF8B505460E4617461C462346E8
:104E20003A463146284606F03BFE204600F070F830
:104E3000F8BD000038B504460D462A46214617A0A5
:104E400007F0CCFC002C03D11CA007F0C7FC23E02A
:104E5000012C12D1002D0BD169461D4800F0E2FD56
:104E60001CA007F0BBFC6846008803F059F813E06B
:104E700029461DA007F0B2FC0EE0022C0CD1002D3B
:104E80000AD16946124800F0CDFD1CA007F0A6FC2F
:104E90006846008803F044F838BD0000416E637333
:104EA0004170705F70726F636573735061697253A4
:104EB000746174652025642C25640A005061697250
:104EC000696E6720737461727465640A0000000083
:104ED0000E03000050616972696E67205375636349
:104EE00065737366756C0A0050616972696E67203C
:104EF0006661696C3A2025640A000000426F6E64A6
:104F0000696E67205375636365737366756C0A0019
:104F100038B50546084C002D03D0214607A007F000
:104F20005DFC6946094800F07DFD22460021684687
:104F3000008800F0DBF938BDD204000050617373C3
:104F4000636F64653A2025640A0000000E030000C8
:104F5000F0B5BFB005460E46154F294615A007F01F
:104F60003DFC022069468870012E05D10120C870E1
:104F700000216846017105E000206946C8700021E3
:104F800068460171002138A8C17501766846058020
:104F90003A78B021C85B6946FFF70CFD0446002C47
:104FA00003D021460AA007F019FC20463FB0F0BD0F
:104FB000E8FBFF1F416E63735F43434344436F6EDF
:104FC0006669672068616E646C652025640A00006C
:104FD000416E63735F43434344436F6E666967206A
:104FE00025640A0010B500240549064801F06CF953
:104FF000054A0521054801F04DFB0446204610BD39
:1050000020DDFF1FFFFF000018D6FF1F2CDDFF1F54
:1050100010B502460023002A06D0012A08D0022A31
:105020000AD0032A1CD10BE010480078087019E060
:105030000F480078087015E00E484089088011E09C
:1050400008460D4C247804710B4C64784471094C6B
:10505000648D0480074C648F44800124847101E0D6
:10506000022300BF00BF184610BD00001EDDFF1F59
:105070001CDDFF1F2CDDFF1F28DDFF1F70B505465F
:105080000C46094885420DD0012C07D0022C09D1CD
:1050900001212846FFF794FC002803D10349284644
:1050A00001F012F970BD0000FEFF000020DDFF1FBF
:1050B00010B502F0D0FD044604480078844203DABB
:1050C0000248047002F0F4FD002010BD1EDDFF1F39
:1050D000014908607047000018DDFF1F10B5034A42
:1050E0001321034801F0D6FA10BD000034D5FF1F8C
:1050F0004CD8FF1F70B505460C46002601208002E3
:10510000281A0300FFF762FC0F090D1115191D2362
:10511000272B432F33373B3F430023480078207031
:105120003EE02248008820803AE021480078207044
:1051300036E020480078207032E01F480078207068
:105140002EE010221D492046FFF746FC28E01C48AF
:105150000078207024E01B480078207020E01A4876
:10516000006820601CE019480078207018E018489A
:105170000078207014E017480078207010E016487E
:10518000007820700CE003F0F1FF207008E0272D7C
:1051900004DA2846FFF726FC208000E0022600BF44
:1051A00000BF304670BD0000E1D9FF1FE2D9FF1FEC
:1051B000E4D9FF1FE5D9FF1FE6D9FF1F40F9FF1F04
:1051C000E7D9FF1FEAD9FF1FECD9FF1FE8D9FF1F5E
:1051D000E9D9FF1FF0D9FF1FF8D9FF1F10B504460A
:1051E0000248047004F046F910BD0000E0D9FF1F2A
:1051F000FFB58DB000200B900C900BAA0E990D9866
:1052000000F038FA04460A2C5EDA204604F009F968
:10521000054634480078022801D1012000E0002032
:1052200000902A462146109B0F9803F06FFF14222E
:10523000002106A8FFF7DCFB21460622514324315A
:10524000C8B206AA102107F035FA002815D110229D
:10525000FF2106A8FFF7D2FB00280ED12146062227
:1052600051432531C8B20AAA042107F023FAE907FD
:10527000C90F06AA0F98FFF7C7FB21467031C8B2C5
:1052800002AA102107F016FA002813D102A804F090
:10529000DCF800260CE0B00002A947183888002886
:1052A00004D0BA7839880F9801F044FA701CC6B25D
:1052B000042EF0DB02202840002804D00A480178A0
:1052C0000F9801F021FA00BF1098042806D1054874
:1052D0000078022802D10F9804F036F9002011B0AE
:1052E000F0BD0000E1D9FF1FE0D9FF1FF8B504466B
:1052F0000D4616460027002D10D10B493046FFF70A
:1053000089FB0E4621463046FFF78AFB0746002FF1
:1053100008D001212046FFF789FB03E029462046FB
:10532000FFF784FB3846F8BD40420F0070B50646D3
:105330000C460120C0032040002812D027480078E6
:10534000FFF77AFB051E07D0284604F099F90028DC
:1053500002D02846FFF776FB20460121C9034840CA
:1053600070BD02202040002810D00021084603F024
:1053700065FD002808D0012118480078FFF768FB78
:10538000204602214840EBE70220E9E7E007C00F92
:10539000002820D012490968888804F08DF9002877
:1053A00017D01048006800280DD00E4800684068EB
:1053B000002808D00A49096888880A490968002233
:1053C0004B680121984703F025FD20460121484004
:1053D000C6E70120C4E70020C2E70000E0D9FF1FB4
:1053E000FCD9FF1FF4D9FF1F7FB50446A078801FAA
:1053F0000300FFF7EBFA0AECFDFD8B2506FDFD79B6
:105400009FFD25468948006800280DD08748006820
:105410000068002808D06B7B2A7B69898348006874
:105420000668E81CB0470AE0698981480068FFF710
:10543000F7FA002803D068890121FFF7F7FAF2E0B4
:105440002546687800283ED1A879C007C00F0028FB
:1054500039D078480068002835D10E2200216846EE
:10546000FFF7C6FA6869002807D06869014610315D
:1054700006226846FFF7B0FA0DE0A888FFF7EEFABB
:105480000646002E05D00622B11D6846FFF7A4FA95
:1054900000E0C8E000BF69468889A979042211406C
:1054A00089080843694688812946684603F0C6FC96
:1054B000002807D1022160480078FFF7C9FA0020D0
:1054C00004B070BD00BF5948006800280BD0574891
:1054D00000684068002806D06A78A888534909689F
:1054E0004B68012198479EE02546504800680028F7
:1054F0000BD04E4800684068002806D06278A88823
:105500004A4909684B68022198478CE02546E878AB
:105510000022291D00F0AEF806460A2E09DA3146AF
:10552000062251432531C8B22A460C32042107F025
:10553000EDF878E0254641480078002805D0A88895
:105540003F490978FFF772FA40E03E4800780028AA
:1055500004D1A8880521FFF769FA37E0A888FFF78A
:105560007DFA0646A87AC007C00F002817D0002E83
:1055700014D07079002812D0A8898005C00F0028A7
:105580000DD1707902AAB11D00F074F8002804D181
:10559000A8880321FFF74AFA45E000E043E071796B
:1055A000A8882A46083203F00FFD2048006800282A
:1055B0000BD01E4800684068002806D0A8881B4908
:1055C000096800224B681146984700BF2BE0FFF79F
:1055D0004BFA002825D11C48007801280CD103F093
:1055E00014FE0020184908700A220021174800E024
:1055F00018E0FFF7FDF90FE000250BE01348405DD0
:10560000012805D1284603F011FE00200F49485516
:10561000681CC5B20A2DF1DB502007F047F803F0F3
:1056200029FF00E000BF00BF012049E7F4D9FF1FB8
:10563000ECD9FF1FFCD9FF1FE0D9FF1FE8D9FF1FDE
:10564000E9D9FF1FE1D9FF1FF9D9FF1FDCF9FF1FBF
:1056500010B5044605480460054801782620FFF788
:1056600009FA0348007801F00FF810BDF4D9FF1FC4
:10567000E0D9FF1FF8B506460F4614460A25002E4E
:1056800006D0012E05D0022E11D0032E29D11BE009
:1056900000BF384603F04CFE05460A2D06DA002C02
:1056A00004D0062239462046FFF796F91AE038461C
:1056B00003F080FE05460A2D05DA002C03D02146B2
:1056C000284603F091FE0DE0384603F00DFF054635
:1056D0000A2D05DA002C03D02146284603F084FE6B
:1056E00000E000BF00BF2846F8BD0000F8B5064640
:1056F0000C46152000901C48864214D100250AE073
:1057000022460221284603F049FD002801D000204E
:105710000090681CC5B20A2DF2DB002C02D01348A1
:10572000FFF7AEF91DE03046FFF798F90546002D6A
:1057300014D068790022A91DFFF79CFF07460A2FA5
:1057400006DA22460221384603F028FD00200090A8
:10575000002C02D0284603F0EDFE01E0142000905A
:1057600000BF0098F8BD0000FFFF00003595FF1F47
:10577000FEB506460D461446002002900120800228
:10578000301A0300FFF722F9110A161F2B37434E78
:105790005A6370ABB7C3D2E5E585E500012D06D1AC
:1057A0002078022803DC20787249087001E0182074
:1057B0000290DBE0022D03D120886F49088001E0D0
:1057C00018200290D2E0012D06D12078012803DCB8
:1057D00020786A49087001E018200290C6E0012D87
:1057E00006D12078042803DC20786549087001E0A0
:1057F00018200290BAE0012D06D12078012803DCA0
:1058000020786049087001E018200290AEE0102D69
:1058100005D1102221465C48FFF7DEF801E0182090
:105820000290A3E0012D06D12078012803DC207826
:105830005649087001E01820029097E0012D03D12D
:1058400020785349087001E0182002908EE0042D62
:1058500007D150492068884203D84F492068086022
:1058600001E01820029081E0002D0FD1FFF7FCF835
:10587000002807D103F0C9FC502006F017FF03F001
:10588000F9FD05E001204549087001E0182002906B
:105890006CE0072D20D10622611C6846FFF7F6F860
:1058A000207800226946FFF7E5FE07460A2F10DA46
:1058B000FFF7DAF8002808D1384603F0B7FC50208B
:1058C00006F0F4FE03F0D6FD05E001203449C8558A
:1058D00001E00220029001E01820029046E0012D34
:1058E00006D12078012803DC20782E49087001E0D9
:1058F000182002903AE0012D06D12078092803DC17
:1059000020782949087001E0182002902EE0012D2E
:1059100009D12078072806DB2078102803DC2078BE
:105920002249087001E0182002901FE0012D0DD1DE
:105930001F48077820781E490870002F05D10846B7
:105940000078012801D103F095FD01E018200290B4
:105950000CE0272E07DA022D05D121883046FFF70B
:1059600089F8029001E00220029000BF00BF029877
:10597000FEBD0000E1D9FF1FE2D9FF1FE4D9FF1FE0
:10598000E5D9FF1FE6D9FF1F40F9FF1FE7D9FF1F29
:10599000EAD9FF1F3F420F00ECD9FF1FF9D9FF1FC3
:1059A000DCF9FF1FE8D9FF1FE9D9FF1FF0D9FF1F5E
:1059B000F8D9FF1FF7B582B005460E4615200190B5
:1059C000174885420FD100240AE031462046049A48
:1059D00003F0D6FD002801D000200190601CC4B265
:1059E0000A2CF2DB18E02846FFF738F80446002CB2
:1059F0000FD060790022A11DFFF73CFE07460A2F59
:105A000006DA31463846049A03F0BAFD00200190C8
:105A100001E01420019000BF019805B0F0BD000026
:105A2000FFFF000070B505460C460026032000026B
:105A3000281A0300FEF7CAFF1D10141A20242A2E6C
:105A400032394044484E52565A5E62666A6E7278E7
:105A50007C809084888C900045480078207084E099
:105A6000102244492046FEF7B7FF7EE0102242494B
:105A70002046FEF7B1FF78E040480068206074E0FF
:105A800006223F492046FEF7A7FF6EE03D4800781A
:105A900020706AE03C480088208066E03B4802783D
:105AA0003B492046FEF798FF5FE03A4802783A49C2
:105AB0002046FEF791FF58E038480078207054E007
:105AC00037480078207050E0062236492046FEF71D
:105AD00083FF4AE034480078207046E0334800787D
:105AE000207042E03248008820803EE03148008843
:105AF00020803AE030480078208036E02F48008847
:105B0000208032E02E48008820802EE02D4800883A
:105B100020802AE02C480088208026E006222B499D
:105B20002046FEF759FF20E02948008820801CE02D
:105B300028480088208018E027480088208014E04A
:105B400026480078207010E02548008820800CE06E
:105B500024480088208008E0272D04DA2846FEF734
:105B600041FF208000E0022600BF00BF304670BD2C
:105B70008EDAFF1FFCF9FF1F0CFAFF1F90DAFF1FE0
:105B800094DAFF1F9ADAFF1F9CDAFF1F9EDAFF1FCD
:105B90009FDAFF1FBEDAFF1F1CFAFF1FBFDAFF1FCD
:105BA000C0DAFF1FC1DAFF1FC7DAFF1FC8DAFF1F05
:105BB000CADAFF1FD0DAFF1FD8DAFF1FDADAFF1FB9
:105BC000DCDAFF1FDEDAFF1FE0DAFF1FD2DAFF1F89
:105BD000E2DAFF1FE4DAFF1FE6DAFF1F8DDAFF1FAC
:105BE000CCDAFF1FCEDAFF1F10B50446134804704D
:105BF000002013490870401E124908800F480078A1
:105C0000FEF74AFF042010490870102200210F48B7
:105C1000FEF7EEFE102200210D48FEF7E9FE0020FF
:105C20000C4908600C4908700C49087001200C49A7
:105C3000087000200B49087010BD00008CDAFF1FAF
:105C40008DDAFF1FCADAFF1F8EDAFF1FFCF9FF1F74
:105C50000CFAFF1F90DAFF1FBFDAFF1FC0DAFF1F29
:105C6000C7DAFF1FC8DAFF1FFEB506460C46012043
:105C7000C0032040002810D047480078FEF7DCFE23
:105C8000051E05D0284603F049FF2846FEF7DAFE38
:105C900020460121C9034840FEBD01208003204069
:105CA000002804D02046012189034840F4E7E0079A
:105CB000C00F00283ED039480078002836D0384838
:105CC0000078052803D10320694608700CE03548A8
:105CD00001786846017034480178684641700622B0
:105CE0003249801CFEF778FE31480178684601721F
:105CF0003048017868464172694627480078FEF7C7
:105D0000D1FE002811D00720254908702A480068D4
:105D100000280AD0284800680068002805D02648D6
:105D2000006801681E480078884700BF20460121AE
:105D30004840B1E702202040002816D018480078DB
:105D400005280ED11D480088FEF7B2FE1C480088C9
:105D5000002806D01A48028802210F480078FEF772
:105D6000ADFE20460221484096E70420204000284E
:105D700006D0002003F06EFF2046042148408BE748
:105D800008202040002805D003F016FD20460821F9
:105D9000484081E700207FE78CDAFF1F9ADAFF1F77
:105DA0008DDAFF1FBFDAFF1FC0DAFF1FC1DAFF1F46
:105DB000C7DAFF1FC8DAFF1FECDAFF1FCADAFF1FBE
:105DC000D0DAFF1FF8B504460D4617461E461748A1
:105DD0000078052801D01420F8BD062C23DB1920FB
:105DE000C00184421FDA062D1DDB85421BDAFF202D
:105DF000F530874217DA0A2E15DB1920C0018642DA
:105E000011DA0B4804800B4805800B4807800B48CB
:105E10000680069803F01EFF042109480078FEF76B
:105E200053FE0020D8E71820D6E700008DDAFF1FC8
:105E3000DADAFF1FDCDAFF1FDEDAFF1FE0DAFF1F0E
:105E40008CDAFF1FF8B506460C4615460020009078
:105E5000BA4830180300FEF7B9FD190E1924FD2DBC
:105E60006A738DA7B3BFCAD6FDE2FCFBFAF9F8FD51
:105E7000FDFDFDF7FD00102C05D110222946B0488C
:105E8000FEF7AAFD01E01820009054E1102C05D186
:105E900010222946AB48FEF79FFD01E01820009034
:105EA00049E1042C03D1A8492868086001E01820C2
:105EB000009040E1012C37D1A44807782878A34905
:105EC0000870002F14D008460078002810D1A04890
:105ED0000078022807D09E480078062803D09C4806
:105EE000007804281FD19B480078FEF7F3FD1AE0E4
:105EF000002F18D195480078002814D094480078D5
:105F000001280BD092480078032807D090480078E9
:105F1000052803D08E480078042804D101218D483B
:105F20000078FEF795FD01E01820009003E1022CB7
:105F300003D128888849088001E018200090FAE001
:105F40001F2C14DC1F2200218448FEF751FD22463D
:105F500029468248FEF740FD814804707F4B224667
:105F600001217C480078FEF7BBFD009001E018207D
:105F70000090E0E01F2C14DC1F2200217948FEF77E
:105F800037FD224629467748FEF726FD76480470FD
:105F9000744B027800216F480078FEF7A1FD009055
:105FA00001E018200090C6E0012C06D128780428D2
:105FB00003DC28786D49087001E018200090BAE0F1
:105FC000012C06D12878032803DC2878684908705A
:105FD00001E018200090AEE0062C05D106222946EB
:105FE0006448FEF7F9FC01E018200090A3E0012CC2
:105FF00006D12878072803DC28785F49087001E07B
:106000001820009097E0012C06D12878032803DCA3
:1060100028785A49087001E0182000908BE0022C83
:1060200019D128885649088008460088002814D0CD
:1060300047480078052810D10846028802214548C3
:106040000078FEF73BFD08E04EE03EE030E020E067
:1060500010E003E062E0182000906CE0012C06D113
:106060002878012803DC28784649087001E01820C8
:10607000009060E02888022C08D1062806DB192150
:10608000C901884202DC4049088001E018210091E2
:1060900051E02888022C08D1062806DB1921C90105
:1060A000884202DC3949088001E01821009142E071
:1060B0002888022C06D1FF21F531884202DA3449C2
:1060C000088001E01821009135E02888022C08D1D1
:1060D0000A2806DB1921C901884202DC2D49088003
:1060E00001E01821009126E02F78012C13D1012F17
:1060F00011D1082117480078FEF7F8FC002807D1D5
:1061000003F0A8FD042113480078FEF7DDFC04E04D
:106110001620009001E0182000900CE0272E07DAEE
:10612000022C05D129883046FEF7A4FC009001E03E
:106130000220009000BF00BF0098F8BDFFFCFFFFE9
:10614000FCF9FF1F0CFAFF1F90DAFF1F9ADAFF1FFE
:106150008DDAFF1F8CDAFF1F9CDAFF1F9FDAFF1F0B
:106160009EDAFF1F1CFAFF1FBEDAFF1FBFDAFF1FF8
:10617000C0DAFF1FC1DAFF1FC7DAFF1FC8DAFF1F2F
:10618000D0DAFF1FD8DAFF1FDADAFF1FDCDAFF1FD1
:10619000DEDAFF1FE0DAFF1F10B50446064800787C
:1061A000002807D1002C01D00448046003F03AFD18
:1061B000002010BD1120FCE78DDAFF1FECDAFF1F75
:1061C00010B507480078052807D113220548018833
:1061D00005480078FEF790FC10BD1220FCE7000097
:1061E0008DDAFF1FCADAFF1F8CDAFF1FF8B50746EA
:1061F0000C461E4602252300FEF7E8FB0A0F0608A0
:106200000C090F0D0F0B0E0F002508E007E000250D
:1062100005E004E003E002E001E0022500BF00BF6A
:10622000002D0FD121463846FEF76CFC0546002DA7
:1062300008D13046079A0699FEF76AFCFEF76EFC15
:10624000FEF772FC2846F8BD70B504460025E0074D
:10625000C00F002805D0044A0421044800F01AFAAF
:106260000546284670BD000048D5FF1F9CD9FF1F7A
:1062700010B504460F4804700F49104800F024F888
:1062800000200AE00021C943C2000D4B99520021B1
:10629000C200D2185160411CC8B20128F2DB0120B3
:1062A00004F026FA03480078FEF744FC0548FEF7A0
:1062B00047FC10BD7CD9FF1F92D9FF1FFFFF0000D4
:1062C00080D9FF1F0D9EFF1F70B506460C46104873
:1062D00086420ED1002009E00021C9438200A1526C
:1062E0000021820012199170411CC8B20228F3DB10
:1062F0000CE02146304603F03CFD0546002D04D05D
:106300000020C04328800020A87000BF70BD00009E
:10631000FFFF0000FFB581B00C4615461F46002068
:1063200000900A98002826D1022F21D12878697878
:106330000902401886B231460B988143002914D1D6
:10634000E168019800F092F9B04210D03246E1685D
:10635000019800F025FA00900098002807D1618983
:106360003246019800F0B0F901E08020009004E08E
:106370000D20009001E00B200090009805B0F0BDCA
:1063800070B506460C460120C0032040002816D0F8
:106390000C480078FEF750FB051E0BD02878B0287B
:1063A00003D1284603F046FE00E000BF00BF2846A8
:1063B000FEF748FB20460121C903484070BD00207C
:1063C000FCE700007CD9FF1FFFB587B00D461C46D7
:1063D000109E002006900590287A10210840002881
:1063E00014D0099803F0BAFC0746002F05D00A2202
:1063F00029460798B847059001E00E2005900598BA
:10640000002802D005980BB0F0BD00BF2878022804
:106410007ED168680078696849780902401880B2BE
:106420000490292212020498811A904271D009DC4A
:106430008B49401A0FD001280ED0022848D00328DB
:1064400068D118E0012966D002297DD003297CD0CB
:106450000429F5D1C9E000BF1198002808D1EF68E0
:10646000387830703A7820467968FEF7B5FA01E05E
:106470000B200590D6E01198002826D1012030701D
:10648000E868007820706989491C88B20021FEF70D
:106490005DFB0746002F0FD031783878801C081834
:1064A0003070B87A607078890012A0703A78E01C79
:1064B0007968FEF791FA07E03078001D3070042209
:1064C0000021601CFEF794FA01E00B200590A9E082
:1064D0001198002844D1E8680088019004203070A9
:1064E0000198207001980012607003A90198FEF7CE
:1064F0002DFB0746002F29D0F868009002AB6846B4
:10650000828958493846FEF727FB00280ED103E060
:106510008AE039E083E046E03B78022152487A681D
:10652000FEF720FB002801D1401E02900098007861
:10653000022808D1009802224168201DFEF74CFA7B
:106540003078801C307003E00DE01EE0019802906E
:1065500068460089A070684600890012E07001E07A
:106560000B2005905EE0119800280AD1E968079891
:1065700000F07CF8074602203070277038126070F7
:1065800001E00B2005904DE000BF1198002807D1D5
:10659000E96808880221317020700112617001E001
:1065A0000B2005903EE0E868FEF7E2FAC7B21198CA
:1065B000B84217DC1198B84201D1002709E01299BE
:1065C00011984018B84201DA129F02E01198381A67
:1065D000C7B23770EA68119811183A462046FEF79C
:1065E000FBF901E0072005901CE01198002813D169
:1065F000E8680721317001782170417861708178F5
:10660000A17041880912E17001792171817961716C
:10661000C1880912A17101E00B20059002E0012060
:10662000069000BF00BF01E00120069006980128F7
:1066300013D1099803F0C2FB0746002F0AD0129924
:106640001198334622460191009029460798B84791
:10665000059001E00E20059000BF0598D3E60000EC
:1066600000280000FFFF00001E7C010070B50546F9
:106670000E463146284603F07CFB0446002C01D030
:10668000A07870BD0020FCE7014908707047000049
:106690007DD9FF1FFEB504460F461646002C0FD0CD
:1066A000019468460780FEF769FA0546002D06D179
:1066B000002E04D06089314603F0F2FF054600E069
:1066C00002252846FEBD0000F8B505460E461746D1
:1066D0000C480078FF2813D00A20FEF755FA04462C
:1066E000002C0CD0B12020700020607020716580DB
:1066F000E6802781214603480078FEF74BFA00BF69
:10670000F8BD00007DD9FF1F70B504460D4608494D
:106710002046FFF7ABFF064602203040002804D099
:1067200029462046FEF73CFA70BD0120FCE7000038
:1067300092D9FF1F7CB505460E4614466846047183
:106740002004010E684641710020022301AA31464F
:106750000090284600F001F87CBDFFB583B00D46DF
:106760001E4602A92846FEF7F1F90190019800287B
:1067700011D06846008903F03DFB0746002F08D082
:106780000C98F3B20090059A01990398B847044613
:1067900000E00E2400E00124204607B0F0BD000018
:1067A000F8B505460F4616463946284603F0E1FA85
:1067B0000446002C09D13946054803F0DAFA0446AC
:1067C000002C01D11120F8BD2580A6700020FAE729
:1067D000FFFF000070B504460025E007C00F002849
:1067E00005D0044A07210448FFF754FF0546284610
:1067F00070BD00005CD5FF1F1CDAFF1FF8B5064610
:106800000C46154600273300FEF7E0F80805143C57
:106810003C1C3C26313C152C0ADC162200211C486D
:10682000FEF7E6F8224629461948FEF7D5F800E0BB
:10683000182729E0022C03D128881649088000E097
:10684000182721E0082C05D1082229461248FEF716
:106850004FF800E0182717E0012C06D10F492878DF
:10686000CA69283104F02EF800E018270CE0012C4A
:1068700006D10A492878CA6B483104F023F800E0B1
:10688000182701E0022700BF00BF3846F8BD00000E
:10689000E6F9FF1F0EDAFF1F12DAFF1F1CDAFF1FD7
:1068A00038B504460E480470012000906A46012164
:1068B0000C48FEF75DFF0020C043FFF78BFF002070
:1068C000C043FFF7C1FCFEF709FCFEF78BFB00207D
:1068D000FEF7FEFB012102480078FEF7B9F838BD4B
:1068E000F4DAFF1F0D04000070B506460C4633496C
:1068F00033A005F073FF0120C0032040002810D012
:1069000030480078FEF798F8051E05D0284605F0B7
:10691000A9F92846FEF796F820460121C903484008
:1069200070BDE007C00F002803D020460121484079
:10693000F6E704202040002810D0234800780528DE
:1069400008D122480078002802D005F06DF901E056
:10695000FFF736FC204604214840E1E702202040B2
:10696000002805D004F0C6FE204602214840D7E7A3
:106970000820204000281ED015480078002816D096
:1069800004F0D8FE0546002D05D0AA78697828784D
:10699000EB1C05F0FDF80F4800780F490978884294
:1069A00003D1204608214840BAE72046B8E72046F0
:1069B00008214840B4E70020B2E7000068D5FF1F77
:1069C00025730A00F4DAFF1FF5DAFF1FFADAFF1F5A
:1069D000F6DAFF1F0DDBFF1F0EDBFF1FFFB585B0D3
:1069E0000D461E4600200490686800786968497862
:1069F0000902401884B20E98002805DD41488442FF
:106A000002D00B2009B0F0BD3E48801C84420AD061
:106A10003C482938844206D03A481938844202D08A
:106A2000401C844218D1688905F072F80390002850
:106A30000FD0079800960190039841790079029051
:106A4000314800680123224607680298B84704903D
:106A500050E0002030704DE02A4884421DD12B497F
:106A600009780E98884202DB0720049042E027480C
:106A700001780E98091A0F98814201DD0F9803E002
:106A8000224801780E98081A30703278EB680E9818
:106A900019180798FDF7A0FF2CE01A48401E844201
:106AA00007D1042030700422E9680798FDF794FFAD
:106AB00020E01748844207D1022030700222E968A2
:106AC0000798FDF789FF15E00E48C01C844206D1E7
:106AD00001203070E8680178079801700AE00C48DE
:106AE000401E844206D1022030700222E9680798D5
:106AF000FDF772FF0498002801D105F095F804987D
:106B000080E700004B2A000004DBFF1F10DBFF1FA3
:106B100008290000024A1160024A10607047000014
:106B200004DBFF1F08DBFF1F024A1160024A1070DE
:106B300070470000FCDAFF1F00DBFF1FF8B50446BA
:106B40000D4616461F4615480078052810D11448F2
:106B50000078002819D01348007813490978884232
:106B600013D13B4632462946204605F011F8F8BDC0
:106B70000A480078022808D004F0D0FD002802DD81
:106B800004F0F8FE01E004F013FF3B4632462946CC
:106B9000204604F025FE00BFE9E70000F5DAFF1FFC
:106BA000F6DAFF1F0DDBFF1F0EDBFF1FFFB585B001
:106BB0001446002004900E98002802DD0B2009B036
:106BC000F0BD06984068007806994968497809023E
:106BD000401886B24A48864203D049481B3886424C
:106BE00014D10699488904F093FF051E0DD008A81A
:106BF0000194009069792879039042480068002345
:106C0000324607680398B847049072E03C48401E3B
:106C100086421BD108A80078012814D120780028CA
:106C200002D0207801280BD12278002A01D001223D
:106C300000E000221046334A12685168884758E045
:106C40008020049055E00D20049052E02E488642AA
:106C50002CD101210E980191009008A803782246BA
:106C600006990598FFF756FB04900498002840D138
:106C7000207861780902401880B20390069948890B
:106C800004F030FF051E10D008A801940090039A6C
:106C9000012A01D1022200E00322134669792879F2
:106CA000184A126817683246B84722E01448401C58
:106CB00086421ED108A80078012818D12078002823
:106CC00002D0207801280FD121780698C068017081
:106CD0002278002A01D1022200E003221046094A4C
:106CE00012685168884704E08020049001E00D207C
:106CF00004900498002801D104F096FF04985EE700
:106D00004D2A000004DBFF1F0229000010B50024FB
:106D100047494848FFF7D8FA47494648FFF7D4FAA9
:106D200046494448FFF7D0FA454A1D214548FFF738
:106D3000B1FC04464348C1690220FEF769F94248A4
:106D40000078424908714048407848713D48C03059
:106D5000408908803B48D0304089488001208871B4
:106D60003B480178394801733948417837484173C5
:106D70003848408935490881002134484181012142
:106D8000817331480178314801752F4841782F4887
:106D900041753048303040892C4908822D484030B8
:106DA00041892A4841820021817529480178274874
:106DB0000177274841782548417726486030408947
:106DC0002249088300212148418381770121203015
:106DD000017141711F48803040891C4908841D4859
:106DE00090304189194841840021203081711A482E
:106DF0000178164828300171174841781348283027
:106E000041711448B03040891049088500210F486D
:106E10004185012128308171014608310320FEF7A8
:106E2000F7F80A490720FFF77FFE204610BD000053
:106E30001EDBFF1FFFFF00002EDBFF1F3ADBFF1FE3
:106E400000D6FF1F48DBFF1F26DBFF1FAEFBFF1F27
:106E50002ADBFF1F48DCFF1F44DBFF1F30B5054660
:106E6000039C12481018002814D01B2818D102299E
:106E700005D10F48007820700120187009E003291F
:106E800005D10C48007820700120187001E0002026
:106E9000187008E00848007820700120187002E09F
:106EA0000020187000BF00BF002030BDCED5FFFF0E
:106EB00029DBFF1F43DBFF1F37DBFF1F30B587B028
:106EC00004466A4804706A496AA005F087FC0621F6
:106ED0001F20FDF7CFFD0E2004F02CF8002807D06E
:106EE00065A005F07BFC002211466848FEF740FCD7
:106EF00001210691002105910121049114210391A2
:106F00001E21029132210191FF21F531009106AA43
:106F100001215F48FEF796FF05AA02215C48401C4C
:106F2000FEF790FF5B4A0D215948801CFEF78AFF4F
:106F3000594A0E216120C000FEF784FF04AA0121F6
:106F400031200001FEF77EFF03AA022150480C30D9
:106F5000FEF778FF02AA02214D480D30FEF772FFBE
:106F600001AA02214A480E30FEF76CFF6A46022150
:106F7000C5208000FEF766FF484A15210020FFF774
:106F80003DFC002006900121059100210491032180
:106F900003910121029106AA04218120C000FEF77D
:106FA000E7FB05AA01218802FEF7E2FB04AA012102
:106FB0003648C01FFEF7DCFB03AA01213348801FBF
:106FC000FEF7D6FB02AA01213048C01EFEF7D0FB17
:106FD000A02529460620FDF74DFD29460720FDF78F
:106FE00049FD29460820FDF745FD29460920FDF702
:106FF00041FDFFF78BFE2A492A48FFF78BFD2A48FF
:1070000006F040F919480178284800F02BFF2022AB
:107010002749002000F0D0FE20222649012000F060
:10702000CBFE20222449032000F0C6FE2022234963
:10703000022000F0C1FE20222149042000F0BCFE05
:1070400020222049052000F0B7FE20221E490620FC
:1070500000F0B2FE20221D49072000F0ADFE012104
:1070600002480078FDF7F4FC07B030BD7CDDFF1F5F
:1070700039D6FF1F25730A00457261736520616C64
:107080006C20626F756E64696E670A000904000007
:10709000050300008BDDFF1F7DDDFF1F24D6FF1FD2
:1070A00014DEFF1F98DDFF1F19C6FF1F11C5FF1F4C
:1070B00080FDFF1FA0FDFF1FE0FDFF1FC0FDFF1FA4
:1070C00000FEFF1F20FEFF1F40FEFF1F60FEFF1F90
:1070D00070B506460C462D492DA005F07FFB01201A
:1070E000C0032040002810D02A480078FDF7A4FCF7
:1070F000051E05D0284604F02AFE2846FDF7A2FC0E
:1071000020460121C903484070BDE007C00F002898
:107110000FD02148FFF740F8FDF748FD1D480078E3
:10712000FDF74AFD1D48FEF793FA2046012148402D
:10713000EAE7FF2001302040002824D018480078DA
:10714000401C17490870052115480078FDF73AFDE5
:10715000002906D1282004F0E1FD002004F0DEFD26
:107160000CE005210E480078FDF72CFD091DCDB27D
:10717000284604F0D3FD002004F0D0FD2046FF2176
:1071800001314840C0E70020BEE7000045D6FF1FA0
:1071900025730A007CDDFF1F20DEFF1F28DEFF1F96
:1071A00030DEFF1FF0B50546059C0020134E9619F2
:1071B000002E17D01B2E1DD1022907D1012B03D180
:1071C00026780F4F3E700CE00D200AE0032907D10E
:1071D000012B03D126780B4F3E7002E00D2000E01A
:1071E0000A2008E0012B03D12678074F3E7000E00B
:1071F0000D2000E000BF00BFF0BD0000CED5FFFFB6
:1072000029DBFF1F43DBFF1F37DBFF1F002805DBE8
:10721000C206D20E01219140014A11607047000060
:1072200000E100E010B5002819DB1A4A03231B0215
:10723000D21883089B00D2588307DC0EFF23A3409B
:107240009A438B071B0E8407E40EA3401A43114B8D
:10725000032424021B198408A4001A5118E00E4AC2
:1072600003071B0F083B9B089B00D2588307DC0ECB
:10727000FF23A3409A438B071B0E8407E40EA34011
:107280001A43054B0407240F083CA408A4001A5114
:1072900010BD000000E100E01CED00E010B500288A
:1072A00019DB1A4A03231B02D21883089B00D25809
:1072B0008307DC0EFF23A3409A438B071B0E840732
:1072C000E40EA3401A43114B032424021B19840823
:1072D000A4001A5118E00E4A03071B0F083B9B0835
:1072E0009B00D2588307DC0EFF23A3409A438B07F1
:1072F0001B0E8407E40EA3401A43054B0407240F1A
:10730000083CA408A4001A5110BD000000E100E0F0
:107310001CED00E010B5002819DB1A4A03231B02FC
:10732000D21883089B00D2588307DC0EFF23A340AA
:107330009A438B071B0E8407E40EA3401A43114B9C
:10734000032424021B198408A4001A5118E00E4AD1
:1073500003071B0F083B9B089B00D2588307DC0EDA
:10736000FF23A3409A438B071B0E8407E40EA34020
:107370001A43054B0407240F083CA408A4001A5123
:1073800010BD000000E100E01CED00E0F8B504468F
:10739000002003460A5C8507ED0EAA401343401CFB
:1073A0000428F7DB01F07EFA0028FBD101F044FC51
:1073B00021022004090E0843FF273F0221463940DD
:1073C000084372B600211A4DA960194E0002803E92
:1073D000801C3060336062B601F064FA0028FBD193
:1073E00001F01AFC11200006201869462A6952078C
:1073F000FCD572B60422AA6004020204240E2243C1
:10740000384002431002C01C306062B62869400751
:10741000FCD53078087030784870307888703078D3
:10742000C8700098984201D00020F8BD0120F8BD36
:1074300080000811014802490860704740787D01CA
:1074400048DEFF1FF8B506460027FDF7C1FB0546DD
:107450000AE0FDF7BDFB0446AC4201D3601B02E02D
:107460000348401B00190746B742F2D3F8BD00009D
:10747000FFFFFF0002E008C8121F08C1002AFAD16E
:1074800070477047002001E001C1121F002AFBD1A4
:10749000704701469C204058002801D101207047C8
:1074A0000020FCE7F8B504460E46154632A005F06C
:1074B00095F92946304605F083FA0020009056E001
:1074C000A020005D0300FDF781FA09060E161E26B6
:1074D0002E363E464D006A463146204601F052FAAD
:1074E000A021085542E06A463146204604F0F6FFE6
:1074F000A02108553AE06A463146204600F0FEF9E0
:10750000A021085532E06A463146204600F0A8FA2C
:10751000A02108552AE06A463146204600F00FFBBC
:10752000A021085522E06A463146204600F012FBB1
:10753000A02108551AE06A463146204600F01EFA9E
:10754000A021085512E06A463146204600F052FB61
:10755000A02108550AE0F82001590FA005F03EF9D6
:10756000009503E00821A020015500BF00BF00984E
:10757000A842A5D3F8BD0000616E63735F706172AD
:1075800073655F6765745F61747472735F7265734E
:10759000706F6E73653A0A00506172736520737480
:1075A0006174653A20446F6E652025730D0A0000F2
:1075B00010B504460EA005F011F96078C007C00FA1
:1075C000002804D1607804210840002800D010BDB4
:1075D0002078022800D1FAE7082221460948FDF761
:1075E00087F90848001D00F00DFC00BFEFE7000020
:1075F000616E63735F70726F636573735F6E6F74D8
:1076000069660A00A1DDFF1FF8B50D461E46079FFB
:10761000089C13A005F0E2F82068B84207D10021C9
:107620002A68501C2860B1542068401C20602268E1
:107630000698815C0FA005F0D1F82068B84208D206
:107640002168481C20600698415C2A68501C28600C
:10765000B1542068B84201D90220F8BD0120FCE7EE
:10766000456E636F64696E67204150502049440D38
:107670000A00000025630D0A00000000FFB581B07C
:107680000D4616461F460A9C10A005F0A7F8206874
:10769000002812D12168019800F044F8002809D090
:1076A0002078296878542868401C286031880DA00B
:1076B00005F094F82068401C20602068012802D161
:1076C000032005B0F0BD0120FBE70000456E636FAD
:1076D00064696E67204174747269627574652049CB
:1076E000440D0A006F66667365742025690D0A00F3
:1076F00070B506460C46154604A005F06FF801214A
:107700002268501C2060A954012070BD456E636F33
:1077100064696E6720436F6D6D616E642049440D2E
:107720000A00000002460B0110468430C05C0128AC
:1077300000D170470020FCE770B506460025002404
:1077400007E021463046FFF7EDFF002800D06D1C12
:10775000641C002CF5D0284670BD000010B504460E
:10776000A08C002808D0A06A8000094B195809A0F5
:10777000E26A05F033F809E0A08C002806D1A06A7F
:107780008000034A115806A005F028F810BD00003B
:1077900010DEFF1F25733A2025730D0A000000003C
:1077A00025733A20284E2F41290D0A00F7B5C6B09F
:1077B000044616462746B037002045904490439033
:1077C000429041900021A02001552046FFF7B4FFD0
:1077D0004090E01DFD303F90002E02D1022049B0C4
:1077E000F0BD4798805D002801D00220F7E7042211
:1077F00000213F98FDF7FCF82CE04198002806D0C6
:1078000001280BD0022816D0032821D11FE045A95A
:1078100020463F9AFFF76CFF41901AE042A9479833
:1078200001960291009043AA45A920463F9BFFF78D
:10783000EBFE41900DE040A844A90091019043AABD
:1078400045A920463F9BFFF719FF419001E000E06A
:1078500000BF00BF41980328CFD101219C200151D6
:107860004598142820D9459988B2FDF7B7F93E907C
:10787000459A3F993E98FDF7AFF8398A30A80186BE
:107880004598C1B238A80175227838883CA9FDF71F
:10789000ABF90546002D06D0294613A004F09EFF43
:1078A0003E98FDF7A7F91DE000A80330459A3F99DF
:1078B000FDF792F8002138A8C1750176398A68462B
:1078C00001804598C1B2684681702278388869463F
:1078D000FDF770F80546002D03D0294602A004F0FC
:1078E0007DFF00BF00207AE743502057524954459E
:1078F000204552524F523A0925640A0030B50346DA
:107900001468601C10600C5DAC20C5581846D0305F
:107910004455AC20C4581846D030005D002806D02D
:10792000AC20C058401CAC24E050022030BD0320E5
:10793000FCE710B5FDF764F90120FDF767F9FDF7E5
:107940006BF9002010BDF0B500248E464A1E12E0EF
:10795000714600230D1B6D1E0AE09E0031188C46F7
:10796000875949688F4202D9815161464F605B1C3B
:107970009D42F2D8641C9442EAD3F0BD70B504462F
:107980000E46154694200159F420005900010818AC
:107990000189A820005B814214DDA820015BF02052
:1079A000005B81420EDA2968481C2860705CA821BF
:1079B000095BA822125B521C93B2A8221353F8222F
:1079C00012595054A820015BF020005B81420BD07B
:1079D00094200159F4200059000108180089401E24
:1079E000A821095B88422DD12146CC31204600F0E8
:1079F0009BF8002805D00021F8200259A820005B40
:107A00001154A820015BF020005B814201DA0720BD
:107A100070BD0DA004F0E2FE2146CC31204600F0FE
:107A200083F8002805D0FF20353001592046FC306E
:107A300088472046FFF72DFD002801D00820E7E702
:107A40000320E5E70620E3E7417474726962757408
:107A5000652066696E6973686564210D0A0000001F
:107A600070B504460E4615462968481C2860715CAE
:107A7000F4200151015998200059814204D315A0E6
:107A800004F0ACFE082070BD94200159F420005988
:107A900000010818C168F82001512046FFF7F9FCE1
:107AA000002804D011A004F099FE0820EBE721463D
:107AB000CC31204600F038F8002804D09C20005932
:107AC000401E9C210851F420015912A004F086FEAA
:107AD0000420D8E741747472696275746520494462
:107AE00020496E76616C69642E0D0A00416C6C2031
:107AF000726571756573746564206174747269620E
:107B0000757465732072656365697665642E200DF2
:107B10000A000000417474726962757465204944FA
:107B2000202569200D0A00000246942080588B6AA7
:107B30001B01C05C012800D170470020FCE710B594
:107B400003461468601C10600C5DF020C4520520D0
:107B500010BD000070B504460E4615462968481C45
:107B60002860705C0002F021095B0843F021085393
:107B70000021A8200153F020005B002815D094209C
:107B80000159F4200059000108180089002808D084
:107B900094200159F420005900010818C0680028F9
:107BA00001D1072070BD0620FCE7F020015B0CA08E
:107BB00004F014FE2146CC312046FFF7B5FF002823
:107BC00005D0FF20353001592046FC30884720463B
:107BD000FFF75FFC002801D00820E3E70320E1E77E
:107BE000417474726962757465204C454E20256934
:107BF000200D0A0070B504460E461546A820015B0C
:107C0000F020005B814208DAA820005B401C81B2B2
:107C1000A82001532868401C2860A820015BF020A0
:107C2000005B814215D12146CC312046FFF77CFF15
:107C3000002805D0FF20353001592046FC30884708
:107C40002046FFF726FC002801D0082070BD032045
:107C5000FCE70720FAE75F207047000030B5BFB0AF
:107C600004462079C007C00F002819D060880D494C
:107C7000FEF7FCFC0546E807C00F00280FD00A48B5
:107C8000418D6846818001218171084801786846EC
:107C9000C1716088002201A9FCF7C4FF00BF00BFCA
:107CA0003FB030BD20DDFF1F2CDDFF1F1EDDFF1F9D
:107CB00010B50248FCF7E4FE10BD00005D7CFF1F1C
:107CC000FEB50C4615461E46002001900898002877
:107CD00001DD0B20FEBD606800786168497809020B
:107CE000401887B21148874210D1FFF7B4FF0090C7
:107CF0000F4909780098884202DA0D490098087007
:107D0000012030700A48007828700CE0094887424A
:107D100007D10220307002222846E168FCF75CFEA1
:107D200001E00A2001900198D4E70000192A000020
:107D30001EDDFF1F08290000FFB583B00C46154665
:107D40000C9F002660680078616849780902401835
:107D500080B20290164902984018002821D10120D3
:107D6000009701902A462146069B0398FEF7D2FA17
:107D70000646002E14D1287869780902401880B28E
:107D800001900C480068002809D00199002901D110
:107D9000022100E00121084606490968884700BF22
:107DA00001E00A2600BF00BF304607B0F0BD00006A
:107DB000FED6FFFF18DDFF1F30B503460A4C002931
:107DC00001D1022030BD002A01D0202A01DD0B2084
:107DD000F8E701201D016055180100190281180102
:107DE0000019C1600020EDE7ECFBFF1F70B50446F1
:107DF0000D462A4621460248FFF7D8FC70BD000018
:107E0000E8FBFF1F10B504462146024804F006FABD
:107E100010BD0000E8FBFF1FF8B50446104D2E46CC
:107E2000B036A878012803D1204600F089F815E083
:107E300020791B2802D020791D280ED1277A70893D
:107E4000B84203D1204600F02BF805E0B08AB842D2
:107E500002D1204600F018F800E000BF0120F8BD74
:107E6000E8FBFF1F70B504460D46064EFF2239326F
:107E700000213046FCF7BCFD3570FF2035308451C1
:107E8000002070BDE8FBFF1F70B50446034DA27AC9
:107E900021460B312846FFF705FB70BDE8FBFF1FAD
:107EA000F0B585B00546184EAF7A082F07D017A059
:107EB00004F094FC16A004F091FC05B0F0BD2C4633
:107EC0000B3421786846017061784170A178817027
:107ED000E178C1702179017161794171A179817174
:107EE000E179C17103900821417202210172FF20E2
:107EF00035308059002804D0FF203530815902A840
:107F0000884700BFD9E70000E8FBFF1F0A00000018
:107F10004572726F7220657674206C656E0A00007F
:107F200070B50546054C2646B03635800120607098
:107F3000A070002000F004F8002070BDE8FBFF1FD7
:107F4000F0B585B00446D24E3546B03500200490D9
:107F500070780C287ED243007B449B885B009F4452
:107F60000B001100390065009A0018013E016D01F7
:107F70009301B503CF03E803C6A004F02FFC012052
:107F800005B0F0BDC9A004F029FCCEA004F026FC89
:107F90000020A8800021E980D3A001460EC9C06856
:107FA0006F460EC703903378288810226946FCF785
:107FB0003FFE0746002F04D1022070700020A870F9
:107FC00007E03946CCA004F009FCFF2070700120C6
:107FD0000490C2E3D3A004F001FC2179D7A004F0FF
:107FE000FDFB2079072815D1217ADFA004F0F6FBEC
:107FF000207A002806DD6089A880A189E980032015
:10800000707012E0DBA004F0E9FBFF20707002202A
:1080100004900AE02179E0A004F0E0FBD5A004F090
:10802000DDFBFF2070700220049096E3E4A004F0D2
:10803000D5FBE9A004F0D2FB2079072826D12179CD
:10804000D5A004F0CBFB60781A2823D1A88800289B
:1080500020D000E07CE3E88800281BD03378EA8851
:10806000A98828880390FCF7E9FD074600202872BC
:10807000002F02D10420707007E03946E3A004F01D
:10808000ADFBFF2070700320049003E02179C2A0B3
:1080900004F0A4FB61E3E8A004F0A0FBECA004F072
:1080A0009DFB2079092863D1607A152858D1204694
:1080B0000A300390002000904DE02F460A370398C5
:1080C000C078039909790902401880B20290039898
:1080D0004079039989790902401880B20190EBA098
:1080E000019A029904F07AFBF3490198401800289C
:1080F00009D0F249401800280FD0F04960314018EB
:1081000000280FD104E002983880002078800AE02F
:108110000298F8800020388105E0029878810020DC
:10812000B88100E000BF00BF287A401C2872287A7E
:10813000032809D100F090FD04900498002801D193
:10814000052000E0FF207070039815300390009820
:10815000401CC0B20090217A00988142ADDC17E04B
:10816000D7A004F03BFBFF207070062004900FE0C6
:10817000217989A004F032FB2079012808D1274613
:1081800008373B787A883979D6A004F027FB00BFFE
:10819000E3E2DCA004F022FBE0A004F01FFB207966
:1081A00009281BD160781A2818D13378AF897F1E2F
:1081B000BAB269892888FCF747FD03900398002824
:1081C00002D10620707008E0E3A004F007FB002055
:1081D0006881FF2070700720049000BFBDE2E5A019
:1081E00004F0FCFAE9A004F0F9FA2079052824D17A
:1081F000207A002821DD607A01281ED1002018E0B5
:10820000830022460A329A189378870022460A325F
:10821000BA18D27812029A1891B2EC4A914206D159
:10822000830022460A32D35AEB8107227270411C26
:10823000C8B2217A8142E3DC00BF8EE2E4A004F000
:10824000CDFAE9A004F0CAFA207905281BD160789C
:108250001A2818D13378EA8AAF8A7F1CB9B22888E5
:10826000FCF7F2FC03900398002802D108207070FC
:1082700008E0EAA004F0B2FA00212983FF20707020
:108280000820049000BF68E2EBA004F0A7FADFE149
:10829000E8FBFF1F446973636F7665727920507243
:1082A0006F67726573733A09310A0000446973633A
:1082B0006F766572792050726F67726573733A09D1
:1082C000320A0000446973636F76657279205374D3
:1082D0006174653A09446973636F766572207468E6
:1082E0006520414E43530A00D0002D121E4B0FA4AF
:1082F000994ECEB531F40579414E43535F4449530D
:10830000435F53455256494345204641494C5552D7
:10831000452C204572726F7220636F64653A09259F
:10832000640A0000446973636F7665727920507245
:108330006F67726573733A09330A000044697363A7
:108340006F766572792053746174653A0953746F5E
:1083500072652074686520414E43532068616E64E5
:108360006C65732025640A00666F756E64203A257B
:10837000640A0000414E43535F53544F52455F53CC
:108380004552564943455F48414E444C455320466B
:1083900041494C5552450A00626C655F64697363DC
:1083A0005F736572766963652D3E704D73672D3E10
:1083B0006D6574686F643A20307825780A00000093
:1083C000446973636F766572792050726F67726566
:1083D00073733A09340A0000446973636F766572F7
:1083E000792053746174653A09446973636F7665E3
:1083F000722074686520414E435320636861726146
:10840000637465726973746963730A00414E435300
:108410005F444953435F4348415253204641494CCE
:108420005552452C204572726F7220636F64653A15
:108430000925640A00000000446973636F76657261
:10844000792050726F67726573733A09350A0000BC
:10845000446973636F766572792053746174653A09
:108460000953746F72652074686520414E43532030
:108470006368617261637465726973746963732799
:108480002068616E646C65730A0000004368617265
:108490007320666F756E642068616E646C65206918
:1084A000732069732025642C2075756964206973B5
:1084B0002025780A0000000043E2FFFFC2A1FFFF71
:1084C000414E43535F53544F52455F4348415253CB
:1084D0005F48414E444C4553204641494C55524516
:1084E0000A0000004154545F4552524F525F5253AC
:1084F0005020307825782C20307825782C20307842
:1085000025780A00446973636F766572792050722A
:108510006F67726573733A09360A000044697363C2
:108520006F766572792053746174653A0944697392
:10853000636F76657220746865204E6F7469666932
:10854000636174696F6E20536F7572636527732062
:10855000434343440A000000414E43535F444953A0
:10856000435F4E535F4445534353204641494C5566
:1085700052450A00446973636F76657279205072C0
:108580006F67726573733A09370A00004469736351
:108590006F766572792053746174653A0953746F0C
:1085A000726520746865204E6F74696669636174D2
:1085B000696F6E20536F7572636527732043434361
:1085C000442068616E646C650A00000002290000A6
:1085D000446973636F766572792050726F67726554
:1085E00073733A09380A0000446973636F766572E1
:1085F000792053746174653A09446973636F7665D1
:108600007220746865204461746120536F757263D1
:1086100065277320434343440A000000414E4353FF
:108620005F444953435F44535F444553435320469B
:1086300041494C5552450A00446973636F7665722F
:10864000792050726F67726573733A09390A0000B6
:1086500047A004F0C3F82079052836D10020039004
:10866000207A002830DD607A01282DD1002718E01B
:10867000BA0021460A3151188A78BB0021460A31D6
:108680005918C9780902511888B24749884206D159
:10869000BA0021460A318A5A2A8301210391781CA3
:1086A000C7B2207AB842E3DC0398002809D13FA082
:1086B00004F094F800212983FF20707009200490B1
:1086C00001E00920707000BF00BF46E02079052856
:1086D00015D160781A2812D1E8890121FCF738FCFD
:1086E0000746002F09D03BA004F078F80021298329
:1086F000FF2070700A2004902FE00A20707000BFE5
:108700002079132814D1288B0121FCF721FC07467E
:10871000002F09D02FA004F061F800212983FF2049
:1087200070700A20049018E00C2070700220B07065
:1087300013E0207913280AD10C2070700220B07049
:108740002CA004F04BF831A004F048F805E000BF7D
:10875000FF2070700B20049000BF00BF0498002819
:1087600003D036A0049904F039F8049808E4000016
:10877000446973636F766572792053746174653AE6
:108780000953746F726520746865204461746120B8
:10879000536F7572636527732043434344206861B8
:1087A0006E646C650A00000002290000414E4353CC
:1087B0005F53544F52455F44535F44455343535FA7
:1087C00048414E444C4553204641494C5552450A78
:1087D00000000000414E43535F444154415F5352F7
:1087E000435F48444C5F43434344204641494C5512
:1087F00052450A00446973636F766572792050723E
:108800006F67726573733A0931320A0044697363A2
:108810006F766572792053746174653A0950726F8E
:1088200063657373696E67206E6F746966696361EF
:1088300074696F6E20646174610A00004469736337
:108840006F766572792053746174653A094469736F
:10885000636F76657279204572726F723A20256473
:108860000A00000010B50020054CFF212218401C12
:1088700051704028FADB04F021FA207010BD00008E
:108880005801002010B50020054CFF212218401C83
:1088900051700628FADB04F02FFA207010BD00009A
:1088A00051DEFF1F084801694907FCD5012181609D
:1088B0000549052280390A7002695207FCD50878FB
:1088C000C007C00F7047000080000811F0B5864651
:1088D000080CFF268446002388B237461C461946FA
:1088E00001228A4005461540CD402C19A4B2FF2F25
:1088F00002D1012C00D18FB265462A40CA40D2185D
:1089000093B2FF2E02D1012B00D18EB2491C102947
:10891000E6DB012C02D0102C08D009E0012B07D196
:108920003001C019714608700220F0BD102B01D033
:108930000320F0BD0120F0BD032800DA70470121BB
:1089400089078968012282401143012292079160C0
:1089500000BFF3E701480068704700001010FF1FD8
:10896000012189070968012282409143012292076F
:1089700011601146096801228240114301229207C9
:1089800011607047F8B504460F4615462968481C23
:108990002860795CA12001552046CC30FF210131AF
:1089A0000851A120005D002802D0012817D10AE05B
:1089B0000321FC200155201D9421085108219820F5
:1089C0000151012610E00421FC200155204684308D
:1089D00094210851012198200151022604E004A0AD
:1089E00003F0FCFE082600BF00BF3046F8BD0000C3
:1089F000496E76616C696420436F6D6D616E6420B1
:108A000049440000FFB583B00F461D460D9E0C9CE7
:108A10000020029078680078796849780902401847
:108A200080B20190714A0198811A904268D00ADCA4
:108A30006F49401800280FD0012822D0022835D0D5
:108A4000032872D147E0012973D002296FD003298E
:108A50006ED02929F5D1ABE0082C02D30720029073
:108A60000EE00820001BB04201D9304601E008208A
:108A7000001B28702A785F4801190598FBF7ACFFA6
:108A8000B0E00C2C02D3072002900EE00C20001B5B
:108A9000B04201D9304601E00C20001B28702A7832
:108AA000554801190598FBF797FF9BE00D2C02D361
:108AB000072002900EE00D20001BB04201D9304685
:108AC00001E00D20001B28702A784C4801190598F8
:108AD000FBF782FF86E0112C02D3072002900EE004
:108AE0001120001BB04201D9304601E01120001BCB
:108AF00028702A78424801190598FBF76DFF71E04C
:108B0000112C02D3072002900EE01120001BB0426E
:108B100001D9304601E01120001B28702A7839481D
:108B200001190598FBF758FF5CE056E001E015E0FD
:108B300029E0112C02D3072002900EE01120001B27
:108B4000B04201D9304601E01120001B28702A787C
:108B50002D4801190598FBF73FFF43E0112C02D384
:108B6000072002900EE01120001BB04201D93046D0
:108B700001E01120001B28702A782448011905986B
:108B8000FBF72AFF2EE00E2C02D3072002900EE006
:108B90000E20001BB04201D9304601E00E20001B20
:108BA00028702A781A4801190598FBF715FF19E073
:108BB000072C02D3072002900EE00720001BB042D2
:108BC00001D9304601E00720001B28702A7811489F
:108BD00001190598FBF700FF04E0002028700A2027
:108BE000029000BF00BF029807B0F0BD272A000026
:108BF000DDD5FFFF35D8FF1FC0D4FF1FCDD4FF1F29
:108C0000DBD4FF1FEDD4FF1FFFD4FF1F11D5FF1FC3
:108C100023D5FF1F45D8FF1F064801694907FCD52A
:108C200000218160034A0421803A117001694907DB
:108C3000FCD5704780000811064801694907FCD53A
:108C400000218160034A0621803A117001694907B9
:108C5000FCD5704780000811FEB5002002904948FD
:108C60000190B0300090009804460A342588E688C8
:108C70006789BE4201DA304600E03846A84206DD88
:108C8000BE4201DD384600E03046608010E0BE4262
:108C900001DA384600E03046A84206DDBE4201DD7A
:108CA000304600E03846608002E00098C08860806E
:108CB000BD4201DA284600E03846B04206DDBD423A
:108CC00001DD384600E02846208110E0BD4201DA8F
:108CD000384600E02846B04206DDBD4201DD2846A8
:108CE00000E03846208102E00098C0882081B5422B
:108CF00001DA284600E03046B84206DDB54201DD23
:108D0000304600E02846A08110E0B54201DA304646
:108D100000E02846B84206DDB54201DD284600E005
:108D20003046A08102E00098C088A08120880028F9
:108D30001ED0E08800281BD06089002818D0208829
:108D4000618888420BDAE0882189884207DA6089E5
:108D5000A189884203DA0CA003F040FD10E010A0C6
:108D600003F03CFDFF21019841700420029007E0D0
:108D70000BA003F033FDFF21019841700520029004
:108D80000298FEBDE8FBFF1F416C6C2063686172B6
:108D90007320646973636F7665726965640A0000A5
:108DA000414E43535F53544F52455F4348415253E2
:108DB0005F48414E444C4553204641494C5552452D
:108DC0000A00000003460002012100B5000A490321
:108DD00088421BD3FFF766FD0028FBD1FFF72CFF6D
:108DE0000B490020886019021804090E0843FF216E
:108DF00009020B4018430649000280392030086000
:108E0000FFF750FD0028FBD1FFF706FF00BD000073
:108E10008000081110B507480068002806D00548F2
:108E20000068FBF70FFE0020024908600A20024993
:108E3000087010BDFCD9FF1FFAD9FF1F7FB504468B
:108E40000D465D480068002813D1002C01D0002D8C
:108E500002D1012004B070BD204600F069FA5749E4
:108E60000870084600780A2803DB00F08BFA5349A3
:108E70000870524800780A287EDA4F4800680028B7
:108E800023D14E490978062251432031C8B22246E7
:108E90000E2103F03BFC1022FF216846FBF7A8FDE2
:108EA000464909787031C8B26A46102103F02EFC99
:108EB000424909780E225143414A88180E22214620
:108EC000FBF78AFD3C48056071E03B48006880681C
:108ED000002810D0384909688A683849097806237B
:108EE00059432131C8B21C2103F010FC0020324943
:108EF000096888605BE0304800680069002810D08D
:108F00002D4909680A692D490978062359432231F8
:108F1000C8B21C2103F0FAFB002027490968086148
:108F200045E0254800684069002810D022490968BA
:108F30004A6922490978062359432331C8B21021CE
:108F400003F0E4FB00201C49096848612FE01A483F
:108F50000068C068002820D017490968CA68174906
:108F60000978062359432431C8B2102103F0CEFBFF
:108F700011490968C96800E01BE00A4610320F4930
:108F80000978062359432531C8B2042103F0BEFBFA
:108F9000002009490968C86009E00A4800780028EB
:108FA00001D000F0DBFB00F0F7FB012052E70020CE
:108FB00050E701204EE70000FCD9FF1FFAD9FF1F40
:108FC00050F9FF1FF8D9FF1F70B588B004460D4651
:108FD0001646202200216846FBF70AFD68460480F9
:108FE00043480178684601714248017868464171FA
:108FF00041480178684601770698400840003F499B
:109000000978C907C90F08430690022106988843CA
:109010003A490978022211404908490011400843A1
:109020000690D101069888433449097808221140F6
:10903000C9080902520111400843069051000698E0
:1090400088432E490978102211400909490252012A
:109050001140084306905100069888432749097833
:10906000202211404909890252011140084306900B
:10907000042106988843214909780422114089086F
:1090800089001140084306901A480078002805D04E
:1090900010221B4901A80230FBF79EFC19480078FA
:1090A000002806D0002D04D0022106988843801C99
:1090B00006906846807D13490978002901D0012176
:1090C00000E000210843694688756846807D0E49A6
:1090D0000978002901D0042100E0002108436946F5
:1090E000887531466846FBF7B5FD08B070BD0000D5
:1090F000E5D9FF1FE6D9FF1FF0D9FF1FEAD9FF1FEF
:1091000040F9FF1FE7D9FF1FE4D9FF1FFFB587B064
:109110000C4616461F46082F05D120460621484317
:109120002230C5B204E02046062148432130C5B2B2
:109130001C2200216846FBF75BFC6A461C2128467E
:1091400003F0B8FA00280ED16846807E07280ADBB3
:109150006846807E102806DCF107C90F6A46109B1E
:109160000798FBF77DFD0BB0F0BD000070B5002542
:1091700000240DE00E216143074A88180622FF21D2
:10918000FBF73CFC002801D1681CC5B2601CC4B2CE
:109190000A2CEFDB284670BD50F9FF1FF0B585B0F3
:1091A00005460E4617462946062251432031C8B2CD
:1091B0006A460E2103F07EFA002824D10622FF2100
:1091C0006846FBF71BFC00281DD168468089C4B2A5
:1091D000002F03D020463043C4B202E02046B04303
:1091E000044668468089A0420AD0684684812946A0
:1091F000062251432031C8B26A460E2103F086FA96
:10920000012005B0F0BD0020FBE770B5002500246B
:1092100005E0204600F00AF80546601CC4B20A2C9E
:1092200001DA002DF5D0284670BD000030B58FB0B2
:1092300004463D48007884420BD101213B48007828
:10924000FBF714FD022139480078FBF70FFDFFF70B
:10925000E1FD2146062251432031C8B20BAA0E215E
:1092600003F028FA00285AD10622FF210BA8FBF7A9
:10927000C5FB002853D10E22FF210BA8FBF7B8FB3A
:109280001C22FF2104A8FBF7B3FB1022FF21684634
:10929000FBF7AEFB2146062251432031C8B20BAA90
:1092A0000E2103F033FA05462146062251432131AF
:1092B000C8B204AA1C2103F029FA0543214606225C
:1092C00051432231C8B204AA1C2103F01FFA0543FE
:1092D0002146062251432331C8B204AA102103F0CB
:1092E00015FA05432146062251432431C8B204AA87
:1092F000102103F00BFA0543214606225143253184
:10930000C8B204AA042103F001FA054321467031D2
:10931000C8B26A46102103F0F9F9054300E00025C0
:1093200028460FB030BD0000FAD9FF1FE0D9FF1F5B
:1093300070B5054600240DE00E216143074A8818E8
:1093400006222946FBF798FC002801D0204670BD74
:10935000601CC4B20A2CEFDB0A20F8E750F9FF1FAB
:1093600003460A46002108E08800105A984202D1BC
:10937000880080187047481CC1B20429F4DB002023
:10938000F8E7000010B500240DE00E216143084A03
:1093900088180622FF21FBF731FB002801D0204668
:1093A00010BD601CC4B20A2CEFDB0A20F8E70000F5
:1093B00050F9FF1F70B5054600240EE00E216143F1
:1093C000084A8918881D06222946FBF755FC002803
:1093D00001D0204670BD601CC4B20A2CEEDB0A200E
:1093E000F8E7000050F9FF1F7FB504460D460A2C30
:1093F00001DA002D02D1022004B070BD2146062200
:1094000051432031C8B26A460E2103F053F9064693
:10941000002E04D1062269462846FBF7DDFA3046C5
:10942000EAE71FB504462146062251432031C8B25F
:109430006A460E2103F03EF9002804D1684680896F
:10944000C0B204B010BD0020FBE7014600200DE0D3
:1094500082008A5AD2438300CA52820052189278FC
:10946000D24383005B189A70421CD0B20428EFDB11
:109470007047000010B5002426E00E216143184B10
:10948000CA182146062359432031C8B20E2103F0E1
:1094900011F9002816D00E216143114A88180622BE
:1094A000FF21FBF7A5FA0E2161430D4A8918881D9B
:1094B0000622FF21FBF79CFA00210E206043084A98
:1094C00080188181601CC4B20A2CD6DB0548007864
:1094D000002801D000F042F900F05EF910BD000054
:1094E00050F9FF1FF8D9FF1F7FB5054600241CE087
:1094F0002146062251432331C8B26A46102103F0A7
:10950000D9F800280FD11022FF216846FBF776FA20
:10951000002808D129466846FBF7B4FB002802D191
:10952000204604B070BD601CC4B20A2CE0DB0A20E7
:10953000F7E7000010B50446608802490978FDF796
:10954000E3F810BDE0D9FF1F70B5054600240A48B6
:109550000078002801D0012000E0002004430748E3
:109560000078002801D0042000E0002004432146B8
:109570002846FBF78DFB70BDE7D9FF1FE4D9FF1F1D
:10958000F0B589B006460F461446314606225143CF
:109590002031C8B205AA0E2103F08CF8002851D161
:1095A0000622FF2105A8FBF729FA00284AD13146F7
:1095B0007031C8B201AA102103F07CF800283FD115
:1095C000009001A8FFF741FF002F0ED110220021CB
:1095D00001A8FBF713FA002824D11022002101A8CA
:1095E000FBF706FA012000901CE001A93846FFF7BE
:1095F000B7FE0546002D0AD1002C04D001A9FFF7C3
:10960000AFFE051E02D1002009B0F0BD2F80A87862
:10961000A04206D0AC70002C01D10020288001208F
:10962000009000BF0098002809D001A8FFF70DFFA7
:1096300031467031C8B201AA102103F067F800BFAB
:109640000120E1E70020DFE710B5044620791E285D
:1096500004D160880021FCF749F800E000BF00BF9A
:1096600010BD70B504462079002806D125462A8908
:10967000E9886888FCF79EF900E000BF00BF70BD74
:1096800070B5044601252078B02808D0B1280AD04A
:10969000D0280CD12046FBF7A7FE054608E020465F
:1096A000FFF7D2FF04E02046FFF7DBFF00E000BF3A
:1096B00000BF284670BD000030B585B00546234880
:1096C0000068002809D122480223224A224900903A
:1096D0000120FBF7E3FA1D4908601C4800680028D8
:1096E0002AD00220002104AA03AB0092019102902B
:1096F00017480288154801682846FCF765FE0028CF
:109700000FD16946087B497B0902401884B2002CBE
:1097100006D00E480068418922462846FCF74AF9DF
:1097200000BF00230A4802880B4908480068FBF77D
:1097300013FA0649086000BF04480068002802D1F7
:10974000012005B030BD0020FBE7000000DAFF1F5C
:1097500004DAFF1F287C0100FFFF000010B5FBF7B3
:10976000A3FA002412E00E2161430A4A8818062257
:10977000FF21FBF743F9002806D10E206043054A7C
:1097800081180020FBF796FA601CC4B20A2CEADBB1
:1097900010BD000050F9FF1F08B5FFF7E7FC0128D6
:1097A00002DD0220009001E00A2000906A460121BB
:1097B0000520FDF723F808BD08B50E4800780028FD
:1097C00015D0012802D0022810D10CE00120009011
:1097D000094803880948028809480188094800881F
:1097E000FCF7F0FA04E0FCF7EBFC01E000BF00BF7F
:1097F00000BF08BDE8DAFF1FE0DAFF1FDEDAFF1F57
:10980000DCDAFF1FDADAFF1FF8B504460026A0787D
:109810000300FBF7DBF80805FE214A4B8FE3FDFE52
:1098200025466F78002F10D10622E91CA748FBF7C8
:10983000D3F80120A6490870A64BA7480278012159
:10984000A6480078FBF74CF90746002F02D0072006
:109850009F490870012625E12546687800281CD11B
:10986000E878002809D09E4B9E48027800219B484A
:109870000078FBF735F968700FE09548007802280A
:109880000BD0012195480078FBF730F9002804D16E
:10989000012192480078FBF7DBF86878002803D0B4
:1098A00007208B4908700126FCE000BF2546687838
:1098B00000283AD1A07803280BD1854800780528E4
:1098C00003D106208249087032E0022080490870E6
:1098D0002EE08548008800280BD0844800780028B6
:1098E0000AD08148028801217C480078FBF7E6F81D
:1098F00002E000207D49087075480078062803D1F1
:1099000005207349087013E071480078042808D1D5
:10991000012076490870012170480078FBF798F81B
:1099200006E003206A49087002E0072068490870D1
:109930000126B7E025466878002840D10622291D77
:109940006B48FBF749F868896A490880A8896A4921
:109950000880E8896949088005205D4908706848E1
:109960000088002806D06648028802215B480078FB
:10997000FBF7A4F8A88963490880E8896249088050
:10998000288A624908806248007801280DD11F208A
:10999000FBF728F807467D20C000784302460421E3
:1099A0004E480078FBF78AF800BF6A89E8780423FC
:1099B000291DFBF71DFC00204C4908700CE068785D
:1099C000312806D100204949087003204049087019
:1099D00002E007203E490870012663E02546062282
:1099E00000214348FBF704F8002046490880464917
:1099F000088046490880042138480078FBF764F85D
:109A0000082136480078FBF75FF8A879082801E0BC
:109A10001FE046E003D104202D49087002E0032036
:109A20002B490870012631480078002804D02B48C3
:109A30000078FBF74FF807E001202C49087001215E
:109A400026480078FBF704F80020C0432949088025
:109A500028E02546082121480078FBF735F868788A
:109A600000281DD1E88827490880288926490880D0
:109A7000688926490880042118480078FBF736F8E1
:109A800000280DD123480068002809D0214800682B
:109A900003681E4802881C4801881A4800889847B5
:109AA00000E000BF00BF012E0ED11B480068002857
:109AB0000AD0194800680068002805D016480068D8
:109AC0000168034800788847F8BD000094DAFF1F5A
:109AD0008DDAFF1F9FDAFF1F9EDAFF1F8CDAFF1F50
:109AE0001CFAFF1FBEDAFF1F9CDAFF1F9ADAFF1F66
:109AF000D2DAFF1FCADAFF1FCCDAFF1FCEDAFF1F50
:109B0000D0DAFF1FE2DAFF1FE4DAFF1FE6DAFF1FF9
:109B1000D8DAFF1FF0DAFF1FECDAFF1FF8B50446B2
:109B20002078912804D0A22841D0D02861D13AE0F1
:109B300060780E2828D12546A8882F49884217D159
:109B4000A868C07846B22D48007805280FD17F2E2E
:109B50000DD02B480068002809D0294800684068CB
:109B6000002804D0264800684168304688470AE04B
:109B7000A8882449884206D1A86883784278017869
:109B800021A002F02BFE0DE060780F2801D12046C5
:109B900008E060783E2805D120468178072900D06A
:109BA00000BF00BF26E02046FFF72EFE22E025463C
:109BB000687913281CD12E460836308801280BD12D
:109BC00016480078022807D1082115480078FAF7CE
:109BD0007BFFFCF7F5FA0AE00520FAF703FF0746DA
:109BE0003A4608210E480078FAF768FF00BF00BF28
:109BF00000E000BF00BFF8BD051400008DDAFF1FB4
:109C0000ECDAFF1F222000005B48434920444C450A
:109C10005D25642025642025640A0000E8DAFF1F22
:109C20008CDAFF1F1CB506480649074B002200913D
:109C300001900648017806480078FCF7D7FA1CBD69
:109C400090DAFF1F0CFAFF1FFCF9FF1F8EDAFF1FCF
:109C50008CDAFF1F7CB504461E4800881E4909881F
:109C6000884211DB1B4800881C49098888420BDCAC
:109C70001B4800881B490988884205D11A4800887A
:109C80001A490988884223D00520FAF7ABFE054619
:109C90001148018868460180104801886846418063
:109CA0001048018868468180104801886846C18054
:109CB0000F48027869460F480088FBF701F80E4804
:109CC00004702A4608210A480078FAF7F7FE00BF18
:109CD0007CBD0000E2DAFF1FDADAFF1FDCDAFF1FCB
:109CE000E4DAFF1FDEDAFF1FE6DAFF1FE0DAFF1F0C
:109CF0008CDAFF1FCADAFF1FE8DAFF1FF8B5064645
:109D00000F46304600F046F80446002C06D11148B4
:109D100000F040F80446002C00D02680002C17D01C
:109D2000002511E0F82068436168085A002809D12D
:109D3000F821694362685018F8223946FAF74CFE58
:109D40000020F8BD681CC5B2034800788542E9DBF5
:109D50000920F6E7FFFF000088D9FF1F70B5054610
:109D6000284600F037F80446002C00D170BDA068EA
:109D7000FCE703460A46002108E08800105A984292
:109D800002D1880080187047481CC1B20229F4DB58
:109D90000020F8E70246002109E0C800064B185AE7
:109DA000904202D1C800C0187047481CC1B20129B6
:109DB000F3DB0020F8E7000080D9FF1F70B50546EF
:109DC000284600F007F80446002C00D170BD20683A
:109DD000FCE7000002460648016805E088889042DA
:109DE00001D18868704709680029F7D10020F9E798
:109DF0008CD9FF1F70B505462846FFF7EBFF0446D8
:109E0000002C00D170BD6068FCE70000F3B581B0A4
:109E10000C46012C07D0022C29D101210198FAF718
:109E2000CFFD002823D10198FFF7B4FF0546002D90
:109E300018D000260EE0F820704369680F183888A3
:109E4000002800D10AE0F82200213846FAF7D0FDB8
:109E5000701CC6B2064800788642ECDB00BF0020CA
:109E6000C043288003490198FCF72EFA00BFFEBDCD
:109E700088D9FF1F92D9FF1F70B50446044D0548CD
:109E80000088288060882946FAF720FF002070BDEE
:109E900046F8FF1FEE10FF1FF3B585B005462846B4
:109EA0000830049000276888FFF774FF0646002EEC
:109EB00035D00020039029E07168F82203985043C0
:109EC0000C182088002800D125E00498007801288B
