:020000041FFFDC
:100800000000000081BDFF1FE4D5FF1F08D6FF1FB9
:1008100064DBFF1F0000000000000000000000007B
:1008200000000000000000000000000000000000C8
:1008300000000000000000000000000000000000B8
:1008400000000000000000000000000000000000A8
:100850000000000000000000000000000000000098
:100860000000000000000000000000000000000088
:100870000000000000000000000000000000000078
:100880000000000000000000000000000000000068
:100890000000000000000000000000000000000058
:1008A0000000000000000000000000000000000048
:1008B0000000000000000000000000000000000038
:1008C0000000000000000000000000000000000028
:1008D0000000000000000000000000000000000018
:1008E0000000000000000000000000000000000008
:1008F00000000000000000000000000000000000F8
:1009000000000000000000000000000000000000E7
:1009100000000000000000000000000000000000D7
:1009200000000000000000000000000000000000C7
:1009300000000000000000000000000000000000B7
:1009400000000000000000000000000000000000A7
:100950000000000000000000000000000000000097
:100960000000000000000000000000000000000087
:100970000000000000000000000000000000000077
:100980000000000000000000000000000000000067
:100990009DAAFF1F61ABFF1F19C9FF1F00000000C8
:1009A0000000000000000000000000000000000047
:1009B0000000000000000000000000000000000037
:1009C0000000000000000000000000000000000027
:1009D0000000000000000000000000000000000017
:1009E0000000000000000000000000000000000007
:1009F00000000000000000000000000000000000F7
:100A000000000000000000000000000000000000E6
:100A100000000000000000000000000000000000D6
:100A200000000000000000000000000000000000C6
:100A300000000000000000000000000000000000B6
:100A400000000000000000000000000000000000A6
:100A50000000000000000000000000000000000096
:100A60000000000000000000000000000000000086
:100A70000000000000000000000000000000000076
:100A80000000000000000000000000000000000066
:100A90000000000000000000000000000000000056
:100AA0000000000000000000000000000000000046
:100AB0000000000000000000000000000000000036
:100AC0000000000000000000000000000000000026
:100AD0000000000000000000000000000000000016
:100AE0000000000000000000000000000000000006
:100AF00000000000000000000000000000000000F6
:100B000000000000000000000000000000000000E5
:100B100000000000000000000000000000000000D5
:100B200000000000000000000000000000000000C5
:100B300000000000000000000000000000000000B5
:100B400000000000000000000000000000000000A5
:100B50000000000000000000000000000000000095
:100B60000000000000000000000000000000000085
:100B700009AFFF1F0000000000000000000000009F
:100B80000000000000000000000000000000000065
:100B900000000000519DFF1F000000000000000049
:100BA000000000000000000000000000899EFF1F00
:100BB0000000000000000000F99DFF1F419EFF1F84
:100BC000359DFF1F00000000000000000000000035
:100BD0000000000000000000000000000000000015
:100BE0000000000000000000000000000000000005
:100BF00000000000759CFF1F0000000000000000C6
:0C0C000001FF01FF01FF01FF41000000A7
:020000041FFFDC
:1048000058090020D548FF1FDD48FF1FDF48FF1F64
:104810000000000000000000000000000000000098
:10482000000000000000000000000000E148FF1F41
:104830000000000000000000E348FF1FE548FF1FE4
:104840000000000000000000000000000000000068
:104850000000000000000000000000000000000058
:104860000000000000000000000000000000000048
:104870000000000000000000000000000000000038
:104880000000000000000000000000000000000028
:104890000000000000000000000000000000000018
:1048A0000000000000000000000000000000000008
:1048B00000000000000000000000000000000000F8
:1048C0000348854600F0F6FB004800474DBCFF1F3B
:1048D000580900200448804704480047FEE7FEE7E7
:1048E000FEE7FEE7FEE7FEE7BD68FF1FC148FF1FCA
:1048F000F0B51FB40646002082B005464024019161
:1049000000901BE0019922460F46304600F0A6FABF
:10491000049A059B801A994110D3104619462246E5
:1049200000F08CFA361A8F410197224601200021AF
:10493000009F00F083FA38184D4100902046641E15
:104940000028DFDC019B00982946324607B0F0BD05
:10495000F0B51FB486B00020009001900290069838
:10496000069980B204900798090C020400141143C0
:1049700007900027089D099806913E463C46039003
:104980000398A9B20204000C039004982D0C15435F
:1049900048430021224600F051FAC71971411034F2
:1049A0000E46402CECDB3846029A00F047FA009A9B
:1049B000019B80180090594102980191103002909B
:1049C0004028CCDB00980BB0F0BD000038B50446A1
:1049D000C0681821401E4843A16840183C21484344
:1049E000616840183C2148432168451860690C21E2
:1049F0004843216940186921C900401A302100F05C
:104A0000FDFB114A50434219084600921A2902DB65
:104A10000E49511800910C2100F0F0FB0C4A504354
:104A2000009A801800900B4806E0491E425C074B34
:104A30005A43009BD21800920029F6DC21466846B2
:104A400000F026FA009838BD801F860780510100CB
:104A50008033E101DCD6FF1F03460B439B0703D0E5
:104A600009E008C9121F08C0042AFAD203E00B7833
:104A70000370401C491C521EF9D27047D2B201E0AB
:104A80000270401C491EFBD270470022F6E710B5A9
:104A900013460A4604461946FFF7F0FF204610BDAC
:104AA00010B5002200E0521C835C8C5CA34201D153
:104AB000002BF8D1D8B2E1B2401A10BD70B5104D3C
:104AC000002800D12868002414E00A4602E09E4233
:104AD00003D0521C1378002BF9D1DAB2224307D04D
:104AE000002B06D0002C04D000210170401C04E0F3
:104AF0000446401C0678002EE7D12860204670BD91
:104B0000ACDCFF1F70B5064602F0ECF80468054601
:104B10000A220021304600F0F5F92C6070BDF8B58E
:104B200002464A40D40F42004B0052085B089A42AA
:104B300002D20246084611464A0023D0C30D4A005D
:104B4000DDB2120EAD1A202D35DA49020126490ACE
:104B5000F6058A19002C00D0524220214F1B114625
:104B6000B9402A411018C20D9A4221D0002C17D00A
:104B7000012D08DCDA05801AD20F8019D207DBB2CA
:104B800000F000FAF8BDDA05801A012340001B0688
:104B9000C01880185A428018CA0F1043490007E015
:104BA0004908C2071143DA05801A801940088018A5
:104BB00000F0E0F9F8BD61000122511A001BF7E78F
:104BC0000122D2075140AAE70122D2075040A6E7AE
:104BD000024670B54A40D30FDB0740002DD04A0093
:104BE0002AD0010E140E000212020919400A520ABC
:104BF0008418E50104465443000A120A2E04504367
:104C0000A4194219200CC543AA18120C0125AD03A2
:104C1000521C521912047F39240400D0521C104334
:104C200001D44000491EC2B20C06C0092018401C25
:104C30004008802A02D003E0002070BD40084000F8
:104C4000002900DA0020184370BD70B502464A40C2
:104C5000D50F40004A00ED0740085208002814D044
:104C6000002A12D0C40DD30D41020120C00552020A
:104C7000490A520AE41A091812187D34914201D3E4
:104C8000641C00E04900002C01DA002070BD002304
:104C9000914201D3891A0343400849000028F7D103
:104CA00000290AD0914202D10121C90705E09142B1
:104CB00001D2012101E00121C943E005C0184019DA
:104CC00000F058F970BD0000F0B50C465C4085B0AE
:104CD000E40FE40703944C0000266408590094464E
:104CE000490802460296224321D062460A431ED05A
:104CF0006200570D4A000E032303550D012402469E
:104D00002C492405781B1B0B360B401823432643E4
:104D1000614600901C46501AB44103D30098401CD1
:104D2000009002E0921800985B41002803DA00200E
:104D3000014605B0F0BD0020012109050746864661
:104D400011E064461D46141BB54106D36546521B4F
:104D5000B341744607430C43A646CD0740084908B3
:104D6000284392185B4105460D43EAD1104618438B
:104D700013D06046194650407140084306D0604643
:104D8000101AB34106D20122002306E000220123BB
:104D9000DB0702E00122D24353100098744601055C
:104DA000381C6141029C039D0019694100F023F900
:104DB000BFE70000FD030000C217C10F504010B54F
:104DC0004018CA079623002100F0DCF810BD10B58A
:104DD00000229623114600F0D5F810BD0EB5C2177B
:104DE000C10F5040CA0740180021054B02930192A1
:104DF00000910A460B4600F00BF903B000BD00001D
:104E000033040000CB0FDB07490010B54908024608
:104E10000A4307D00A0D07240903E401090B121BFA
:104E2000002A01DC002010BDC900440F0C43C10062
:104E3000E018D205801800F09DF810BD10B5202AAA
:104E400004DB0146203A9140002010BD9140202310
:104E50009C1A0346E3401943904010BD10B5202A28
:104E600004DB0846203AD040002110BD0B46D34059
:104E7000D0402024A21A91400843194610BD0000DA
:104E800010B5024900F004F810BD00002801002010
:104E900070B50C4600683C2100F0B6F921603C2159
:104EA00000F0B2F96160182100F0AEF90546A1608A
:104EB0000721001D00F0A8F9A1610F48A9000818FA
:104EC0000E4900F0A1F90246443288086261E061AF
:104ED0003B2802D3910700D0401C0021084B0A4612
:104EE0002161995C814203D8401A521C2261F8E783
:104EF000401CE060204670BD6C0B0000B505000052
:104F0000E8D6FF1FF7B5009C0F4600262578641CE5
:104F1000002D05D000F0E0F80068405DC007F5D135
:104F20002B2D02D02D2D18D0641E39462046029A12
:104F300000F0D6F8002F04D03968A14201D10099C1
:104F400039607105022400290BDA4042002803DD94
:104F500001F0C8FE0460A007FEBD012080020643E8
:104F6000E3E70028F8DA01F0BDFE04600048FEBD6A
:104F7000FFFFFF7F002904DA401C490001D14008EF
:104F80004000704770B40024050C05D110240004C3
:104F900002D1002921D01124050E01D100020834CC
:104FA000050F01D10001241D850F01D18000A41C33
:104FB000002801DB4000641C002908D020252E1B9E
:104FC0000D46F540A14000D00121294308430106C8
:104FD0001B1B000ADB1D02D5002070BC7047DB05DF
:104FE000181880180029F8DA401C4900F5D170BC67
:104FF00040084000704710B5002B08DA0024401C20
:10500000614192185B411A4301D14008400010BD34
:10501000F0B51FB482B005460C0003D0084601F07D
:105020004DFD02E001F04AFD20300246009021468D
:105030002846FFF703FF049B059A04460F461843D2
:105040001143084314D0184610431BD00098402148
:105050000A1A18460599FFF701FF05460E46009A01
:1050600005990498FFF7EAFE084305D0012004E003
:105070002046394607B0F0BD0020C11705430E4356
:105080002C43374300990E986305401A7905E40ACA
:1050900000220C43FD0A0A3002D500200146E9E750
:1050A0000105101969410C9C0D9D00196941FFF71C
:1050B000A2FFDFE7064C0125064E05E0E36807CCBA
:1050C0002B430C3C98471034B442F7D3FFF7FCFB5A
:1050D000DCD7FF1F2CD8FF1F0048704778D7FF1F71
:1050E000F7B582B0029C00272078641C1546019712
:1050F000302802D0002D15D015E020780127641C3F
:10510000782804D0582802D0002D09D00BE0002DBB
:1051100001D0102D07D1002710252078641C02E053
:10512000082500E00A250026009610E000990127D6
:1051300069430818020C294680B2714300908E180A
:105140003804864201D3012001902078641C29464E
:1051500000F019F80028E9DA0398002805D0002F9C
:1051600001D0641E00E0029C04600198002806D073
:1051700001F0B8FD02210160C81E05B0F0BD009924
:1051800030040843F9E73A2800D230382023024699
:105190009A43412A01D310463738884201D3002070
:1051A000C043704770B58C180578401C6B075B0FC7
:1051B00001D10378401C2A1106D10278401C03E07B
:1051C00006780E70401C491C5B1EF9D12B0705D4D4
:1051D0000023521E0DD40B70491CFAE70378401CC3
:1051E000CB1A921C03E01D780D70491C5B1C521EEB
:1051F000F9D5A142D8D3002070BD000003B4014806
:10520000019001BD9502000003B40148019001BD69
:105210006902000003B40148019001BDC13C0100D6
:1052200003B40148019001BDED3C010003B4014805
:10523000019001BDC93A010003B40148019001BDCC
:105240005518000003B40148019001BD3518000055
:1052500003B40148019001BD7181000003B401480D
:10526000019001BD3914000003B40148019001BD53
:105270001117000003B40148019001BDF13E010087
:1052800003B40148019001BD1B3D010003B4014876
:10529000019001BD7114000003B40148019001BDEB
:1052A000C131000003B40148019001BDB1420100C9
:1052B00003B40148019001BDD542010003B4014887
:1052C000019001BDC912000003B40148019001BD65
:1052D0003D42010003B40148019001BD5D19000089
:1052E00003B40148019001BD593A010003B40148DB
:1052F000019001BDC118000003B40148019001BD37
:105300003515000003B40148019001BD41170000AC
:1053100003B40148019001BDE915000003B4014840
:10532000019001BD897B000003B40148019001BDDB
:10533000D520000003B40148019001BDA5E500009F
:1053400003B40148019001BD3D1C000003B40148B5
:10535000019001BD0D1D000003B40148019001BD85
:105360008306000003B40148019001BD0143010020
:1053700003B40148019001BDE120000003B40148DD
:10538000019001BDF53C010003B40148019001BD4D
:105390005D3F010003B40148019001BDDD21000023
:1053A00003B40148019001BD5171000003B40148EC
:1053B000019001BD9D19010003B40148019001BD98
:1053C0003921010003B40148019001BD8D44010061
:1053D00003B40148019001BD5590000003B4014899
:1053E000019001BD3543010003B40148019001BDA6
:1053F0007D3A010003B40148019001BD913F0100D5
:1054000003B40148019001BDA942010003B4014861
:10541000019001BD1910000003B40148019001BDC5
:10542000A53C010003B40148019001BD39170000FB
:1054300003B40148019001BD8117000003B4014885
:10544000019001BDD136000003B40148019001BDB7
:1054500001E6000003B40148019001BD6D070000A2
:1054600003B40148019001BDBD07000003B4014829
:10547000019001BD891C000003B40148019001BDE9
:10548000E907000003B40148019001BD3D07000099
:1054900003B40148019001BD211A000003B4014882
:1054A000019001BD050E000003B40148019001BD4B
:1054B0002D0E000003B40148019001BD89220000B7
:1054C00003B40148019001BD610E000003B401481E
:1054D000019001BD9D0E000003B40148019001BD83
:1054E000D50E000003B40148019001BDFD0E00007F
:1054F00003B40148019001BD610F000003B40148ED
:10550000019001BDED3A010003B40148019001BDD5
:105510004F03000003B40148019001BDE99700006A
:1055200003B40148019001BD3D98000003B4014857
:10553000019001BDE58D000003B40148019001BD5B
:105540004977010003B40148019001BDCDEA000094
:1055500003B40148019001BDE1EA000003B4014831
:10556000019001BD09F0000003B40148019001BDA4
:10557000A5EB000003B40148019001BDE91D010045
:1055800003B40148019001BD1120010003B401489A
:10559000019001BD4920010003B40148019001BD03
:1055A000F504010003B40148019001BD411201005E
:1055B00003B40148019001BDFD0A010003B4014894
:1055C000019001BDD90E010003B40148019001BD55
:1055D00005BF000003B40148019001BD95E800003B
:1055E00003B40148019001BD8DE9000003B40148F6
:1055F000019001BDF53B000003B40148019001BDDD
:10560000A5E6000003B40148019001BD71E9000066
:1056100003B40148019001BD51E8000003B4014802
:10562000019001BDFD02010003B40148019001BDDC
:10563000D1EF000003B40148019001BD1DE9000055
:1056400003B40148019001BDC9BE000003B4014884
:10565000019001BD55F7000003B40148019001BD60
:1056600051FD000003B40148019001BD3D0001005F
:1056700003B40148019001BDA9E0000003B4014852
:10568000019001BD9509010003B40148019001BDDD
:10569000A525010003B40148019001BDCD1C010006
:1056A00003B40148019001BD4956010003B401480B
:1056B000019001BD8D3C010003B40148019001BD82
:1056C000E55B000003B40148019001BDE129000041
:1056D00003B40148019001BD9937000003B40148AB
:1056E000019001BD5114000003B40148019001BDB7
:1056F000091F000003B40148019001BDA579000015
:1057000003B40148019001BD4103000003B4014806
:10571000019001BDC91F000010B5034A13210348C1
:1057200000F01EFF10BD00006CD5FF1F48D8FF1F02
:10573000F8B504460D4616460027002C05D12A462A
:1057400031460448FFF766FD01E0022700BF00BFB5
:105750003846F8BD31D8FF1FFFB58DB000200B9043
:105760000C900BAA0E990D9800F086F804460A2CAE
:105770005EDA204602F0D7FE05463448007802285B
:1057800001D1012000E0002000902A462146109B14
:105790000F9802F04AFE1422002106A8FFF740FDF0
:1057A0002146062251432431C8B206AA102106F030
:1057B00021FB002815D11022FF2106A8FFF736FD96
:1057C00000280ED12146062251432531C8B20AAA2B
:1057D000042106F00FFBE907C90F06AA0F98FFF78F
:1057E0002BFD21467031C8B202AA102106F002FB3F
:1057F000002813D102A802F0AAFE00260CE0B00097
:1058000002A947183888002804D0BA7839880F9838
:1058100000F0F6FE701CC6B2042EF0DB0220284019
:10582000002804D00A4801780F9800F0D3FE00BF8A
:105830001098042806D105480078022802D10F9854
:1058400002F0BEFE002011B0F0BD0000C9DAFF1F5B
:10585000C8DAFF1F10B50446054804600548017802
:105860002620FFF7EFFC0348007800F073FE10BD20
:10587000DCDAFF1FC8DAFF1FF8B506460F461446EC
:105880000A25002E06D0012E05D0022E11D0032E9F
:1058900029D11BE000BF384602F0F6FD05460A2D6F
:1058A00006DA002C04D0062239462046FFF7B2FC67
:1058B0001AE0384602F000FE05460A2D05DA002CF3
:1058C00003D02146284602F011FE0DE0384602F0D2
:1058D00052FE05460A2D05DA002C03D02146284643
:1058E00002F004FE00E000BF00BF2846F8BD000043
:1058F00070B505460C46002603200002281A030056
:10590000FFF7A6FC1D10141A20242A2E3239404419
:10591000484E52565A5E62666A6E72787C809084F7
:10592000888C900045480078207084E0102244491B
:105930002046FFF76FFC7EE0102242492046FFF729
:1059400069FC78E040480068206074E006223F4926
:105950002046FFF75FFC6EE03D48007820706AE06B
:105960003C480088208066E03B4802783B4920465E
:10597000FFF750FC5FE03A4802783A492046FFF7CB
:1059800049FC58E038480078207054E037480078E7
:10599000207050E0062236492046FFF73BFC4AE0E3
:1059A00034480078207046E033480078207042E0A8
:1059B0003248008820803EE03148008820803AE06C
:1059C00030480078208036E02F480088208032E080
:1059D0002E48008820802EE02D48008820802AE074
:1059E0002C480088208026E006222B492046FFF71D
:1059F00011FC20E02948008820801CE0284800880D
:105A0000208018E027480088208014E0264800788D
:105A1000207010E02548008820800CE02448008891
:105A2000208008E0272D04DA2846FFF717FC2080A5
:105A300000E0022600BF00BF304670BD62DAFF1FE3
:105A4000B6F7FF1FC6F7FF1F64DAFF1F68DAFF1FF4
:105A50006EDAFF1F70DAFF1F72DAFF1F73DAFF1FA3
:105A600092DAFF1FD6F7FF1F93DAFF1F94DAFF1FAA
:105A700095DAFF1F9BDAFF1F9CDAFF1F9EDAFF1FDC
:105A8000A4DAFF1FACDAFF1FAEDAFF1FB0DAFF1F88
:105A9000B2DAFF1FB4DAFF1FA6DAFF1FB6DAFF1F64
:105AA000B8DAFF1FBADAFF1F61DAFF1FA0DAFF1FA3
:105AB000A2DAFF1F10B504461348047000201349F2
:105AC0000870401E124908800F480078FFF7CCFB91
:105AD000042010490870102200210F48FFF7A0FB96
:105AE000102200210D48FFF79BFB00200C490860A5
:105AF0000C4908700C49087001200C4908700020FE
:105B00000B49087010BD000060DAFF1F61DAFF1F4B
:105B10009EDAFF1F62DAFF1FB6F7FF1FC6F7FF1FEF
:105B200064DAFF1F93DAFF1F94DAFF1F9BDAFF1F6F
:105B30009CDAFF1FFEB506460C460120C00320403C
:105B4000002810D047480078FFF794FB051E05D0C9
:105B5000284602F003FF2846FFF792FB204601216A
:105B6000C9034840FEBD012080032040002804D026
:105B70002046012189034840F4E7E007C00F0028D0
:105B80003ED039480078002836D0384800780528BB
:105B900003D10320694608700CE035480178684657
:105BA0000170344801786846417006223249801CF1
:105BB000FFF730FB314801786846017230480178C0
:105BC00068464172694627480078FFF75FFB002866
:105BD00011D00720254908702A48006800280AD0FB
:105BE000284800680068002805D026480068016839
:105BF0001E480078884700BF204601214840B1E791
:105C000002202040002816D01848007805280ED120
:105C10001D480088FFF740FB1C480088002806D07C
:105C20001A48028802210F480078FFF73BFB204604
:105C30000221484096E704202040002806D000209A
:105C400002F028FF2046042148408BE7082020402E
:105C5000002805D002F0D0FC20460821484081E70A
:105C600000207FE760DAFF1F6EDAFF1F61DAFF1F97
:105C700093DAFF1F94DAFF1F95DAFF1F9BDAFF1FED
:105C80009CDAFF1FC0DAFF1F9EDAFF1FA4DAFF1F96
:105C9000F8B504460D4617461E46174800780528F5
:105CA00001D01420F8BD062C23DB1920C00184424A
:105CB0001FDA062D1DDB85421BDAFF20F5308742F7
:105CC00017DA0A2E15DB1920C001864211DA0B48BB
:105CD00004800B4805800B4807800B480680069817
:105CE00002F0D8FE042109480078FFF7E1FA00200D
:105CF000D8E71820D6E7000061DAFF1FAEDAFF1FF1
:105D0000B0DAFF1FB2DAFF1FB4DAFF1F60DAFF1F3D
:105D1000F8B506460C46154600200090BA483018E3
:105D20000300FFF795FA190E1924FD2D6A738DA74C
:105D3000B3BFCAD6FDE2FCFBFAF9F8FDFDFDFDF7A5
:105D4000FD00102C05D110222946B048FFF762FA59
:105D500001E01820009054E1102C05D110222946B2
:105D6000AB48FFF757FA01E01820009049E1042CF6
:105D700003D1A8492868086001E01820009040E19C
:105D8000012C37D1A44807782878A3490870002F40
:105D900014D008460078002810D1A04800780228C6
:105DA00007D09E480078062803D09C480078042835
:105DB0001FD19B480078FFF781FA1AE0002F18D115
:105DC00095480078002814D09448007801280BD01A
:105DD00092480078032807D090480078052803D01F
:105DE0008E480078042804D101218D480078FFF7FF
:105DF0006BFA01E01820009003E1022C03D12888FF
:105E00008849088001E018200090FAE01F2C14DC7B
:105E10001F2200218448FFF703FA224629468248C0
:105E2000FFF7F8F9814804707F4B224601217C4836
:105E30000078FFF74FFA009001E018200090E0E0B2
:105E40001F2C14DC1F2200217948FFF7E9F92246B4
:105E500029467748FFF7DEF976480470744B0278DC
:105E600000216F480078FFF735FA009001E0182014
:105E70000090C6E0012C06D12878042803DC28789D
:105E80006D49087001E018200090BAE0012C06D19D
:105E90002878032803DC28786849087001E0182076
:105EA0000090AEE0062C05D1062229466448FFF793
:105EB000B1F901E018200090A3E0012C06D1287868
:105EC000072803DC28785F49087001E0182000905B
:105ED00097E0012C06D12878032803DC28785A495A
:105EE000087001E0182000908BE0022C19D128885E
:105EF0005649088008460088002814D04748007892
:105F0000052810D108460288022145480078FFF78D
:105F1000C9F908E04EE03EE030E020E010E003E0A8
:105F200062E0182000906CE0012C06D1287801284E
:105F300003DC28784649087001E01820009060E0F2
:105F40002888022C08D1062806DB1921C9018842BD
:105F500002DC4049088001E01821009151E02888C6
:105F6000022C08D1062806DB1921C901884202DC6F
:105F70003949088001E01821009142E02888022C6C
:105F800006D1FF21F531884202DA3449088001E068
:105F90001821009135E02888022C08D10A2806DB58
:105FA0001921C901884202DC2D49088001E018212D
:105FB000009126E02F78012C13D1012F11D1082157
:105FC00017480078FFF78CF9002807D102F062FD2E
:105FD000042113480078FFF76BF904E016200090C5
:105FE00001E0182000900CE0272E07DA022C05D1E2
:105FF00029883046FFF726F9009001E00220009042
:1060000000BF00BF0098F8BDFFFCFFFFB6F7FF1F01
:10601000C6F7FF1F64DAFF1F6EDAFF1F61DAFF1F8A
:1060200060DAFF1F70DAFF1F73DAFF1F72DAFF1FDB
:10603000D6F7FF1F92DAFF1F93DAFF1F94DAFF1FD4
:1060400095DAFF1F9BDAFF1F9CDAFF1FA4DAFF1F00
:10605000ACDAFF1FAEDAFF1FB0DAFF1FB2DAFF1FA4
:10606000B4DAFF1F10B5044606480078002807D1AF
:10607000002C01D00448046002F0F4FC002010BDA4
:106080001120FCE761DAFF1FC0DAFF1F10B50748D7
:106090000078052807D113220548018805480078B3
:1060A000FFF724F910BD1220FCE7000061DAFF1FA2
:1060B0009EDAFF1F60DAFF1FF8B507460C461E4642
:1060C00002252300FFF7C4F80A0F06080C090F0D7C
:1060D0000F0B0E0F002508E007E0002505E004E0A7
:1060E00003E002E001E0022500BF00BF002D0FD158
:1060F00021463846FFF700F90546002D08D1304605
:10610000079A0699FFF7FEF8FFF702F9FFF706F97D
:106110002846F8BD70B504460025E007C00F0028EA
:1061200005D0044A0421044800F01AFA054628461E
:1061300070BD000080D5FF1F98D9FF1F10B5044621
:106140000F4804700F49104800F024F800200AE0BE
:106150000021C943C2000D4B99520021C200D21840
:106160005160411CC8B20128F2DB012003F0E0F9C4
:1061700003480078FFF7D8F80548FFF7DBF810BDB3
:1061800078D9FF1F8ED9FF1FFFFF00007CD9FF1FAA
:106190004D8CFF1F70B506460C46104886420ED146
:1061A000002009E00021C9438200A15200218200A1
:1061B00012199170411CC8B20228F3DB0CE0214691
:1061C000304602F0F6FC0546002D04D00020C04306
:1061D00028800020A87000BF70BD0000FFFF0000F5
:1061E000FFB581B00C4615461F46002000900A9866
:1061F000002826D1022F21D1287869780902401879
:1062000086B231460B988143002914D1E168019888
:1062100000F092F9B04210D03246E168019800F0E7
:1062200025FA00900098002807D16189324601982C
:1062300000F0B0F901E08020009004E00D20009013
:1062400001E00B200090009805B0F0BD70B5064647
:106250000C460120C0032040002816D00C480078CE
:10626000FFF708F8051E0BD02878B02803D1284680
:1062700002F000FE00E000BF00BF2846FFF700F874
:1062800020460121C903484070BD0020FCE7000002
:1062900078D9FF1FFFB587B00D461C46109E002021
:1062A00006900590287A10210840002814D00998FB
:1062B00002F074FC0746002F05D00A2229460798F1
:1062C000B847059001E00E2005900598002802D0FF
:1062D00005980BB0F0BD00BF287802287ED1686811
:1062E0000078696849780902401880B20490292230
:1062F00012020498811A904271D009DC8B49401A2D
:106300000FD001280ED0022848D0032868D118E009
:10631000012966D002297DD003297CD00429F5D13A
:10632000C9E000BF1198002808D1EF6838783070B4
:106330003A7820467968FEF76DFF01E00B20059062
:10634000D6E01198002826D101203070E868007846
:1063500020706989491C88B20021FEF7F1FF0746C9
:10636000002F0FD031783878801C08183070B87A38
:10637000607078890012A0703A78E01C7968FEF7A6
:1063800049FF07E03078001D307004220021601CB6
:10639000FEF746FF01E00B200590A9E011980028C8
:1063A00044D1E86800880190042030700198207082
:1063B00001980012607003A90198FEF7C1FF07461B
:1063C000002F29D0F868009002AB684682895849AE
:1063D0003846FEF7BBFF00280ED103E08AE039E023
:1063E00083E046E03B78022152487A68FEF7B4FF2A
:1063F000002801D1401E029000980078022808D1A0
:10640000009802224168201DFEF704FF3078801CAE
:10641000307003E00DE01EE00198029068460089AC
:10642000A070684600890012E07001E00B20059022
:106430005EE0119800280AD1E968079800F07CF81E
:1064400007460220307027703812607001E00B2080
:1064500005904DE000BF1198002807D1E968088831
:106460000221317020700112617001E00B20059053
:106470003EE0E868FEF776FFC7B21198B84217DC35
:106480001198B84201D1002709E0129911984018DB
:10649000B84201DA129F02E01198381AC7B2377079
:1064A000EA68119811183A462046FEF7B3FE01E05B
:1064B000072005901CE01198002813D1E8680721F7
:1064C000317001782170417861708178A1704188C4
:1064D0000912E1700179217181796171C188091214
:1064E000A17101E00B20059002E00120069000BFA1
:1064F00000BF01E0012006900698012813D10998F9
:1065000002F07CFB0746002F0AD0129911983346FF
:1065100022460191009029460798B847059001E06E
:106520000E20059000BF0598D3E60000002800006B
:10653000FFFF00001E7C010070B505460E46314687
:10654000284602F036FB0446002C01D0A07870BD2E
:106550000020FCE7014908707047000079D9FF1F4F
:10656000FEB504460F461646002C0FD0019468462F
:106570000780FEF7FDFE0546002D06D1002E04D053
:106580006089314602F0ACFF054600E0022528464E
:10659000FEBD0000F8B505460E4617460C480078CB
:1065A000FF2813D00A20FEF7E9FE0446002C0CD089
:1065B000B12020700020607020716580E680278106
:1065C000214603480078FEF7DFFE00BFF8BD00005B
:1065D00079D9FF1F70B504460D4608492046FFF7DC
:1065E000ABFF064602203040002804D02946204652
:1065F000FEF7D0FE70BD0120FCE700008ED9FF1F22
:106600007CB505460E461446684604712004010E0A
:10661000684641710020022301AA314600902846B5
:1066200000F001F87CBDFFB583B00D461E4602A9FF
:106630002846FEF785FE01900198002811D0684693
:10664000008902F0F7FA0746002F08D00C98F3B241
:106650000090059A01990398B847044600E00E247B
:1066600000E00124204607B0F0BD0000F8B5054663
:106670000F4616463946284602F09BFA0446002C7F
:1066800009D13946054802F094FA0446002C01D19C
:106690001120F8BD2580A6700020FAE7FFFF00005A
:1066A00070B504460025E007C00F002805D0044A55
:1066B00007210448FFF754FF0546284670BD000037
:1066C00094D5FF1FF0D9FF1FF8B506460C461546B6
:1066D00000273300FEF7BCFD0805143C3C1C3C269B
:1066E000313C152C0ADC162200211C48FEF798FDCF
:1066F000224629461948FEF78DFD00E0182729E0BB
:10670000022C03D128881649088000E0182721E0D0
:10671000082C05D1082229461248FEF79DF900E011
:10672000182717E0012C06D10F492878CA692831AB
:1067300003F08CF800E018270CE0012C06D10A4980
:106740002878CA6B483103F081F800E0182701E08F
:10675000022700BF00BF3846F8BD0000A0F7FF1FAA
:10676000E2D9FF1FE6D9FF1FF0D9FF1FF8B5454F4B
:106770000A4639788446092948D00A2946D00B2987
:1067800044D00C2942D00D2940D03F4C607A0028DB
:1067900001D001281AD12078002801D0012815D174
:1067A00065893A482B1F834210D2A3891E1F864257
:1067B0000CD2AB420AD8002A01D0012A06D1604689
:1067C000334B344D00282DD0012801D01220F8BDC4
:1067D000207A01281AD025200126002904D0072973
:1067E0000AD0082908D011E0E671E273A0740520F0
:1067F0003870FEF7D5FD13E0EA68928D520605D594
:106800001A78002A04D024A000F034F92120F8BD21
:10681000A07427481E70012109030078FEF754FD7B
:1068200026722CE072B60026052904D0072907D06D
:10683000082905D005E03E701E20FEF7B7FD00E0F8
:106840001E7026725820FEF7B7FD62B6FEF7BAFD3D
:10685000184E194CA8610FE0FEF7B4FDA9698842F3
:1068600001D3401A01E0711A0818E8617D22696AB3
:10687000D2005143814202D320680128ECD000208D
:10688000F8BD00001D12FF1F421DFF1FFD3F00004D
:106890002312FF1F70DCFF1F5B4C4C5F4442475DBF
:1068A000202530325820253032580A0D00000000D3
:1068B0001C12FF1F40420F005812FF1F01480249DF
:1068C0000860704740787D016CDCFF1F70B504469E
:1068D000E0037D21C900FEF797FC054600F002F8B1
:1068E00070BD0000F8B506460027FEF771FD0546AD
:1068F0000AE0FEF76DFD0446AC4201D3601B02E0E6
:106900000348401B00190746B742F2D3F8BD000008
:10691000FFFFFF0030B5044604F042F903460DE0E6
:1069200004F03EF902469A4201D3D01A02E005482B
:10693000C01A80180546A54200D900E0F0E700BF64
:1069400030BD000040420F001CB5044621463FA068
:1069500005F044FB052C04D141494248FEF7C8FF2D
:1069600071E04148007805282CD1052C2AD001205F
:10697000019001213A48008806F0A4FC042C0CD1B7
:1069800020210820FEF75EFC20210920FEF75AFC9A
:1069900036490020FEF756FC0DE019218901082038
:1069A000FEF750FC192189010920FEF74BFC00215C
:1069B0000846FEF747FC01AA01212A480938FFF7DB
:1069C000A7F940E028480078022825D1032C23D1DC
:1069D00027480078002803D000202549087032E0BD
:1069E0000820FEF73BFC20282DD101200190192121
:1069F00089010820FEF726FC192189010920FEF7EC
:106A000021FC00210846FEF71DFC01AA01211548C2
:106A10000938FFF77DF916E0012C14D16946C12031
:106A20008000FEF765FF68464179C1710179817187
:106A3000C178417100210171C1706A4608210020AE
:106A4000FEF776FE00BF084804701CBD57726973DC
:106A500074476170537461746543423A2025640041
:106A600094DBFF1F0E03000069DBFF1F3075000081
:106A700096DBFF1F0FB410B503A9044B044A02981C
:106A800000F044F910BC08BC04B018471984FF1F7B
:106A9000B0DCFF1F0FB410B504A9074B02AA03987E
:106AA00000F034F9044602A9002000F069FB2046FA
:106AB00010BC08BC04B018478171FF1F2021020CD4
:106AC00001D010211046020A01D0104608390209EF
:106AD00001D01046091F820801D01046891E4208C5
:106AE00001D0881E7047081A70470000002805DB97
:106AF000C206D20E01219140014A11607047000088
:106B000000E100E010B5002819DB1A4A03231B023C
:106B1000D21883089B00D2588307DC0EFF23A340C2
:106B20009A438B071B0E8407E40EA3401A43114BB4
:106B3000032424021B198408A4001A5118E00E4AE9
:106B400003071B0F083B9B089B00D2588307DC0EF2
:106B5000FF23A3409A438B071B0E8407E40EA34038
:106B60001A43054B0407240F083CA408A4001A513B
:106B700010BD000000E100E01CED00E010B50028B1
:106B800019DB1A4A03231B02D21883089B00D25830
:106B90008307DC0EFF23A3409A438B071B0E840759
:106BA000E40EA3401A43114B032424021B1984084A
:106BB000A4001A5118E00E4A03071B0F083B9B085C
:106BC0009B00D2588307DC0EFF23A3409A438B0718
:106BD0001B0E8407E40EA3401A43054B0407240F41
:106BE000083CA408A4001A5110BD000000E100E018
:106BF0001CED00E010B5002819DB1A4A03231B0224
:106C0000D21883089B00D2588307DC0EFF23A340D1
:106C10009A438B071B0E8407E40EA3401A43114BC3
:106C2000032424021B198408A4001A5118E00E4AF8
:106C300003071B0F083B9B089B00D2588307DC0E01
:106C4000FF23A3409A438B071B0E8407E40EA34047
:106C50001A43054B0407240F083CA408A4001A514A
:106C600010BD000000E100E01CED00E010B50028C0
:106C700019DB1A4A03231B02D21883089B00D2583F
:106C80008307DC0EFF23A3409A438B071B0E840768
:106C9000E40EA3401A43114B032424021B19840859
:106CA000A4001A5118E00E4A03071B0F083B9B086B
:106CB0009B00D2588307DC0EFF23A3409A438B0727
:106CC0001B0E8407E40EA3401A43054B0407240F50
:106CD000083CA408A4001A5110BD000000E100E027
:106CE0001CED00E000487047B4DCFF1F02E008C85C
:106CF000121F08C1002AFAD170477047002001E036
:106D000001C1121F002AFBD170470000FFB591B0EE
:106D10000F460546002606E025280AD0149A139946
:106D200090476D1C761C28780028F5D1304615B0A8
:106D3000F0BD002400940121F34A029400E00443D2
:106D40006D1C2B780846203B98401042F7D12878DC
:106D50002A280ED0022128780246303A092A15D86E
:106D6000009A0A235A43303A80180C436D1C009055
:106D7000F1E701CF0090002805DA01204003044329
:106D8000009840420090022004436D1C28782E2871
:106D900015D10420044368786D1C2A280AD101CF3C
:106DA0006D1C02900BE002990A22514330394018C1
:106DB0006D1C02902878014630390929F3D92878CA
:106DC0006C2810D006DC4C281AD068280ED06A280F
:106DD00017D104E0742813D07A2812D110E00120D2
:106DE000400504430CE00121090501E003210905E8
:106DF0000C436978814203D10120000524186D1CE1
:106E00006D1C287803906E281ED00CDC632831D0CE
:106E100004DC00288AD0582811D1B2E064287BD045
:106E200069280CD178E073282DD004DC6F2870D04D
:106E3000702804D1A7E075286CD078286BD0149AFC
:106E400013999047761C62E06002400F022807D039
:106E500003280AD0042838680AD006603F1D56E08F
:106E60003868F11706604160F8E738680680F5E792
:106E70000670F3E73878694608740020487404A85F
:106E80000390012003E0386803900020C0433F1DB9
:106E900061070FD5002101E00199491C029A019177
:106EA000914213DA8142F7DB019A0399895C002948
:106EB000F2D10BE0002101E00199491C01918142CE
:106EC000FADB019A0399895C0029F5D101990098B0
:106ED000139A401A00902146149B00F03BF9019947
:106EE0008019461807E0039803990078491C03911C
:106EF000149A139990470198401E0190401CF2D1BA
:106F00002146149B139A009800F014F986196D1C01
:106F100009E741E033E034E00A20002104900591C4
:106F20006002410F022905D001CFC2179446032900
:106F300005D007E0FF1DFF08FF0003CF06E000B209
:106F4000C2179446042902D140B2C1178C460022D0
:106F50006146944506DA0A460021404291418C463A
:106F60002D2102E0210504D52B216A46117601214D
:106F700003E0E10701D02021F7E7019154E00A2066
:106F80000BE0102009E010200490002104200443AD
:106F900008200591029003E008200021059104904B
:106FA0006002410F022905D001CF00229446032937
:106FB00006D006E0FF1DFF08FF0003CF8C4603E06C
:106FC00080B2042900D1C0B20021019121072BD544
:106FD0000399702906D0049A1021059B4A401A4350
:106FE00005D00EE040216A461176012108E0614695
:106FF000014306D030216A46117603995176022169
:107000000191049A0821059B4A401A430CD161461C
:10701000014301D1610707D530216A46117601216C
:1070200001910299491E02910399582904D037A170
:1070300003910FA90F910DE039A1F9E76146059B76
:10704000049AFDF755FC039B8C469B5C0F9A521EDD
:107050000F92137061460143F0D10F9807A9081AE7
:1070600020300390600704D5012000048443029877
:1070700001E0012002900399884201DD401A00E0FE
:10708000002041180290019809180098401A0090B9
:10709000E00306D42146149B139A009800F05AF896
:1070A00086190020049008E006A9085C149A139938
:1070B00090470498401C761C049001998842F3DBA9
:1070C000E0030CD52146149B139A009800F042F877
:1070D000861904E0149A302013999047761C02997F
:1070E000481E02900029F5DC08E00F980F990078FF
:1070F000491C0F91149A13999047761C0399481EC6
:1071000003900029F1DCFBE609280100303132331D
:1071100034353637383961626364656600000000D3
:1071200030313233343536373839414243444546BD
:1071300000000000F8B5044600251E4617468804E6
:1071400004D405E039462020B0476D1C641EF9D5F3
:107150002846F8BDFFB50446002581B01E46C80389
:1071600001D5302700E02027880404D505E0384603
:107170000399B0476D1C641EF9D5284605B0F0BDD3
:107180000A68531C0B60107070470000F8B50026A9
:1071900004251B48475D1B4800680090002E0AD15B
:1071A00001213846FEF71AF9174A2846009902F0DD
:1071B00091FE044615E00021384603F095F80121C0
:1071C000384603F019FA01213846FEF707F90E4A4E
:1071D0002846009902F07EFE04460021384603F05E
:1071E00083F8002C00D0F8BD02F034FF7D2212019C
:1071F000802106480078FEF755F800BFF3E700004D
:1072000074D6FF1F80D6FF1FD972FF1F54DCFF1FEB
:1072100010B5044602480470FFF7B8FF10BD000027
:1072200054DCFF1F70B506460C4621461CA004F036
:10723000D5FE0120C0032040002810D01E48007851
:10724000FEF718F8051E05D0284600F043F828463A
:10725000FEF716F820460121C903484070BD2020E2
:10726000204000280DD015A004F0B8FE7D221201A8
:10727000202111480078FEF715F8204620214840CB
:10728000ECE780202040002808D00DA004F0A6FEE6
:10729000FFF77CFF204680214840DFE70020DDE744
:1072A0006164635F50726F636573734576656E7476
:1072B0003A20307825780A0054DCFF1F32300A006B
:1072C0006164634D6561737572655461736B5F458D
:1072D00056540A0070470000F8B504460026002501
:1072E00016A004F07BFE2068012825D10020009024
:1072F000227B20790023A16802F02EFF00270BE0FB
:107300007A00A068815A10A004F068FE7900A06895
:10731000405A8619781CC7B20A2FF1DB0A21304681
:10732000FDF772FF05467D20C0006843020B294629
:1073300007A004F053FE00BFF8BD0000656E746541
:1073400072206164633A00002025782C0000000060
:107350006176653A307825782C56696E3D25642033
:107360006D560A0010B502211D20FFF77FFC10BDED
:1073700030B58BB004464548047045A004F02EFE9D
:1073800001210A9107210991002108910791C82143
:107390000691C9000591012104917D21C900039145
:1073A00040A103C90291019001AA06213F48FEF7BE
:1073B000AFFC09AA0121C3208000FEF7A9FC0AAA9C
:1073C00001213A48801FFEF7A3FC08AA0221374892
:1073D000401FFEF79DFC364A0D216120C000FEF7DC
:1073E00097FC344A07213148001FFEF791FC07AA99
:1073F000012131200001FEF78BFC06AA02212B4857
:10740000801DFEF785FC05AA02212848C01DFEF755
:107410007FFC04AA022125480830FEF779FC03AA64
:107420000221C5208000FEF773FC234A15210020AD
:10743000FFF74AF9FF25913529460620FDF702FF9F
:1074400029460720FDF7FEFE29460820FDF7FAFE33
:1074500029460920FDF7F6FE0020C043FFF720F97A
:107460000020C043FEF756FEFEF756F904F064FD17
:10747000124805F00BFF00F0F3F8012103480078F3
:10748000FDF722FF03F070FF0BB030BD68DBFF1F7C
:107490000A0A0A6170705772697374496E69740AD6
:1074A0000A0A000001020304050600000B030000A5
:1074B0006ADBFF1F77DBFF1F7EDBFF1F79D2FF1F19
:1074C00070B506460C460120C0032040002810D0AD
:1074D0001B480078FDF7CEFE051E05D0284600F0BB
:1074E00035F82846FDF7CCFE20460121C903484067
:1074F00070BDE007C00F002809D01248FEF7B2FDAA
:107500001148FEF7A7F9204601214840F0E7042082
:107510002040002805D000F005F92046042148400D
:10752000E6E7012040022040002806D004F002F8DF
:107530002046012149024840DAE70020D8E7000050
:1075400068DBFF1F98DBFF1F50D6FF1F704700004E
:10755000FEB5044600271948192292010023056848
:1075600041682846FDF7C4F9009001A805F086FDA2
:10757000124880680199884203D91149009840183F
:10758000009010490198FDF73FFE009940180090C7
:107590006846FDF775FC0746387C401C2071B88AA8
:1075A00009494018E080387BE070387AA07038795B
:1075B0006070387820700020FEBD00009000002030
:1075C000C2F52800400600006C070000F1B584B049
:1075D00001A805F053FD0498FDF7F8F900260546CB
:1075E000294614A004F0FAFC1921890100202C4638
:1075F00037460391029020463946029B039AFDF7D5
:10760000A7F905460E46314600220198281A9141F5
:10761000094A03C208490198886008A004F0DEFC0A
:107620001021054804F0ECFD0CA004F0D7FC05B0D7
:10763000F0BD000025780000900000206170705FB0
:107640006461746574696D655F61646A7573745FA4
:10765000626173656C696E653A0A00000A00000099
:1076600010B500F0C7F8024800F0CAFE10BD0000D7
:107670003075000003B58FB02C2104A8FDF705FA82
:1076800010A80078401E089010A840881649401A9B
:10769000099008A8C07F079008A8807F069008A8D6
:1076A000407F059008A8007F049010A004F096FC8D
:1076B00008A8017F427F807F01920291009008A874
:1076C000C37F10A8027841880DA004F087FC04A8AD
:1076D000FFF77CFF1021114804F092FD10A004F088
:1076E0007DFC002011B000BD6C0700000A617070C5
:1076F0005F6461746574696D655F7365743A0A00EF
:1077000054696D652069732025642D25642D2564D9
:107710002C2025643A25643A25640A009000002054
:107720000A00000008B500200090684605F0A6FC9D
:107730000B4880680099884208D909480168406868
:107740000122091C5041064A11605060044900980A
:107750008860044800F054FE00F006FD08BD0000FB
:10776000900000203075000010B5FDF73DFE0120AF
:10777000FDF740FEFDF744FE002010BDF0B50024EB
:107780008E464A1E12E0714600230D1B6D1E0AE054
:107790009E0031188C46875949688F4202D9815121
:1077A00061464F605B1C9D42F2D8641C9442EAD350
:1077B000F0BD000010B50020054CFF212218401C30
:1077C00051704028FADB04F003FF207010BD000068
:1077D000E400002010B50020054CFF212218401CB9
:1077E00051700628FADB04F011FF207010BD000074
:1077F000A5DCFF1F10B58EB003A801F013FF049A9B
:10780000039905980192029100900798421C064C3A
:107810000898011905A0069B04F0E0FB03A8FFF7F8
:10782000D5FE0EB010BD00006C07000063686563F4
:107830006B5F64656661756C745F646174657469BF
:107840006D650A54696D652069732025642D256472
:107850002D25642C2025643A25643A256400000017
:1078600010B502460B460021002000BF03E0545C27
:1078700060404C1CE1B29942F9DB10BDF0B5864680
:10788000080CFF268446002388B237461C4619465A
:1078900001228A4005461540CD402C19A4B2FF2F85
:1078A00002D1012C00D18FB265462A40CA40D218BD
:1078B00093B2FF2E02D1012B00D18EB2491C1029A8
:1078C000E6DB012C02D0102C08D009E0012B07D1F7
:1078D0003001C019714608700220F0BD102B01D094
:1078E0000320F0BD0120F0BD10B528210148FDF7AF
:1078F000CCF810BD7CFBFF1F032800DA7047012184
:107900008907896801228240914301229207916090
:1079100000BFF3E7032800DA70470121890789686F
:1079200001228240114301229207916000BFF3E7D8
:1079300001480068704700001010FF1F01218907EF
:107940000968012282409143012292071160114689
:107950000968012282401143012292071160704799
:1079600030B585B004460D4603A8FFF7F1FD217838
:107970006846017061784170408A7D210901401A92
:10798000C1B268468170017CC170C17B0171817B8D
:107990004171417B8171017BC1710821FFF760FF5B
:1079A000694608720921684600F04CF805B030BD00
:1079B000F8B504460F462646B178F07803F0C2FCCD
:1079C0000546002D00D100E00A200546EAB23946FE
:1079D000204600F04FF8F8BD70B504460D46002271
:1079E0002946204600F046F870BD10B586B0044622
:1079F000217868460171617841710121817100210E
:107A000001A8C17002210171012168464172002163
:107A100001A8817101216846C172002101A801728B
:107A200003A90131C1208000FDF762FF132101A8E5
:107A3000FFF716FF6946C875142101A800F002F887
:107A400006B010BD70B5BEB006460D46F8216846BA
:107A5000FDF71BF869468D70002404E0315D00A835
:107A600003300155641CAC42F8DB684605F044FC69
:107A70003EB070BD70B5C0B004460D4616462078C5
:107A800069460871012D01DD607800E0002069463B
:107A9000487168468671032101A8FFF7E1FE01469F
:107AA0006846C171F82102A8FCF7EFFF042168467F
:107AB00081720179C172417902A8017168468179A8
:107AC00002A841716846C17902A8817105F014FCD1
:107AD00040B070BDF0B587B004460F46002625467D
:107AE00005A8FFF735FDA8787D21090141186846F2
:107AF0004182E97801742979C17369798173A9791F
:107B00004173E9790173017B427B807B0192029191
:107B100000906846C37B027C418A07A004F05EFAAD
:107B200004990398FFF7A6FD0646F2B239462046AF
:107B3000FFF7A0FF07B0F0BD636D645F7365745F0E
:107B400074696D653A2025642C25642C25642C25E8
:107B5000642C252C25640A00F8B506460D46174608
:107B60002A46314607A004F039FA002407E0A000B5
:107B70003A5821460DA004F031FA601CC4B2AC4260
:107B8000F5DBF8BD636D642069642069732030788B
:107B900025782C20706172616D65746572206E7538
:107BA0006D2069732025640A000000007061726115
:107BB0006D202564203A2025730A00007FB5054614
:107BC0000C460E4B0FCB6E460FC6002C02D1062082
:107BD00004B070BD0A4A0B49222002F035FF684606
:107BE0000FC803F037F908484560002007490870BE
:107BF0004880054884600020EAE700009CD6FF1F0B
:107C0000397FFF1F257FFF1F8000002080FCFF1FA2
:107C1000F0B58DB000200C90614F01208002381823
:107C2000406803903D1D00200290019000900124C7
:107C30000BE0601E285C612805D1285D742802D104
:107C4000601C84B204E0601C84B27888A042F0DC3E
:107C500000BF7888A04204D152A004F0BFF90DB053
:107C6000F0BD2819029014E0285D202802D0285D7C
:107C7000002802D1002028550EE0285D202802DBD4
:107C8000285D7D2803DD50A004F0A8F9E7E7601C1B
:107C900084B27888A042E7DC00BF0298FDF762FB5F
:107CA000002803D153A004F099F9D8E700261EE07C
:107CB000F1000398405A002805D0F10003980818F5
:107CC0004068002803D152A004F088F9C7E7F20009
:107CD0000398101841680298FCF7E2FE002804D1CE
:107CE000F1000398405A0C9003E0701C86B2202EDD
:107CF000DEDB00BF0C98002803D14FA004F06EF922
:107D0000ADE7601C84B2281901903BE0285D202873
:107D100018D1002028550198FDF724FB002800D138
:107D200033E00099890004AA019850500098401C43
:107D3000C0B200900098082800DB26E02819401CFB
:107D400001901DE0285D00280FD10198FDF70AFB86
:107D5000002800D119E00099890004AA0198505028
:107D60000098401CC0B200900FE0285D202802DB84
:107D7000285D7D2803DD3BA004F030F96FE700BFEC
:107D8000601C84B27888A042C0DC00BF0120800261
:107D9000381804AA836800990C98984700BF5EE7DA
:107DA00080FCFF1F50617273652066696C65642CEE
:107DB00020646964206E6F7420666F756E64202283
:107DC0006174220A000000005061727365206661D0
:107DD000696C65642C20636D642068617320696C34
:107DE0006C6567616C206368617261637465720AB7
:107DF000000000005061727365206661696C656403
:107E00002C20636D6420697320656D7074790A009D
:107E10005061727365206661696C65642C20636DC6
:107E200064206973206E6F74206D617463682063D1
:107E30006D646C6973740A005061727365206661C9
:107E4000696C65642C20636D64206973206E6F74A7
:107E5000206D6174636820636D646C6973745F3155
:107E60000A0000005061727365206661696C656488
:107E70002C20706172616D65746572206861732079
:107E8000696C6C6567616C206368617261637465BD
:107E9000720A0000F8B50646214C201D009030788B
:107EA000012802D0022838D100E000BF776820788E
:107EB000002804D1222002F093FD012020702078B8
:107EC000012826D1002520E0785D0D2802D0785DBC
:107ED0000A2811D100216288009881546088401CD2
:107EE000608002202070FFF793FE002020706080E9
:107EF000222002F0F5FD0BE0795D62880098815444
:107F00006088401C6080681CC5B2307AA842DBDC07
:107F100002E0222002F0E4FD00E000BF00BFF8BD57
:107F200080FCFF1F10B500210A2002F027FA012172
:107F30000A2002F027FB10BD10B500210E2002F030
:107F40005BFB01210E2002F057FB00210E2002F006
:107F500053FB002409E00A2002F0E6FA002803D1CE
:107F6000222002F03DFD02E0641C142CF3DB00BF74
:107F700000210E2002F040FB01210E2002F03CFB0C
:107F800000210E2002F038FB00200149087010BDCE
:107F900080FCFF1F10B504460121122002F060FA98
:107FA000E1B2122002F0C2F910BDFFB581B0064661
:107FB0000F460121142002F053FA0121142002F08F
:107FC000B5F90125002421E00021142002F0AEF9CA
:107FD000072000F0EDF830462840002804D10121A8
:107FE000142002F0A3F903E00021142002F09EF90E
:107FF000072000F0DDF86806050E0121142002F0CC
:1080000095F90A2000F0D4F8601CC4B2062CDBDB22
:108010000125002421E00021142002F087F9072027
:1080200000F0C6F838462840002804D10121142069
:1080300002F07CF903E00021142002F077F9072018
:1080400000F0B6F86806050E0121142002F06EF962
:108050000A2000F0ADF8601CC4B2042CDBDB012563
:10806000002421E00021142002F060F9072000F034
:108070009FF803982840002804D10121142002F021
:1080800055F903E00021142002F050F9072000F018
:108090008FF86806050E0121142002F047F90A2026
:1080A00000F086F8601CC4B2062CDBDB012500243E
:1080B00021E00021142002F039F9072000F078F8BF
:1080C00004982840002804D10121142002F02EF940
:1080D00003E00021142002F029F9072000F068F8DD
:1080E0006806050E0121142002F020F90A2000F094
:1080F0005FF8601CC4B2062CDBDB0125002421E004
:108100000021142002F012F9072000F051F80A981B
:108110002840002804D10121142002F007F903E0CF
:108120000021142002F002F9072000F041F868064F
:10813000050E0121142002F0F9F80A2000F038F8A9
:10814000601CC4B2062CDBDB0021142002F0EEF828
:10815000242000F02DF80121142002F0E7F824205B
:1081600000F026F805B0F0BD00B585B003A8FFF714
:10817000EFF96846017B427B807B0192029100907F
:108180006846C37B027C418A02A003F027FF05B04A
:1081900000BD000054696D652069732025642D259C
:1081A000642D25642C2025643A25643A25640A0050
:1081B00010B504462046FEF7ADFB10BDFFB583B0F9
:1081C0000F461D460D9E0C9C00200290786800789A
:1081D000796849780902401880B20190714A019883
:1081E000811A904268D00ADC6F49401800280FD0ED
:1081F000012822D0022835D0032872D147E0012976
:1082000073D002296FD003296ED02929F5D1ABE0B4
:10821000082C02D3072002900EE00820001BB04279
:1082200001D9304601E00820001B28702A785F48F9
:1082300001190598FCF7EEFFB0E00C2C02D30720E3
:1082400002900EE00C20001BB04201D9304601E044
:108250000C20001B28702A78554801190598FCF756
:10826000D9FF9BE00D2C02D3072002900EE00D20D9
:10827000001BB04201D9304601E00D20001B2870E0
:108280002A784C4801190598FCF7C4FF86E0112CA8
:1082900002D3072002900EE01120001BB04201D94A
:1082A000304601E01120001B28702A78424801194D
:1082B0000598FCF7AFFF71E0112C02D30720029064
:1082C0000EE01120001BB04201D9304601E0112020
:1082D000001B28702A78394801190598FCF79AFF85
:1082E0005CE056E001E015E029E0112C02D3072004
:1082F00002900EE01120001BB04201D9304601E08F
:108300001120001B28702A782D4801190598FCF7C8
:1083100081FF43E0112C02D3072002900EE01120D0
:10832000001BB04201D9304601E01120001B28702B
:108330002A78244801190598FCF76CFF2EE00E2CD2
:1083400002D3072002900EE00E20001BB04201D99C
:10835000304601E00E20001B28702A781A480119C7
:108360000598FCF757FF19E0072C02D3072002906D
:108370000EE00720001BB04201D9304601E0072083
:10838000001B28702A78114801190598FCF742FF54
:1083900004E0002028700A20029000BF00BF02986D
:1083A00007B0F0BD272A0000DDD5FFFF31D8FF1F41
:1083B000F8D4FF1F05D5FF1F13D5FF1F25D5FF1FBD
:1083C00037D5FF1F49D5FF1F5BD5FF1F41D8FF1FC2
:1083D00070B5044626460948855DFF2D00D170BD65
:1083E0000021284601F080FF0021284602F038F8DD
:1083F0000021284602F06CF800BFF0E790D6FF1F7E
:1084000010B504462246042102480078FCF74AFFD2
:1084100010BD000068DBFF1F38B5044668460470D5
:1084200069460320ABBE204638BDFFB587B00C4679
:1084300016461F46082F05D1204606214843223004
:10844000C5B204E02046062148432130C5B21C22B3
:1084500000216846FCF7E4FE6A461C21284603F02A
:10846000C9FC00280ED16846807E07280ADB6846D2
:10847000807E102806DCF107C90F6A46109B07981A
:10848000FCF7C4FF0BB0F0BD70B5054600240DE04D
:108490000E216143074A881806222946FCF7BCFFD3
:1084A000002801D0204670BD601CC4B20A2CEFDB4E
:1084B0000A20F8E706F8FF1F70B5054600240EE015
:1084C0000E216143084A8918881D06222946FCF7B7
:1084D000A3FF002801D0204670BD601CC4B20A2C46
:1084E000EEDB0A20F8E7000006F8FF1F7FB5044620
:1084F0000D460A2C01DA002D02D1022004B070BD15
:108500002146062251432031C8B26A460E2103F0AB
:1085100071FC0646002E04D1062269462846FCF767
:1085200079FE3046EAE71FB504462146062251434C
:108530002031C8B26A460E2103F05CFC002804D149
:1085400068468089C0B204B010BD0020FBE7014638
:1085500000200DE082008A5AD2438300CA52820072
:1085600052189278D24383005B189A70421CD0B2A2
:108570000428EFDB70477FB5054600241CE0214648
:10858000062251432331C8B26A46102103F032FC5F
:1085900000280FD11022FF216846FCF747FE002873
:1085A00008D129466846FCF73DFF002802D1204645
:1085B00004B070BD601CC4B20A2CE0DB0A20F7E7EF
:1085C00070B5054600240A480078002801D0012033
:1085D00000E00020044307480078002801D0042070
:1085E00000E00020044321462846FCF721FF70BD2F
:1085F000CFDAFF1FCCDAFF1F08B50E48007800283D
:1086000015D0012802D0022810D10CE001200090E2
:1086100009480388094802880948018809480088F0
:10862000FDF736FB04E0FDF731FD01E000BF00BFC0
:1086300000BF08BDBCDAFF1FB4DAFF1FB2DAFF1FAC
:10864000B0DAFF1FAEDAFF1FF8B504460026A078A7
:108650000300FCF7FDFD0805FE214A4B8FE3FDFEFC
:1086600025466F78002F10D10622E91CA748FCF799
:10867000D1FD0120A6490870A64BA7480278012128
:10868000A6480078FCF726FE0746002F02D00720F8
:108690009F490870012625E12546687800281CD1ED
:1086A000E878002809D09E4B9E48027800219B481C
:1086B0000078FCF70FFE68700FE0954800780228FC
:1086C0000BD0012195480078FCF70AFE002804D160
:1086D000012192480078FCF7F7FD6878002803D064
:1086E00007208B4908700126FCE000BF254668780A
:1086F00000283AD1A07803280BD1854800780528B6
:1087000003D106208249087032E0022080490870B7
:108710002EE08548008800280BD084480078002887
:108720000AD08148028801217C480078FCF7BAFD14
:1087300002E000207D49087075480078062803D1C2
:1087400005207349087013E071480078042808D1A7
:10875000012076490870012170480078FCF7B4FDCB
:1087600006E003206A49087002E0072068490870A3
:108770000126B7E025466878002840D10622291D49
:108780006B48FCF747FD68896A490880A8896A49EF
:108790000880E8896949088005205D4908706848B3
:1087A0000088002806D06648028802215B480078CD
:1087B000FCF778FDA88963490880E8896249088048
:1087C000288A624908806248007801280DD11F205C
:1087D000FCF744FD07467D20C00078430246042193
:1087E0004E480078FCF75EFD00BF6A89E8780423F4
:1087F000291DFCF7B1FF00204C4908700CE0687897
:10880000312806D1002049490870032040490870EA
:1088100002E007203E490870012663E02546062253
:1088200000214348FCF7FCFC0020464908804649EB
:10883000088046490880042138480078FCF738FD54
:10884000082136480078FCF733FDA879082801E0B4
:108850001FE046E003D104202D49087002E0032008
:108860002B490870012631480078002804D02B4895
:108870000078FCF723FD07E001202C490870012156
:1088800026480078FCF720FD0020C04329490880D5
:1088900028E02546082121480078FCF709FD687882
:1088A00000281DD1E88827490880288926490880A2
:1088B000688926490880042118480078FCF710FDD3
:1088C00000280DD123480068002809D021480068FD
:1088D00003681E4802881C4801881A480088984787
:1088E00000E000BF00BF012E0ED11B480068002829
:1088F0000AD0194800680068002805D016480068AA
:108900000168034800788847F8BD000068DAFF1F57
:1089100061DAFF1F73DAFF1F72DAFF1F60DAFF1FD1
:10892000D6F7FF1F92DAFF1F70DAFF1F6EDAFF1F04
:10893000A6DAFF1F9EDAFF1FA0DAFF1FA2DAFF1FD1
:10894000A4DAFF1FB6DAFF1FB8DAFF1FBADAFF1F7B
:10895000ACDAFF1FC4DAFF1FC0DAFF1FF8B5044608
:108960002078912804D0A22841D0D02861D13AE0C3
:1089700060780E2828D12546A8882F49884217D12B
:10898000A868C07846B22D48007805280FD17F2E00
:108990000DD02B480068002809D02948006840689D
:1089A000002804D0264800684168304688470AE01D
:1089B000A8882449884206D1A8688378427801783B
:1089C00021A003F00BFB0DE060780F2801D12046B9
:1089D00008E060783E2805D120468178072900D03C
:1089E00000BF00BF26E02046FFF72EFE22E025460E
:1089F000687913281CD12E460836308801280BD1FF
:108A000016480078022807D1082115480078FCF79D
:108A10004FFCFDF73BFB0AE00520FCF71FFC074677
:108A20003A4608210E480078FCF73CFC00BF00BF26
:108A300000E000BF00BFF8BD0514000061DAFF1FB1
:108A4000C0DAFF1F222000005B48434920444C4508
:108A50005D25642025642025640A0000BCDAFF1F20
:108A600060DAFF1F1CB506480649074B002200913B
:108A700001900648017806480078FDF71DFB1CBDF3
:108A800064DAFF1FC6F7FF1FB6F7FF1F62DAFF1F8A
:108A900060DAFF1F7CB504461E4800881E4909881D
:108AA000884211DB1B4800881C49098888420BDC7E
:108AB0001B4800881B490988884205D11A4800884C
:108AC0001A490988884223D00520FCF7C7FB0546D0
:108AD0001148018868460180104801886846418035
:108AE0001048018868468180104801886846C18026
:108AF0000F48027869460F480088FCF79FFC0E4833
:108B000004702A4608210A480078FCF7CBFB00BF16
:108B10007CBD0000B6DAFF1FAEDAFF1FB0DAFF1F20
:108B2000B8DAFF1FB2DAFF1FBADAFF1FB4DAFF1F8D
:108B300060DAFF1F9EDAFF1FBCDAFF1FF8B506469A
:108B40000F46304600F046F80446002C06D1114886
:108B500000F040F80446002C00D02680002C17D0EE
:108B6000002511E0F82068436168085A002809D1FF
:108B7000F821694362685018F8223946FCF74AFB2D
:108B80000020F8BD681CC5B2034800788542E9DBC7
:108B90000920F6E7FFFF000084D9FF1F70B50546E6
:108BA000284600F037F80446002C00D170BDA068BC
:108BB000FCE703460A46002108E08800105A984264
:108BC00002D1880080187047481CC1B20229F4DB2A
:108BD0000020F8E70246002109E0C800064B185AB9
:108BE000904202D1C800C0187047481CC1B2012988
:108BF000F3DB0020F8E700007CD9FF1F70B50546C5
:108C0000284600F007F80446002C00D170BD20680B
:108C1000FCE7000002460648016805E088889042AB
:108C200001D18868704709680029F7D10020F9E769
:108C300088D9FF1F70B505462846FFF7EBFF0446AD
:108C4000002C00D170BD6068FCE70000F3B581B076
:108C50000C46012C07D0022C29D101210198FCF7E8
:108C6000F3FB002823D10198FFF7B4FF0546002D40
:108C700018D000260EE0F820704369680F18388875
:108C8000002800D10AE0F82200213846FCF7C8FA93
:108C9000701CC6B2064800788642ECDB00BF00209C
:108CA000C043288003490198FDF774FA00BFFEBD58
:108CB00084D9FF1F8ED9FF1F70B50446044D0548A7
:108CC0000088288060882946FCF7C4FB002070BD1E
:108CD000A6F6FF1FEE10FF1FF3B585B00546284628
:108CE0000830049000276888FFF774FF0646002EBE
:108CF00035D00020039029E07168F8220398504392
:108D00000C182088002800D125E00498007801285C
:108D100011D160880090237921886888621D0290B3
:108D2000FDF781FC0746002F05D000210498017053
:108D3000218806980180F82200212046FCF770FA6D
:108D4000002020800398401CC0B203900849097895
:108D500003988842D0DB00BF0020C0433080002F42
:108D600002D16888FCF77CFB384607B0F0BD0000F4
:108D700084D9FF1FF3B585B007463D460835384C0A
:108D8000162200212046FCF74BFA04A800902B790C
:108D9000698828886A1D0390FCF768FB064648E04E
:108DA00030480078C01FC0B200212F4A00920191C4
:108DB000029078882D4B69460A8A3146FDF76AFA97
:108DC000002812D1E8792849097888420DD126482F
:108DD0000278264928460830FCF71EFB002804D0FC
:108DE000718920788200A01C8152698803AB684693
:108DF000028A3046FCF7AAFA064620788100A01CB9
:108E0000405A002814D0002E09D068468189227863
:108E1000501C20709200A01C1018418008E0002116
:108E2000C9432278501C20709200A01C1018418069
:108E300000BF002E04D020780D4909888842AFDB9E
:108E40002078002806DD78882146FCF715FB0020F5
:108E500007B0F0BD2988069801800A20F8E70000D5
:108E6000A6F6FF1FEC10FF1F8CD9FF1FB0F5FF1FE8
:108E7000F410FF1FF8B505460020009028790E2851
:108E800033D00CDC08281ED004DC022810D00628C1
:108E900049D112E00A281CD00C2844D11FE0102828
:108EA00029D012282DD0162831D018283BD134E0F3
:108EB0002846FFF701FF044637E069462846FFF7DA
:108EC00059FF044631E06946284600F077F9044628
:108ED0002BE06946284600F081FA044625E0694601
:108EE000284600F07FF804461FE06946284600F057
:108EF00003FA044619E06946284600F0A7F804463C
:108F000013E06946284600F0A1FA04460DE06946E0
:108F1000284600F02DF8044607E069462846FFF78A
:108F2000DBFE044601E0002400BF00BF002C0ED091
:108F3000687814280BD00C4E287930706846008869
:108F40007080347168883146FCF79CFA00BF28466F
:108F5000FCF79EFA05480068002803D0284603491C
:108F600009688847F8BD0000A6F6FF1FD8D9FF1F83
:108F7000F3B583B00446264608360025308802A99A
:108F8000FCF7DEF90746002F23D0387A202108406D
:108F9000002810D068460089FFF700FE0190019874
:108FA000002806D0608812223946019B9847054662
:108FB00000E00E2500BF002D0CD160883146FFF780
:108FC000BDFD0546002D05D160883146FCF766FAE7
:108FD00000E00125002D02D0318804980180284648
:108FE00005B0F0BDF3B587B005462E46083630888B
:108FF00005A9FCF7A5F906900698002819D0114F8D
:1090000011480078401EC0B271880097019102900B
:1090100068887B1C04906846828A06990498FDF74C
:1090200039F90446002C03D168883946FCF73CFA2C
:1090300000E00124002C02D03188089801802046ED
:1090400009B0F0BDA6F6FF1FEC10FF1FF3B587B007
:10905000079807460837554C00250020059006A8BC
:1090600000903B79798838887A1D0490FCF7FEF9E6
:1090700006467DE0317A079A5088FCF71BFA059086
:109080000598002803D071890898018073E048484A
:109090000078801FC0B20021464A009201910290E0
:1090A00007984088444B03906846028B31460398EA
:1090B000FDF7F0F805900598002803D0718908980D
:1090C000018058E0002D04D13A480078001D6070FE
:1090D0000FE0617837480078001D814200D04AE0F7
:1090E00034480078291832480088801F814200DD0A
:1090F00041E0B17A28466A1CD5B2A21C115470898D
:10910000001229466A1CD5B2A21C5054798804ABBF
:109110006846028B3046FCF719F90646002E10D03F
:109120006846008AC1B228466A1CD5B2A21C1154F6
:109130006846008A001229466A1CD5B2A21C505407
:109140000AE0FF2128466A1CD5B2A21C1154284609
:109150006A1CD5B2A21C1154A11C481915490A78E1
:109160001549FCF757F8134800782818C5B200BF16
:10917000002E00D07EE700BF002D0CDD6178284670
:10918000FCF73CF82070079948882146FCF798F9CD
:10919000002009B0F0BD0598002801D10A200590F3
:1091A0003988089801800598F3E70000A6F6FF1FAC
:1091B000EC10FF1F8CD9FF1FB0F5FF1FF3B589B06E
:1091C0000746384608300890464D089800880790B2
:1091D00000240020069067E005A800900898037915
:1091E0004188421D0798FCF741F90646002E00D140
:1091F0005FE070890790317A7888FCF75BF9069018
:109200000698002800D054E037480078001FC0B20C
:109210000021364A0092019102907888344B0490E4
:109220006846828A31460498FDF734F8069006981D
:10923000002800D03DE0002C04D12C480078801C90
:10924000687006E0697829480078801C814200D067
:109250002FE026480078211823480088001F81420B
:1092600000DD26E0B17A2046621CD4B2AA1C11545B
:10927000708900122146621CD4B2AA1C5054A91C49
:1092800008191A490A781A49FBF7C4FF17480078E9
:109290002018C4B217490798884200D109E00798FE
:1092A000401C80B2079000BF0F480088001FA042FA
:1092B00092DA00BF002C0BDD69782046FBF79EFF99
:1092C000287078882946FCF701F900200BB0F0BD22
:1092D0000698002801D10A2006900A99079808806C
:1092E0000698F3E7A6F6FF1FEC10FF1F8CD9FF1FAF
:1092F000B0F5FF1FFFFF0000F3B587B00646374605
:109300000837324C002006902070002549E06900A3
:10931000785A04A9FCF714F805900598002806D19E
:10932000012006906800395A0898018042E02848D8
:109330000078401EC0B20021264A0092019102909E
:109340007088254B03906846028A05990398FCF7BC
:10935000A1FF06900698002804D06800395A0898A2
:10936000018027E020781B490978411818480088B7
:10937000401E814206DD16480078401E2178401AC2
:10938000144908702278611C501812490A78124951
:10939000FBF740FF20780F49097840182070681CBF
:1093A000C5B2B87DA84205DD217809480088401E75
:1093B0008142ACDB00BF0698002803D170882146AB
:1093C000FCF78AF8069809B0F0BD0000A6F6FF1F6A
:1093D000EC10FF1F8CD9FF1FB0F5FF1FF0B587B051
:1093E00005460F462846083006900699088804A9C5
:1093F000FBF7A6FF05900598002819D0114E1248DA
:109400000078401EC0B20021009601910290688849
:10941000731C03906846028A05990398FCF73AFF8B
:109420000446002C03D168883146FCF75BF800E065
:109430000124002C02D0069800883880204607B00E
:10944000F0BD0000A6F6FF1FEC10FF1FF3B583B0C0
:1094500005462C4608340027208802A9FBF770FF38
:109460000646002E2CD0307A20210840002810D04B
:1094700068460089FFF792FB01900198002806D00A
:10948000688812223146019B9847074600E00E2764
:1094900000BF002F15D100200090A3782188688894
:1094A000E21C0190FDF7BFF80746002F09D1F82014
:1094B000005D002805D16888FCF71AF8019000E0EB
:1094C0000127002F02D0218804980180F820005D38
:1094D000002802D0002005B0F0BD3846FBE70000B0
:1094E00070B505460E46002D01D1022070BD0C203E
:1094F000FCF704F80446002C01D11320F6E7002005
:109500002060A580A66009480068002802D10748AD
:10951000046008E00549086800E000680168002967
:10952000FBD1046000BF0020E0E7000088D9FF1FE6
:10953000F8B50446F820604380B2009000201E4930
:1095400008701E48406800280AD0002006E000216C
:10955000C2001A4BD2185160411CC8B20128F6DB78
:10956000174D002D26D000212846009AFBF758FE03
:10957000002019E001466143CAB2F821514349195C
:10958000C3000E4E9B195960002109E00023C6005C
:109590000A4FF6197668F8274F43F3534B1CD9B29C
:1095A000A142F3DB411CC8B20128E3DB024804708E
:1095B0000020F8BD1320FCE784D9FF1F7CD9FF1FD2
:1095C000B8F4FF1FFFB585B005460C4616460E9F42
:1095D00000200490207802281CD16068007861681F
:1095E00049780902401880B203900D490398401849
:1095F00000280AD1022000970190324621462846D1
:10960000089BFCF7EDFD049002E00120049000BFF0
:1096100000BF01E001200490049809B0F0BD0000F3
:10962000FED6FFFF70B588B00446002638A002F0D1
:10963000D5FC3AA002F0D2FC35A101A8FBF764FFEB
:1096400039A101A8FBF73AFA064600250CE0A8006C
:10965000364A115801A8FBF723FA002803D1681CE9
:109660006946087702E06D1C0C2DF0DB00BF2EA1CF
:109670000020FBF723FA06463046FBF743FAC1B257
:109680006846C17628A10020FBF718FA0646304646
:10969000FBF738FA81B26846C18320A101A8FBF725
:1096A00033FF23A101A8FBF709FA06463046FBF772
:1096B00029FAC1B2684681761DA10020FBF7FEF9A8
:1096C00006463046FBF71EFAC1B26846417618A13D
:1096D0000020FBF7F3F906463046FBF713FAC1B258
:1096E00068460176007F401E20616846C08B1149A4
:1096F000401A60616846C07EE0606846807EA06077
:109700006846407E60606846007E206008B070BD9C
:109710004E6F7620203620323031390031373A31E1
:10972000323A34350000000020000000ACD6FF1FA4
:109730003A0000006C07000030B50146002010E040
:109740008400094D6419E46CA2B284006419E46CCD
:10975000230C84000A534400641C64000B53421C15
:10976000D0B20928ECDB30BD80400240FEB50D468A
:1097700014461E46002000900898002801DD0B20AA
:10978000FEBD287802285BD168680078696849784E
:109790000902401880B20190152149020198401A2F
:1097A0000300FBF755FD050413231B294700E86858
:1097B000FBF7D8FDC7B20998874200DD099F3770D3
:1097C0003A462046E968FBF725FD38E0E968088855
:1097D0000221317020700112617030E0062030707B
:1097E00006222046E968FBF715FD28E001203070CD
:1097F000E8680078207022E0E868002817D0E86860
:109800000821317001782170018809126170817816
:10981000A17041880912E1700179217181880912D2
:1098200061718179A171C1880912E17101E00020A3
:10983000307004E0002030700120009000BF03E091
:109840000020307001200090009899E710B50223A5
:109850000340002B04D00B78022423430B7003E059
:109860000B780224A3430B7008230340002B04D081
:109870000B78082423430B7003E00B780824A343E0
:109880000B7020230340002B04D00B7820242343AB
:109890000B7003E00B782024A3430B7002230340DA
:1098A000002B07D108230340002B03D120230340C2
:1098B000002B04D013780C242343137005E00028F8
:1098C00003D113780C24A343137010BDFEB50C46CE
:1098D00016461F46089D002002902078022877D166
:1098E00060680078616849780902401880B2019088
:1098F000152149020198401A06D0012831D00228CA
:1099000068D0032873D151E0E068FBF72BFDC0B2AB
:1099100000900098854205DCE819152804DD0D202B
:10992000029001E0072002900298002818D1E16817
:1099300048193A463146FBF76DFCE81985B200201C
:10994000E168485535480068002809D03348006868
:109950000068002804D0314800680168002088476A
:1099600055E0002D04D1022F04D00D20029001E01B
:109970000B2002900298002817D1E0680090307800
:1099800071780902401881B200980180234800686C
:10999000002809D0214800680068002804D01F482A
:1099A000006801680120884700BF30E0002D04D125
:1099B000062F04D00D20029001E00B2002900298A7
:1099C000002804D106223146E068FBF723FC1EE0A4
:1099D0001FE0FFE7002D0ED1012F09D130780028BC
:1099E0000BD03078012808D08020029005E00BE0F1
:1099F0000D20029001E00B2002900298002802D175
:109A00003078E168087002E00120029000BF00BFDA
:109A100001E0012002900298FEBD0000DCD9FF1F8A
:109A200010B502460B46122A01DB052010BD124874
:109A3000816B0120904001430F488163416B0120FD
:109A400090400C46844321460B484163C16B002B78
:109A500003D101209040014304E0012090400C46D6
:109A6000844321460448C163016B012090400143B7
:109A7000014801630020D9E70080004010B502468C
:109A8000042A11DA002907D01348406901239340C2
:109A90001843114B58611CE00F4840690123934063
:109AA00098430D4B586114E0002909D00A484069D9
:109AB0001346123B01249C402043074B586108E0A9
:109AC000054840691346123B01249C40A043024BC9
:109AD0005861002010BD00000038004070B500241F
:109AE0001BE00F48005D022807DDE0B200F01CFD1E
:109AF0000546E0B2294600F045FD232C0CDA084863
:109B0000005D022808DDE0B200F00EFD0C2161438B
:109B1000034A233289184870641C232CE1DB70BD92
:109B2000B5F9FF1F10B502211020FDF763F81020D2
:109B3000FCF7DCFF00240CE00C2060430649085CC5
:109B4000002805D0E0B200F085FDE0B200F078F822
:109B5000641C232CF0DB10BDD8F9FF1FF3B581B0D6
:109B60000646234D002440E00120A040304000285C
:109B70003AD00120A04002990840002801D10120DC
:109B800000E000200746E0B2394600F033F80C2030
:109B9000604340194068002810D00C2060434019F1
:109BA000806800280AD0002F01D1012000E00020A9
:109BB0000746E0B23946FFF733FF14E00C2060435C
:109BC00040194068002804D0E0B20021FFF728FFC8
:109BD00009E00C20604340198068002803D0E0B2FF
:109BE0000121FFF71DFF00BF641C122CBCDBFEBD72
:109BF000D8F9FF1F70B504460E46104D0C20604387
:109C000040194068002808D0002E06D10C2060437F
:109C100040194268204690470EE00C2060434019EE
:109C20008068002808D0012E06D10C20604340191E
:109C3000012182682046904770BD0000D8F9FF1FBF
:109C400070B50446204600F06FFC0546002D01D19A
:109C5000012000E0002006460C2060430449401823
:109C60004078A84203D031462046FFF7C3FF70BDBD
:109C7000D8F9FF1F30B595B02A48406B400A400222
:109C80002849486300243DE02648C06B8005800DCC
:109C90000121A1400840002832D000250BE0E0015E
:109CA00021494118E81C800008580005000D690092
:109CB00005AA50526D1C1D2DF1DB1A48806B012145
:109CC000A14008431749886318480078002800D14C
:109CD00017E0A1001548001D405800280FD00120B2
:109CE00001906846047205A803901D21684601741E
:109CF000A2000E48001D815801A8884700BF00BF80
:109D000000BF641C082CBFDB08484078002801D144
:109D100000F0CEF90348406B054908430149486308
:109D200015B030BD00000540000405407CFBFF1F5E
:109D3000FF01000070B50548C56B04484030046859
:109D4000C46029462046FFF709FF70BD008000402F
:109D500000B58BB025480078012802D100202349A6
:109D60000870234A51881078FBF7A2FA02A8FFF77F
:109D7000E3FC1F4840380079012802D102A802F014
:109D8000FBFE1B484038006900280FD002AA184982
:109D90002839684601F088FA68460078002804DD12
:109DA0001348403801696846884700BF242202A949
:109DB0000F482838FAF750FE0E4840680121490440
:109DC00008430C4948600846406801210843094996
:109DD0004860074B403B1B7D1A460A32044B5988AA
:109DE0001878FBF75FFA0BB000BD000068DCFF1FBE
:109DF0005CFCFF1FC040024038B50F4C0F4D286B74
:109E0000C007C00F002802D0A86C009038BD2069A0
:109E1000002800D1FAE7207D002805D0074A214616
:109E2000002003F0D0F804E0044A2146002003F0AB
:109E300031F800BFEAE700003CF9FF1F0060004076
:109E400038B50F4C0F4D286BC007C00F002802D04B
:109E5000A86C009038BD2069002800D1FAE7207D69
:109E6000002805D0074A2146012003F0ACF804E0A1
:109E7000044A2146012003F00DF800BFEAE7000084
:109E800068F9FF1F0070004010B511488068040792
:109E9000240F062C14D004DC022C0ED0042C14D178
:109EA00007E0072C0DD00C2C0FD1022001F078F91F
:109EB0000BE0012001F074F907E001F0A5F904E0DE
:109EC00003E003484030C06B00BF00BF10BD00007E
