:020000041FFFDC
:1008000000000000198EFF1FBC9BFF1FE09BFF1F15
:10081000209FFF1F000000000000000000000000FB
:1008200000000000000000000000000000000000C8
:1008300000000000000000000000000000000000B8
:1008400000000000000000000000000000000000A8
:100850000000000000000000000000000000000098
:100860000000000000000000000000000000000088
:100870000000000000000000000000000000000078
:100880000000000000000000000000000000000068
:100890000000000000000000000000000000000058
:1008A0000000000000000000000000000000000048
:1008B0000000000000000000000000000000000038
:1008C0000000000000000000000000000000000028
:1008D0000000000000000000000000000000000018
:1008E0000000000000000000000000000000000008
:1008F00000000000000000000000000000000000F8
:1009000000000000000000000000000000000000E7
:1009100000000000000000000000000000000000D7
:1009200000000000000000000000000000000000C7
:1009300000000000000000000000000000000000B7
:1009400000000000000000000000000000000000A7
:100950000000000000000000000000000000000097
:100960000000000000000000000000000000000087
:100970000000000000000000000000000000000077
:100980000000000000000000000000000000000067
:100990006185FF1F2586FF1F1D96FF1F00000000B9
:1009A0000000000000000000000000000000000047
:1009B0000000000000000000000000000000000037
:1009C0000000000000000000000000000000000027
:1009D0000000000000000000000000000000000017
:1009E0000000000000000000000000000000000007
:1009F00000000000000000000000000000000000F7
:100A000000000000000000000000000000000000E6
:100A100000000000000000000000000000000000D6
:100A200000000000000000000000000000000000C6
:100A300000000000000000000000000000000000B6
:100A400000000000000000000000000000000000A6
:100A50000000000000000000000000000000000096
:100A60000000000000000000000000000000000086
:100A70000000000000000000000000000000000076
:100A80000000000000000000000000000000000066
:100A90000000000000000000000000000000000056
:100AA0000000000000000000000000000000000046
:100AB0000000000000000000000000000000000036
:100AC0000000000000000000000000000000000026
:100AD0000000000000000000000000000000000016
:100AE0000000000000000000000000000000000006
:100AF00000000000000000000000000000000000F6
:100B000000000000000000000000000000000000E5
:100B100000000000000000000000000000000000D5
:100B200000000000000000000000000000000000C5
:100B300000000000000000000000000000000000B5
:100B400000000000000000000000000000000000A5
:100B50000000000000000000000000000000000095
:100B60000000000000000000000000000000000085
:100B70007989FF1F00000000000000000000000055
:100B80000000000000000000000000000000000065
:100B90000000000000000000000000000000000055
:100BA000000000000000000000000000617DFF1F49
:100BB0000000000000000000000000000000000035
:100BC000457DFF1F00000000000000000000000045
:100BD0000000000000000000000000000000000015
:100BE0000000000000000000000000000000000005
:100BF00000000000000000000000000000000000F5
:0C0C000001FF01FF01FF01FF41000000A7
:020000041FFFDC
:10480000E8C6FF1FD548FF1FDD48FF1FDF48FF1F19
:104810000000000000000000000000000000000098
:10482000000000000000000000000000E148FF1F41
:104830000000000000000000E348FF1FE548FF1FE4
:104840000000000000000000000000000000000068
:104850000000000000000000000000000000000058
:104860000000000000000000000000000000000048
:104870000000000000000000000000000000000038
:104880000000000000000000000000000000000028
:104890000000000000000000000000000000000018
:1048A0000000000000000000000000000000000008
:1048B00000000000000000000000000000000000F8
:1048C0000348854600F038F800480047E58DFF1F93
:1048D000E8C6FF1F0448804704480047FEE7FEE79C
:1048E000FEE7FEE7FEE7FEE78D62FF1FC148FF1F00
:1048F00003460B439B0703D009E008C9121F08C0F9
:10490000042AFAD203E00B780370401C491C521EA3
:10491000F9D27047D2B201E00270401C491EFBD2AE
:1049200070470022F6E710B513460A4604461946BA
:10493000FFF7F0FF204610BD064C0125064E05E0AE
:10494000E36807CC2B430C3C98471034B442F7D3B0
:10495000FFF7BAFF049CFF1F549CFF1F70B58C1813
:104960000578401C6B075B0F01D10378401C2A11AE
:1049700006D10278401C03E006780E70401C491CEA
:104980005B1EF9D12B0705D40023521E0DD40B70EA
:10499000491CFAE70378401CCB1A921C03E01D78EF
:1049A0000D70491C5B1C521EF9D5A142D8D30020C2
:1049B00070BD000003B40148019001BDC13C01007D
:1049C00003B40148019001BDED3C010003B401486E
:1049D000019001BDC93A010003B40148019001BD35
:1049E0005518000003B40148019001BD35180000BE
:1049F00003B40148019001BD7181000003B4014876
:104A0000019001BD3914000003B40148019001BDBB
:104A10001117000003B40148019001BDF13E0100EF
:104A200003B40148019001BD1B3D010003B40148DE
:104A3000019001BD7114000003B40148019001BD53
:104A4000C131000003B40148019001BDB142010031
:104A500003B40148019001BDD542010003B40148EF
:104A6000019001BDC912000003B40148019001BDCD
:104A70003D42010003B40148019001BD5D190000F1
:104A800003B40148019001BD593A010003B4014843
:104A9000019001BDC118000003B40148019001BD9F
:104AA0003515000003B40148019001BD4117000015
:104AB00003B40148019001BDE915000003B40148A9
:104AC000019001BD897B000003B40148019001BD44
:104AD000D520000003B40148019001BDA5E5000008
:104AE00003B40148019001BD3D1C000003B401481E
:104AF000019001BD0D1D000003B40148019001BDEE
:104B00008306000003B40148019001BD0143010088
:104B100003B40148019001BDE120000003B4014845
:104B2000019001BDF53C010003B40148019001BDB5
:104B30005D3F010003B40148019001BDDD2100008B
:104B400003B40148019001BD5590000003B4014831
:104B5000019001BD7D3A010003B40148019001BDFF
:104B6000913F010003B40148019001BDA942010039
:104B700003B40148019001BD1910000003B40148BD
:104B8000019001BDA53C010003B40148019001BDA5
:104B90003917000003B40148019001BD81170000DE
:104BA00003B40148019001BDD136000003B40148AF
:104BB000019001BD01E6000003B40148019001BD70
:104BC0006D07000003B40148019001BDBD0700005E
:104BD00003B40148019001BD891C000003B40148E1
:104BE000019001BDE907000003B40148019001BD37
:104BF0003D07000003B40148019001BD211A0000E7
:104C000003B40148019001BD050E000003B4014842
:104C1000019001BD2D0E000003B40148019001BDBB
:104C20008922000003B40148019001BD95020000F3
:104C300003B40148019001BD610E000003B40148B6
:104C4000019001BD9D0E000003B40148019001BD1B
:104C5000D50E000003B40148019001BDFD0E000017
:104C600003B40148019001BD610F000003B4014885
:104C7000019001BDED3A010003B40148019001BD6E
:104C8000E997000003B40148019001BD3D98000080
:104C900003B40148019001BDE58D000003B4014853
:104CA000019001BD4977010003B40148019001BDA5
:104CB0006902000003B40148019001BD8D3C010070
:104CC00003B40148019001BDE55B000003B4014855
:104CD000019001BDE129000003B40148019001BD2C
:104CE0009937000003B40148019001BD5114000040
:104CF00003B40148019001BD091F000003B401483D
:104D0000019001BDA579000003B40148019001BDE7
:104D10004103000010B5034A1321034800F01EFFB1
:104D200010BD0000889BFF1F789CFF1FF8B504464C
:104D30000D4616460027002C05D12A463146044868
:104D4000FFF738FE01E0022700BF00BF3846F8BD7C
:104D5000619CFF1FFFB58DB000200B900C900BAA3B
:104D60000E990D9800F086F804460A2C5EDA20466B
:104D700001F0E5FC054634480078022801D1012005
:104D800000E0002000902A462146109B0F9801F079
:104D900057FC1422002106A8FFF712FE2146062226
:104DA00051432431C8B206AA102104F069F8002842
:104DB00015D11022FF2106A8FFF708FE00280ED10A
:104DC0002146062251432531C8B20AAA042104F023
:104DD00057F8E907C90F06AA0F98FFF7FDFD21460E
:104DE0007031C8B202AA102104F04AF8002813D189
:104DF00002A801F0B8FC00260CE0B00002A9471898
:104E00003888002804D0BA7839880F9800F0F6FE68
:104E1000701CC6B2042EF0DB02202840002804D00B
:104E20000A4801780F9800F0D3FE00BF10980428BC
:104E300006D105480078022802D10F9801F0CCFC79
:104E4000002011B0F0BD0000759EFF1F749EFF1F73
:104E500010B5044605480460054801782620FFF790
:104E6000C1FD0348007800F073FE10BD889EFF1F4F
:104E7000749EFF1FF8B506460F4614460A25002EFD
:104E800006D0012E05D0022E11D0032E29D11BE011
:104E900000BF384601F004FC05460A2D06DA002C56
:104EA00004D0062239462046FFF784FD1AE0384632
:104EB00001F00EFC05460A2D05DA002C03D0214630
:104EC000284601F01FFC0DE0384601F060FC054665
:104ED0000A2D05DA002C03D02146284601F012FCE9
:104EE00000E000BF00BF2846F8BD000070B50546D1
:104EF0000C46002603200002281A0300FFF778FD65
:104F00001D10141A20242A2E32394044484E52567D
:104F10005A5E62666A6E72787C809084888C90009B
:104F200045480078207084E0102244492046FFF76D
:104F300041FD7EE0102242492046FFF73BFD78E02C
:104F400040480068206074E006223F492046FFF791
:104F500031FD6EE03D48007820706AE03C480088F2
:104F6000208066E03B4802783B492046FFF722FD5F
:104F70005FE03A4802783A492046FFF71BFD58E0C7
:104F800038480078207054E037480078207050E0AE
:104F9000062236492046FFF70DFD4AE034480078E6
:104FA000207046E033480078207042E032480088A4
:104FB00020803EE03148008820803AE03048007888
:104FC000208036E02F480088208032E02E4800887C
:104FD00020802EE02D48008820802AE02C48008880
:104FE000208026E006222B492046FFF7E3FC20E044
:104FF0002948008820801CE028480088208018E08C
:1050000027480088208014E026480078207010E0AF
:105010002548008820800CE024480088208008E093
:10502000272D04DA2846FFF7E9FC208000E002265D
:1050300000BF00BF304670BD0E9EFF1FA4BDFF1F06
:10504000B4BDFF1F109EFF1F149EFF1F1A9EFF1F5F
:105050001C9EFF1F1E9EFF1F1F9EFF1F3E9EFF1FC9
:10506000C4BDFF1F3F9EFF1F409EFF1F419EFF1FAD
:10507000479EFF1F489EFF1F4A9EFF1F509EFF1F17
:10508000589EFF1F5A9EFF1F5C9EFF1F5E9EFF1FC4
:10509000609EFF1F529EFF1F629EFF1F649EFF1FA8
:1050A000669EFF1F0D9EFF1F4C9EFF1F4E9EFF1F03
:1050B00010B5044613480470002013490870401EC0
:1050C000124908800F480078FFF79EFC0420104921
:1050D0000870102200210F48FFF772FC10220021F7
:1050E0000D48FFF76DFC00200C4908600C49087062
:1050F0000C49087001200C49087000200B49087009
:1051000010BD00000C9EFF1F0D9EFF1F4A9EFF1F3B
:105110000E9EFF1FA4BDFF1FB4BDFF1F109EFF1FEB
:105120003F9EFF1F409EFF1F479EFF1F489EFF1F81
:10513000FEB506460C460120C0032040002810D0D2
:1051400047480078FFF766FC051E05D0284601F0A9
:1051500011FD2846FFF764FC20460121C9034840A1
:10516000FEBD012080032040002804D020460121FC
:1051700089034840F4E7E007C00F00283ED03948D3
:105180000078002836D038480078052803D103205D
:10519000694608700CE0354801786846017034486B
:1051A00001786846417006223249801CFFF702FCF4
:1051B000314801786846017230480178684641728A
:1051C000694627480078FFF731FC002811D00720F6
:1051D000254908702A48006800280AD02848006835
:1051E0000068002805D02648006801681E4800783D
:1051F000884700BF204601214840B1E702202040F7
:10520000002816D01848007805280ED11D480088BF
:10521000FFF712FC1C480088002806D01A480288B4
:1052200002210F480078FFF70DFC2046022148407C
:1052300096E704202040002806D0002001F036FD2B
:105240002046042148408BE708202040002805D054
:1052500001F0DEFA20460821484081E700207FE780
:105260000C9EFF1F1A9EFF1F0D9EFF1F3F9EFF1FDC
:10527000409EFF1F419EFF1F479EFF1F489EFF1F2E
:105280006C9EFF1F4A9EFF1F509EFF1FF8B50446ED
:105290000D4617461E4617480078052801D01420F1
:1052A000F8BD062C23DB1920C00184421FDA062D2D
:1052B0001DDB85421BDAFF20F530874217DA0A2E04
:1052C00015DB1920C001864211DA0B4804800B4817
:1052D00005800B4807800B480680069801F0E6FC25
:1052E000042109480078FFF7B3FB0020D8E7182015
:1052F000D6E700000D9EFF1F5A9EFF1F5C9EFF1FFA
:105300005E9EFF1F609EFF1F0C9EFF1FF8B50646A6
:105310000C46154600200090BA4830180300FFF7ED
:1053200067FB190E1924FD2D6A738DA7B3BFCAD66A
:10533000FDE2FCFBFAF9F8FDFDFDFDF7FD00102C88
:1053400005D110222946B048FFF734FB01E01820B0
:10535000009054E1102C05D110222946AB48FFF7EC
:1053600029FB01E01820009049E1042C03D1A84951
:105370002868086001E01820009040E1012C37D136
:10538000A44807782878A3490870002F14D008464D
:105390000078002810D1A0480078022807D09E4845
:1053A0000078062803D09C48007804281FD19B4829
:1053B0000078FFF753FB1AE0002F18D195480078CA
:1053C000002814D09448007801280BD09248007827
:1053D000032807D090480078052803D08E4800782D
:1053E000042804D101218D480078FFF73DFB01E03E
:1053F0001820009003E1022C03D1288888490880F6
:1054000001E018200090FAE01F2C14DC1F2200217C
:105410008448FFF7D5FA224629468248FFF7CAFAA0
:10542000814804707F4B224601217C480078FFF7B9
:1054300021FB009001E018200090E0E01F2C14DC1C
:105440001F2200217948FFF7BBFA224629467748F8
:10545000FFF7B0FA76480470744B027800216F4869
:105460000078FFF707FB009001E018200090C6E0ED
:10547000012C06D12878042803DC28786D490870AF
:1054800001E018200090BAE0012C06D1287803280A
:1054900003DC28786849087001E018200090AEE02D
:1054A000062C05D1062229466448FFF783FA01E05D
:1054B00018200090A3E0012C06D12878072803DCEF
:1054C00028785F49087001E01820009097E0012CCF
:1054D00006D12878032803DC28785A49087001E0AF
:1054E000182000908BE0022C19D12888564908809A
:1054F00008460088002814D047480078052810D1B5
:1055000008460288022145480078FFF79BFA08E028
:105510004EE03EE030E020E010E003E062E01820E2
:1055200000906CE0012C06D12878012803DC287853
:105530004649087001E01820009060E02888022C9D
:1055400008D1062806DB1921C901884202DC40493E
:10555000088001E01821009151E02888022C08D130
:10556000062806DB1921C901884202DC3949088076
:1055700001E01821009142E02888022C06D1FF2189
:10558000F531884202DA3449088001E0182100919F
:1055900035E02888022C08D10A2806DB1921C90128
:1055A000884202DC2D49088001E01821009126E0A4
:1055B0002F78012C13D1012F11D108211748007821
:1055C000FFF75EFA002807D101F070FB04211348B1
:1055D0000078FFF73DFA04E01620009001E0182063
:1055E00000900CE0272E07DA022C05D129883046DE
:1055F000FFF7F8F9009001E00220009000BF00BF23
:105600000098F8BDFFFCFFFFA4BDFF1FB4BDFF1F46
:10561000109EFF1F1A9EFF1F0D9EFF1F0C9EFF1F57
:105620001C9EFF1F1F9EFF1F1E9EFF1FC4BDFF1F4E
:105630003E9EFF1F3F9EFF1F409EFF1F419EFF1F7C
:10564000479EFF1F489EFF1F509EFF1F589EFF1F33
:105650005A9EFF1F5C9EFF1F5E9EFF1F609EFF1FE6
:1056600010B5044606480078002807D1002C01D068
:105670000448046001F002FB002010BD1120FCE78B
:105680000D9EFF1F6C9EFF1F10B507480078052870
:1056900007D113220548018805480078FFF7F6F97D
:1056A00010BD1220FCE700000D9EFF1F4A9EFF1F49
:1056B0000C9EFF1FF8B507460C461E460225230028
:1056C000FFF796F90A0F06080C090F0D0F0B0E0FC6
:1056D000002508E007E0002505E004E003E002E023
:1056E00001E0022500BF00BF002D0FD12146384642
:1056F000FFF7D2F90546002D08D13046079A0699E2
:10570000FFF7D0F9FFF7D4F9FFF7D8F92846F8BD2D
:1057100070B504460025E007C00F002805D0044AF4
:105720000421044800F01AFA0546284670BD00001E
:105730009C9BFF1FC89DFF1F10B504460F480470B7
:105740000F49104800F024F800200AE00021C94366
:10575000C2000D4B99520021C200D2185160411C69
:10576000C8B20128F2DB012001F0EEFF0348007807
:10577000FFF7AAF90548FFF7ADF910BDA89DFF1F77
:10578000BE9DFF1FFFFF0000AC9DFF1F656EFF1F4A
:1057900070B506460C46104886420ED1002009E03E
:1057A0000021C9438200A152002182001219917088
:1057B000411CC8B20228F3DB0CE02146304601F060
:1057C00004FB0546002D04D00020C04328800020A3
:1057D000A87000BF70BD0000FFFF0000FFB581B0E2
:1057E0000C4615461F46002000900A98002826D136
:1057F000022F21D1287869780902401886B23146F3
:105800000B988143002914D1E168019800F092F9C6
:10581000B04210D03246E168019800F025FA0090BD
:105820000098002807D161893246019800F0B0F94C
:1058300001E08020009004E00D20009001E00B20AA
:105840000090009805B0F0BD70B506460C460120EA
:10585000C0032040002816D00C480078FFF7DAF883
:10586000051E0BD02878B02803D1284601F00EFC85
:1058700000E000BF00BF2846FFF7D2F82046012114
:10588000C903484070BD0020FCE70000A89DFF1F31
:10589000FFB587B00D461C46109E0020069005906F
:1058A000287A10210840002814D0099801F082FAC3
:1058B0000746002F05D00A2229460798B8470590C9
:1058C00001E00E2005900598002802D005980BB045
:1058D000F0BD00BF287802287ED16868007869682A
:1058E00049780902401880B20490292212020498D3
:1058F000811A904271D009DC8B49401A0FD00128DF
:105900000ED0022848D0032868D118E0012966D0BB
:1059100002297DD003297CD00429F5D1C9E000BF3C
:105920001198002808D1EF68387830703A7820460E
:105930007968FFF73FF801E00B200590D6E0119859
:10594000002826D101203070E8680078207069892D
:10595000491C88B20021FFF7C3F80746002F0FD07B
:1059600031783878801C08183070B87A607078897F
:105970000012A0703A78E01C7968FFF71BF807E086
:105980003078001D307004220021601CFFF718F8E9
:1059900001E00B200590A9E01198002844D1E868A7
:1059A0000088019004203070019820700198001246
:1059B000607003A90198FFF793F80746002F29D0DC
:1059C000F868009002AB6846828958493846FFF76C
:1059D0008DF800280ED103E08AE039E083E046E04C
:1059E0003B78022152487A68FFF786F8002801D1F7
:1059F000401E029000980078022808D100980222E8
:105A00004168201DFEF7D6FF3078801C307003E01F
:105A10000DE01EE00198029068460089A07068467B
:105A200000890012E07001E00B2005905EE0119803
:105A300000280AD1E968079800F07CF807460220A0
:105A4000307027703812607001E00B2005904DE037
:105A500000BF1198002807D1E96808880221317039
:105A600020700112617001E00B2005903EE0E868B3
:105A7000FFF748F8C7B21198B84217DC1198B8423E
:105A800001D1002709E0129911984018B84201DAB3
:105A9000129F02E01198381AC7B23770EA6811985D
:105AA00011183A462046FEF785FF01E007200590D1
:105AB0001CE01198002813D1E868072131700178A3
:105AC0002170417861708178A17041880912E1707C
:105AD0000179217181796171C1880912A17101E097
:105AE0000B20059002E00120069000BF00BF01E0FE
:105AF000012006900698012813D1099801F08AF92F
:105B00000746002F0AD01299119833462246019178
:105B1000009029460798B847059001E00E200590AF
:105B200000BF0598D3E6000000280000FFFF00003A
:105B30001E7C010070B505460E463146284601F030
:105B400044F90446002C01D0A07870BD0020FCE789
:105B50000149087070470000A99DFF1FFEB504466B
:105B60000F461646002C0FD0019468460780FEF7BA
:105B7000CFFF0546002D06D1002E04D060893146A6
:105B800001F0BAFD054600E002252846FEBD0000F2
:105B9000F8B505460E4617460C480078FF2813D086
:105BA0000A20FEF7BBFF0446002C0CD0B120207069
:105BB0000020607020716580E680278121460348BF
:105BC0000078FEF7B1FF00BFF8BD0000A99DFF1FE0
:105BD00070B504460D4608492046FFF7ABFF064660
:105BE00002203040002804D029462046FEF7A2FFBC
:105BF00070BD0120FCE70000BE9DFF1F7CB505467F
:105C00000E461446684604712004010E6846417130
:105C10000020022301AA31460090284600F001F836
:105C20007CBDFFB583B00D461E4602A92846FEF78F
:105C300057FF01900198002811D06846008901F0B3
:105C400005F90746002F08D00C98F3B20090059A8A
:105C500001990398B847044600E00E2400E00124AF
:105C6000204607B0F0BD0000F8B505460F461646C1
:105C70003946284601F0A9F80446002C09D13946D6
:105C8000054801F0A2F80446002C01D11120F8BD0E
:105C90002580A6700020FAE7FFFF000070B50446DB
:105CA0000025E007C00F002805D0044A072104485A
:105CB000FFF754FF0546284670BD0000B09BFF1F4C
:105CC000B09EFF1FF8B506460C4615460027330068
:105CD000FEF78EFE0805143C3C1C3C26313C152C7E
:105CE0000ADC162200211C48FEF76AFE22462946DD
:105CF0001948FEF75FFE00E0182729E0022C03D1C7
:105D000028881649088000E0182721E0082C05D1D2
:105D1000082229461248FEF7EBFD00E0182717E09D
:105D2000012C06D10F492878CA69283101F0F6FD07
:105D300000E018270CE0012C06D10A492878CA6B2C
:105D4000483101F0EBFD00E0182701E0022700BF19
:105D500000BF3846F8BD00008ABEFF1FA29EFF1F8D
:105D6000A69EFF1FB09EFF1F002805DBC206D20EB5
:105D700001219140014A11607047000000E100E0FC
:105D800010B5002819DB1A4A03231B02D218830816
:105D90009B00D2588307DC0EFF23A3409A438B0756
:105DA0001B0E8407E40EA3401A43114B0324240264
:105DB0001B198408A4001A5118E00E4A03071B0F90
:105DC000083B9B089B00D2588307DC0EFF23A340AF
:105DD0009A438B071B0E8407E40EA3401A43054B1E
:105DE0000407240F083CA408A4001A5110BD0000A9
:105DF00000E100E01CED00E010B5002819DB1A4AB4
:105E000003231B02D21883089B00D2588307DC0EA1
:105E1000FF23A3409A438B071B0E8407E40EA34085
:105E20001A43114B032424021B198408A4001A519D
:105E300018E00E4A03071B0F083B9B089B00D25833
:105E40008307DC0EFF23A3409A438B071B0E8407B6
:105E5000E40EA3401A43054B0407240F083CA40892
:105E6000A4001A5110BD000000E100E01CED00E0AC
:105E700010B5002819DB1A4A03231B02D218830825
:105E80009B00D2588307DC0EFF23A3409A438B0765
:105E90001B0E8407E40EA3401A43114B0324240273
:105EA0001B198408A4001A5118E00E4A03071B0F9F
:105EB000083B9B089B00D2588307DC0EFF23A340BE
:105EC0009A438B071B0E8407E40EA3401A43054B2D
:105ED0000407240F083CA408A4001A5110BD0000B8
:105EE00000E100E01CED00E03EB50446002C13DDAF
:105EF000C82C11DA00216846017017214170002179
:105F000081700121C1700171C480C821018168467E
:105F100007C802F005F906E00020694608706846E7
:105F200007C802F02DF93EBD1CB5044621463DA030
:105F300002F0D2FF052C04D13F494048FEF7D6FFBE
:105F40006CE03F480078052827D1052C25D001209A
:105F50000190042C0CD120210820FEF743FD2021C4
:105F60000920FEF73FFD37490020FEF73BFD0DE01D
:105F7000192189010820FEF735FD19218901092021
:105F8000FEF730FD00210846FEF72CFD01AA012195
:105F90002A480938FFF7BAF940E029480078022872
:105FA00025D1032C23D128480078002803D00020D5
:105FB0002549087032E00820FEF720FD20282DD169
:105FC00001200190192189010820FEF70BFD1921FC
:105FD00089010920FEF706FD00210846FEF702FDB3
:105FE00001AA012115480938FFF790F916E0012CA4
:105FF00014D16946C1208000FEF778FF68464179D8
:10600000C17101798171C178417100210171C17043
:106010006A4608210020FEF789FE00BF0848047088
:106020001CBD000050574D47617053746174654347
:10603000423A2025640000004C9FFF1F0E03000021
:10604000259FFF1F307500004E9FFF1F70B504464F
:106050000025054A03210548FFF780FD0546044851
:106060000460284670BD0000F89BFF1F609FFF1F63
:10607000589FFF1FF0B5059C0026002C01DD0B206A
:10608000F0BD486800784F687F783F02C01985B23C
:106090000548854205D101201870C8680078107045
:1060A00000E00A263046EBE702FF0000FEB50C4692
:1060B00015461E46089F00200190606800786168C0
:1060C00049780902401880B200900E4900984018A3
:1060D000002811D1002F02DD0B2001900BE0012ED2
:1060E00002D00D20019006E02878E1680870287839
:1060F00005490968884702E00A20019000BF00BFF7
:106100000198FEBDFE00FFFF589FFF1F30B58BB00A
:1061100004464248047001210A9107210991002197
:1061200008910791C8210691C900059101210491A8
:106130007D21C90003913AA103C90291019001AAEE
:1061400006213948FFF7E2F809AA0121C32080009F
:10615000FFF7DCF80AAA01213348801FFFF7D6F8C1
:1061600008AA02213048401FFFF7D0F82F4A0A2121
:106170006120C000FFF7CAF82D4A07212A48001FF6
:10618000FFF7C4F807AA012131200001FFF7BEF88C
:1061900006AA02212448801DFFF7B8F805AA0221AB
:1061A0002148C01DFFF7B2F804AA02211E4808309A
:1061B000FFF7ACF803AA0221C5208000FFF7A6F87C
:1061C0001C4A15210020FFF77DFDFF25913529464A
:1061D0000620FEF707FC29460720FEF703FC2946A8
:1061E0000820FEF7FFFB29460920FEF7FBFB0020F5
:1061F000C043FFF753FD0020C043FFF789FAFEF7C5
:1062000089FD0D48FFF722FF012104480078FEF7C1
:106210002BFC02F061F80BB030BD0000249FFF1F83
:1062200001020304050600000B030000269FFF1F68
:10623000309FFF1F379FFF1FE95EFF1F70B50546A8
:106240000C46214609A002F047FEE007C00F0028D7
:1062500009D00C48FFF704FA0B48FEF7F9FD204679
:106260000121484070BD0020FCE7000050574D5F01
:1062700050726F636573734576656E743A2030783B
:1062800025780A00509FFF1FE49BFF1F0148024929
:106290000860704740787D01909FFF1FF8B5064663
:1062A0000027FEF74DFC05460AE0FEF749FC0446D0
:1062B000AC4201D3601B02E00348401B00190746B3
:1062C000B742F2D3F8BD0000FFFFFF0002E008C8AC
:1062D000121F08C1002AFAD170477047002001E060
:1062E00001C1121F002AFBD1704710B5FEF72EFC2A
:1062F0000120FEF731FCFEF735FC002010BDF0B5A3
:1063000000248E464A1E12E0714600230D1B6D1EAE
:106310000AE09E0031188C46875949688F4202D99D
:10632000815161464F605B1C9D42F2D8641C9442CF
:10633000EAD3F0BD10B50020054CFF212218401C07
:1063400051704028FADB03F00FF8207010BD0000F8
:10635000A0BEFF1F10B50020054CFF212218401CD5
:1063600051700628FADB03F01DF8207010BD000004
:10637000999FFF1FF0B58646080CFF268446002330
:1063800088B237461C46194601228A400546154008
:10639000CD402C19A4B2FF2F02D1012C00D18FB215
:1063A00065462A40CA40D21893B2FF2E02D1012B73
:1063B00000D18EB2491C1029E6DB012C02D0102C32
:1063C00008D009E0012B07D13001C01971460870CF
:1063D0000220F0BD102B01D00320F0BD0120F0BD44
:1063E000032800DA70470121890789680122824069
:1063F000114301229207916000BFF3E70148006852
:10640000704700001010FF1F012189070968012251
:1064100082409143012292071160114609680122CE
:10642000824011430122920711607047FFB583B08B
:106430000F461D460D9E0C9C002002907868007847
:10644000796849780902401880B20190714A019830
:10645000811A904268D00ADC6F49401800280FD09A
:10646000012822D0022835D0032872D147E0012923
:1064700073D002296FD003296ED02929F5D1ABE062
:10648000082C02D3072002900EE00820001BB04227
:1064900001D9304601E00820001B28702A785F48A7
:1064A00001190598FEF786FAB0E00C2C02D30720FC
:1064B00002900EE00C20001BB04201D9304601E0F2
:1064C0000C20001B28702A78554801190598FEF702
:1064D00071FA9BE00D2C02D3072002900EE00D20F4
:1064E000001BB04201D9304601E00D20001B28708E
:1064F0002A784C4801190598FEF75CFA86E0112CC1
:1065000002D3072002900EE01120001BB04201D9F7
:10651000304601E01120001B28702A7842480119FA
:106520000598FEF747FA71E0112C02D3072002907C
:106530000EE01120001BB04201D9304601E01120CD
:10654000001B28702A78394801190598FEF732FA9D
:106550005CE056E001E015E029E0112C02D30720B1
:1065600002900EE01120001BB04201D9304601E03C
:106570001120001B28702A782D4801190598FEF774
:1065800019FA43E0112C02D3072002900EE01120EB
:10659000001BB04201D9304601E01120001B2870D9
:1065A0002A78244801190598FEF704FA2EE00E2CEB
:1065B00002D3072002900EE00E20001BB04201D94A
:1065C000304601E00E20001B28702A781A48011975
:1065D0000598FEF7EFF919E0072C02D30720029087
:1065E0000EE00720001BB04201D9304601E0072031
:1065F000001B28702A78114801190598FEF7DAF96E
:1066000004E0002028700A20029000BF00BF02981A
:1066100007B0F0BD272A0000DDD5FFFF619CFF1FFA
:10662000149BFF1F219BFF1F2F9BFF1F419BFF1FE1
:10663000539BFF1F659BFF1F779BFF1F719CFF1FD5
:10664000FFB587B00C4616461F46082F05D12046D9
:10665000062148432230C5B204E0204606214843C3
:106660002130C5B21C2200216846FEF7A9F96A460E
:106670001C21284602F004FC00280ED16846807ECA
:1066800007280ADB6846807E102806DCF107C90F60
:106690006A46109B0798FEF76BFA0BB0F0BD00003E
:1066A00070B5054600240DE00E216143074A8818A5
:1066B00006222946FEF762FA002801D0204670BD66
:1066C000601CC4B20A2CEFDB0A20F8E7F4BDFF1F00
:1066D00070B5054600240EE00E216143084A891872
:1066E000881D06222946FEF749FA002801D02046D7
:1066F00070BD601CC4B20A2CEEDB0A20F8E7000073
:10670000F4BDFF1F7FB504460D460A2C01DA002DAB
:1067100002D1022004B070BD21460622514320312F
:10672000C8B26A460E2102F0ABFB0646002E04D129
:10673000062269462846FEF73DF93046EAE71FB5CE
:1067400004462146062251432031C8B26A460E2132
:1067500002F096FB002804D168468089C0B204B0DC
:1067600010BD0020FBE7014600200DE082008A5AA0
:10677000D2438300CA52820052189278D2438300D7
:106780005B189A70421CD0B20428EFDB70477FB5CB
:10679000054600241CE02146062251432331C8B29D
:1067A0006A46102102F06CFB00280FD11022FF2155
:1067B0006846FEF70BF9002808D129466846FEF71F
:1067C000E3F9002802D1204604B070BD601CC4B2B9
:1067D0000A2CE0DB0A20F7E770B5054600240A48DA
:1067E0000078002801D0012000E000200443074881
:1067F0000078002801D0042000E000200443214656
:106800002846FEF7C7F970BD7B9EFF1F789EFF1FCD
:1068100008B50E480078002815D0012802D00228BB
:1068200010D10CE001200090094803880948028833
:106830000948018809480088FEF728FD04E0FEF7B2
:1068400023FF01E000BF00BF00BF08BD689EFF1F1F
:10685000609EFF1F5E9EFF1F5C9EFF1F5A9EFF1FD4
:10686000F8B504460026A0780300FEF7C1F8080535
:10687000FE214A4B8FE3FDFE25466F78002F10D195
:106880000622E91CA748FEF795F80120A6490870E2
:10689000A64BA74802780121A6480078FEF7EAF83F
:1068A0000746002F02D007209F490870012625E1E6
:1068B0002546687800281CD1E878002809D09E4B2E
:1068C0009E48027800219B480078FEF7D3F8687054
:1068D0000FE09548007802280BD0012195480078F8
:1068E000FEF7CEF8002804D1012192480078FEF787
:1068F000BBF86878002803D007208B490870012670
:10690000FCE000BF2546687800283AD1A07803282B
:106910000BD185480078052803D1062082490870EC
:1069200032E00220804908702EE085480088002867
:106930000BD08448007800280AD0814802880121C1
:106940007C480078FEF77EF802E000207D49087060
:1069500075480078062803D105207349087013E0B4
:1069600071480078042808D1012076490870012177
:1069700070480078FEF778F806E003206A4908704E
:1069800002E00720684908700126B7E025466878CC
:10699000002840D10622291D6B48FEF70BF86889B4
:1069A0006A490880A8896A490880E8896949088095
:1069B00005205D49087068480088002806D06648B0
:1069C000028802215B480078FEF73CF8A8896349F9
:1069D0000880E88962490880288A624908806248FC
:1069E000007801280DD11F20FEF708F807467D200A
:1069F000C0007843024604214E480078FEF722F892
:106A000000BF6A89E8780423291DFEF7A3F9002056
:106A10004C4908700CE06878312806D100204949BB
:106A2000087003204049087002E007203E490870C2
:106A3000012663E02546062200214348FDF7C0FFFA
:106A400000204649088046490880464908800421BC
:106A500038480078FDF7FCFF082136480078FDF73C
:106A6000F7FFA879082801E01FE046E003D10420E1
:106A70002D49087002E003202B4908700126314897
:106A80000078002804D02B480078FDF7E7FF07E0E6
:106A900001202C490870012126480078FDF7E4FF09
:106AA0000020C0432949088028E0254608212148C4
:106AB0000078FDF7CDFF687800281DD1E8882749C8
:106AC0000880288926490880688926490880042189
:106AD00018480078FDF7D4FF00280DD1234800683E
:106AE000002809D02148006803681E4802881C4815
:106AF00001881A480088984700E000BF00BF012EB7
:106B00000ED11B48006800280AD0194800680068A8
:106B1000002805D0164800680168034800788847B7
:106B2000F8BD0000149EFF1F0D9EFF1F1F9EFF1F3C
:106B30001E9EFF1F0C9EFF1FC4BDFF1F3E9EFF1F1A
:106B40001C9EFF1F1A9EFF1F529EFF1F4A9EFF1F83
:106B50004C9EFF1F4E9EFF1F509EFF1F629EFF1FF9
:106B6000649EFF1F669EFF1F589EFF1F709EFF1FA3
:106B70006C9EFF1FF8B504462078912804D0A22807
:106B800041D0D02861D13AE060780E2828D125463E
:106B9000A8882F49884217D1A868C07846B22D48E6
:106BA000007805280FD17F2E0DD02B4800680028D3
:106BB00009D0294800684068002804D026480068A9
:106BC0004168304688470AE0A8882449884206D1AF
:106BD000A86883784278017821A002F07DF90DE061
:106BE00060780F2801D1204608E060783E2805D162
:106BF00020468178072900D000BF00BF26E020464C
:106C0000FFF72EFE22E02546687913281CD12E4678
:106C10000836308801280BD116480078022807D1A1
:106C2000082115480078FDF713FFFEF72DFD0AE057
:106C30000520FDF7E3FE07463A4608210E48007896
:106C4000FDF700FF00BF00BF00E000BF00BFF8BDC0
:106C5000051400000D9EFF1F6C9EFF1F22200000E8
:106C60005B48434920444C455D256420256420252C
:106C7000640A0000689EFF1F0C9EFF1F1CB506489B
:106C80000649074B0022009101900648017806480A
:106C90000078FEF70FFD1CBD109EFF1FB4BDFF1F47
:106CA000A4BDFF1F0E9EFF1F0C9EFF1F7CB5044658
:106CB0001E4800881E490988884211DB1B4800884D
:106CC0001C49098888420BDC1B4800881B4909883D
:106CD000884205D11A4800881A490988884223D079
:106CE0000520FDF78BFE05461148018868460180A6
:106CF00010480188684641801048018868468180B4
:106D0000104801886846C1800F48027869460F48DC
:106D10000088FDF745FF0E4804702A4608210A48FE
:106D20000078FDF78FFE00BF7CBD0000629EFF1F54
:106D30005A9EFF1F5C9EFF1F649EFF1F5E9EFF1FEB
:106D4000669EFF1F609EFF1F0C9EFF1F4A9EFF1F37
:106D5000689EFF1FF8B506460F46304600F046F81D
:106D60000446002C06D1114800F040F80446002CDF
:106D700000D02680002C17D0002511E0F8206843B1
:106D80006168085A002809D1F821694362685018DF
:106D9000F8223946FDF70EFE0020F8BD681CC5B28A
:106DA000034800788542E9DB0920F6E7FFFF000091
:106DB000B49DFF1F70B50546284600F037F804461D
:106DC000002C00D170BDA068FCE703460A460021F4
:106DD00008E08800105A984202D188008018704755
:106DE000481CC1B20229F4DB0020F8E7024600216A
:106DF00009E0C800064B185A904202D1C800C018DA
:106E00007047481CC1B20129F3DB0020F8E70000FD
:106E1000AC9DFF1F70B50546284600F007F80446F4
:106E2000002C00D170BD2068FCE700000246064837
:106E3000016805E08888904201D188687047096838
:106E40000029F7D10020F9E7B89DFF1F70B505466E
:106E50002846FFF7EBFF0446002C00D170BD6068A8
:106E6000FCE70000F3B581B00C46012C07D0022CE2
:106E700029D101210198FDF799FE002823D101981D
:106E8000FFF7B4FF0546002D18D000260EE0F820CD
:106E9000704369680F183888002800D10AE0F8228A
:106EA00000213846FDF78CFD701CC6B206480078FC
:106EB0008642ECDB00BF0020C043288003490198D4
:106EC000FEF766FC00BFFEBDB49DFF1FBE9DFF1F09
:106ED00070B50446044D054800882880608829461E
:106EE000FDF76AFE002070BDAABCFF1FEE10FF1F59
:106EF000F3B585B005462846083004900027688819
:106F0000FFF774FF0646002E35D00020039029E0DD
:106F10007168F822039850430C182088002800D18B
:106F200025E004980078012811D160880090237929
:106F300021886888621D0290FEF773FE0746002FC5
:106F400005D0002104980170218806980180F8225C
:106F500000212046FDF734FD002020800398401CCE
:106F6000C0B203900849097803988842D0DB00BF7B
:106F70000020C0433080002F02D16888FDF722FE38
:106F8000384607B0F0BD0000B49DFF1FF3B585B0D3
:106F900007463D460835384C162200212046FDF7AD
:106FA0000FFD04A800902B79698828886A1D03903A
:106FB000FDF70EFE064648E030480078C01FC0B21C
:106FC00000212F4A00920191029078882D4B69464A
:106FD0000A8A3146FEF75CFC002812D1E87928497C
:106FE000097888420DD1264802782649284608307B
:106FF000FDF7C4FD002804D0718920788200A01C10
:107000008152698803AB6846028A3046FDF76EFDFF
:10701000064620788100A01C405A002814D0002E7B
:1070200009D0684681892278501C20709200A01CEB
:107030001018418008E00021C9432278501C2070BC
:107040009200A01C1018418000BF002E04D02078B0
:107050000D4909888842AFDB2078002806DD788852
:107060002146FDF7BBFD002007B0F0BD298806983A
:1070700001800A20F8E70000AABCFF1FEC10FF1FE8
:10708000BC9DFF1FB4BBFF1FF410FF1FF8B50546E2
:107090000020009028790E2833D00CDC08281ED060
:1070A00004DC022810D0062849D112E00A281CD09E
:1070B0000C2844D11FE0102829D012282DD01628E2
:1070C00031D018283BD134E02846FFF701FF0446B1
:1070D00037E069462846FFF759FF044631E0694624
:1070E000284600F077F904462BE06946284600F070
:1070F00081FA044625E06946284600F07FF80446F8
:107100001FE06946284600F003FA044619E0694684
:10711000284600F0A7F8044613E06946284600F028
:10712000A1FA04460DE06946284600F02DF8044611
:1071300007E069462846FFF7DBFE044601E000242D
:1071400000BF00BF002C0ED0687814280BD00C4E66
:1071500028793070684600887080347168883146BC
:10716000FDF742FD00BF2846FDF744FD05480068D5
:10717000002803D02846034909688847F8BD000065
:10718000AABCFF1F089EFF1FF3B583B00446264626
:1071900008360025308802A9FDF7A2FC0746002F1B
:1071A00023D0387A20210840002810D06846008972
:1071B000FFF700FE01900198002806D06088122297
:1071C0003946019B9847054600E00E2500BF002D7B
:1071D0000CD160883146FFF7BDFD0546002D05D175
:1071E00060883146FDF70CFD00E00125002D02D03E
:1071F000318804980180284605B0F0BDF3B587B00A
:1072000005462E460836308805A9FDF769FC06902C
:107210000698002819D0114F11480078401EC0B2BE
:10722000718800970191029068887B1C04906846E1
:10723000828A06990498FEF72BFB0446002C03D1A2
:1072400068883946FDF7E2FC00E00124002C02D0FA
:10725000318808980180204609B0F0BDAABCFF1F04
:10726000EC10FF1FF3B587B0079807460837554C59
:1072700000250020059006A800903B797988388881
:107280007A1D0490FDF7A4FC06467DE0317A079A4A
:107290005088FDF7C1FC05900598002803D071893E
:1072A0000898018073E048480078801FC0B2002130
:1072B000464A00920191029007984088444B0390FF
:1072C0006846028B31460398FEF7E2FA059005986E
:1072D000002803D071890898018058E0002D04D15E
:1072E0003A480078001D60700FE0617837480078F8
:1072F000001D814200D04AE0344800782918324805
:107300000088801F814200DD41E0B17A28466A1C76
:10731000D5B2A21C11547089001229466A1CD5B23C
:10732000A21C5054798804AB6846028B3046FDF7A6
:10733000DDFB0646002E10D06846008AC1B2284602
:107340006A1CD5B2A21C11546846008A0012294654
:107350006A1CD5B2A21C50540AE0FF2128466A1CC0
:10736000D5B2A21C115428466A1CD5B2A21C1154D5
:10737000A11C481915490A781549FDF71BFB13484C
:1073800000782818C5B200BF002E00D07EE700BFED
:10739000002D0CDD61782846FDF744FC207007992C
:1073A00048882146FDF744FC002009B0F0BD05984F
:1073B000002801D10A200590398808980180059895
:1073C000F3E70000AABCFF1FEC10FF1FBC9DFF1FCE
:1073D000B4BBFF1FF3B589B00746384608300890A4
:1073E000464D08980088079000240020069067E02A
:1073F00005A80090089803794188421D0798FDF779
:10740000E7FB0646002E00D15FE070890790317AD5
:107410007888FDF701FC06900698002800D054E01B
:1074200037480078001FC0B20021364A009201910F
:1074300002907888344B04906846828A31460498DA
:10744000FEF726FA06900698002800D03DE0002CB2
:1074500004D12C480078801C687006E069782948BF
:107460000078801C814200D02FE026480078211847
:1074700023480088001F814200DD26E0B17A2046C3
:10748000621CD4B2AA1C1154708900122146621CDD
:10749000D4B2AA1C5054A91C08191A490A781A49CE
:1074A000FDF788FA174800782018C4B217490798E2
:1074B000884200D109E00798401C80B2079000BFC5
:1074C0000F480088001FA04292DA00BF002C0BDD9D
:1074D00069782046FDF7A6FB287078882946FDF7D5
:1074E000ADFB00200BB0F0BD0698002801D10A20AA
:1074F00006900A99079808800698F3E7AABCFF1F30
:10750000EC10FF1FBC9DFF1FB4BBFF1FFFFF00005F
:10751000F3B587B0064637460837324C0020069050
:107520002070002549E06900785A04A9FDF7D8FACF
:1075300005900598002806D1012006906800395A68
:107540000898018042E028480078401EC0B200211F
:10755000264A0092019102907088254B039068465C
:10756000028A05990398FEF793F906900698002879
:1075700004D06800395A0898018027E020781B4918
:107580000978411818480088401E814206DD1648D7
:107590000078401E2178401A144908702278611C36
:1075A000501812490A781249FDF704FA20780F4959
:1075B000097840182070681CC5B2B87DA84205DD66
:1075C000217809480088401E8142ACDB00BF069844
:1075D000002803D170882146FDF736FB069809B0D4
:1075E000F0BD0000AABCFF1FEC10FF1FBC9DFF1FD9
:1075F000B4BBFF1FF0B587B005460F4628460830DC
:1076000006900699088804A9FDF76AFA059005987E
:10761000002819D0114E12480078401EC0B2002137
:107620000096019102906888731C03906846028A54
:1076300005990398FEF72CF90446002C03D16888BD
:107640003146FDF707FB00E00124002C02D006982C
:1076500000883880204607B0F0BD0000AABCFF1F9C
:10766000EC10FF1FF3B583B005462C460834002705
:10767000208802A9FDF734FA0646002E2CD0307A75
:1076800020210840002810D068460089FFF792FBAF
:1076900001900198002806D0688812223146019B8B
:1076A0009847074600E00E2700BF002F15D10020A5
:1076B0000090A37821886888E21C0190FEF7B1FA57
:1076C0000746002F09D1F820005D002805D1688801
:1076D000FDF7C6FA019000E00127002F02D02188B3
:1076E00004980180F820005D002802D0002005B039
:1076F000F0BD3846FBE7000070B505460E46002D8C
:1077000001D1022070BD0C20FDF7B0FA0446002C18
:1077100001D11320F6E700202060A580A66009486B
:107720000068002802D10748046008E0054908689D
:1077300000E0006801680029FBD1046000BF002060
:10774000E0E70000B89DFF1FF8B50446F82060434D
:1077500080B2009000201E4908701E484068002832
:107760000AD0002006E00021C2001A4BD218516056
:10777000411CC8B20128F6DB174D002D26D0002190
:107780002846009AFDF71CF9002019E001466143E4
:10779000CAB2F82151434919C3000E4E9B195960D2
:1077A000002109E00023C6000A4FF6197668F82781
:1077B0004F43F3534B1CD9B2A142F3DB411CC8B277
:1077C0000128E3DB024804700020F8BD1320FCE729
:1077D000B49DFF1FAC9DFF1FBCBAFF1FFFB585B056
:1077E00005460C4616460E9F00200490207802287D
:1077F0001CD160680078616849780902401880B23D
:1078000003900D490398401800280AD102200097E0
:107810000190324621462846089BFDF7DFFF049081
:1078200002E00120049000BF00BF01E001200490AD
:10783000049809B0F0BD0000FED6FFFFFEB50D466E
:1078400014461E46002000900898002801DD0B20F9
:10785000FEBD287802285BD168680078696849789D
:107860000902401880B20190152149020198401A7E
:107870000300FDF7BDF8050413231B294700E86842
:10788000FDF740F9C7B20998874200DD099F3770BC
:107890003A462046E968FDF78DF838E0E96808883F
:1078A0000221317020700112617030E006203070CA
:1078B00006222046E968FDF77DF828E001203070B7
:1078C000E8680078207022E0E868002817D0E868AF
:1078D0000821317001782170018809126170817866
:1078E000A17041880912E170017921718188091222
:1078F00061718179A171C1880912E17101E00020F3
:10790000307004E0002030700120009000BF03E0E0
:107910000020307001200090009899E710B50223F4
:107920000340002B04D00B78022423430B7003E0A8
:107930000B780224A3430B7008230340002B04D0D0
:107940000B78082423430B7003E00B780824A3432F
:107950000B7020230340002B04D00B7820242343FA
:107960000B7003E00B782024A3430B700223034029
:10797000002B07D108230340002B03D12023034011
:10798000002B04D013780C242343137005E0002847
:1079900003D113780C24A343137010BDFEB50C461D
:1079A00016461F46089D002002902078022877D1B5
:1079B00060680078616849780902401880B20190D7
:1079C000152149020198401A06D0012831D0022819
:1079D00068D0032873D151E0E068FDF793F8C0B296
:1079E00000900098854205DCE819152804DD0D207B
:1079F000029001E0072002900298002818D1E16867
:107A000048193A463146FCF7D5FFE81985B20020FF
:107A1000E168485535480068002809D033480068B7
:107A20000068002804D031480068016800208847B9
:107A300055E0002D04D1022F04D00D20029001E06A
:107A40000B2002900298002817D1E068009030784F
:107A500071780902401881B20098018023480068BB
:107A6000002809D0214800680068002804D01F4879
:107A7000006801680120884700BF30E0002D04D174
:107A8000062F04D00D20029001E00B2002900298F6
:107A9000002804D106223146E068FCF78BFF1EE087
:107AA0001FE0FFE7002D0ED1012F09D1307800280B
:107AB0000BD03078012808D08020029005E00BE040
:107AC0000D20029001E00B2002900298002802D1C4
:107AD0003078E168087002E00120029000BF00BF2A
:107AE00001E0012002900298FEBD00009C9EFF1F55
:107AF00010B502460B46122A01DB052010BD1248C4
:107B0000816B0120904001430F488163416B01204C
:107B100090400C46844321460B484163C16B002BC7
:107B200003D101209040014304E0012090400C4625
:107B3000844321460448C163016B01209040014306
:107B4000014801630020D9E70080004010B50246DB
:107B5000042A11DA002907D0134840690123934011
:107B60001843114B58611CE00F48406901239340B2
:107B700098430D4B586114E0002909D00A48406928
:107B80001346123B01249C402043074B586108E0F8
:107B9000054840691346123B01249C40A043024B18
:107BA0005861002010BD00000038004070B500246E
:107BB0001BE00F48005D022807DDE0B200F0CCF9C1
:107BC0000546E0B2294600F0F5F9232C0CDA084806
:107BD000005D022808DDE0B200F0BEF90C2161432F
:107BE000034A233289184870641C232CE1DB70BDE2
:107BF000A1B7FF1F10B502211020FEF7FDF81020DD
:107C0000FEF7B2F800240CE00C2060430649085C43
:107C1000002805D0E0B200F007FAE0B200F078F8F2
:107C2000641C232CF0DB10BDC4B7FF1FF3B581B07B
:107C30000646234D002440E00120A04030400028AB
:107C40003AD00120A04002990840002801D101202B
:107C500000E000200746E0B2394600F033F80C207F
:107C6000604340194068002810D00C206043401940
:107C7000806800280AD0002F01D1012000E00020F8
:107C80000746E0B23946FFF733FF14E00C206043AB
:107C900040194068002804D0E0B20021FFF728FF17
:107CA00009E00C20604340198068002803D0E0B24E
:107CB0000121FFF71DFF00BF641C122CBCDBFEBDC1
:107CC000C4B7FF1F70B504460E46104D0C2060432C
:107CD00040194068002808D0002E06D10C206043CF
:107CE00040194268204690470EE00C20604340193E
:107CF0008068002808D0012E06D10C20604340196E
:107D0000012182682046904770BD0000C4B7FF1F64
:107D100070B50446204600F01FF90546002D01D13C
:107D2000012000E0002006460C2060430449401872
:107D30004078A84203D031462046FFF7C3FF70BD0C
:107D4000C4B7FF1F70B50548C56B044840300468D0
:107D5000C46029462046FFF769FF70BD00800040DF
:107D600010B5114880680407240F062C14D004DCD9
:107D7000022C0ED0042C14D107E0072C0DD00C2CB3
:107D80000FD1022000F036FF0BE0012000F032FF9F
:107D900007E000F063FF04E003E003484030C06BFD
:107DA00000BF00BF10BD00000040004030B50246DB
:107DB000D406E40E0120A040034600290BD0501148
:107DC00080000B4C0019C06818435411A400084DE2
:107DD0006419E0600AE050118000054C0019C06889
:107DE00098435411A400024D6419E060002030BD96
:107DF0000038004030B504460D4601212046FFF70B
:107E0000D5FFA01080000A4940188069A107CA0E5A
:107E1000FF2191408843A107CA0E2946914008439B
:107E2000A1108900024A89188861002030BD000035
:107E30000038004010B511480078002801D0072014
:107E400010BDFF21C9310D48FCF76BFD01200B4926
:107E5000087000200A49086348630A4908624862BA
:107E600002211020FDF7C8FF1020FDF77DFF064A14
:107E700006490D2000F04AFB0020E1E7A0B7FF1FF4
:107E80000080004080F00040F57BFF1FAD7BFF1FAE
:107E900070B504460E46042C03DB222C05DC1F2C97
:107EA00003DB01212046FFF751FE00212046FFF7AA
:107EB0007DFF122C0FDA0125A540002E05D00F48BA
:107EC000406828430D49486016E00C484068A843C4
:107ED0000A49486010E02046123801258540002EEE
:107EE00005D00648006928430449086104E00348B6
:107EF0000069A84301490861002070BD008000406E
:107F0000F3B581B00C4626460A210198FCF78AFE9B
:107F100048000818451C0120A840691C01228A401D
:107F20001043C7430A210198FCF77CFE80000949F1
:107F30004018806807403046A840384306460A216A
:107F40000198FCF76FFE800002494018866000200F
:107F5000FEBD000000F0004030B50346122B0FDAE2
:107F600001229A40124844681440002C01D0016854
:107F700002E00F484030016908461040014610E019
:107F80001846123801228240094804691440002C26
:107F900001D0C16802E006484030416908461040FF
:107FA0000146002901D0012030BD0020FCE700007F
:107FB00000800040F3B581B00C460A210198FCF71F
:107FC00031FE48000818C6B20121019800F0F0FD0A
:107FD0000120B0400546002C11D00A210198FCF781
:107FE00021FE80000F49401887682F430A2101981D
:107FF000FCF718FE80000B494018876010E00A214A
:108000000198FCF70FFE8000064940188768AF43CF
:108010000A210198FCF706FE80000249401887609B
:108020000020FEBD00F00040F8B504462A4D0126B0
:1080300000270C20604340194068002807D10C201D
:10804000604340198068002801D11220F8BD122C2D
:1080500004DB032120482338015503E004211E4896
:108060002338015501210C2060432954002120466A
:10807000FFF70EFF0C20604340194068002815D020
:108080000C2060434019806800280FD02046FFF77D
:1080900063FF0746002F01D0012000E000200646C4
:1080A00031462046FFF724FD0020CFE70C20604337
:1080B00040194068002801D0002606E00C206043EB
:1080C00040198068002800D0012631462046FFF77D
:1080D0000FFD0020BAE70000C4B7FF1F10B5094824
:1080E000007800F07BFB002000F02AFB1F2000F04E
:1080F0009BF900F011FFFFF79DFE03A000F0ECFEDE
:1081000010BD0000E312FF1F616C6C206472697681
:10811000657220696E6974204F4B210A00000000CF
:1081200037B516480078002800D13EBD6846017872
:108130001248401C405C012806D16B461A89D98838
:10814000187800F017F916E06C462379E278A178E8
:10815000207800F08DF82289E188207800F00AF973
:108160006178207800F0F0F8012122780348401C63
:10817000815400F02DF900BFD7E7000000BAFF1FBF
:1081800007B5684601780A48405C002800D10EBD5A
:10819000002269460978064842546946087800F08A
:1081A00009F86946087800F013F800BFEFE700000F
:1081B00001BAFF1F10B504460C216143034A881819
:1081C00000231A46194601F075FB10BD04E000407B
:1081D00010B504460C216143244A881800231A462E
:1081E000194601F067FB0C216143204A88180023DF
:1081F0001022114601F05EFB0C2161431B4A8818D6
:1082000000231F22114601F055FB0C216143174A40
:10821000881800230C220E2101F04CFB0C21614335
:10822000124A881800230822114601F043FB0C2152
:1082300061430E4A881800230422114601F03AFBDC
:108240000C216143094A121D881800231A460F2188
:1082500001F030FB0C216143044A121D88180023F1
:1082600010221F2101F026FB10BD000004E0004099
:10827000F8B504460D4616461F461220FEF7B0F824
:108280000C216143134A881800231A46194601F04D
:1082900011FB0C2161430F4A88182B460C220E213A
:1082A00001F008FB0C2161430A4A88183346082272
:1082B000114601F0FFFA0C216143064A88183B463B
:1082C0000422114601F0F6FA00221146122000F0B5
:1082D0001DF9F8BD04E0004010B5002419480078ED
:1082E000012800D110BD012016490870002423E0A8
:1082F00000211448401C01550A20604311490831EF
:108300000C54FF220A2060434018427000220A20C9
:108310006043401882700A2060434018C2700A20EF
:108320006043401802710A2060434018C2800A204E
:10833000604340180281641C062CD9DB00F05EF813
:1083400000BFCFE700BAFF1F70B504460D462046B8
:108350000A30C1B22846FFF74DFD0C216143044AA3
:10836000881801230022114601F0A4FA70BD000014
:1083700004E0004070B504460D4616460C216143EA
:10838000124A881800231022114601F093FA0C219A
:1083900061430E4A121D88182B4610221F2101F03E
:1083A00089FA0C216143094A121D881833460022BC
:1083B0000F2101F07FFA0C216143044A8818012340
:1083C0001022114601F076FA70BD000004E0004072
:1083D00010B5122000F066F800BF074800680121C0
:1083E000084305490860084600681021084302490F
:1083F000086000BF10BD000000E0004010B5122072
:1084000000F0D0F800BF0748006840084000054968
:10841000086008460068102188430249086000BFD0
:1084200010BD000000E0004001464809400100285E
:1084300004D00020034A1060062070470148016004
:108440000020FAE75C9CFF1F10B50448112215219B
:108450000368034801F02EFA002010BD5C9CFF1F4A
:108460001CF0004010B578210C48FCF75AFA0C4873
:108470000078012806D0022808D0032809D0042853
:1084800008D100E000BFFCF7F7FB03E0FCF7FAFBC4
:1084900000E000BF00BF002010BD000044BAFF1F75
:1084A000589CFF1F70B50546122616480078012813
:1084B00003D014480078042803D1FCF7DDFB00202A
:1084C00070BD72B6002417E00C2060430E49085CB2
:1084D000002800D112E00C2060430B49085CA84240
:1084E00009D101210C206043074A80184170FCF734
:1084F000C3FB002602E0641C0A2CE5DB00BF62B669
:108500003046DDE7589CFF1F44BAFF1F70B5034695
:108510000C4615460021002212E00C2050430F4E5D
:10852000305C984201D1072070BD0C2050430B4EA7
:10853000305C002803D10C205043811902E0521C0A
:108540000A2AEADB00BF002901D10320ECE7002062
:1085500048700B704C608D6000BFE5E744BAFF1FA8
:1085600010B5FFF771FF002415E00C2060430C49A3
:10857000085C002801D1122010BD0C20604308497E
:1085800040184068002805D00C216143044A89182E
:1085900048688047641C0A2CE7DB0020ECE70000F9
:1085A00044BAFF1F70B5054600261C480078012814
:1085B00003D01A480078042803D1FCF75DFB0020A3
:1085C00070BD72B600241BE00C2060431449085CA7
:1085D000002800D116E00C2060431149085CA84235
:1085E00005D100210C2060430D4A801841700C20F9
:1085F00060430B4940184078002800D0761C641C6A
:108600000A2CE1DB00BF002E02D1FCF73BFB01E0AE
:10861000FCF732FB62B60020D2E70000589CFF1F37
:1086200044BAFF1F10B5002415E00C2060430C492C
:10863000085C002801D1122010BD0C2060430849BD
:1086400040188068002805D00C216143044A89182D
:1086500088688047641C0A2CE7DB0020ECE70000F8
:1086600044BAFF1F10B50A201549087001201549AA
:10867000087000201449087000F030F804201349F5
:10868000C86113488860C8600861124848610121C8
:108690000A20FFF735FC0D230F2212210B4814305E
:1086A00001F008F900210420FDF76AFB01210220F6
:1086B000FDF766FB084A00212020FFF727FF10BDC9
:1086C000E112FF1FE212FF1F0013FF1F00F0004026
:1086D000B66DDB36B6EDC3B06998FF1F70B51548AF
:1086E000002200680424866B1025134813493300C8
:1086F000FCF77EF9070808050C0E13080500056055
:108700000C600DE020220260052004E0302305E02B
:10871000402202600620086002E0602303600A60D5
:10872000FCF7B6FAFCF7BAFA00F078FF00F05AFE50
:1087300070BD0000949FFF1F2010FF1F2410FF1F1B
:1087400010B50446012C1CD105231B221F212048F3
:1087500001F0B0F81F4B072210211D48083001F02E
:10876000A9F80123062211461948083001F0A2F8A1
:1087700019480068C06A1121084317490968C8628E
:1087800025E0002C23D100211020FFF7B9FB0021A8
:108790001120FFF7B5FB0323082209210C480830FC
:1087A00001F088F80023062211460948083001F03C
:1087B00081F816231B221F21054801F07BF806488B
:1087C0000068C06A1121884303490968C86210BD66
:1087D00014F00040FB030000949FFF1F70B5044697
:1087E000FF252D35002C03D13B483C4908604EE065
:1087F000022C09D13A4800686104084338490860EE
:1088000038483649086042E0012C1BD134480068E2
:10881000A10408433249086008464068610588435E
:108820002F49486008464068491408432C4948606D
:10883000084640688021084329494860264827495E
:10884000086024E02648006801218904084324497F
:1088500008600846406821460B3101228A401043D7
:108860001F49486008464068802108431C49486009
:10887000032C03D11C481949086008E0042C03D1DB
:108880001A481649086002E019481449086001E0D6
:10889000681E85B2002DFBDC234600220321104810
:1088A000001F01F007F801208007C069022108407D
:1088B00000280BD0480780690005060E711C074888
:1088C0000068FCF7F1F90B49086003E00348006811
:1088D0000849086070BD00000048E8011810FF1F3B
:1088E00040F000400024F400006CDC020090D00353
:1088F00000D8B8051010FF1F1FB5134800780028D6
:1089000002D0112004B010BD20210F48FCF709F857
:108910006846407A002803D16846C07A002801D012
:108920000520EFE7084869461EC910301EC0012027
:108930000549087001F074F8044A00210820FFF787
:10894000E5FD0020DEE70000E0B9FF1F219AFF1FD0
:1089500070B504460D460748807E002804D029469D
:10896000204601F00DF870BD2946204600F0BEFFFC
:10897000F9E70000E0B9FF1F6D46294607A000F0A7
:10898000ABFA002405E0A00029580AA000F0A4FAE0
:10899000641C102CF7DB00BFFEE700004861726426
:1089A000204661756C742053502069732025780A25
:1089B00000000000307825782C000000F8B56B4AE4
:1089C00069496C4B6A481160D8610020840000231B
:1089D000401C0B51FF28F9DD1068FF220146803151
:1089E000654B6F328B600A250565C262634A137856
:1089F0008363634BC3611378022B06D01378032B78
:108A000005D01378042B04D005E0102302E01423D2
:108A100000E0182303625B4B4361594B34249633C7
:108A200083613C23CB603623C363082344643A2626
:108A300003644E6031260E603B26CE634626CE642C
:108A40000F463926403758C732260E6502260E6675
:108A50001E274F664226543158C1CC608B600524D6
:108A60000E614C615A2460390C614B613C248C616D
:108A7000AF24E40004601478022C06D01478032C90
:108A800005D01478042C05D005E0102400E009245A
:108A9000446000E04360FF242D3484601926760191
:108AA00006616400C460384E7D278664FF00CF678E
:108AB0004762364EC664364F87627327C7650627FE
:108AC00047658765C31D0827F9331F60022747667E
:108AD00084660924C4662F4C046708244467FF2475
:108AE0002D3484672C4CC4672C480660107802280B
:108AF00006D01078032807D01078042808D00AE0A0
:108B00001220C861192001E00C20CD61086202E04A
:108B100008200D62C8611C4888627D20C0008867FB
:108B20006420486205200F63C862C82048630020A3
:108B3000886338205860AF21C900194899611864CA
:108B40004B201962C000D8617D200001586216498F
:108B5000144888601449154880318862FDF7EAFBA3
:108B6000FDF7F8FBF8BD0000000CFF1F949FFF1FEE
:108B7000000CFF1F0010FF1FE8C6FF1FE312FF1FBE
:108B80004605000060E3160050C30000740E0000AC
:108B90006A180000204E0000881300009412FF1F86
:108BA00000400011FD8CFF1F0009FF1FE593FF1F10
:108BB00030B5C406E40E0123A3401A4600290BD0A9
:108BC00043119B000A4C1B191B6A13434411A40058
:108BD000074D641923620AE043119B00044C1B19E2
:108BE0001B6A93434411A400014D6419236230BDF4
:108BF00080F0004070B588B006461648007E002818
:108C00000DD015484068C5B2002405E012488038F0
:108C1000007804A90855641CAC42F7DB08E0012584
:108C20000D488038007D0C4880380078694608740B
:108C30000848C06900280AD06846067104A8029056
:108C4000684605730348C16901A8884700BF08B09A
:108C500070BD0000E0B9FF1F80400040FEB5244C0D
:108C6000201F0078002800D1FEBD2148001F007E93
:108C7000002800D1F8E71E48001F807E002800D1A0
:108C8000F2E72078022800D0EEE7A668A088618885
:108C9000401A85B2102D01DD102000E0284605465F
:108CA000002D17D10120207000206080A080104886
:108CB000001FC069002809D00E4A07CA6B4607C3C7
:108CC0000B48001FC1696846884700BF0820FFF7AE
:108CD00069FCC9E705E06188481C6080705C064952
:108CE00008702846691E8DB20028F4D100BFBBE78A
:108CF000E4B9FF1FEC9AFF1F0040004070B52B48FD
:108D00000068012803D12A48816F491C81672A48DD
:108D1000284941610121C1600160284A506BC1B2FC
:108D200027480078002817D126480023C356002B77
:108D3000254BC35606DB1B040024045720021818D9
:108D4000401808E0FF331B040024045720021818C1
:108D50001E4B4018C0185063022901D2022102E0C4
:108D6000502900D950211A48027814481430022A98
:108D700011D0184A1478184B1D78AC4214D91478C5
:108D80001B78E31A891E49104B4311784901C91A0F
:108D900010314B1103E0114A1478114BECE700221B
:108DA000072100F087FD70BD1378F8E75812FF1F08
:108DB000D03BFF1FFF3F0000001003408000034036
:108DC0005312FF1F0013FF1F00000000FFFE0000F2
:108DD000E212FF1FDD12FF1FDE12FF1FDF12FF1F57
:108DE000E012FF1F10B50220094908700321C902D3
:108DF0000848FBF75FFFFFF7E1FDFFF733FBFFF7E5
:108E000031FCFFF76BF9FDF770FA002010BD000090
:108E1000E312FF1FA09FFF1F10B500241220FBF7D5
:108E200025FF164908601222002114480068FBF74C
:108E3000C7FD2046641CFBF743FF2046641CFBF77C
:108E400045FF2046641CFBF747FF2046641CFBF7E8
:108E500049FF2046641CFBF74BFF2046641CFBF7D0
:108E60004DFF2046641CFCF723F92046621CD4B257
:108E7000FCF762FC2046FDF749F910BD209FFF1F5B
:108E8000F8B505460E461746284600F0F7FC04469E
:108E900029460CA000F020F8002C01D10A20F8BDD2
:108EA0002068401C002801D10A20F8E73246211D25
:108EB0003846FBF77FFD3146384600F0F3F80020D6
:108EC000EDE700006F73616C5F736E765F726561D2
:108ED000643A25780A0000000FB438B578210C48B0
:108EE000FBF71FFD05A800900020009A049900F0F0
:108EF0001FF80748FBF708FF84B221460448FFF734
:108F000027FD00200349088038BC08BC04B018477E
:108F100068B9FF1F549CFF1F1FB5044B0FCB6C4655
:108F20000FC468460FC8FFF7E7FC1FBDDC9AFF1FA0
:108F3000F7B584B00C4600259EE0207825286ED138
:108F4000641C0020074606462078002800D197E0E0
:108F50002078252800D188E020782D2801D1641CB4
:108F6000012702E0641C0220074320783028F9D052
:108F700005E00A204643207830388619641C2078A2
:108F8000302802DB20783928F3DD2078732813D1CC
:108F90000698006802900698001D06900298002826
:108FA00001D0029800E03DA001463B4632460498BD
:108FB00000F011F945195EE0207864280DD1612098
:108FC000019700960290069802C801230A22069093
:108FD000049800F09DF845194DE0207878280DD1CF
:108FE0006120019700960290069802C80023102283
:108FF0000690049800F08CF845193CE02078582839
:109000000ED14120019700960290069802C80023D5
:1090100010220690049800F07BF845192BE023E01D
:10902000207875280DD1612001970096029006984E
:1090300002C800230A220690049800F069F8451936
:1090400019E02078632815D106980178001D069054
:1090500068460173002141733B46324603A90498D8
:1090600000F0B9F8451906E000BF2178049800F037
:1090700035F86D1C00BF641C2078002800D05CE728
:1090800000BF0498002803D00021049800680170F4
:1090900000200690284607B0F0BD0000286E756CD1
:1090A0006C29000070B505460E46002408E0295DD5
:1090B00007A0FFF711FF07A0FFF70EFF601C84B2A7
:1090C000701EA042F3DC295D03A0FFF705FF70BD11
:1090D00025782C002000000025780A0030B50028F3
:1090E00005D0036819700268521C02600BE0064A42
:1090F0001288782A07DA044A14881288521C024D12
:109100002A80024A115530BD549CFF1F68B9FF1FC9
:10911000FFB587B00C461646109F002002900190C4
:109120000094002C0CD13021684601740021417458
:109130003A4604A9119B079800F04DF80BB0F0BD1A
:109140000A98002807D00A2E05D1002C03DA012046
:1091500002906042009006AD03350020287017E0B1
:1091600031460098FBF7A0FD039103980A2804DB21
:1091700012983A3803994018039003983030C1B2DE
:10918000681E0546017031460098FBF78DFD009082
:1091900000980028E4D10298002813D0002F0DD0A9
:1091A000022111980840002808D02D210798FFF7C8
:1091B00095FF0198401C01907F1E03E02D21681E41
:1091C000054601703A462946119B079800F003F8BE
:1091D00001994018B2E7FFB581B00D4614461F460D
:1091E000002620200090002C13DD0020294601E0FD
:1091F000401C491C0A78002AFAD1A04201DB002455
:1092000000E0241A02223A40002A01D030220092C3
:1092100000BFF807C00F002808D105E000990198A9
:10922000FFF75CFF761C641E002CF7DC05E0297854
:109230000198FFF753FF761C6D1C28780028F6D1A3
:1092400005E000990198FFF749FF761C641E002C89
:10925000F7DC304605B0F0BD70B5164C144DE06932
:1092600040084000E0610620FDF718F8114840383A
:10927000826980210A438261E26901231A43E26123
:10928000A26A920503D42A466D1E002AF8DC002D3E
:1092900007DB226A7E23D60B82691E409A43324343
:1092A000826182698A4382613006400E70BD00008F
:1092B000983A000040F00040FFB581B00D460646E8
:1092C00010240C4F0CE0FFF7C7FFB04208D2A842B1
:1092D00006D90499039800F00FF8C019C72804D3E1
:1092E0002046641EE4B20028EDD11020001BC0B25D
:1092F00005B0F0BD21F1FFFFF0B5002591B00E469D
:1093000007462C460BE01020FCF7C8FF1448406AC3
:10931000A2008104890C6846641C8150E4B2BC42FE
:10932000F1D339466846FCF7EAFF0E4A002057425F
:109330006C460EE081006358934201D9D91900E0D0
:10934000D11A642902D9002011B0F0BD5D19401C6A
:10935000C0B2B042EED331462846FBF7A5FCF3E796
:1093600040F00040420F0000F8B50C4D0C4E0024B8
:10937000A000401901686846FCF7FCFF022805D0F0
:10938000002C02DD012800D10320F8BD3219694606
:109390000978641C5170402CEADBF8BD000800110C
:1093A000A0BEFF1FF8B500240C4D0D4F0526A000F0
:1093B000401901686846FCF7DDFF022805D0002C43
:1093C00002DD012800D10320F8BD321B6946D21905
:1093D0000978641C5170062CE9DBF8BD0009001106
:1093E000999FFF1F10B500F011F800F0C9F9064A67
:1093F0000121582000F03CF90423082219463820A6
:10940000FFF75AFF10BD0000F812FF1FF8B52F48F4
:1094100003782F4C16221B21204600F04BFA032321
:1094200011221221204600F045FA241D062316229F
:109430001A21204600F03EFA03231222132120466F
:1094400000F038FA23480078032828D00023192296
:109450001A21204600F02EFA0B2304220721204671
:1094600000F028FA1C4E337816221721204600F00F
:1094700021FA1B4D1948E86042152A6119486861B4
:109480001949A961164C40346260A060E160144F34
:109490001648403F38603078012802D00BE00323A3
:1094A000D5E7002201231146384600F003FAFF20D9
:1094B0004130286160600E4800780E49C006C00B3C
:1094C0004018B8630C48E861F8BD0000DC12FF1FCB
:1094D00040F00040E312FF1F989FFF1F2001002073
:1094E000C0000340A403B00000008A04242D000043
:1094F000E112FF1F250800002FFF260070B530493C
:109500002F4A4039002825D0022823D08B1513621A
:109510005A020A612B4A0A632B4A127801231B0361
:10952000D2184A612649264CC039803C002815D003
:109530006522264DD202264B012819D002281CD0C4
:10954000244E80190860244848602260A560E360CA
:10955000224819E080231362DA02DAE72048086023
:109560000020A0601F4820601F48E0601F480BE0FB
:109570001F480860A5602260E9E71D48401C08609C
:10958000A5602260E3601B4820610D48FF23002294
:109590000721B43800F08EF9174860611748A061C0
:1095A0001748E06117482062174860621748A062B8
:1095B0001748E062174820631748606370BD0000D9
:1095C000C000034003000001DD12FF1F5555553751
:1095D000D6BE898E00800698545A9850805508222D
:1095E0000080067800280B0007EE7536806608229A
:1095F0000180064280450822A49C5C544C0C040364
:10960000025A544E483C36332D007F5D57514B452E
:109610003C363056504A443E322C262010B5FFF7D7
:10962000F5FE0448007800F009F803480078FFF7D9
:1096300065FF10BDE112FF1FE212FF1F10B50446C7
:1096400009483F2C0DD00D230F22122100F032F9D2
:109650000648816BE2060905090DD20B11438163AF
:1096600010BD0823F0E7000014F000408000034024
:10967000F0B5364C666AA56A00236362A362344C77
:1096800060630E20206263624020A0625020E0628E
:109690002A2060622E484030012926D080210162B4
:1096A0002C49FF232A48A533403083602A4B43606E
:1096B000274B2A48403B18617D20C000401EFDD248
:1096C000274889050F18224840388763244B5B1CC4
:1096D000C91881632449234809780B00FBF788F9EE
:1096E000070B0B100D0F100B1000FF210131016251
:1096F00018498331D5E71D4802E01D4800E01D48A8
:109700001D4911601249403103E0CB6ADB439B0FD6
:1097100011D0401EF9D20E48403887630020A06265
:10972000E062886060622062FF204130606207482A
:1097300046628562F0BDC86A104B18401060106820
:109740000122000C120480184860E4E70010034076
:1097500080000340CA0200002020000080560C2038
:109760006465210010270000E312FF1F204E000057
:1097700030750000409C000000002020FFFF3F3FAC
:1097800000B50021022000F021F80C49801C08706F
:109790000021422000F01AF80949801C08700121BC
:1097A000022000F013F80749801C087001214220B4
:1097B00000F00CF80449801C087000BDDD12FF1F8A
:1097C000DE12FF1FDF12FF1FE012FF1F30B51D4C1E
:1097D0001B4A22601B4A4032012914D01A49D16029
:1097E00050630E20106200215162FF20153050623C
:1097F0001648057816482B00FBF7FAF8070A0A07FF
:109800000C0E0F0A0F001349E9E71148401E04E04F
:10981000114802E0114800E01148401EFDD20948FD
:109820008030406B51620002000E11620D49D16020
:10983000FF21413151626521C902216030BD000024
:1098400010000300400003407F407200E312FF1F3E
:109850000F2700007F405200204E000030750000AE
:10986000409C00004040100010B500210420FCF78F
:1098700087FA01210220FCF783FA10BD0146702906
:1098800001D0712905D1084670380003074A8018B5
:109890007047202907DB2C2905DA08462038000309
:1098A000034A8018F4E70020F2E7000000C0071127
:1098B00000000711FFB581B00C4601680025ED439B
:1098C000049B93400093134606E001269E402F46DA
:1098D000B7433D465E1CF3B2A342F6DD0B462B4078
:1098E0001946009B1943016005B0F0BD0CB5024656
:1098F00000200190009007E00098431C00931E4B4D
:10990000984201DD0D200CBD1C48C06BC007C00F84
:109910000028F1D118E00020009007E00098431CD7
:109920000093154B984201DD0D20ECE713484038B9
:10993000007D202318400028F0D010780F4B403BCA
:109940001870521C0020019008464B1E99B2002846
:10995000E1D1009007E00098431C0093064B984229
:1099600001DD0D20CFE705484038007D4023184039
:109970000028F0D00020C6E7A0860100404000404B
:10998000F8B506460D46244C002D01D0002E01D11D
:109990000620F8BD2078002801D10320F9E72078BF
:1099A000012801D01120F4E7E088A84201DA032061
:1099B000EFE72A463146A068FAF79AFFA580002013
:1099C000608002202070A768A0886188401A85B254
:1099D000102D01DD102000E0284605460F484068A4
:1099E000022188430D49486005E06188481C608079
:1099F000785C0A4908702846691E8DB20028F4D1A7
:109A00000648406802210843044948600820FEF7E0
:109A100049FD0020BDE70000E4B9FF1F0040004001
:109A200070B52B4CFCF7EAFC06460820FCF7D8FC86
:109A30000820FCF7E9FC20780821FEF7DBF96078C4
:109A40000921FEF7D7F90020224908733211636813
:109A50005B08D0186168FBF727F9054600201D490F
:109A6000086180200873FF2000022840000A087166
:109A70000D7003200873207A002802D08720087216
:109A800002E0002013490872012012494860207A40
:109A9000002805D008464068802108430D494860E9
:109AA000A07A002805D00B484068022108430949E4
:109AB00048600B20002805DBC206D20E0121914030
:109AC000054A116000BF02210B20FCF7D1F970BDDF
:109AD000F0B9FF1F0040004000E100E0090AFFFF6D
:109AE00000C20100010000000000000003000000AF
:109AF00000000000000000000A18232A242A252A5A
:109B0000262A272A282A292A2A2A502A020000003F
:109B1000F89AFF1F4D6F64656C204E756D6265721B
:109B20000053657269616C204E756D626572004606
:109B300069726D77617265205265766973696F6EBF
:109B40000048617264776172652052657669736955
:109B50006F6E00536F667477617265205265766927
:109B600073696F6E004D616E7566616374757265C1
:109B700072204E616D6500FE006578706572696DDA
:109B8000656E74616C0000002D64FF1F0000000012
:109B900000000000020000001A7C0100000000002C
:109BA000DD77FF1F0000000002000000187C0100AC
:109BB0003D78FF1F9D79FF1F00000000DD5F000062
:109BC00099300000293800003116000035200000CF
:109BD000C57A00003151FF1F4958FF1F3D62FF1F2A
:109BE00009000000000000000000000001FF02FF6B
:109BF00002000000EC9BFF1F7560FF1FAD60FF1FA0
:109C000000000000549CFF1FA09FFF1F24010000C4
:109C1000CC62FF1FA09FFF1F549CFF1F4C0300003E
:109C20005C49FF1F000CFF1FA09FFF1F0C000000DE
:109C3000CC62FF1FA09FFF1F000CFF1F000400004D
:109C40005C49FF1F789DFF1FA09FFF1F4827000052
:109C5000DC62FF1F4172026908115A0201240104EB
:109C6000052B100118141C7C0132012D0C9BFF1FC9
:109C7000105A22104B609C102DFA9AFF1F105A6147
:109C80001069205A69105AFC20DA14405A6A205A86
:109C9000FE20DA21205A6B201119182910DA2F2002
:109CA0005A6C205A0220DA41205A6D205A0420DAD8
:109CB00053205A6E205A0620DA65205A6F205A081F
:109CC00020DA77205A70205A0A201A7110110213D4
:109CD000FFA22029305A1C40DA94504BBD9D101A27
:109CE0003A10A9301A281032031ABE2001121201AC
:109CF0000728307503020106DAFFA2120623800C42
:109D00002AE861F95B591653053F921002110A1AAD
:109D100002A91202125032A02936A9E8DAA8E84BAB
:109D2000A09E105A3010CB8ABE205AA1205A321061
:109D30005AA21069205AA4105A38101AA610612885
:109D40001209095068792B2050574D020106030271
:109D500001FF0F190E01126B295F3449CEA9B0DA49
:109D6000F0B04B5C9F101AEE1819DB111A5D102C25
:089D700040787D1B39384100E9
:040000051FFF48C1D0
:00000001FF
