:020000041FFFDC
:10080000000000007DB0002078C800209CC80020B7
:10081000FCCC0020000000000000000000000000F0
:1008200000000000000000000000000000000000C8
:1008300000000000000000000000000000000000B8
:1008400000000000000000000000000000000000A8
:100850000000000000000000000000000000000098
:100860000000000000000000000000000000000088
:100870000000000000000000000000000000000078
:100880000000000000000000000000000000000068
:100890000000000000000000000000000000000058
:1008A0000000000000000000000000000000000048
:1008B0000000000000000000000000000000000038
:1008C0000000000000000000000000000000000028
:1008D0000000000000000000000000000000000018
:1008E0000000000000000000000000000000000008
:1008F00000000000000000000000000000000000F8
:1009000000000000000000000000000000000000E7
:1009100000000000000000000000000000000000D7
:1009200000000000000000000000000000000000C7
:1009300000000000000000000000000000000000B7
:1009400000000000000000000000000000000000A7
:100950000000000000000000000000000000000097
:100960000000000000000000000000000000000087
:100970000000000000000000000000000000000077
:100980000000000000000000000000000000000067
:1009900051A80020E5A80020C5C1002000000000EB
:1009A0000000000000000000000000000000000047
:1009B0000000000000000000000000000000000037
:1009C0000000000000000000000000000000000027
:1009D0000000000000000000000000000000000017
:1009E0000000000000000000000000000000000007
:1009F00000000000000000000000000000000000F7
:100A000000000000000000000000000000000000E6
:100A100000000000000000000000000000000000D6
:100A200000000000000000000000000000000000C6
:100A300000000000000000000000000000000000B6
:100A400000000000000000000000000000000000A6
:100A50000000000000000000000000000000000096
:100A60000000000000000000000000000000000086
:100A70000000000000000000000000000000000076
:100A80000000000000000000000000000000000066
:100A90000000000000000000000000000000000056
:100AA0000000000000000000000000000000000046
:100AB0000000000000000000000000000000000036
:100AC0000000000000000000000000000000000026
:100AD0000000000000000000000000000000000016
:100AE0000000000000000000000000000000000006
:100AF00000000000000000000000000000000000F6
:100B000000000000000000000000000000000000E5
:100B100000000000000000000000000000000000D5
:100B200000000000000000000000000000000000C5
:100B300000000000000000000000000000000000B5
:100B400000000000000000000000000000000000A5
:100B50000000000000000000000000000000000095
:100B60000000000000000000000000000000000085
:100B70005DAC00200000000000000000000000004C
:100B80000000000000000000000000000000000065
:100B90000000000000000000000000000000000055
:100BA000000000000000000000000000C1A40020C0
:100BB0000000000000000000000000000000000035
:100BC000A9A40020000000000000000000000000B8
:100BD0000000000000000000000000000000000015
:100BE0000000000000000000000000000000000005
:100BF00000000000000000000000000000000000F5
:0C0C000001FF01FF01FF01FF41000000A7
:020000041FFFDC
:1050000001FF01FF01FF01FF01FF01FF01FF01FFA0
:1050100001FF01FF01FF01FF01FF01FF01FF01FF90
:1050200001FF01FF01FF01FF01FF01FF01FF01FF80
:1050300001FF01FF01FF01FF01FF01FF01FF01FF70
:0452500001FF012930
:020000042000DA
:10800000D00C0120D5800020DD800020DF80002002
:108010000000000000000000000000000000000060
:10802000000000000000000000000000E1800020CF
:108030000000000000000000E3800020E580002038
:108040000000000000000000000000000000000030
:108050000000000000000000000000000000000020
:108060000000000000000000000000000000000010
:108070000000000000000000000000000000000000
:1080800000000000000000000000000000000000F0
:1080900000000000000000000000000000000000E0
:1080A00000000000000000000000000000000000D0
:1080B00000000000000000000000000000000000C0
:1080C0000348854600F042F80048004745B00020CC
:1080D000D00C01200448804704480047FEE7FEE733
:1080E000FEE7FEE7FEE7FEE705910020C1800020E5
:1080F00003460B439B0703D009E008C9121F08C0C1
:10810000042AFAD203E00B780370401C491C521E6B
:10811000F9D27047D2B201E00270401C491EFBD276
:1081200070470022F6E710B513460A460446194682
:10813000FFF7F0FF204610BD0321001D401E03780D
:1081400012021A43491EF9D510467047064C012504
:10815000064E05E0E36807CC2B430C3C98471034EF
:10816000B442F7D3FFF7B0FFD0C8002040C90020C9
:1081700070B58C180578401C6B075B0F01D1037834
:10818000401C2A1106D10278401C03E006780E70CC
:10819000401C491C5B1EF9D12B0705D40023521E3D
:1081A0000DD40B70491CFAE70378401CCB1A921CC3
:1081B00003E01D780D70491C5B1C521EF9D5A142CD
:1081C000D8D3002070BD000003B40148019001BD68
:1081D000C13C010003B40148019001BD7181000060
:1081E00003B40148019001BD3914000003B40148F3
:1081F000019001BD1117000003B40148019001BDB9
:10820000ED3C010003B40148019001BDF13E0100C5
:1082100003B40148019001BD1B3D010003B40148B6
:10822000019001BD7114000003B40148019001BD2B
:10823000C131000003B40148019001BDB142010009
:1082400003B40148019001BDD542010003B40148C7
:10825000019001BDC912000003B40148019001BDA5
:108260003D42010003B40148019001BD5D190000C9
:1082700003B40148019001BD593A010003B401481B
:10828000019001BD3518000003B40148019001BD03
:10829000C118000003B40148019001BD351500006C
:1082A00003B40148019001BD4117000003B4014827
:1082B000019001BDE915000003B40148019001BD22
:1082C000897B000003B40148019001BDD520000066
:1082D00003B40148019001BDA5E5000003B40148C5
:1082E000019001BD3D1C000003B40148019001BD97
:1082F0000D1D000003B40148019001BD830600007C
:1083000003B40148019001BD0143010003B40148D9
:10831000019001BDE120000003B40148019001BDBE
:10832000ED3A010003B40148019001BDF53C0100A4
:1083300003B40148019001BD5D3F010003B4014851
:10834000019001BD01E6000003B40148019001BDA8
:108350005590000003B40148019001BDD1360000E2
:1083600003B40148019001BDBD07000003B40148FA
:10837000019001BD891C000003B40148019001BDBA
:10838000A53C010003B40148019001BDE9070000CC
:1083900003B40148019001BD6D07000003B401481A
:1083A000019001BDFD0E000003B40148019001BD24
:1083B0002D0E000003B40148019001BD3D070000EF
:1083C00003B40148019001BD211A000003B4014823
:1083D000019001BD050E000003B40148019001BDEC
:1083E0008922000003B40148019001BD6902000028
:1083F00003B40148019001BD610E000003B40148BF
:10840000019001BD9D0E000003B40148019001BD23
:10841000D50E000003B40148019001BD610F0000BA
:1084200003B40148019001BDE997000003B401487D
:10843000019001BD3D98000003B40148019001BDC9
:10844000E58D000003B40148019001BD49770100AA
:1084500003B40148019001BD8D3C010003B4014803
:10846000019001BDE55B000003B40148019001BD2E
:10847000E129000003B40148019001BD99370000D3
:1084800003B40148019001BD5114000003B4014838
:10849000019001BD091F000003B40148019001BD16
:1084A000A579000003B40148019001BD61EC000012
:1084B00003B40148019001BDB1EC000003B40148D0
:1084C000019001BDC91F000003B40148019001BD26
:1084D0007D3A010003B40148019001BD913F0100C4
:1084E00003B40148019001BDA942010003B4014851
:1084F000019001BD4103000003B40148019001BD9A
:10850000113A010003B40148019001BDDD9400005F
:1085100010B5034A1321034800F056FC10BD0000BB
:10852000C0C7002054C9002010B5002413460028FD
:1085300002D00224204610BD0A4619460148FFF722
:1085400043FEF7E74BC900200020704770B50C468A
:108550000146032000020A1A002534481300FFF7E1
:1085600039FE1D1012151C1F2326282C30323438DA
:108570003A3C3E40424446484A4E50525A5456585D
:108580005A00C07911E01022294902E0284910223E
:1085900010312046FFF718FE45E0C06A206042E037
:1085A000224906223C31F4E7007820703BE08089C4
:1085B00036E01E4942784231EBE71D4982781F3987
:1085C000E7E7007AF1E7407AEFE718490622303111
:1085D000DFE7807AE9E7C07AE7E7C08920E0808AB0
:1085E0001EE0C0781CE0C08A1AE0008B18E0408BC7
:1085F00016E0808B14E00D4906223631C9E7C08BA6
:108600000EE0008C0CE0408C0AE08079CDE7008A17
:1086100006E0408A04E0272904D20846FFF7E0FD7F
:10862000208000E00225284670BD000070CB0020AD
:108630007500012070B50E4C00256071A571691E92
:10864000E181FFF7D3FD0420E071102200210948E9
:10865000FFF7D2FD0748102200211030FFF7CCFDB4
:10866000E562257265720120A072E57270BD00009E
:1086700070CB002075000120FEB53B4D0C46080470
:108680000CD56879FFF7BEFD050004D001F062F853
:108690002846FFF7BDFD0120C00360E0600403D55C
:1086A000012080034840FEBD2F48E1070126807964
:1086B00000292AD02978002920D0052821D0297A1C
:1086C00068460170697A4170274906223031801C62
:1086D000FFF77AFDA97A68460172E97A4172694624
:1086E0006879FFF79BFD002808D00720A871696A08
:1086F000002903D00968002900D08847204670402F
:10870000FEBD032069460870E4E7A1070DD50528E2
:1087100009D1E889FFF788FDAA8A002A03D002213F
:108720006879FFF787FD022019E0600704D5002073
:1087300001F068F8042012E0200712D528790128FA
:1087400002D002280AD107E00096AB8B6A8B298BF6
:10875000E88A00F00BF801E000F05AF908206040C8
:10876000FEBD0020FEBD000070CB0020F8B5134C0C
:10877000069EA579052D01D01420F8BD104F851F48
:10878000BD4219D2062917D3BD1DA94214D2FF2715
:10879000F537BA4210D20A2B0ED3AB420CD2E0828C
:1087A00021836283A383304601F02CF80421607991
:1087B000FFF746FD0020F8BD1820F8BD70CB002063
:1087C0007A0C0000F7B50D4680490098164642180D
:1087D0007F4F00247879B9791300FFF7FBFC190E5D
:1087E000141BE92040455970777E888FE996A2A92D
:1087F000B4BFC8E9E9E9E9D3E900102D76D1102228
:10880000314674486FE0102D70D172481022314605
:10881000103068E0042D69D13068F862CEE0012D97
:1088200064D13B7832783A70002B0AD0002A07D105
:10883000022903D0062901D0042901D1FFF706FD42
:10884000BCE0002A0AD0012905D0032903D005295C
:1088500001D0042902D10121FFF7FEFCAEE0022D78
:1088600044D13088B881A9E01F2D3FD858481F2235
:1088700000214230FFF7C0FC55482A4631464230BD
:10888000FFF7A2FC524B7D7042332A46012112E0D1
:108890001F2D7CD84F481F2200211F38FFF7ACFC4A
:1088A0004C482A4631461F38FFF78EFC494B2A4672
:1088B0001F3BBD7000217879FFF7D4FC83E0012DC8
:1088C00065D13078042862D8387277E0012D5ED106
:1088D000307803285BD8787270E0062D57D13C4879
:1088E000062231463030FFF76FFC67E04FE0012D84
:1088F0004DD1307807284AD8B8725FE0012D46D1B3
:108900003078032843D8F87258E0022D3FD13288DE
:10891000BA82002A52D0052950D10221FFF78AFCE1
:108920004CE0012D33D13078012830D8F87045E083
:108930003088022D2BD1062829D31921C90188425C
:1089400025D8F8823AE03088022D20D106281ED39F
:108950001921C90188421AD838832FE03088022DA6
:1089600015D1FF21F531884211D2788326E0308875
:10897000022D0CD10A280AD31921C901884206D830
:10898000B8831BE03178012D01D1012901D01824D1
:1089900014E00821FFF76CFC002801D016240DE03C
:1089A000002000F02FFF04217879FFF749FC05E053
:1089B0000098272801D2022D02D002242046FEBDB5
:1089C0003188FFF75BFC0446F8E70000FFFCFFFF7F
:1089D00070CB0020750001201CB50B4CA17900293B
:1089E00001D011201CBD002800D060620649074854
:1089F0002C31034601910090103B0022E17960790F
:108A000000F016F800201CBD70CB0020850001206E
:108A100010B506488179052901D0122010BDC18901
:108A200013224079FFF730FC10BD000070CB00200E
:108A3000F8B51D460224069F079E0B00FFF7CAFBF0
:108A40000511041111041100FFF724FC040008D1E2
:108A5000324639462846FFF723FCFFF727FCFFF78D
:108A60002BFC2046F8BD0000014610B50020C907C8
:108A700004D0034A0421034800F0A6F910BD000009
:108A8000D4C70020A8CA002070B50F4D0F4CA870A5
:108A900029461431204600F01DF8002128460B46D7
:108AA0000C30CA0084521218491C09065360090E82
:108AB000F7D0012001F0D8FAA878FFF703FC0448AA
:108AC000FFF706FC70BD00008CCA0020FFFF00000D
:108AD000D198002070B50A4C0025A04209D1002091
:108AE00082008C525218401CC0B295700228F7D3F5
:108AF00070BD00F0BCFE0028FAD00480857070BD07
:108B0000FFFF0000F8B50E460746069900240798B7
:108B1000002902D00B242046F8BD022B01D00D24E1
:108B2000F9E711785278120289188DB229468143EB
:108B300001D08024EFE73846F16800F03DF9A84203
:108B4000E9D02A463846F16800F0A8F90400E2D1DD
:108B500071892A46384600F065F9DCE770B50C46A5
:108B6000080412D50A488078FFF74CFB050008D0AE
:108B70002878B02802D1284600F094FF2846FFF755
:108B800047FB0120C003604070BD002070BD0000A5
:108B90008CCA0020FFB587B0087A0025109E1C46BD
:108BA0000F46C0060DD5099800F05AFE030006D006
:108BB0000A22394607989847050035D101E00E256D
:108BC00032E0387802281DD178682922017840786F
:108BD00012020002081880B2811A90427ED009DC8D
:108BE0007249401A23D0012821D0022851D00328ED
:108BF00008D125E0012972D0022971D003296DD056
:108C000004296ED0099800F053FE0028D7D00568DB
:108C1000002DD4D01299119801910090334622462C
:108C200039460798A847054628460BB0F0BD11986D
:108C3000002873D1F868017831700278416897E0B4
:108C4000119800286AD101203070F868002100785E
:108C500020707889401C80B2FFF740FB00280FD0BD
:108C6000317802788918891C3170817A6170418964
:108C7000090AA17002784168E01CFFF7A5FAD3E762
:108C800030780422001D30700021601CFFF7B4FA18
:108C9000CAE71198002872D1F86804A900880090EA
:108CA00004203070009820700098000A60700098CE
:108CB000FFF714FB070028D0F86805906846028A81
:108CC00003AB3B493846FFF70FFB00280FD13B7839
:108CD000022138487A68FFF70DFB03E027E031E016
:108CE0001DE049E0002802D1314869468881059895
:108CF000007802280CD1059802224168201DFFF758
:108D000063FA3078801C307002E0694600988881F0
:108D100068468089A070000AE07085E72FE011980E
:108D200000282CD1F968079800F046F804E0119863
:108D3000002824D1F8680088022131702070000AD0
:108D4000607071E7F868FFF7DBFA1199C0B28142F1
:108D500010D8814201D1002206E0129A891881427E
:108D600002D31199401AC2B23270F96811980918E9
:108D7000204682E7072557E71198002801D00B25E8
:108D800052E70721F86831700178217041786170ED
:108D90008178A1704188090AE17001792171817996
:108DA0006171C088000AA0713EE700000028000041
:108DB000FFFF00001E7C010010B500F058FD0028E8
:108DC00000D0807810BD00007CB51446050019D095
:108DD000684601950180FFF799FA03001DD1002C28
:108DE0001BD06D89002D0DD00C20FFF795FA0028BF
:108DF0000AD0002303608580094A846051680029F5
:108E000004D006E0022308E0132306E0506004E0EB
:108E100011460A68002AFBD1086018467CBD000094
:108E20008CCA0020F8B50C4C0746207815460E4633
:108E3000FF280FD00A20FFF775FA01000AD0B120F1
:108E400008700020487008714F80CE800D81207816
:108E5000FFF76EFAF8BD00008CCA0020FFB583B0A2
:108E600008461E4601A90C9FFFF738FA050012D0EC
:108E70006846808800F01CFD00280AD04468002C59
:108E800007D00097F3B22946059A0398A04707B088
:108E9000F0BD0E20FBE70120F9E7000070B5144695
:108EA0000E46054600F0E3FC002806D13146054891
:108EB00000F0DDFC002803D005808470002070BD28
:108EC000112070BDFFFF0000014610B50020C9074A
:108ED00004D0034A07210348FFF776FF10BD0000C6
:108EE000E8C70020FCCA002070B50D4616460024D5
:108EF0001D490300FFF76EF90805123434193422B6
:108F00002934152D23D8162200211848FFF774F9AB
:108F10002A4631461548FFF757F922E0022D16D1AF
:108F200011491088103908801BE0082D0FD10E4818
:108F3000082231460838FFF7DBF812E0012D06D190
:108F4000CA6909493078283107E0012D01D0182479
:108F500007E0CA6B04493078483101F03AF900E083
:108F60000224204670BD0000FCCA00204000012001
:108F700010B50446084884420DD0012907D00229C3
:108F800009D101212046FFF7D9F9002803D103496F
:108F90002046FFF79FFD10BDFEFF0000DCCB002048
:108FA000002805DBC106C90E012088400149086080
:108FB0007047000000E100E08307FF22DB0E9A40CB
:108FC0008907090E9940002808DB830809489B009F
:108FD0001B18186890430843186070470007000F7B
:108FE0000838830804489B001B18D869904308433D
:108FF000D861704700E400E000ED00E08307FF2245
:10900000DB0E9A408907090E9940002808DB830887
:1090100009489B001B181868904308431860704764
:109020000007000F0838830804489B001B18D86904
:1090300090430843D861704700E400E000ED00E091
:10904000BFF34F8F04490348C860BFF34F8F00BF81
:10905000FDE700000400FA0500ED00E0F8B5044665
:10906000002003460A5C8507ED0EAA401343401C0E
:109070000428F7DB00F0BAF80028FBD100F0C6F9AD
:1090800021022004090E0843FF273F0221463940F0
:10909000084372B600211A4DA960194E0002803EA5
:1090A000801C3060336062B600F0A0F80028FBD16D
:1090B00000F09CF911200006201869462A69520721
:1090C000FCD572B60422AA6004020204240E2243D4
:1090D000384002431002C01C306062B62869400765
:1090E000FCD53078087030784870307888703078E7
:1090F000C8700098984201D00020F8BD0120F8BD4A
:1091000080000811024901480860704740787D01DD
:1091100044CD0020F8B506460024FFF715F90546B2
:109120000648471B06E0FFF70FF9A84201D3441B8E
:1091300000E03C18B442F6D3F8BD0000FFFFFF008A
:1091400008B500020091000A04226946FFF786FF75
:10915000002800D0012008BD02E008C8121F08C185
:10916000002AFAD170477047002001E001C1121FA8
:10917000002AFBD17047F0B500248E464A1E12E04B
:10918000714600230D1B6D1E0AE09E0031188C46AF
:10919000875949688F4202D9815161464F605B1CF3
:1091A0009D42F2D8641C9442EAD3F0BD10B5002071
:1091B000054CFF212218401C51704028FADB02F0B8
:1091C00083FE207010BD00008804012010B500202F
:1091D000054CFF212218401C51700628FADB02F0D2
:1091E00091FE207010BD000051CD0020084801699B
:1091F0004907FCD5012181600549052280390A70A3
:1092000002695207FCD50878C007C00F70470000FC
:1092100080000811F0B58646080CFF26844600231E
:1092200088B237461C46194601228A400546154039
:10923000CD402C19A4B2FF2F02D1012C00D18FB246
:1092400065462A40CA40D21893B2FF2E02D1012BA4
:1092500000D18EB2491C1029E6DB012C02D0102C63
:1092600008D009E0012B07D13001C0197146087000
:109270000220F0BD102B01D00320F0BD0120F0BD75
:10928000032806D3012189078A68012383401A43F2
:109290008A60704701480068704700001010FF1F87
:1092A000012189070B680122824093430B60086803
:1092B0001043086070470000F8B5496894460A7882
:1092C0004978069C090251188EB2444A11210025A2
:1092D0000798B71A091B964243D009DC404AB218D6
:1092E00013D0012A1CD0022A25D0032A08D12EE04F
:1092F000012F40D0022F48D0032F50D0292F5AD011
:10930000002018700A252846F8BD082C55D20821DF
:10931000091B814200D80846C2B21A70314857E092
:109320000C2C4AD20C21091B814200D80846C2B23B
:109330001A702D484CE00D2C3FD20D21091B8142A3
:1093400000D80846C2B228481A700D3040E0112CEF
:1093500033D2814200D80846C2B223481A701B306B
:1093600036E0112C29D2814200D80846C2B21E48EC
:109370001A702D302CE0112C1FD2814200D80846E3
:10938000C2B219481A703F3022E0112C15D2814226
:1093900000D80846C2B214481A70513018E00E2C9A
:1093A0000BD20E21091B814200D80846C2B20E48DA
:1093B0001A7063300CE0072C01D30725A3E70721BF
:1093C000091B814200D80846C2B206481A70C01F65
:1093D00001196046FEF7F8FE95E70000272A000015
:1093E000DDD5FFFF4BC900204CC7002006480169AE
:1093F0004907FCD500218160034A0421803A11709D
:1094000001694907FCD570478000081106480169C9
:109410004907FCD500218160034A0621803A11707A
:1094200001694907FCD570478000081170B500211B
:10943000040000D11E4C1F4D28681F4B80B2002233
:10944000984222D001281CD0830B460B7340DB07C7
:10945000DB0F400018434004400C030A43409B06C6
:109460009B0E9A18521C92B293089B005B199B6842
:109470009607F60EF3406354491C0D29E4DB0120E6
:1094800070BD02F021FD022801D0002070BD0A222B
:109490000A492046FEF798FE08480F38C17EA1729F
:1094A000007FE0720548113000782073E7E7000084
:1094B000E027012000230011FFFF0000B704012076
:1094C00003460002012100B5000A090488421BD3AB
:1094D000FFF78CFE0028FBD1FFF798FF0B49002017
:1094E000886019021804090E0843FF2109020B4085
:1094F0001843064900028039D8300860FFF776FE2D
:109500000028FBD1FFF772FF00BD000080000811AA
:1095100003460002012100B5000A490388421BD31B
:10952000FFF764FE0028FBD1FFF770FF0B49002016
:10953000886019021804090E0843FF2109020B4034
:10954000184306490002803920300860FFF74EFEBC
:109550000028FBD1FFF74AFF00BD00008000081182
:10956000F8B57A4C87780146002507266079A279FC
:109570003B00FEF72FFE0805361A37375F9ACD36C7
:10958000487800285CD1714806223C30C91CFEF79F
:109590001BFE0120A0716D4B014642336278607959
:1095A000FEF760FE00284BD1A8E00F46497800295D
:1095B00046D1F978002906D0654BA2780021FEF744
:1095C00051FE78700AE0022A0BD00121FEF750FE0E
:1095D000002803D101216079FEF73EFE787800284B
:1095E0002ED1F8BD497800292AD1032F09D0A289AC
:1095F000002A0CD0217800290AD00121FEF71AFE9A
:1096000006E0052A01D0022012E0062010E02570B5
:10961000A079062802D0042802D008E0052007E03F
:109620000120207001466079FEF716FE66E00320F7
:10963000A07163E048780F46002803D0312832D06B
:10964000A6715BE041480622391D3630FEF7BCFDAD
:109650007889E081B8892082F88960820520A0712C
:10966000A28A002A03D002216079FEF7E3FDB889BF
:10967000E083F8892084388A6084E07801280AD160
:109680001F20FEF7ADFD7D21C9004843024604219D
:109690006079FEF7CFFD7A89F8780423391DFEF74B
:1096A00053FF25702AE02570C1E728480E460622A0
:1096B00000213630FEF7A0FDE58325846584042172
:1096C0006079FEF7BDFD08216079FEF7B9FDB0793C
:1096D000082808D00320A0712078002805D06079E0
:1096E000FEF7B4FD07E00420F5E7012020700146F5
:1096F0006079FEF7B1FD0020C043E081606A002878
:1097000000D16EE701680029FBD0A0798847F8BD39
:109710000D460821FEF794FD687829460028F6D109
:10972000E888E0832889208448896084042160795E
:10973000FEF79EFD0028EAD1A06A0028E7D0036862
:10974000628C218CE08B9847F8BD000070CB002024
:109750005600012010B50178224C912906D0A2298B
:1097600026D0D02901D1FFF7FBFE10BD41780E298C
:10977000FBD181881C4A91420FD181680320085691
:10978000A1790529F1D17F28EFD0616A0029ECD0B9
:1097900049680029E9D0884710BD144A9142FBD19D
:1097A000806883784278017811A002F055F810BDE6
:1097B00041791329FBD10089012802D1207902289F
:1097C00008D00520FEF70CFD024608216079FEF75F
:1097D00031FD10BD08216079FEF732FDFFF718F961
:1097E00010BD000070CB00200514000022200000F6
:1097F0005B48434920444C455D2564202564202571
:10980000640A00007CB5154C0546E08BE18A88426D
:109810000AD3218B884207D8208C618B884203D1E0
:10982000608CA18B884217D00520FEF7D9FC064634
:10983000E18A68460180218B4180618B8180A18B08
:10984000C18062796946E089FEF784FD2571324660
:1098500008216079FEF7EEFC7CBD000070CB002093
:1098600010B500F025F8002800D0806810BD002257
:109870009300CB5A834202D1900040187047521C8B
:10988000D2B2022AF4D3002070470000074A002118
:10989000CB00D35A834202D1C80080187047491CBC
:1098A0000906090EF4D000207047000098CA002075
:1098B0000649496805E08A88824201D18868704774
:1098C00009680029F7D10020704700008CCA0020E9
:1098D000F8B50746012906D0022924D10121FEF757
:1098E0002DFD00281FD13846FFF7D0FF050015D009
:1098F00000240D4E0CE0F8206968604308180188C8
:10990000002908D0F8220021FEF776FC641CE4B29E
:1099100070788442EFD30020C04328800249384643
:109920001431FFF7D7F8F8BD8CCA0020F3B506460E
:1099300083B008300190002000907088FFF7A6FFE8
:1099400007002FD0002523E0F820796868430C1821
:109950002188002920D00198007801280FD1608843
:10996000009023797088621DFFF778FA0090002834
:1099700005D0019900200870049821880180F82200
:1099800000212046FEF738FC00206D1C2080EDB23F
:10999000074840788542D7D30020C04338800098DC
:1099A000002802D17088FEF7DBFC009805B0F0BDFE
:1099B0008CCA0020F3B50546364C064685B00835FE
:1099C000162200212046FEF717FC03A800902B79F1
:1099D000698828886A1DFEF7C9FC074644E02E48BE
:1099E0002E4900780022C01FC0B20091019202905F
:1099F000284B69468A897088F63B3946FFF7CAF8D2
:109A0000002812D12548E979C01EC27891420CD1B4
:109A100020492846F6390830FEF7AEFC002804D06D
:109A2000217878898900091948806846828969887F
:109A300004AB3846FEF758FC074620788100091928
:109A40004A88002A10D0002F05D06A46128A401C8E
:109A500020708A800AE002060021920DC943121983
:109A6000401C2070918006E0002F04D00C48217823
:109A700000888142B3D32078002806D07088214620
:109A8000FEF780FC002007B0F0BD06982988018011
:109A90000A20F8E746FF0020EC10FF1F8FCA0020C5
:109AA000F410FF1FF0B585B0044600276846878193
:109AB00020790E2867D00EDC082822D004DC02288A
:109AC00012D0062817D117E0254608350A281DD0E0
:109AD0000C287FD137E010285AD012285DD01628E4
:109AE00060D0182876D162E041484049008808805B
:109AF0006088FEF74DFC6DE003A92046FFF75AFF92
:109B000059E003A9204600F075F954E0288804A91B
:109B1000FEF7E4FB010014D03648344E007801977C
:109B2000401EC0B2009602906A466088731C128A7A
:109B3000FFF730F800281DD160883146FEF72EFC73
:109B400048E0012016E0288804A9FEF7C7FB0100C1
:109B5000F7D028486A880078244E401EC0B201928F
:109B6000009602906A466088128A731CFFF712F80A
:109B7000002803D029886A4691811CE0608831461C
:109B8000FEF712FC26E003A9204600F0C7F912E018
:109B900003A9204600F082F80DE003A9204600F05A
:109BA0001FFA08E003A9204600F028F803E003A903
:109BB0002046FFF7BBFE00280CD06178142909D09D
:109BC0000A4922790A706A4692894A800871608837
:109BD000FEF7F0FB2046FEF7F3FB074881680029FB
:109BE00001D02046884705B0F0BD000046FF0020A8
:109BF000EE10FF1FEC10FF1F8CCA0020F8B50446C2
:109C00000F460546083400896946FEF767FB0600E3
:109C10003AD0307A80060ED568460088FFF720FEDD
:109C2000030006D06888122231469847060002D009
:109C30002BE00E2629E06E883046FFF727FE010054
:109C400005D11448FFF722FE01000ED00E80124A03
:109C50000020527807E0F8264B6846439B5B002BB8
:109C600005D0401CC0B29042F5D309260DE04968EA
:109C7000F822504308182146FEF7A6FA0026688805
:109C80002146FEF7A3FB02E00126208838803046FB
:109C9000F8BD0000FFFF00008CCA0020F3B58BB0B8
:109CA00000200B9E0746039004A800903246337BA9
:109CB000718930894C4C0D320836FEF757FB05464A
:109CC00078E00B98297A4088FEF786FB070003D0DE
:109CD0000C98698901806FE0444800210078019167
:109CE000801FC0B2424A029000920B983E4B6946D8
:109CF0000A8A4088F63B2946FEF74CFF0700E7D169
:109D00000398002834D03A486278C01EC178081DF4
:109D1000824254D10398411834480088801F814200
:109D20004DDC0398A97A2018817003986989401C3A
:109D3000C0B22218090A401C9170C0B20390684654
:109D4000028A718807AB2846FEF7CEFA050015D0C7
:109D50006946888B03996118887003986946401C8E
:109D6000898BC0B2090A2218401C9170C0B210E061
:109D70001F48C01EC078001D6070D2E70399FF2005
:109D8000611888700399491CC9B262189070491C07
:109D9000C8B217490390C91ECA7813492018F6396A
:109DA000801CFEF711FA12490398C91EC9784018A1
:109DB000C0B20390002D84D1039800280CD06178A4
:109DC0000398FEF70FFB20700B9821464088FEF7A2
:109DD0000FFB00200DB0F0BD002F00D10A270C9919
:109DE000308808803846F5E746FF0020EC10FF1F5A
:109DF0008FCA0020F3B587B0079F00243889434DF0
:109E000026460837059064E003A800903B797988DE
:109E10007A1D0598FEF7AAFA049000284DD04089D3
:109E200005900498017A07984088FEF7D5FA060055
:109E300054D1374800210078364A001FC0B2019142
:109E4000029000920798314B69468A894088F63B18
:109E50000499FEF79FFE060040D1002C30D02D481B
:109E60006978C01EC078801C814239D1294BDB1E25
:109E7000D878211826480088001F81421DDC0498EC
:109E80002919807A8870641CE0B204992A184989DB
:109E9000401C090A91701946CA78C4B21B49281996
:109EA000F639801CFEF790F91A481B49C01EC0788D
:109EB0002018C4B20598884208D1002C10D11EE0A9
:109EC0001448C01EC078801C6870CFE7401C80B268
:109ED00005900F480088001F844295DD002C0CD0AF
:109EE00069782046FEF77EFA287007982946408850
:109EF000FEF784FA002009B0F0BD002E00D10A263A
:109F00000898059901803046F5E7000046FF0020DB
:109F1000EC10FF1F8FCA0020FFFF0000F3B585B0D3
:109F200000272C4C059E27703D46083641E068000E
:109F3000305A03A9FEF7D2F9010017D02648274B63
:109F400000780093401EC0B2002201920290059852
:109F5000204B6A464088F63B9289FEF71BFE0700BD
:109F600006D06800315A0698018030E00127F8E7F2
:109F70001A482178C01EC0780A1817480088431E66
:109F80009A4204DD401A1549C91E401EC870217846
:109F9000601C08181149C91ECA780E49F639FEF727
:109FA00013F90E482178C01EC07808186D1C207067
:109FB000EDB2B07DA84205D9074821780088401E3F
:109FC0008142B4DB059821464088FEF71DFA3846E9
:109FD00007B0F0BD46FF0020EC10FF1F8FCA002025
:109FE000F3B5054683B004460835008901A9FEF79C
:109FF00075F92746E8370646002822D0307A8006D1
:10A000000ED568468088FFF72BFC030006D06088D9
:10A01000122231469847060002D013E00E2611E0C6
:10A0200000200090AB7829886088EA1CFEF716FFB4
:10A03000060007D1387E002807D16088FEF7EAF9CC
:10A0400003E00126049829880180387E002802D088
:10A05000002005B0F0BD3046FBE7000001498860F4
:10A06000002070478CCA0020F8B504460246F8204C
:10A07000424319480025074645700C377868002888
:10A0800007D00020C100C919401C00064D60000E19
:10A09000F8D0124E00213046FEF7AEF800200146FF
:10A0A0006143C9B2F82251438B190B49C2000C31EC
:10A0B00052180021536005E0F8274F435368491CAC
:10A0C000DD53C9B2A142F7D3401C0006000EE6D012
:10A0D000014844700020F8BD8CCA002058FD0020C3
:10A0E0007CB50C78069D022C0ED14C6826786478DD
:10A0F00024023419054EA4B2F44205D1022400957D
:10A100000194FEF7FFFC7CBD01207CBDFED6FFFF65
:10A11000F8B5069800271D4614460E46002801D0C3
:10A120000B20F8BD30780021022801D019704DE0D5
:10A1300070680278407800021018152280B252022E
:10A14000801A0300FEF746F80504121F1A25410085
:10A15000F068FEF7D5F8C2B20798824200D90246ED
:10A160002A70F1682046FEF72FF830E0F0680221EF
:10A17000008829702070000A607028E0062028708E
:10A180000246F168EEE701202870F0680078207040
:10A190001DE0F068002816D0082129700178217090
:10A1A0000188090A61708178A1704188090AE1700B
:10A1B000017921718188090A61718179A171C08851
:10A1C000000AE07103E0297001E029700127384698
:10A1D000F8BD10B50B78840702D50224234301E0B3
:10A1E000FD2423400B7003070B7802D5082423437A
:10A1F00001E0F72423400B7083060B7802D520245E
:10A20000234301E0DF2423400B700A21084201D1DF
:10A21000810603D510780C21084304E0002803D1FF
:10A220001078F3210840107010BD0000FFB581B018
:10A23000087800240A9E1F460D4602280FD1686840
:10A240000178407800020818152180B24902401AAE
:10A2500009D0012829D0022848D003283CD0012465
:10A26000204605B0F0BDE868FEF74AF8C0B2864265
:10A2700005D8F0190090152803D90D24F0E707241C
:10A28000EEE7E8683A4680190399FDF79DFF0098CC
:10A29000EA6880B2002111541C4840680028DFD0D1
:10A2A00001680029DCD0002012E0002E12D1022B20
:10A2B000E3D10399E8680A784978090251180180C6
:10A2C000124840680028CBD001680029C8D001207E
:10A2D0008847C5E70B24C3E7002EFBD1062BCCD162
:10A2E0000622E8680399FDF76FFFB9E7002EF1D168
:10A2F000012BC2D103980078002803D0012801D097
:10A300008024ADE7E9680870AAE70000ECCA0020E5
:10A3100010B5122801D3052010BD0C4B9C6B0122F7
:10A320008240104620439863586B90435863DC6B1F
:10A33000002907D020469043D863186B02431A6364
:10A34000002010BD10462043F6E7000000800040CA
:10A35000084A042807D2012307E0184300E0984385
:10A360005061002070470123123883405069002952
:10A37000F5D0F2E70038004070B50F4D00242E19DB
:10A380007078022807D9E0B200F05AF9E2B201462B
:10A39000104600F071F9232C0ADA7078022807D9E8
:10A3A000E0B200F04DF90C216143491920314871A8
:10A3B000641C232CE3DB70BDB001012070B50221C9
:10A3C0001020FEF71BFE1020FEF7EAFD114E0024C0
:10A3D0000C206043801920300079002813D0E0B2AF
:10A3E00000F072F9E5B2284600F02AF900280ED0F4
:10A3F00000210C226A43921920325279824202D003
:10A40000284600F03FF8641C232CE1DB70BD0121DD
:10A41000EFE70000B0010120F3B5194E002481B030
:10A42000074601252846A040384225D00299084217
:10A4300001D1012000E000200090E0B2009900F07E
:10A4400021F80C20604380194168806800290ED0F3
:10A45000002807D00098002802D00021E0B203E0D5
:10A460000121FBE7E0B20021FFF752FF04E00028E2
:10A4700002D0E0B20121F7E7641C122CD2DBFEBD52
:10A48000D4010120074A0C2343439B185A68002A31
:10A4900001D0002904D09A68002A02D0012900D1F5
:10A4A00010477047D401012010B50448C16B034A1E
:10A4B00040321068D060FFF7AFFF10BD0080004051
:10A4C00010B50E4880680007000F062807D007DC8B
:10A4D00002280BD0042802D1012000F0D9FC10BDC5
:10A4E000072806D00C28FAD10220F6E700F0F6FC87
:10A4F00010BD02484030C06B10BD0000004000405D
:10A50000C306DB0E01229A40064B40098000C018AA
:10A510000029C16801D0114300E09143C1600020CF
:10A52000704700000038004030B50C460546012158
:10A53000FFF7E6FFA9080748890009188869AA07F4
:10A54000D20EFF239340984394402043886100201B
:10A5500030BD00000038004010B5114C20780028B4
:10A5600001D0072010BDFF21C9310D48FDF7D9FDED
:10A57000012020700B490020086348630A490862E3
:10A58000486202211020FEF739FD1020FEF708FD79
:10A59000064A07490D2000F03DF9002010BD0000DB
:10A5A000B00101200080004080F00040BDA30020E9
:10A5B00079A3002030B50D460446042803D3204675
:10A5C0001F38032803D801212046FFF7C1FE0021D0
:10A5D0002046FFF795FF01230B4A122C08D2A34017
:10A5E0005068002D01D0184300E09843506008E007
:10A5F000123CA3401069002D01D0184300E098439D
:10A600001061002030BD00000080004070B50C4695
:10A610000A21FDF7E7FE4A00891801221346491C6A
:10A620008B404D1CAA4013438200044812189068C6
:10A630008C40984304439460002070BD00F00040BB
:10A640000C4A0C4B0121403A122807D28140506835
:10A65000084201D0106809E0186907E0123881400B
:10A660001069084201D0D06800E05869084000D065
:10A670000120704740800040F8B50E4605460A218B
:10A68000FDF7B0FE48000918EA060124D20E204664
:10A6900090406A0993000B4A9A18136A03431362A5
:10A6A0008C40084F2846803F0A21FDF79BFE800022
:10A6B000C0198168002E01D0214300E0A1438160D0
:10A6C0000020F8BD80F0004070B5044618480C2208
:10A6D0006243151869680126002902D1A96800297A
:10A6E00006D0134924390919122C03D3032302E09D
:10A6F000122070BD04234B7001218154002120469B
:10A70000FFF758FF6868002810D0A86800280CD010
:10A710002046FFF795FF002801D0012100E000212D
:10A720002046FFF7F5FD002070BD00263146F7E713
:10A73000D401012010B50748007800F09FF90120EE
:10A7400000F056F9FFF708FF01F0A4F802A001F0AD
:10A7500083F810BDE312FF1F616C6C206472697690
:10A76000657220696E6974204F4B210A0000000059
:10A7700010B50448112243681521034801F086FEF4
:10A78000002010BD3CCD00201CF0004010B5782109
:10A790000948FDF7C6FC09480078012805D00228C1
:10A7A00006D0032806D0042804D1FDF739FE01E0C5
:10A7B000FDF73CFE002010BD100401203CCD002020
:10A7C00010B51249034609781220012914D0042932
:10A7D00012D072B600210E4A0C244C43145D002C9A
:10A7E00011D09C420CD10C23594301208918487088
:10A7F000FDF716FE002006E0FDF712FE002010BD5A
:10A80000491C0A29E8DB62B610BD00003CCD0020DF
:10A810001004012030B50D4C00230C255D43655D0F
:10A82000854201D1072030BD002D04D05B1C0A2BCE
:10A83000F3DB032030BD0C256B431B19F9D000243A
:10A840005C7018709A602046596030BD1004012079
:10A8500070B5FFF78DFF0A4D002420460C214843B8
:10A86000295C002909D040194068002800D08047A1
:10A87000641C0A2CF1DB002070BD122070BD0000AA
:10A880001004012070B515490023097801290FD063
:10A8900004290DD072B60021114A0D460C244C43F8
:10A8A000165D002E0FD0864205D1A418657007E012
:10A8B000FDF7B6FD0CE0A4186478002C00D05B1CFA
:10A8C000491C0A29EADB002B04D0FDF7A9FD62B67A
:10A8D000002070BDFDF7AAFDF9E700003CCD002087
:10A8E0001004012070B50A4D002420460C21484375
:10A8F000295C002909D040198068002800D08047D1
:10A90000641C0A2CF1DB002070BD122070BD000019
:10A910001004012010B516490820096848658865AB
:10A9200014490A20087014490120087013490020B6
:10A93000087000F02BF812480421C16111498160B0
:10A94000C16001611049416101210A20FFF75EFEEB
:10A950000B480D230F221221143001F097FD002126
:10A960000420FEF729FB01210220FEF725FB10BD84
:10A970004CCD0020E112FF1FE212FF1F0013FF1F4A
:10A9800000F00040B66DDB36B6EDC3B070B51548CB
:10A99000002200680424866B1025134813493300F5
:10A9A000FDF718FC070808050C0E130805000560E4
:10A9B0000C600DE020220260052004E0302305E059
:10A9C000402202600620086002E0602303600A6003
:10A9D000FDF732FDFDF736FD01F0F4FB01F0D6FA8C
:10A9E00070BD00004CCD00202010FF1F2410FF1F61
:10A9F000F8B51F4D1E4F08351E4C1126012820D0DA
:10AA000000281DD100211020FFF700FE0021112099
:10AA1000FFF7FCFD032308220921284601F036FD3B
:10AA2000062200231146284601F030FD16231B2282
:10AA30001F21384601F02AFD2068C16AB143C16276
:10AA4000F8BD05231B221F21384601F01FFD0A4BCC
:10AA500007221021284601F019FD06220123114684
:10AA6000284601F013FD2068C16A3143E7E7000082
:10AA700014F000404CCD0020FB030000F8B5FF228D
:10AA80002D322A4E2A4C002832D0012329499B041A
:10AA900002282FD08025012831D00E681E430E6079
:10AAA0004B6806460B360127B7403B434B604B686B
:10AAB0002B434B60032832D0042832D01E4921603A
:10AAC000521E1204120CFBD103461A480321001F28
:10AAD00001F0DCFC01208007C169184D890722D5EF
:10AAE00080690005010E491C2068FDF77BFC1BE016
:10AAF0002660E5E70D681D430D601149DFE70F682B
:10AB00001F430F604B6801277F05BB434B604B68B9
:10AB10003F123B434B604B682B434B60E8E70949CE
:10AB2000CDE70949CBE720682860F8BD0048E80177
:10AB30001810FF1F40F0004000D8B8051010FF1F8C
:10AB40000024F400006CDC020090D0031FB5124C0E
:10AB50002078002802D0112004B010BD20210E481A
:10AB6000FDF7DFFA6846407A002803D16846C07ACC
:10AB7000002801D00520EFE768460FC810340FC445
:10AB80000120203C207001F007FD044A002108202C
:10AB9000FFF740FE0020DFE7F003012099C5002009
:10ABA00010B5054A927E002A02D001F0B5FC10BD16
:10ABB00001F07EFC10BD0000F003012010B504463A
:10ABC000084884420DD0012907D0022909D101216A
:10ABD0002046FDF7B3FB002803D103492046FDF7CB
:10ABE00079FF10BDFEFF000070CC002010B501F011
:10ABF000BBF90A480179002908D001210170002120
:10AC00004171FF3006490130416110BDFF22193208
:10AC100000210248FDF7F0FA10BD00009800012065
:10AC20000050FF1F10B5642001F09EF9094801791A
:10AC3000002908D00121017000214171FF3006492F
:10AC40000130416110BDFF22193200210148FDF79A
:10AC5000D3FA10BD980001200050FF1F6D46294611
:10AC600006A000F0F9FD0024A000295809A000F07A
:10AC7000F3FD641C102CF7DBFEE7000048617264F2
:10AC8000204661756C742053502069732025780A22
:10AC900000000000307825782C000000F8B56B4AE1
:10ACA00069496C4B6A481160D86100208400002318
:10ACB000401C0B51FF28F9DD1068FF22014680314E
:10ACC000654B6F328B600A250565C262634A137853
:10ACD0008363634BC3611378022B06D01378032B75
:10ACE00005D01378042B04D005E0102302E01423D0
:10ACF00000E0182303625B4B4361594B34249633C5
:10AD000083613C23CB603623C363082344643A2623
:10AD100003644E6031260E603B26CE634626CE6429
:10AD20000F463926403758C732260E6502260E6672
:10AD30001E274F664226543158C1CC608B600524D3
:10AD40000E614C615A2460390C614B613C248C616A
:10AD5000AF24E40004601478022C06D01478032C8D
:10AD600005D01478042C05D005E0102400E0092457
:10AD7000446000E04360FF242D348460192676018E
:10AD800006616400C460384E7D278664FF00CF678B
:10AD90004762364EC664364F87627327C7650627FB
:10ADA00047658765C31D0827F9331F60022747667B
:10ADB00084660924C4662F4C046708244467FF2472
:10ADC0002D3484672C4CC4672C4806601078022808
:10ADD00006D01078032807D01078042808D00AE09D
:10ADE0001220C861192001E00C20CD61086202E048
:10ADF00008200D62C8611C4888627D20C0008867F9
:10AE00006420486205200F63C862C82048630020A0
:10AE1000886338205860AF21C900194899611864C7
:10AE20004B201962C000D8617D200001586216498C
:10AE3000144888601449154880318862FEF7B6F9D5
:10AE4000FEF7C4F9F8BD0000000CFF1F4CCD002038
:10AE5000000CFF1F0010FF1FD00C0120E312FF1F8A
:10AE60004605000060E3160050C30000740E0000A9
:10AE70006A180000204E0000881300009412FF1F83
:10AE8000004000115DAF00200009FF1F8DBF0020B2
:10AE900070B5104C8AB0227E0F496D46002A0BD047
:10AEA0000D4A80325268D3B2002202E00E78AE54CE
:10AEB000521C9A42FADB03E00A7D012309782970CB
:10AEC000E169002904D0287506952B7705A88847E5
:10AED0000AB070BDF0030120004000403EB51C499F
:10AEE0000A78081D002A31D00A46097E00292DD093
:10AEF000917E00292AD00178022927D181884488AF
:10AF00008368091B89B2102901D9102101E00029A9
:10AF10000BD0104D0A46491E89B2002A16D042882D
:10AF2000541C44809A5C2A70F4E7012101700021CE
:10AF300041808180D169002905D0074A6C460DCA3D
:10AF40000DC4684688470820FFF79CFC3EBD000002
:10AF5000F003012000400040B0C8002070B52B482D
:10AF60000068012803D12A48816F491C81672A485B
:10AF7000284941610121C1600160284A506BC1B27A
:10AF800027480078002817D126480023C356002BF5
:10AF9000254BC35606DB1B04002404572002181857
:10AFA000401808E0FF331B0400240457200218183F
:10AFB0001E4B4018C0185063022901D2022102E042
:10AFC000502900D950211A48027814481430022A16
:10AFD00011D0184A1478184B1D78AC4214D9147843
:10AFE0001B78E31A891E49104B4311784901C91A8D
:10AFF00010314B1103E0114A1478114BECE7002299
:10B00000072101F043FA70BD1378F8E75812FF1FCB
:10B01000D03BFF1FFF3F00000010034080000340B3
:10B020005312FF1F0013FF1F00000000FFFE00006F
:10B03000E212FF1FDD12FF1FDE12FF1FDF12FF1FD4
:10B04000E012FF1F10B50B4902200870032109030D
:10B050000948FDF7FDF9FFF721FEFFF797FBFFF722
:10B0600059FCFFF767FB00F0EBF800F0A2FB0020B3
:10B0700010BD0000E312FF1F58CD002070B5002462
:10B080001220FDF749F91549122208600021FDF749
:10B09000B3F820460124FDF7E1F902252046FDF72B
:10B0A000E3F903242846FDF7E5F904252046FDF7DA
:10B0B000E7F905242846FDF7E9F906252046FDF7BE
:10B0C000EBF907242846FDF7B5FA08252046FDF7D9
:10B0D000DBFC284600F004F870BD0000FCCC00202A
:10B0E00030B5424D89B06870012168460170072271
:10B0F00002710022028101730C210182818202838C
:10B10000FF21F5318183C320394C01AA0121800040
:10B11000FDF758FB6A4601213648FDF753FB3548D9
:10B1200002AA0221401CFDF74DFB2078401C207034
:10B1300028461D3006222146FDF746F82D482A46AE
:10B140000C321921801CFDF73DFB312003AA01219F
:10B150000001FDF737FB274804AA02210C30FDF758
:10B1600031FB244805AA02210D30FDF72BFB2148B5
:10B1700006AA02210E30FDF725FBC52007AA0221F1
:10B180008000FDF71FFB2A46253215210020FDF720
:10B19000ABFEFF24913421460620FDF76FF82146CF
:10B1A0000720FDF76BF821460820FDF767F82146D8
:10B1B0000920FDF763F80024E4432046FDF784FEF0
:10B1C0002046FDF751FCFDF7A3F900F061F80A48AD
:10B1D000FEF744FF0120FDF765F90120FDF768F94E
:10B1E00001216878FDF738F809B030BD00CD0020A6
:10B1F0003112FF1F0503000051B4002010B50C46AA
:10B2000008040AD50D484078FCF7FCFF002801D05F
:10B21000FCF7FEFF0120C0030CE0E00705D0074863
:10B22000001DFDF7D9FB012004E0A00704D500F0C4
:10B2300023F80220604010BD002010BD00CD00208A
:10B2400010B50A48416B0A4A0907090F426307D043
:10B25000012908D0032902D106490120087010BD38
:10B2600007F07EF810BD01F0D3F810BD00F00040EB
:10B2700020100000F8CC002010B504480169C1601E
:10B280006821872000F05EFE10BD000098010120BB
:10B2900010B5FF22193200210948FCF7ADFF08481C
:10B2A0000221C17107490978417014214180083099
:10B2B00000F0E6F9044800F015F8002010BD000089
:10B2C00098000120F8CC002071BD002010B5044981
:10B2D000C01E48806821872000F034FE10BD0000A9
:10B2E0009800012070B505460B48FCF7F1FF0B49AB
:10B2F0000B48FDF7EFFB09480A4A08210830FDF723
:10B3000063FD040002D008A000F0A6FA0348001F65
:10B310000560204670BD0000BDAB002070CC002051
:10B32000FFFF00004CC80020416464204F544120BE
:10B3300073657276696365206661696C6564210A6C
:10B3400000000000FEB50446014627A000F084FA84
:10B350002A4D052C07D028780126294F052809D029
:10B3600002280ED00FE025492548891C0930FDF739
:10B37000EDF836E06846067001216888FDF7F8FDB3
:10B380000BE0032C02D0012C19D02AE00820FCF796
:10B3900027FF202825D16846067020210820FCF7C9
:10B3A0006DFF20210920FCF769FF00210846FCF70A
:10B3B00065FF6A4601213846FDF704FA11E0C12015
:10B3C00069468000FDF7C2F86A465079D07110795D
:10B3D0009071D078507100201071D0700821FDF765
:10B3E000A3F82C70FEBD00006F74615F476170535D
:10B3F0007461746543423A202564000000CD00204A
:10B400000503000038B5044669460E48FDF79EF86E
:10B410006A460D491088FDF7CFFC6A4611880B4A31
:10B4200091420CD0C0070AD007480022483040891A
:10B430002080684621460088FDF740F838BD12207C
:10B4400038BD00000E03000070CC0020FFFF00009C
:10B4500070B504464078217917280ED002290BD107
:10B460002589F72D00D9F7252846FFF72FFF2189D9
:10B470002A4604A000F0F0F970BD09A000F0ECF934
:10B4800070BD00004D54552073697A652072657156
:10B490003A202564207C207365743A2025640A00D4
:10B4A0005B4741545420544F5D2025780A0000002A
:10B4B00070B50C46022505A000F0CEF9207AC00632
:10B4C00001D5082070BD284670BD0000526561643A
:10B4D0004174747243420A00FEB584461546087AE8
:10B4E0000026089A1F460C46800601D50820FEBD9E
:10B4F00020780121022821D0284A6089528D90426B
:10B5000009D126480C380268002A04D06846017028
:10B51000477001959047214861894030408F8142B2
:10B520000AD11E480C380168002905D0022268465D
:10B5300002704770019588473046FEBD6068037809
:10B54000407800021818164B80B29842F4D100924D
:10B5500001913B462A4621466046FDF7D3FA060094
:10B56000EAD10E4C0C3C20680028E5D06978287898
:10B570000902401885B229460AA000F06DF9216839
:10B580000029D9D0012D07D006206A46107000206E
:10B59000507001906846CEE70520F6E778CC002091
:10B5A0000229000043434344207365743A205B251D
:10B5B000645D0A00F8B504460F48844202D00F4883
:10B5C000844217D12004000C0BD00126002536033D
:10B5D00077016019FDF79CFFAD19BD42F9DB002032
:10B5E000F8BD2046FDF76CFF012000042018FDF790
:10B5F00067FFF4E70620F8BD0020011100200311C9
:10B60000F8B50D461121044609060C4316491020D1
:10B610008C4204D3154A6119914200D80020144984
:10B620008C4204D3134A6119914200D80020124978
:10B630008C4205D3892261195205914200D800201D
:10B6400021462943090501D00C20F8BD0028FCD172
:10B65000002601273F0303E0A019FDF759FFF61963
:10B66000AE42F9D30020F8BD003000110090001167
:10B6700000A00011002001110020051100207047DA
:10B680003CB50446002000900190114D0422114960
:10B690006846256006F08DFE0098411C10D00428F5
:10B6A0000CD80C490422091D01A806F082FE01985D
:10B6B000012807D0022808D0002806D068203CBD09
:10B6C00067203CBD0448206000E0256000203CBDB0
:10B6D000002001110090001100200311F3B581B08A
:10B6E0000C46880701D00C20FEBD1648FDF710FF60
:10B6F0000026A7081FE00198B500415911482818F5
:10B700000446FDF71DFD002814D10198415920463B
:10B71000FDF716FD00280DD1019841592046FDF78F
:10B720000FFD002806D1019841592046FDF708FD7C
:10B73000002804D0761CB742DDD80020FEBD1720BB
:10B74000FEBD000000900011F7B5064682B08007EC
:10B7500002D00C2005B0F0BD0025D21C970822E0D5
:10B76000A80003990090095880190446FDF7E8FCE9
:10B77000012817D00399009809582046FDF7E0FCEE
:10B7800001280FD00399009809582046FDF7D8FCEE
:10B79000012807D00399009809582046FDF7D0FCEE
:10B7A000002804D06D1CAF42DAD80020D2E7172061
:10B7B000D0E710B5FCF788FE0120FCF78BFEFCF704
:10B7C0008FFE002010BD000070B5204CA07961787C
:10B7D00000010619204682790C36120110180569FD
:10B7E000002911D13068A8420CD1B168280B0003A0
:10B7F0004919174A091A89189143FFF701FF0028D0
:10B800000AD101E0A16845181248B268416928468A
:10B81000FFF79AFF002802D0FFF7E8F970BDA07982
:10B820006179401C88420BD16078002801D100F07A
:10B830004DFF042020700021832000F083FB70BDA9
:10B840000220207000218520F7E7000098000120E9
:10B85000FF0F0000980101200FB410B578210B48AC
:10B86000FCF75FFC03AA0020029900F01BF80748D0
:10B87000FCF73CFE81B20548FFF792F9044900202D
:10B88000088010BC08BC04B01847000078030120F1
:10B890003ACD002010B5024B0FCBFFF757F910BD82
:10B8A000A0C80020F7B5002584B00C4606462F46F8
:10B8B0006BE0252863D100226078641C13460028C1
:10B8C00066D025285BD02D2801D10123641C0220DD
:10B8D0002178302907D10343641CF9E70A214A4340
:10B8E000303A8218641C2078014630390929F5D98C
:10B8F000C1B273290AD0642812D0782819D05828E8
:10B900001ED0752826D063282ED03DE0069802C8A8
:10B910000690002900D122A1304600F0A4F80DE0E5
:10B920006120019302900698009202C801230690BC
:10B9300018E0612005E0304600F04CF8451923E09E
:10B9400041200193029000920698002302C8102221
:10B950000690F0E76120019302900698009202C8D9
:10B96000002306900A22E6E7069869468446007896
:10B9700008736046001D06904F7303A9CCE7C1B25F
:10B98000304600F011F86D1C641C2078002890D11E
:10B99000002E01D030680770284607B0F0BD0000C7
:10B9A000286E756C6C290000C9B2002805D00268A9
:10B9B00011700168491C01607047044A108878289A
:10B9C000FAD2034B1954401C108070473ACD002026
:10B9D00078030120FFB5002783B00C9E3D46081E6A
:10B9E0003A4605D0002B13D0059B0A2B0CD00FE054
:10B9F0003021684601704270324669460D9B0398BB
:10BA000000F031F807B0F0BD002901DA012740420B
:10BA1000694602ACCA7203340AE00599FCF7E2FCFD
:10BA20000A2902DB0E9A89183A393031641E2170D6
:10BA30000028F2D1002F0ED0002E09D00D988007DB
:10BA400006D52D210398FFF7AFFF6D1C761E02E08F
:10BA50002D20641E2070324621460D9B039800F075
:10BA600002F84019CEE7FFB50026202781B0144622
:10BA70000D46002A0FDD0021284601E0401C491C2C
:10BA80000278002AFAD1A14201DB002400E0641A06
:10BA9000980700D53027D80706D00DE03946019821
:10BAA000FFF782FF641E761C002CF7DC04E001988F
:10BAB000FFF77AFF6D1C761C29780029F7D105E085
:10BAC00039460198FFF770FF641E761C002CF7DCE6
:10BAD000304605B0F0BD0000F0B5002287B00092FE
:10BAE00010292AD80A46014601A8FCF76DFB694CCB
:10BAF00068460079E51D664FF93501280BD001A98C
:10BB000002284AD004287DD005287CD0052020704A
:10BB10000146FF20B8E02078012875D168464079B9
:10BB2000102813D9062000F01FFA2079002806D02B
:10BB300001202070002060716F6107B0F0BDFF220E
:10BB4000193200215348FCF757FBF6E70220524E0A
:10BB5000E071307860704F480830FFF791FD0220A7
:10BB600020706846407960714A48FF220132002106
:10BB70000C306F61FCF740FB1020708068468079C4
:10BB8000002800D070806078002803D1A068FFF7FB
:10BB900011FD00908120009976E0684646793D4885
:10BBA0003201141800780C34022868D1881CFCF784
:10BBB000C3FA01026846407A090A0006014302A856
:10BBC00002302160FCF7B8FA01026846407B090A9E
:10BBD0000006014303A802306160FCF7ADFA0102E0
:10BBE0006846407C090A000601436846A160408A15
:10BBF000A081204600F01EFD002814D02548032116
:10BC0000017002E011E019E039E086710020E8607F
:10BC10006F6125222861D202FF211D48FCF7ECFA52
:10BC20000021842030E0062026E0BFF34F8F1C491E
:10BC30001A48C860BFF34F8F00BFFDE72078022885
:10BC40001DD1607800281AD00E46481CFCF774FA03
:10BC500004026846007A240A00060443701DFCF7BB
:10BC60006BFA01026846007B090A00060143204680
:10BC7000FFF7C6FC002805D0FEF7B8FF5DE7FEF72A
:10BC8000D1FF5AE70021892000F05CF955E7000058
:10BC90000050FF1F98000120F8CC00200400FA0596
:10BCA00000ED00E010B5054A1278032A02D0FEF735
:10BCB000B9FF10BD00F004F810BD0000980001208D
:10BCC000F3B5284C81B0E51FF93DA979E668090173
:10BCD0004F1961690C378B1901461846029AFCF717
:10BCE00073FA02983618B868B04201D2652033E082
:10BCF000E66020691C4A311A6888528850438142A4
:10BD000008D10021872000F01DF9E06820617D2026
:10BD1000400101E07D20C00000F0AEFBB868B042F9
:10BD20001CD1124E02213078FCF7E6FB022130785C
:10BD3000FCF786FAA8796169000145196A69002053
:10BD4000FCF7E0FB298B814201D0662004E000F083
:10BD50006BFB002803D06A20FEF748FFFEBDFFF70B
:10BD600033FDFEBD98010120F8CC002001CD00205C
:10BD700010B502780F491300FCF72CFA0709050AE1
:10BD8000090F1618090041784068FFF7A5FE10BD9D
:10BD900041784068FFF786FF10BDFF22193200216D
:10BDA0000448FCF729FA10BD012000E000200870CB
:10BDB000087110BD9800012070B5164C144DE06953
:10BDC00040084000E0610620FDF7A4F91148403822
:10BDD000826980210A438261E26901231A43E26198
:10BDE000A26A920503D42A466D1E002AF8DC002DB3
:10BDF00007DB226A7E23D60B82691E409A433243B8
:10BE0000826182698A4382613006400E70BD000003
:10BE1000983A000040F00040FFB581B00D4606465C
:10BE200010240C4F0CE0FFF7C7FFB04208D2A84225
:10BE300006D90499039800F00FF8C019C72804D355
:10BE40002046641EE4B20028EDD11020001BC0B2D1
:10BE500005B0F0BD21F1FFFFF0B5002591B00E4611
:10BE600007462C460BE01020FDF754F91448406AB1
:10BE7000A2008104890C6846641C8150E4B2BC4273
:10BE8000F1D339466846FDF776F90E4A002057424D
:10BE90006C460EE081006358934201D9D91900E045
:10BEA000D11A642902D9002011B0F0BD5D19401CDF
:10BEB000C0B2B042EED331462846FCF793FAF3E71E
:10BEC00040F00040420F0000F8B50C4D0C4E00242D
:10BED000A000401901686846FDF79CF9022805D0CA
:10BEE000002C02DD012800D10320F8BD321969467B
:10BEF0000978641C5170402CEADBF8BD0008001181
:10BF000088040120F8B500240C4D0D4F0526A00033
:10BF1000401901686846FDF77DF9022805D0002C1C
:10BF200002DD012800D10320F8BD321B6946D21979
:10BF30000978641C5170062CE9DBF8BD000900117A
:10BF400051CD002030B5BFB00D460446F822002187
:10BF50006846FCF751F9022168468170C57004718A
:10BF6000FFF750FA3FB030BD10B5BEB00446F8221E
:10BF700000216846FCF740F9012168468170C470D1
:10BF8000FF210171FFF73EFA3EB010BD10B500F081
:10BF900011F800F0C9F9064A0121582000F03CF9D7
:10BFA0000423082219463820FFF736FF10BD000091
:10BFB000F812FF1FF8B52F4803782F4C16221B21CB
:10BFC000204600F063FA032311221221204600F0DC
:10BFD0005DFA241D062316221A21204600F056FA87
:10BFE000032312221321204600F050FA2348007840
:10BFF000032828D0002319221A21204600F046FAEF
:10C000000B2304220721204600F040FA1C4E33780F
:10C0100016221721204600F039FA1B4D1948E86016
:10C0200042152A61194868611949A961164C4034C2
:10C030006260A060E160144F1648403F386030787D
:10C04000012802D00BE00323D5E70022012311468B
:10C05000384600F01BFAFF204130286160600E482E
:10C0600000780E49C006C00B4018B8630C48E86160
:10C07000F8BD0000DC12FF1F40F00040E312FF1F7C
:10C0800050CD002020010020C0000340A403B000D8
:10C0900000008A04242D0000E112FF1F2508000083
:10C0A0002FFF260070B530492F4A4039002825D08F
:10C0B000022823D08B1513625A020A612B4A0A63A5
:10C0C0002B4A127801231B03D2184A612649264CB9
:10C0D000C039803C002815D06522264DD202264B5F
:10C0E000012819D002281CD0244E80190860244849
:10C0F00048602260A560E360224819E08023136253
:10C10000DA02DAE7204808600020A0601F482060BB
:10C110001F48E0601F480BE01F480860A5602260D0
:10C12000E9E71D48401C0860A5602260E3601B48E9
:10C1300020610D48FF2300220721B43800F0A6F942
:10C14000174860611748A0611748E06117482062EE
:10C15000174860621748A0621748E06217482063DA
:10C160001748606370BD0000C00003400300000179
:10C17000DD12FF1F55555537D6BE898E00800698B3
:10C18000545A9850805508220080067800280B00E9
:10C1900007EE753680660822018006428045082237
:10C1A000A49C5C544C0C0403025A544E483C363355
:10C1B0002D007F5D57514B453C363056504A443E2A
:10C1C000322C262010B5FFF7F5FE0448007800F069
:10C1D00009F803480078FFF765FF10BDE112FF1F63
:10C1E000E212FF1F10B5044609483F2C0DD00D2365
:10C1F0000F22122100F04AF90648816BE206090578
:10C20000090DD20B1143816310BD0823F0E7000034
:10C2100014F0004080000340F0B5364C666AA56A11
:10C2200000236362A362344C60630E202062636269
:10C230004020A0625020E0622A2060622E484030F8
:10C24000012926D0802101622C49FF232A48A533E9
:10C25000403083602A4B4360274B2A48403B18619B
:10C260007D20C000401EFDD2274889050F182248B6
:10C2700040388763244B5B1CC918816324492348D9
:10C2800009780B00FBF7A6FF070B0B100D0F100B27
:10C290001000FF210131016218498331D5E71D48A3
:10C2A00002E01D4800E01D481D491160124940315F
:10C2B00003E0CB6ADB439B0F11D0401EF9D20E483E
:10C2C000403887630020A062E0628860606220627C
:10C2D000FF2041306062074846628562F0BDC86A4F
:10C2E000104B1840106010680122000C12048018D6
:10C2F0004860E4E70010034080000340CA020000E9
:10C300002020000080560C206465210010270000CA
:10C31000E312FF1F204E000030750000409C00001B
:10C3200000002020FFFF3F3F00B50021022000F069
:10C3300021F80C49801C08700021422000F01AF8F6
:10C340000949801C08700121022000F013F80749F8
:10C35000801C08700121422000F00CF80449801C68
:10C36000087000BDDD12FF1FDE12FF1FDF12FF1F6E
:10C37000E012FF1F30B51D4C1B4A22601B4A4032A1
:10C38000012914D01A49D16050630E201062002197
:10C390005162FF20153050621648057816482B0070
:10C3A000FBF718FF070A0A070C0E0F0A0F001349C4
:10C3B000E9E71148401E04E0114802E0114800E09E
:10C3C0001148401EFDD209488030406B5162000286
:10C3D000000E11620D49D160FF214131516265218A
:10C3E000C902216030BD000010000300400003407E
:10C3F0007F407200E312FF1F0F2700007F405200B2
:10C40000204E000030750000409C000040401000AD
:10C4100010B572B6FFF732F9002801D005F09AFF87
:10C4200062B6002010BD00007FB5114C6078002876
:10C4300002D0002004B070BD6846FCF7F7FF00286A
:10C44000F8D0A0790B4D0001041961690C346869BA
:10C4500000F026F9002808D0A2680020121FA26070
:10C460006969FCF74FF8A081E3E76A20E2E7000082
:10C470009800012098010120024610B502480221CF
:10C480000078FBF7D7FE10BD01CD0020F0B50468A1
:10C490000025ED439340012704E03E469640B54316
:10C4A000521CD2B28A42F8D92C401C430460F0BD21
:10C4B000F8B50022164E164D164B403E009204E091
:10C4C000009C671C00979C421BDCEC6BE407F7D1D7
:10C4D0000BE0009C651C00959C4212DC347DA40698
:10C4E000F7D504783470401C00920C46491E89B27E
:10C4F000002C0092F2D106E00098411C0091984275
:10C5000001DD0D20F8BD307D4006F5D50020F8BDD9
:10C5100040400040A086010070B51D4C0D1E08D0A3
:10C52000002806D02178002908D0012903D0112045
:10C5300070BD062070BDE188A94201D2032070BD04
:10C54000A36801462A461846FBF7D2FDA5800020C5
:10C55000608002222270A188A568102900D91021CC
:10C560000C4843689343436004E063885E1C668024
:10C57000EB5C03700B46491E89B2002BF5D1416874
:10C58000114341600820FEF71BF9002070BD000038
:10C59000F403012000400040F8B5224DFCF77AFE7C
:10C5A00007460820FCF76CFE0820FCF779FE287887
:10C5B0000821FDF7B9FF68780921FDF7B5FF1A4C8E
:10C5C00000262673696838114A088018FBF70AFFAD
:10C5D000266180212173020A2271207003202073BA
:10C5E000287A002802D08722227200E026720122D7
:10C5F0006260002802D0606808436060A87A002862
:10C6000003D0606802210843606001200749C0022E
:10C610000860074801680902090A0207114301601E
:10C62000F8BD0000000401200040004000E100E0EF
:10C6300008E400E010B5164989224B7852050168DC
:10C64000002B0AD000291FD1416880680818904249
:10C650001AD81048814217D318E043688B4207D19B
:10C66000EF20000608180121490588420CD20DE090
:10C67000094C1B19094CA34206D211231B068068E2
:10C6800019430818904201D9002010BD012010BDA7
:10C690009800012000300011000001E00128020094
:10C6A00030B585B005460C4601A8FCF7BFFE002852
:10C6B0000AD000202B190090221F294601A81B1F19
:10C6C00005F052FD05B030BD0120FBE770B594B018
:10C6D000442200216846FBF78FFD1348134A447932
:10C6E00000948168914201D1012100E00221019171
:10C6F00000210291491E039100216D460BE00B01C0
:10C700001A185B19D6681E6116695E6156699E61CA
:10C71000128B491CDA618C42F1DC21012846103170
:10C72000FEF7DCFF14B070BD98000120002001115D
:10C730000A18232A242A252A262A272A282A292AA7
:10C740002A2A502A0200000030C700204D6F64657D
:10C750006C204E756D6265720053657269616C2064
:10C760004E756D626572004669726D776172652003
:10C770005265766973696F6E0048617264776172A1
:10C7800065205265766973696F6E00536F667477C2
:10C79000617265205265766973696F6E004D616ED6
:10C7A000756661637475726572204E616D6500FE19
:10C7B000006578706572696D656E74616C0000006B
:10C7C000B9920020000000000000000002000000FC
:10C7D0001A7C010000000000E1A000200000000021
:10C7E00002000000187C010011A100202DA20020F1
:10C7F000000000000D18372A382A392A02000000EC
:10C80000F4C7002023F16E53A422426191518B9B07
:10C8100001FF335823F16E53A422426191518B9B47
:10C8200002FF335823F16E53A422426191518B9B36
:10C8300003FF335823F16E53A422426191518B9B25
:10C8400004FF33581000000004C80020B1B40020D9
:10C85000D9B4002000000000000001CC01D8001471
:10C8600001F0003C002801E401A0006C007801B454
:10C870000050019C01880044DD5F000099300000F9
:10C88000293800003116000035200000C57A00006C
:10C89000798600205D8B0020FDB10020090000009A
:10C8A000090AFFFF00C201000100000000000000B3
:10C8B0000300000000000000000000005048592B59
:10C8C00036325858504C5553303530340000000043
:10C8D00040C9002058CD002064010000589100207C
:10C8E00058CD002040C900201804000070810020AD
:10C8F0000050FF1F58CD0020540200005891002026
:10C9000058CD00200050FF1F00280100708100203A
:10C91000000CFF1F58CD00200C0000005891002093
:10C9200058CD0020000CFF1F000400007081002083
:10C93000A4CA002058CD0020783F00006891002054
:10C940003202240104059310012914141C7C0129CE
:10C95000121344C72A20105A22104B40C9101A3211
:10C960001829105A4B1069204B84CA105A3420DA07
:10C970004C405A85205A3620DA59205A86205A3897
:10C9800020DA67205A87205A3A20DA79205A8820FC
:10C990005A3C20DA8B205A89205A3E20DA9D205AB0
:10C9A0008A205A4020DAAF205A8B205A42201B445A
:10C9B000C9105901021BFF29345A1C44DACC546AAD
:10C9C000E8D41910A9301A281032031AA020B22076
:10C9D00012502AA036AA0354DAE0544B6CCB105AFA
:10C9E00030101240BA01205A6D205A32105AEC848D
:10C9F00069205A6E205A38102AF4201302022A01A4
:10CA000091715C3075FFF312062B800C92012404A7
:10CA10001C0201063A10FBC93299E8DAFCE85AD147
:10CA2000A81AF618415AD2101A2820298F5ADC1059
:10CA300069305AD3101AF8302910DAD4204B64CC5C
:10CA4000105AFA681AD5201B0808960A180494CBC5
:10CA500044C8441A654432105A14185A665469205E
:10CA60005A67201A242029105A682069B4DA7030D5
:10CA70005A69305A34501A6A10212912614B45B351
:10CA8000FC8012020106090950506C75734F544125
:10CA90000BFF04056914F1295C411E40787D01BC3F
:04CAA0005C69D841B4
:020000042001D9
:1020000003B40148019001BDD500000070B5002562
:10201000544E356005782D0646783604354386786B
:1020200036023543C67835434E4EF562001D0578BD
:102030002D06467836043543867836023543C67811
:102040003543484EB562001D05782D0646783604A6
:102050003543867836023543C6783543414E75623E
:10206000001D05782D0646783604354386783602FD
:102070003543C67835433B4E35620D782D064E7894
:10208000360435438E7836023543CE783543354EA7
:10209000F563091D0D782D064E78360435438E788C
:1020A00036023543CE7835432E4EB563091D0D7883
:1020B0002D064E78360435438E7836023543CE7879
:1020C0003543284E7563091D0D782D064E7836046C
:1020D00035438E7836023543CE783543214E35630D
:1020E000F1252D01756001253560142400BF2546BA
:1020F000641E002DFBD11B4D4035EB691D0E157084
:102100001D022D0E55701D042D0E9570D370121DDD
:10211000144D4035AB691D0E15701D022D0E557006
:102120001D042D0E9570D370121D0E4D40356B6938
:102130001D0E15701D022D0E55701D042D0E95706F
:10214000D370121D074D40352B691D0E15701D02F1
:102150002D0E55701D042D0E9570D3700025014E67
:10216000356070BD00000440FFB59FB015460024E7
:1021700000201E9028460F30C117090F09180E11B4
:10218000701E00012F1A00200190022118A8017270
:10219000622110A8017600BF0AE01F98015D1AAA0B
:1021A000601C11541F98015D16AA601C1154641C18
:1021B0000D2CF2DB2846E917090F09180911FF2237
:1021C000120211400A1218A98A71E917090F091899
:1021D00009050A0E18A9CA7100246CE02898002885
:1021E00001D102A802E02101289808180090474870
:1021F000844202D11E98401C1E9001980D3080B27E
:102200000190FF21090201980840011218A8817568
:102210000198C1B218A8C1750EAA1AA93C48006855
:10222000FFF7F4FE701EA04207DD2201209811186E
:102230000EA8009A00F081F828E0002006E02101B5
:102240000A182099895C0AAA1154401CB842F6DB8E
:10225000384603E000210AAA1154401C1028F9DB7B
:1022600006AA0AA90EA800F068F8002004E006A952
:102270000A5C00990A54401CB842F8DB384603E077
:10228000002106AA1154401C1028F9DB12AA16A935
:102290001F480068FFF7BAFE701EA04205DD16AAAF
:1022A00012A8009900F049F804E016AA06A912A89D
:1022B00000F043F8641CB44290DB12AA16A914483B
:1022C0000068FFF7A3FE002118A88175C1750EAA4A
:1022D0001AA90F480068FFF799FE2298002802D13A
:1022E000012023B0F0BD00240BE012A8015D0EA870
:1022F000005D41402298005D814201D00020F0E75E
:10230000641C042CF1DB0120EBE70000CF09000086
:1023100048CD002078B504460D46164600232A46CF
:10232000214602480096FFF71FFF78BDE0270120F5
:1023300010B50020F7F77AF810BD30B5034600203D
:1023400004E01C5C0D5C6C401454401C1028F8DB4D
:1023500030BD000010B508484068FFF751FE10BDC1
:1023600010B572B600F03DF8002801D1FFF7F2FF7A
:1023700062B6002010BD00000048FF1F70B515E0D8
:1023800003070D78DC0E534B060928071C5BC00EB3
:10239000185A664070400407E40E1E5B04092809C1
:1023A0004000185A74406040491C521E002AE7D170
:1023B00070BD03460B4310B513439B0701D00C209F
:1023C00010BD454B454CCB18A34201D3102010BD86
:1023D000002302E0CC581B1D10C09342FAD300200A
:1023E00010BDF0B58BB000203B4906900890042248
:1023F000494206A8FFF7DDFF0698411C12D00428C9
:102400000DD800280BD00422354908A8FFF7D1FFCA
:102410000898022808D0012808D0002806D0682093
:102420000BB0F0BD6720FBE72E4D00E02E4DFFF70F
:102430007FFF012402270A9046E029482601001F59
:102440003118042207A8FFF7B4FF254804223118E9
:1024500002A8FFF7AEFF22480422001D311868468B
:10246000FFF7A7FF1E4804220830311809A8FFF71C
:10247000A0FF07990298884201D10A20D0E70A9A62
:10248000002A0FD049190020009AFFF777FF099919
:1024900089B2814213D10798029A40190099FFF737
:1024A00039FF10E04919009AFFF783FF0020009AD6
:1024B0000299FFF763FF099989B2814203D00B4863
:1024C0004763F6F7BDFD641C0698401C8442B4D3F4
:1024D0000020A5E758C800200070FFEEFF6F1F0026
:1024E00004900011002003110020011100F00040B1
:04000005200080C196
:00000001FF
