:020000041103E6
:1020000003B40148019001BD6D9CFF1F03B401485A
:10201000019001BD7153FF1F03B40148019001BD40
:10202000DDACFF1F03B40148019001BD351800006D
:1020300003B40148019001BD9157FF1F03B401484B
:10204000019001BD3914000003B40148019001BDA5
:10205000B151FF1F03B40148019001BD4961FF1F49
:1020600003B40148019001BD2161FF1F03B4014881
:10207000019001BD955BFF1F03B40148019001BDB4
:102080009951FF1F03B40148019001BD0D9CFF1F32
:1020900003B40148019001BDA5ACFF1F03B4014882
:1020A000019001BDD966FF1F03B40148019001BD35
:1020B0003D42010003B40148019001BDF13E010021
:1020C00003B40148019001BD1B3D010003B4014868
:1020D000019001BDE55AFF1F03B40148019001BD05
:1020E000D552FF1F03B40148019001BD9D67FF1F3A
:1020F00003B40148019001BD8B4AFF1F03B401489E
:10210000019001BD5D8FFF1F03B40148019001BD27
:102110009502000003B40148019001BD758CFF1FBA
:1021200003B40148019001BD918CFF1F03B4014825
:10213000019001BD4D8EFF1F03B40148019001BD08
:10214000318DFF1F03B40148019001BDC58DFF1FF4
:1021500003B40148019001BD998DFF1F03B40148EC
:10216000019001BD218EFF1F03B40148019001BD04
:10217000B142010003B40148019001BDD542010004
:10218000002805DBC206D20E01219140014A1160F0
:102190007047000000E100E010B5002819DB1A4A82
:1021A00003231B02D21883089B00D2588307DC0E3E
:1021B000FF23A3409A438B071B0E8407E40EA34022
:1021C0001A43114B032424021B198408A4001A513A
:1021D00018E00E4A03071B0F083B9B089B00D258D0
:1021E0008307DC0EFF23A3409A438B071B0E840753
:1021F000E40EA3401A43054B0407240F083CA4082F
:10220000A4001A5110BD000000E100E01CED00E048
:102210001CB5044621463FA0FFF7F2FE052C04D171
:1022200041494248FFF7F2FE71E041480078052835
:102230002CD1052C2AD00120019001213A48008898
:10224000FFF7EAFE042C0CD120210820FFF7EAFE5C
:1022500020210920FFF7E6FE36490020FFF7E2FEC5
:102260000DE0192189010820FFF7DCFE1921890101
:102270000920FFF7D7FE00210846FFF7D3FE01AA89
:1022800001212A480938FFF7D3FE40E028480078AA
:10229000022825D1032C23D127480078002803D019
:1022A00000202549087032E00820FFF7C7FE2028EB
:1022B0002DD101200190192189010820FFF7B2FEDC
:1022C000192189010920FFF7ADFE00210846FFF71B
:1022D000A9FE01AA012115480938FFF7A9FE16E059
:1022E000012C14D16946C1208000FFF78FFE68469B
:1022F0004179C17101798171C17841710021017108
:10230000C1706A4608210020FFF79EFE00BF084802
:1023100004701CBD577269737447617053746174A3
:102320006543423A2025640022B6FF1F0E030000D9
:10233000F9B5FF1F3075000024B6FF1F30B58BB014
:1023400004464648047046A0FFF75AFE00F090FD90
:1023500001210A9107210991002108910791C821C3
:102360000691C9000591012104917D21C9000391C5
:1023700040A103C90291019001AA06213F48FFF73D
:1023800057FE09AA0121C3208000FFF751FE0AAAC7
:1023900001213A48801FFFF74BFE08AA0221374867
:1023A000401FFFF745FE364A0B216120C000FFF7B2
:1023B0003FFE344A07213148001FFFF739FE07AAC4
:1023C000012131200001FFF733FE06AA02212B482C
:1023D000801DFFF72DFE05AA02212848C01DFFF72A
:1023E00027FE04AA022125480830FFF721FE03AA90
:1023F0000221C5208000FFF71BFE234A1521002083
:10240000FFF728FEFF25913529460620FFF70AFE33
:1024100029460720FFF706FE29460820FFF702FE9F
:1024200029460920FFF7FEFD0020C043FFF718FEF4
:102430000020C043FFF71AFEFFF71EFEFFF722FE43
:102440001248FFF725FEFFF729FE01210348007817
:10245000FFF72AFE00F0B8FB0BB030BDF8B5FF1F48
:102460000A0A0A6170705772697374496E69740A56
:102470000A0A000001020304050600000B03000025
:10248000FAB5FF1F05B6FF1F0CB6FF1F5D2E031127
:1024900070B506460C460120C0032040002810D02D
:1024A0001B480078FFF706FE051E05D0284600F001
:1024B00035F82846FFF704FE20460121C9034840AD
:1024C00070BDE007C00F002809D01248FFF7FEFDDD
:1024D0001148FFF701FE204601214840F0E70420A3
:1024E0002040002805D0FFF7FDFD2046042148408C
:1024F000E6E7012040022040002806D000F04AFC18
:102500002046012149024840DAE70020D8E70000D0
:10251000F8B5FF1F28B6FF1F7C2F0311704700007E
:1025200010B502460B46122A01DB052010BD1248E9
:10253000816B0120904001430F488163416B012072
:1025400090400C46844321460B484163C16B002BED
:1025500003D101209040014304E0012090400C464B
:10256000844321460448C163016B0120904001432C
:10257000014801630020D9E70080004010B5024601
:10258000042A11DA002907D0134840690123934037
:102590001843114B58611CE00F48406901239340D8
:1025A00098430D4B586114E0002909D00A4840694E
:1025B0001346123B01249C402043074B586108E01E
:1025C000054840691346123B01249C40A043024B3E
:1025D0005861002010BD00000038004070B5002494
:1025E0001BE00F48005D022807DDE0B200F0C8F9EB
:1025F0000546E0B2294600F0F1F9232C0CDA084830
:10260000005D022808DDE0B200F0BAF90C21614358
:10261000034A233289184870641C232CE1DB70BD07
:102620000DD4FF1F10B502211020FFF7B5FD1020BB
:10263000FFF7A6FD00240CE00C2060430649085C6F
:10264000002805D0E0B200F031FAE0B200F078F8EE
:10265000641C232CF0DB10BD30D4FF1FF3B581B018
:102660000646234D002440E00120A04030400028D1
:102670003AD00120A04002990840002801D1012051
:1026800000E000200746E0B2394600F033F80C20A5
:10269000604340194068002810D00C206043401966
:1026A000806800280AD0002F01D1012000E000201E
:1026B0000746E0B23946FFF733FF14E00C206043D1
:1026C00040194068002804D0E0B20021FFF728FF3D
:1026D00009E00C20604340198068002803D0E0B274
:1026E0000121FFF71DFF00BF641C122CBCDBFEBDE7
:1026F00030D4FF1F70B504460E46104D0C206043C9
:1027000040194068002808D0002E06D10C206043F4
:1027100040194268204690470EE00C206043401963
:102720008068002808D0012E06D10C206043401993
:10273000012182682046904770BD000030D4FF1F01
:1027400070B50446204600F01BF90546002D01D166
:10275000012000E0002006460C2060430449401898
:102760004078A84203D031462046FFF7C3FF70BD32
:1027700030D4FF1F70B50548C56B0448403004686D
:10278000C46029462046FFF769FF70BD0080004005
:1027900070B506460C4630460B38012181400D4687
:1027A000002C0DD00021304600F036FB00213046D1
:1027B00000F0BAF80648006828430549086004E0BC
:1027C00003480068A84302490860002070BD00006B
:1027D0000038004030B50246D406E40E0120A04087
:1027E000034600290BD0501180000B4C0019C06823
:1027F00018435411A400084D6419E0600AE0501118
:102800008000054C0019C06898435411A400024D83
:102810006419E060002030BD0038004030B5044647
:102820000D4601212046FFF7D5FFA01080000A4980
:1028300040188069A107CA0EFF2191408843A10773
:10284000CA0E294691400843A1108900024A8918FE
:102850008861002030BD00000038004010B51148EC
:102860000078002801D0072010BDFF21C9310D4894
:10287000FFF73EFC01200B49087000200A4908635D
:1028800048630A490862486202211020FFF784FC6D
:102890001020FFF775FC064A06490D20FFF72EFCB5
:1028A0000020E1E70CD4FF1F0080004080F00040D2
:1028B00025260311DD25031170B504460E46042CB0
:1028C00003DB222C05DC1F2C03DB01212046FFF754
:1028D00055FE00212046FFF77DFF122C0FDA01255F
:1028E000A540002E05D00F48406828430D49486098
:1028F00016E00C484068A8430A49486010E02046AA
:10290000123801258540002E05D00648006928436D
:102910000449086104E003480069A84301490861CB
:10292000002070BD00800040F3B581B00C46264603
:102930000A210198FFF7E8FB48000818451C012010
:10294000A840691C01228A401043C7430A2101980C
:10295000FFF7DAFB800009494018806807403046DD
:10296000A840384306460A210198FFF7CDFB8000B6
:102970000249401886600020FEBD000000F00040C3
:1029800030B50346122B0FDA01229A4012484468F0
:102990001440002C01D0016802E00F48403001696A
:1029A00008461040014610E01846123801228240C5
:1029B000094804691440002C01D0C16802E00648AF
:1029C00040304169084610400146002901D00120ED
:1029D00030BD0020FCE7000000800040F3B581B06E
:1029E0000C460A210198FFF78FFB48000818C6B271
:1029F0000121019800F0B4F80120B0400546002CF8
:102A000011D00A210198FFF77FFB80000F49401881
:102A100087682F430A210198FFF776FB80000B4956
:102A20004018876010E00A210198FFF76DFB8000D5
:102A3000064940188768AF430A210198FFF764FBF5
:102A400080000249401887600020FEBD00F0004071
:102A500070B505460E4601212846FFF72DFF122DC1
:102A60000FDA0124AC40002E05D00F480068204347
:102A70000D49086016E00C480068A0430A49086048
:102A800010E02846123801248440002E05D0064864
:102A9000C06820430449C86004E00348C068A043FC
:102AA0000149C860002070BD00800040F8B50446B0
:102AB0002A4D012600270C20604340194068002859
:102AC00007D10C20604340198068002801D11220F2
:102AD000F8BD122C04DB032120482338015503E004
:102AE00004211E482338015501210C20604329543C
:102AF00000212046FFF7E0FE0C20604340194068AB
:102B0000002815D00C2060434019806800280FD0A1
:102B10002046FFF735FF0746002F01D0012000E0D7
:102B20000020064631462046FFF7FAFC0020CFE79A
:102B30000C20604340194068002801D0002606E0C0
:102B40000C20604340198068002800D001263146DF
:102B50002046FFF7E5FC0020BAE7000030D4FF1F55
:102B600030B5C406E40E0123A3401A4600290BD059
:102B700043119B000A4C1B191B6A13434411A40008
:102B8000074D641923620AE043119B00044C1B1992
:102B90001B6A93434411A400014D6419236230BDA4
:102BA00080F0004070B504460D46022C01DC642D17
:102BB00001DD062070BD600002490D5200F026F8CC
:102BC0000020F7E7DEB6FF1F10B500200E49088091
:102BD0004880888000211F20FFF76EFE0021202002
:102BE000FFF76AFE00211720FFF766FE01211F2074
:102BF000FFF79AFE01212020FFF796FE0121172002
:102C0000FFF792FE002010BDDEB6FF1F10B554483E
:102C1000008853494988401851498988401800283C
:102C20006ED00020FFF776FA0020FFF779FA012036
:102C3000FFF770FA0120FFF773FA0120FFF76AFA35
:102C40000120FFF76DFAFFF771FA00211F20FFF74F
:102C500033FE00212020FFF72FFE00211720FFF771
:102C60002BFE01211F20FFF75FFE01212020FFF72F
:102C70005BFE01211720FFF757FE39480088002826
:102C80000FD000231A4606211846FFF755FA34489C
:102C9000018864220020FFF755FA1F210020FFF76A
:102CA00057FA2F48408800280FD000231A460621E3
:102CB0000120FFF741FA2A48418864220120FFF7EA
:102CC00041FA17210120FFF743FA254880880028A0
:102CD0000FD000231A4606210220FFF72DFA2048C4
:102CE000818864220220FFF72DFA20210220FFF7BD
:102CF0002FFAFFF733FA00F043F800F033F82DE035
:102D00000020FFF707FA0020FFF70AFA0120FFF77B
:102D100001FA0120FFF704FA0120FFF7FBF9012077
:102D2000FFF7FEF9FFF702FA00211F20FFF7C4FDAD
:102D300000212020FFF7C0FD00211720FFF7BCFD78
:102D400001211F20FFF7F0FD01212020FFF7ECFDFE
:102D500001211720FFF7E8FD00F012F810BD000078
:102D6000DEB6FF1F10B5044A01214902034800786E
:102D7000FFF7FAF910BD000030750000F8B5FF1F2D
:102D800010B50121490202480078FFF7F3F910BDA0
:102D9000F8B5FF1F10B500201749088048808880CB
:102DA000FFF7B8F90020FFF7BBF90120FFF7B2F9F0
:102DB0000120FFF7B5F90120FFF7ACF90120FFF77B
:102DC000AFF9FFF7B3F900211F20FFF775FD0021D0
:102DD0002020FFF771FD00211720FFF76DFD012175
:102DE0001F20FFF7A1FD01212020FFF79DFD0121FC
:102DF0001720FFF799FD10BDDEB6FF1F08B5054887
:102E0000009002E00098401E009000980028F9DC35
:102E100008BD00008813000030B5C406E40E01238D
:102E2000A3401A4600290BD043119B000A4C1B19E2
:102E3000DB6B13434411A400074D6419E3630AE0FC
:102E400043119B00044C1B19DB6B93434411A400FA
:102E5000014D6419E36330BD00380040012802D001
:102E6000022802D100E000E000BF00BF7047000070
:102E700070B5002525A0FFF7C3F801210F20FFF74B
:102E8000E7FD00243EE000210E20FFF7E1FD0121D7
:102E90000E20FFF7DDFDFFF7B1FF00210E20FFF749
:102EA000D7FD00210E20FFF7D3FD00210E20FFF7F4
:102EB000CFFD00210E20FFF7CBFD00210E20FFF7F4
:102EC000C7FD00210E20FFF7C3FD00210E20FFF7F4
:102ED000BFFD00210E20FFF7BBFD00210E20FFF7F4
:102EE000B7FD00210E20FFF7B3FD00210E20FFF7F4
:102EF000AFFD00210E20FFF7ABFD29460CA0FFF728
:102F00007FF8641C0A2CBEDB70BD00007768656E1C
:102F10002072756E20696E2052414D3A204750490B
:102F20004F20546F67676C65206361736500000014
:102F3000436E742025640A00000205070A0C0F1274
:102F4000131617191B1D202200010A0B040C020581
:102F50000D0E0603090F070801030406090B0D0EE9
:102F600010111415181A1C1E1F210001090A040B48
:102F70000C021011050D030E080F070600000000DB
:042F8000000000004D
:020000041FFFDC
:1008000000000000619AFF1FC4B0FF1FE8B0FF1F87
:10081000F4B5FF1F00000000000000000000000011
:1008200000000000000000000000000000000000C8
:1008300000000000000000000000000000000000B8
:1008400000000000000000000000000000000000A8
:100850000000000000000000000000000000000098
:100860000000000000000000000000000000000088
:100870000000000000000000000000000000000078
:100880000000000000000000000000000000000068
:100890000000000000000000000000000000000058
:1008A0000000000000000000000000000000000048
:1008B0000000000000000000000000000000000038
:1008C0000000000000000000000000000000000028
:1008D0000000000000000000000000000000000018
:1008E0000000000000000000000000000000000008
:1008F00000000000000000000000000000000000F8
:1009000000000000000000000000000000000000E7
:1009100000000000000000000000000000000000D7
:1009200000000000000000000000000000000000C7
:1009300000000000000000000000000000000000B7
:1009400000000000000000000000000000000000A7
:100950000000000000000000000000000000000097
:100960000000000000000000000000000000000087
:100970000000000000000000000000000000000077
:100980000000000000000000000000000000000067
:10099000B18FFF1F7590FF1F61A5FF1F00000000B2
:1009A0000000000000000000000000000000000047
:1009B0000000000000000000000000000000000037
:1009C0000000000000000000000000000000000027
:1009D0000000000000000000000000000000000017
:1009E0000000000000000000000000000000000007
:1009F00000000000000000000000000000000000F7
:100A000000000000000000000000000000000000E6
:100A100000000000000000000000000000000000D6
:100A200000000000000000000000000000000000C6
:100A300000000000000000000000000000000000B6
:100A400000000000000000000000000000000000A6
:100A50000000000000000000000000000000000096
:100A60000000000000000000000000000000000086
:100A70000000000000000000000000000000000076
:100A80000000000000000000000000000000000066
:100A90000000000000000000000000000000000056
:100AA0000000000000000000000000000000000046
:100AB0000000000000000000000000000000000036
:100AC0000000000000000000000000000000000026
:100AD0000000000000000000000000000000000016
:100AE0000000000000000000000000000000000006
:100AF00000000000000000000000000000000000F6
:100B000000000000000000000000000000000000E5
:100B100000000000000000000000000000000000D5
:100B200000000000000000000000000000000000C5
:100B300000000000000000000000000000000000B5
:100B400000000000000000000000000000000000A5
:100B50000000000000000000000000000000000095
:100B60000000000000000000000000000000000085
:100B70000994FF1F000000000000000000000000BA
:100B80000000000000000000000000000000000065
:100B9000000000006989FF1F000000000000000045
:100BA000000000000000000000000000A18AFF1FFC
:100BB0000000000000000000118AFF1F598AFF1F7B
:100BC0007527031100000000000000000000000075
:100BD0000000000000000000000000000000000015
:100BE0000000000000000000000000000000000005
:100BF00000000000A988FF1F0000000000000000A6
:0C0C000001FF01FF01FF01FF41000000A7
:020000041FFFDC
:1048000068E3FF1FD548FF1FDD48FF1FDF48FF1F7C
:104810000000000000000000000000000000000098
:10482000000000000000000000000000E148FF1F41
:104830000000000000000000E348FF1FE548FF1FE4
:104840000000000000000000000000000000000068
:104850000000000000000000000000000000000058
:104860000000000000000000000000000000000048
:104870000000000000000000000000000000000038
:104880000000000000000000000000000000000028
:104890000000000000000000000000000000000018
:1048A0000000000000000000000000000000000008
:1048B00000000000000000000000000000000000F8
:1048C0000348854600F0C6F9004800477D99FF1F60
:1048D00068E3FF1F0448804704480047FEE7FEE7FF
:1048E000FEE7FEE7FEE7FEE75563FF1FC148FF1F37
:1048F000F0B51FB40646002082B005464024019161
:1049000000901BE0019922460F46304600F017F94F
:10491000049A059B801A994110D3104619462246E5
:1049200000F0FDF8361A8F41019722460120002140
:10493000009F00F0F4F838184D4100902046641EA6
:104940000028DFDC019B00982946324607B0F0BD05
:10495000F0B51FB486B00020009001900290069838
:10496000069980B204900798090C020400141143C0
:1049700007900027089D099806913E463C46039003
:104980000398A9B20204000C039004982D0C15435F
:1049900048430021224600F0C2F8C7197141103483
:1049A0000E46402CECDB3846029A00F0B8F8009A2C
:1049B000019B80180090594102980191103002909B
:1049C0004028CCDB00980BB0F0BD000038B50446A1
:1049D000C0681821401E4843A16840183C21484344
:1049E000616840183C2148432168451860690C21E2
:1049F0004843216940186921C900401A302100F05C
:104A0000CDF9114A50434219084600921A2902DB97
:104A10000E49511800910C2100F0C0F90C4A504386
:104A2000009A801800900B4806E0491E425C074B34
:104A30005A43009BD21800920029F6DC21466846B2
:104A400000F096F8009838BD801F8607805101005D
:104A50008033E10170B1FF1F03460B439B0703D076
:104A600009E008C9121F08C0042AFAD203E00B7833
:104A70000370401C491C521EF9D27047D2B201E0AB
:104A80000270401C491EFBD270470022F6E710B5A9
:104A900013460A4604461946FFF7F0FF204610BDAC
:104AA00010B5002200E0521C835C8C5CA34201D153
:104AB000002BF8D1D8B2E1B2401A10BD70B5104D3C
:104AC000002800D12868002414E00A4602E09E4233
:104AD00003D0521C1378002BF9D1DAB2224307D04D
:104AE000002B06D0002C04D000210170401C04E0F3
:104AF0000446401C0678002EE7D12860204670BD91
:104B000008B7FF1F70B5064601F058FC046805465B
:104B10000A220021304600F065F82C6070BD10B507
:104B2000202A04DB0146203A9140002010BD91402C
:104B300020239C1A0346E3401943904010BD10B552
:104B4000202A04DB0846203AD040002110BD0B4645
:104B5000D340D0402024A21A91400843194610BDEA
:104B600010B5024900F004F810BD00003CDBFF1F47
:104B700070B50C4600683C2100F016F921603C211C
:104B800000F012F96160182100F00EF90546A160ED
:104B90000721001D00F008F9A1610F48A9000818BD
:104BA0000E4900F001F90246443288086261E06172
:104BB0003B2802D3910700D0401C0021084B0A4635
:104BC0002161995C814203D8401A521C2261F8E7A6
:104BD000401CE060204670BD6C0B0000B505000075
:104BE0007CB1FF1FF7B5009C0F4600262578641C9A
:104BF000002D05D000F040F80068405DC007F5D1F9
:104C00002B2D02D02D2D18D0641E39462046029A35
:104C100000F036F8002F04D03968A14201D1009984
:104C200039607105022400290BDA4042002803DDB7
:104C300001F0C4FB0460A007FEBD01208002064312
:104C4000E3E70028F8DA01F0B9FB04600048FEBD94
:104C5000FFFFFF7F064C0125064E05E0E36807CC09
:104C60002B430C3C98471034B442F7D3FFF72CFE8B
:104C700070B2FF1FC0B2FF1F004870470CB2FF1F89
:104C8000F7B582B0029C00272078641C1546019776
:104C9000302802D0002D15D015E020780127641CA3
:104CA000782804D0582802D0002D09D00BE0002D20
:104CB00001D0102D07D1002710252078641C02E0B8
:104CC000082500E00A250026009610E0009901273B
:104CD00069430818020C294680B2714300908E186F
:104CE0003804864201D3012001902078641C2946B3
:104CF00000F019F80028E9DA0398002805D0002F01
:104D000001D0641E00E0029C04600198002806D0D7
:104D100001F054FB02210160C81E05B0F0BD0099EE
:104D200030040843F9E73A2800D2303820230246FD
:104D30009A43412A01D310463738884201D30020D4
:104D4000C043704770B58C180578401C6B075B0F2B
:104D500001D10378401C2A1106D10278401C03E0DF
:104D600006780E70401C491C5B1EF9D12B0705D438
:104D70000023521E0DD40B70491CFAE70378401C27
:104D8000CB1A921C03E01D780D70491C5B1C521E4F
:104D9000F9D5A142D8D3002070BD000003B401486A
:104DA000019001BD9502000003B40148019001BDCE
:104DB0006902000003B40148019001BDC13C01003B
:104DC00003B40148019001BDED3C010003B401486A
:104DD000019001BDC93A010003B40148019001BD31
:104DE0005518000003B40148019001BD35180000BA
:104DF00003B40148019001BD7181000003B4014872
:104E0000019001BD3914000003B40148019001BDB7
:104E10001117000003B40148019001BDF13E0100EB
:104E200003B40148019001BD1B3D010003B40148DA
:104E3000019001BD7114000003B40148019001BD4F
:104E4000C131000003B40148019001BDB14201002D
:104E500003B40148019001BDD542010003B40148EB
:104E6000019001BDC912000003B40148019001BDC9
:104E70003D42010003B40148019001BD5D190000ED
:104E800003B40148019001BD593A010003B401483F
:104E9000019001BDC118000003B40148019001BD9B
:104EA0003515000003B40148019001BD4117000011
:104EB00003B40148019001BDE915000003B40148A5
:104EC000019001BD897B000003B40148019001BD40
:104ED000D520000003B40148019001BDA5E5000004
:104EE00003B40148019001BD3D1C000003B401481A
:104EF000019001BD0D1D000003B40148019001BDEA
:104F00008306000003B40148019001BD0143010084
:104F100003B40148019001BDE120000003B4014841
:104F2000019001BDF53C010003B40148019001BDB1
:104F30005D3F010003B40148019001BDDD21000087
:104F400003B40148019001BD5590000003B401482D
:104F5000019001BD7D3A010003B40148019001BDFB
:104F6000913F010003B40148019001BDA942010035
:104F700003B40148019001BDA52B031103B40148FE
:104F8000019001BDD527031103B40148019001BD73
:104F9000DD29031103B40148019001BD512A031119
:104FA00003B40148019001BD8129031103B40148F4
:104FB000019001BD9127031103B40148019001BD87
:104FC000B928031103B40148019001BD2929031137
:104FD00003B40148019001BD1910000003B4014859
:104FE000019001BDA53C010003B40148019001BD41
:104FF0003917000003B40148019001BD811700007A
:1050000003B40148019001BDD136000003B401484A
:10501000019001BD01E6000003B40148019001BD0B
:105020006D07000003B40148019001BDBD070000F9
:1050300003B40148019001BD891C000003B401487C
:10504000019001BDE907000003B40148019001BDD2
:105050003D07000003B40148019001BD211A000082
:1050600003B40148019001BD050E000003B40148DE
:10507000019001BD2D0E000003B40148019001BD57
:105080008922000003B40148019001BD610E0000B7
:1050900003B40148019001BD9D0E000003B4014816
:1050A000019001BDD50E000003B40148019001BD7F
:1050B000FD0E000003B40148019001BD610F000026
:1050C00003B40148019001BDED3A010003B4014869
:1050D000019001BD4F03000003B40148019001BDE0
:1050E0005D28031103B40148019001BD1D2803117F
:1050F00003B40148019001BDE997000003B40148E1
:10510000019001BD3D98000003B40148019001BD2C
:10511000E58D000003B40148019001BD497701000D
:1051200003B40148019001BD8D3C010003B4014866
:10513000019001BDE55B000003B40148019001BD91
:10514000E129000003B40148019001BD9937000036
:1051500003B40148019001BD5114000003B401489B
:10516000019001BD091F000003B40148019001BD79
:10517000A579000003B40148019001BD3D2303114E
:1051800003B40148019001BD4103000003B401488C
:10519000019001BDC91F000010B5034A1321034847
:1051A00000F01EFF10BD00004CB0FF1FD8B2FF1F63
:1051B000F8B504460D4616460027002C05D12A46B0
:1051C00031460448FFF7F6FD01E0022700BF00BFAB
:1051D0003846F8BDC1B2FF1FFFB58DB000200B905F
:1051E0000C900BAA0E990D9800F086F804460A2C34
:1051F0005EDA204602F0DBF80546344800780228E3
:1052000001D1012000E0002000902A462146109B99
:105210000F9802F04DF81422002106A8FFF7D0FDE8
:105220002146062251432431C8B206AA102104F0B7
:105230004BFC002815D11022FF2106A8FFF7C6FD60
:1052400000280ED12146062251432531C8B20AAAB0
:10525000042104F039FCE907C90F06AA0F98FFF7EB
:10526000BBFD21467031C8B202AA102104F02CFC0B
:10527000002813D102A802F0AEF800260CE0B0001E
:1052800002A947183888002804D0BA7839880F98BE
:1052900000F0F6FE701CC6B2042EF0DB022028409F
:1052A000002804D00A4801780F9800F0D3FE00BF10
:1052B0001098042806D105480078022802D10F98DA
:1052C00002F0C2F8002011B0F0BD000059B5FF1F78
:1052D00058B5FF1F10B5044605480460054801781D
:1052E0002620FFF77FFD0348007800F073FE10BD15
:1052F0006CB5FF1F58B5FF1FF8B506460F4614469C
:105300000A25002E06D0012E05D0022E11D0032E24
:1053100029D11BE000BF384601F0FAFF05460A2DEF
:1053200006DA002C04D0062239462046FFF742FD5B
:105330001AE0384602F004F805460A2D05DA002C7A
:1053400003D02146284602F015F80DE0384602F059
:1053500056F805460A2D05DA002C03D021462846CA
:1053600002F008F800E000BF00BF2846F8BD0000CA
:1053700070B505460C46002603200002281A0300DB
:10538000FFF736FD1D10141A20242A2E323940440E
:10539000484E52565A5E62666A6E72787C8090847D
:1053A000888C900045480078207084E010224449A1
:1053B0002046FFF7FFFC7EE0102242492046FFF71F
:1053C000F9FC78E040480068206074E006223F491C
:1053D0002046FFF7EFFC6EE03D48007820706AE061
:1053E0003C480088208066E03B4802783B492046E4
:1053F000FFF7E0FC5FE03A4802783A492046FFF7C1
:10540000D9FC58E038480078207054E037480078DC
:10541000207050E0062236492046FFF7CBFC4AE0D8
:1054200034480078207046E033480078207042E02D
:105430003248008820803EE03148008820803AE0F1
:1054400030480078208036E02F480088208032E005
:105450002E48008820802EE02D48008820802AE0F9
:105460002C480088208026E006222B492046FFF7A2
:10547000A1FC20E02948008820801CE02848008802
:10548000208018E027480088208014E02648007813
:10549000207010E02548008820800CE02448008817
:1054A000208008E0272D04DA2846FFF7A7FC20809B
:1054B00000E0022600BF00BF304670BDF2B4FF1FFF
:1054C0000ED2FF1F1ED2FF1FF4B4FF1FF8B4FF1F40
:1054D000FEB4FF1F00B5FF1F02B5FF1F03B5FF1F7E
:1054E00022B5FF1F2ED2FF1F23B5FF1F24B5FF1FBC
:1054F00025B5FF1F2BB5FF1F2CB5FF1F2EB5FF1FB6
:1055000034B5FF1F3CB5FF1F3EB5FF1F40B5FF1F61
:1055100042B5FF1F44B5FF1F36B5FF1F46B5FF1F3D
:1055200048B5FF1F4AB5FF1FF1B4FF1F30B5FF1F7D
:1055300032B5FF1F10B5044613480470002013490C
:105540000870401E124908800F480078FFF75CFC85
:10555000042010490870102200210F48FFF730FC8A
:10556000102200210D48FFF72BFC00200C49086099
:105570000C4908700C49087001200C490870002083
:105580000B49087010BD0000F0B4FF1FF1B4FF1FFD
:105590002EB5FF1FF2B4FF1F0ED2FF1F1ED2FF1F3A
:1055A000F4B4FF1F23B5FF1F24B5FF1F2BB5FF1F4A
:1055B0002CB5FF1FFEB506460C460120C003204057
:1055C000002810D047480078FFF724FC051E05D0BE
:1055D000284602F007F92846FFF722FC2046012161
:1055E000C9034840FEBD012080032040002804D0AC
:1055F0002046012189034840F4E7E007C00F002856
:105600003ED039480078002836D038480078052840
:1056100003D10320694608700CE0354801786846DC
:105620000170344801786846417006223249801C76
:10563000FFF7C0FB314801786846017230480178B5
:1056400068464172694627480078FFF7EFFB00285B
:1056500011D00720254908702A48006800280AD080
:10566000284800680068002805D0264800680168BE
:105670001E480078884700BF204601214840B1E716
:1056800002202040002816D01848007805280ED1A6
:105690001D480088FFF7D0FB1C480088002806D072
:1056A0001A48028802210F480078FFF7CBFB2046FA
:1056B0000221484096E704202040002806D0002020
:1056C00002F02CF92046042148408BE708202040B6
:1056D000002805D001F0D4FE20460821484081E78B
:1056E00000207FE7F0B4FF1FFEB4FF1FF1B4FF1FDF
:1056F00023B5FF1F24B5FF1F25B5FF1F2BB5FF1FC7
:105700002CB5FF1F50B5FF1F2EB5FF1F34B5FF1F6F
:10571000F8B504460D4617461E461748007805287A
:1057200001D01420F8BD062C23DB1920C0018442CF
:105730001FDA062D1DDB85421BDAFF20F53087427C
:1057400017DA0A2E15DB1920C001864211DA0B4840
:1057500004800B4805800B4807800B48068006989C
:1057600002F0DCF8042109480078FFF771FB002003
:10577000D8E71820D6E70000F1B4FF1F3EB5FF1FA1
:1057800040B5FF1F42B5FF1F44B5FF1FF0B4FF1F18
:10579000F8B506460C46154600200090BA48301869
:1057A0000300FFF725FB190E1924FD2D6A738DA741
:1057B000B3BFCAD6FDE2FCFBFAF9F8FDFDFDFDF72B
:1057C000FD00102C05D110222946B048FFF7F2FA4F
:1057D00001E01820009054E1102C05D11022294638
:1057E000AB48FFF7E7FA01E01820009049E1042CEC
:1057F00003D1A8492868086001E01820009040E122
:10580000012C37D1A44807782878A3490870002FC5
:1058100014D008460078002810D1A048007802284B
:1058200007D09E480078062803D09C4800780428BA
:105830001FD19B480078FFF711FB1AE0002F18D109
:1058400095480078002814D09448007801280BD09F
:1058500092480078032807D090480078052803D0A4
:105860008E480078042804D101218D480078FFF784
:10587000FBFA01E01820009003E1022C03D12888F4
:105880008849088001E018200090FAE01F2C14DC01
:105890001F2200218448FFF793FA224629468248B6
:1058A000FFF788FA814804707F4B224601217C482B
:1058B0000078FFF7DFFA009001E018200090E0E0A8
:1058C0001F2C14DC1F2200217948FFF779FA2246A9
:1058D00029467748FFF76EFA76480470744B0278D1
:1058E00000216F480078FFF7C5FA009001E018200A
:1058F0000090C6E0012C06D12878042803DC287823
:105900006D49087001E018200090BAE0012C06D122
:105910002878032803DC28786849087001E01820FB
:105920000090AEE0062C05D1062229466448FFF718
:1059300041FA01E018200090A3E0012C06D128785C
:10594000072803DC28785F49087001E018200090E0
:1059500097E0012C06D12878032803DC28785A49DF
:10596000087001E0182000908BE0022C19D12888E3
:105970005649088008460088002814D04748007817
:10598000052810D108460288022145480078FFF713
:1059900059FA08E04EE03EE030E020E010E003E09D
:1059A00062E0182000906CE0012C06D128780128D4
:1059B00003DC28784649087001E01820009060E078
:1059C0002888022C08D1062806DB1921C901884243
:1059D00002DC4049088001E01821009151E028884C
:1059E000022C08D1062806DB1921C901884202DCF5
:1059F0003949088001E01821009142E02888022CF2
:105A000006D1FF21F531884202DA3449088001E0ED
:105A10001821009135E02888022C08D10A2806DBDD
:105A20001921C901884202DC2D49088001E01821B2
:105A3000009126E02F78012C13D1012F11D10821DC
:105A400017480078FFF71CFA002807D101F066FF1D
:105A5000042113480078FFF7FBF904E016200090BA
:105A600001E0182000900CE0272E07DA022C05D167
:105A700029883046FFF7B6F9009001E00220009037
:105A800000BF00BF0098F8BDFFFCFFFF0ED2FF1F54
:105A90001ED2FF1FF4B4FF1FFEB4FF1FF1B4FF1F9F
:105AA000F0B4FF1F00B5FF1F03B5FF1F02B5FF1FB6
:105AB0002ED2FF1F22B5FF1F23B5FF1F24B5FF1FE6
:105AC00025B5FF1F2BB5FF1F2CB5FF1F34B5FF1FDA
:105AD0003CB5FF1F3EB5FF1F40B5FF1F42B5FF1F7E
:105AE00044B5FF1F10B5044606480078002807D1CA
:105AF000002C01D00448046001F0F8FE002010BD25
:105B00001120FCE7F1B4FF1F50B5FF1F10B5074887
:105B10000078052807D11322054801880548007838
:105B2000FFF7B4F910BD1220FCE70000F1B4FF1F2D
:105B30002EB5FF1FF0B4FF1FF8B507460C461E46F2
:105B400002252300FFF754F90A0F06080C090F0D70
:105B50000F0B0E0F002508E007E0002505E004E02C
:105B600003E002E001E0022500BF00BF002D0FD1DD
:105B700021463846FFF790F90546002D08D13046FA
:105B8000079A0699FFF78EF9FFF792F9FFF796F952
:105B90002846F8BD70B504460025E007C00F002870
:105BA00005D0044A0421044800F01AFA05462846A4
:105BB00070BD000060B0FF1F28B4FF1F10B5044681
:105BC0000F4804700F49104800F024F800200AE044
:105BD0000021C943C2000D4B99520021C200D218C6
:105BE0005160411CC8B20128F2DB012002F0E4FB45
:105BF00003480078FFF768F90548FFF76BF910BD17
:105C000008B4FF1F1EB4FF1FFFFF00000CB4FF1FEE
:105C1000D57AFF1F70B506460C46104886420ED155
:105C2000002009E00021C9438200A1520021820026
:105C300012199170411CC8B20228F3DB0CE0214616
:105C4000304601F0FAFE0546002D04D00020C04386
:105C500028800020A87000BF70BD0000FFFF00007A
:105C6000FFB581B00C4615461F46002000900A98EB
:105C7000002826D1022F21D12878697809024018FE
:105C800086B231460B988143002914D1E16801980E
:105C900000F092F9B04210D03246E168019800F06D
:105CA00025FA00900098002807D1618932460198B2
:105CB00000F0B0F901E08020009004E00D20009099
:105CC00001E00B200090009805B0F0BD70B50646CD
:105CD0000C460120C0032040002816D00C48007854
:105CE000FFF798F8051E0BD02878B02803D1284676
:105CF00002F004F800E000BF00BF2846FFF790F86C
:105D000020460121C903484070BD0020FCE7000087
:105D100008B4FF1FFFB587B00D461C46109E00203B
:105D200006900590287A10210840002814D0099880
:105D300001F078FE0746002F05D00A222946079871
:105D4000B847059001E00E2005900598002802D084
:105D500005980BB0F0BD00BF287802287ED1686896
:105D60000078696849780902401880B204902922B5
:105D700012020498811A904271D009DC8B49401AB2
:105D80000FD001280ED0022848D0032868D118E08F
:105D9000012966D002297DD003297CD00429F5D1C0
:105DA000C9E000BF1198002808D1EF68387830703A
:105DB0003A7820467968FEF7FDFF01E00B20059058
:105DC000D6E01198002826D101203070E8680078CC
:105DD00020706989491C88B20021FFF781F80746C5
:105DE000002F0FD031783878801C08183070B87ABE
:105DF000607078890012A0703A78E01C7968FEF72C
:105E0000D9FF07E03078001D307004220021601CAB
:105E1000FEF7D6FF01E00B200590A9E011980028BD
:105E200044D1E86800880190042030700198207007
:105E300001980012607003A90198FFF751F8074616
:105E4000002F29D0F868009002AB68468289584933
:105E50003846FFF74BF800280ED103E08AE039E01E
:105E600083E046E03B78022152487A68FFF744F825
:105E7000002801D1401E029000980078022808D125
:105E8000009802224168201DFEF794FF3078801CA4
:105E9000307003E00DE01EE0019802906846008932
:105EA000A070684600890012E07001E00B200590A8
:105EB0005EE0119800280AD1E968079800F07CF8A4
:105EC00007460220307027703812607001E00B2006
:105ED00005904DE000BF1198002807D1E9680888B7
:105EE0000221317020700112617001E00B200590D9
:105EF0003EE0E868FFF706F8C7B21198B84217DC31
:105F00001198B84201D1002709E012991198401860
:105F1000B84201DA129F02E01198381AC7B23770FE
:105F2000EA68119811183A462046FEF743FF01E04F
:105F3000072005901CE01198002813D1E86807217C
:105F4000317001782170417861708178A170418849
:105F50000912E1700179217181796171C188091299
:105F6000A17101E00B20059002E00120069000BF26
:105F700000BF01E0012006900698012813D109987E
:105F800001F080FD0746002F0AD012991198334680
:105F900022460191009029460798B847059001E0F4
:105FA0000E20059000BF0598D3E6000000280000F1
:105FB000FFFF00001E7C010070B505460E4631460D
:105FC000284601F03AFD0446002C01D0A07870BDAF
:105FD0000020FCE7014908707047000009B4FF1F6A
:105FE000FEB504460F461646002C0FD001946846B5
:105FF0000780FEF78DFF0546002D06D1002E04D048
:106000006089314602F0B0F9054600E002252846D5
:10601000FEBD0000F8B505460E4617460C48007850
:10602000FF2813D00A20FEF779FF0446002C0CD07D
:10603000B12020700020607020716580E68027818B
:10604000214603480078FEF76FFF00BFF8BD00004F
:1060500009B4FF1F70B504460D4608492046FFF7F6
:10606000ABFF064602203040002804D029462046D7
:10607000FEF760FF70BD0120FCE700001EB4FF1FAB
:106080007CB505460E461446684604712004010E90
:10609000684641710020022301AA3146009028463B
:1060A00000F001F87CBDFFB583B00D461E4602A985
:1060B0002846FEF715FF01900198002811D0684688
:1060C000008901F0FBFC0746002F08D00C98F3B2C2
:1060D0000090059A01990398B847044600E00E2401
:1060E00000E00124204607B0F0BD0000F8B50546E9
:1060F0000F4616463946284601F09FFC0446002C00
:1061000009D13946054801F098FC0446002C01D11C
:106110001120F8BD2580A6700020FAE7FFFF0000DF
:1061200070B504460025E007C00F002805D0044ADA
:1061300007210448FFF754FF0546284670BD0000BC
:1061400074B0FF1F80B4FF1FF8B506460C46154615
:1061500000273300FEF74CFE0805143C3C1C3C268F
:10616000313C152C0ADC162200211C48FEF728FEC3
:10617000224629461948FEF71DFE00E0182729E0AF
:10618000022C03D128881649088000E0182721E056
:10619000082C05D1082229461248FEF75DFC00E0D4
:1061A000182717E0012C06D10F492878CA69283131
:1061B00002F090FA00E018270CE0012C06D10A4901
:1061C0002878CA6B483102F085FA00E0182701E010
:1061D000022700BF00BF3846F8BD0000F8D1FF1FFE
:1061E00072B4FF1F76B4FF1F80B4FF1F10B50028E4
:1061F00019DB1A4A03231B02D21883089B00D258CA
:106200008307DC0EFF23A3409A438B071B0E8407F2
:10621000E40EA3401A43114B032424021B198408E3
:10622000A4001A5118E00E4A03071B0F083B9B08F5
:106230009B00D2588307DC0EFF23A3409A438B07B1
:106240001B0E8407E40EA3401A43054B0407240FDA
:10625000083CA408A4001A5110BD000000E100E0B1
:106260001CED00E010B5002819DB1A4A03231B02BD
:10627000D21883089B00D2588307DC0EFF23A3406B
:106280009A438B071B0E8407E40EA3401A43114B5D
:10629000032424021B198408A4001A5118E00E4A92
:1062A00003071B0F083B9B089B00D2588307DC0E9B
:1062B000FF23A3409A438B071B0E8407E40EA340E1
:1062C0001A43054B0407240F083CA408A4001A51E4
:1062D00010BD000000E100E01CED00E010B500285A
:1062E00019DB1A4A03231B02D21883089B00D258D9
:1062F0008307DC0EFF23A3409A438B071B0E840702
:10630000E40EA3401A43114B032424021B198408F2
:10631000A4001A5118E00E4A03071B0F083B9B0804
:106320009B00D2588307DC0EFF23A3409A438B07C0
:106330001B0E8407E40EA3401A43054B0407240FE9
:10634000083CA408A4001A5110BD000000E100E0C0
:106350001CED00E0014802490860704740787D016B
:10636000F8B6FF1FF8B506460027FEF7E9FD05461B
:106370000AE0FEF7E5FD0446AC4201D3601B02E0F3
:106380000348401B00190746B742F2D3F8BD00008E
:10639000FFFFFF000FB410B504A9074B02AA039832
:1063A00000F020F8044602A9002000F001F9204680
:1063B00010BC08BC04B01847B165FF1F0048704707
:1063C0000CB7FF1F02E008C8121F08C1002AFAD14B
:1063D00070477047002001E001C1121F002AFBD165
:1063E00070470000FFB58DB00F460546002606E059
:1063F00025280AD0109A0F9990476D1C761C287892
:106400000028F5D1304611B0F0BD00240121674AC3
:10641000009400E004436D1C2B780846203B984014
:106420001042F7D128782E2815D10420044368782B
:106430006D1C2A280AD101CF6D1C00900BE0009939
:106440000A225143303940186D1C009028780146CB
:1064500030390929F3D92878692843D006DC002887
:10646000D0D063280BD0642804D13BE073280FD030
:1064700075284CD0109A0F999047761C94E0387884
:10648000694608720020487202A80190012003E0CA
:10649000386801900020C0433F1D61070CD50024DF
:1064A00000E0641C00998C420FDA8442F9DB019908
:1064B000095D0029F5D108E0002400E0641C844255
:1064C000FCDB0199095D0029F8D1361907E0019834
:1064D00001990078491C0191109A0F999047641E08
:1064E000F5D261E00A20019001CF002802DA404293
:1064F0002D2102E0210504D52B216A4611720121CC
:1065000003E0E10701D02021F7E70C9104E00A2025
:10651000019001CF00210C910BA90B9108E001998A
:10652000FEF742FC0A460B993032491E0B910A7065
:106530000028F4D10B9803A9081A203001906007B5
:1065400001D5009801E0012000900199884203DD07
:1065500001460198081A00E000200024009006E09F
:1065600002A8109A005D0F999047641C761C0C9845
:106570008442F5DB04E0109A30200F999047761C96
:106580000099481E00900029F5DC08E00B980B9953
:106590000078491C0B91109A0F999047761C01992D
:1065A000481E01900029F1DC6D1C28E70928010034
:1065B0000A68531C0B601070704710B502211D2033
:1065C000FFF78CFE10BD0000FEB5044600271948F9
:1065D000192292010023056841682846FEF788F9D0
:1065E000009001A804F060FA12488068019988427E
:1065F00003D9114900984018009010490198FEF7FE
:10660000D3FB0099401800906846FEF7A9FA0746A8
:10661000387C401C2071B88A09494018E080387BDA
:10662000E070387AA0703879607038782070002077
:10663000FEBD0000E8DAFF1FC2F52800400600009A
:106640006C070000F1B584B001A804F02DFA04989D
:10665000FEF7BCF900260546294614A003F006FB08
:106660001921890100202C463746039102902046CB
:106670003946029B039AFEF76BF905460E463146F2
:1066800000220198281A9141094A03C20849019839
:10669000886008A003F0EAFA1021054803F004FC22
:1066A0000CA003F0E3FA05B0F0BD0000257800006F
:1066B000E8DAFF1F6170705F6461746574696D650D
:1066C0005F61646A7573745F626173656C696E653E
:1066D0003A0A00000A00000010B500F0C7F80248AE
:1066E00000F0DAFD10BD00003075000003B58FB07A
:1066F0002C2104A8FEF7C9F910A80078401E0890C4
:1067000010A840881649401A099008A8C07F079031
:1067100008A8807F069008A8407F059008A8007F01
:10672000049010A003F0A2FA08A8017F427F807FA6
:1067300001920291009008A8C37F10A802784188B6
:106740000DA003F093FA04A8FFF77CFF1021114875
:1067500003F0AAFB10A003F089FA002011B000BDDD
:106760006C0700000A6170705F6461746574696D24
:10677000655F7365743A0A0054696D65206973201A
:1067800025642D25642D25642C2025643A25643A42
:1067900025640A00E8DAFF1F0A00000008B500209F
:1067A0000090684604F080F90B48806800998842A0
:1067B00008D90948016840680122091C5041064A6D
:1067C00011605060044900988860044800F064FD3E
:1067D00000F01CFC08BD0000E8DAFF1F3075000067
:1067E00010B5FEF7B3FB0120FEF7B6FBFEF7BAFBD0
:1067F000002010BDF0B500248E464A1E12E07146FE
:1068000000230D1B6D1E0AE09E0031188C4687592F
:1068100049688F4202D9815161464F605B1C9D429D
:10682000F2D8641C9442EAD3F0BD000010B50020F9
:10683000054CFF212218401C51704028FADB03F060
:106840001BFD207010BD0000F8DAFF1F10B50020FE
:10685000054CFF212218401C51700628FADB03F07A
:1068600029FD207010BD000001B7FF1F10B58EB0CC
:1068700003A801F01BFE049A039905980192029166
:1068800000900798421C064C0898011905A0069B29
:1068900003F0ECF903A8FFF7D5FE0EB010BD000021
:1068A0006C070000636865636B5F64656661756CA7
:1068B000745F6461746574696D650A54696D6520FF
:1068C00069732025642D25642D25642C2025643AC8
:1068D00025643A256400000010B502460B460021ED
:1068E000002000BF03E0545C60404C1CE1B29942C0
:1068F000F9DB10BDF0B58646080CFF268446002360
:1069000088B237461C46194601228A400546154082
:10691000CD402C19A4B2FF2F02D1012C00D18FB28F
:1069200065462A40CA40D21893B2FF2E02D1012BED
:1069300000D18EB2491C1029E6DB012C02D0102CAC
:1069400008D009E0012B07D13001C0197146087049
:106950000220F0BD102B01D00320F0BD0120F0BDBE
:1069600010B528210148FEF790F810BDD4D5FF1FBF
:10697000032800DA704701218907896801228240D3
:10698000914301229207916000BFF3E7032800DAE8
:106990007047012189078968012282401143012241
:1069A0009207916000BFF3E701480068704700005C
:1069B0001010FF1F012189070968012282409143BD
:1069C0000122920711601146096801228240114399
:1069D000012292071160704730B585B004460D461C
:1069E00003A8FFF7F1FD21786846017061784170D6
:1069F000408A7D210901401AC1B268468170017C3C
:106A0000C170C17B0171817B4171417B8171017BCF
:106A1000C1710821FFF760FF6946087209216846C5
:106A200000F04CF805B030BDF8B504460F462646D8
:106A3000B178F078FEF79CFA0546002D00D100E011
:106A40000A200546EAB23946204600F04FF8F8BD64
:106A500070B504460D4600222946204600F046F84F
:106A600070BD10B586B00446217868460171617822
:106A7000417101218171002101A8C17002210171C0
:106A8000012168464172002101A8817101216846F7
:106A9000C172002101A8017203A90131C120800047
:106AA000FEF766FC132101A8FFF716FF6946C875BB
:106AB000142101A800F002F806B010BD70B5BEB0F8
:106AC00006460D46F8216846FDF7DFFF69468D70E2
:106AD000002404E0315D00A803300155641CAC4281
:106AE000F8DB684604F014F93EB070BD70B5C0B074
:106AF00004460D461646207869460871012D01DDD1
:106B0000607800E00020694648716846867103217C
:106B100001A8FFF7E1FE01466846C171F82102A80D
:106B2000FDF7B3FF0421684681720179C172417992
:106B300002A801716846817902A841716846C1794D
:106B400002A8817104F0E4F840B070BDF0B587B0E0
:106B500004460F460026254605A8FFF735FDA87810
:106B60007D210901411868464182E978017429793B
:106B7000C17369798173A9794173E9790173017BE3
:106B8000427B807B0192029100906846C37B027C2D
:106B9000418A07A003F06AF804990398FFF7A6FD5D
:106BA0000646F2B239462046FFF7A0FF07B0F0BD17
:106BB000636D645F7365745F74696D653A20256405
:106BC0002C25642C25642C25642C252C25640A0096
:106BD000F8B506460D4617462A46314607A003F08B
:106BE00045F8002407E0A0003A5821460DA003F024
:106BF0003DF8601CC4B2AC42F5DBF8BD636D6420A7
:106C0000696420697320307825782C207061726166
:106C10006D65746572206E756D2069732025640A38
:106C200000000000706172616D202564203A20250B
:106C3000730A00007FB505460C460E4B0FCB6E461F
:106C40000FC6002C02D1062004B070BD0A4A0B49C1
:106C5000222002F083F968460FC802F07BFB084847
:106C6000456000200749087048800548846000207E
:106C7000EAE7000030B1FF1FB16FFF1F9D6FFF1FDC
:106C8000D8DAFF1FD8D6FF1FF0B58DB000200C90CA
:106C9000614F012080023818406803903D1D00209C
:106CA00002900190009001240BE0601E285C612896
:106CB00005D1285D742802D1601C84B204E0601CF8
:106CC00084B27888A042F0DC00BF7888A04204D16A
:106CD00052A002F0CBFF0DB0F0BD2819029014E0D5
:106CE000285D202802D0285D002802D100202855E8
:106CF0000EE0285D202802DB285D7D2803DD50A002
:106D000002F0B4FFE7E7601C84B27888A042E7DCB9
:106D100000BF0298FEF7F6F8002803D153A002F056
:106D2000A5FFD8E700261EE0F1000398405A00288E
:106D300005D0F100039808184068002803D152A03C
:106D400002F094FFC7E7F200039810184168029818
:106D5000FDF7A6FE002804D1F1000398405A0C90DC
:106D600003E0701C86B2202EDEDB00BF0C980028EA
:106D700003D14FA002F07AFFADE7601C84B228195E
:106D800001903BE0285D202818D10020285501986B
:106D9000FEF7B8F8002800D133E00099890004AA72
:106DA000019850500098401CC0B2009000980828EC
:106DB00000DB26E02819401C01901DE0285D00281A
:106DC0000FD10198FEF79EF8002800D119E0009934
:106DD000890004AA019850500098401CC0B200904D
:106DE0000FE0285D202802DB285D7D2803DD3BA025
:106DF00002F03CFF6FE700BF601C84B27888A042BD
:106E0000C0DC00BF01208002381804AA8368009902
:106E10000C98984700BF5EE7D8D6FF1F5061727389
:106E2000652066696C65642C20646964206E6F74EB
:106E300020666F756E6420226174220A00000000D3
:106E40005061727365206661696C65642C20636DA6
:106E5000642068617320696C6C6567616C2063688D
:106E6000617261637465720A0000000050617273A0
:106E700065206661696C65642C20636D64206973AC
:106E800020656D7074790A005061727365206661C7
:106E9000696C65642C20636D64206973206E6F7467
:106EA000206D6174636820636D646C6973740A009B
:106EB0005061727365206661696C65642C20636D36
:106EC00064206973206E6F74206D61746368206341
:106ED0006D646C6973745F310A00000050617273F5
:106EE00065206661696C65642C20706172616D65F6
:106EF0007465722068617320696C6C6567616C20D1
:106F00006368617261637465720A0000F8B50646D1
:106F1000214C201D00903078012802D0022838D161
:106F200000E000BF77682078002804D1222001F01B
:106F3000E1FF012020702078012826D1002520E0E3
:106F4000785D0D2802D0785D0A2811D10021628871
:106F5000009881546088401C608002202070FFF7F8
:106F600093FE002020706080222002F043F80BE0A6
:106F7000795D6288009881546088401C6080681C3C
:106F8000C5B2307AA842DBDC02E0222002F032F8FF
:106F900000E000BF00BFF8BDD8D6FF1F10B500212C
:106FA0000A20FDF7EBFF01210A20FDF7EDFF10BDE0
:106FB00010B500210E20FDF7EDFF01210E20FDF799
:106FC000E9FF00210E20FDF7E5FF002409E00A207B
:106FD000FDF7E6FF002803D1222001F08BFF02E03D
:106FE000641C142CF3DB00BF00210E20FDF7D2FF40
:106FF00001210E20FDF7CEFF00210E20FDF7CAFF74
:1070000000200149087010BDD8D6FF1F00B585B01B
:1070100003A8FFF7D9FA6846017B427B807B019287
:10702000029100906846C37B027C418A02A002F074
:107030001DFE05B000BD000054696D652069732018
:1070400025642D25642D25642C2025643A25643A79
:1070500025640A00FFB583B00F461D460D9E0C9CAB
:107060000020029078680078796849780902401811
:1070700080B20190714A0198811A904268D00ADC6E
:107080006F49401800280FD0012822D0022835D09F
:10709000032872D147E0012973D002296FD0032958
:1070A0006ED02929F5D1ABE0082C02D3072002903D
:1070B0000EE00820001BB04201D9304601E0082054
:1070C000001B28702A785F4801190598FDF772FEA9
:1070D000B0E00C2C02D3072002900EE00C20001B25
:1070E000B04201D9304601E00C20001B28702A78FC
:1070F000554801190598FDF75DFE9BE00D2C02D364
:10710000072002900EE00D20001BB04201D930464E
:1071100001E00D20001B28702A784C4801190598C1
:10712000FDF748FE86E0112C02D3072002900EE006
:107130001120001BB04201D9304601E01120001B94
:1071400028702A78424801190598FDF733FE71E04E
:10715000112C02D3072002900EE01120001BB04238
:1071600001D9304601E01120001B28702A783948E7
:1071700001190598FDF71EFE5CE056E001E015E000
:1071800029E0112C02D3072002900EE01120001BF1
:10719000B04201D9304601E01120001B28702A7846
:1071A0002D4801190598FDF705FE43E0112C02D387
:1071B000072002900EE01120001BB04201D930469A
:1071C00001E01120001B28702A7824480119059835
:1071D000FDF7F0FD2EE00E2C02D3072002900EE00A
:1071E0000E20001BB04201D9304601E00E20001BEA
:1071F00028702A781A4801190598FDF7DBFD19E077
:10720000072C02D3072002900EE00720001BB0429B
:1072100001D9304601E00720001B28702A78114868
:1072200001190598FDF7C6FD04E0002028700A202A
:10723000029000BF00BF029807B0F0BD272A0000EF
:10724000DDD5FFFFC1B2FF1FD8AFFF1FE5AFFF1FA6
:10725000F3AFFF1F05B0FF1F17B0FF1F29B0FF1FBF
:107260003BB0FF1FD1B2FF1F70B504462646094848
:10727000855DFF2D00D170BD00212846FDF796FEEB
:1072800000212846FDF798FE00212846FDF79AFECA
:1072900000BFF0E724B1FF1F10B5044622460421C9
:1072A00002480078FDF7CEFD10BD0000F8B5FF1FC5
:1072B000FFB587B00C4616461F46082F05D120465D
:1072C000062148432230C5B204E020460621484347
:1072D0002130C5B21C2200216846FDF771FD6A46C7
:1072E0001C21284602F0F0FB00280ED16846807E63
:1072F00007280ADB6846807E102806DCF107C90FE4
:107300006A46109B0798FDF763FE0BB0F0BD0000C6
:1073100070B5054600240DE00E216143074A881828
:1073200006222946FDF75AFE002801D0204670BDEE
:10733000601CC4B20A2CEFDB0A20F8E75ED2FF1F04
:1073400070B5054600240EE00E216143084A8918F5
:10735000881D06222946FDF741FE002801D020465F
:1073600070BD601CC4B20A2CEEDB0A20F8E70000F6
:107370005ED2FF1F7FB504460D460A2C01DA002DB0
:1073800002D1022004B070BD2146062251432031B3
:10739000C8B26A460E2102F097FB0646002E04D1C1
:1073A000062269462846FDF705FD3046EAE71FB587
:1073B00004462146062251432031C8B26A460E21B6
:1073C00002F082FB002804D168468089C0B204B074
:1073D00010BD0020FBE7014600200DE082008A5A24
:1073E000D2438300CA52820052189278D24383005B
:1073F0005B189A70421CD0B20428EFDB70477FB54F
:10740000054600241CE02146062251432331C8B220
:107410006A46102102F058FB00280FD11022FF21EC
:107420006846FDF7D3FC002808D129466846FDF7D9
:10743000DBFD002802D1204604B070BD601CC4B240
:107440000A2CE0DB0A20F7E770B5054600240A485D
:107450000078002801D0012000E000200443074804
:107460000078002801D0042000E0002004432146D9
:107470002846FDF7BFFD70BD5FB5FF1F5CB5FF1F60
:1074800008B50E480078002815D0012802D002283F
:1074900010D10CE0012000900948038809480288B7
:1074A0000948018809480088FEF732F904E0FEF730
:1074B0002DFB01E000BF00BF00BF08BD4CB5FF1FA2
:1074C00044B5FF1F42B5FF1F40B5FF1F3EB5FF1F6C
:1074D000F8B504460026A0780300FDF789FC0805EE
:1074E000FE214A4B8FE3FDFE25466F78002F10D119
:1074F0000622E91CA748FDF75DFC0120A64908709B
:10750000A64BA74802780121A6480078FDF7B2FCF7
:107510000746002F02D007209F490870012625E169
:107520002546687800281CD1E878002809D09E4BB1
:107530009E48027800219B480078FDF79BFC68700C
:107540000FE09548007802280BD00121954800787B
:10755000FDF796FC002804D1012192480078FDF740
:1075600083FC6878002803D007208B490870012627
:10757000FCE000BF2546687800283AD1A0780328AF
:107580000BD185480078052803D106208249087070
:1075900032E00220804908702EE0854800880028EB
:1075A0000BD08448007800280AD081480288012145
:1075B0007C480078FDF746FC02E000207D49087019
:1075C00075480078062803D105207349087013E038
:1075D00071480078042808D10120764908700121FB
:1075E00070480078FDF740FC06E003206A49087007
:1075F00002E00720684908700126B7E02546687850
:10760000002840D10622291D6B48FDF7D3FB68896D
:107610006A490880A8896A490880E8896949088018
:1076200005205D49087068480088002806D0664833
:10763000028802215B480078FDF704FCA8896349B1
:107640000880E88962490880288A6249088062487F
:10765000007801280DD11F20FDF7D0FB07467D20C3
:10766000C0007843024604214E480078FDF7EAFB4B
:1076700000BF6A89E8780423291DFDF7ADFD0020CD
:107680004C4908700CE06878312806D1002049493F
:10769000087003204049087002E007203E49087046
:1076A000012663E02546062200214348FDF788FBBA
:1076B0000020464908804649088046490880042140
:1076C00038480078FDF7C4FB082136480078FDF7FC
:1076D000BFFBA879082801E01FE046E003D10420A1
:1076E0002D49087002E003202B490870012631481B
:1076F0000078002804D02B480078FDF7AFFB07E0A6
:1077000001202C490870012126480078FDF7ACFBC8
:107710000020C0432949088028E025460821214847
:107720000078FDF795FB687800281DD1E888274987
:10773000088028892649088068892649088004210C
:1077400018480078FDF79CFB00280DD123480068FD
:10775000002809D02148006803681E4802881C4898
:1077600001881A480088984700E000BF00BF012E3A
:107770000ED11B48006800280AD01948006800682C
:10778000002805D01648006801680348007888473B
:10779000F8BD0000F8B4FF1FF1B4FF1F03B5FF1FD1
:1077A00002B5FF1FF0B4FF1F2ED2FF1F22B5FF1F2F
:1077B00000B5FF1FFEB4FF1F36B5FF1F2EB5FF1F1C
:1077C00030B5FF1F32B5FF1F34B5FF1F46B5FF1F91
:1077D00048B5FF1F4AB5FF1F3CB5FF1F54B5FF1F3B
:1077E00050B5FF1FF8B504462078912804D0A22890
:1077F00041D0D02861D13AE060780E2828D12546C2
:10780000A8882F49884217D1A868C07846B22D4869
:10781000007805280FD17F2E0DD02B480068002856
:1078200009D0294800684068002804D0264800682C
:107830004168304688470AE0A8882449884206D132
:10784000A86883784278017821A002F00FFA0DE051
:1078500060780F2801D1204608E060783E2805D1E5
:1078600020468178072900D000BF00BF26E02046CF
:10787000FFF72EFE22E02546687913281CD12E46FC
:107880000836308801280BD116480078022807D125
:10789000082115480078FDF7DBFAFEF737F90AE012
:1078A0000520FDF7ABFA07463A4608210E48007856
:1078B000FDF7C8FA00BF00BF00E000BF00BFF8BD81
:1078C00005140000F1B4FF1F50B5FF1F2220000077
:1078D0005B48434920444C455D25642025642025B0
:1078E000640A00004CB5FF1FF0B4FF1F1CB506482A
:1078F0000649074B0022009101900648017806488E
:107900000078FEF719F91CBDF4B4FF1F1ED2FF1F4B
:107910000ED2FF1FF2B4FF1FF0B4FF1F7CB5044668
:107920001E4800881E490988884211DB1B480088D0
:107930001C49098888420BDC1B4800881B490988C0
:10794000884205D11A4800881A490988884223D0FC
:107950000520FDF753FA0546114801886846018065
:107960001048018868464180104801886846818037
:10797000104801886846C1800F48027869460F4860
:107980000088FDF73DFB0E4804702A4608210A488E
:107990000078FDF757FA00BF7CBD000046B5FF1F19
:1079A0003EB5FF1F40B5FF1F48B5FF1F42B5FF1F83
:1079B0004AB5FF1F44B5FF1FF0B4FF1F2EB5FF1FD0
:1079C0004CB5FF1FF8B506460F46304600F046F8A6
:1079D0000446002C06D1114800F040F80446002C63
:1079E00000D02680002C17D0002511E0F820684335
:1079F0006168085A002809D1F82169436268501863
:107A0000F8223946FDF7D6F90020F8BD681CC5B24A
:107A1000034800788542E9DB0920F6E7FFFF000014
:107A200014B4FF1F70B50546284600F037F8044629
:107A3000002C00D170BDA068FCE703460A46002177
:107A400008E08800105A984202D1880080187047D8
:107A5000481CC1B20229F4DB0020F8E702460021ED
:107A600009E0C800064B185A904202D1C800C0185D
:107A70007047481CC1B20129F3DB0020F8E7000081
:107A80000CB4FF1F70B50546284600F007F8044601
:107A9000002C00D170BD2068FCE7000002460648BB
:107AA000016805E08888904201D1886870470968BC
:107AB0000029F7D10020F9E718B4FF1F70B505467B
:107AC0002846FFF7EBFF0446002C00D170BD60682C
:107AD000FCE70000F3B581B00C46012C07D0022C66
:107AE00029D101210198FDF791FA002823D10198AD
:107AF000FFF7B4FF0546002D18D000260EE0F82051
:107B0000704369680F183888002800D10AE0F8220D
:107B100000213846FDF754F9701CC6B206480078BB
:107B20008642ECDB00BF0020C04328800349019857
:107B3000FEF770F800BFFEBD14B4FF1F1EB4FF1F98
:107B400070B50446044D05480088288060882946A1
:107B5000FDF762FA002070BDFED0FF1FEE10FF1F80
:107B6000F3B585B00546284608300490002768889C
:107B7000FFF774FF0646002E35D00020039029E061
:107B80007168F822039850430C182088002800D10F
:107B900025E004980078012811D1608800902379AD
:107BA00021886888621D0290FEF77DFA0746002F43
:107BB00005D0002104980170218806980180F822E0
:107BC00000212046FDF7FCF8002020800398401C8F
:107BD000C0B203900849097803988842D0DB00BFFF
:107BE0000020C0433080002F02D16888FDF71AFAC8
:107BF000384607B0F0BD000014B4FF1FF3B585B0E0
:107C000007463D460835384C162200212046FDF730
:107C1000D7F804A800902B79698828886A1D0390FA
:107C2000FDF706FA064648E030480078C01FC0B2AB
:107C300000212F4A00920191029078882D4B6946CD
:107C40000A8A3146FEF766F8002812D1E8792849F9
:107C5000097888420DD126480278264928460830FE
:107C6000FDF7BCF9002804D0718920788200A01C9F
:107C70008152698803AB6846028A3046FDF736F9BF
:107C8000064620788100A01C405A002814D0002EFF
:107C900009D0684681892278501C20709200A01C6F
:107CA0001018418008E00021C9432278501C207040
:107CB0009200A01C1018418000BF002E04D0207834
:107CC0000D4909888842AFDB2078002806DD7888D6
:107CD0002146FDF7B3F9002007B0F0BD29880698CA
:107CE00001800A20F8E70000FED0FF1FEC10FF1F04
:107CF0001CB4FF1F08D0FF1FF410FF1FF8B5054686
:107D00000020009028790E2833D00CDC08281ED0E3
:107D100004DC022810D0062849D112E00A281CD021
:107D20000C2844D11FE0102829D012282DD0162865
:107D300031D018283BD134E02846FFF701FF044634
:107D400037E069462846FFF759FF044631E06946A7
:107D5000284600F077F904462BE06946284600F0F3
:107D600081FA044625E06946284600F07FF804467B
:107D70001FE06946284600F003FA044619E0694608
:107D8000284600F0A7F8044613E06946284600F0AC
:107D9000A1FA04460DE06946284600F02DF8044695
:107DA00007E069462846FFF7DBFE044601E00024B1
:107DB00000BF00BF002C0ED0687814280BD00C4EEA
:107DC0002879307068460088708034716888314640
:107DD000FDF73AF900BF2846FDF73CF90548006871
:107DE000002803D02846034909688847F8BD0000E9
:107DF000FED0FF1F68B4FF1FF3B583B004462646CC
:107E000008360025308802A9FDF76AF80746002FDA
:107E100023D0387A20210840002810D068460089F5
:107E2000FFF700FE01900198002806D0608812221A
:107E30003946019B9847054600E00E2500BF002DFE
:107E40000CD160883146FFF7BDFD0546002D05D1F8
:107E500060883146FDF704F900E00125002D02D0CD
:107E6000318804980180284605B0F0BDF3B587B08D
:107E700005462E460836308805A9FDF731F80690EC
:107E80000698002819D0114F11480078401EC0B242
:107E9000718800970191029068887B1C0490684665
:107EA000828A06990498FDF735FF0446002C03D119
:107EB00068883946FDF7DAF800E00124002C02D08A
:107EC000318808980180204609B0F0BDFED0FF1F20
:107ED000EC10FF1FF3B587B0079807460837554CDD
:107EE00000250020059006A800903B797988388805
:107EF0007A1D0490FDF79CF806467DE0317A079ADA
:107F00005088FDF7B9F805900598002803D07189CD
:107F10000898018073E048480078801FC0B20021B3
:107F2000464A00920191029007984088444B039082
:107F30006846028B31460398FDF7ECFE05900598E4
:107F4000002803D071890898018058E0002D04D1E1
:107F50003A480078001D60700FE06178374800787B
:107F6000001D814200D04AE0344800782918324888
:107F70000088801F814200DD41E0B17A28466A1CFA
:107F8000D5B2A21C11547089001229466A1CD5B2C0
:107F9000A21C5054798804AB6846028B3046FCF72B
:107FA000A5FF0646002E10D06846008AC1B22846BA
:107FB0006A1CD5B2A21C11546846008A00122946D8
:107FC0006A1CD5B2A21C50540AE0FF2128466A1C44
:107FD000D5B2A21C115428466A1CD5B2A21C115459
:107FE000A11C481915490A781549FCF7E3FE134806
:107FF00000782818C5B200BF002E00D07EE700BF71
:10800000002D0CDD61782846FCF7C8FE207007992A
:1080100048882146FDF736F8002009B0F0BD0598E4
:10802000002801D10A200590398808980180059818
:10803000F3E70000FED0FF1FEC10FF1F1CB4FF1F72
:1080400008D0FF1FF3B589B00746384608300890BE
:10805000464D08980088079000240020069067E0AD
:1080600005A80090089803794188421D0798FCF7FD
:10807000DFFF0646002E00D15FE070890790317A5D
:108080007888FCF7F9FF06900698002800D054E0A5
:1080900037480078001FC0B20021364A0092019193
:1080A00002907888344B04906846828A314604985E
:1080B000FDF730FE06900698002800D03DE0002C29
:1080C00004D12C480078801C687006E06978294843
:1080D0000078801C814200D02FE0264800782118CB
:1080E00023480088001F814200DD26E0B17A204647
:1080F000621CD4B2AA1C1154708900122146621C61
:10810000D4B2AA1C5054A91C08191A490A781A4951
:10811000FCF750FE174800782018C4B2174907989A
:10812000884200D109E00798401C80B2079000BF48
:108130000F480088001FA04292DA00BF002C0BDD20
:1081400069782046FCF72AFE287078882946FCF7D3
:108150009FFF00200BB0F0BD0698002801D10A2037
:1081600006900A99079808800698F3E7FED0FF1F4B
:10817000EC10FF1F1CB4FF1F08D0FF1FFFFF000003
:10818000F3B587B0064637460837324C00200690D4
:108190002070002549E06900785A04A9FCF7A0FE88
:1081A00005900598002806D1012006906800395AEC
:1081B0000898018042E028480078401EC0B20021A3
:1081C000264A0092019102907088254B03906846E0
:1081D000028A05990398FDF79DFD069006980028F0
:1081E00004D06800395A0898018027E020781B499C
:1081F0000978411818480088401E814206DD16485B
:108200000078401E2178401A144908702278611CB9
:10821000501812490A781249FCF7CCFD20780F4912
:10822000097840182070681CC5B2B87DA84205DDE9
:10823000217809480088401E8142ACDB00BF0698C7
:10824000002803D170882146FCF728FF069809B062
:10825000F0BD0000FED0FF1FEC10FF1F1CB4FF1F7D
:1082600008D0FF1FF0B587B005460F4628460830F6
:1082700006900699088804A9FCF732FE0590059837
:10828000002819D0114E12480078401EC0B20021BB
:108290000096019102906888731C03906846028AD8
:1082A00005990398FDF736FD0446002C03D1688834
:1082B0003146FCF7F9FE00E00124002C02D00698BC
:1082C00000883880204607B0F0BD0000FED0FF1FB8
:1082D000EC10FF1FF3B583B005462C460834002789
:1082E000208802A9FCF7FCFD0646002E2CD0307A2F
:1082F00020210840002810D068460089FFF792FB33
:1083000001900198002806D0688812223146019B0E
:108310009847074600E00E2700BF002F15D1002028
:108320000090A37821886888E21C0190FDF7BBFECD
:108330000746002F09D1F820005D002805D1688884
:10834000FCF7B8FE019000E00127002F02D0218841
:1083500004980180F820005D002802D0002005B0BC
:10836000F0BD3846FBE7000070B505460E46002D0F
:1083700001D1022070BD0C20FCF7A2FE0446002CA7
:1083800001D11320F6E700202060A580A6600948EF
:108390000068002802D10748046008E00549086821
:1083A00000E0006801680029FBD1046000BF0020E4
:1083B000E0E7000018B4FF1FF8B50446F82060435A
:1083C00080B2009000201E4908701E4840680028B6
:1083D0000AD0002006E00021C2001A4BD2185160DA
:1083E000411CC8B20128F6DB174D002D26D0002114
:1083F0002846009AFCF7E4FC002019E0014661439E
:10840000CAB2F82151434919C3000E4E9B19596055
:10841000002109E00023C6000A4FF6197668F82704
:108420004F43F3534B1CD9B2A142F3DB411CC8B2FA
:108430000128E3DB024804700020F8BD1320FCE7AC
:1084400014B4FF1F0CB4FF1F10CFFF1FFFB585B082
:1084500005460C4616460E9F002004902078022800
:108460001CD160680078616849780902401880B2C0
:1084700003900D490398401800280AD10220009764
:108480000190324621462846089BFDF7E9FB0490FF
:1084900002E00120049000BF00BF01E00120049031
:1084A000049809B0F0BD0000FED6FFFF70B588B09B
:1084B0000446002638A001F0D9FB3AA001F0D6FB13
:1084C00035A101A8FCF702FE39A101A8FCF7F6FAD4
:1084D000064600250CE0A800364A115801A8FCF712
:1084E000DFFA002803D1681C6946087702E06D1C9A
:1084F0000C2DF0DB00BF2EA10020FCF7DFFA0646B2
:108500003046FCF7FFFAC1B26846C17628A10020C8
:10851000FCF7D4FA06463046FCF7F4FA81B2684616
:10852000C18320A101A8FCF7D1FD23A101A8FCF77C
:10853000C5FA06463046FCF7E5FAC1B268468176D0
:108540001DA10020FCF7BAFA06463046FCF7DAFA1D
:10855000C1B26846417618A10020FCF7AFFA064682
:108560003046FCF7CFFAC1B268460176007F401E64
:1085700020616846C08B1149401A60616846C07E20
:10858000E0606846807EA0606846407E6060684625
:10859000007E206008B070BD4D61792031332032FB
:1085A0003031390031373A31373A34300000000089
:1085B0002000000040B1FF1F3A0000006C070000DF
:1085C00030B50146002010E08400094D6419E46CC8
:1085D000A2B284006419E46C230C84000A534400A2
:1085E000641C64000B53421CD0B20928ECDB30BD84
:1085F00080400240FEB50D4614461E460020009005
:108600000898002801DD0B20FEBD287802285BD1E8
:1086100068680078696849780902401880B201905A
:10862000152149020198401A0300FCF7E1FB0504FB
:1086300013231B294700E868FCF764FCC7B20998BC
:10864000874200DD099F37703A462046E968FCF70B
:10865000B1FB38E0E968088802213170207001120E
:10866000617030E00620307006222046E968FCF791
:10867000A1FB28E001203070E8680078207022E03B
:10868000E868002817D0E868082131700178217067
:108690000188091261708178A17041880912E17026
:1086A000017921718188091261718179A171C18873
:1086B0000912E17101E00020307004E00020307008
:1086C0000120009000BF03E00020307001200090E6
:1086D000009899E710B502230340002B04D00B78D3
:1086E000022423430B7003E00B780224A3430B7096
:1086F00008230340002B04D00B78082423430B707D
:1087000003E00B780824A3430B7020230340002BC5
:1087100004D00B78202423430B7003E00B78202433
:10872000A3430B7002230340002B07D1082303400F
:10873000002B03D120230340002B04D013780C24FA
:108740002343137005E0002803D113780C24A343BE
:10875000137010BDFEB50C4616461F46089D00203E
:1087600002902078022877D16068007861684978A3
:108770000902401880B20190152149020198401A5F
:1087800006D0012831D0022868D0032873D151E0E7
:10879000E068FCF7B7FBC0B200900098854205DCAA
:1087A000E819152804DD0D20029001E00720029051
:1087B0000298002818D1E16848193A463146FCF77A
:1087C000F9FAE81985B20020E16848553548006893
:1087D000002809D0334800680068002804D03148D8
:1087E000006801680020884755E0002D04D1022F61
:1087F00004D00D20029001E00B2002900298002886
:1088000017D1E0680090307871780902401881B281
:108810000098018023480068002809D0214800689A
:108820000068002804D01F480068016801208847BC
:1088300000BF30E0002D04D1062F04D00D2002909F
:1088400001E00B2002900298002804D10622314654
:10885000E068FCF7AFFA1EE01FE0FFE7002D0ED145
:10886000012F09D1307800280BD03078012808D0AA
:108870008020029005E00BE00D20029001E00B202B
:1088800002900298002802D13078E168087002E076
:108890000120029000BF00BF01E001200290029879
:1088A000FEBD00006CB4FF1F30B595B02A48406B88
:1088B000400A40022849486300243DE02648C06B36
:1088C0008005800D0121A1400840002832D00025FC
:1088D0000BE0E00121494118E81C80000858000520
:1088E000000D690005AA50526D1C1D2DF1DB1A48C0
:1088F000806B0121A140084317498863184800781C
:10890000002800D117E0A1001548001D405800289C
:108910000FD0012001906846047205A803901D2124
:1089200068460174A2000E48001D815801A88847BE
:1089300000BF00BF00BF641C082CBFDB08484078A4
:10894000002801D100F0E2F80348406B05490843D4
:108950000149486315B030BD0000054000040540E2
:10896000D4D5FF1FFF01000000B58BB0254800786B
:10897000012802D1002023490870234A5188107829
:10898000FCF766FA02A8FFF71BFE1F484038007983
:10899000012802D102A801F013FF1B4840380069EA
:1089A00000280FD002AA18492839684600F0CCFEEA
:1089B00068460078002804DD13484038016968469D
:1089C000884700BF242202A90F482838FCF744F842
:1089D0000E4840680121490408430C494860084694
:1089E00040680121084309494860074B403B1B7D13
:1089F0001A460A32044B59881878FCF723FA0BB050
:108A000000BD0000F4B6FF1FB4D6FF1FC0400240F7
:108A100038B50F4C0F4D286BC007C00F002802D08F
:108A2000A86C009038BD2069002800D1FAE7207DAD
:108A3000002805D0074A2146002001F0DAFF04E0B3
:108A4000044A2146002001F03BFF00BFEAE7000096
:108A500094D3FF1F0060004038B50F4C0F4D286BBA
:108A6000C007C00F002802D0A86C009038BD206954
:108A7000002800D1FAE7207D002805D0074A2146CA
:108A8000012001F0B6FF04E0044A2146012001F074
:108A900017FF00BFEAE70000C0D3FF1F00700040CF
:108AA00010B5114880680407240F062C14D004DC8C
:108AB000022C0ED0042C14D107E0072C0DD00C2C66
:108AC0000FD1022000F0BCFD0BE0012000F0B8FD4A
:108AD00007E000F0E9FD04E003E003484030C06B2C
:108AE00000BF00BF10BD00000040004010B50120D5
:108AF00004490870044A0021112000F02FFAFDF704
:108B00002FFF10BDE6B6FF1FBB65FF1F10B51B484A
:108B10000078002801D1122010BD19481949486376
:108B20001D20002805DBC206D20E01219140164A05
:108B3000116000BF15488068082188431349886088
:108B4000084640684914884310494860002408E0FA
:108B5000A1000F484058002802D0E0B2FEF784FB85
:108B6000641C092CF4DB1120FDF702FFFDF7F8FE71
:108B7000112000F03FFA0020CEE70000E6B6FF1F0C
:108B8000FF0100000000054080E100E040F00040EF
:108B9000D8D5FF1F70B505460E4601212846FCF7C3
:108BA0000BFA122D0FDA0124AC40002E05D00F482D
:108BB000006820430D49086016E00C480068A04397
:108BC0000A49086010E02846123801248440002E2B
:108BD00005D00648C06820430449C86004E0034843
:108BE000C068A0430149C860002070BD00800040FB
:108BF00010B51148007800F019FB012000F0C8FA08
:108C00001F2000F039F901F051F803200B49C8602A
:108C100000F0A6FE0948C468214609A001F026F824
:108C2000FCF75AFAFFF762FF0A490B48FEF702F811
:108C30000AA001F01BF810BDE312FF1F800008110D
:108C400030783131303830303863206973202578FE
:108C50000A000000D16BFF1F84AFFF1F616C6C2006
:108C600064726976657220696E6974204F4B210ABF
:108C70000000000010B504460C216143034A881827
:108C800000231A46194601F0F3FE10BD04E000402F
:108C900010B504460C216143244A881800231A4663
:108CA000194601F0E5FE0C216143204A8818002393
:108CB0001022114601F0DCFE0C2161431B4A88188A
:108CC00000231F22114601F0D3FE0C216143174AF5
:108CD000881800230C220E2101F0CAFE0C216143EA
:108CE000124A881800230822114601F0C1FE0C2107
:108CF00061430E4A881800230422114601F0B8FE91
:108D00000C216143094A121D881800231A460F21BD
:108D100001F0AEFE0C216143044A121D88180023A5
:108D200010221F2101F0A4FE10BD000004E000404D
:108D3000F8B504460D4616461F461220FDF726FEDE
:108D40000C216143134A881800231A46194601F082
:108D50008FFE0C2161430F4A88182B460C220E21EE
:108D600001F086FE0C2161430A4A88183346082226
:108D7000114601F07DFE0C216143064A88183B46EE
:108D80000422114601F074FE00221146122000F068
:108D9000E5F8F8BD04E0004070B504460D462046F5
:108DA0000A30C1B22846FCF79DF90C216143044A00
:108DB000881801230022114601F05AFE70BD000000
:108DC00004E0004070B504460D4616460C21614390
:108DD000124A881800231022114601F049FE0C2186
:108DE00061430E4A121D88182B4610221F2101F0E4
:108DF0003FFE0C216143094A121D881833460022A8
:108E00000F2101F035FE0C216143044A881801232B
:108E10001022114601F02CFE70BD000004E000405D
:108E200010B5122000F066F800BF07480068012165
:108E300008430549086008460068102108430249B4
:108E4000086000BF10BD000000E0004010B5122017
:108E500000F0D0F800BF074800684008400005490E
:108E6000086008460068102188430249086000BF76
:108E700010BD000000E00040014648094001002804
:108E800004D00020034A10600620704701480160AA
:108E90000020FAE7F0B6FF1F10B504481122152193
:108EA0000368034801F0E4FD002010BDF0B6FF1F89
:108EB0001CF0004010B578210C48FBF7E6FD0C488B
:108EC0000078012806D0022808D0032809D00428F9
:108ED00008D100E000BFFCF70BF903E0FCF70EF946
:108EE00000E000BF00BF002010BD0000FCD5FF1F48
:108EF000ECB6FF1F70B5054612261648007801280B
:108F000003D014480078042803D1FCF7F1F80020BE
:108F100070BD72B6002417E00C2060430E49085C57
:108F2000002800D112E00C2060430B49085CA842E5
:108F300009D101210C206043074A80184170FCF7D9
