:020000041FFFDC
:1008000000000000A9AFFF1FACC7FF1FD0C7FF1F2C
:100810002CCDFF1F000000000000000000000000C1
:1008200000000000000000000000000000000000C8
:1008300000000000000000000000000000000000B8
:1008400000000000000000000000000000000000A8
:100850000000000000000000000000000000000098
:100860000000000000000000000000000000000088
:100870000000000000000000000000000000000078
:100880000000000000000000000000000000000068
:100890000000000000000000000000000000000058
:1008A0000000000000000000000000000000000048
:1008B0000000000000000000000000000000000038
:1008C0000000000000000000000000000000000028
:1008D0000000000000000000000000000000000018
:1008E0000000000000000000000000000000000008
:1008F00000000000000000000000000000000000F8
:1009000000000000000000000000000000000000E7
:1009100000000000000000000000000000000000D7
:1009200000000000000000000000000000000000C7
:1009300000000000000000000000000000000000B7
:1009400000000000000000000000000000000000A7
:100950000000000000000000000000000000000097
:100960000000000000000000000000000000000087
:100970000000000000000000000000000000000077
:100980000000000000000000000000000000000067
:1009900061A2FF1F25A3FF1FE1BAFF1F0000000097
:1009A0000000000000000000000000000000000047
:1009B0000000000000000000000000000000000037
:1009C0000000000000000000000000000000000027
:1009D0000000000000000000000000000000000017
:1009E0000000000000000000000000000000000007
:1009F00000000000000000000000000000000000F7
:100A000000000000000000000000000000000000E6
:100A100000000000000000000000000000000000D6
:100A200000000000000000000000000000000000C6
:100A300000000000000000000000000000000000B6
:100A400000000000000000000000000000000000A6
:100A50000000000000000000000000000000000096
:100A60000000000000000000000000000000000086
:100A70000000000000000000000000000000000076
:100A80000000000000000000000000000000000066
:100A90000000000000000000000000000000000056
:100AA0000000000000000000000000000000000046
:100AB0000000000000000000000000000000000036
:100AC0000000000000000000000000000000000026
:100AD0000000000000000000000000000000000016
:100AE0000000000000000000000000000000000006
:100AF00000000000000000000000000000000000F6
:100B000000000000000000000000000000000000E5
:100B100000000000000000000000000000000000D5
:100B200000000000000000000000000000000000C5
:100B300000000000000000000000000000000000B5
:100B400000000000000000000000000000000000A5
:100B50000000000000000000000000000000000095
:100B60000000000000000000000000000000000085
:100B7000B9A6FF1F000000000000000000000000F8
:100B80000000000000000000000000000000000065
:100B9000000000006595FF1F00000000000000003D
:100BA0000000000000000000000000009D96FF1FF4
:100BB00000000000000000000D96FF1F5596FF1F6B
:100BC0004995FF1F00000000000000000000000029
:100BD0000000000000000000000000000000000015
:100BE0000000000000000000000000000000000005
:100BF000000000008994FF1F0000000000000000BA
:0C0C000001FF01FF01FF01FF41000000A7
:020000041FFFDC
:10480000A0FAFF1FD548FF1FDD48FF1FDF48FF1F2D
:104810000000000000000000000000000000000098
:10482000000000000000000000000000E148FF1F41
:104830000000000000000000E348FF1FE548FF1FE4
:104840000000000000000000000000000000000068
:104850000000000000000000000000000000000058
:104860000000000000000000000000000000000048
:104870000000000000000000000000000000000038
:104880000000000000000000000000000000000028
:104890000000000000000000000000000000000018
:1048A0000000000000000000000000000000000008
:1048B00000000000000000000000000000000000F8
:1048C0000348854600F0F6FB00480047ADAEFF1FE9
:1048D000A0FAFF1F0448804704480047FEE7FEE7B0
:1048E000FEE7FEE7FEE7FEE7D565FF1FC148FF1FB5
:1048F000F0B51FB40646002082B005464024019161
:1049000000901BE0019922460F46304600F0A6FABF
:10491000049A059B801A994110D3104619462246E5
:1049200000F08CFA361A8F410197224601200021AF
:10493000009F00F083FA38184D4100902046641E15
:104940000028DFDC019B00982946324607B0F0BD05
:10495000F0B51FB486B00020009001900290069838
:10496000069980B204900798090C020400141143C0
:1049700007900027089D099806913E463C46039003
:104980000398A9B20204000C039004982D0C15435F
:1049900048430021224600F051FAC71971411034F2
:1049A0000E46402CECDB3846029A00F047FA009A9B
:1049B000019B80180090594102980191103002909B
:1049C0004028CCDB00980BB0F0BD000038B50446A1
:1049D000C0681821401E4843A16840183C21484344
:1049E000616840183C2148432168451860690C21E2
:1049F0004843216940186921C900401A302100F05C
:104A0000FDFB114A50434219084600921A2902DB65
:104A10000E49511800910C2100F0F0FB0C4A504354
:104A2000009A801800900B4806E0491E425C074B34
:104A30005A43009BD21800920029F6DC21466846B2
:104A400000F026FA009838BD801F860780510100CB
:104A50008033E101A4C8FF1F03460B439B0703D02B
:104A600009E008C9121F08C0042AFAD203E00B7833
:104A70000370401C491C521EF9D27047D2B201E0AB
:104A80000270401C491EFBD270470022F6E710B5A9
:104A900013460A4604461946FFF7F0FF204610BDAC
:104AA00010B5002200E0521C835C8C5CA34201D153
:104AB000002BF8D1D8B2E1B2401A10BD70B5104D3C
:104AC000002800D12868002414E00A4602E09E4233
:104AD00003D0521C1378002BF9D1DAB2224307D04D
:104AE000002B06D0002C04D000210170401C04E0F3
:104AF0000446401C0678002EE7D12860204670BD91
:104B000044CEFF1F70B5064601F042FF046805461B
:104B10000A220021304600F0F5F92C6070BDF8B58E
:104B200002464A40D40F42004B0052085B089A42AA
:104B300002D20246084611464A0023D0C30D4A005D
:104B4000DDB2120EAD1A202D35DA49020126490ACE
:104B5000F6058A19002C00D0524220214F1B114625
:104B6000B9402A411018C20D9A4221D0002C17D00A
:104B7000012D08DCDA05801AD20F8019D207DBB2CA
:104B800000F000FAF8BDDA05801A012340001B0688
:104B9000C01880185A428018CA0F1043490007E015
:104BA0004908C2071143DA05801A801940088018A5
:104BB00000F0E0F9F8BD61000122511A001BF7E78F
:104BC0000122D2075140AAE70122D2075040A6E7AE
:104BD000024670B54A40D30FDB0740002DD04A0093
:104BE0002AD0010E140E000212020919400A520ABC
:104BF0008418E50104465443000A120A2E04504367
:104C0000A4194219200CC543AA18120C0125AD03A2
:104C1000521C521912047F39240400D0521C104334
:104C200001D44000491EC2B20C06C0092018401C25
:104C30004008802A02D003E0002070BD40084000F8
:104C4000002900DA0020184370BD70B502464A40C2
:104C5000D50F40004A00ED0740085208002814D044
:104C6000002A12D0C40DD30D41020120C00552020A
:104C7000490A520AE41A091812187D34914201D3E4
:104C8000641C00E04900002C01DA002070BD002304
:104C9000914201D3891A0343400849000028F7D103
:104CA00000290AD0914202D10121C90705E09142B1
:104CB00001D2012101E00121C943E005C0184019DA
:104CC00000F058F970BD0000F0B50C465C4085B0AE
:104CD000E40FE40703944C0000266408590094464E
:104CE000490802460296224321D062460A431ED05A
:104CF0006200570D4A000E032303550D012402469E
:104D00002C492405781B1B0B360B401823432643E4
:104D1000614600901C46501AB44103D30098401CD1
:104D2000009002E0921800985B41002803DA00200E
:104D3000014605B0F0BD0020012109050746864661
:104D400011E064461D46141BB54106D36546521B4F
:104D5000B341744607430C43A646CD0740084908B3
:104D6000284392185B4105460D43EAD1104618438B
:104D700013D06046194650407140084306D0604643
:104D8000101AB34106D20122002306E000220123BB
:104D9000DB0702E00122D24353100098744601055C
:104DA000381C6141029C039D0019694100F023F900
:104DB000BFE70000FD030000C217C10F504010B54F
:104DC0004018CA079623002100F0DCF810BD10B58A
:104DD00000229623114600F0D5F810BD0EB5C2177B
:104DE000C10F5040CA0740180021054B02930192A1
:104DF00000910A460B4600F00BF903B000BD00001D
:104E000033040000CB0FDB07490010B54908024608
:104E10000A4307D00A0D07240903E401090B121BFA
:104E2000002A01DC002010BDC900440F0C43C10062
:104E3000E018D205801800F09DF810BD10B5202AAA
:104E400004DB0146203A9140002010BD9140202310
:104E50009C1A0346E3401943904010BD10B5202A28
:104E600004DB0846203AD040002110BD0B46D34059
:104E7000D0402024A21A91400843194610BD0000DA
:104E800010B5024900F004F810BD000074F2FF1FD5
:104E900070B50C4600683C2100F0B6F921603C2159
:104EA00000F0B2F96160182100F0AEF90546A1608A
:104EB0000721001D00F0A8F9A1610F48A9000818FA
:104EC0000E4900F0A1F90246443288086261E061AF
:104ED0003B2802D3910700D0401C0021084B0A4612
:104EE0002161995C814203D8401A521C2261F8E783
:104EF000401CE060204670BD6C0B0000B505000052
:104F0000B0C8FF1FF7B5009C0F4600262578641C2B
:104F1000002D05D000F0E0F80068405DC007F5D135
:104F20002B2D02D02D2D18D0641E39462046029A12
:104F300000F0D6F8002F04D03968A14201D10099C1
:104F400039607105022400290BDA4042002803DD94
:104F500001F01EFD0460A007FEBD01208002064393
:104F6000E3E70028F8DA01F013FD04600048FEBD15
:104F7000FFFFFF7F002904DA401C490001D14008EF
:104F80004000704770B40024050C05D110240004C3
:104F900002D1002921D01124050E01D100020834CC
:104FA000050F01D10001241D850F01D18000A41C33
:104FB000002801DB4000641C002908D020252E1B9E
:104FC0000D46F540A14000D00121294308430106C8
:104FD0001B1B000ADB1D02D5002070BC7047DB05DF
:104FE000181880180029F8DA401C4900F5D170BC67
:104FF00040084000704710B5002B08DA0024401C20
:10500000614192185B411A4301D14008400010BD34
:10501000F0B51FB482B005460C0003D0084601F07D
:10502000A3FB02E001F0A0FB2030024600902146E5
:105030002846FFF703FF049B059A04460F461843D2
:105040001143084314D0184610431BD00098402148
:105050000A1A18460599FFF701FF05460E46009A01
:1050600005990498FFF7EAFE084305D0012004E003
:105070002046394607B0F0BD0020C11705430E4356
:105080002C43374300990E986305401A7905E40ACA
:1050900000220C43FD0A0A3002D500200146E9E750
:1050A0000105101969410C9C0D9D00196941FFF71C
:1050B000A2FFDFE7064C0125064E05E0E36807CCBA
:1050C0002B430C3C98471034B442F7D3FFF7FCFB5A
:1050D000A4C9FF1FF4C9FF1F0048704740C9FF1F44
:1050E000F7B582B0029C00272078641C1546019712
:1050F000302802D0002D15D015E020780127641C3F
:10510000782804D0582802D0002D09D00BE0002DBB
:1051100001D0102D07D1002710252078641C02E053
:10512000082500E00A250026009610E000990127D6
:1051300069430818020C294680B2714300908E180A
:105140003804864201D3012001902078641C29464E
:1051500000F019F80028E9DA0398002805D0002F9C
:1051600001D0641E00E0029C04600198002806D073
:1051700001F00EFC02210160C81E05B0F0BD0099CF
:1051800030040843F9E73A2800D230382023024699
:105190009A43412A01D310463738884201D3002070
:1051A000C043704770B58C180578401C6B075B0FC7
:1051B00001D10378401C2A1106D10278401C03E07B
:1051C00006780E70401C491C5B1EF9D12B0705D4D4
:1051D0000023521E0DD40B70491CFAE70378401CC3
:1051E000CB1A921C03E01D780D70491C5B1C521EEB
:1051F000F9D5A142D8D3002070BD000003B4014806
:10520000019001BD9502000003B40148019001BD69
:105210006902000003B40148019001BDC13C0100D6
:1052200003B40148019001BDED3C010003B4014805
:10523000019001BDC93A010003B40148019001BDCC
:105240005518000003B40148019001BD3518000055
:1052500003B40148019001BD7181000003B401480D
:10526000019001BD3914000003B40148019001BD53
:105270001117000003B40148019001BDF13E010087
:1052800003B40148019001BD1B3D010003B4014876
:10529000019001BD7114000003B40148019001BDEB
:1052A000C131000003B40148019001BDB1420100C9
:1052B00003B40148019001BDD542010003B4014887
:1052C000019001BDC912000003B40148019001BD65
:1052D0003D42010003B40148019001BD5D19000089
:1052E00003B40148019001BD593A010003B40148DB
:1052F000019001BDC118000003B40148019001BD37
:105300003515000003B40148019001BD41170000AC
:1053100003B40148019001BDE915000003B4014840
:10532000019001BD897B000003B40148019001BDDB
:10533000D520000003B40148019001BDA5E500009F
:1053400003B40148019001BD3D1C000003B40148B5
:10535000019001BD0D1D000003B40148019001BD85
:105360008306000003B40148019001BD0143010020
:1053700003B40148019001BDE120000003B40148DD
:10538000019001BDF53C010003B40148019001BD4D
:105390005D3F010003B40148019001BDDD21000023
:1053A00003B40148019001BD5590000003B40148C9
:1053B000019001BD3543010003B40148019001BDD6
:1053C0007D3A010003B40148019001BD913F010005
:1053D00003B40148019001BDA942010003B4014892
:1053E000019001BD1910000003B40148019001BDF6
:1053F000A53C010003B40148019001BD391700002C
:1054000003B40148019001BD8117000003B40148B5
:10541000019001BDD136000003B40148019001BDE7
:1054200001E6000003B40148019001BD6D070000D2
:1054300003B40148019001BDBD07000003B4014859
:10544000019001BD891C000003B40148019001BD19
:10545000E907000003B40148019001BD3D070000C9
:1054600003B40148019001BD211A000003B40148B2
:10547000019001BD050E000003B40148019001BD7B
:105480002D0E000003B40148019001BD89220000E7
:1054900003B40148019001BD610E000003B401484E
:1054A000019001BD9D0E000003B40148019001BDB3
:1054B000D50E000003B40148019001BDFD0E0000AF
:1054C00003B40148019001BD610F000003B401481D
:1054D000019001BDED3A010003B40148019001BD06
:1054E0004F03000003B40148019001BDE99700009B
:1054F00003B40148019001BD3D98000003B4014888
:10550000019001BDE58D000003B40148019001BD8B
:105510004977010003B40148019001BD8D3C0100B1
:1055200003B40148019001BDE55B000003B40148EC
:10553000019001BDE129000003B40148019001BDC3
:105540009937000003B40148019001BD51140000D7
:1055500003B40148019001BD091F000003B40148D4
:10556000019001BDA579000003B40148019001BD7F
:105570004103000003B40148019001BDC91F0000B0
:1055800010B5034A1321034800F01EFF10BD0000B0
:1055900034C7FF1F10CAFF1FF8B504460D46164654
:1055A0000027002C05D12A4631460448FFF732FE79
:1055B00001E0022700BF00BF3846F8BDF9C9FF1F50
:1055C000FFB58DB000200B900C900BAA0E990D9892
:1055D00000F086F804460A2C5EDA204602F0ADFBA5
:1055E000054634480078022801D1012000E000205F
:1055F00000902A462146109B0F9802F01FFB1422B0
:10560000002106A8FFF70CFE214606225143243153
:10561000C8B206AA102105F001FD002815D11022FC
:10562000FF2106A8FFF702FE00280ED12146062220
:1056300051432531C8B20AAA042105F0EFFCE9075D
:10564000C90F06AA0F98FFF7F7FD21467031C8B2BF
:1056500002AA102105F0E2FC002813D102A802F0F2
:1056600080FB00260CE0B00002A94718388800280B
:1056700004D0BA7839880F9800F0F6FE701CC6B2D4
:10568000042EF0DB02202840002804D00A480178CC
:105690000F9800F0D3FE00BF1098042806D10548EB
:1056A0000078022802D10F9802F094FB002011B07C
:1056B000F0BD000091CCFF1F90CCFF1F10B5044639
:1056C00005480460054801782620FFF7BBFD034824
:1056D000007800F073FE10BDA4CCFF1F90CCFF1F1C
:1056E000F8B506460F4614460A25002E06D0012EB0
:1056F00005D0022E11D0032E29D11BE000BF384661
:1057000002F0CCFA05460A2D06DA002C04D0062257
:1057100039462046FFF77EFD1AE0384602F0D6FAF9
:1057200005460A2D05DA002C03D02146284602F052
:10573000E7FA0DE0384602F028FB05460A2D05DAA7
:10574000002C03D02146284602F0DAFA00E000BF20
:1057500000BF2846F8BD000070B505460C4600267F
:1057600003200002281A0300FFF772FD1D10141A0F
:1057700020242A2E32394044484E52565A5E6266E0
:105780006A6E72787C809084888C9000454800789E
:10579000207084E0102244492046FFF73BFD7EE064
:1057A000102242492046FFF735FD78E04048006866
:1057B000206074E006223F492046FFF72BFD6EE093
:1057C0003D48007820706AE03C480088208066E010
:1057D0003B4802783B492046FFF71CFD5FE03A4812
:1057E00002783A492046FFF715FD58E0384800781E
:1057F000207054E037480078207050E00622364987
:105800002046FFF707FD4AE034480078207046E064
:1058100033480078207042E03248008820803EE023
:105820003148008820803AE030480078208036E017
:105830002F480088208032E02E48008820802EE00B
:105840002D48008820802AE02C480088208026E00F
:1058500006222B492046FFF7DDFC20E0294800887E
:1058600020801CE028480088208018E02748008815
:10587000208014E026480078207010E02548008839
:1058800020800CE024480088208008E0272D04DADE
:105890002846FFF7E3FC208000E0022600BF00BF9F
:1058A000304670BD2ACCFF1F4AE9FF1F5AE9FF1F8F
:1058B0002CCCFF1F30CCFF1F36CCFF1F38CCFF1F76
:1058C0003ACCFF1F3BCCFF1F5ACCFF1F6AE9FF1FDA
:1058D0005BCCFF1F5CCCFF1F5DCCFF1F63CCFF1FA9
:1058E00064CCFF1F66CCFF1F6CCCFF1F74CCFF1F66
:1058F00076CCFF1F78CCFF1F7ACCFF1F7CCCFF1F1C
:105900006ECCFF1F7ECCFF1F80CCFF1F82CCFF1F01
:1059100029CCFF1F68CCFF1F6ACCFF1F10B50446BF
:1059200013480470002013490870401E1249088073
:105930000F480078FFF798FC0420104908701022E7
:1059400000210F48FFF76CFC102200210D48FFF7E3
:1059500067FC00200C4908600C4908700C4908706D
:1059600001200C49087000200B49087010BD000090
:1059700028CCFF1F29CCFF1F66CCFF1F2ACCFF1F9E
:105980004AE9FF1F5AE9FF1F2CCCFF1F5BCCFF1F0A
:105990005CCCFF1F63CCFF1F64CCFF1FFEB5064627
:1059A0000C460120C0032040002810D04748007852
:1059B000FFF760FC051E05D0284602F0D9FB2846FB
:1059C000FFF75EFC20460121C9034840FEBD0120CF
:1059D00080032040002804D020460121890348404C
:1059E000F4E7E007C00F00283ED0394800780028CF
:1059F00036D038480078052803D10320694608705E
:105A00000CE03548017868460170344801786846F2
:105A1000417006223249801CFFF7FCFB31480178B7
:105A200068460172304801786846417269462748E5
:105A30000078FFF72BFC002811D0072025490870BB
:105A40002A48006800280AD0284800680068002812
:105A500005D02648006801681E480078884700BFC6
:105A6000204601214840B1E702202040002816D0FE
:105A70001848007805280ED11D480088FFF70CFC57
:105A80001C480088002806D01A48028802210F48C6
:105A90000078FFF707FC20460221484096E70420E3
:105AA0002040002806D0002002F0FEFB2046042102
:105AB00048408BE708202040002805D002F0A6F9D6
:105AC00020460821484081E700207FE728CCFF1FBF
:105AD00036CCFF1F29CCFF1F5BCCFF1F5CCCFF1F08
:105AE0005DCCFF1F63CCFF1F64CCFF1F88CCFF1F62
:105AF00066CCFF1F6CCCFF1FF8B504460D46174659
:105B00001E4617480078052801D01420F8BD062C41
:105B100023DB1920C00184421FDA062D1DDB8542DC
:105B20001BDAFF20F530874217DA0A2E15DB192021
:105B3000C001864211DA0B4804800B4805800B48EF
:105B400007800B480680069802F0AEFB0421094846
:105B50000078FFF7ADFB0020D8E71820D6E700005B
:105B600029CCFF1F76CCFF1F78CCFF1F7ACCFF1FFC
:105B70007CCCFF1F28CCFF1FF8B506460C46154607
:105B800000200090BA4830180300FFF761FB190E9F
:105B90001924FD2D6A738DA7B3BFCAD6FDE2FCFBA5
:105BA000FAF9F8FDFDFDFDF7FD00102C05D11022DE
:105BB0002946B048FFF72EFB01E01820009054E181
:105BC000102C05D110222946AB48FFF723FB01E03A
:105BD0001820009049E1042C03D1A84928680860E6
:105BE00001E01820009040E1012C37D1A44807784B
:105BF0002878A3490870002F14D0084600780028A0
:105C000010D1A0480078022807D09E4800780628C6
:105C100003D09C48007804281FD19B480078FFF7E8
:105C20004DFB1AE0002F18D195480078002814D0B9
:105C30009448007801280BD092480078032807D0B8
:105C400090480078052803D08E480078042804D1B5
:105C500001218D480078FFF737FB01E01820009004
:105C600003E1022C03D128888849088001E018202C
:105C70000090FAE01F2C14DC1F2200218448FFF75B
:105C8000CFFA224629468248FFF7C4FA81480470B9
:105C90007F4B224601217C480078FFF71BFB0090D8
:105CA00001E018200090E0E01F2C14DC1F220021EE
:105CB0007948FFF7B5FA224629467748FFF7AAFA4E
:105CC00076480470744B027800216F480078FFF723
:105CD00001FB009001E018200090C6E0012C06D1E5
:105CE0002878042803DC28786D49087001E0182022
:105CF0000090BAE0012C06D12878032803DC28782C
:105D00006849087001E018200090AEE0062C05D12B
:105D1000062229466448FFF77DFA01E0182000902A
:105D2000A3E0012C06D12878072803DC28785F49F6
:105D3000087001E01820009097E0012C06D1287827
:105D4000032803DC28785A49087001E018200090E5
:105D50008BE0022C19D12888564908800846008813
:105D6000002814D047480078052810D1084602883A
:105D7000022145480078FFF795FA08E04EE03EE042
:105D800030E020E010E003E062E0182000906CE0DA
:105D9000012C06D12878012803DC287846490870B0
:105DA00001E01820009060E02888022C08D1062825
:105DB00006DB1921C901884202DC4049088001E064
:105DC0001821009151E02888022C08D1062806DB12
:105DD0001921C901884202DC3949088001E01821F3
:105DE000009142E02888022C06D1FF21F53188423B
:105DF00002DA3449088001E01821009135E0288852
:105E0000022C08D10A2806DB1921C901884202DCCC
:105E10002D49088001E01821009126E02F78012CFF
:105E200013D1012F11D1082117480078FFF758FA34
:105E3000002807D102F038FA042113480078FFF750
:105E400037FA04E01620009001E0182000900CE0E2
:105E5000272E07DA022C05D129883046FFF7F2F900
:105E6000009001E00220009000BF00BF0098F8BD44
:105E7000FFFCFFFF4AE9FF1F5AE9FF1F2CCCFF1F61
:105E800036CCFF1F29CCFF1F28CCFF1F38CCFF1FAB
:105E90003BCCFF1F3ACCFF1F6AE9FF1F5ACCFF1F04
:105EA0005BCCFF1F5CCCFF1F5DCCFF1F63CCFF1FD3
:105EB00064CCFF1F6CCCFF1F74CCFF1F76CCFF1F80
:105EC00078CCFF1F7ACCFF1F7CCCFF1F10B5044697
:105ED00006480078002807D1002C01D0044804604F
:105EE00002F0CAF9002010BD1120FCE729CCFF1FE9
:105EF00088CCFF1F10B507480078052807D113226A
:105F00000548018805480078FFF7F0F910BD122018
:105F1000FCE7000029CCFF1F66CCFF1F28CCFF1F29
:105F2000F8B507460C461E4602252300FFF790F9F8
:105F30000A0F06080C090F0D0F0B0E0F002508E0C5
:105F400007E0002505E004E003E002E001E00225AF
:105F500000BF00BF002D0FD121463846FFF7CCF916
:105F60000546002D08D13046079A0699FFF7CAF971
:105F7000FFF7CEF9FFF7D2F92846F8BD70B5044611
:105F80000025E007C00F002805D0044A042104487A
:105F900000F01AFA0546284670BD000048C7FF1FEA
:105FA00060CBFF1F10B504460F4804700F4910481E
:105FB00000F024F800200AE00021C943C2000D4B84
:105FC00099520021C200D2185160411CC8B2012868
:105FD000F2DB012002F0B6FE03480078FFF7A4F9D7
:105FE0000548FFF7A7F910BD40CBFF1F56CBFF1F99
:105FF000FFFF000044CBFF1F6184FF1F70B5064602
:106000000C46104886420ED1002009E00021C94309
:106010008200A1520021820012199170411CC8B265
:106020000228F3DB0CE02146304602F0CCF90546AD
:10603000002D04D00020C04328800020A87000BF9D
:1060400070BD0000FFFF0000FFB581B00C46154693
:106050001F46002000900A98002826D1022F21D147
:10606000287869780902401886B231460B98814336
:10607000002914D1E168019800F092F9B04210D0E3
:106080003246E168019800F025FA00900098002857
:1060900007D161893246019800F0B0F901E0802013
:1060A000009004E00D20009001E00B20009000988B
:1060B00005B0F0BD70B506460C460120C003204077
:1060C000002816D00C480078FFF7D4F8051E0BD036
:1060D0002878B02803D1284602F0D6FA00E000BFA5
:1060E00000BF2846FFF7CCF820460121C9034840ED
:1060F00070BD0020FCE7000040CBFF1FFFB587B05C
:106100000D461C46109E002006900590287A10210E
:106110000840002814D0099802F04AF90746002FD9
:1061200005D00A2229460798B847059001E00E20BD
:1061300005900598002802D005980BB0F0BD00BF6F
:10614000287802287ED16868007869684978090251
:10615000401880B20490292212020498811A9042B9
:1061600071D009DC8B49401A0FD001280ED00228CB
:1061700048D0032868D118E0012966D002297DD0D3
:1061800003297CD00429F5D1C9E000BF119800286B
:1061900008D1EF68387830703A7820467968FFF790
:1061A00039F801E00B200590D6E01198002826D19F
:1061B00001203070E868007820706989491C88B235
:1061C0000021FFF7BDF80746002F0FD0317838784F
:1061D000801C08183070B87A607078890012A0703E
:1061E0003A78E01C7968FFF715F807E03078001D71
:1061F000307004220021601CFFF712F801E00B2030
:106200000590A9E01198002844D1E8680088019021
:10621000042030700198207001980012607003A96A
:106220000198FFF78DF80746002F29D0F8680090F5
:1062300002AB6846828958493846FFF787F800283C
:106240000ED103E08AE039E083E046E03B780221AA
:1062500052487A68FFF780F8002801D1401E02906A
:1062600000980078022808D1009802224168201D79
:10627000FEF7D0FF3078801C307003E00DE01EE0A8
:106280000198029068460089A07068460089001253
:10629000E07001E00B2005905EE0119800280AD123
:1062A000E968079800F07CF80746022030702770F4
:1062B0003812607001E00B2005904DE000BF11988E
:1062C000002807D1E9680888022131702070011286
:1062D000617001E00B2005903EE0E868FFF742F8AE
:1062E000C7B21198B84217DC1198B84201D1002703
:1062F00009E0129911984018B84201DA129F02E0A1
:106300001198381AC7B23770EA68119811183A46CE
:106310002046FEF77FFF01E0072005901CE0119862
:10632000002813D1E8680721317001782170417885
:1063300061708178A17041880912E1700179217141
:1063400081796171C1880912A17101E00B2005906A
:1063500002E00120069000BF00BF01E0012006908E
:106360000698012813D1099802F052F80746002F29
:106370000AD012991198334622460191009029467D
:106380000798B847059001E00E20059000BF0598DA
:10639000D3E6000000280000FFFF00001E7C010083
:1063A00070B505460E463146284602F00CF8044604
:1063B000002C01D0A07870BD0020FCE701490870D6
:1063C0007047000041CBFF1FFEB504460F4616463E
:1063D000002C0FD0019468460780FEF7C9FF0546E0
:1063E000002D06D1002E04D06089314602F082FCD7
:1063F000054600E002252846FEBD0000F8B505462A
:106400000E4617460C480078FF2813D00A20FEF7E6
:10641000B5FF0446002C0CD0B12020700020607025
:1064200020716580E6802781214603480078FEF7C9
:10643000ABFF00BFF8BD000041CBFF1F70B50446A5
:106440000D4608492046FFF7ABFF064602203040C4
:10645000002804D029462046FEF79CFF70BD01208D
:10646000FCE7000056CBFF1F7CB505460E461446E0
:10647000684604712004010E684641710020022321
:1064800001AA31460090284600F001F87CBDFFB516
:1064900083B00D461E4602A92846FEF751FF019023
:1064A0000198002811D06846008901F0CDFF074609
:1064B000002F08D00C98F3B20090059A0199039828
:1064C000B847044600E00E2400E00124204607B04F
:1064D000F0BD0000F8B505460F4616463946284679
:1064E00001F071FF0446002C09D13946054801F03E
:1064F0006AFF0446002C01D11120F8BD2580A6704A
:106500000020FAE7FFFF000070B504460025E00711
:10651000C00F002805D0044A07210448FFF754FFA4
:106520000546284670BD00005CC7FF1FB8CBFF1FA3
:10653000F8B506460C46154600273300FEF788FEE0
:106540000805143C3C1C3C26313C152C0ADC162268
:1065500000211C48FEF764FE224629461948FEF732
:1065600059FE00E0182729E0022C03D1288816499B
:10657000088000E0182721E0082C05D108222946D0
:106580001248FEF769FA00E0182717E0012C06D13F
:106590000F492878CA69283102F062FD00E0182707
:1065A0000CE0012C06D10A492878CA6B483102F068
:1065B00057FD00E0182701E0022700BF00BF384662
:1065C000F8BD000034E9FF1FAACBFF1FAECBFF1FB1
:1065D000B8CBFF1F014802490860704740787D0131
:1065E00034CEFF1FF8B506460027FEF7D9FE054654
:1065F0000AE0FEF7D5FE0446AC4201D3601B02E080
:106600000348401B00190746B742F2D3F8BD00000B
:10661000FFFFFF001CB5044621463FA004F0F2FD39
:10662000052C04D141494248FFF796F871E04148F2
:10663000007805282CD1052C2AD0012001900121B9
:106640003A48008805F022FF042C0CD120210820B4
:10665000FEF7F8FD20210920FEF7F4FD3649002061
:10666000FEF7F0FD0DE0192189010820FEF7EAFD93
:10667000192189010920FEF7E5FD00210846FEF7F2
:10668000E1FD01AA01212A480938FFF775FA40E027
:1066900028480078022825D1032C23D127480078E8
:1066A000002803D000202549087032E00820FEF7BA
:1066B000D5FD20282DD10120019019218901082024
:1066C000FEF7C0FD192189010920FEF7BBFD00215D
:1066D0000846FEF7B7FD01AA012115480938FFF762
:1066E0004BFA16E0012C14D16946C1208000FFF757
:1066F00033F868464179C17101798171C17841717E
:1067000000210171C1706A4608210020FEF744FF94
:1067100000BF084804701CBD5772697374476170EC
:10672000537461746543423A202564005ACDFF1FBB
:106730000E03000031CDFF1F307500005CCDFF1F40
:106740000FB410B504A9074B02AA039800F034F95E
:10675000044602A9002000F015FA204610BC08BC2F
:1067600004B01847856BFF1F2021020C01D01021B7
:106770001046020A01D010460839020901D010461D
:10678000091F820801D01046891E420801D0881EC8
:106790007047081A70470000002805DBC206D20EB9
:1067A00001219140014A11607047000000E100E0C2
:1067B00010B5002819DB1A4A03231B02D2188308DC
:1067C0009B00D2588307DC0EFF23A3409A438B071C
:1067D0001B0E8407E40EA3401A43114B032424022A
:1067E0001B198408A4001A5118E00E4A03071B0F56
:1067F000083B9B089B00D2588307DC0EFF23A34075
:106800009A438B071B0E8407E40EA3401A43054BE3
:106810000407240F083CA408A4001A5110BD00006E
:1068200000E100E01CED00E010B5002819DB1A4A79
:1068300003231B02D21883089B00D2588307DC0E67
:10684000FF23A3409A438B071B0E8407E40EA3404B
:106850001A43114B032424021B198408A4001A5163
:1068600018E00E4A03071B0F083B9B089B00D258F9
:106870008307DC0EFF23A3409A438B071B0E84077C
:10688000E40EA3401A43054B0407240F083CA40858
:10689000A4001A5110BD000000E100E01CED00E072
:1068A00010B5002819DB1A4A03231B02D2188308EB
:1068B0009B00D2588307DC0EFF23A3409A438B072B
:1068C0001B0E8407E40EA3401A43114B0324240239
:1068D0001B198408A4001A5118E00E4A03071B0F65
:1068E000083B9B089B00D2588307DC0EFF23A34084
:1068F0009A438B071B0E8407E40EA3401A43054BF3
:106900000407240F083CA408A4001A5110BD00007D
:1069100000E100E01CED00E010B5002819DB1A4A88
:1069200003231B02D21883089B00D2588307DC0E76
:10693000FF23A3409A438B071B0E8407E40EA3405A
:106940001A43114B032424021B198408A4001A5172
:1069500018E00E4A03071B0F083B9B089B00D25808
:106960008307DC0EFF23A3409A438B071B0E84078B
:10697000E40EA3401A43054B0407240F083CA40867
:10698000A4001A5110BD000000E100E01CED00E081
:106990000048704748CEFF1F02E008C8121F08C118
:1069A000002AFAD170477047002001E001C1121F90
:1069B000002AFBD170470000FFB58DB00F46054699
:1069C000002606E025280AD0109A0F9990476D1CE2
:1069D000761C28780028F5D1304611B0F0BD00248F
:1069E0000121674A009400E004436D1C2B7808469F
:1069F000203B98401042F7D128782E2815D104204A
:106A0000044368786D1C2A280AD101CF6D1C0090C0
:106A10000BE000990A225143303940186D1C009058
:106A20002878014630390929F3D92878692843D0D4
:106A300006DC0028D0D063280BD0642804D13BE0CA
:106A400073280FD075284CD0109A0F999047761C58
:106A500094E03878694608720020487202A80190D4
:106A6000012003E0386801900020C0433F1D61070A
:106A70000CD5002400E0641C00998C420FDA84429B
:106A8000F9DB0199095D0029F5D108E0002400E057
:106A9000641C8442FCDB0199095D0029F8D1361998
:106AA00007E0019801990078491C0191109A0F990B
:106AB0009047641EF5D261E00A20019001CF0028C2
:106AC00002DA40422D2102E0210504D52B216A463D
:106AD0001172012103E0E10701D02021F7E70C91B9
:106AE00004E00A20019001CF00210C910BA90B9129
:106AF00008E00199FEF788FB0A460B993032491EDF
:106B00000B910A700028F4D10B9803A9081A2030C1
:106B10000190600701D5009801E0012000900199E3
:106B2000884203DD01460198081A00E00020002495
:106B3000009006E002A8109A005D0F999047641C2F
:106B4000761C0C988442F5DB04E0109A30200F99F3
:106B50009047761C0099481E00900029F5DC08E05B
:106B60000B980B990078491C0B91109A0F9990473C
:106B7000761C0199481E01900029F1DC6D1C28E764
:106B8000092801000A68531C0B6010707047000050
:106B9000F8B5002604251B48475D1B480068009097
:106BA000002E0AD101213846FEF700FC174A28467C
:106BB000009902F099FD044615E00021384602F0E4
:106BC0009DFF0121384603F0F9F801213846FEF710
:106BD000EDFB0E4A2846009902F086FD044600218E
:106BE000384602F08BFF002C00D0F8BD02F03CFECE
:106BF0007D221201802106480078FEF753FB00BF7A
:106C0000F3E700003CC8FF1F48C8FF1FDD6CFF1FF3
:106C10001CCEFF1F10B5044602480470FFF7B8FFF2
:106C200010BD00001CCEFF1F70B506460C46214665
:106C30001CA004F0E7FA0120C0032040002810D077
:106C40001E480078FEF716FB051E05D0284600F00A
:106C500043F82846FEF714FB20460121C9034840AB
:106C600070BD2020204000280DD015A004F0CAFAE5
:106C70007D221201202111480078FEF713FB2046E7
:106C800020214840ECE780202040002808D00DA0BB
:106C900004F0B8FAFFF77CFF204680214840DFE788
:106CA0000020DDE76164635F50726F636573734555
:106CB00076656E743A20307825780A001CCEFF1F66
:106CC00032300A006164634D6561737572655461A9
:106CD000736B5F4556540A0070470000F8B50446D0
:106CE0000026002516A004F08DFA2068012825D181
:106CF00000200090227B20790023A16802F036FE5C
:106D000000270BE07A00A068815A10A004F07AFAFC
:106D10007900A068405A8619781CC7B20A2FF1DBA7
:106D20000A213046FEF770FA05467D20C000684310
:106D3000020B294607A004F065FA00BFF8BD000069
:106D4000656E746572206164633A00002025782CBA
:106D5000000000006176653A307825782C56696E1F
:106D60003D2564206D560A0010B502211D20FFF755
:106D7000D3FD10BD30B58BB004464548047045A026
:106D800004F040FA01210A9107210991002108919C
:106D90000791C8210691C9000591012104917D2127
:106DA000C900039140A103C90291019001AA0621E3
:106DB0003F48FEF7E1FE09AA0121C3208000FEF74B
:106DC000DBFE0AAA01213A48801FFEF7D5FE08AA79
:106DD00002213748401FFEF7CFFE364A0B216120C3
:106DE000C000FEF7C9FE344A07213148001FFEF7F4
:106DF000C3FE07AA012131200001FEF7BDFE06AA4D
:106E000002212B48801DFEF7B7FE05AA0221284863
:106E1000C01DFEF7B1FE04AA022125480830FEF786
:106E2000ABFE03AA0221C5208000FEF7A5FE234A7F
:106E300015210020FFF77CFBFF2591352946062010
:106E4000FEF700FA29460720FEF7FCF9294608203C
:106E5000FEF7F8F929460920FEF7F4F90020C043AF
:106E6000FFF752FB0020C043FFF788F8FEF788FBCE
:106E700004F076F9124805F0EDFA00F0F3F801217C
:106E800003480078FEF720FA03F038FE0BB030BD5F
:106E900030CDFF1F0A0A0A61707057726973744916
:106EA0006E69740A0A0A0000010203040506000064
:106EB0000B03000032CDFF1F3DCDFF1F44CDFF1F50
:106EC00041C4FF1F70B506460C460120C003204098
:106ED000002810D01B480078FEF7CCF9051E05D01D
:106EE000284600F035F82846FEF7CAF92046012169
:106EF000C903484070BDE007C00F002809D0124800
:106F0000FEF7E4FF1148FEF7D9FB20460121484077
:106F1000F0E704202040002805D000F005F92046C5
:106F200004214840E6E7012040022040002806D026
:106F300003F0CAFE2046012149024840DAE700205A
:106F4000D8E7000030CDFF1F60CDFF1F18C8FF1F1E
:106F500070470000FEB50446002719481922920127
:106F60000023056841682846FDF7C2FC009001A88F
:106F700005F068F9124880680199884203D91149DF
:106F800000984018009010490198FEF73DF90099CB
:106F9000401800906846FDF773FF0746387C401C98
:106FA0002071B88A09494018E080387BE070387A4F
:106FB000A07038796070387820700020FEBD000025
:106FC00020F2FF1FC2F52800400600006C070000F9
:106FD000F1B584B001A805F035F90498FDF7F6FC89
:106FE00000260546294614A004F00CF91921890150
:106FF00000202C4637460391029020463946029BDA
:10700000039AFDF7A5FC05460E463146002201987D
:10701000281A9141094A03C208490198886008A0CA
:1070200004F0F0F81021054804F0FEF90CA004F07B
:10703000E9F805B0F0BD00002578000020F2FF1F40
:107040006170705F6461746574696D655F61646AC5
:107050007573745F626173656C696E653A0A0000EE
:107060000A00000010B500F0C7F8024800F0DAFD91
:1070700010BD00003075000003B58FB02C2104A8AE
:10708000FDF703FD10A80078401E089010A8408866
:107090001649401A099008A8C07F079008A8807F69
:1070A000069008A8407F059008A8007F049010A0D3
:1070B00004F0A8F808A8017F427F807F0192029126
:1070C000009008A8C37F10A8027841880DA004F0A2
:1070D00099F804A8FFF77CFF1021114804F0A4F9E7
:1070E00010A004F08FF8002011B000BD6C07000064
:1070F0000A6170705F6461746574696D655F736562
:10710000743A0A0054696D652069732025642D2541
:10711000642D25642C2025643A25643A25640A00F0
:1071200020F2FF1F0A00000008B50020009068460A
:1071300005F088F80B4880680099884208D909480A
:10714000016840680122091C5041064A11605060E4
:10715000044900988860044800F064FD00F01CFCBD
:1071600008BD000020F2FF1F3075000010B5FEF7CB
:1071700023F90120FEF726F9FEF72AF9002010BDB9
:10718000F0B500248E464A1E12E0714600230D1B06
:107190006D1E0AE09E0031188C46875949688F425F
:1071A00002D9815161464F605B1C9D42F2D8641C3C
:1071B0009442EAD3F0BD000010B50020054CFF2139
:1071C0002218401C51704028FADB04F015FB207097
:1071D00010BD000030F2FF1F10B50020054CFF214C
:1071E0002218401C51700628FADB04F023FB2070A3
:1071F00010BD00003DCEFF1F10B58EB003A801F0FA
:107200001BFE049A03990598019202910090079839
:10721000421C064C0898011905A0069B03F0F2FFDA
:1072200003A8FFF7D5FE0EB010BD00006C070000EC
:10723000636865636B5F64656661756C745F6461E8
:10724000746574696D650A54696D652069732025DC
:10725000642D25642D25642C2025643A25643A2567
:107260006400000010B502460B460021002000BF5C
:1072700003E0545C60404C1CE1B29942F9DB10BD64
:10728000F0B58646080CFF268446002388B23746B0
:107290001C46194601228A4005461540CD402C194E
:1072A000A4B2FF2F02D1012C00D18FB265462A4033
:1072B000CA40D21893B2FF2E02D1012B00D18EB258
:1072C000491C1029E6DB012C02D0102C08D009E063
:1072D000012B07D13001C019714608700220F0BDA2
:1072E000102B01D00320F0BD0120F0BD10B52821E6
:1072F0000148FDF7CAFB10BD10EDFF1F032800DA9F
:107300007047012189078968012282409143012247
:107310009207916000BFF3E7032800DA704701216C
:1073200089078968012282401143012292079160F6
:1073300000BFF3E701480068704700001010FF1F0E
:1073400001218907096801228240914301229207A5
:1073500011601146096801228240114301229207FF
:107360001160704730B585B004460D4603A8FFF79D
:10737000F1FD21786846017061784170408A7D2175
:107380000901401AC1B268468170017CC170C17B9D
:107390000171817B4171417B8171017BC171082148
:1073A000FFF760FF694608720921684600F04CF853
:1073B00005B030BDF8B504460F462646B178F078E2
:1073C00003F08AFB0546002D00D100E00A200546A7
:1073D000EAB23946204600F04FF8F8BD70B50446D1
:1073E0000D4600222946204600F046F870BD10B533
:1073F00086B00446217868460171617841710121A7
:107400008171002101A8C17002210171012168462A
:107410004172002101A8817101216846C1720021D9
:1074200001A8017203A90131C1208000FEF794F97F
:10743000132101A8FFF716FF6946C875142101A89A
:1074400000F002F806B010BD70B5BEB006460D469D
:10745000F8216846FDF719FB69468D70002404E0A9
:10746000315D00A803300155641CAC42F8DB68466E
:1074700005F026F83EB070BD70B5C0B004460D46AC
:107480001646207869460871012D01DD607800E01C
:1074900000206946487168468671032101A8FFF7FC
:1074A000E1FE01466846C171F82102A8FDF7EDFA38
:1074B0000421684681720179C172417902A8017183
:1074C0006846817902A841716846C17902A8817134
:1074D00004F0F6FF40B070BDF0B587B004460F462B
:1074E0000026254605A8FFF735FDA8787D2109016E
:1074F000411868464182E97801742979C173697934
:107500008173A9794173E9790173017B427B807BA7
:107510000192029100906846C37B027C418A07A0D9
:1075200003F070FE04990398FFF7A6FD0646F2B239
:1075300039462046FFF7A0FF07B0F0BD636D645FDA
:107540007365745F74696D653A2025642C25642C1D
:1075500025642C25642C252C25640A00F8B50646E4
:107560000D4617462A46314607A003F04BFE00247D
:1075700007E0A0003A5821460DA003F043FE601C2E
:10758000C4B2AC42F5DBF8BD636D64206964206968
:107590007320307825782C20706172616D65746578
:1075A00072206E756D2069732025640A000000004A
:1075B000706172616D202564203A2025730A0000F5
:1075C0007FB505460C460E4B0FCB6E460FC6002C02
:1075D00002D1062004B070BD0A4A0B49222002F0F5
:1075E00015FE68460FC803F00DF8084845600020F6
:1075F000074908704880054884600020EAE70000D9
:1076000064C8FF1F3D79FF1F2979FF1F14F2FF1F78
:1076100014EEFF1FF0B58DB000200C90614F0120DB
:1076200080023818406803903D1D002002900190B0
:10763000009001240BE0601E285C612805D1285DC4
:10764000742802D1601C84B204E0601C84B2788883
:10765000A042F0DC00BF7888A04204D152A003F021
:10766000D1FD0DB0F0BD2819029014E0285D20284E
:1076700002D0285D002802D1002028550EE0285DA8
:10768000202802DB285D7D2803DD50A003F0BAFD31
:10769000E7E7601C84B27888A042E7DC00BF02986C
:1076A000FDF760FE002803D153A003F0ABFDD8E73F
:1076B00000261EE0F1000398405A002805D0F10092
:1076C000039808184068002803D152A003F09AFDDF
:1076D000C7E7F2000398101841680298FDF7E0F937
:1076E000002804D1F1000398405A0C9003E0701C6C
:1076F00086B2202EDEDB00BF0C98002803D14FA0FD
:1077000003F080FDADE7601C84B2281901903BE0D6
:10771000285D202818D1002028550198FDF722FE69
:10772000002800D133E00099890004AA0198505044
:107730000098401CC0B200900098082800DB26E0AA
:107740002819401C01901DE0285D00280FD10198E8
:10775000FDF708FE002800D119E00099890004AA6D
:10776000019850500098401CC0B200900FE0285D76
:10777000202802DB285D7D2803DD3BA003F042FDCD
:107780006FE700BF601C84B27888A042C0DC00BFF5
:1077900001208002381804AA836800990C98984741
:1077A00000BF5EE714EEFF1F5061727365206669CB
:1077B0006C65642C20646964206E6F7420666F753C
:1077C0006E6420226174220A00000000506172730E
:1077D00065206661696C65642C20636D6420686156
:1077E0007320696C6C6567616C20636861726163AA
:1077F0007465720A00000000506172736520666152
:10780000696C65642C20636D6420697320656D70FC
:1078100074790A005061727365206661696C6564F1
:107820002C20636D64206973206E6F74206D617409
:10783000636820636D646C6973740A0050617273CD
:1078400065206661696C65642C20636D64206973D2
:10785000206E6F74206D6174636820636D646C6961
:1078600073745F310A0000005061727365206661B5
:10787000696C65642C20706172616D65746572203D
:1078800068617320696C6C6567616C206368617204
:1078900061637465720A0000F8B50646214C201D2C
:1078A00000903078012802D0022838D100E000BFD3
:1078B00077682078002804D1222002F073FC012090
:1078C00020702078012826D1002520E0785D0D2841
:1078D00002D0785D0A2811D1002162880098815475
:1078E0006088401C608002202070FFF793FE00201B
:1078F00020706080222002F0D5FC0BE0795D628868
:10790000009881546088401C6080681CC5B2307A41
:10791000A842DBDC02E0222002F0C4FC00E000BF51
:1079200000BFF8BD14EEFF1F10B500210A2002F0C1
:1079300007F901210A2002F007FA10BD10B5002155
:107940000E2002F03BFA01210E2002F037FA00214E
:107950000E2002F033FA002409E00A2002F0C6F9F2
:10796000002803D1222002F01DFC02E0641C142C2C
:10797000F3DB00BF00210E2002F020FA01210E20CF
:1079800002F01CFA00210E2002F018FA0020014932
:10799000087010BD14EEFF1F00B585B003A8FFF7F7
:1079A000D9FA6846017B427B807B0192029100906C
:1079B0006846C37B027C418A02A003F023FC05B029
:1079C00000BD000054696D652069732025642D2574
:1079D000642D25642C2025643A25643A25640A0028
:1079E000FFB583B00F461D460D9E0C9C00200290F3
:1079F00078680078796849780902401880B2019067
:107A0000714A0198811A904268D00ADC6F49401887
:107A100000280FD0012822D0022835D0032872D1A7
:107A200047E0012973D002296FD003296ED029299C
:107A3000F5D1ABE0082C02D3072002900EE008201D
:107A4000001BB04201D9304601E00820001B28701D
:107A50002A785F4801190598FDF7DCFBB0E00C2C93
:107A600002D3072002900EE00C20001BB04201D987
:107A7000304601E00C20001B28702A785548011977
:107A80000598FDF7C7FB9BE00D2C02D30720029061
:107A90000EE00D20001BB04201D9304601E00D2060
:107AA000001B28702A784C4801190598FDF7B2FB95
:107AB00086E0112C02D3072002900EE01120001B5B
:107AC000B04201D9304601E01120001B28702A780D
:107AD000424801190598FDF79DFB71E0112C02D376
:107AE000072002900EE01120001BB04201D9304661
:107AF00001E01120001B28702A78394801190598E7
:107B0000FDF788FB5CE056E001E015E029E0112C70
:107B100002D3072002900EE01120001BB04201D9D1
:107B2000304601E01120001B28702A782D480119E9
:107B30000598FDF76FFB43E0112C02D3072002905C
:107B40000EE01120001BB04201D9304601E01120A7
:107B5000001B28702A78244801190598FDF75AFB64
:107B60002EE00E2C02D3072002900EE00E20001B08
:107B7000B04201D9304601E00E20001B28702A785F
:107B80001A4801190598FDF745FB19E0072C02D3A7
:107B9000072002900EE00720001BB04201D93046BA
:107BA00001E00720001B28702A7811480119059868
:107BB000FDF730FB04E0002028700A20029000BF8F
:107BC00000BF029807B0F0BD272A0000DDD5FFFFF7
:107BD000F9C9FF1FC0C6FF1FCDC6FF1FDBC6FF1FB1
:107BE000EDC6FF1FFFC6FF1F11C7FF1F23C7FF1FE3
:107BF00009CAFF1F70B5044626460948855DFF2D5A
:107C000000D170BD0021284601F078FF00212846F0
:107C100002F008F80021284602F03CF800BFF0E727
:107C200058C8FF1F10B504462246042102480078B8
:107C3000FDF738FB10BD000030CDFF1FFFB587B04A
:107C40000C4616461F46082F05D1204606214843FC
:107C50002230C5B204E02046062148432130C5B297
:107C60001C2200216846FDF7DBFA6A461C212846E3
:107C700003F0D4F900280ED16846807E07280ADB7D
:107C80006846807E102806DCF107C90F6A46109B03
:107C90000798FDF7A3FB0BB0F0BD000070B50546DB
:107CA00000240DE00E216143074A88180622294668
:107CB000FDF79AFB002801D0204670BD601CC4B2BD
:107CC0000A2CEFDB0A20F8E79AE9FF1F70B505469A
:107CD00000240EE00E216143084A8918881D0622FF
:107CE0002946FDF781FB002801D0204670BD601CAD
:107CF000C4B20A2CEEDB0A20F8E700009AE9FF1F65
:107D00007FB504460D460A2C01DA002D02D102206F
:107D100004B070BD2146062251432031C8B26A46E4
:107D20000E2103F07BF90646002E04D10622694697
:107D30002846FDF76FFA3046EAE71FB504462146AC
:107D4000062251432031C8B26A460E2103F066F97B
:107D5000002804D168468089C0B204B010BD00205C
:107D6000FBE7014600200DE082008A5AD2438300DF
:107D7000CA52820052189278D24383005B189A70DC
:107D8000421CD0B20428EFDB70477FB505460024C3
:107D90001CE02146062251432331C8B26A46102115
:107DA00003F03CF900280FD11022FF216846FDF7AF
:107DB0003DFA002808D129466846FDF71BFB00283C
:107DC00002D1204604B070BD601CC4B20A2CE0DBB6
:107DD0000A20F7E770B5054600240A480078002815
:107DE00001D0012000E0002004430748007800286B
:107DF00001D0042000E00020044321462846FDF77E
:107E0000FFFA70BD97CCFF1F94CCFF1F08B50E483A
:107E10000078002815D0012802D0022810D10CE0EB
:107E20000120009009480388094802880948018810
:107E300009480088FDF760FE04E0FEF75BF801E00A
:107E400000BF00BF00BF08BD84CCFF1F7CCCFF1F5C
:107E50007ACCFF1F78CCFF1F76CCFF1FF8B5044605
:107E60000026A0780300FDF7F3F90805FE214A4B30
:107E70008FE3FDFE25466F78002F10D10622E91C06
:107E8000A748FDF7C7F90120A6490870A64BA748E7
:107E900002780121A6480078FDF71CFA0746002F5A
:107EA00002D007209F490870012625E12546687801
:107EB00000281CD1E878002809D09E4B9E48027803
:107EC00000219B480078FDF705FA68700FE095489F
:107ED000007802280BD0012195480078FDF700FAC0
:107EE000002804D1012192480078FDF7EDF9687867
:107EF000002803D007208B4908700126FCE000BF52
:107F00002546687800283AD1A07803280BD1854807
:107F10000078052803D106208249087032E002204B
:107F2000804908702EE08548008800280BD08448DE
:107F3000007800280AD08148028801217C48007816
:107F4000FDF7B0F902E000207D490870754800781F
:107F5000062803D105207349087013E071480078A2
:107F6000042808D101207649087001217048007862
:107F7000FDF7AAF906E003206A49087002E007202D
:107F8000684908700126B7E025466878002840D186
:107F90000622291D6B48FDF73DF968896A4908806A
:107FA000A8896A490880E8896949088005205D49EF
:107FB000087068480088002806D0664802880221B8
:107FC0005B480078FDF76EF9A88963490880E88965
:107FD00062490880288A624908806248007801283E
:107FE0000DD11F20FDF73AF907467D20C0007843E8
:107FF000024604214E480078FDF754F900BF6A8913
:10800000E8780423291DFDF7DBFA00204C490870AD
:108010000CE06878312806D1002049490870032017
:108020004049087002E007203E490870012663E0DD
:108030002546062200214348FDF7F2F80020464974
:10804000088046490880464908800421384800785D
:10805000FDF72EF9082136480078FDF729F9A879AF
:10806000082801E01FE046E003D104202D490870F4
:1080700002E003202B4908700126314800780028CF
:1080800004D02B480078FDF719F907E001202C49AE
:108090000870012126480078FDF716F90020C0433A
:1080A0002949088028E02546082121480078FDF765
:1080B000FFF8687800281DD1E888274908802889BA
:1080C00026490880688926490880042118480078D4
:1080D000FDF706F900280DD123480068002809D0D3
:1080E0002148006803681E4802881C4801881A4815
:1080F0000088984700E000BF00BF012E0ED11B484A
:10810000006800280AD0194800680068002805D0D7
:10811000164800680168034800788847F8BD0000E9
:1081200030CCFF1F29CCFF1F3BCCFF1F3ACCFF1FD9
:1081300028CCFF1F6AE9FF1F5ACCFF1F38CCFF1F56
:1081400036CCFF1F6ECCFF1F66CCFF1F68CCFF1F15
:108150006ACCFF1F6CCCFF1F7ECCFF1F80CCFF1FA3
:1081600082CCFF1F74CCFF1F8CCCFF1F88CCFF1F5D
:10817000F8B504462078912804D0A22841D0D02810
:1081800061D13AE060780E2828D12546A8882F4989
:10819000884217D1A868C07846B22D4800780528D3
:1081A0000FD17F2E0DD02B480068002809D0294818
:1081B00000684068002804D02648006841683046BE
:1081C00088470AE0A8882449884206D1A8688378AD
:1081D0004278017821A003F015F80DE060780F28AF
:1081E00001D1204608E060783E2805D120468178FC
:1081F000072900D000BF00BF26E02046FFF72EFE73
:1082000022E02546687913281CD12E46083630888E
:1082100001280BD116480078022807D108211548FB
:108220000078FDF745F8FDF765FE0AE00520FDF74B
:1082300015F807463A4608210E480078FDF732F84F
:1082400000BF00BF00E000BF00BFF8BD0514000084
:1082500029CCFF1F88CCFF1F222000005B48434928
:1082600020444C455D25642025642025640A0000D7
:1082700084CCFF1F28CCFF1F1CB506480649074BBE
:108280000022009101900648017806480078FDF729
:1082900047FE1CBD2CCCFF1F5AE9FF1F4AE9FF1FF8
:1082A0002ACCFF1F28CCFF1F7CB504461E4800883F
:1082B0001E490988884211DB1B4800881C4909882F
:1082C00088420BDC1B4800881B490988884205D17D
:1082D0001A4800881A490988884223D00520FCF7EB
:1082E000BDFF054611480188684601801048018895
:1082F000684641801048018868468180104801889E
:108300006846C1800F48027869460F480088FDF72B
:108310007DF80E4804702A4608210A480078FCF7C8
:10832000C1FF00BF7CBD00007ECCFF1F76CCFF1FCD
:1083300078CCFF1F80CCFF1F7ACCFF1F82CCFF1FA1
:108340007CCCFF1F28CCFF1F66CCFF1F84CCFF1FF7
:10835000F8B506460F46304600F046F80446002CB5
:1083600006D1114800F040F80446002C00D02680C9
:10837000002C17D0002511E0F82068436168085AE6
:10838000002809D1F821694362685018F82239465B
:10839000FCF740FF0020F8BD681CC5B20348007818
:1083A0008542E9DB0920F6E7FFFF00004CCBFF1F09
:1083B00070B50546284600F037F80446002C00D179
:1083C00070BDA068FCE703460A46002108E088006B
:1083D000105A984202D1880080187047481CC1B2D8
:1083E0000229F4DB0020F8E70246002109E0C8007A
:1083F000064B185A904202D1C800C0187047481C5A
:10840000C1B20129F3DB0020F8E7000044CBFF1FD5
:1084100070B50546284600F007F80446002C00D148
:1084200070BD2068FCE7000002460648016805E0D0
:108430008888904201D18868704709680029F7D17F
:108440000020F9E750CBFF1F70B505462846FFF71F
:10845000EBFF0446002C00D170BD6068FCE7000013
:10846000F3B581B00C46012C07D0022C29D1012193
:108470000198FCF7D1FF002823D10198FFF7B4FF42
:108480000546002D18D000260EE0F82070436968DC
:108490000F183888002800D10AE0F8220021384659
:1084A000FCF7BEFE701CC6B2064800788642ECDBC4
:1084B00000BF0020C043288003490198FDF79EFDBE
:1084C00000BFFEBD4CCBFF1F56CBFF1F70B504464F
:1084D000044D05480088288060882946FCF7A2FFE3
:1084E000002070BD3AE8FF1FEE10FF1FF3B585B006
:1084F000054628460830049000276888FFF774FF77
:108500000646002E35D00020039029E07168F8223D
:10851000039850430C182088002800D125E00498C7
:108520000078012811D1608800902379218868881B
:10853000621D0290FDF7ABFF0746002F05D000211A
:1085400004980170218806980180F82200212046B5
:10855000FCF766FE002020800398401CC0B2039008
:108560000849097803988842D0DB00BF0020C04347
:108570003080002F02D16888FCF75AFF384607B0D8
:10858000F0BD00004CCBFF1FF3B585B007463D465C
:108590000835384C162200212046FCF741FE04A87D
:1085A00000902B79698828886A1D0390FCF746FFA4
:1085B000064648E030480078C01FC0B200212F4A6C
:1085C00000920191029078882D4B69460A8A3146C3
:1085D000FDF794FD002812D1E879284909788842EE
:1085E0000DD126480278264928460830FCF7FCFEC3
:1085F000002804D0718920788200A01C81526988EB
:1086000003AB6846028A3046FCF7A0FE0646207897
:108610008100A01C405A002814D0002E09D06846C2
:1086200081892278501C20709200A01C1018418073
:1086300008E00021C9432278501C20709200A01C41
:108640001018418000BF002E04D020780D49098801
:108650008842AFDB2078002806DD78882146FCF7C9
:10866000F3FE002007B0F0BD2988069801800A209B
:10867000F8E700003AE8FF1FEC10FF1F54CBFF1F84
:1086800044E7FF1FF410FF1FF8B5054600200090D7
:1086900028790E2833D00CDC08281ED004DC0228F0
:1086A00010D0062849D112E00A281CD00C2844D149
:1086B0001FE0102829D012282DD0162831D01828D4
:1086C0003BD134E02846FFF701FF044637E0694616
:1086D0002846FFF759FF044631E06946284600F076
:1086E00077F904462BE06946284600F081FA0446F3
:1086F00025E06946284600F07FF804461FE06946F9
:10870000284600F003FA044619E06946284600F0BE
:10871000A7F8044613E06946284600F0A1FA04468B
:108720000DE06946284600F02DF8044607E069464A
:108730002846FFF7DBFE044601E0002400BF00BF2F
:10874000002C0ED0687814280BD00C4E287930708D
:10875000684600887080347168883146FCF77AFE7C
:1087600000BF2846FCF77CFE05480068002803D0BF
:108770002846034909688847F8BD00003AE8FF1F0A
:10878000A0CBFF1FF3B583B004462646083600256C
:10879000308802A9FCF7D4FD0746002F23D0387A91
:1087A00020210840002810D068460089FFF700FE0D
:1087B00001900198002806D0608812223946019B5A
:1087C0009847054600E00E2500BF002D0CD16088BB
:1087D0003146FFF7BDFD0546002D05D160883146C5
:1087E000FCF744FE00E00125002D02D031880498FA
:1087F0000180284605B0F0BDF3B587B005462E468A
:108800000836308805A9FCF79BFD069006980028DD
:1088100019D0114F11480078401EC0B271880097DE
:108820000191029068887B1C04906846828A0699B0
:108830000498FDF763FC0446002C03D16888394690
:10884000FCF71AFE00E00124002C02D031880898C1
:108850000180204609B0F0BD3AE8FF1FEC10FF1F71
:10886000F3B587B0079807460837554C0025002018
:10887000059006A800903B79798838887A1D049085
:10888000FCF7DCFD06467DE0317A079A5088FCF75C
:10889000F9FD05900598002803D07189089801809A
:1088A00073E048480078801FC0B20021464A009219
:1088B0000191029007984088444B03906846028BD0
:1088C00031460398FDF71AFC05900598002803D05F
:1088D00071890898018058E0002D04D13A48007849
:1088E000001D60700FE0617837480078001D8142FC
:1088F00000D04AE034480078291832480088801FA8
:10890000814200DD41E0B17A28466A1CD5B2A21C42
:1089100011547089001229466A1CD5B2A21C505409
:10892000798804AB6846028B3046FCF70FFD06469B
:10893000002E10D06846008AC1B228466A1CD5B203
:10894000A21C11546846008A001229466A1CD5B23E
:10895000A21C50540AE0FF2128466A1CD5B2A21C72
:10896000115428466A1CD5B2A21C1154A11C4819E6
:1089700015490A781549FCF74DFC1348007828186A
:10898000C5B200BF002E00D07EE700BF002D0CDD79
:1089900061782846FCF732FC207007994888214608
:1089A000FCF776FD002009B0F0BD0598002801D144
:1089B0000A2005903988089801800598F3E700009F
:1089C0003AE8FF1FEC10FF1F54CBFF1F44E7FF1FC7
:1089D000F3B589B00746384608300890464D0898E8
:1089E0000088079000240020069067E005A800900A
:1089F000089803794188421D0798FCF71FFD064639
:108A0000002E00D15FE070890790317A7888FCF7FA
:108A100039FD06900698002800D054E037480078C9
:108A2000001FC0B20021364A00920191029078885E
:108A3000344B04906846828A31460498FDF75EFB09
:108A400006900698002800D03DE0002C04D12C4868
:108A50000078801C687006E0697829480078801CDE
:108A6000814200D02FE02648007821182348008852
:108A7000001F814200DD26E0B17A2046621CD4B29C
:108A8000AA1C1154708900122146621CD4B2AA1C7F
:108A90005054A91C08191A490A781A49FCF7BAFB5C
:108AA000174800782018C4B217490798884200D1A7
:108AB00009E00798401C80B2079000BF0F4800886B
:108AC000001FA04292DA00BF002C0BDD697820461F
:108AD000FCF794FB287078882946FCF7DFFC00201F
:108AE0000BB0F0BD0698002801D10A2006900A9923
:108AF000079808800698F3E73AE8FF1FEC10FF1F7D
:108B000054CBFF1F44E7FF1FFFFF0000F3B587B002
:108B1000064637460837324C002006902070002564
:108B200049E06900785A04A9FCF70AFC0590059809
:108B3000002806D1012006906800395A0898018063
:108B400042E028480078401EC0B20021264A009228
:108B5000019102907088254B03906846028A05991E
:108B60000398FDF7CBFA06900698002804D0680019
:108B7000395A0898018027E020781B490978411864
:108B800018480088401E814206DD16480078401EC5
:108B90002178401A144908702278611C5018124933
:108BA0000A781249FCF736FB20780F4909784018FB
:108BB0002070681CC5B2B87DA84205DD217809483F
:108BC0000088401E8142ACDB00BF0698002803D11C
:108BD00070882146FCF768FC069809B0F0BD0000DB
:108BE0003AE8FF1FEC10FF1F54CBFF1F44E7FF1FA5
:108BF000F0B587B005460F4628460830069006991E
:108C0000088804A9FCF79CFB05900598002819D05A
:108C1000114E12480078401EC0B20021009601910A
:108C200002906888731C03906846028A059903982D
:108C3000FDF764FA0446002C03D168883146FCF73E
:108C400039FC00E00124002C02D00698008838800E
:108C5000204607B0F0BD00003AE8FF1FEC10FF1FF0
:108C6000F3B583B005462C4608340027208802A9B6
:108C7000FCF766FB0646002E2CD0307A20210840F7
:108C8000002810D068460089FFF792FB01900198F8
:108C9000002806D0688812223146019B9847074673
:108CA00000E00E2700BF002F15D100200090A37810
:108CB00021886888E21C0190FDF7E9FB0746002F38
:108CC00009D1F820005D002805D16888FCF7F8FB81
:108CD000019000E00127002F02D021880498018034
:108CE000F820005D002802D0002005B0F0BD384615
:108CF000FBE7000070B505460E46002D01D10220AD
:108D000070BD0C20FCF7E2FB0446002C01D11320BF
:108D1000F6E700202060A580A660094800680028CA
:108D200002D10748046008E00549086800E00068CF
:108D300001680029FBD1046000BF0020E0E70000CB
:108D400050CBFF1FF8B50446F820604380B2009076
:108D500000201E4908701E48406800280AD00020E4
:108D600006E00021C2001A4BD2185160411CC8B263
:108D70000128F6DB174D002D26D000212846009A49
:108D8000FCF74EFA002019E001466143CAB2F8210F
:108D900051434919C3000E4E9B195960002109E047
:108DA0000023C6000A4FF6197668F8274F43F3539D
:108DB0004B1CD9B2A142F3DB411CC8B20128E3DB52
:108DC000024804700020F8BD1320FCE74CCBFF1FC5
:108DD00044CBFF1F4CE6FF1FFFB585B005460C4690
:108DE00016460E9F00200490207802281CD160684F
:108DF0000078616849780902401880B203900D49F3
:108E00000398401800280AD10220009701903246AA
:108E100021462846089BFDF717F9049002E001203F
:108E2000049000BF00BF01E001200490049809B045
:108E3000F0BD0000FED6FFFF70B588B004460026E6
:108E400038A002F0DFF93AA002F0DCF935A101A860
:108E5000FCF742FB39A101A8FBF730FE06460025CE
:108E60000CE0A800364A115801A8FBF719FE0028AB
:108E700003D1681C6946087702E06D1C0C2DF0DBFD
:108E800000BF2EA10020FBF719FE06463046FBF777
:108E900039FEC1B26846C17628A10020FBF70EFE5C
:108EA00006463046FBF72EFE81B26846C18320A1FC
:108EB00001A8FCF711FB23A101A8FBF7FFFD064663
:108EC0003046FBF71FFEC1B2684681761DA1002027
:108ED000FBF7F4FD06463046FBF714FEC1B26846C8
:108EE000417618A10020FBF7E9FD06463046FBF766
:108EF00009FEC1B268460176007F401E20616846C7
:108F0000C08B1149401A60616846C07EE0606846C7
:108F1000807EA0606846407E60606846007E20607B
:108F200008B070BD4F6374202039203230313900D1
:108F300031373A35343A3135000000002000000066
:108F400074C8FF1F3A0000006C07000030B50146EE
:108F5000002010E08400094D6419E46CA2B2840082
:108F60006419E46C230C84000A534400641C6400FC
:108F70000B53421CD0B20928ECDB30BD80400240CC
:108F8000FEB50D4614461E460020009008980028A5
:108F900001DD0B20FEBD287802285BD168680078CF
:108FA000696849780902401880B201901521490288
:108FB0000198401A0300FCF74BF9050413231B2901
:108FC0004700E868FCF7CEF9C7B20998874200DD90
:108FD000099F37703A462046E968FCF71BF938E0EC
:108FE000E96808880221317020700112617030E058
:108FF0000620307006222046E968FCF70BF928E0CD
:1090000001203070E8680078207022E0E8680028CD
:1090100017D0E868082131700178217001880912A1
:1090200061708178A17041880912E1700179217124
:109030008188091261718179A171C1880912E17178
:1090400001E00020307004E000203070012000902A
:1090500000BF03E00020307001200090009899E7E5
:1090600010B502230340002B04D00B7802242343C5
:109070000B7003E00B780224A3430B70082303401A
:10908000002B04D00B78082423430B7003E00B78EB
:109090000824A3430B7020230340002B04D00B783B
:1090A000202423430B7003E00B782024A3430B7090
:1090B00002230340002B07D108230340002B03D1D8
:1090C00020230340002B04D013780C242343137077
:1090D00005E0002803D113780C24A343137010BDBE
:1090E000FEB50C4616461F46089D002002902078CB
:1090F000022877D1606800786168497809024018D1
:1091000080B20190152149020198401A06D0012829
:1091100031D0022868D0032873D151E0E068FCF711
:1091200021F9C0B200900098854205DCE8191528A5
:1091300004DD0D20029001E0072002900298002833
:1091400018D1E16848193A463146FCF763F8E81946
:1091500085B20020E168485535480068002809D0EC
:10916000334800680068002804D03148006801686E
:109170000020884755E0002D04D1022F04D00D2097
:10918000029001E00B2002900298002817D1E068BD
:109190000090307871780902401881B200980180FF
:1091A00023480068002809D021480068006800288A
:1091B00004D01F48006801680120884700BF30E0E4
:1091C000002D04D1062F04D00D20029001E00B20C9
:1091D00002900298002804D106223146E068FCF78C
:1091E00019F81EE01FE0FFE7002D0ED1012F09D175
:1091F000307800280BD03078012808D080200290E9
:1092000005E00BE00D20029001E00B200290029897
:10921000002802D13078E168087002E00120029055
:1092200000BF00BF01E0012002900298FEBD0000D7
:10923000A4CBFF1F10B502460B46122A01DB052006
:1092400010BD1248816B0120904001430F4881639B
:10925000416B012090400C46844321460B484163FA
:10926000C16B002B03D101209040014304E0012099
:1092700090400C46844321460448C163016B0120A1
:1092800090400143014801630020D9E7008000407D
:1092900010B50246042A11DA002907D013484069A4
:1092A000012393401843114B58611CE00F4840695B
:1092B0000123934098430D4B586114E0002909D0D5
:1092C0000A4840691346123B01249C402043074B47
:1092D000586108E0054840691346123B01249C4050
:1092E000A043024B5861002010BD00000038004030
:1092F00070B500241BE00F48005D022807DDE0B2D6
:1093000000F0F4FC0546E0B2294600F01DFD232CD8
:109310000CDA0848005D022808DDE0B200F0E6FC47
:109320000C216143034A233289184870641C232CA2
:10933000E1DB70BD49EBFF1F10B502211020FDF7E6
:10934000AFFA1020FDF728FA00240CE00C2060434F
:109350000649085C002805D0E0B200F05DFDE0B2EF
:1093600000F078F8641C232CF0DB10BD6CEBFF1FC1
:10937000F3B581B00646234D002440E00120A04013
:10938000304000283AD00120A0400299084000282F
:1093900001D1012000E000200746E0B2394600F08C
:1093A00033F80C20604340194068002810D00C208E
:1093B00060434019806800280AD0002F01D10120A5
:1093C00000E000200746E0B23946FFF733FF14E023
:1093D0000C20604340194068002804D0E0B200210E
:1093E000FFF728FF09E00C2060434019806800283F
:1093F00003D0E0B20121FFF71DFF00BF641C122C57
:10940000BCDBFEBD6CEBFF1F70B504460E46104D75
:109410000C20604340194068002808D0002E06D177
:109420000C20604340194268204690470EE00C2013
:10943000604340198068002808D0012E06D10C2016
:1094400060434019012182682046904770BD0000AA
:109450006CEBFF1F70B50446204600F047FC054644
:10946000002D01D1012000E0002006460C206043C1
:10947000044940184078A84203D031462046FFF7FF
:10948000C3FF70BD6CEBFF1F30B595B02A48406B31
:10949000400A40022849486300243DE02648C06B4A
:1094A0008005800D0121A1400840002832D0002510
:1094B0000BE0E00121494118E81C80000858000534
:1094C000000D690005AA50526D1C1D2DF1DB1A48D4
:1094D000806B0121A1400843174988631848007830
:1094E000002800D117E0A1001548001D40580028B1
:1094F0000FD0012001906846047205A803901D2139
:1095000068460174A2000E48001D815801A88847D2
:1095100000BF00BF00BF641C082CBFDB08484078B8
:10952000002801D100F0CEF90348406B05490843FB
:109530000149486315B030BD0000054000040540F6
:1095400010EDFF1FFF01000070B50548C56B044812
:1095500040300468C46029462046FFF709FF70BD0B
:109560000080004000B58BB025480078012802D16A
:10957000002023490870234A51881078FBF798FE91
:1095800002A8FFF7E3FC1F4840380079012802D108
:1095900002A802F0D5FB1B484038006900280FD014
:1095A00002AA18492839684601F048FA6846007846
:1095B000002804DD1348403801696846884700BF29
:1095C000242202A90F482838FBF746FA0E484068C3
:1095D0000121490408430C494860084640680121BC
:1095E000084309494860074B403B1B7D1A460A3235
:1095F000044B59881878FBF755FE0BB000BD0000EE
:1096000030CEFF1FF0EDFF1FC040024038B50F4CB9
:109610000F4D286BC007C00F002802D0A86C009027
:1096200038BD2069002800D1FAE7207D002805D048
:10963000074A2146002002F0AAFD04E0044A214620
:10964000002002F00BFD00BFEAE70000D0EAFF1F98
:109650000060004038B50F4C0F4D286BC007C00F9D
:10966000002802D0A86C009038BD2069002800D1E5
:10967000FAE7207D002805D0074A2146012002F0A4
:1096800086FD04E0044A2146012002F0E7FC00BF09
:10969000EAE70000FCEAFF1F0070004010B5114827
:1096A00080680407240F062C14D004DC022C0ED092
:1096B000042C14D107E0072C0DD00C2C0FD1022064
:1096C00001F038F90BE0012001F034F907E001F076
:1096D00065F904E003E003484030C06B00BF00BF01
:1096E00010BD00000040004037B5044615463D4817
:1096F0000078002801D112203EBD3B4800780028A8
:1097000001D01120F8E7002D01D10620F4E7082C44
:1097100001D0002C01D10520EEE7012C09D06846CC
:109720004079002805D0E007C00F002801D00620AE
:10973000E2E7684640792C498870A1002A48001D5C
:1097400045501120FDF7E8FD2848C06B4021084333
:109750002649C86325484030006801218904084330
:1097600022494031086008464068802108431F496B
:1097700040314860084640680121490588431B493B
:109780004031486008464068491408431749403151
:1097900048600846C06B1021084314494031C86333
:1097A000684642798179204602F074FB6846407928
:1097B00000280CD0204602F02BFB02F04FFB204685
:1097C00002F016FB611CC8B202F012FB08E0204652
:1097D00002F01EFB204602F00FFC204602F008FBC0
:1097E000002089E720CEFF1F10EDFF1F00F0004092
:1097F00010B5012004490870044A0021112000F02E
:1098000005FDFDF773FD10BD20CEFF1F696DFF1F25
:1098100010B50D480078002815D101200A490870BC
:109820000A4800680005000D0949088007480068DB
:109830000001000D07490880084602880448018895
:1098400005A001F0DFFC10BD21CEFF1F00100011AC
:1098500024CEFF1F22CEFF1F41445F43414C5B25B6
:10986000782025785D0A000010B51048007800289F
:1098700001D1122010BD01200D490870112000F007
:1098800091FC0C488068082108430A4988601D2023
:10989000002805DBC206D20E01219140064A116064
:1098A00000BF0648064948630020E3E720CEFF1FBB
:1098B00010EDFF1F40F0004000E100E0FF0100005C
:1098C0000000054010B523480078002801D112207F
:1098D00010BD2148214948631D20002815DBC20620
:1098E000D20E012191401E4A116000BF00BF00BF8F
:1098F000BFF34F8F00BF00BF00BF00BF00BF00BF5E
:10990000BFF36F8F00BF00BF00BF00BF1548806866
:1099100008218843134988600846406849148843F1
:1099200010494860002408E0A1000F484058002872
:1099300002D0E0B2FEF75EF9641C092CF4DB1120C2
:10994000FDF7DCFCFDF7D2FC112000F0ABFC0020A1
:10995000BEE7000020CEFF1FFF0100000000054011
:1099600080E100E040F0004014EDFF1FFFB587B03C
:1099700007461446109D002006900590002609E039
:1099800071000898405A0105090D069808180690BC
:10999000701CC6B2A642F3DBFFF73AFF2046FBF786
:1099A00016FA04900698FBF707FA03900499FBF760
:1099B0004CF905904E4800884E49884279D04E486F
:1099C0000088884275D04A4909884B4A1288881A0B
:1099D000FBF704FA002201239B0701910090FBF79B
:1099E00073F903910290FBF70DFA0490F807C00F8A
:1099F00000282ED0002D1AD03D4909883E4A1288F1
:109A00008818FBF7D9F94521090603900598FBF75B
:109A1000D7F800900499FBF7D3F80121890701904A
:109A2000FBF7D6F802900399FBF70FF90FE03049E6
:109A30000988314A12888818FBF7BEF90390049907
:109A40000598FBF76CF802900399FBF7FEF8059078
:109A50002DE0002D1AD026490988274A1288881837
:109A6000FBF7AAF94521090603900598FBF7A8F82A
:109A700000900499FBF7A4F8012189070190FBF7F6
:109A8000A7F802900399FBF7E0F80FE0184909885E
:109A9000194A12888818FBF78FF9039004990598E2
:109AA000FBF78EF802900399FBF7CFF8059013E0CF
:109AB000FFE7002D0AD0452109060598FBF7C5F8F8
:109AC0007F21C9050490FBF77BF804E08B21C905D1
:109AD0000598FBF7BAF805900A98002805D181216E
:109AE000C9050598FBF774F8059005980BB0F0BD13
:109AF00022CEFF1FFF0F000024CEFF1F70B50646C9
:109B00000C4630460B38012181400D46002C0DD00B
:109B10000021304601F054FB0021304600F0BAF835
:109B20000648006828430549086004E003480068C7
:109B3000A84302490860002070BD000000380040C2
:109B400030B50246D406E40E0120A04003460029A9
:109B50000BD0501180000B4C0019C06818435411F1
:109B6000A400084D6419E0600AE050118000054C23
:109B70000019C06898435411A400024D6419E060B4
:109B8000002030BD0038004030B504460D460121AC
:109B90002046FFF7D5FFA01080000A4940188069D1
:109BA000A107CA0EFF2191408843A107CA0E29468A
:109BB00091400843A1108900024A89188861002059
:109BC00030BD00000038004010B511480078002872
:109BD00001D0072010BDFF21C9310D48FAF755FF0C
:109BE00001200B49087000200A49086348630A49AC
:109BF0000862486202211020FCF752FE1020FCF798
:109C0000CBFD064A06490D2000F000FB0020E1E7ED
:109C100048EBFF1F0080004080F000403993FF1F99
:109C2000F192FF1F70B504460E46042C03DB222C74
:109C300005DC1F2C03DB01212046FFF729FB002157
:109C40002046FFF77DFF122C0FDA0125A540002EDC
:109C500005D00F48406828430D49486016E00C487D
:109C60004068A8430A49486010E0204612380125A0
:109C70008540002E05D00648006928430449086144
:109C800004E003480069A84301490861002070BD51
:109C900000800040F3B581B00C4626460A210198A9
:109CA000FBF7ACFA48000818451C0120A840691CC5
:109CB00001228A401043C7430A210198FBF79EFA0C
:109CC000800009494018806807403046A840384362
:109CD00006460A210198FBF791FA800002494018D4
:109CE00086600020FEBD000000F0004030B5034655
:109CF000122B0FDA01229A40124844681440002CBB
:109D000001D0016802E00F48403001690846104068
:109D1000014610E0184612380122824009480469C1
:109D20001440002C01D0C16802E00648403041696F
:109D3000084610400146002901D0012030BD002016
:109D4000FCE7000000800040F3B581B00C460A211A
:109D50000198FBF753FA48000818C6B20121019890
:109D600000F0C6FD0120B0400546002C11D00A21AC
:109D70000198FBF743FA80000F49401887682F438A
:109D80000A210198FBF73AFA80000B4940188760D6
:109D900010E00A210198FBF731FA800006494018CB
:109DA0008768AF430A210198FBF728FA800002492F
:109DB000401887600020FEBD00F0004070B50546E9
:109DC0000E4601212846FFF72DFF122D0FDA012440
:109DD000AC40002E05D00F48006820430D490860B4
:109DE00016E00C480068A0430A49086010E02846C5
:109DF000123801248440002E05D00648C068204354
:109E00000449C86004E00348C068A0430149C86031
:109E1000002070BD00800040F8B504462A4D0126A0
:109E200000270C20604340194068002807D10C200F
:109E3000604340198068002801D11220F8BD122C1F
:109E400004DB032120482338015503E004211E4888
:109E50002338015501210C2060432954002120465C
:109E6000FFF7E0FE0C20604340194068002815D041
:109E70000C2060434019806800280FD02046FFF76F
:109E800035FF0746002F01D0012000E000200646E4
:109E900031462046FFF7CEF90020CFE70C20604383
:109EA00040194068002801D0002606E00C206043DD
:109EB00040198068002800D0012631462046FFF76F
:109EC000B9F90020BAE700006CEBFF1F10B50B4892
