:020000041FFFDC
:1008000000000000C98DFF1F34A0FF1F58A0FF1F6C
:1008100040A5FF1F000000000000000000000000D5
:1008200000000000000000000000000000000000C8
:1008300000000000000000000000000000000000B8
:1008400000000000000000000000000000000000A8
:100850000000000000000000000000000000000098
:100860000000000000000000000000000000000088
:100870000000000000000000000000000000000078
:100880000000000000000000000000000000000068
:100890000000000000000000000000000000000058
:1008A0000000000000000000000000000000000048
:1008B0000000000000000000000000000000000038
:1008C0000000000000000000000000000000000028
:1008D0000000000000000000000000000000000018
:1008E0000000000000000000000000000000000008
:1008F00000000000000000000000000000000000F8
:1009000000000000000000000000000000000000E7
:1009100000000000000000000000000000000000D7
:1009200000000000000000000000000000000000C7
:1009300000000000000000000000000000000000B7
:1009400000000000000000000000000000000000A7
:100950000000000000000000000000000000000097
:100960000000000000000000000000000000000087
:100970000000000000000000000000000000000077
:100980000000000000000000000000000000000067
:100990005985FF1FED85FF1F6D97FF1F00000000A9
:1009A0000000000000000000000000000000000047
:1009B0000000000000000000000000000000000037
:1009C0000000000000000000000000000000000027
:1009D0000000000000000000000000000000000017
:1009E0000000000000000000000000000000000007
:1009F00000000000000000000000000000000000F7
:100A000000000000000000000000000000000000E6
:100A100000000000000000000000000000000000D6
:100A200000000000000000000000000000000000C6
:100A300000000000000000000000000000000000B6
:100A400000000000000000000000000000000000A6
:100A50000000000000000000000000000000000096
:100A60000000000000000000000000000000000086
:100A70000000000000000000000000000000000076
:100A80000000000000000000000000000000000066
:100A90000000000000000000000000000000000056
:100AA0000000000000000000000000000000000046
:100AB0000000000000000000000000000000000036
:100AC0000000000000000000000000000000000026
:100AD0000000000000000000000000000000000016
:100AE0000000000000000000000000000000000006
:100AF00000000000000000000000000000000000F6
:100B000000000000000000000000000000000000E5
:100B100000000000000000000000000000000000D5
:100B200000000000000000000000000000000000C5
:100B300000000000000000000000000000000000B5
:100B400000000000000000000000000000000000A5
:100B50000000000000000000000000000000000095
:100B60000000000000000000000000000000000085
:100B7000C988FF1F00000000000000000000000006
:100B80000000000000000000000000000000000065
:100B90000000000000000000000000000000000055
:100BA000000000000000000000000000317CFF1F7A
:100BB0000000000000000000000000000000000035
:100BC000197CFF1F00000000000000000000000072
:100BD0000000000000000000000000000000000015
:100BE0000000000000000000000000000000000005
:100BF00000000000857BFF1F0000000000000000D7
:0C0C000001FF01FF01FF01FF41000000A7
:020000041FFFDC
:10480000A8CCFF1FD548FF1FDD48FF1FDF48FF1F53
:104810000000000000000000000000000000000098
:10482000000000000000000000000000E148FF1F41
:104830000000000000000000E348FF1FE548FF1FE4
:104840000000000000000000000000000000000068
:104850000000000000000000000000000000000058
:104860000000000000000000000000000000000048
:104870000000000000000000000000000000000038
:104880000000000000000000000000000000000028
:104890000000000000000000000000000000000018
:1048A0000000000000000000000000000000000008
:1048B00000000000000000000000000000000000F8
:1048C0000348854600F024FA004800475D8DFF1F2D
:1048D000A8CCFF1F0448804704480047FEE7FEE7D6
:1048E000FEE7FEE7FEE7FEE74562FF1FC148FF1F48
:1048F00003460B439B0703D009E008C9121F08C0F9
:10490000042AFAD203E00B780370401C491C521EA3
:10491000F9D27047D2B201E00270401C491EFBD2AE
:1049200070470022F6E710B513460A4604461946BA
:10493000FFF7F0FF204610BDF8B502464A40D40FFD
:1049400042004B0052085B089A4202D202460846D7
:1049500011464A0023D0C30D4A00DDB2120EAD1A33
:10496000202D35DA49020126490AF6058A19002C5C
:1049700000D0524220214F1B1146B9402A41101845
:10498000C20D9A4221D0002C17D0012D08DCDA0587
:10499000801AD20F8019D207DBB200F021F9F8BDDE
:1049A000DA05801A012340001B06C01880185A42FD
:1049B0008018CA0F1043490007E04908C207114395
:1049C000DA05801A80194008801800F001F9F8BD56
:1049D00061000122511A001BF7E70122D207514062
:1049E000AAE70122D2075040A6E7024670B54A4026
:1049F000D30FDB0740002DD04A002AD0010E140E41
:104A0000000212020919400A520A8418E5010446FC
:104A10005443000A120A2E045043A4194219200CD0
:104A2000C543AA18120C0125AD03521C52191204D9
:104A30007F39240400D0521C104301D44000491E89
:104A4000C2B20C06C0092018401C4008802A02D0BF
:104A500003E0002070BD40084000002900DA00207B
:104A6000184370BD70B502464A40D50F40004A0059
:104A7000ED0740085208002814D0002A12D0C40DB7
:104A8000D30D41020120C0055202490A520AE41A1C
:104A9000091812187D34914201D3641C00E04900CA
:104AA000002C01DA002070BD0023914201D3891A45
:104AB0000343400849000028F7D100290AD0914259
:104AC00002D10121C90705E0914201D2012101E093
:104AD0000121C943E005C018401900F079F870BD04
:104AE000420005D04200120E52428A4201DB0020F1
:104AF0007047C9050818704770B54B005B08034341
:104B00000BD04B005C0D002633466542B341D417F1
:104B1000AD1AA34102DB0020014670BD120530181A
:104B2000514170BDC217C10F504010B54018CA079F
:104B30009623002100F054F810BD10B500229623F2
:104B4000114600F04DF810BD0EB5C217C10F504010
:104B5000CA0740180021054B0293019200910A46B2
:104B60000B4600F083F803B000BD000033040000E2
:104B7000410040020122400AD205090E80187F2917
:104B800001DA00207047962903DC9622511AC840AA
:104B90007047963988407047CB0FDB07490010B546
:104BA000490802460A4307D00A0D07240903E40115
:104BB000090B121B002A01DC002010BDC900440FA4
:104BC0000C43C100E018D205801800F001F810BDB8
:104BD000002904DA401C490001D140084000704718
:104BE00070B40024050C05D11024000402D1002962
:104BF00021D01124050E01D100020834050F01D186
:104C00000001241D850F01D18000A41C002801DBB8
:104C10004000641C002908D020252E1B0D46F540BD
:104C2000A14000D001212943084301061B1B000AB3
:104C3000DB1D02D5002070BC7047DB0518188018FA
:104C40000029F8DA401C4900F5D170BC400840004A
:104C5000704710B5002B08DA0024401C61419218FF
:104C60005B411A4301D14008400010BDF0B51FB4AC
:104C700082B005460C0003D0084601F001FB02E0BB
:104C800001F0FEFA2030024600902146284600F04E
:104C900051F8049B059A04460F46184311430843F4
:104CA00014D0184610431BD0009840210A1A184609
:104CB000059900F04FF805460E46009A05990498AC
:104CC00000F038F8084305D0012004E020463946BA
:104CD00007B0F0BD0020C11705430E432C433743F6
:104CE00000990E986305401A7905E40A00220C43E6
:104CF000FD0A0A3002D500200146E9E70105101936
:104D000069410C9C0D9D00196941FFF7A2FFDFE787
:104D1000064C0125064E05E0E36807CC2B430C3C0E
:104D200098471034B442F7D3FFF7CEFD84A0FF1F9D
:104D3000D4A0FF1F10B5202A04DB0146203A914081
:104D4000002010BD914020239C1A0346E3401943E4
:104D5000904010BD10B5202A04DB0846203AD04010
:104D6000002110BD0B46D340D0402024A21A914010
:104D70000843194610BD70B58C180578401C6B07A8
:104D80005B0F01D10378401C2A1106D10278401C28
:104D900003E006780E70401C491C5B1EF9D12B07FE
:104DA00005D40023521E0DD40B70491CFAE703787A
:104DB000401CCB1A921C03E01D780D70491C5B1C33
:104DC000521EF9D5A142D8D3002070BD03B40148CA
:104DD000019001BDC13C010003B40148019001BD37
:104DE000ED3C010003B40148019001BD1910000021
:104DF00003B40148019001BDC93A010003B4014860
:104E0000019001BD5518000003B40148019001BD97
:104E10008117000003B40148019001BD351800005E
:104E200003B40148019001BDA53C010003B4014851
:104E3000019001BD3917000003B40148019001BD84
:104E40007181000003B40148019001BD2D150000DF
:104E500003B40148019001BD6941010003B4014858
:104E6000019001BD3914000003B40148019001BD57
:104E70001117000003B40148019001BDF13E01008B
:104E800003B40148019001BD1B3D010003B401487A
:104E9000019001BD7114000003B40148019001BDEF
:104EA000C131000003B40148019001BDB1420100CD
:104EB00003B40148019001BDD542010003B401488B
:104EC000019001BDC912000003B40148019001BD69
:104ED0003D42010003B40148019001BD5D1900008D
:104EE00003B40148019001BD593A010003B40148DF
:104EF000019001BDC118000003B40148019001BD3B
:104F00003515000003B40148019001BD41170000B0
:104F100003B40148019001BDE915000003B4014844
:104F2000019001BD897B000003B40148019001BDDF
:104F3000D520000003B40148019001BDA5E50000A3
:104F400003B40148019001BDC91F000003B401482A
:104F5000019001BDB51E000003B40148019001BDE0
:104F60003D1C000003B40148019001BD0D1D00006F
:104F700003B40148019001BD8306000003B4014859
:104F8000019001BD0143010003B40148019001BD3E
:104F9000E120000003B40148019001BDED3A010099
:104FA00003B40148019001BDF53C010003B4014880
:104FB000019001BD5D3F010003B40148019001BDB6
:104FC000DD21000003B40148019001BD55900000AF
:104FD00003B40148019001BD7D3A010003B40148CA
:104FE000019001BD913F010003B40148019001BD52
:104FF000A942010003B40148019001BD113A01002A
:1050000003B40148019001BD4D2A000003B40148DA
:10501000019001BD292A000003B40148019001BD9F
:10502000D136000003B40148019001BD01E6000043
:1050300003B40148019001BDBD07000003B401485D
:10504000019001BD891C000003B40148019001BD1D
:10505000E907000003B40148019001BD6D0700009D
:1050600003B40148019001BDFD0E000003B40148E6
:10507000019001BD2D0E000003B40148019001BD57
:105080003D07000003B40148019001BD211A000052
:1050900003B40148019001BD050E000003B40148AE
:1050A000019001BD8922000003B40148019001BDB7
:1050B0006902000003B40148019001BD610E0000C7
:1050C00003B40148019001BD9D0E000003B40148E6
:1050D000019001BDD50E000003B40148019001BD4F
:1050E000610F000003B40148019001BD85BE0000BE
:1050F00003B40148019001BDE997000003B40148E1
:10510000019001BD3D98000003B40148019001BD2C
:10511000E58D000003B40148019001BD497701000D
:1051200003B40148019001BD8D3C010003B4014866
:10513000019001BDE55B000003B40148019001BD91
:10514000E129000003B40148019001BD9937000036
:1051500003B40148019001BD5114000003B401489B
:10516000019001BD091F000003B40148019001BD79
:10517000A579000003B40148019001BD410300007E
:1051800010B5034A1321034800F076FE10BD00005D
:10519000E09FFF1FE8A0FF1F10B500241346002862
:1051A00002D00224204610BD0A4619460148FFF7E6
:1051B0000DFEF7E7DFA0FF1FFFB595B000251095A6
:1051C00010AA119500F0A6F806460A287CD20446DB
:1051D0000620444320462030C0B26A460E2103F028
:1051E00027FE002802D168468089C5B2179813901F
:1051F000404818990078022813D0002012900829FE
:1052000011D020462130C7B21C2200216846FFF78A
:10521000E3FD6A461C21384603F00AFE002805D04B
:1052200010E00120EAE720462230ECE76846807E65
:10523000C01F092806D8E907C90F6A46129B1398B0
:10524000FFF7D0FD1422002107A8FFF7C5FD204677
:105250002430C0B207AA102103F0EAFD002812D1C1
:105260001022FF2107A8FFF7C3FD00280BD125342A
:10527000E0B20BAA042103F0DBFDE907C90F07AA7E
:105280001798FFF7BBFD7036F0B20CAA102103F09F
:10529000CFFD002811D10CA801F055FC00240CAE64
:1052A000A00080190188002903D08278179800F0A7
:1052B0003FFE641CE4B2042CF2D3A80704D50D48C9
:1052C000017B179800F022FE189804280FD1094995
:1052D000087802280BD10A791798002A00D00122F9
:1052E0004978002900D004211143FFF78DFD0020EB
:1052F00019B0F0BD20A2FF1F10B5054CA061217BA5
:105300002620FFF787FD207B00F0B0FD10BD0000D8
:1053100020A2FF1FF0B50A2485B015460F460028CD
:1053200006D0012804D0022810D0032846D11FE05F
:10533000084601F0D5FB04460A283FD2002D3DD097
:10534000062239462846FFF741FD37E01D4E00246E
:105350000E206043801906223946801DFFF760FD4C
:10536000002823D1641CE4B20A2CF1D30A241DE0E6
:1053700000242046062148432330C0B26A4610214B
:1053800003F056FD00280CD11022FF216846FFF7DC
:105390002FFD002805D139466846FFF747FD002854
:1053A00004D0641CE4B20A2CE3D3DFE70A2C05D254
:1053B000002D03D02946204601F0AAFB204605B067
:1053C000F0BD000084BDFF1FFEB51546012292020C
:1053D000821A00240127524E1300FFF72DFD110AF7
:1053E00011161D242B333A3F4772798189979752C2
:1053F000970001297ED1287802287BD830708DE073
:10540000022977D12888F08188E0012972D1287893
:1054100001286FD8707081E001296BD128780428A9
:1054200068D8B0707AE0012964D12878012861D861
:10543000F07073E010295DD1102229463948FFF73A
:10544000C5FC6BE0012955D12878012852D830716C
:1054500064E001294ED12878F0715FE0042949D138
:1054600031492868884245D8706157E0002941D108
:10547000FFF7E8FC002801D0B7724FE001F0B2FA64
:1054800019E0072936D10622691C6846FFF7E0FCBF
:10549000287800226946FFF73DFF05460A280ED20C
:1054A000FFF7D0FC002803D01E489C30475535E05C
:1054B000284601F0A3FA502003F0B8FC23E00224B0
:1054C0002CE0012916D12878012813D8707125E025
:1054D00001290FD1287809280CD8B0711EE009E005
:1054E000012907D12878C11F092903D8307215E096
:1054F000012901D0182411E0717A287870720029EE
:105500000CD101280AD101F02DFB07E02728D6D2C3
:105510000229D4D12988FFF77DFC04462046FEBD30
:1055200020A2FF1F74BDFF1F3F420F0070B50C4645
:105530000146032000020A1A002534481300FFF731
:105540007BFC1D1012151C1F2326282C30323438EA
:105550003A3C3E40424446484A4E50525A545658AD
:105560005A00C07911E01022294902E0284910228E
:1055700010312046FFF72AFC45E0C06A206042E077
:10558000224906223C31F4E7007820703BE0808914
:1055900036E01E4942784231EBE71D4982781F39D7
:1055A000E7E7007AF1E7407AEFE718490622303161
:1055B000DFE7807AE9E7C07AE7E7C08920E0808A00
:1055C0001EE0C0781CE0C08A1AE0008B18E0408B17
:1055D00016E0808B14E00D4906223631C9E7C08BF6
:1055E0000EE0008C0CE0408C0AE08079CDE7008A68
:1055F00006E0408A04E0272904D20846FFF72EFC83
:10560000208000E00225284670BD0000C8A2FF1FD0
:105610004FBEFF1F70B50E4C00256071A571691E4D
:10562000E181FFF721FC0420E071102200210948EC
:10563000FFF7D2FB0748102200211030FFF7CCFB08
:10564000E562257265720120A072E57270BD0000EE
:10565000C8A2FF1F4FBEFF1FFEB53B4D0C460804FE
:105660000CD56879FFF706FC050004D001F0CCFBEF
:105670002846FFF705FC0120C00360E0600403D565
:10568000012080034840FEBD2F48E10701268079B4
:1056900000292AD02978002920D0052821D0287A6D
:1056A00069460870687A4870274900A80622303198
:1056B0000230FFF78BFBA87A69460872E87A4872D5
:1056C0006879FFF7E3FB002808D00720A871696A12
:1056D000002903D00968002900D08847204670407F
:1056E000FEBD032069460870E5E7A1070DD5052832
:1056F00009D1E889FFF7D0FBAA8A002A03D002214A
:105700006879FFF7CFFB022019E0600704D500207D
:1057100001F0D2FB042012E0200712D528790128DD
:1057200002D002280AD107E00096AB8B6A8B298B46
:10573000E88A00F00BF801E000F05AF90820604018
:10574000FEBD0020FEBD0000C8A2FF1FF8B5134C2F
:10575000069DA679052E01D01420F8BD104F861F96
:10576000BE4219D2062917D3BE1DB14214D2FF275B
:10577000F537BA4210D20A2B0ED3B3420CD2E082D4
:1057800021836283A383284601F096FB042160797C
:10579000FFF78EFB0020F8BD1820F8BDC8A2FF1F40
:1057A0007A0C0000F7B50C4680490098164642185E
:1057B0007F4F00257879B9791300FFF73DFB190E6B
:1057C000141BE92040455970777E888FE996A2A97D
:1057D000B4BFC8E9E9E9E9D3E900102C76D1102279
:1057E000314674486FE0102C70D172481022314657
:1057F000103068E0042C69D13068F862CEE0012CEA
:1058000064D13B7832783A70002B0AD0002A07D155
:10581000022903D0062901D0042901D1FFF74EFB4C
:10582000BCE0002A0AD0012905D0032903D00529AC
:1058300001D0042902D10121FFF746FBAEE0022C82
:1058400044D13088B881A9E01F2C3FD858481F2286
:1058500000214230FFF7C0FA554822463146423017
:10586000FFF7B4FA524B7C7042332246012112E01A
:105870001F2C7CD84F481F2200211F38FFF7ACFA9D
:105880004C48224631461F38FFF7A0FA494BBC70FE
:105890001F3B224600217879FFF71CFB83E0012C97
:1058A00065D13078042862D8387277E0012C5ED157
:1058B000307803285BD8787270E0062C57D13C48CA
:1058C000062231463030FFF781FA67E04FE0012CC5
:1058D0004DD1307807284AD8B8725FE0012C46D104
:1058E0003078032843D8F87258E0022C3FD1328830
:1058F000BA82002A52D0052950D10221FFF7D2FAEC
:105900004CE0012C33D13078012830D8F87045E0D4
:105910003088022C2BD1062829D31921C9018842AD
:1059200025D8F8823AE03088022C20D106281ED3F0
:105930001921C90188421AD838832FE03088022CF7
:1059400015D1FF21F531884211D2788326E03088C5
:10595000022C0CD10A280AD31921C901884206D881
:10596000B8831BE03178012C01D1012901D0182521
:1059700014E00821FFF7B4FA002801D016250DE045
:10598000002001F099FA04217879FFF791FA05E0F7
:105990000098272801D2022C02D002252846FEBDFD
:1059A0003188FFF737FA0546F8E70000FFFCFFFFF4
:1059B000C8A2FF1F4FBEFF1F1CB50B4CA1790029C9
:1059C00001D011201CBD002800D0606206490748A4
:1059D0002C31034601910090103B0022E17960795F
:1059E00000F016F800201CBDC8A2FF1F5FBEFF1FFD
:1059F00010B506488179052901D0122010BDC18952
:105A000013224079FFF772FA10BD0000C8A2FF1FF1
:105A1000F8B51D460224069F079E0B00FFF70CFAFF
:105A20000A1508060608150615060615002C0CD1E1
:105A3000FFF762FA040008D1324639462846FFF7DC
:105A400061FAFFF765FAFFF769FA2046F8BD000032
:105A5000014610B50020C90704D0034A04210348B9
:105A600000F00AFA10BD000008A0FF1F48A3FF1FA6
:105A700010B5002309E01C012418E468944202D107
:105A80001901081810BD5B1C9BB28B42F3D3002098
:105A900010BD000070B50F4D0F4CA8702946143191
:105AA000204600F01DF8002128460B460C30CA00A5
:105AB00084521218491C09065360090EF7D00120C0
:105AC00001F016FEA878FFF72FFA0448FFF732FA24
:105AD00070BD00002CA3FF1FFFFF0000816FFF1FA0
:105AE00070B50A4C0025A04209D1002082008C52DA
:105AF0005218401CC0B295700228F7D370BD01F057
:105B00000EFA0028FAD00480857070BDFFFF0000F7
:105B1000F8B50E460746069900240798002902D0DA
:105B20000B242046F8BD022B01D00D24F9E7117893
:105B30005278120289188DB22946814301D08024FF
:105B4000EFE73846F16800F089F9A842E9D02A4623
:105B50003846F16800F01AFA0400E2D171892A4649
:105B6000384600F0B7F9DCE7FFB50025C1B02E4696
:105B70004198B1000C1821881E48814232D0A0788B
:105B800000282FD0429A4A994498FFF771FF0700E6
:105B900028D0194803A900780231C01EC0B2029073
:105BA000002200914498019242894B1C208839467A
:105BB00000F040F8002815D1788969468881A078DE
:105BC000C00705D0208803A9439AFFF7B9F9054318
:105BD000A078800706D5208803A94B9B439AFFF73E
:105BE000B5F90543761CF6B2022EC1D3284645B05E
:105BF000F0BD0000FFFF0000EC10FF1F70B50C4669
:105C0000080412D50A488078FFF734F9050008D057
:105C10002878B02802D1284601F09CFA2846FFF7E0
:105C20002FF90120C003604070BD002070BD00004E
:105C30002CA3FF1FFFB583B0087A00250C9E1C46DD
:105C40000F46C0060DD5059801F062F9030006D095
:105C50000A22394603989847050035D101E00E2500
:105C600032E0387802281DD17868292201784078FE
:105C700012020002081881B2881A91427ED009DC13
:105C80007348081A23D0012821D002284FD00328B6
:105C900008D125E0012872D0022871D003286DD0E8
:105CA00004286ED0059801F05BF900286AD00568D9
:105CB000002DD4D00E990D980191009033462246C4
:105CC00039460398A8470546284607B0F0BD0D9809
:105CD000002872D1F868017831700278416896E046
:105CE0000D98002869D101203070F86800210078F3
:105CF00020707889401C80B2FFF72EF900280DD063
:105D0000317802788918891C3170817A61704189F3
:105D1000090AA17002784168E01C79E03078042219
:105D2000001D30700021601CFFF756F8CCE70D987D
:105D3000002875D1F86802A900880090042030700E
:105D4000009820700098000A60700098FFF704F92E
:105D5000070029D0F86800906846028901AB3D49E8
:105D60003846FFF7FFF8002810D13B7802213A4867
:105D70007A68FFF7FDF8002808D104E026E030E05B
:105D80001CE04AE062E03348694688800098007869
:105D900002280CD1009802224168201DFFF716F856
:105DA0003078801C307002E0694600988880684630
:105DB0008088A070000AE07086E731E00D98002826
:105DC0002ED1F968039800F049F804E00D980028F6
:105DD00026D1F8680088022131702070000A6070B6
:105DE00072E7F868FFF7CAF80D99C0B2814212D87D
:105DF000814201D1002206E00E9A8918814202D325
:105E00000D99401AC2B23270F9680D9809182046EF
:105E1000FEF7DCFF58E7072556E70D98002801D06C
:105E20000B2551E70721F86831700178217041781E
:105E300061708178A1704188090AE170017921714E
:105E400081796171C088000AA0713DE700252FE7C4
:105E500000280000FFFF00001E7C010010B501F0CB
:105E60005EF8002800D0807810BD0000014908705D
:105E7000704700002CA3FF1F7CB51546040019D005
:105E8000684601940180FFF77FF803001DD1002DC3
:105E90001BD06489002C0DD00C20FFF77BF8002864
:105EA0000AD0002303608480094A85605168002974
:105EB00004D006E0022308E0132306E0506004E06B
:105EC00011460A68002AFBD1086018467CBD000014
:105ED0002CA3FF1FF8B50C4C0746207815460E463C
:105EE000FF280FD00A20FFF75BF801000AD0B1208D
:105EF00008700020487008714F80CE800D81207896
:105F0000FFF754F8F8BD00002CA3FF1F70B50C4636
:105F100005460649FFF7A2FF800704D5214628461B
:105F2000FFF74AF870BD012070BD000040A3FF1FBD
:105F30001CB56B461A71120A5A7100220092022394
:105F400001AA00F001F81CBDFFB583B008461E464B
:105F500001A90C9FFFF700F8050014D0684680885F
:105F600000F0FEFF00280AD04468002C09D00097FA
:105F7000F3B22946059A0398A04707B0F0BD002464
:105F8000F3E70E20F9E70120F7E7000070B51446AB
:105F90000E46054600F0C3FF002806D131460548ED
:105FA00000F0BDFF002803D005808470002070BD84
:105FB000112070BDFFFF0000014610B50020C90789
:105FC00004D0034A07210348FFF756FF10BD000025
:105FD000F49FFF1F54A2FF1F70B50D461646002404
:105FE0001D490300FEF728FF080512343419342236
:105FF0002934152D23D8162200211848FEF7ECFE6F
:106000002A4631461548FEF7E1FE22E0022D16D160
:1060100011491088103908801BE0082D0FD10E4857
:10602000082231460838FEF763FC12E0012D06D144
:10603000CA6909493078283107E0012D01D01824B8
:1060400007E0CA6B04493078483101F006FC00E0F3
:106050000224204670BD000054A2FF1F1ABEFF1F7D
:10606000002805DBC106C90E0120884001490860EF
:106070007047000000E100E08307FF22DB0E9A403A
:106080008907090E9940002808DB830809489B000E
:106090001818036893430B43036070470007000F11
:1060A0000838830804489B001818C36993430B43BE
:1060B000C361704700E400E000ED00E08307FF22C9
:1060C000DB0E9A408907090E9940002808DB8308F7
:1060D00009489B001818036893430B4303607047FB
:1060E0000007000F0838830804489B001818C3698C
:1060F00093430B43C361704700E400E000ED00E010
:10610000F8B50446002003460A5C8507ED0EAA4058
:106110001343401C0428F7DB00F0E4FA0028FBD10D
:1061200000F002FC21022004090E0843FF273F0271
:1061300021463940084372B600211A4DA960194E14
:106140000002803E801C3060336062B600F0CAFA04
:106150000028FBD100F0D8FB11200006201869466A
:106160002A695207FCD572B60422AA60040202040E
:10617000240E2243384002431002C01C306062B635
:1061800028694007FCD5307808703078487030783E
:1061900088703078C8700098984201D00020F8BD0F
:1061A0000120F8BD8000081170B50546002409499A
:1061B0000948FFF795FC0948FEF7BCFEE80706D042
:1061C0000448074A11210A30FFF756FE04462046CC
:1061D00070BD00009AA3FF1FFFFF0000B59AFF1FCC
:1061E00028A0FF1F1CB513460024154A002806D01E
:1061F000012809D002280CD0022420461CBD022907
:1062000009D118889080F8E7012904D11878107016
:10621000F3E7062901D01824EFE709480A46194692
:106220000830FEF7D3FD064BFF21183301911120F2
:106230001946009010390022881DFFF795FCDCE715
:106240008CA3FF1F024901480860704740787D0118
:1062500064A5FF1FF8B506460027FEF7B3FE044607
:106260000648051B06E0FEF7ADFEA04201D3071B62
:1062700000E02F18B742F6D3F8BD0000FFFFFF0083
:106280002021020C01D010211046020A01D0104634
:106290000839020901D01046091F820801D01046B2
:1062A000891E420801D0881E7047081A704702E014
:1062B00008C8121F08C1002AFAD170477047002091
:1062C00001E001C1121F002AFBD170470449086890
:1062D000FF22120290430122D2031043086070474C
:1062E0001CE400E010B5FEF773FE0120FEF776FE19
:1062F000FEF77AFE002010BDF0B500248E464A1E3F
:1063000012E0714600230D1B6D1E0AE09E0031183D
:106310008C46875949688F4202D9815161464F6046
:106320005B1C9D42F2D8641C9442EAD3F0BD00008D
:1063300038B50168064C012908D100210091027B83
:1063400081680079002301F08DFD606038BD000098
:1063500044A5FF1F10B50C460AA002F00DFE104820
:106360000E4A0178002C08D0002905D000210170C8
:1063700040211078FEF7A8FD10BD0029FCD10121B5
:10638000F5E70000626174745F6368617267655F5E
:106390006576745F68646C2025640A00F5A4FF1FAD
:1063A00044A5FF1F10B50AA002F0E6FD0B4800212E
:1063B0000160416000F016F800210B2001F08AFE18
:1063C000074A0C20114601F05FFF002010BD0000BD
:1063D000626174745F696E69740A000044A5FF1FEE
:1063E0005563FF1F10B50021044A062001F040FC50
:1063F000002801D101F0C6FC10BD00003163FF1F71
:10640000014840687047000044A5FF1FF0B5714E79
:106410008BB0707006211F20FEF7FCFC012468463B
:1064200004730474072101760025058450218184BA
:106430001921490181827D218583C900018566A0DA
:1064400003C8019100906846057202AA01216448C0
:10645000FFF7A8F962486A460621801CFFF7A2F9F7
:10646000C32006AA01218000FFF79CF95C4803AA1B
:106470000121001FFFF796F9594808AA0221C01E02
:10648000FFF790F93246612020321721C000FFF754
:1064900089F95348324608320621801EFFF782F9F7
:1064A000312004AA01210001FFF77CF94C4809AA18
:1064B00002210830FFF776F9494805AA0221093080
:1064C000FFF770F9464807AA02210A30FFF76AF978
:1064D000C5200AAA02218000FFF764F9324637324C
:1064E00015210020FFF778FD1927BF013946062046
:1064F000FEF790FC39460720FEF78CFC3946082051
:10650000FEF788FC39460920FEF784FC68460095B2
:106510000571047203210173047481206A46042109
:10652000C000FEF751FF012101AA8802FEF74CFFCF
:106530002B4802AA0121F930FEF746FF284803AA9A
:106540000121FA30FEF740FF254804AA0121FD3061
:10655000FEF73AFFA51E2846FFF72EFD2846FFF757
:1065600077FAFEF70DFE2846FFF71EFE6846048107
:10657000022101731BA003C8019100900421684609
:1065800001740521017502AA02210020FFF72AFEED
:10659000012103AA0846FFF725FE6A4606210220CC
:1065A000FFF720FE04AA01210320FFF71BFE05AA26
:1065B00001210420FFF716FEFFF7F4FE301D03F063
:1065C000C1FB02F075FE01217078FEF77DFC0BB077
:1065D000F0BD0000F4A4FF1F010203040506000043
:1065E0000903000005060B1600FE0000FEB5294D4C
:1065F0000C46080409D56878FEF73CFC002801D059
:10660000FEF73EFC0120C0033FE07D26E007F600D8
:10661000012700280FD01F481030FFF7CDF91D4883
:106620001830FEF769FE324602216878FEF73AFC20
:1066300020467840FEBDA00716D517A003C80191DB
:106640000090FFF7CFFE68886946401C688008709C
:106650006A460621022003F045FA32460221687894
:10666000FEF720FC022010E0200504D501F0B2F96D
:106670000120C00209E0200709D5684607706A4674
:1066800001210748FFF78EF808206040FEBD00207A
:10669000FEBD0000F4A4FF1F0F106F7A0AFE000079
:1066A0000503000010B50020054CFF212218401CF6
:1066B00051704028FADB02F0FFFE207010BD000090
:1066C00064C4FF1F10B50020054CFF212218401C98
:1066D00051700628FADB02F00DFF207010BD00009B
:1066E0006DA5FF1F084801694907FCD5012181609C
:1066F0000549052280390A7002695207FCD50878DD
:10670000C007C00F7047000080000811F0B5864632
:10671000080CFF268446002388B237461C461946DB
:1067200001228A4005461540CD402C19A4B2FF2F06
:1067300002D1012C00D18FB265462A40CA40D2183E
:1067400093B2FF2E02D1012B00D18EB2491C102929
:10675000E6DB012C02D0102C08D009E0012B07D178
:106760003001C019714608700220F0BD102B01D015
:106770000320F0BD0120F0BD10B528210148FEF72F
:10678000D0F810BD3CC4FF1F032806D301218907A0
:106790008B680122824093438B607047032806D3A5
:1067A000012189078B680122824013438B60704767
:1067B00001480068704700001010FF1F0122920777
:1067C0001368012181408B431360106808431060F7
:1067D00070470000F8B5496894460A7849780698E9
:1067E000090251188FB2444A11210025079CBE1A94
:1067F000091A974243D009DC404ABA1813D0012A3B
:106800001CD0022A25D0032A08D12EE0012E40D028
:10681000022E48D0032E50D0292E5AD000201870B6
:106820000A252846F8BD082855D20821091AA14290
:1068300000D80C46E2B21A70314957E00C284AD20F
:106840000C21091AA14200D80C46E2B21A702D4957
:106850004CE00D283FD20D21091AA14200D80C4668
:106860002849E2B21A700D3140E0112833D2A1421A
:1068700000D80C462349E2B21A701B3136E01128C9
:1068800029D2A14200D80C461E49E2B21A702D311D
:106890002CE011281FD2A14200D80C461949E2B2BF
:1068A0001A703F3122E0112815D2A14200D80C46BF
:1068B0001449E2B21A70513118E00E280BD20E21A1
:1068C000091AA14200D80C460E49E2B21A7063318F
:1068D0000CE0072801D30725A3E70721091AA142E5
:1068E00000D80C460649E2B21A70C91F0918604662
:1068F000FEF76CFA95E70000272A0000DDD5FFFFC0
:10690000DFA0FF1F6C9FFF1F064801694907FCD5E8
:1069100000218160034A0421803A1170016949070E
:10692000FCD5704780000811064801694907FCD56D
:1069300000218160034A0621803A117001694907EC
:10694000FCD570478000081103460002012100B504
:10695000000A490388421BD3FFF7C4FE0028FBD17D
:10696000FFF7E2FF0B490020886019021804090EA6
:106970000843FF2109020B401843064900028039F1
:1069800020300860FFF7AEFE0028FBD1FFF7BCFF08
:1069900000BD00008000081110B5054CE06900281A
:1069A00003D0FEF76DFA0020E0610A20E07210BD0E
:1069B00020A2FF1F70B50025094E2C460E20604313
:1069C00080190622FF21FEF713FA002801D16D1C61
:1069D000EDB2641CE4B20A2CF0D3284670BD00006E
:1069E00084BDFF1F10B50024204600F007F8641C8A
:1069F000E4B20A2C01D20028F6D010BDF0B5374C15
:106A00000546E07A8FB0854209D10121207BFEF74F
:106A1000F1FA0221207BFEF7EDFAFFF7BDFF2C46CD
:106A20000620444326462036F0B207AA0E2102F083
:106A3000FFF9002806D10622FF2107A8FEF7D8F9A2
:106A4000002802D000200FB0F0BD0E22FF2107A8C1
:106A5000FEF7C2F91C22FF216846FEF7BDF910229D
:106A6000FF210BA8FEF7B8F9F0B207AA0E2102F039
:106A700007FA074620462130C0B26A461C2102F0C0
:106A8000FFF90646204622303E43C0B26A461C212A
:106A900002F0F6F90746204623303743C0B26A4673
:106AA000102102F0EDF90646204624303E43C0B2E4
:106AB0006A46102102F0E4F9074625343743E0B274
:106AC0006A46042102F0DCF9044670353C43E8B222
:106AD0000BAA102102F0D4F92043B4E720A2FF1F33
:106AE00070B50A4D064600240E2060434019062268
:106AF0003146FEF795F9002801D0204670BD641C90
:106B0000E4B20A2CF0D30A2070BD000084BDFF1F40
:106B10007FB50D460A280CD2002D0AD00621484325
:106B20002030C0B26A460E2102F082F9040003D080
:106B300007E0022004B070BD062269462846FEF731
:106B400045F92046F6E700218A00835A491CDB43B9
:106B5000835212189378C9B2DB4393700429F3D39C
:106B60007047000070B5144E00240E206043851954
:106B70002046062148432030C0B22A460E2102F0AA
:106B800057F900280BD028460622FF21FEF724F9EA
:106B9000A81D0622FF21FEF71FF90020A881641C12
:106BA000E4B20A2CE1D30548407A002801D000F075
:106BB00007F800F01FF870BD84BDFF1F20A2FF1F63
:106BC00070B5FEF71DFA0A4E00240E2060438019AE
:106BD00005460622FF21FEF70BF9002802D12946BF
:106BE000FEF714FA641CE4B20A2CEED370BD000068
:106BF00084BDFF1F08B5FFF7DDFE012801D9022083
:106C000000E00A20694608706A4601210520FFF766
:106C1000E3F908BDF8B5074600200090784CB97834
:106C2000054607266079A2790B00FEF705F90805ED
:106C3000DD1A36365E98C1DD787800285AD1704862
:106C40000622F91C3C30FEF7C1F80120A0716C4B04
:106C50000146423362786079FEF73CF9002849D159
:106C6000C5E07978002945D1F978002906D0654B2F
:106C7000A2780021FEF72EF978700AE0022A0BD0E4
:106C80000121FEF72DF9002803D101216079FEF7DB
:106C90001BF9787800282DD1F8BD7B78002B29D1FD
:106CA000032909D0A289002A0CD0217800290AD012
:106CB0000121FEF7F7F806E0052A01D0022012E0D4
:106CC000062010E02570A079062802D0042802D002
:106CD00008E0052007E00120207001466079FEF7FA
:106CE000F3F884E00320A07181E07878002803D0D5
:106CF000312832D0A6717AE041480622391D36305B
:106D0000FEF764F87889E081B8892082F88960828A
:106D10000520A071A28A002A03D002216079FEF723
:106D2000C1F8B889E083F8892084388A6084E078E3
:106D300001280AD11F20FEF791F87D21C9004843A0
:106D4000024604216079FEF7ADF87A89F8780423C9
:106D5000391DFEF731FA257049E02570C2E7284851
:106D6000062200213630FEF737F8E5832584658456
:106D700004216079FEF79CF808216079FEF798F805
:106D8000B879082808D00320A0712078002805D001
:106D90006079FEF793F807E00420F5E70120207002
:106DA00001466079FEF790F80020C043E0811EE0C4
:106DB0000821FEF77DF87878002800D06CE7F88885
:106DC000E083388920847889608404216079FEF723
:106DD00087F80028F2D1A06A0028EFD00368628CFF
:106DE000218CE08B9847F8BD00980028FBD0606AA2
:106DF0000028F8D001680029F5D0A0798847F8BDAF
:106E0000C8A2FF1F30BEFF1F10B50178224C912988
:106E100006D0A22926D0D02901D1FFF7FBFE10BD54
:106E200041780E29FBD181881C4A91420FD181689B
:106E300003200856A1790529F1D17F28EFD0616A96
:106E40000029ECD049680029E9D0884710BD144AD0
:106E50009142FBD1806883784278017811A002F0DA
:106E60008BF810BD41791329FBD10089012802D18B
:106E70002079022808D00520FDF7F0FF02460821FE
:106E80006079FEF70FF810BD08216079FEF710F861
:106E9000FEF7AEFD10BD0000C8A2FF1F05140000E4
:106EA000222000005B48434920444C455D25642076
:106EB00025642025640A00007CB5144C0546E08B4F
:106EC000E18A88420AD3218B884207D8208C618BC3
:106ED000884203D1608CA18B884216D00520FDF733
:106EE000BDFF0646E08A69460880208B4880608B9B
:106EF0008880A08BC8806279E089FEF78DF82571C3
:106F0000324608216079FDF7CDFF7CBDC8A2FF1F86
:106F100010B500F025F8002800D0806810BD0022D0
:106F20009300CB5A834202D1900040187047521C04
:106F3000D2B2022AF4D3002070470000074A002191
:106F4000CB00D35A834202D1C80080187047491C35
:106F50000906090EF4D000207047000038A3FF1F77
:106F60000649496805E08A88824201D188687047ED
:106F700009680029F7D10020704700002CA3FF1FEB
:106F8000F8B50746012906D0022924D10121FEF7D0
:106F900049F800281FD13846FFF7D0FF050015D06B
:106FA00000240D4E0CE0F820696860430818018841
:106FB000002908D0F8220021FDF70EFF641CE4B27E
:106FC00070788442EFD30020C043288002493846BD
:106FD0001431FEF785FDF8BD2CA3FF1FF3B507465E
:106FE00083B00830029000267888FFF7A7FF019051
:106FF00000282FD0002523E001984168F82068433D
:107000000C18218800291FD00298007801280ED181
:107010006088009023797888621DFEF795FF06004E
:1070200005D0029900200870049821880180F82278
:1070300000212046FDF7D0FE00206D1C2080EDB21F
:10704000074840788542D7D30021C9430198002ED4
:10705000018002D17888FDF7EBFF304605B0F0BD26
:107060002CA3FF1FF3B50546364C074685B00835FF
:10707000162200212046FDF7AFFE03A800902B79D1
:10708000698828886A1DFDF7D9FF064644E02E4826
:107090002E4900780022C01FC0B2009101920290D8
:1070A000284B69468A897888F63B3146FEF7C2FD4F
:1070B000002812D12548E979C01EC27891420CD12E
:1070C00020492846F6390830FDF7AAFE002804D0EA
:1070D0002178708989000919488068468289698801
:1070E00004AB3046FDF73EFF2178064688000019C4
:1070F0004288002A10D0002E05D06A46128A491C08
:10710000217082800AE00A060020920DC043121905
:10711000491C2170908006E0002E04D00C48217894
:1071200000888142B3D32078002806D07888214691
:10713000FDF78AFF002007B0F0BD0698298801807E
:107140000A20F8E75EC0FF1FEC10FF1F2FA3FF1FF0
:10715000F410FF1FF0B585B0044600256846858110
:1071600020790E287ED00EDC082822D004DC0228EC
:1071700012D006286ED117E0264608360A281ED0FF
:107180000C2867D138E0102879D012287CD0162836
:107190007FD018285ED181E04448434900880880A8
:1071A0006088FDF757FF55E003A92046FFF75AFF17
:1071B00003E003A9204600F06DF905463BE0308866
:1071C00004A9FDF7C9FE010014D03948364F0078F4
:1071D0000097401EC0B2019502906A4660887B1CF1
:1071E000128AFEF727FD05001DD160883946FDF79C
:1071F00037FF20E0012516E0308804A9FDF7ACFE3A
:107200000100F7D02A4872880078274F401EC0B28C
:107210000192009702906A466088128A7B1CFEF7F2
:1072200009FD050003D030886946888103E0608845
:107230003946FDF71BFF002D0CD06078142809D0CB
:107240001949207908706846808948800D716088E6
:10725000FDF712FF2046FDF715FF1648816800294B
:1072600006D003E006E00AE00EE012E02046884780
:1072700005B0F0BD03A9204600F098F99DE703A9E9
:10728000204600F06BF898E703A9204600F0F2F9D9
:1072900093E703A9204600F00FF88EE703A92046E4
:1072A000FFF79CFE89E700005EC0FF1FEE10FF1F86
:1072B000EC10FF1F2CA3FF1FF8B504460F46054630
:1072C000083400896946FDF747FE06003DD0307A54
:1072D00080060ED568460088FFF71AFE030006D028
:1072E0006888122231469847061E02D02EE00E26EC
:1072F0002CE06E883046FFF721FE010005D11548CD
:10730000FFF71CFE01000ED00E80134A00205678B5
:1073100007E0F8234A684343D25A002A07D0401CAA
:10732000C0B2B042F5D30926002E09D00EE049685C
:10733000F822504308182146FDF748FD0026F3E7E0
:1073400068882146FDF7A4FE02E0012620883880E7
:107350003046F8BDFFFF00002CA3FF1FF3B587B038
:10736000079A04A8083203920090002613795188E6
:107370001088454C3746521DFDF760FE054669E012
:107380000798297A4088FDF789FE070003D00898FE
:107390006989018060E03D48002100783C4A801FF7
:1073A000C0B20191029000920798374B69460A8A51
:1073B0004088F63B2946FEF73DFC0700E7D1002E4A
:1073C0002BD033486178C01EC078021D914245D150
:1073D00031182E480088801F81423FDCA119A87A0D
:1073E0008870761CF0B269892218090A401C9170D5
:1073F000C6B2039805AB41886846028A2846FDF765
:10740000B1FD05000FD06946888AA11988706946C8
:10741000761C898AF0B2090A0AE01D48C01EC078AD
:10742000001D6070DAE7FF21A0198170761CF0B2B0
:10743000221891701649401CC91ECA78C6B212495A
:10744000A019F639801CFDF7C1FC1148C01EC07898
:107450003018C6B2002D93D1002E0CD06178304682
:10746000FDF722FE2070079821464088FDF722FE96
:10747000002009B0F0BD002F00D10A270398018831
:10748000089801803846F4E75EC0FF1FEC10FF1F2C
:107490002FA3FF1FF3B585B00598404D083003902A
:1074A00007880024019455E004A80090039803790C
:1074B0004188421D3846FDF7C1FD06004FD00598B2
:1074C0007789317A4088FDF7E9FD0190002846D19F
:1074D000334800210078334A001FC0B20092019166
:1074E000029005982D4B69460A8A4088F63B314642
:1074F000FEF7A0FB0190002831D1002C3ED0294896
:107500006978C01EC078801C81422AD1254BDB1EC1
:10751000D878211822480088001F81421FDC2919D1
:10752000B07A8870641CE0B22A187189401C090A7C
:107530009170C4B2194928191E46DA78F639801CB0
:10754000FDF744FCF0782018C4B21748874206D0F3
:107550007F1CBFB212480088001F8442A4DD002CAB
:1075600012D069782046FDF79FFD287005982946BE
:107570004088FDF7A5FD002007B0F0BD0948C01EFA
:10758000C078801C6870C1E70198002801D10A20EA
:107590000190069807800198EEE700005EC0FF1F8B
:1075A000EC10FF1F2FA3FF1FFFFF0000F3B585B0F6
:1075B00000272D4C059E27703D46083642E06800A6
:1075C000305A03A9FDF7C8FC010017D02748284B03
:1075D00000780093401EC0B20022019202900598EC
:1075E000214B6A464088F63B9289FEF723FB070051
:1075F00006D06800315A0698018031E00127F8E78B
:107600001B482178C01EC2788C468B181749098800
:107610004A1E934203DD6246891A491EC1702278D0
:10762000611C531812481049C01EC278F63918461A
:10763000FDF7CCFB0E482178C01EC07808186D1CE1
:107640002070EDB2B07DA84205D9084821780088A5
:10765000401E8142B3DB059821464088FDF736FD88
:10766000384607B0F0BD00005EC0FF1FEC10FF1FE2
:107670002FA3FF1FF3B5054683B0064608350089E2
:1076800001A9FDF769FC3746E8370446002822D0F7
:10769000207A80060ED568468088FFF739FC030003
:1076A00006D07088122221469847040002D013E0C9
:1076B0000E2411E000200090AB7829887088EA1C25
:1076C000FEF742FC040007D1387E00280AD17088FA
:1076D000FDF702FD03E00124049829880180387E2B
:1076E000002802D0002005B0F0BD2046FBE70000D6
:1076F000F8B504460246F8204243194800250646DC
:1077000045700C367068002807D00020C100891928
:10771000401C00064D60000EF8D0124F0021384684
:10772000FDF75AFB002318466043C0B2F8214843D6
:10773000C1190B48DA000C3016187160002105E001
:10774000F8224A437068491C8552C9B2A142F7D356
:107750005B1C1B061B0EE6D0014844700020F8BDE0
:107760002CA3FF1F70BEFF1F7CB50C78069D022C5A
:107770000ED14C682678647824023419054EA4B2E0
:10778000F44205D1022400950194FEF7C1F97CBDB5
:1077900001207CBDFED6FFFFF8B5069800271D46E8
:1077A00014460E46002801D00B20F8BD3078002189
:1077B000022801D019704DE070680278407800020C
:1077C0001018152280B25202801A0300FDF734FB14
:1077D0000504121F1A254100F068FDF7CFFBC2B265
:1077E0000798824200D902462A70F1682046FDF7C8
:1077F000EDFA30E0F0680221008829702070000A5C
:10780000607028E0062028700246F168EEE701204B
:107810002870F068007820701DE0F068002816D00D
:1078200008212970017821700188090A6170817826
:10783000A1704188090AE170017921718188090AE2
:1078400061718179A171C088000AE07103E029703B
:1078500001E0297001273846F8BD10B50B78840780
:1078600002D50224234301E0FD2423400B700307CB
:107870000B7802D50824234301E0F72423400B7042
:1078800083060B7802D52024234301E0DF24234024
:107890000B700A21084201D1810603D510780C2112
:1078A000084304E0002803D11078F3210840107049
:1078B00010BD0000FFB581B0087800240A9E1F4665
:1078C0000D4602280FD16868017840780002081838
:1078D000152180B24902401A09D0012829D0022876
:1078E00048D003283CD00124204605B0F0BDE8680C
:1078F000FDF744FBC0B2864205D8F0190090152868
:1079000003D90D24F0E70724EEE7E8683A4680192A
:107910000399FDF75BFA0098EA6880B200211154E0
:107920001C4840680028DFD001680029DCD0002016
:1079300012E0002E12D1022BE3D10399E8680A78F5
:107940004978090251180180124840680028CBD0BC
:1079500001680029C8D001208847C5E70B24C3E788
:10796000002EFBD1062BCCD10622E8680399FDF747
:107970002DFAB9E7002EF1D1012BC2D1039800787E
:10798000002803D0012801D08024ADE7E968087001
:10799000AAE7000044A2FF1F10B5122801D305205A
:1079A00010BD0B4B9C6B0122824010462043986314
:1079B000586B90435863D86B002906D09043D86326
:1079C000186B02431A63002010BD1043F7E7000054
:1079D0000080004010B5134C2079012804D0032802
:1079E00001D101F0F1F810BD0E2000F08FFB00284E
:1079F00010D0212000F0CAFD02202071FDF772FB9B
:107A00002060A1680029EED00120884706A001F07F
:107A1000B3FA10BD0E2000F079FB0028F9D12071D7
:107A200010BD000058C1FF1F707265737300000025
:107A3000084B042807D2012207E0104300E09043DE
:107A4000586100207047012212388240586900298D
:107A5000F5D0F2E70038004070B50F4E002435191C
:107A60006878022806D9E0B200F050FB0146E0B287
:107A700000F068FB232C0ADA6878022807D9E0B204
:107A800000F044FB0C216143891920314871641CCA
:107A9000232CE4DB70BD0000DCC1FF1F70B50221A8
:107AA0001020FEF70BFB1020FEF7DAFA114E00242F
:107AB0000C206043801920300079002813D0E0B2F8
:107AC00000F0ACFBE5B2284600F020FB00280ED009
:107AD00000210C226A43921920325279824202D04C
:107AE000284600F03DF8641C232CE1DB70BD012129
:107AF000EFE70000DCC1FF1FF3B5184E81B00F4661
:107B0000002401200199A040084222D0384201D12E
:107B1000012500E00025E0B2294600F021F80C2004
:107B2000604380194168806800290DD0002806D084
:107B3000002D02D00021E0B203E00121FBE7E0B21A
:107B40000021FFF729FF04E0002802D0E0B2012164
:107B5000F7E7641C122CD4DBFEBD000000C2FF1F3F
:107B6000074A0C2343439B185A68002A01D0002976
:107B700004D09A68002A02D0012900D1104770472A
:107B800000C2FF1FF0B5204E95B0706B400A400256
:107B90007063002404ADF06B0127A74038408005D6
:107BA00022D00020E30181005A1818495118C968F1
:107BB00042000905090D401CA9521D28F3DBB16BD9
:107BC00001203943B16312490A78002A0CD0A2007F
:107BD00051184968002907D000906A4614711D2089
:107BE0000295107368468847641C082CD3DB08484C
:107BF0004078002801D100F0EBF8706B054908438C
:107C0000706315B0F0BD00000000054000040540A1
:107C10003CC4FF1FFF01000010B50448C16B034ABC
:107C200040321068D060FFF767FF10BD0080004051
:107C300010B50E4880680007000F062807D007DC43
:107C400002280BD0042802D1012000F057FF10BDFC
:107C5000072806D00C28FAD10220F6E700F076FFBC
:107C600010BD02484030C06B10BD00000040004015
:107C7000F7B5044638480078002805D03748017821
:107C8000002903D01120FEBD1220FEBD002A0BD01A
:107C9000082C0BD0002C09D069464D79012C07D057
:107CA000002D05D0E10703D00620FEBD0520FEBD56
:107CB0008570A100081842601120FEF76FFD28486A
:107CC000C16B40221143C163254840300168120353
:107CD0001143016041688022114341604168920371
:107CE000914341604168421411434160C16B1022CD
:107CF0001143C163684681792A46204601F094FE0B
:107D0000174E20464836002D13D001F06BFE082296
:107D100000231146304602F003F80B2200231146DF
:107D2000304601F0FDFF204601F050FE641CE0B239
:107D30000EE001F057FEE00703D001230B221146AD
:107D400002E0012308221146304601F0E9FF2046F7
:107D500001F03CFE0020FEBD5EA5FF1F3CC4FF1FDE
:107D600000F0004010B5054901200870044A0021C8
:107D7000112000F0CFFBFEF7FFFC10BD5EA5FF1F3A
:107D8000CD62FF1F10B50C480078002812D00B49B7
:107D900001200870112000F093FB09488168082237
:107DA000114381600749C0050860084906484863D7
:107DB000002010BD122010BD5EA5FF1F3CC4FF1F98
:107DC00040F0004000E100E0FF010000000005403D
:107DD000F8B51D480078002834D01D491B48486379
:107DE00001201C49400708601B4881680822914314
:107DF00081604168421491434160184E184F00243D
:107E0000A0008019406800280FD0E0B23D5CFF2D33
:107E10000BD00021284600F0B7F80021284600F0DA
:107E20002DF90021284600F055F9641C092CE7DBE8
:107E30001120FEF7A9FCFEF79FFC112000F0A6FB25
:107E40000020F8BD1220F8BD5EA5FF1FFF01000055
:107E50000000054080E100E040F000403CC4FF1F0E
:107E600078A0FF1FFFB581B00024164620460A9D6A
:107E700006E042008A5A1205120D1419401CC0B2C5
:107E8000B042F6D3394F787800280DD101207870B0
:107E9000374801680905090DB98000680001020D25
:107EA0007A8034A001F068F83046FCF746FE0646BA
:107EB0002046FCF737FE3146FCF7D4FD00907C8865
:107EC0003048844238D0BE88864235D0A01BFCF7AB
:107ED0003BFE0022D243FCF70FFEFCF75DFE074697
:107EE0000198C0071AD0002D0FD0A019FCF725FE6D
:107EF0000446452109060098FCF76FFD3946FCF75A
:107F00006CFD0121FCF7ECFD12E0A019FCF715FE59
:107F1000044639460098FCF70FFD09E0002DE4D136
:107F2000A019FCF70AFE044639460098FCF755FDF7
:107F30002146FCF797FD10E0002D09D00A21C94326
:107F40000098FCF7CDFD7F21C905FCF746FD04E054
:107F50000B21C9430098FCF7C3FD0499002902D105
:107F60000221FCF7BDFD05B0F0BD00005EA5FF1FBE
:107F70000010001141445F43414C5B257820257877
:107F80005D0A0000FF0F000070B5034601220B3BA5
:107F900014469C400B4D00290ED0C106C90E8A40E4
:107FA000410989004919CB6B9343CB63002100F051
:107FB00091F82868204301E02868A0432860002049
:107FC00070BD000000380040C306DB0E01229A405D
:107FD000064B40098000C0180029C16801D0114338
:107FE00000E09143C160002070470000003800406D
:107FF00030B50D4604460121FFF7E6FFA10807480A
:1080000089000A189169A007C00EFF238340994395
:10801000854029439161002030BD000000380040B8
:1080200010B5114C2078002801D0072010BDFF2189
:10803000C9310D48FCF775FC012020700B49002068
:10804000086348630A490862486202211020FEF76B
:1080500035F81020FEF704F8064A07490D2000F015
:1080600059FA002010BD0000DCC1FF1F0080004055
:1080700080F000409D7AFF1F597AFF1F30B50D46F2
:108080000446042803D320461F38032803D80121BF
:108090002046FFF7CDFC00212046FFF795FF012089
:1080A0000B49122C08D2A0404A68002D01D002438F
:1080B00000E082434A6008E0123CA0400A69002DBB
:1080C00001D0024300E082430A61002030BD00007D
:1080D0000080004070B50C460A21FCF7E5FF4A001D
:1080E0008A1801210B46521C9340551CA9400B4392
:1080F000D94383000448181883680B4021469140F7
:1081000019438160002070BD00F000400C4A0C4B08
:108110000121403A122807D281405068084201D01C
:10812000106809E0186907E01238814010690842B8
:1081300001D0D06800E05869084000D001207047A5
:1081400040800040F8B50E4605460A21FCF7ACFF1A
:1081500048000918EA060124D20E204690406A0918
:1081600093000B4A9A18136A034313628C40084F1A
:108170002846803F0A21FCF797FF8000C0198168DC
:10818000002E01D0214300E0A14381600020F8BD12
:1081900080F0004030B50D4604460121FFF76EFF28
:1081A00001220B48122C08D2A2400168002D01D0F8
:1081B000114300E09143016008E0123CA240C16815
:1081C000002D01D0114300E09143C160002030BD7B
:1081D0000080004030B504460E48112C01D905201E
:1081E00030BD0C210025614345540A4829462438F6
:1081F000001945702046FFF741FF0749886B4A6B1D
:108200000120A0400346104348630A6B9A430A6367
:10821000284630BD00C2FF1F0080004070B50546F3
:1082200018480C226A43141861680126002902D1FB
:10823000A168002906D0134924394919122D03D306
:10824000032302E0122070BD04234B7001218154EE
:1082500000212846FFF712FF6068002810D0A068B0
:1082600000280CD02846FFF751FF002801D001213B
:1082700000E000212846FFF78FFB002070BD00269C
:108280003146F7E700C2FF1FF8B516460D46044613
:10829000084FFFF79FFF0C206043C3199E602046E4
:1082A0005D60FFF7BBFF050002D02046FFF792FF9D
:1082B0002846F8BD00C2FF1F0C2148430449002393
:1082C00010B540181A46194601F02AFD10BD0000ED
:1082D00004E0004070B50C2148431B4900234418BA
:1082E00005461A461946204601F01AFD102220467E
:1082F0000023114601F014FD1F22204600231146E1
:1083000001F00EFD204600230C220E2101F008FD95
:10831000082220460023114601F002FD04222046D7
:108320000023114601F0FCFC07480023001D28181B
:1083300004461A460F2101F0F3FC204600231022C8
:108340001F2101F0EDFC70BD04E00040F8B50446CB
:108350001F4615460E461220FEF720FA0C20444315
:108360000F48002324181A461946204601F0D8FC6D
:10837000204633460C220E2101F0D2FC0822204672
:108380002B46114601F0CCFC042220463B46114608
:1083900001F0C6FC00221146122000F0BBF8F8BD27
:1083A00004E0004010B504460A460A30C1B2104647
:1083B000FFF71EFE0C20444303480022201801232F
:1083C000114601F0ADFC10BD04E00040F8B50446D4
:1083D0000C2044430F4815460E462018102207462D
:1083E0000023114601F09CFC0A483346001D20186A
:1083F000044610221F2101F093FC20462B46002248
:108400000F2101F08DFC102238460123114601F0A6
:1084100087FCF8BD04E0004010B5122000F050F8D1
:1084200004480168012211430160016810221143D0
:10843000016010BD00E0004010B5122000F0A6F869
:10844000044801684908490001600168102291430D
:10845000016010BD00E000400449420903D0002043
:1084600048600620704748600020704754A5FF1FF1
:1084700010B50448112243681521034801F050FC4F
:10848000002010BD54A5FF1F1CF0004010B578213E
:108490000948FCF746FA09480078012805D0022867
:1084A00006D0032806D0042804D1FCF721FE01E001
:1084B000FCF724FE002010BD64C1FF1F54A5FF1F60
:1084C00010B51249044609781220012914D0042954
:1084D00012D072B600210E4B0C224A439A5C002A3D
:1084E00011D0A2420CD10C2251430120C91848706E
:1084F000FCF7FEFD002006E0FCF7FAFD002010BDB1
:10850000491C0A29E8DB62B610BD000054A5FF1F14
:1085100064C1FF1F70B500240E4E23460C255D4339
:10852000755D854201D1072070BD002D0BD05B1C0D
:108530000A2BF3DB002C0AD0002363702070A260AA
:108540001846616070BD0C2463439C19F2E7032058
:1085500070BD000064C1FF1F70B5FFF789FF0A4DB1
:10856000002420460C214843295C002909D04019E9
:108570004068002800D08047641C0A2CF1DB0020F2
:1085800070BD122070BD000064C1FF1F70B5154999
:108590000022097801290FD004290DD072B60021DC
:1085A000114D0E460C234B43EC5C002C0FD0844243
:1085B00005D15B195E7007E0FCF79AFD0CE05B19D2
:1085C0005B78002B00D0521C491C0A29EADB002AE8
:1085D00004D0FCF78DFD62B6002070BDFCF78EFD67
:1085E000F9E7000054A5FF1F64C1FF1F70B50A4DD5
:1085F000002420460C214843295C002909D0401959
:108600008068002800D08047641C0A2CF1DB002021
:1086100070BD122070BD000064C1FF1F10B5164967
:108620000A200870154901200870154900200870BB
:1086300000F030F813480421C16113498160C16022
:1086400001611249416101210A20FFF743FD0D48F4
:108650000D230F221221143001F062FB00210420AF
:10866000FDF70AFD01210220FDF706FD084A002161
:108670002020FFF74FFF10BDE112FF1FE212FF1F86
:108680000013FF1F00F00040B66DDB36B6EDC3B03F
:10869000B999FF1F70B51548002200680424866B45
:1086A0001025134813493300FCF7C6FB07080805DB
:1086B0000C0E1308050005600C600DE0202202601E
:1086C000052004E0302305E0402202600620086017
:1086D00002E0602303600A60FCF716FDFCF71AFD58
:1086E00001F044F800F026FF70BD000068A5FF1FF0
:1086F0002010FF1F2410FF1FF8B51F4E1E4F083615
:108700001E4C1125012820D000281DD10021102049
:10871000FFF7E0FC00211120FFF7DCFC0323082217
:108720000921304601F0FCFA0622002311463046AA
:1087300001F0F6FA16231B221F21384601F0F0FA49
:108740002068C16AA943C162F8BD05231B221F210D
:10875000384601F0E5FA0A4B07221021304601F0B5
:10876000DFFA062201231146304601F0D9FA2068CB
:10877000C16A2943E7E7000014F0004068A5FF1F25
:10878000FB030000F8B5FF212D312B4E2B4C0028A8
:108790001AD001232A4A9B04022817D080250128D9
:1087A00019D016681E431660536806460B3601271B
:1087B000B7403B43536053682B43536003281AD0A0
:1087C000042833D01F4A17E0266016E015681D43C1
:1087D00015601D4A10E017681F4317605368012792
:1087E0007F05BB43536053683F123B43536053685C
:1087F0002B435360E8E7154A2260491E0904090C1F
:10880000FBD103460E4800220321001F01F088FA25
:1088100001208007C1690E4D890709D580690005CF
:10882000010E491C2068FCF73FFC02E0094AE3E71F
:1088300020682860F8BD00000048E8011810FF1FFC
:1088400040F0004000D8B8050024F400006CDC02C1
:108850001010FF1F0090D0031FB5124C2078002885
:1088600002D0112004B010BD20210E48FCF759F8A9
:108870006846407A002803D16846C07A002801D0B3
:108880000520EFE768460FC810340FC40120203CD4
:10889000207001F00FFB044A00210820FFF73AFE88
:1088A0000020DFE7A4C3FF1FB59EFF1F10B5054AD8
:1088B000927E002A02D001F0BDFA10BD01F086FAC6
:1088C00010BD0000A4C3FF1F6D46294606A000F09E
:1088D00053FB0024A000295809A000F04DFB641CA4
:1088E000102CF7DBFEE700004861726420466175DA
:1088F0006C742053502069732025780A0000000012
:10890000307825782C000000F8B56B4A69496C4B2B
:108910006A481160D861002084000023401C0B517C
:10892000FF28F9DD1068FF2201468031654B6F3268
:108930008B600A250565C262634A13788363634BC3
:10894000C3611378022B06D01378032B05D013785C
:10895000042B04D005E0102302E0142300E01823C8
:1089600003625B4B4361594B3424963383613C2350
:10897000CB603623C363082344643A2603644E6005
:1089800031260E603B26CE634626CE640F4639263E
:10899000403758C732260E6502260E661E274F66E0
:1089A0004226543158C1CC608B6005240E614C6165
:1089B0005A2460390C614B613C248C61AF24E40083
:1089C00004601478022C06D01478032C05D0147897
:1089D000042C05D005E0102400E00924446000E0E8
:1089E0004360FF242D3484601926760106616400FB
:1089F000C460384E7D278664FF00CF674762364EDD
:108A0000C664364F87627327C76506274765876543
:108A1000C31D0827F9331F600227476684660924AF
:108A2000C4662F4C046708244467FF242D348467F0
:108A30002C4CC4672C4806601078022806D01078A9
:108A4000032807D01078042808D00AE01220C86153
:108A5000192001E00C20CD61086202E008200D62BF
:108A6000C8611C4888627D20C00088676420486215
:108A700005200F63C862C82048630020886338203F
:108A80005860AF21C9001948996118644B201962D8
:108A9000C000D8617D2000015862164914488860E2
:108AA0001449154880318862FDF7FCFDFDF70AFE88
:108AB000F8BD0000000CFF1F68A5FF1F000CFF1F82
:108AC0000010FF1FA8CCFF1FE312FF1F4605000088
:108AD00060E3160050C30000740E00006A18000026
:108AE000204E0000881300009412FF1F0040001168
:108AF000758CFF1F0009FF1F3595FF1F70B5114CC6
:108B000088B0217E104B03AD00290BD00E49803177
:108B10004968CAB2002102E01E786E54491C914295
:108B2000FADB04E0197D012219786B461973E169BB
:108B3000002905D06B46187001951A72684688475F
:108B400008B070BDA4C3FF1F004000403EB51B4AE3
:108B50001178101D00292FD0117E00292CD0917E74
:108B6000002929D00178022926D181884488836888
:108B7000091B89B2102900D9102100290BD0104CF3
:108B80000A46491E89B2002A16D04288551C4580E3
:108B90009A5C2270F4E701210170002141808180FC
:108BA000D169002905D007486C460DC80DC4684638
:108BB00088470820FFF7EAFC3EBD0000A4C3FF1F62
:108BC000004000405CA0FF1F70B50E20FFF79EFA2A
:108BD0001A4D002807D00E20FFF798FA002801D080
:108BE0000220287170BDFCF77DFA2968441A1448E8
:108BF0004443214613A000F0BFF92120FFF7C6FC33
:108C000000202871A8680028ECD01248844205D3BF
:108C100011A000F0B1F90420A9680DE010488442C9
:108C200005D810A000F0A8F90320A96804E00FA05F
:108C300000F0A2F9A9680220884770BD58C1FF1F43
:108C400071020000686F6C645F7469636B3A25643D
:108C500000000000C0C62D006C6F6E6700000000B1
:108C600040420F0073686F727400000072656C659B
:108C70006173650070B52B480068012803D12A484C
:108C8000816F491C81672A48284941610121C160DF
:108C90000160284A506BC1B227480078002817D1DC
:108CA00026480023C356002B254BC35606DB1B0466
:108CB0000024045720021818401808E0FF331B0452
:108CC00000240457200218181E4B4018C018506387
:108CD000022901D2022102E0502900D950211A486C
:108CE000027814481430022A11D0184A1478184B0C
:108CF0001D78AC4214D914781B78E31A891E4910E8
:108D00004B4311784901C91A10314B1103E0114A44
:108D10001478114BECE70022072101F001F870BD37
:108D20001378F8E75812FF1FD03BFF1FFF3F0000EA
:108D300000100340800003405312FF1F0013FF1F69
:108D400000000000FFFE0000E212FF1FDD12FF1F07
:108D5000DE12FF1FDF12FF1FE012FF1F10B5124CC3
:108D6000022020700321C9021048FCF7D9F9FFF74F
:108D7000CBFDFFF78BFBFFF751FC2078FFF702FDDF
:108D80000020FFF7B9FC1F20FFF766FB00F012F987
:108D9000FFF746F9FEF7E6FF05A000F0EDF8FDF756
:108DA000A1FA002010BD0000E312FF1F74A5FF1FF1
:108DB000616C6C2064726976657220696E697420DA
:108DC0004F4B210A0000000070B500241220FCF770
:108DD000E1F81549122208600021FBF7FDFF20464B
:108DE0000124FCF7A3F902252046FCF7A5F903248A
:108DF0002846FCF7A7F904252046FCF7A9F9052425
:108E00002846FCF7ABF906252046FCF7ADF9072408
:108E10002846FCF7FFFB08252046FCF73BFE2846CA
:108E2000FDF7F4FA70BD000040A5FF1F0020704759
:108E3000F8B516460F46054600F040FF04462946A1
:108E40000AA000F099F8002C0DD02068401C0AD030
:108E50003A46211D3046FBF7B9FF3946304600F04F
:108E600029F90020F8BD0A20F8BD00006F73616C7D
:108E70005F736E765F726561643A25780A00000060
:108E8000F0B591B016460C46054600F017FF0746B0
:108E9000224629461FA000F06FF82146304600F018
:108EA00009F9002F33D03846FDF74EFD402200214E
:108EB0006846FBF791FF00953C2C01D93C2500E06A
:108EC00025462A46314601A8FBF780FF2A1D694640
:108ED000384600F007FF611B7619CCB2002816D186
:108EE00011E0402C01D9402500E025462A463146B4
:108EF0006846FBF76BFF2A466946384600F0F2FEEB
:108F0000611BCCB27619002CEBD1002800D00A20CE
:108F100011B0F0BD6F73616C5F736E765F777269CD
:108F200074653A25782C25640A0000001FB50446B4
:108F30000300FBF781FF021C021CC12002A9800074
:108F4000FCF7F4FA6946087A0870487A4870887A1B
:108F5000887000200871C870487BC871087B8871D0
:108F6000C87A48716A4608210020FCF715F90148C3
:108F700004701FBDF4A4FF1F0FB410B578210B4877
:108F8000FBF7CFFC03AA0020029900F01BF807486A
:108F9000FCF7F0F881B20548FFF788FC044900208F
:108FA000088010BC08BC04B018470000C4C3FF1FF1
:108FB0005CA5FF1F10B5024B0FCBFFF74DFC10BD9A
:108FC00068A0FF1FF7B5002584B016460C46612740
:108FD0005FE0252857D100226078641C13460028E2
:108FE0005AD025284FD02D2801D10123641C0220FE
:108FF0002178302907D10343641CF9E70A214A4349
:10900000303A8218641C2078014630390929F5D994
:10901000C1B273290AD064280ED0782811D05828FC
:1090200017D075281DD0632821D031E002CE002949
:1090300000D11EA1049822E068468CC0012331684B
:1090400013E068468CC008E0361D049800F062F812
:1090500017E0412001930092029000231022316812
:10906000F2E768468CC0316800230A22ECE73178C9
:10907000684601730021417303A9361D049800F06E
:1090800092F8451904E0C1B2049800F02DF86D1C67
:10909000641C207800289CD10498002803D00499EF
:1090A000002009680870284607B0F0BD286E756C6E
:1090B0006C29000070B5002406464D1E07E007A08D
:1090C000FFF75AFF06A0FFF757FF641CA4B2315DFB
:1090D000AC42F4DB03A0FFF74FFF70BD25782C00F6
:1090E0002000000025780A00C9B2002805D00268D7
:1090F00011700168491C01607047044A1088782883
:10910000FAD2034B1954401C108070475CA5FF1F16
:10911000C4C3FF1FFFB583B000270C9E3D46080067
:1091200005D0002B13D0059A0A2A0CD00FE030206E
:10913000694608700020487032460D9B039800F085
:1091400032F807B0F0BD002901DA012740420021C2
:109150006A4602ACD17203340AE00599FBF7A4FF1A
:109160000A2902DB0E9A89183A393031641E2170BF
:109170000028F2D1002F0ED0002E09D00D988007C4
:1091800006D52D210398FFF7AFFF6D1C761E02E078
:109190002D20641E2070324621460D9B039800F05E
:1091A00002F84019CDE7FFB50025202781B014460D
:1091B0000E46002A0FDD0021304601E0401C491C0C
:1091C0000278002AFAD1A14201DB002400E0641AEF
:1091D000980700D53027D80706D00DE0394601980A
:1091E000FFF782FF641E6D1C002CF7DC04E0019881
:1091F000FFF77AFF6D1C761C31780029F7D105E066
:1092000039460198FFF770FF641E6D1C002CF7DCD7
:10921000284605B0F0BD000070B50C460546022892
:1092200001D8642C01D9062070BD204E002D04D039
:10923000012D0DD0022D1DD115E0002C05D01621D9
:109240000020FFF7AFF8348014E0002116201AE068
:10925000002C05D017210120FFF7A4F8748009E045
:10926000002117200FE0002C0BD01E210220FFF759
:1092700099F8B480002D09D0012D0BD0022D12D108
:109280000CE000211E20FEF785FFF3E76422318801
:10929000002006E064227188012002E0B188642287
:1092A0000220FFF793F8002070BD00004CA5FF1FBF
:1092B00003480021018041808180084670470000FA
:1092C0004CA5FF1F10B5022801D9062010BD0021B2
:1092D0004200134C0028A15204D0012808D00228D3
:1092E0000DD116E021800020FEF7E6FF002004E00B
:1092F00061800120FEF7E0FF0120FEF7EBFF2088F0
:1093000061884018A188C84201D1FFF795F8002074
:1093100010BDA1800220FEF7CFFF0220EDE7000084
:109320004CA5FF1F10B5022801D9062010BD32211F
:1093300042001C4C0028A15204D0012810D0022861
:109340001DD120E00022012306211046FEF7FEFF7A
:10935000218864220020FFF739F8162100200CE054
:109360000123002206211846FEF7F0FF61886422DF
:109370000120FFF72BF817210120FFF713F8FFF763
:109380004BF8002010BD0123002206210220FEF729
:10939000DDFFA18864220220FFF718F81E210220B9
:1093A000EBE700004CA5FF1F70B5164C144DE069AB
:1093B00040084000E0610620FCF74CFF11484038AF
:1093C000826980210A438261E26901231A43E261D2
:1093D000A26A920503D42A466D1E002AF8DC002DED
:1093E00007DB226A7E23D60B82691E409A433243F2
:1093F000826182698A4382613006400E70BD00003E
:10940000983A000040F00040FFB581B00D46064696
:1094100010240C4F0CE0FFF7C7FFB04208D2A8425F
:1094200006D90499039800F00FF8C019C72804D38F
:109430002046641EE4B20028EDD11020001BC0B20B
:1094400005B0F0BD21F1FFFFF0B5002591B00E464B
:1094500007462C460BE01020FCF7FCFE1448406A3F
:10946000A2008104890C6846641C8150E4B2BC42AD
:10947000F1D339466846FCF73FFF0E4A00205742B9
:109480006C460EE081006358934201D9D91900E07F
:10949000D11A642902D9002011B0F0BD5D19401C19
:1094A000C0B2B042EED331462846FBF7FDFDF3E7EC
:1094B00040F00040420F0000F8B50C4D0C4E002467
:1094C000A000401901686846FDF720F9022805D080
:1094D000002C02DD012800D10320F8BD32196946B5
:1094E0000978641C5170402CEADBF8BD00080011BB
:1094F00064C4FF1FF8B500240C4D0D4F0526A000D5
:10950000401901686846FDF701F9022805D0002CD2
:1095100002DD012800D10320F8BD321B6946D219B3
:109520000978641C5170062CE9DBF8BD00090011B4
:109530006DA5FF1F10B500F011F800F0C9F9064A3B
:109540000121582000F03CF9042308221946382054
:10955000FFF75AFF10BD0000F812FF1FF8B52F48A3
:1095600003782F4C16221B21204600F0D9FB032341
:1095700011221221204600F0D3FB241D06231622BF
:109580001A21204600F0CCFB03231222132120468F
:1095900000F0C6FB23480078032828D000231922B6
:1095A0001A21204600F0BCFB0B2304220721204691
:1095B00000F0B6FB1C4E337816221721204600F02F
:1095C000AFFB1B4D1948E86042152A6119486861D4
:1095D0001949A961164C40346260A060E160144FE3
:1095E0001648403F38603078012802D00BE0032352
:1095F000D5E7002201231146384600F091FBFF20F9
:109600004130286160600E4800780E49C006C00BEA
:109610004018B8630C48E861F8BD0000DC12FF1F79
:1096200040F00040E312FF1F6CA5FF1F2001002047
:10963000C0000340A403B00000008A04242D0000F1
:10964000E112FF1F250800002FFF260070B53049EA
:109650002F4A4039002825D0022823D08B151362C9
:109660005A020A612B4A0A632B4A127801231B0310
:10967000D2184A612649264CC039803C002815D0B2
:109680006522264DD202264B012819D002281CD073
:10969000244E80190860244848602260A560E36079
:1096A000224819E080231362DA02DAE720480860D2
:1096B0000020A0601F4820601F48E0601F480BE0AA
:1096C0001F480860A5602260E9E71D48401C08604B
:1096D000A5602260E3601B4820610D48FF23002243
:1096E0000721B43800F01CFB174860611748A061DF
:1096F0001748E06117482062174860621748A06267
:109700001748E062174820631748606370BD000087
:10971000C000034003000001DD12FF1F55555537FF
:10972000D6BE898E00800698545A985080550822DB
:109730000080067800280B0007EE75368066082248
:109740000180064280450822A49C5C544C0C040312
:10975000025A544E483C36332D007F5D57514B45DD
:109760003C363056504A443E322C262010B5FFF786
:10977000F5FE0448007800F009F803480078FFF788
:1097800065FF10BDE112FF1FE212FF1F10B5044676
:1097900009483F2C0DD00D230F22122100F0C0FAF2
:1097A0000648816BE2060905090DD20B114381635E
:1097B00010BD0823F0E7000014F0004080000340D3
:1097C000F0B5364C666AA56A00236362A362344C26
:1097D00060630E20206263624020A0625020E0623D
:1097E0002A2060622E484030012926D08021016263
:1097F0002C49FF232A48A533403083602A4B43601D
:10980000274B2A48403B18617D20C000401EFDD2F6
:10981000274889050F18224840388763244B5B1C72
:10982000C91881632449234809780B00FBF704FB1E
:10983000070B0B100D0F100B1000FF2101310162FF
:1098400018498331D5E71D4802E01D4800E01D4856
:109850001D4911601249403103E0CB6ADB439B0F85
:1098600011D0401EF9D20E48403887630020A06214
:10987000E062886060622062FF20413060620748D9
:1098800046628562F0BDC86A104B184010601068CF
:109890000122000C120480184860E4E70010034025
:1098A00080000340CA0200002020000080560C20E7
:1098B0006465210010270000E312FF1F204E000006
:1098C00030750000409C000000002020FFFF3F3F5B
:1098D00000B50021022000F021F80C49801C08701E
:1098E0000021422000F01AF80949801C087001216B
:1098F000022000F013F80749801C08700121422063
:1099000000F00CF80449801C087000BDDD12FF1F38
:10991000DE12FF1FDF12FF1FE012FF1F30B51D4CCC
:109920001B4A22601B4A4032012914D01A49D160D7
:1099300050630E20106200215162FF2015305062EA
:109940001648057816482B00FBF776FA070A0A072F
:109950000C0E0F0A0F001349E9E71148401E04E0FE
:10996000114802E0114800E01148401EFDD20948AC
:109970008030406B51620002000E11620D49D160CF
:10998000FF21413151626521C902216030BD0000D3
:1099900010000300400003407F407200E312FF1FED
:1099A0000F2700007F405200204E0000307500005D
:1099B000409C00004040100010B500210420FCF73E
:1099C0005BFB01210220FCF757FB10BD10B50449D9
:1099D000085CFF2802D00121FEF7D6FA10BD000076
:1099E00078A0FF1F10B50E4C01280BD00D4A115C5A
:1099F000FF2906D043080522072120465B1C00F002
:109A00008FF910BD012305220721204600F088F9B7
:109A1000034808388168C2051143816010BD000009
:109A200048F0004078A0FF1FF0B5431C5D080124FA
:109A300023466D008343EB1ADD1D2646AE402546C6
:109A40005B1E9D4043085B0020401F1AF81D234603
:109A500083407F1E1648BC40002914D0016A002AAA
:109A60000BD099430162016A0C430462016AB1435D
:109A70000162016A0D430562F0BD99430162016A0A
:109A80000C430462F0BD016A002A0BD0A1430162BD
:109A9000016A0B430362016AA9430162016A0E4332
:109AA0000662F0BDA1430162016A0B430362F0BD8F
:109AB00000F0004010B50446084884420DD001294A
:109AC00007D0022909D101212046FBF7ABFA002873
:109AD00003D103492046FCF703F810BDFEFF000048
:109AE0009AA3FF1F1CB500241346022802D00224AB
:109AF00020461CBD062901D01824F9E70A4619465C
:109B00000748FBF763F9FF2101911120044B044939
:109B1000009010330022881DFCF726F8E8E70000CB
:109B200094A3FF1FF8B548680D46017840781C469D
:109B300000020818144980B2174640180026012276
:109B40000300FBF779F90504191819191B00022005
:109B50002070FCF755FC0D49FAF747FFFBF708F8B2
:109B60000B4980B2C88040BA888022783846E968BC
:109B7000FBF72CF905E006222270F7E700202070A1
:109B80000A263046F8BD00000F00FFFF00007A44AF
:109B90008CA3FF1FFEB50F7A0024099E089DFF06C7
:109BA00001D50820FEBD002D01D00B20FEBD0F7891
:109BB000022F04D00020187001242046FEBD01961B
:109BC0000095FFF7AFFFF8E7FEB54E680024377841
:109BD0007678089D3602BE192B4FB6B2F6194CD0D6
:109BE0002A4830182A4E06D0022823D0032834D021
:109BF0000A242046FEBD002D31D1012B33D1C86887
:109C0000117801703078234901280AD00028F0D15A
:109C100008786A46107048785070009800F0B1F8E3
:109C2000E7E708786A46107048785070009800F0AE
:109C3000BCF8DEE7002D12D1012B14D1C8681178D1
:109C400001707078012804D00028D2D1FFF73AFBC8
:109C5000CFE70020FFF766FBCBE7002D01D00B24F8
:109C6000C7E7012B01D00D24C3E7C8681178017044
:109C7000B1780020FFF7D0FABBE7012400950194EA
:109C8000FBF746FF0446B4E7FED6FFFF1029FFFFAF
:109C90008CA3FF1FF8A4FF1FF8B50E7A0024069DC1
:109CA000B60601D50820F8BD0E78022E02D0012498
:109CB0002046F8BD0095FFF787FFF9E701037028FC
:109CC00007D0712805D020380C2804D20348081882
:109CD00070470348FBE700207047000000000511B3
:109CE00000C00011F8B505022D0A0E46A80701D0E4
:109CF0000C20F8BDD21C9007800F171A002409E031
:109D0000042231462846FCF7FBF9002806D0241D22
:109D10002D1D361DBC42F3D30020F8BD1720F8BD21
:109D2000F0B506680024E4439340012704E03D4673
:109D30009540AC43521CD2B28A42F8D926401E4309
:109D40000660F0BD70B5022605460024600041198A
:109D50004978002903D0012904D0062070BD285C71
:109D6000012101E0285C0021FEF714FA641CE4B232
:109D7000B442EBD3002211462320FEF7CBFB002098
:109D800070BD01B52320FEF701FC684641780078DC
:109D9000002903D0012903D0062008BD012100E0DD
:109DA0000021FEF7F7F9002008BD01B52320FEF7DA
:109DB00087FB684641780078002903D0012901D04B
:109DC000062008BDFEF7E6F9002008BDF8B500251D
:109DD000164C164B164E403C009504E0009A571C5A
:109DE0000097B2421BDCDA6BD207F7D10BE0009A86
:109DF000531C0093B24212DC227D9206F7D5027802
:109E00002270401C00950A46491E89B2002A00951E
:109E1000F2D106E00098411C0091B04201DD0D2016
:109E2000F8BD207D4006F5D50020F8BD404000403B
:109E3000A086010070B51D4C0D1E08D0002806D06C
:109E40002178002908D0012903D0112070BD0620F7
:109E500070BDE188A94201D2032070BDA36801460C
:109E60002A461846FAF744FDA580002060800225A6
:109E70002570A088A268102800D910200C4B5968C2
:109E8000A943596004E061884E1C6680515C1970DA
:109E90000146401E80B20029F5D158682843586019
:109EA0000820FEF70DFB002070BD0000A8C3FF1FB7
:109EB00000400040F8B5224CFCF77AFC0746082029
:109EC000FCF76CFC0820FCF779FC20780821FEF7F1
