:020000041FFFDC
:10080000000000000D80FF1F608AFF1F848AFF1F09
:10081000688EFF1F000000000000000000000000C4
:1008200000000000000000000000000000000000C8
:1008300000000000000000000000000000000000B8
:1008400000000000000000000000000000000000A8
:100850000000000000000000000000000000000098
:100860000000000000000000000000000000000088
:100870000000000000000000000000000000000078
:100880000000000000000000000000000000000068
:100890000000000000000000000000000000000058
:1008A0000000000000000000000000000000000048
:1008B0000000000000000000000000000000000038
:1008C0000000000000000000000000000000000028
:1008D0000000000000000000000000000000000018
:1008E0000000000000000000000000000000000008
:1008F00000000000000000000000000000000000F8
:1009000000000000000000000000000000000000E7
:1009100000000000000000000000000000000000D7
:1009200000000000000000000000000000000000C7
:1009300000000000000000000000000000000000B7
:1009400000000000000000000000000000000000A7
:100950000000000000000000000000000000000097
:100960000000000000000000000000000000000087
:100970000000000000000000000000000000000077
:100980000000000000000000000000000000000067
:100990003178FF1FC578FF1F7584FF1F000000001E
:1009A0000000000000000000000000000000000047
:1009B0000000000000000000000000000000000037
:1009C0000000000000000000000000000000000027
:1009D0000000000000000000000000000000000017
:1009E0000000000000000000000000000000000007
:1009F00000000000000000000000000000000000F7
:100A000000000000000000000000000000000000E6
:100A100000000000000000000000000000000000D6
:100A200000000000000000000000000000000000C6
:100A300000000000000000000000000000000000B6
:100A400000000000000000000000000000000000A6
:100A50000000000000000000000000000000000096
:100A60000000000000000000000000000000000086
:100A70000000000000000000000000000000000076
:100A80000000000000000000000000000000000066
:100A90000000000000000000000000000000000056
:100AA0000000000000000000000000000000000046
:100AB0000000000000000000000000000000000036
:100AC0000000000000000000000000000000000026
:100AD0000000000000000000000000000000000016
:100AE0000000000000000000000000000000000006
:100AF00000000000000000000000000000000000F6
:100B000000000000000000000000000000000000E5
:100B100000000000000000000000000000000000D5
:100B200000000000000000000000000000000000C5
:100B300000000000000000000000000000000000B5
:100B400000000000000000000000000000000000A5
:100B50000000000000000000000000000000000095
:100B60000000000000000000000000000000000085
:100B7000DD7BFF1F000000000000000000000000FF
:100B80000000000000000000000000000000000065
:100B90000000000000000000000000000000000055
:100BA000000000000000000000000000B173FF1F03
:100BB0000000000000000000000000000000000035
:100BC0009973FF1F000000000000000000000000FB
:100BD0000000000000000000000000000000000015
:100BE0000000000000000000000000000000000005
:100BF00000000000000000000000000000000000F5
:0C0C000001FF01FF01FF01FF41000000A7
:020000041FFFDC
:1048000018BDFF1FD548FF1FDD48FF1FDF48FF1FF2
:104810000000000000000000000000000000000098
:10482000000000000000000000000000E148FF1F41
:104830000000000000000000E348FF1FE548FF1FE4
:104840000000000000000000000000000000000068
:104850000000000000000000000000000000000058
:104860000000000000000000000000000000000048
:104870000000000000000000000000000000000038
:104880000000000000000000000000000000000028
:104890000000000000000000000000000000000018
:1048A0000000000000000000000000000000000008
:1048B00000000000000000000000000000000000F8
:1048C0000348854600F038F800480047917FFF1FF5
:1048D00018BDFF1F0448804704480047FEE7FEE775
:1048E000FEE7FEE7FEE7FEE7215DFF1FC148FF1F71
:1048F00003460B439B0703D009E008C9121F08C0F9
:10490000042AFAD203E00B780370401C491C521EA3
:10491000F9D27047D2B201E00270401C491EFBD2AE
:1049200070470022F6E710B513460A4604461946BA
:10493000FFF7F0FF204610BD064C0125064E05E0AE
:10494000E36807CC2B430C3C98471034B442F7D3B0
:10495000FFF7BAFFA48AFF1FF48AFF1F70B58C18F7
:104960000578401C6B075B0F01D10378401C2A11AE
:1049700006D10278401C03E006780E70401C491CEA
:104980005B1EF9D12B0705D40023521E0DD40B70EA
:10499000491CFAE70378401CCB1A921C03E01D78EF
:1049A0000D70491C5B1C521EF9D5A142D8D30020C2
:1049B00070BD000003B40148019001BDB142010087
:1049C00003B40148019001BDC13C010003B401489A
:1049D000019001BDED3C010003B40148019001BD0F
:1049E0001910000003B40148019001BDC93A01004B
:1049F00003B40148019001BD5518000003B40148FB
:104A0000019001BD8117000003B40148019001BD70
:104A1000A53C010003B40148019001BD3917000015
:104A200003B40148019001BD7181000003B4014845
:104A3000019001BD3914000003B40148019001BD8B
:104A40001117000003B40148019001BDF13E0100BF
:104A500003B40148019001BD1B3D010003B40148AE
:104A6000019001BD7114000003B40148019001BD23
:104A7000C131000003B40148019001BDD5420100DD
:104A800003B40148019001BDC912000003B40148FC
:104A9000019001BD3D42010003B40148019001BDF8
:104AA0005D19000003B40148019001BD593A0100AD
:104AB00003B40148019001BD3518000003B401485A
:104AC000019001BDC118000003B40148019001BD6F
:104AD0003515000003B40148019001BD41170000E5
:104AE00003B40148019001BDE915000003B4014879
:104AF000019001BD897B000003B40148019001BD14
:104B0000D520000003B40148019001BDA5E50000D7
:104B100003B40148019001BD3D1C000003B40148ED
:104B2000019001BD0D1D000003B40148019001BDBD
:104B30008306000003B40148019001BD0143010058
:104B400003B40148019001BDE120000003B4014815
:104B5000019001BDED3A010003B40148019001BD8F
:104B6000F53C010003B40148019001BD5D3F010027
:104B700003B40148019001BDDD21000003B40148E8
:104B8000019001BD5590000003B40148019001BDA2
:104B90007D3A010003B40148019001BD913F01003D
:104BA00003B40148019001BDA942010003B40148CA
:104BB000019001BD01E6000003B40148019001BD70
:104BC000C91F000003B40148019001BDD1360000A7
:104BD00003B40148019001BDBD07000003B40148C2
:104BE000019001BD891C000003B40148019001BD82
:104BF000E907000003B40148019001BD6D07000002
:104C000003B40148019001BDFD0E000003B401484A
:104C1000019001BD2D0E000003B40148019001BDBB
:104C20003D07000003B40148019001BD211A0000B6
:104C300003B40148019001BD050E000003B4014812
:104C4000019001BD8922000003B40148019001BD1B
:104C50006902000003B40148019001BD610E00002B
:104C600003B40148019001BD9D0E000003B401484A
:104C7000019001BDD50E000003B40148019001BDB3
:104C8000610F000003B40148019001BDE9970000E5
:104C900003B40148019001BD3D98000003B40148F0
:104CA000019001BDE58D000003B40148019001BDF4
:104CB0004977010003B40148019001BD8D3C01001A
:104CC00003B40148019001BDE55B000003B4014855
:104CD000019001BDE129000003B40148019001BD2C
:104CE0009937000003B40148019001BD5114000040
:104CF00003B40148019001BD091F000003B401483D
:104D0000019001BDA579000010B50D4C2078002858
:104D100014D10C492046FFF704FE01202070002129
:104D2000122002F04BFC0021172002F047FC00216A
:104D3000142002F043FC212002F094FD002010BD5D
:104D400068AAFF1F0708000070B5184C0D46014601
:104D500063792079A21D9B18002807D001281CD058
:104D600002281AD000202071002070BD18462A4663
:104D7000FFF7BEFD6079012140196071122002F039
:104D80001DFC0221122002F0B9FB01220848227109
:104D900002210078FFF70EFEE6E718462A46FFF7E5
:104DA000A7FD607940196071DEE7000068ACFF1F65
:104DB000AD8DFF1F10B5094C6079002802D000F0BE
:104DC0000FF809E00021122002F0F8FB0321122065
:104DD00002F094FB00202071002010BD68ACFF1F82
:104DE00010B50B48C41DFF34FA34217900290CD0CA
:104DF0006179002909D0074A801802F0C3FE00201B
:104E0000607102202071002010BD072010BD00003D
:104E100068AAFF1F0602000070B5134C0026217817
:104E2000124D00290CD0A178201D08181049AA792C
:104E30006118FFF75DFDE078002805D0112070BDF6
:104E4000A670E670AE7107E0A078A9794018A0704E
:104E5000AE716078002801D0072070BD012060701D
:104E600003F038FC002070BD68AAFF1F68AEFF1F6A
:104E700007040000F0B5BFB0314C0027212002F03C
:104E8000F1FC6078002859D0A078002856D001F0B5
:104E900073F8002803D06078012803D00DE050207B
:104EA0003FB0F0BD01273946172002F087FB0221F1
:104EB000172002F023FB02206070261DF8216846AF
:104EC000FFF72FFDA078E178401A142800DD1420A8
:104ED000C5B200A889192A460330FFF709FD6846C4
:104EE00085701848694602781748008801F032F842
:104EF000002803D0042815D01120D1E7E07840190C
:104F0000C0B2E070A1788842D8D100206070E07013
:104F1000A0700146172002F051FB0321172002F078
:104F2000EDFA09E0002F01D0012003E001F038F98B
:104F3000401E80B203F0CEFB0020B1E70720AFE7B0
:104F400068AAFF1FAD8DFF1FAE8DFF1F10B50A4968
:104F50000A48FFF7E6FC0021122002F02FFB002197
:104F6000172002F02BFB0021142002F027FB212048
:104F700002F078FC002010BD0708000068AAFF1F9F
:104F800010B5144B124C0FCB02F0D2FD1248012188
:104F90004902201802F004FE002210490F2002F0FE
:104FA00087FB00221146212002F020FC0021122064
:104FB00002F004FB0021172002F000FB0021142066
:104FC00002F0FCFA06492046FFF7ABFC002010BDBA
:104FD00068AAFF1F888AFF1F070600006D72FF1F67
:104FE0000708000010B5034A1321034800F054FDE0
:104FF00010BD0000E889FF1F088BFF1F10B50024BB
:105000001346002802D00224204610BD0A46194645
:105010000148FFF7D5FCF7E7FF8AFF1FFFB595B002
:105020000025109510AA119500F098F806460A2858
:105030007CD204460620444320462030C0B26A4653
:105040000E2103F015F8002802D168468089C5B208
:1050500017981390404818990078022813D0002020
:105060001290082911D020462130C7B21C220021FD
:105070006846FFF7ABFC6A461C21384602F0F8FF91
:10508000002805D010E00120EAE720462230ECE7B6
:105090006846807EC01F092806D8E907C90F6A46FE
:1050A000129B1398FFF798FC1422002107A8FFF722
:1050B0008DFC20462430C0B207AA102102F0D8FF90
:1050C000002812D11022FF2107A8FFF78BFC00282F
:1050D0000BD12534E0B20BAA042102F0C9FFE90785
:1050E000C90F07AA1798FFF783FC7036F0B20CAA15
:1050F000102102F0BDFF002811D10CA801F0A9F980
:1051000000240CAEA00080190188002903D0827809
:10511000179800F01DFD641CE4B2042CF2D3A8071C
:1051200004D50D48017B179800F000FD189804285D
:105130000FD10949087802280BD10A791798002A5B
:1051400000D001224978002900D004211143FFF743
:1051500055FC002019B0F0BD408CFF1FF0B50A24AB
:1051600085B015460F46002806D0012804D0022835
:1051700010D0032846D11FE0084601F037F9044655
:105180000A283FD2002D3DD0062239462846FFF797
:1051900017FC37E01D4E00240E20604380190622C4
:1051A0003946801DFFF730FC002823D1641CE4B28F
:1051B0000A2CF1D30A241DE000242046062148438E
:1051C0002330C0B26A46102102F052FF00280CD1F1
:1051D0001022FF216846FFF705FC002805D139465B
:1051E0006846FFF717FC002804D0641CE4B20A2CC0
:1051F000E3D3DFE70A2C05D2002D03D02946204651
:1052000001F00CF9204605B0F0BD000094A6FF1F88
:1052100070B50C460146032000020A1A00253448E6
:105220001300FFF7FDFB1D1012151C1F2326282C51
:10523000303234383A3C3E40424446484A4E50525E
:105240005A5456585A00C07911E01022294902E0F8
:105250002849102210312046FFF7B2FB45E0C06A12
:10526000206042E0224906223C31F4E700782070B9
:105270003BE0808936E01E4942784231EBE71D4928
:1052800082781F39E7E7007AF1E7407AEFE71849BB
:1052900006223031DFE7807AE9E7C07AE7E7C089A4
:1052A00020E0808A1EE0C0781CE0C08A1AE0008BF3
:1052B00018E0408B16E0808B14E00D490622363151
:1052C000C9E7C08B0EE0008C0CE0408C0AE08079CE
:1052D000CDE7008A06E0408A04E0272904D2084688
:1052E000FFF7A4FB208000E00225284670BD0000E7
:1052F000E88CFF1F5FA7FF1F70B50E4C0025607183
:10530000A571691EE181FFF797FB0420E07110226F
:1053100000210948FFF75AFB0748102200211030EE
:10532000FFF754FBE562257265720120A072E572F9
:1053300070BD0000E88CFF1F5FA7FF1FFEB53B4D4F
:105340000C4608040CD56879FFF77CFB050004D0F7
:1053500001F088F92846FFF77BFB0120C00360E0DD
:10536000600403D5012080034840FEBD2F48E107BB
:105370000126807900292AD02978002920D0052803
:1053800021D0287A69460870687A4870274900A8B1
:10539000062230310230FFF713FBA87A6946087203
:1053A000E87A48726879FFF759FB002808D007208F
:1053B000A871696A002903D00968002900D08847CC
:1053C00020467040FEBD032069460870E5E7A1074E
:1053D0000DD5052809D1E889FFF746FBAA8A002ADE
:1053E00003D002216879FFF7E5FA022019E060078F
:1053F00004D5002001F076F9042012E0200712D530
:105400002879012802D002280AD107E00096AB8B48
:105410006A8B298BE88A00F00BF801E000F05AF95A
:1054200008206040FEBD0020FEBD0000E88CFF1F8C
:10543000F8B5134C069DA679052E01D01420F8BDB1
:10544000104F861FBE4219D2062917D3BE1DB14286
:1054500014D2FF27F537BA4210D20A2B0ED3B3422B
:105460000CD2E08221836283A383284601F03AF9BB
:1054700004216079FFF7FEFA0020F8BD1820F8BD7E
:10548000E88CFF1F7A0C0000F7B50C4680490098A5
:10549000164642187F4F00257879B9791300FFF737
:1054A000BFFA190E141BE92040455970777E888F8A
:1054B000E996A2A9B4BFC8E9E9E9E9D3E900102C4B
:1054C00076D11022314674486FE0102C70D17248AA
:1054D00010223146103068E0042C69D13068F8623F
:1054E000CEE0012C64D13B7832783A70002B0AD0A0
:1054F000002A07D1022903D0062901D0042901D1AD
:10550000FFF7BEFABCE0002A0AD0012905D0032922
:1055100003D0052901D0042902D10121FFF7B6FAF1
:10552000AEE0022C44D13088B881A9E01F2C3FD8CE
:1055300058481F2200214230FFF748FA55482246BA
:1055400031464230FFF73CFA524B7C7042332246E0
:10555000012112E01F2C7CD84F481F2200211F3848
:10556000FFF734FA4C48224631461F38FFF728FA35
:10557000494BBC701F3B224600217879FFF78CFA1B
:1055800083E0012C65D13078042862D8387277E046
:10559000012C5ED1307803285BD8787270E0062C3D
:1055A00057D13C48062231463030FFF709FA67E010
:1055B0004FE0012C4DD1307807284AD8B8725FE00F
:1055C000012C46D13078032843D8F87258E0022CD9
:1055D0003FD13288BA82002A52D0052950D1022107
:1055E000FFF7E8F94CE0012C33D13078012830D8AE
:1055F000F87045E03088022C2BD1062829D31921D8
:10560000C901884225D8F8823AE03088022C20D19E
:1056100006281ED31921C90188421AD838832FE0E1
:105620003088022C15D1FF21F531884211D27883C0
:1056300026E03088022C0CD10A280AD31921C9018E
:10564000884206D8B8831BE03178012C01D10129AA
:1056500001D0182514E00821FFF724FA002801D012
:1056600016250DE0002001F03DF804217879FFF7C0
:1056700001FA05E00098272801D2022C02D0022569
:105680002846FEBD3188FFF713FA0546F8E700000B
:10569000FFFCFFFFE88CFF1F5FA7FF1F1CB50B4C33
:1056A000A179002901D011201CBD002800D0606222
:1056B000064907482C31034601910090103B002217
:1056C000E179607900F016F800201CBDE88CFF1F1E
:1056D0006FA7FF1F10B506488179052901D0122058
:1056E00010BDC18913224079FFF7E8F910BD000011
:1056F000E88CFF1FF8B51D460224069F079E0B008D
:10570000FFF78EF90A150806060815061506061590
:10571000002C0CD1FFF7D8F9040008D132463946E5
:105720002846FFF7D7F9FFF7DBF9FFF7DFF9204647
:10573000F8BD0000014610B50020C90704D0034A97
:105740000421034800F0A8F910BD0000108AFF1FD3
:10575000688DFF1F70B50F4D0F4CA870294614318E
:10576000204600F01DF8002128460B460C30CA00E8
:1057700084521218491C09065360090EF7D0012003
:1057800001F0CCFBA878FFF7B7F90448FFF7BAF9A6
:1057900070BD00004C8DFF1FFFFF0000AD67FF1FB5
:1057A00070B50A4C0025A04209D1002082008C521D
:1057B0005218401CC0B295700228F7D370BD00F09B
:1057C000C4FF0028FAD00480857070BDFFFF000080
:1057D000F8B50E460746069900240798002902D01E
:1057E0000B242046F8BD022B01D00D24F9E71178D7
:1057F0005278120289188DB22946814301D0802443
:10580000EFE73846F16800F03FF9A842E9D02A46B0
:105810003846F16800F0CAF90400E2D171892A46DD
:10582000384600F067F9DCE770B50C46080412D57D
:105830000A488078FFF706F9050008D02878B028D4
:1058400002D1284601F09CF82846FFF701F9012013
:10585000C003604070BD002070BD00004C8DFF1F74
:10586000FFB583B0087A00250C9E1C460F46C00683
:105870000DD5059800F062FF030006D00A223946D4
:1058800003989847050035D101E00E2532E03878BD
:1058900002281DD17868292201784078120200027E
:1058A000081881B2881A91427ED009DC7348081A20
:1058B00023D0012821D002284FD0032808D125E089
:1058C000012872D0022871D003286DD004286ED030
:1058D000059800F05BFF00286AD00568002DD4D041
:1058E0000E990D980191009033462246394603984F
:1058F000A8470546284607B0F0BD0D98002872D18C
:10590000F868017831700278416896E00D980028B7
:1059100069D101203070F868002100782070788902
:10592000401C80B2FFF7F4F800280DD031780278DF
:105930008918891C3170817A61704189090AA170C6
:1059400002784168E01C79E030780422001D307054
:105950000021601CFFF73AF8CCE70D98002875D1BC
:10596000F86802A900880090042030700098207028
:105970000098000A60700098FFF7CAF8070029D065
:10598000F86800906846028901AB3D493846FFF748
:10599000C5F8002810D13B7802213A487A68FFF711
:1059A000C3F8002808D104E026E030E01CE04AE01B
:1059B00062E03348694688800098007802280CD15C
:1059C000009802224168201DFEF7FAFF3078801C03
:1059D000307002E069460098888068468088A07030
:1059E000000AE07086E731E00D9800282ED1F968B2
:1059F000039800F049F804E00D98002826D1F868D3
:105A00000088022131702070000A607072E7F86827
:105A1000FFF790F80D99C0B2814212D8814201D1AE
:105A2000002206E00E9A8918814202D30D99401A8D
:105A3000C2B23270F9680D9809182046FEF7C0FF0F
:105A400058E7072556E70D98002801D00B2551E7A8
:105A50000721F86831700178217041786170817890
:105A6000A1704188090AE170017921718179617120
:105A7000C088000AA0713DE700252FE7002800003C
:105A8000FFFF00001E7C010010B500F05EFE002844
:105A900000D0807810BD00007CB51546040019D0F8
:105AA000684601940180FFF74BF803001DD1002DDB
:105AB0001BD06489002C0DD00C20FFF747F800287C
:105AC0000AD0002303608480094A85605168002958
:105AD00004D006E0022308E0132306E0506004E04F
:105AE00011460A68002AFBD1086018467CBD0000F8
:105AF0004C8DFF1FF8B50C4C0746207815460E4616
:105B0000FF280FD00A20FFF727F801000AD0B120A4
:105B100008700020487008714F80CE800D81207879
:105B2000FFF720F8F8BD00004C8DFF1F70B50C4644
:105B300005460649FFF7A8FF800704D521462846F9
:105B4000FFF716F870BD012070BD0000608DFF1FCB
:105B50001CB56B461A71120A5A7100220092022378
:105B600001AA00F001F81CBDFFB583B008461E462F
:105B700001A90C9FFEF7CCFF050014D06846808871
:105B800000F004FE00280AD04468002C09D00097D9
:105B9000F3B22946059A0398A04707B0F0BD002448
:105BA000F3E70E20F9E70120F7E7000070B514468F
:105BB0000E46054600F0C9FD002806D131460548CD
:105BC00000F0C3FD002803D005808470002070BD64
:105BD000112070BDFFFF0000014610B50020C9076D
:105BE00004D0034A07210348FFF756FF10BD000009
:105BF000FC89FF1F748CFF1F70B50D4616460024EC
:105C00001D490300FEF70CFF080512343419342235
:105C10002934152D23D8162200211848FEF7D6FE68
:105C20002A4631461548FEF7CBFE22E0022D16D15A
:105C300011491088103908801BE0082D0FD10E483B
:105C4000082231460838FEF753FE12E0012D06D136
:105C5000CA6909493078283107E0012D01D018249C
:105C600007E0CA6B04493078483101F00CFA00E0D3
:105C70000224204670BD0000748CFF1F2AA7FF1F5E
:105C8000002805DBC106C90E0120884001490860D3
:105C90007047000000E100E08307FF22DB0E9A401E
:105CA0008907090E9940002808DB830809489B00F2
:105CB0001818036893430B43036070470007000FF5
:105CC0000838830804489B001818C36993430B43A2
:105CD000C361704700E400E000ED00E08307FF22AD
:105CE000DB0E9A408907090E9940002808DB8308DB
:105CF00009489B001818036893430B4303607047DF
:105D00000007000F0838830804489B001818C3696F
:105D100093430B43C361704700E400E000ED00E0F3
:105D2000024901480860704740787D01748EFF1F6A
:105D3000F8B506460027FEF721FF04460648051B76
:105D400006E0FEF71BFFA04201D3071B00E02F185F
:105D5000B742F6D3F8BD0000FFFFFF0002E008C81D
:105D6000121F08C1002AFAD170477047002001E0D5
:105D700001C1121F002AFBD1704710B5FEF704FFC6
:105D80000120FEF707FFFEF70BFF002010BDF0B566
:105D900000248E464A1E12E0714600230D1B6D1E24
:105DA0000AE09E0031188C46875949688F4202D913
:105DB000815161464F605B1C9D42F2D8641C944245
:105DC000EAD3F0BD10B504460848FEF79BFE00215B
:105DD0000748C943018000218170064A0621001D41
:105DE000FFF75AFE0249091F0C6010BDF95DFF1F45
:105DF000008EFF1F4C8AFF1F084A10B590420BD03F
:105E0000012906D0022907D10121FEF7CFFE002883
:105E100002D103490020887010BD0000FEFF000081
:105E2000008EFF1F30B5454C8BB0607006211F20DF
:105E3000FEF73EFE01206A461072107307201076AE
:105E400000209083142111841E21118290827D20D4
:105E5000C00090843AA003C80191009006213A48FE
:105E6000FFF712FBC32006AA01218000FFF70CFBFD
:105E7000354802AA0121801FFFF706FB324807AA16
:105E80000221401FFFF700FB224661200C32172140
:105E9000C000FFF7F9FA2C48224623321521001FD3
:105EA000FFF7F2FA312003AA01210001FFF7ECFA13
:105EB000254808AA0221801DFFF7E6FA224804AA15
:105EC0000221C01DFFF7E0FA1F4805AA0221083091
:105ED000FFF7DAFAC52009AA02218000FFF7D4FAF9
:105EE0002246383215210020FFF786FEFF25913526
:105EF00029460620FEF7DCFD29460720FEF7D8FDDF
:105F000029460820FEF7D4FD29460920FEF7D0FDDA
:105F10000025ED432846FFF75FFE2846FFF70AFC01
:105F2000FFF760F80948FFF74DFF0948FFF728F829
:105F300001216078FEF7AAFD0BB030BDAC8DFF1FCC
:105F400001020304050600000B030000D97FFF1FB8
:105F5000D57FFF1F10B5074A9278D20707D0054AB0
:105F6000443252890A800022FEF726FE10BD12201C
:105F700010BD0000008EFF1F02488078012800D06D
:105F800000207047008EFF1F38B5C80701250C465A
:105F9000002805D01948FFF781FB2046684038BD2E
:105FA000200708D5684605706A4601211448FFF7A6
:105FB0006BFA08201DE0600602D54020484038BD3D
:105FC000A00703D5FEF70CFF022012E0200603D540
:105FD000FEF750FF80200CE0E00504D5FEF7EAFE56
:105FE000FF20013005E0A00505D5FEF715FF0120D3
:105FF0004002604038BD002038BD0000B08DFF1F5A
:1060000005030000F8B5087A00271D4616460C4621
:10601000C00601D50820F8BD2078022860680DD0A0
:1060200010221149FEF7F0FC002817D00E4910226B
:1060300010396068FEF7E8FC3846F8BD0178407812
:1060400000020818094980B28842F5D10220187070
:1060500002463046E168FEF7B3FCEDE70120287008
:1060600031203070E8E700003C8AFF1F0229000061
:106070001FB504460300FEF7D3FC0644041F444446
:106080003844C12002A98000FFF7C2F86946087AA7
:106090000870487A4870887A887000200871C87043
:1060A000487BC871087B8871C87A48716A460821A4
:1060B0000020FEF7A3FF24E00021142001F07EFA67
:1060C0000321142001F01AFAFEF740FF00211220EC
:1060D00001F074FA0321122001F010FA00211720B8
:1060E00001F06CFA0321172009E008490848FFF77E
:1060F0008FF80121142001F061FA0221142001F02F
:10610000FDF90248801E04701FBD0000AE8DFF1F08
:106110000E030000FEB58446087A0024089F154649
:10612000800601D50820FEBD08781B4E022811D03C
:10613000488931460831498D884209D131680029A2
:1061400006D003206A461070538001951046884798
:106150002046FEBD486802784078000210180F4AB9
:1061600080B29042F4D1012001902A460097604607
:10617000FFF72EFB0400EBD131680029E8D06A78E4
:106180002878120280180004000C03D002206A460E
:106190001070DBE70120FAE7FC8DFF1F02290000E9
:1061A0001CB569460A48FFF733F8C72001A98000EB
:1061B000FFF72EF8694688880988401C484381000B
:1061C0004018C117890F08188003000C1CBD00007F
:1061D0001B03000010B50020054CFF212218401CB5
:1061E00051704028FADB01F0EBFF207010BD000079
:1061F000D0B4FF1F10B50020054CFF212218401C11
:1062000051700628FADB01F0F9FF207010BD000084
:106210007D8EFF1FF0B58646080CFF2684460023BE
:1062200088B237461C46194601228A400546154069
:10623000CD402C19A4B2FF2F02D1012C00D18FB276
:1062400065462A40CA40D21893B2FF2E02D1012BD4
:1062500000D18EB2491C1029E6DB012C02D0102C93
:1062600008D009E0012B07D13001C0197146087030
:106270000220F0BD102B01D00320F0BD0120F0BDA5
:10628000032806D3012189078B680122824013432A
:106290008B60704701480068704700001010FF1FB6
:1062A000012292071368012181408B43136010681B
:1062B0000843106070470000F8B5496894460A78B2
:1062C00049780698090251188FB2444A11210025D5
:1062D000079CBE1A091A974243D009DC404ABA18F3
:1062E00013D0012A1CD0022A25D0032A08D12EE07F
:1062F000012E40D0022E48D0032E50D0292E5AD045
:10630000002018700A252846F8BD082855D2082113
:10631000091AA14200D80C46E2B21A70314957E07E
:106320000C284AD20C21091AA14200D80C46E2B22C
:106330001A702D494CE00D283FD20D21091AA142B7
:1063400000D80C462849E2B21A700D3140E01128FD
:1063500033D2A14200D80C462349E2B21A701B3155
:1063600036E0112829D2A14200D80C461E49E2B2DB
:106370001A702D312CE011281FD2A14200D80C46F2
:106380001949E2B21A703F3122E0112815D2A14218
:1063900000D80C461449E2B21A70513118E00E28A8
:1063A0000BD20E21091AA14200D80C460E49E2B2C6
:1063B0001A7063310CE0072801D30725A3E70721F2
:1063C000091AA14200D80C460649E2B21A70C91F48
:1063D00009186046FEF7F4FA95E70000272A000046
:1063E000DDD5FFFFFF8AFF1F7489FF1F70B50A4DBF
:1063F000064600240E206043401906223146FEF76F
:1064000003FB002801D0204670BD641CE4B20A2CB6
:10641000F0D30A2070BD000094A6FF1F7FB50D4683
:106420000A280CD2002D0AD0062148432030C0B2E1
:106430006A460E2101F01CFE040003D007E0022092
:1064400004B070BD062269462846FEF7B9FA204618
:10645000F6E700218A00835A491CDB438352121855
:106460009378C9B2DB4393700429F3D370470000DB
:10647000F8B5074600200090784CB9780546072605
:106480006079A2790B00FEF7CBFA0805DD1A3636E3
:106490005E98C1DD787800285AD170480622F91C30
:1064A0003C30FEF78DFA0120A0716C4B014642335F
:1064B00062786079FEF7F0FA002849D1C5E0797872
:1064C000002945D1F978002906D0654BA278002132
:1064D000FEF7E2FA78700AE0022A0BD00121FEF7FB
:1064E000E1FA002803D101216079FEF7CFFA78782C
:1064F00000282DD1F8BD7B78002B29D1032909D0A4
:10650000A289002A0CD0217800290AD00121FEF7A7
:1065100051FA06E0052A01D0022012E0062010E020
:106520002570A079062802D0042802D008E00520B2
:1065300007E00120207001466079FEF7A7FA84E0A9
:106540000320A07181E07878002803D0312832D070
:10655000A6717AE041480622391D3630FEF730FA3E
:106560007889E081B8892082F88960820520A0714D
:10657000A28A002A03D002216079FEF71BFAB889AB
:10658000E083F8892084388A6084E07801280AD181
:106590001F20FEF74BFA7D21C90048430246042123
:1065A0006079FEF707FA7A89F8780423391DFEF737
:1065B00035FD257049E02570C2E7284806220021F4
:1065C0003630FEF703FAE58325846584042160797B
:1065D000FEF750FA08216079FEF74CFAB8790828DE
:1065E00008D00320A0712078002805D06079FEF73C
:1065F00047FA07E00420F5E70120207001466079A2
:10660000FEF744FA0020C043E0811EE00821FEF7B7
:1066100031FA7878002800D06CE7F888E083388970
:1066200020847889608404216079FEF73BFA002891
:10663000F2D1A06A0028EFD00368628C218CE08B35
:106640009847F8BD00980028FBD0606A0028F8D071
:1066500001680029F5D0A0798847F8BDE88CFF1FB4
:1066600040A7FF1F10B501781C4C912906D0A22924
:106670001BD0D02901D1FFF7FBFE10BD41780E29B8
:10668000FBD18188164A9142F7D1816803200856D0
:10669000A1790529F1D17F28EFD0616A0029ECD0DA
:1066A00049680029E9D0884710BD41791329FBD1F9
:1066B0000089012802D12079022808D00520FEF7A0
:1066C000B5F9024608216079FEF774F910BD08217A
:1066D0006079FEF7CFF9FEF7FDFF10BDE88CFF1FD4
:1066E000051400007CB5144C0546E08BE18A884215
:1066F0000AD3218B884207D8208C618B884203D132
:10670000608CA18B884216D00520FEF78FF90646D3
:10671000E08A69460880208B4880608B8880A08B47
:10672000C8806279E089FEF74DFA2571324608216A
:106730006079FEF73FF97CBDE88CFF1F10B500F0D3
:1067400025F8002800D0806810BD00229300CB5AA5
:10675000834202D1900040187047521CD2B2022AE4
:10676000F4D3002070470000074A0021CB00D35A21
:10677000834202D1C80080187047491C0906090EDF
:10678000F4D0002070470000588DFF1F064949686B
:1067900005E08A88824201D188687047096800292B
:1067A000F7D10020704700004C8DFF1FF8B5074659
:1067B000012906D0022924D10121FEF7F7F900288A
:1067C0001FD13846FFF7D0FF050015D000240D4E2D
:1067D0000CE0F8206968604308180188002908D097
:1067E000F8220021FEF7F2F8641CE4B270788442CB
:1067F000EFD30020C0432880024938461431FEF709
:10680000CFFFF8BD4C8DFF1FF3B5074683B00830AE
:10681000029000267888FFF7A7FF019000282FD06C
:10682000002523E001984168F82068430C1821886E
:1068300000291FD00298007801280ED160880090AE
:1068400023797888621DFFF78FF9060005D0029939
:1068500000200870049821880180F8220021204639
:10686000FEF7B4F800206D1C2080EDB20748407898
:106870008542D7D30021C9430198002E018002D15F
:106880007888FEF7A5F9304605B0F0BD4C8DFF1FA6
:10689000F3B50546364C074685B00835162200216B
:1068A0002046FEF793F803A800902B796988288882
:1068B0006A1DFEF793F9064644E02E482E490078FB
:1068C0000022C01FC0B2009101920290284B69467D
:1068D0008A897888F63B3146FEF7C2FF002812D13C
:1068E0002548E979C01EC27891420CD1204928463A
:1068F000F6390830FEF788F8002804D0217870892E
:1069000089000919488068468289698804AB304645
:10691000FEF704F921780646880000194288002A0B
:1069200010D0002E05D06A46128A491C2170828040
:106930000AE00A060020920DC0431219491C21707A
:10694000908006E0002E04D00C4821780088814217
:10695000B3D32078002806D078882146FEF744F982
:10696000002007B0F0BD0698298801800A20F8E7CA
:106970006EA9FF1FEC10FF1F4F8DFF1FF410FF1FAC
:10698000F0B585B0044600256846858120790E283B
:106990007ED00EDC082822D004DC022812D0062883
:1069A0006ED117E0264608360A281ED00C2867D17B
:1069B00038E0102879D012287CD016287FD01828EB
:1069C0005ED181E044484349008808806088FEF732
:1069D00011F955E003A92046FFF75AFF03E003A988
:1069E000204600F06DF905463BE0308804A9FEF72B
:1069F0008FF8010014D03948364F00780097401EB8
:106A0000C0B2019502906A4660887B1C128AFEF72C
:106A100027FF05001DD160883946FEF7F1F820E018
:106A2000012516E0308804A9FEF772F80100F7D0BE
:106A30002A4872880078274F401EC0B20192009702
:106A400002906A466088128A7B1CFEF709FF0500E7
:106A500003D030886946888103E060883946FEF7B4
:106A6000D5F8002D0CD06078142809D01949207968
:106A700008706846808948800D716088FEF7CCF800
:106A80002046FEF7CFF816488168002906D003E0BB
:106A900006E00AE00EE012E02046884705B0F0BDAF
:106AA00003A9204600F098F99DE703A9204600F0CD
:106AB0006BF898E703A9204600F0F2F993E703A9E1
:106AC000204600F00FF88EE703A92046FFF79CFE52
:106AD00089E700006EA9FF1FEE10FF1FEC10FF1FDB
:106AE0004C8DFF1FF8B504460F4605460834008953
:106AF0006946FEF70DF806003DD0307A80060ED5C7
:106B000068460088FFF71AFE030006D06888122244
:106B100031469847061E02D02EE00E262CE06E88E5
:106B20003046FFF721FE010005D11548FFF71CFE96
:106B300001000ED00E80134A0020567807E0F8239B
:106B40004A684343D25A002A07D0401CC0B2B04220
:106B5000F5D30926002E09D00EE04968F8225043EB
:106B600008182146FDF72CFF0026F3E76888214628
:106B7000FEF75EF802E00126208838803046F8BD36
:106B8000FFFF00004C8DFF1FF3B587B0079A04A8E4
:106B90000832039200900026137951881088454CE2
:106BA0003746521DFEF71AF8054669E00798297A1C
:106BB0004088FEF743F8070003D0089869890180F0
:106BC00060E03D48002100783C4A801FC0B201913E
:106BD000029000920798374B69460A8A4088F63B34
:106BE0002946FEF73DFE0700E7D1002E2BD03348A3
:106BF0006178C01EC078021D914245D131182E48DF
:106C00000088801F81423FDCA119A87A8870761C19
:106C1000F0B269892218090A401C9170C6B2039823
:106C200005AB41886846028A2846FDF777FF0500D4
:106C30000FD06946888AA11988706946761C898AAE
:106C4000F0B2090A0AE01D48C01EC078001D60703D
:106C5000DAE7FF21A0198170761CF0B2221891703A
:106C60001649401CC91ECA78C6B21249A019F63985
:106C7000801CFDF7A5FE1148C01EC0783018C6B2B2
:106C8000002D93D1002E0CD061783046FDF7DCFF4B
:106C90002070079821464088FDF7DCFF002009B0EE
:106CA000F0BD002F00D10A270398018808980180C1
:106CB0003846F4E76EA9FF1FEC10FF1F4F8DFF1F32
:106CC000F3B585B00598404D08300390078800243F
:106CD000019455E004A80090039803794188421D6F
:106CE0003846FDF77BFF06004FD005987789317A4B
:106CF0004088FDF7A3FF0190002846D133480021CA
:106D00000078334A001FC0B20092019102900598AA
:106D10002D4B69460A8A4088F63B3146FEF7A0FDB6
:106D20000190002831D1002C3ED029486978C01E3E
:106D3000C078801C81422AD1254BDB1ED8782118CF
:106D400022480088001F81421FDC2919B07A887010
:106D5000641CE0B22A187189401C090A9170C4B2FF
:106D6000194928191E46DA78F639801CFDF728FEE5
:106D7000F0782018C4B21748874206D07F1CBFB2F3
:106D800012480088001F8442A4DD002C12D06978CC
:106D90002046FDF759FF2870059829464088FDF7E1
:106DA0005FFF002007B0F0BD0948C01EC078801CFE
:106DB0006870C1E70198002801D10A200190069867
:106DC00007800198EEE700006EA9FF1FEC10FF1F7F
:106DD0004F8DFF1FFFFF0000F3B585B000272D4C3E
:106DE000059E27703D46083642E06800305A03A9E8
:106DF000FDF78EFE010017D02748284B007800933E
:106E0000401EC0B20022019202900598214B6A46B2
:106E10004088F63B9289FEF723FD070006D0680004
:106E2000315A0698018031E00127F8E71B482178A4
:106E3000C01EC2788C468B18174909884A1E934297
:106E400003DD6246891A491EC1702278611C5318FD
:106E500012481049C01EC278F6391846FDF7B0FD39
:106E60000E482178C01EC07808186D1C2070EDB245
:106E7000B07DA84205D9084821780088401E81428B
:106E8000B3DB059821464088FDF7F0FE384607B091
:106E9000F0BD00006EA9FF1FEC10FF1F4F8DFF1FFC
:106EA000F3B5054683B006460835008901A9FDF70C
:106EB0002FFE3746E8370446002822D0207A800685
:106EC0000ED568468088FFF739FC030006D070882D
:106ED000122221469847040002D013E00E2411E04C
:106EE00000200090AB7829887088EA1CFEF73CFEF1
:106EF000040007D1387E00280AD17088FDF7BCFE57
:106F000003E00124049829880180387E002802D0FB
:106F1000002005B0F0BD2046FBE70000F8B50446B0
:106F20000246F820424319480025064645700C36B3
:106F30007068002807D00020C1008919401C000695
:106F40004D60000EF8D0124F00213846FDF73EFD8F
:106F5000002318466043C0B2F8214843C1190B48CA
:106F6000DA000C3016187160002105E0F8224A435F
:106F70007068491C8552C9B2A142F7D35B1C1B063D
:106F80001B0EE6D0014844700020F8BD4C8DFF1F59
:106F900080A7FF1F7CB50C78069D022C0ED14C6893
:106FA0002678647824023419054EA4B2F44205D13F
:106FB000022400950194FEF70BFC7CBD01207CBDF2
:106FC000FED6FFFFF8B5069800271D4614460E466C
:106FD000002801D00B20F8BD30780021022801D014
:106FE00019704DE070680278407800021018152280
:106FF00080B25202801A0300FDF712FD0504121F31
:107000001A254100F068FDF795FDC2B2079882424B
:1070100000D902462A70F1682046FDF7D1FC30E025
:10702000F0680221008829702070000A607028E052
:10703000062028700246F168EEE701202870F0680B
:10704000007820701DE0F068002816D00821297013
:10705000017821700188090A61708178A1704188E6
:10706000090AE170017921718188090A61718179C8
:10707000A171C088000AE07103E0297001E0297065
:1070800001273846F8BD10B50B78840702D50224D5
:10709000234301E0FD2423400B7003070B7802D546
:1070A0000824234301E0F72423400B7083060B7868
:1070B00002D52024234301E0DF2423400B700A2162
:1070C000084201D1810603D510780C21084304E061
:1070D000002803D11078F3210840107010BD000083
:1070E000FFB581B0087800240A9E1F460D4602288D
:1070F0000FD168680178407800020818152180B225
:107100004902401A09D0012829D0022848D0032872
:107110003CD00124204605B0F0BDE868FDF70AFD2B
:10712000C0B2864205D8F0190090152803D90D2465
:10713000F0E70724EEE7E8683A4680190399FDF77F
:107140003FFC0098EA6880B2002111541C48406856
:107150000028DFD001680029DCD0002012E0002EDA
:1071600012D1022BE3D10399E8680A784978090221
:1071700051180180124840680028CBD001680029CE
:10718000C8D001208847C5E70B24C3E7002EFBD1F8
:10719000062BCCD10622E8680399FDF711FCB9E76C
:1071A000002EF1D1012BC2D103980078002803D022
:1071B000012801D08024ADE7E9680870AAE7000043
:1071C000648CFF1F10B5122801D3052010BD0B4B96
:1071D0009C6B01228240104620439863586B904379
:1071E0005863D86B002906D09043D863186B0243CC
:1071F0001A63002010BD1043F7E700000080004034
:10720000084B042807D2012207E0104300E0904316
:1072100058610020704701221238824058690029C5
:10722000F5D0F2E70038004070B50F4E0024351954
:107230006878022806D9E0B200F07CF90146E0B295
:1072400000F094F9232C0ADA6878022807D9E0B212
:1072500000F070F90C216143891920314871641CD8
:10726000232CE4DB70BD0000E8B2FF1F38B50D4CE5
:1072700069460D48FDF7CCFF684600880B498842F7
:107280000BD02078002808D0212000F05DFA0028DB
:1072900002D1212000F080FA38BD212000F0E2FA6E
:1072A00038BD000068AAFF1F0E030000FFFF0000AA
:1072B00070B502211020FEF711FD1020FEF7E0FC52
:1072C000114E00240C2060438019203000790028E2
:1072D00013D0E0B200F0B6F9E5B2284600F02AF982
:1072E00000280ED000210C226A43921920325279D4
:1072F000824202D0284600F03DF8641C232CE1DBDA
:1073000070BD0121EFE70000E8B2FF1FF3B5184E92
:1073100081B00F46002401200199A040084222D0EC
:10732000384201D1012500E00025E0B2294600F0F5
:1073300021F80C20604380194168806800290DD035
:10734000002806D0002D02D00021E0B203E0012188
:10735000FBE7E0B20021FFF735FF04E0002802D090
:10736000E0B20121F7E7641C122CD4DBFEBD000063
:107370000CB3FF1F074A0C2343439B185A68002A8B
:1073800001D0002904D09A68002A02D0012900D136
:10739000104770470CB3FF1F10B50448C16B034A78
:1073A00040321068D060FFF7B1FF10BD0080004090
:1073B00010B50E4880680007000F062807D007DCCC
:1073C00002280BD0042802D1012000F007FD10BDD7
:1073D000072806D00C28FAD10220F6E700F026FD97
:1073E00010BD02484030C06B10BD0000004000409E
:1073F000C306DB0E01229A40064B40098000C018EC
:107400000029C16801D0114300E09143C160002010
:10741000704700000038004030B50D460446012199
:10742000FFF7E6FFA108074889000A189169A0073D
:10743000C00EFF238340994385402943916100207A
:1074400030BD00000038004010B5114C20780028F5
:1074500001D0072010BDFF21C9310D48FDF761FAA9
:10746000012020700B490020086348630A49086224
:10747000486202211020FEF731FC1020FEF700FCCC
:10748000064A07490D2000F0B1F9002010BD0000A8
:10749000E8B2FF1F0080004080F00040B172FF1F83
:1074A0002972FF1F30B50D460446042803D3204639
:1074B0001F38032803D801212046FFF7A1FE002131
:1074C0002046FFF795FF01200B49122C08D2A0405F
:1074D0004A68002D01D0024300E082434A6008E080
:1074E000123CA0400A69002D01D0024300E0824313
:1074F0000A61002030BD00000080004070B50C46DD
:107500000A21FDF7A1FB4A008A1801210B46521CF3
:107510009340551CA9400B43D943830004481818D5
:1075200083680B402146914019438160002070BD63
:1075300000F000400C4A0C4B0121403A122807D2BF
:1075400081405068084201D0106809E0186907E0DE
:10755000123881401069084201D0D06800E05869B3
:10756000084000D00120704740800040F8B50E462A
:1075700005460A21FDF768FB48000918EA060124C0
:10758000D20E204690406A0993000B4A9A18136A5B
:10759000034313628C40084F2846803F0A21FDF7C1
:1075A00053FB8000C0198168002E01D0214300E008
:1075B000A14381600020F8BD80F0004030B50D4649
:1075C00004460121FFF76EFF01220B48122C08D25E
:1075D000A2400168002D01D0114300E091430160F9
:1075E00008E0123CA240C168002D01D0114300E028
:1075F0009143C160002030BD0080004030B504469A
:107600000E48112C01D9052030BD0C210025614305
:1076100045540A4829462438001945702046FFF78A
:1076200041FF0749886B4A6B0120A0400346104385
:1076300048630A6B9A430A63284630BD0CB3FF1FA8
:107640000080004070B5054618480C226A431418A3
:1076500061680126002902D1A168002906D01349DA
:1076600024394919122D03D3032302E0122070BDDF
:1076700004234B700121815400212846FFF712FF9B
:107680006068002810D0A06800280CD02846FFF7BA
:1076900051FF002801D0012100E000212846FFF71A
:1076A00091FD002070BD00263146F7E70CB3FF1FA7
:1076B000F8B516460D460446084FFFF79FFF0C200D
:1076C0006043C3199E6020465D60FFF7BBFF050065
:1076D00002D02046FFF792FF2846F8BD0CB3FF1FEB
:1076E0000449420903D000204860062070474860E2
:1076F000002070476C8EFF1F10B5044811224368AC
:107700001521034801F004F8002010BD6C8EFF1F06
:107710001CF0004010B578210948FDF702F909482E
:107720000078012805D0022806D0032806D00428B6
:1077300004D1FDF7A7FA01E0FDF7AAFA002010BD79
:1077400070B2FF1F6C8EFF1F10B51149002409781D
:10775000012919D0042917D072B600210D4B0C2233
:107760004A439A5C002A0CD0824207D10C20414344
:10777000C8184078012804D1012402E0491C0A29D4
:10778000EDDB62B6002C01D0012010BD002010BD41
:107790006C8EFF1F70B2FF1F10B5124904460978A6
:1077A0001220012914D0042912D072B600210E4BE8
:1077B0000C224A439A5C002A11D0A2420CD10C221E
:1077C00051430120C9184870FDF75CFA002006E01B
:1077D000FDF758FA002010BD491C0A29E8DB62B603
:1077E00010BD00006C8EFF1F70B2FF1F70B500242B
:1077F0000E4E23460C255D43755D854201D1072061
:1078000070BD002D0BD05B1C0A2BF3DB002C0AD0C3
:10781000002363702070A2601846616070BD0C2464
:1078200063439C19F2E7032070BD000070B2FF1F94
:1078300070B5FFF761FF0A4D002420460C21484334
:10784000295C002909D040194068002800D08047F1
:10785000641C0A2CF1DB002070BD122070BD0000FA
:1078600070B2FF1F70B515490022097801290FD0A9
:1078700004290DD072B60021114D0E460C234B4346
:10788000EC5C002C0FD0844205D15B195E7007E0E0
:10789000FDF7F8F90CE05B195B78002B00D0521C67
:1078A000491C0A29EADB002A04D0FDF7EBF962B68D
:1078B000002070BDFDF7ECF9F9E700006C8EFF1FAA
:1078C00070B2FF1F70B50A4D002420460C214843BA
:1078D000295C002909D040198068002800D0804721
:1078E000641C0A2CF1DB002070BD122070BD00006A
:1078F00070B2FF1F10B516490A2008701549012003
:10790000087015490020087000F030F81348042171
:10791000C16113498160C160016112494161012166
:107920000A20FFF7EBFD0D480D230F221221143022
:1079300000F0EEFE00210420FEF7AEF90121022046
:10794000FEF7AAF9084A00212020FFF74FFF10BDDB
:10795000E112FF1FE212FF1F0013FF1F00F00040A3
:10796000B66DDB36B6EDC3B0C186FF1F70B51548E6
:10797000002200680424866B102513481349330045
:10798000FDF74EF8070808050C0E13080500056002
:107990000C600DE020220260052004E0302305E0A9
:1079A000402202600620086002E0602303600A6053
:1079B000FDF774F9FDF778F900F05CFD00F03EFC8E
:1079C00070BD0000788EFF1F2010FF1F2410FF1FC6
:1079D000F8B51F4E1E4F08361E4C1125012820D029
:1079E00000281DD100211020FFF788FD0021112063
:1079F000FFF784FD032308220921304600F088FEAA
:107A0000062200231146304600F082FE16231B2278
:107A10001F21384600F07CFE2068C16AA943C1627C
:107A2000F8BD05231B221F21384600F071FE0A4BCA
:107A300007221021304600F06BFE0622012311467A
:107A4000304600F065FE2068C16A2943E7E7000080
:107A500014F00040788EFF1FFB030000F8B5FF21F3
:107A60002D312B4E2B4C00281AD001232A4A9B047F
:107A7000022817D08025012819D016681E431660E9
:107A8000536806460B360127B7403B4353605368A3
:107A90002B43536003281AD0042833D01F4A17E021
:107AA000266016E015681D4315601D4A10E0176832
:107AB0001F431760536801277F05BB43536053681A
:107AC0003F123B43536053682B435360E8E7154A2A
:107AD0002260491E0904090CFBD103460E4800220E
:107AE0000321001F00F014FE01208007C1690E4D24
:107AF000890709D580690005010E491C2068FDF73A
:107B0000A3F802E0094AE3E720682860F8BD000016
:107B10000048E8011810FF1F40F0004000D8B805E9
:107B20000024F400006CDC021010FF1F0090D00352
:107B30001FB5124C2078002802D0112004B010BDCF
:107B400020210E48FCF7EDFE6846407A002803D15C
:107B50006846C07A002801D00520EFE768460FC8C4
:107B600010340FC40120203C207000F091FE044A24
:107B700000210820FFF73AFE0020DFE7B0B4FF1F26
:107B80009188FF1F10B5054A927E002A02D000F0AE
:107B900005FE10BD00F0CEFD10BD0000B0B4FF1F0B
:107BA00010B50D4B1C781A1D002C05D09B7E002BA8
:107BB00004D01378002B03D0072010BD052010BD82
:107BC00072B69060D18000205080908001201070AB
:107BD00062B6002010BD0000B0B4FF1F0020401CA2
:107BE0001028FCDBFEE70000F8B56B4A69496C4BD6
:107BF0006A481160D861002084000023401C0B51AA
:107C0000FF28F9DD1068FF2201468031654B6F3295
:107C10008B600A250565C262634A13788363634BF0
:107C2000C3611378022B06D01378032B05D0137889
:107C3000042B04D005E0102302E0142300E01823F5
:107C400003625B4B4361594B3424963383613C237D
:107C5000CB603623C363082344643A2603644E6032
:107C600031260E603B26CE634626CE640F4639266B
:107C7000403758C732260E6502260E661E274F660D
:107C80004226543158C1CC608B6005240E614C6192
:107C90005A2460390C614B613C248C61AF24E400B0
:107CA00004601478022C06D01478032C05D01478C4
:107CB000042C05D005E0102400E00924446000E015
:107CC0004360FF242D348460192676010661640028
:107CD000C460384E7D278664FF00CF674762364E0A
:107CE000C664364F87627327C76506274765876571
:107CF000C31D0827F9331F600227476684660924DD
:107D0000C4662F4C046708244467FF242D3484671D
:107D10002C4CC4672C4806601078022806D01078D6
:107D2000032807D01078042808D00AE01220C86180
:107D3000192001E00C20CD61086202E008200D62EC
:107D4000C8611C4888627D20C00088676420486242
:107D500005200F63C862C82048630020886338206C
:107D60005860AF21C9001948996118644B20196205
:107D7000C000D8617D20000158621649144888600F
:107D80001449154880318862FEF724FAFEF732FA6A
:107D9000F8BD0000000CFF1F788EFF1F000CFF1FB6
:107DA0000010FF1F18BDFF1FE312FF1F4605000054
:107DB00060E3160050C30000740E00006A18000053
:107DC000204E0000881300009412FF1F0040001195
:107DD000A97EFF1F0009FF1F3D82FF1F70B5114CD8
:107DE00088B0217E104B03AD00290BD00E498031A5
:107DF0004968CAB2002102E01E786E54491C9142C3
:107E0000FADB04E0197D012219786B461973E169E8
:107E1000002905D06B46187001951A72684688478C
:107E200008B070BDB0B4FF1F004000403EB51B4A13
:107E30001178101D00292FD0117E00292CD0917EA1
:107E4000002929D00178022926D1818844888368B5
:107E5000091B89B2102900D9102100290BD0104C20
:107E60000A46491E89B2002A16D04288551C458010
:107E70009A5C2270F4E70121017000214180818029
:107E8000D169002905D007486C460DC80DC4684665
:107E900088470820FFF7E6FC3EBD0000B0B4FF1F96
:107EA00000400040988AFF1F70B52B4800680128E9
:107EB00003D12A48816F491C81672A4828494161BA
:107EC0000121C1600160284A506BC1B22748007887
:107ED000002817D126480023C356002B254BC35634
:107EE00006DB1B040024045720021818401808E081
:107EF000FF331B0400240457200218181E4B40189F
:107F0000C0185063022901D2022102E0502900D991
:107F100050211A48027814481430022A11D0184A05
:107F20001478184B1D78AC4214D914781B78E31AD6
:107F3000891E49104B4311784901C91A10314B1160
:107F400003E0114A1478114BECE70022072100F0FE
:107F5000DFFB70BD1378F8E75812FF1FD03BFF1FFF
:107F6000FF3F000000100340800003405312FF1F3A
:107F70000013FF1F00000000FFFE0000E212FF1FC1
:107F8000DD12FF1FDE12FF1FDF12FF1FE012FF1FB7
:107F900010B50E4C022020700321C9020C48FCF7DA
:107FA00089FEFFF721FEFFF7B5FBFFF7A3FC207862
:107FB000FFF754FD0020FFF70BFDFFF745FA1F20E8
:107FC000FFF78EFBFDF7D9FE002010BDE312FF1F67
:107FD000848EFF1F7047000010B50178012908D07A
:107FE000022909D0032903D181784068FCF7ACFE4F
:107FF00010BDFCF7ABFF10BDFCF786FE0248402128
:108000004078FCF743FD10BDAC8DFF1F70B5002418
:108010001220FCF79BFD1549122208600021FCF795
:10802000D5FC20460124FCF74BFE02252046FCF738
:108030004DFE03242846FCF74FFE04252046FCF79E
:1080400051FE05242846FCF753FE06252046FCF782
:1080500055FE07242846FDF74FF908252046FDF771
:1080600079FB2846FDF7DEFE70BD0000688EFF1F1D
:1080700070B514460D4600F037FB00280DD001689E
:10808000491C0AD0011D2A462046FCF799FC2946C6
:10809000204600F004F8002070BD0A2070BD0020CA
:1080A000491E01E0401C80B28842FBDB70470000A3
:1080B00070B5164C144DE06940084000E0610620A0
:1080C000FDF736FE11484038826980210A438261FB
:1080D000E26901231A43E261A26A920503D42A46A7
:1080E0006D1E002AF8DC002D07DB226A7E23D60BEA
:1080F00082691E409A433243826182698A43826167
:108100003006400E70BD0000983A000040F000407C
:10811000FFB581B00D46064610240C4F0CE0FFF76A
:10812000C7FFB04208D2A84206D90499039800F0CC
:108130000FF8C019C72804D32046641EE4B20028F3
:10814000EDD11020001BC0B205B0F0BD21F1FFFF42
:10815000F0B5002591B00E4607462C460BE01020E6
:10816000FDF7E6FD1448406AA2008104890C6846C8
:10817000641C8150E4B2BC42F1D339466846FDF735
:1081800006FE0E4A002057426C460EE081006358FE
:10819000934201D9D91900E0D11A642902D90020EB
:1081A00011B0F0BD5D19401CC0B2B042EED33146F3
:1081B0002846FCF749FDF3E740F00040420F00007D
:1081C000F8B50C4D0C4E0024A0004019016868461B
:1081D000FEF720F8022805D0002C02DD012800D18E
:1081E0000320F8BD321969460978641C5170402C8F
:1081F000EADBF8BD00080011D0B4FF1FF8B5002479
:108200000C4D0D4F0526A000401901686846FEF789
:1082100001F8022805D0002C02DD012800D103203E
:10822000F8BD321B6946D2190978641C5170062CBE
:10823000E9DBF8BD000900117D8EFF1F10B500F0CD
:1082400011F800F0C9F9064A0121582000F03CF964
:108250000423082219463820FFF75AFF10BD0000FA
:10826000F812FF1FF8B52F4803782F4C16221B2158
:10827000204600F04DFA032311221221204600F07F
:1082800047FA241D062316221A21204600F040FA40
:10829000032312221321204600F03AFA23480078E3
:1082A000032828D0002319221A21204600F030FA92
:1082B0000B2304220721204600F02AFA1C4E3378B3
:1082C00016221721204600F023FA1B4D1948E860BA
:1082D00042152A61194868611949A961164C403450
:1082E0006260A060E160144F1648403F386030780B
:1082F000012802D00BE00323D5E700220123114619
:10830000384600F005FAFF204130286160600E48D1
:1083100000780E49C006C00B4018B8630C48E861ED
:10832000F8BD0000DC12FF1F40F00040E312FF1F09
:108330007C8EFF1F20010020C0000340A403B0007A
:1083400000008A04242D0000E112FF1F2508000010
:108350002FFF260070B530492F4A4039002825D01C
:10836000022823D08B1513625A020A612B4A0A6332
:108370002B4A127801231B03D2184A612649264C46
:10838000C039803C002815D06522264DD202264BEC
:10839000012819D002281CD0244E801908602448D6
:1083A00048602260A560E360224819E080231362E0
:1083B000DA02DAE7204808600020A0601F48206049
:1083C0001F48E0601F480BE01F480860A56022605E
:1083D000E9E71D48401C0860A5602260E3601B4877
:1083E00020610D48FF2300220721B43800F090F9E6
:1083F000174860611748A0611748E061174820627C
:10840000174860621748A0621748E0621748206367
:108410001748606370BD0000C00003400300000106
:10842000DD12FF1F55555537D6BE898E0080069840
:10843000545A9850805508220080067800280B0076
:1084400007EE7536806608220180064280450822C4
:10845000A49C5C544C0C0403025A544E483C3633E2
:108460002D007F5D57514B453C363056504A443EB7
:10847000322C262010B5FFF7F5FE0448007800F0F6
:1084800009F803480078FFF765FF10BDE112FF1FF0
:10849000E212FF1F10B5044609483F2C0DD00D23F2
:1084A0000F22122100F034F90648816BE20609051B
:1084B000090DD20B1143816310BD0823F0E70000C2
:1084C00014F0004080000340F0B5364C666AA56A9F
:1084D00000236362A362344C60630E2020626362F7
:1084E0004020A0625020E0622A2060622E48403086
:1084F000012926D0802101622C49FF232A48A53377
:10850000403083602A4B4360274B2A48403B186128
:108510007D20C000401EFDD2274889050F18224843
:1085200040388763244B5B1CC91881632449234866
:1085300009780B00FCF774FA070B0B100D0F100BEA
:108540001000FF210131016218498331D5E71D4830
:1085500002E01D4800E01D481D49116012494031EC
:1085600003E0CB6ADB439B0F11D0401EF9D20E48CB
:10857000403887630020A062E06288606062206209
:10858000FF2041306062074846628562F0BDC86ADC
:10859000104B1840106010680122000C1204801863
:1085A0004860E4E70010034080000340CA02000076
:1085B0002020000080560C20646521001027000058
:1085C000E312FF1F204E000030750000409C0000A9
:1085D00000002020FFFF3F3F00B50021022000F0F7
:1085E00021F80C49801C08700021422000F01AF884
:1085F0000949801C08700121022000F013F8074986
:10860000801C08700121422000F00CF80449801CF5
:10861000087000BDDD12FF1FDE12FF1FDF12FF1FFB
:10862000E012FF1F30B51D4C1B4A22601B4A40322E
:10863000012914D01A49D16050630E201062002124
:108640005162FF20153050621648057816482B00FD
:10865000FCF7E6F9070A0A070C0E0F0A0F00134988
:10866000E9E71148401E04E0114802E0114800E02B
:108670001148401EFDD209488030406B5162000213
:10868000000E11620D49D160FF2141315162652117
:10869000C902216030BD000010000300400003400B
:1086A0007F407200E312FF1F0F2700007F4052003F
:1086B000204E000030750000409C0000404010003B
:1086C00010B500210420FDF7E7FA01210220FDF793
:1086D000E3FA10BD024610B5024880210078FCF78D
:1086E00069F910BDAD8DFF1F0103702807D07128F7
:1086F00005D020380C2804D20348081870470348D6
:10870000FBE70020704700000000051100C00011C9
:10871000F0B506680024E4439340012704E03D4699
:108720009540AC43521CD2B28A42F8D926401E432F
:108730000660F0BDF8B50025164C164B164E403CB1
:10874000009504E0009A571C0097B2421BDCDA6BDC
:10875000D207F7D10BE0009A531C0093B24212DC0F
:10876000227D9206F7D502782270401C00950A46B9
:10877000491E89B2002A0095F2D106E00098411CFA
:108780000091B04201DD0D20F8BD207D4006F5D5F9
:108790000020F8BD40400040A086010070B51D4C8F
:1087A0000D1E08D0002806D02178002908D0012904
:1087B00003D0112070BD062070BDE188A94201D20E
:1087C000032070BDA36801462A461846FCF790F8BE
:1087D000A5800020608002252570A088A26810284E
:1087E00000D910200C4B5968A943596004E06188F6
:1087F0004E1C6680515C19700146401E80B20029F3
:10880000F5D15868284358600820FEF7C5FF0020BE
:1088100070BD0000B4B4FF1F00400040F8B504462E
:1088200069461748FCF7F4FC6846008815498842F9
:1088300002D1FCF78BFBF8BD0122134992028D187F
:108840002078D21D8E1801280AD0022808D00328CB
:10885000F1D10E48FF2101310078FCF717F9F8BD7E
:1088600000F070F800F062F8A879227A8019616847
:10887000FCF73EF8A879217A4018A871F8BD0000ED
:108880000E030000FFFF000068AAFF1FAD8DFF1F51
:10889000F8B5224CFDF7FEFC07460820FDF7F0FC7A
:1088A0000820FDF7FDFC20780821FEF7B5FD607873
:1088B0000921FEF7B1FD1A4D00262E7361683811AB
:1088C0004A088018FCF7C0F92E6180212973020A3A
:1088D0002A71287003202873207A002802D087226A
:1088E0002A7200E02E7201226A60002802D06868B5
:1088F00008436860A07A002803D068680221084312
:10890000686001210748C90201600748016809023F
:10891000090A020711430160F8BD0000C0B4FF1F3F
:108920000040004000E100E008E400E010B5044829
:1089300001210A2249020078FCF73CF810BD000032
:10894000AD8DFF1F10B50348012149020078FCF7E7
:1089500091F810BDAD8DFF1F0A18232A242A252A5D
:10896000262A272A282A292A2A2A502A02000000F1
:108970005889FF1F4D6F64656C204E756D6265727E
:108980000053657269616C204E756D6265720046B8
:1089900069726D77617265205265766973696F6E71
:1089A0000048617264776172652052657669736907
:1089B0006F6E00536F6674776172652052657669D9
:1089C00073696F6E004D616E756661637475726573
:1089D00072204E616D6500FE006578706572696D8C
:1089E000656E74616C000000B962FF1F000000003A
:1089F0000000000002000000187C0100C56FFF1F8E
:108A0000E170FF1F00000000020000001A7C01005E
:108A100000000000956FFF1F0000000055E405D224
:108A2000AF9FA98FE54A7DFE43535349B39B7234F0
:108A3000BEECD4A8F44341884353534916962447C7
:108A4000C62361BAD94B4D1E435353490560FF1FDE
:108A50001561FF1F00000000100000001C8AFF1FAE
:108A6000DD5F000099300000293800003116000059
:108A700035200000C57A00003D53FF1F2958FF1F15
:108A8000895FFF1F09000000090AFFFF00C2010003
:108A9000010001001D88FF1F03000000000000000E
:108AA00000000000F48AFF1F848EFF1F48010000B1
:108AB0005C5DFF1F848EFF1FF48AFF1F9003000080
:108AC0005C49FF1F000CFF1F848EFF1F0C0000007D
:108AD0005C5DFF1F848EFF1F000CFF1F0004000061
:108AE0005C49FF1F3C8CFF1F848EFF1F942E0000EB
:108AF0006C5DFF1F32022401040593100129141438
:108B00001C7C0129122D6C89FF1F105A22104BF476
:108B10008A101A5A1829105AFF1069204B388C10E5
:108B20005A5C20DA74405A39205A5E20DA81205A81
:108B30003A205A6020DA8F205A3B205A6220DAA16C
:108B4000205A3C205A6420DAB3205A3D205A66202D
:108B5000DAC5205A3E205A6820DAD7205A3F205AD8
:108B60006A201BF88A10590129102124053F102280
:108B70000A031CE803125032A02BE8034C5A1C5C79
:108B8000DAF46C5AE46C5A3010CB2AA7205AE5204C
:108B90005A32105A641069205AE6105A38102A6C5A
:108BA000101302029A019A653075FFFF12060B1E20
:108BB000800CB681041F020106595509143E99F430
:108BC000CB088AB44BA88D101A3A10A9301A281075
:108BD000299B1A60207220457160FF1F10120D0939
:108BE00050687920424C4520556172740512141268
:108BF0001E2B020AA55813110755E405D2AF9FA9F1
:108C00008FE54A7DFE435353492A2A2D2A091E9C8B
:108C1000DA589C36648EFF1F105A2C181A6710A958
:108C2000205A65201A3C20415A662069BC1119104F
:0C8C30008B0C3068413C40787DE96910F5
:040000051FFF48C1D0
:00000001FF
