:020000041FFFDC
:1008000000000000395FFF1F4C6DFF1F546DFF1F7C
:100810000C000120000000000000000000000000AB
:1008200000000000000000000000000000000000C8
:1008300000000000000000000000000000000000B8
:1008400000000000000000000000000000000000A8
:100850000000000000000000000000000000000098
:100860000000000000000000000000000000000088
:100870000000000000000000000000000000000078
:100880000000000000000000000000000000000068
:100890000000000000000000000000000000000058
:1008A0000000000000000000000000000000000048
:1008B0000000000000000000000000000000000038
:1008C0000000000000000000000000000000000028
:1008D0000000000000000000000000000000000018
:1008E0000000000000000000000000000000000008
:1008F00000000000000000000000000000000000F8
:1009000000000000000000000000000000000000E7
:1009100000000000000000000000000000000000D7
:1009200000000000000000000000000000000000C7
:1009300000000000000000000000000000000000B7
:1009400000000000000000000000000000000000A7
:100950000000000000000000000000000000000097
:100960000000000000000000000000000000000087
:100970000000000000000000000000000000000077
:100980000000000000000000000000000000000067
:100990000956FF1FCD56FF1FBD68FF1F0000000056
:1009A0000000000000000000000000000000000047
:1009B0000000000000000000000000000000000037
:1009C0000000000000000000000000000000000027
:1009D0000000000000000000000000000000000017
:1009E0000000000000000000000000000000000007
:1009F00000000000000000000000000000000000F7
:100A000000000000000000000000000000000000E6
:100A100000000000000000000000000000000000D6
:100A200000000000000000000000000000000000C6
:100A300000000000000000000000000000000000B6
:100A400000000000000000000000000000000000A6
:100A50000000000000000000000000000000000096
:100A60000000000000000000000000000000000086
:100A70000000000000000000000000000000000076
:100A80000000000000000000000000000000000066
:100A90000000000000000000000000000000000056
:100AA0000000000000000000000000000000000046
:100AB0000000000000000000000000000000000036
:100AC0000000000000000000000000000000000026
:100AD0000000000000000000000000000000000016
:100AE0000000000000000000000000000000000006
:100AF00000000000000000000000000000000000F6
:100B000000000000000000000000000000000000E5
:100B100000000000000000000000000000000000D5
:100B200000000000000000000000000000000000C5
:100B300000000000000000000000000000000000B5
:100B400000000000000000000000000000000000A5
:100B50000000000000000000000000000000000095
:100B60000000000000000000000000000000000085
:100B70009D5AFF1F00000000000000000000000060
:100B80000000000000000000000000000000000065
:100B90000000000000000000000000000000000055
:100BA000000000000000000000000000B150FF1F26
:100BB0000000000000000000000000000000000035
:100BC0000D50FF1F000000000000000000000000AA
:100BD0000000000000000000000000000000000015
:100BE0000000000000000000000000000000000005
:100BF00000000000000000000000000000000000F5
:0C0C000001FF01FF01FF01FF9100000057
:020000041FFFDC
:1048000068230120D548FF1FDD48FF1FDF48FF1F39
:104810000000000000000000000000000000000098
:10482000000000000000000000000000E148FF1F41
:104830000000000000000000E348FF1FE548FF1FE4
:104840000000000000000000000000000000000068
:104850000000000000000000000000000000000058
:104860000000000000000000000000000000000048
:104870000000000000000000000000000000000038
:104880000000000000000000000000000000000028
:104890000000000000000000000000000000000018
:1048A0000000000000000000000000000000000008
:1048B00000000000000000000000000000000000F8
:1048C0000348854600F038F800480047095FFF1F9D
:1048D000682301200448804704480047FEE7FEE7BC
:1048E000FEE7FEE7FEE7FEE7014CFF1FC148FF1FA2
:1048F00003460B439B0703D009E008C9121F08C0F9
:10490000042AFAD203E00B780370401C491C521EA3
:10491000F9D27047D2B201E00270401C491EFBD2AE
:1049200070470022F6E710B513460A4604461946BA
:10493000FFF7F0FF204610BD064C0125064E05E0AE
:10494000E36807CC2B430C3C98471034B442F7D3B0
:10495000FFF7BAFF586DFF1F986DFF1F30B58C1819
:104960000278401C13071B0F01D10378401C120969
:1049700006D10278401C03E005780D70401C491CEC
:104980005B1EF9D101E00B70491C521EFBD1A14204
:10499000E6D3002030BD000003B40148019001BD02
:1049A0006902000003B40148019001BD5590000068
:1049B00003B40148019001BD7D3A010003B40148F0
:1049C000019001BD913F010003B40148019001BD78
:1049D000A942010003B40148019001BDD542010084
:1049E00003B40148019001BD9502000003B40148E1
:1049F000019001BDE997000003B40148019001BD99
:104A00003D98000003B40148019001BD8D3C0100B8
:104A100003B40148019001BD098C000003B40148B2
:104A2000019001BDED3A010003B40148019001BDC0
:104A3000ED3C010003B40148019001BDE55B0000BD
:104A400003B40148019001BD4103000003B40148D3
:104A5000019001BDB142010003B40148019001BDC4
:104A600071810000002805DBC206D20E01219140B1
:104A7000014A11607047000000E100E010B5002815
:104A800019DB1A4A03231B02D21883089B00D25851
:104A90008307DC0EFF23A3409A438B071B0E84077A
:104AA000E40EA3401A43114B032424021B1984086B
:104AB000A4001A5118E00E4A03071B0F083B9B087D
:104AC0009B00D2588307DC0EFF23A3409A438B0739
:104AD0001B0E8407E40EA3401A43054B0407240F62
:104AE000083CA408A4001A5110BD000000E100E039
:104AF0001CED00E010B5002819DB1A4A03231B0245
:104B0000D21883089B00D2588307DC0EFF23A340F2
:104B10009A438B071B0E8407E40EA3401A43114BE4
:104B2000032424021B198408A4001A5118E00E4A19
:104B300003071B0F083B9B089B00D2588307DC0E22
:104B4000FF23A3409A438B071B0E8407E40EA34068
:104B50001A43054B0407240F083CA408A4001A516B
:104B600010BD000000E100E01CED00E010B586B0D3
:104B700004460E4804700F216846017220214172DC
:104B8000002181720121C172002101730175084861
:104B90000490084808490968486180200094019001
:104BA00002A80FC800F0B2FD06B010BD1000012031
:104BB000B162FF1F00E1F5051800012070B5054640
:104BC0000C46214607A001F0CFF9802020400028A4
:104BD00005D000F03BFE20468021484070BD0020FB
:104BE000FCE70000514445435F50726F6365737387
:104BF0004576656E743A20307825780A000000000A
:104C0000014802490860704740787D011400012086
:104C100070B50446E0037D21C900FFF7BDFE0546DF
:104C200000F002F870BD0000F8B506460027FFF757
:104C3000B9FE05460AE0FFF7B5FE0446AC4201D3D3
:104C4000601B02E00348401B00190746B742F2D33D
:104C5000F8BD0000FFFFFF0002E008C8121F08C1F6
:104C6000002AFAD170477047002001E001C1121FED
:104C7000002AFBD1704710B5FFF79AFE0120FFF71D
:104C80009DFEFFF7A1FE002010BDF0B500248E466A
:104C90004A1E12E0714600230D1B6D1E0AE09E00A5
:104CA00031188C46875949688F4202D98151614633
:104CB0004F605B1C9D42F2D8641C9442EAD3F0BD65
:104CC00010B50020054CFF212218401C51704028CF
:104CD000FADB01F099FC207010BD0000201B0120C0
:104CE00010B50020054CFF212218401C51700628E9
:104CF000FADB01F0A7FC207010BD00001D000120B0
:104D0000F0B58646080CFF268446002388B2374655
:104D10001C46194601228A4005461540CD402C19F3
:104D2000A4B2FF2F02D1012C00D18FB265462A40D8
:104D3000CA40D21893B2FF2E02D1012B00D18EB2FD
:104D4000491C1029E6DB012C02D0102C08D009E008
:104D5000012B07D13001C019714608700220F0BD47
:104D6000102B01D00320F0BD0120F0BD032800DA94
:104D7000704701218907896801228240114301227D
:104D80009207916000BFF3E7014800687047000098
:104D90001010FF1F012189070968012282409143F9
:104DA00001229207116011460968012282401143D5
:104DB000012292071160704710B502460B46122A75
:104DC00001DB052010BD1248816B0120904001439A
:104DD0000F488163416B012090400C46844321467B
:104DE0000B484163C16B002B03D10120904001436C
:104DF00004E0012090400C46844321460448C163EE
:104E0000016B012090400143014801630020D9E774
:104E10000080004010B50246042A11DA002907D0AC
:104E200013484069012393401843114B58611CE01B
:104E30000F4840690123934098430D4B586114E09B
:104E4000002909D00A4840691346123B01249C40BE
:104E50002043074B586108E0054840691346123B60
:104E600001249C40A043024B5861002010BD00006B
:104E70000038004070B500241BE00F48005D022898
:104E800007DDE0B200F010FA0546E0B2294600F076
:104E900039FA232C0CDA0848005D022808DDE0B25C
:104EA00000F002FA0C216143034A2332891848704A
:104EB000641C232CE1DB70BD2518012010B50221F4
:104EC0001020FFF7DBFD1020FFF7CCFD00240CE0E5
:104ED0000C2060430649085C002805D0E0B200F0D1
:104EE00079FAE0B200F078F8641C232CF0DB10BDF6
:104EF00048180120F3B581B00646234D002440E058
:104F00000120A040304000283AD00120A040029962
:104F10000840002801D1012000E000200746E0B24F
:104F2000394600F033F80C206043401940680028EF
:104F300010D00C2060434019806800280AD0002F50
:104F400001D1012000E000200746E0B23946FFF71A
:104F500033FF14E00C20604340194068002804D05F
:104F6000E0B20021FFF728FF09E00C206043401960
:104F70008068002803D0E0B20121FFF71DFF00BFC9
:104F8000641C122CBCDBFEBD4818012070B5044621
:104F90000E46104D0C20604340194068002808D090
:104FA000002E06D10C2060434019426820469047ED
:104FB0000EE00C20604340198068002808D0012EC4
:104FC00006D10C2060434019012182682046904799
:104FD00070BD00004818012070B50446204600F05E
:104FE00063F90546002D01D1012000E000200646AE
:104FF0000C206043044940184078A84203D0314651
:105000002046FFF7C3FF70BD4818012070B5054862
:10501000C56B044840300468C46029462046FFF749
:1050200069FF70BD0080004038B50121142000F0F8
:10503000D7F80121142000F09FF91B4A118C907FB2
:10504000FFF7C8FC0120FFF7E3FD17488079142122
:10505000484316494018C469134840690019124969
:1050600048610846C068002807D00846406900909B
:105070000846C1686846884700BF0C4880680A49EE
:105080008979CA00012191400843084988600F20AE
:1050900000F0DCFA0121142000F0A2F80021142015
:1050A00000F06AF938BD0000FC1A012000B0004091
:1050B00010B5114880680407240F062C14D004DCB6
:1050C000022C0ED0042C14D107E0072C0DD00C2C90
:1050D0000FD1022000F020FE0BE0012000F01CFEAA
:1050E00007E000F04DFE04E003E003484030C06BF1
:1050F00000BF00BF10BD00000040004030B50246B8
:10510000D406E40E0120A040034600290BD0501124
:1051100080000B4C0019C06818435411A400084DBE
:105120006419E0600AE050118000054C0019C06865
:1051300098435411A400024D6419E060002030BD72
:105140000038004030B504460D4601212046FFF7E7
:10515000D5FFA01080000A4940188069A107CA0E37
:10516000FF2191408843A107CA0E29469140084378
:10517000A1108900024A89188861002030BD000012
:105180000038004010B511480078002801D00720F1
:1051900010BDFF21C9310D48FFF7C3FB01200B49AA
:1051A000087000200A49086348630A490862486297
:1051B00002211020FFF762FC1020FFF753FC064A83
:1051C00006490D2000F0F6F90020E1E7241801203F
:1051D0000080004080F00040BD4EFF1F754EFF1F55
:1051E00070B504460E46042C03DB222C05DC1F2C74
:1051F00003DB01212046FFF70DFE00212046FFF7CB
:105200007DFF122C0FDA0125A540002E05D00F4896
:10521000406828430D49486016E00C484068A843A0
:105220000A49486010E02046123801258540002ECA
:1052300005D00648006928430449086104E0034892
:105240000069A84301490861002070BD008000404A
:10525000F3B581B00C4626460A210198FFF7C0FB42
:1052600048000818451C0120A840691C01228A40FA
:105270001043C7430A210198FFF7B2FB8000094998
:105280004018806807403046A840384306460A2147
:105290000198FFF7A5FB80000249401886600020B6
:1052A000FEBD000000F0004030B50346122B0FDABF
:1052B00001229A40124844681440002C01D0016831
:1052C00002E00F484030016908461040014610E0F6
:1052D0001846123801228240094804691440002C03
:1052E00001D0C16802E006484030416908461040DC
:1052F0000146002901D0012030BD0020FCE700005C
:1053000000800040F3B581B00C460A210198FFF7F8
:1053100067FB48000818C6B20121019800F0DAFCCA
:105320000120B0400546002C11D00A210198FFF75A
:1053300057FB80000F49401887682F430A210198C6
:10534000FFF74EFB80000B494018876010E00A21F0
:105350000198FFF745FB8000064940188768AF4376
:105360000A210198FFF73CFB800002494018876042
:105370000020FEBD00F0004070B505460E4601213C
:105380002846FFF72DFF122D0FDA0124AC40002E26
:1053900005D00F48006820430D49086016E00C480E
:1053A0000068A0430A49086010E02846123801242A
:1053B0008440002E05D00648C06820430449C860D8
:1053C00004E00348C068A0430149C860002070BDE4
:1053D00000800040F8B504462A4D012600270C2025
:1053E000604340194068002807D10C2060434019F1
:1053F0008068002801D11220F8BD122C04DB0321A3
:1054000020482338015503E004211E482338015564
:1054100001210C206043295400212046FFF7E0FEC3
:105420000C20604340194068002815D00C206043D0
:105430004019806800280FD02046FFF735FF074647
:10544000002F01D0012000E0002006463146204612
:10545000FFF7B2FC0020CFE70C2060434019406802
:10546000002801D0002606E00C2060434019806827
:10547000002800D0012631462046FFF79DFC002081
:10548000BAE700004818012010B50A48007800F07B
:1054900037FA012000F0E6F91F2000F019F800F0BB
:1054A00035F800F081FDFFF76DFE03A000F05CFD14
:1054B00010BD0000E312FF1F616C6C2064726976FE
:1054C000657220696E6974204F4B210A000000004C
:1054D000014648094001002804D00020034A10601A
:1054E00006207047014801600020FAE7080001200B
:1054F00010B50448112215210368034801F004FB8C
:10550000002010BD080001201CF0004010B57821DB
:105510000C48FFF706FA0C480078012806D002284C
:1055200008D0032809D0042808D100E000BFFFF705
:105530005DFA03E0FFF760FA00E000BF00BF002063
:1055400010BD0000841A01200400012070B505463A
:10555000122616480078012803D014480078042841
:1055600003D1FFF743FA002070BD72B6002417E0A4
:105570000C2060430E49085C002800D112E00C208A
:1055800060430B49085CA84209D101210C2060430B
:10559000074A80184170FFF729FA002602E0641CD0
:1055A0000A2CE5DB00BF62B63046DDE704000120CF
:1055B000841A012070B503460C46154600210022CE
:1055C00012E00C2050430F4E305C984201D107206E
:1055D00070BD0C2050430B4E305C002803D10C20D2
:1055E0005043811902E0521C0A2AEADB00BF00295D
:1055F00001D10320ECE7002048700B704C608D60F7
:1056000000BFE5E7841A012010B5FFF771FF002401
:1056100015E00C2060430C49085C002801D11220E1
:1056200010BD0C206043084940184068002805D090
:105630000C216143044A891848688047641C0A2C7D
:10564000E7DB0020ECE70000841A012070B5054676
:1056500000261C480078012803D01A480078042846
:1056600003D1FFF7C3F9002070BD72B600241BE020
:105670000C2060431449085C002800D116E00C207F
:1056800060431149085CA84205D100210C20604309
:105690000D4A801841700C2060430B494018407837
:1056A000002800D0761C641C0A2CE1DB00BF002E11
:1056B00002D1FFF7A1F901E0FFF798F962B60020E7
:1056C000D2E7000004000120841A012010B5002454
:1056D00015E00C2060430C49085C002801D1122021
:1056E00010BD0C206043084940188068002805D090
:1056F0000C216143044A891888688047641C0A2C7D
:10570000E7DB0020ECE70000841A01207FB582B0BF
:105710000B9D0A9C13480078002802D0072006B091
:1057200070BD6846017A0171417A4171817D817154
:10573000032201A90B481B30FFF7DAF8094802A938
:105740004EC9001D4EC014388477058401200549D8
:10575000087000F0D7FD044A04490F20FFF72AFF24
:105760000020DCE7FC1A01204964FF1FD963FF1FFA
:1057700070B504460D4603212846FFF769FD600019
:1057800020181830C1B22846FFF7DCFC70BD70B598
:1057900004460D4603212846FFF75AFD60002018F5
:1057A0001930C1B22846FFF7CDFC70BD70B5044674
:1057B0000D4603212846FFF74BFD600020181A30E4
:1057C000C1B22846FFF7BEFC70BD000070B50446AC
:1057D0000D461646142161430E4A88182B461022A6
:1057E000112101F091F9E000801DC2B2E000801D9E
:1057F000C1B2334607480C3801F086F90548103825
:105800004068E100091D01228A4010430149103916
:10581000486070BD10B0004070B504460D46E00011
:10582000801CC2B2E000801CC1B22B46064801F0C9
:105830006BF90548001F4068E200012191400843D0
:105840000149091F486070BD04B0004010B5044A0A
:10585000118C907FFFF7BEF80F20FFF7F7FE10BD09
:10586000FC1A012010B50446012C1CD105231B2273
:105870001F21204801F048F91F4B072210211D4825
:10588000083001F041F90123062211461948083079
:1058900001F03AF919480068C06A11210843174914
:1058A0000968C86225E0002C23D100211020FFF7F1
:1058B000CFFC00211120FFF7CBFC03230822092194
:1058C0000C48083001F020F900230622114609484F
:1058D000083001F019F916231B221F21054801F099
:1058E00013F906480068C06A112188430349096812
:1058F000C86210BD14F00040FB0300001800012036
:1059000070B50446FF252D35002C03D13B483C499A
:1059100008604EE0022C09D13A480068610408434F
:105920003849086038483649086042E0012C1BD1EC
:1059300034480068A10408433249086008464068BA
:10594000610588432F494860084640684914084368
:105950002C4948600846406880210843294948602E
:1059600026482749086024E0264800680121890468
:105970000843244908600846406821460B3101224B
:105980008A4010431F494860084640688021084308
:105990001C494860032C03D11C481949086008E0E1
:1059A000042C03D11A481649086002E0194814492A
:1059B000086001E0681E85B2002DFBDC2346002252
:1059C00003211048001F01F09FF801208007C069E3
:1059D0000221084000280BD0480780690005060E08
:1059E000711C07480068FEF7D7FF0B49086003E009
:1059F000034800680849086070BD00000048E801DD
:105A00001810FF1F40F000400024F400006CDC027E
:105A10000090D00300D8B8051010FF1F1FB5134821
:105A20000078002802D0112004B010BD20210F48BA
:105A3000FEF777FF6846407A002803D16846C07AAF
:105A4000002801D00520EFE7084869461EC910303C
:105A50001EC001200549087001F00CF9044A00211C
:105A60000820FFF7A7FD0020DEE70000641A0120F0
:105A7000756CFF1F70B504460D460748807E0028F0
:105A800004D02946204601F0A5F870BD29462046DD
:105A900001F056F8F9E70000641A01206D46294626
:105AA00007A000F061FA002405E0A00029580AA030
:105AB00000F05AFA641C102CF7DB00BFFEE7000070
:105AC00048617264204661756C742053502069737C
:105AD0002025780A00000000307825782C0000008E
:105AE000F8B56B4A69496C4B6A481160D86100206F
:105AF00084000023401C0B51FF28F9DD1068FF22B1
:105B000001468031654B6F328B600A250565C262A4
:105B1000634A13788363634BC3611378022B06D007
:105B20001378032B05D01378042B04D005E0102341
:105B300002E0142300E0182303625B4B4361594BDE
:105B40003424963383613C23CB603623C36308231C
:105B500044643A2603644E6031260E603B26CE63D1
:105B60004626CE640F463926403758C732260E6582
:105B700002260E661E274F664226543158C1CC605D
:105B80008B6005240E614C615A2460390C614B61B5
:105B90003C248C61AF24E40004601478022C06D00D
:105BA0001478032C05D01478042C05D005E01024BB
:105BB00000E00924446000E04360FF242D34846049
:105BC0001926760106616400C460384E7D2786641C
:105BD000FF00CF674762364EC664364F8762732731
:105BE000C765062747658765C31D0827F9331F600A
:105BF0000227476684660924C4662F4C046708247C
:105C00004467FF242D3484672C4CC4672C480660FD
:105C10001078022806D01078032807D010780428BE
:105C200008D00AE01220C861192001E00C20CD61E3
:105C3000086202E008200D62C8611C4888627D206D
:105C4000C00088676420486205200F63C862C820CE
:105C500048630020886338205860AF21C900194884
:105C6000996118644B201962C000D8617D20000141
:105C70005862164914488860144915488031886272
:105C8000FFF71EF8FFF72CF8F8BD0000000CFF1F0F
:105C900018000120000CFF1F0010FF1F68230120C7
:105CA000E312FF1F4605000060E3160050C300002A
:105CB000740E00006A180000204E000088130000D7
:105CC0009412FF1F00400011215EFF1F0009FF1FFB
:105CD0008566FF1F30B5C406E40E0123A3401A46B3
:105CE00000290BD043119B000A4C1B191B6A13435C
:105CF0004411A400074D641923620AE043119B007C
:105D0000044C1B191B6A93434411A400014D6419F0
:105D1000236230BD80F0004070B588B0064616485A
:105D2000007E00280DD015484068C5B2002405E06B
:105D300012488038007804A90855641CAC42F7DB8F
:105D400008E001250D488038007D0C488038007837
:105D5000694608740848C06900280AD06846067178
:105D600004A80290684605730348C16901A88847E2
:105D700000BF08B070BD0000641A012080400040E0
:105D8000FEB5244C201F0078002800D1FEBD21481C
:105D9000001F007E002800D1F8E71E48001F807E0B
:105DA000002800D1F2E72078022800D0EEE7A668AC
:105DB000A0886188401A85B2102D01DD102000E016
:105DC00028460546002D17D1012020700020608054
:105DD000A0801048001FC069002809D00E4A07CAD9
:105DE0006B4607C30B48001FC1696846884700BF60
:105DF0000820FFF72BFCC9E705E06188481C60809C
:105E0000705C064908702846691E8DB20028F4D1DE
:105E100000BFBBE7681A0120406DFF1F0040004033
:105E200070B52B480068012803D12A48816F491CAE
:105E300081672A48284941610121C1600160284ADF
:105E4000506BC1B227480078002817D1264800239C
:105E5000C356002B254BC35606DB1B0400240457F6
:105E600020021818401808E0FF331B0400240457D0
:105E7000200218181E4B4018C0185063022901D286
:105E8000022102E0502900D950211A480278144812
:105E90001430022A11D0184A1478184B1D78AC42DD
:105EA00014D914781B78E31A891E49104B431178D2
:105EB0004901C91A10314B1103E0114A1478114BF2
:105EC000ECE70022072100F01FFE70BD1378F8E711
:105ED0005812FF1FD03BFF1FFF3F00000010034080
:105EE000800003405312FF1F0013FF1F000000003B
:105EF000FFFE0000E212FF1FDD12FF1FDE12FF1F78
:105F0000DF12FF1FE012FF1F10B5019C032008499C
:105F10000870C1020748FEF775FDFFF7E1FDFEF7C7
:105F200077FDFFF7B1FAFEF7A6FE002010BD0000D6
:105F3000E312FF1F2400012010B500240420FEF707
:105F40006DFD084908600422002106480068FEF73C
:105F50006BFD2046641CFEF76DFD2046FEF706FE35
:105F600010BD00000C0001200FB438B578210C489A
:105F7000FEF7D7FC05A800900020009A049900F0D5
:105F80001FF80748FEF75CFD84B221460448FFF77E
:105F900071FD00200349088038BC08BC04B01847D4
:105FA000EC190120000001201FB5044B0FCB6C46FB
:105FB0000FC468460FC8FFF731FD1FBD306DFF1FCE
:105FC000F7B584B00C4600259EE0207825286ED1D8
:105FD000641C0020074606462078002800D197E080
:105FE0002078252800D188E020782D2801D1641C54
:105FF000012702E0641C0220074320783028F9D0F2
:1060000005E00A204643207830388619641C207841
:10601000302802DB20783928F3DD2078732813D16B
:106020000698006802900698001D069002980028C5
:1060300001D0029800E03DA001463B46324604985C
:1060400000F0F5F845195EE0207864280DD1612054
:10605000019700960290069802C801230A22069032
:10606000049800F081F845194DE0207878280DD18A
:106070006120019700960290069802C80023102222
:106080000690049800F070F845193CE020785828F4
:106090000ED14120019700960290069802C8002375
:1060A00010220690049800F05FF845192BE023E0D9
:1060B000207875280DD161200197009602900698EE
:1060C00002C800230A220690049800F04DF84519F2
:1060D00019E02078632815D106980178001D0690F4
:1060E00068460173002141733B46324603A9049878
:1060F00000F09DF8451906E000BF2178049800F0F3
:1061000019F86D1C00BF641C2078002800D05CE7E3
:1061100000BF0498002803D0002104980068017093
:1061200000200690284607B0F0BD0000286E756C70
:106130006C29000030B5002805D00368197002688A
:10614000521C02600BE0064A1288782A07DA044AD9
:1061500014881288521C024D2A80024A115530BD03
:1061600000000120EC190120FFB587B00C4616464F
:10617000109F0020029001900094002C0CD130213F
:1061800068460174002141743A4604A9119B07989E
:1061900000F04DF80BB0F0BD0A98002807D00A2E89
:1061A00005D1002C03DA012002906042009006AD78
:1061B00003350020287017E031460098FEF7ECFB0D
:1061C000039103980A2804DB12983A38039940187F
:1061D000039003983030C1B2681E05460170314605
:1061E0000098FEF7D9FB009000980028E4D10298AF
:1061F000002813D0002F0DD002211198084000284C
:1062000008D02D210798FFF795FF0198401C0190B9
:106210007F1E03E02D21681E054601703A4629467F
:10622000119B079800F003F801994018B2E7FFB5F9
:1062300081B00D4614461F46002620200090002CF9
:1062400013DD0020294601E0401C491C0A78002A81
:10625000FAD1A04201DB002400E0241A02223A40D5
:10626000002A01D03022009200BFF807C00F00289A
:1062700008D105E000990198FFF75CFF761C641EC9
:10628000002CF7DC05E029780198FFF753FF761C16
:106290006D1C28780028F6D105E000990198FFF7D9
:1062A00049FF761C641E002CF7DC304605B0F0BDBB
:1062B00070B5044608A0FFF757FEFF226932216837
:1062C000514308461421FEF78BFB85B22A4607A0EE
:1062D0002168FFF749FE70BD716465635F65767480
:1062E0005F68616E646C65720A000000636F756EB2
:1062F000743A2025642C206465677265653A202510
:10630000640A000010B5314C0F20FEF72FFD2178F4
:10631000A078FFF72DFA6178A078FFF738FA2C48BB
:106320004068A178C900091D01228A40904328498C
:10633000486008464068A178CA000121914088431E
:106340002349486008464068A17849001931012274
:106350008A4090431E49486008464168A078400042
:10636000183001228240914319484160E378A178B6
:1063700014225143164A103288180022012100F0DD
:10638000C3FB2179A078FFF747FA207B00280BD0C8
:10639000A17BA078FFF70AFA607B002804D022795D
:1063A000E17BA078FFF712FA0A480068012189070B
:1063B00008430849086006480068A1788A0001215E
:1063C000914008430249086010BD0000001B0120F5
:1063D00000B0004000E100E0F8B51948007C00285A
:1063E00001D0032000E002200646002413E01448F8
:1063F0001B30075D00213846FEF7F2FE3846FEF7F7
:1064000053FF054629463846FEF77CFF0C481830F6
:106410000555601CC4B2B442E9DB0A48006808496B
:1064200089798A0001219140884306490860012149
:106430001720FEF7D5FE00211720FEF79DFFF8BDBF
:10644000FC1A012000B0004070B501211720FEF7B2
:10645000C7FE01211720FEF78FFF2548007C00288A
:1064600001D0032000E002200546002419E0204965
:106470001B31085D0021FEF7B3FE1D491B31085D8D
:10648000FEF712FF012106464E4019481830005D04
:10649000B04200D107E0681EA04200D170BD601C70
:1064A000C4B2AC42E3DB00BF1148807914214843F9
:1064B00010494018C06901211F20FEF791FE0021FC
:1064C0001F20FEF759FF0F20FFF740F8FFF71AFFD4
:1064D00001211F20FEF784FE01211F20FEF74CFF43
:1064E000034A118C907F9622FEF7B0FA00BFD5E7E1
:1064F000FC1A012000B0004070B5164C144DE06944
:1065000040084000E0610620FEF78EFB114840384D
:10651000826980210A438261E26901231A43E261B0
:10652000A26A920503D42A466D1E002AF8DC002DCB
:1065300007DB226A7E23D60B82691E409A433243D0
:10654000826182698A4382613006400E70BD00001C
:10655000983A000040F00040FFB581B00D46064675
:1065600010240C4F0CE0FFF7C7FFB04208D2A8423E
:1065700006D90499039800F00FF8C019C72804D36E
:106580002046641EE4B20028EDD11020001BC0B2EA
:1065900005B0F0BD21F1FFFFF0B5002591B00E462A
:1065A00007462C460BE01020FEF73EFB1448406ADD
:1065B000A2008104890C6846641C8150E4B2BC428C
:1065C000F1D339466846FEF760FB0E4A0020574279
:1065D0006C460EE081006358934201D9D91900E05E
:1065E000D11A642902D9002011B0F0BD5D19401CF8
:1065F000C0B2B042EED331462846FEF7CDF9F3E7FC
:1066000040F00040420F0000F8B50C4D0C4E002445
:10661000A000401901686846FEF772FB022805D009
:10662000002C02DD012800D10320F8BD3219694693
:106630000978641C5170402CEADBF8BD0008001199
:10664000201B0120F8B500240C4D0D4F0526A0009D
:10665000401901686846FEF753FB022805D0002C5C
:1066600002DD012800D10320F8BD321B6946D21992
:106670000978641C5170062CE9DBF8BD0009001193
:106680001D00012010B500F011F800F0C9F9064A0C
:106690000121582000F03CF9042308221946382033
:1066A000FFF75AFF10BD0000F812FF1FF8B52F4882
:1066B00003782F4C16221B21204600F025FA0323D5
:1066C00011221221204600F01FFA241D0623162253
:1066D0001A21204600F018FA032312221321204623
:1066E00000F012FA23480078032828D0002319224A
:1066F0001A21204600F008FA0B2304220721204625
:1067000000F002FA1C4E337816221721204600F0C2
:10671000FBF91B4D1948E86042152A611948686168
:106720001949A961164C40346260A060E160144FC1
:106730001648403F38603078012802D00BE0032330
:10674000D5E7002201231146384600F0DDF9FF208D
:106750004130286160600E4800780E49C006C00BC9
:106760004018B8630C48E861F8BD0000DC12FF1F58
:1067700040F00040E312FF1F1C0001202001002018
:10678000C0000340A403B00000008A04242D0000D0
:10679000E112FF1F250800002FFF260070B53049C9
:1067A0002F4A4039002825D0022823D08B151362A8
:1067B0005A020A612B4A0A632B4A127801231B03EF
:1067C000D2184A612649264CC039803C002815D091
:1067D0006522264DD202264B012819D002281CD052
:1067E000244E80190860244848602260A560E36058
:1067F000224819E080231362DA02DAE720480860B1
:106800000020A0601F4820601F48E0601F480BE088
:106810001F480860A5602260E9E71D48401C086029
:10682000A5602260E3601B4820610D48FF23002221
:106830000721B43800F068F9174860611748A06173
:106840001748E06117482062174860621748A06245
:106850001748E062174820631748606370BD000066
:10686000C000034003000001DD12FF1F55555537DE
:10687000D6BE898E00800698545A985080550822BA
:106880000080067800280B0007EE75368066082227
:106890000180064280450822A49C5C544C0C0403F1
:1068A000025A544E483C36332D007F5D57514B45BC
:1068B0003C363056504A443E322C262010B5FFF765
:1068C000F5FE0448007800F009F803480078FFF767
:1068D00065FF10BDE112FF1FE212FF1F10B5044655
:1068E00009483F2C0DD00D230F22122100F00CF986
:1068F0000648816BE2060905090DD20B114381633D
:1069000010BD0823F0E7000014F0004080000340B1
:10691000F0B5364C666AA56A00236362A362344C04
:1069200060630E20206263624020A0625020E0621B
:106930002A2060622E484030012926D08021016241
:106940002C49FF232A48A533403083602A4B4360FB
:10695000274B2A48403B18617D20C000401EFDD2D5
:10696000274889050F18224840388763244B5B1C51
:10697000C91881632449234809780B00FEF76CF895
:10698000070B0B100D0F100B1000FF2101310162DE
:1069900018498331D5E71D4802E01D4800E01D4835
:1069A0001D4911601249403103E0CB6ADB439B0F64
:1069B00011D0401EF9D20E48403887630020A062F3
:1069C000E062886060622062FF20413060620748B8
:1069D00046628562F0BDC86A104B184010601068AE
:1069E0000122000C120480184860E4E70010034004
:1069F00080000340CA0200002020000080560C20C6
:106A00006465210010270000E312FF1F204E0000E4
:106A100030750000409C000000002020FFFF3F3F39
:106A200000B50021022000F021F80C49801C0870FC
:106A30000021422000F01AF80949801C0870012149
:106A4000022000F013F80749801C08700121422041
:106A500000F00CF80449801C087000BDDD12FF1F17
:106A6000DE12FF1FDF12FF1FE012FF1F30B51D4CAB
:106A70001B4A22601B4A4032012914D01A49D160B6
:106A800050630E20106200215162FF2015305062C9
:106A90001648057816482B00FDF7DEFF070A0A079F
:106AA0000C0E0F0A0F001349E9E71148401E04E0DD
:106AB000114802E0114800E01148401EFDD209488B
:106AC0008030406B51620002000E11620D49D160AE
:106AD000FF21413151626521C902216030BD0000B2
:106AE00010000300400003407F407200E312FF1FCC
:106AF0000F2700007F405200204E0000307500003C
:106B0000409C000040401000FFB581B00C46016879
:106B10000025ED43049B93400093134606E00126B5
:106B20009E402F46B7433D465E1CF3B2A342F6DDBE
:106B30000B462B401946009B1943016005B0F0BD80
:106B40000CB5024600200190009007E00098431C1D
:106B500000931E4B984201DD0D200CBD1C48C06BFC
:106B6000C007C00F0028F1D118E00020009007E016
:106B70000098431C0093154B984201DD0D20ECE773
:106B800013484038007D202318400028F0D01078AA
:106B90000F4B403B1870521C0020019008464B1EC2
:106BA00099B20028E1D1009007E00098431C0093BF
:106BB000064B984201DD0D20CFE705484038007DA7
:106BC000402318400028F0D00020C6E7A08601002E
:106BD00040400040F8B506460D46244C002D01D03B
:106BE000002E01D10620F8BD2078002801D1032015
:106BF000F9E72078012801D01120F4E7E088A842C5
:106C000001DA0320EFE72A463146A068FDF770FE5F
:106C1000A5800020608002202070A768A08861887D
:106C2000401A85B2102D01DD102000E028460546EF
:106C30000F484068022188430D49486005E061889B
:106C4000481C6080785C0A4908702846691E8DB22D
:106C50000028F4D1064840680221084304494860EE
:106C60000820FEF773FC0020BDE70000681A012031
:106C70000040004070B52B4CFEF786F80646082011
:106C8000FEF774F80820FEF785F820780821FEF753
:106C900059FA60780921FEF755FA00202249087355
:106CA000321163685B08D0186168FDF775FE054610
:106CB00000201D49086180200873FF200002284041
:106CC000000A08710D7003200873207A002802D092
:106CD0008720087202E0002013490872012012493F
:106CE0004860207A002805D0084640688021084383
:106CF0000D494860A07A002805D00B484068022161
:106D00000843094948600B20002805DBC206D20E63
:106D100001219140054A116000BF02210B20FDF7BF
:106D2000E9FE70BD741A01200040004000E100E05F
:106D3000090AFFFF00C2010001000000000000007E
:106D4000030000000000000000000000DD5F000004
:106D5000BD4BFF1F02000000986DFF1F00000120C7
:106D600024000000584CFF1F000CFF1F24000120CE
:106D70000C000000584CFF1F24000120000CFF1FD6
:106D8000000400005C49FF1FBC6DFF1F24000120B0
:106D900044230000684CFF1F0000000002000000B8
:106DA00000000000000000000000000040787D01AD
:0C6DB000000000000200000000000000D5
:040000051FFF48C1D0
:00000001FF
