:020000041101E8
:1020000003B40148019001BD11A1FF1F03B40148B1
:10201000019001BDED54FF1F03B40148019001BDC3
:102020008954FF1F03B40148019001BDE9A0FF1FBF
:1020300003B40148019001BDF9A0FF1F03B401489A
:10204000019001BD65A0FF1F03B40148019001BDCF
:102050006162FF1F03B40148019001BDBB54FF1F23
:1020600003B40148019001BD8954FF1F03B4014826
:10207000019001BD657FFF1F03B40148019001BDC0
:10208000BB54FF1F03B40148019001BD410800008B
:1020900003B40148019001BD7181000003B40148FF
:1020A000019001BD05DCFF1F03B40148019001BD93
:1020B0000DB7FF1F03B40148019001BD0755FF1F75
:1020C00003B40148019001BD1962FF1F03B4014828
:1020D000019001BD49B6FF1F03B40148019001BD45
:1020E00021B7FF1F03B40148019001BD05B7FF1FD1
:1020F00003B40148019001BDFDDDFF1F03B4014899
:10210000019001BDF562FF1F03B40148019001BDBC
:102110006902000003B40148019001BD9D61FF1FE9
:1021200003B40148019001BD5962FF1F03B4014887
:10213000019001BD7962FF1F03B40148019001BD08
:102140003163FF1F03B40148019001BD4BA0FF1F85
:1021500003B40148019001BDB1DDFF1F03B4014884
:10216000019001BD59DEFF1F03B40148019001BD7C
:1021700081DDFF1F03B40148019001BDD1DDFF1FC8
:1021800003B40148019001BD81DEFF1F03B4014883
:10219000019001BDCDB5FF1F03B40148019001BD01
:1021A000EDB6FF1F03B40148019001BD05B6FF1F46
:1021B00003B40148019001BDAD54FF1F03B40148B1
:1021C000019001BD79B0FF1F03B40148019001BD2A
:1021D000FDB6FF1F03B40148019001BD19E1FF1FC7
:1021E00003B40148019001BD29E1FF1F0A4670B503
:1021F00001463C20154B4143C8180579124C002D6F
:1022000002D15958002904D03021095C012902D09B
:1022100018E00D2416E003240D4E0E4B0021282556
:102220004D43ED186D8CB54209D0954207D134303D
:10223000FFF7E6FE0024022003F0A0FE02E0491CA6
:102240000A29ECD3204670BD2124000060600020E4
:10225000FFFF000070670020F7B50746274E0A25EC
:1022600027488C4600242146282251430A18528CC4
:10227000244B9A4214D0624515D128225443025B64
:10228000BA4201D0042636E008181022801C0299B8
:10229000FFF7BCFE002801D006262CE000262AE02D
:1022A0000A2D00D12546641C0A2CDCD30A2D22D02D
:1022B0002C46282254431248614626187184B01CCB
:1022C00010220299FFF7A8FE0D48294607537820EF
:1022D00047430D4838187030FFF792FE32462432DB
:1022E0001021029804F0C0FC00202036B071064690
:1022F000102003F043FE3046FEBD00002024000005
:1023000070670020FFFF0000B0630020F8B50F46A3
:102310000C4D0146E8881646052801D30A48F8BD49
:1023200014225043094A841810222046FFF774FEF5
:102330002782A674E888401CE880082003F01EFE6F
:102340000020F8BD40F5FF1F252400000069002093
:10235000FFB593B01C4615460EA91C9F139800F0BC
:10236000BDF90D90002841D114980121C01C86B2FE
:1023700008A801728572290A41720473210AC17288
:102380008773390A41731D990174090AC17301A841
:10239000009009230AAA10210EA804F0C3FB684686
:1023A00001797820134C464335194222515528466D
:1023B0002F4601A93230223710220131FFF72CFEBF
:1023C00005A9102201313846FFF726FE012000033F
:1023D000A053139878214843001974301499FFF7DB
:1023E0000FFE13986867042003F0C8FD0D9817B01E
:1023F000F0BD0000B0630020F8B5944606460B46D9
:10240000032405202E4A2F4D002178274F43EF5BF0
:10241000974201D1032C11D0B74210D10C462A4962
:102420008B4215D178204443601910226146801CEC
:10243000FFF7ECFD002800D00620F8BD0C46491C33
:102440000329E2D32049491D8B4201D10420F8BD64
:10245000032CFCD01C4883421BD1A0B2002362464F
:10246000314603F0A9FBA0B2002103F0BBFB7820AA
:1024700044436419204670300A21FFF7D3FD2046FB
:1024800074300521FFF7CEFD10498888401C8880F4
:1024900013E0A0B27821484340196030407B002807
:1024A00001D00B20F8BDA0B201236246314603F0F3
:1024B00083FBA0B2012103F095FB0020F8BD0000D2
:1024C000FFFF0000B06300204080000040F5FF1FC8
:1024D00070B5CA1C154694B27822074E5043801935
:1024E0007430FFF7A5FD78214C430448A1194867D3
:1024F000A8B200F005F870BDB0630020FFFF000037
:1025000070B5104B0C269A88012A19D978214843B6
:102510000D490E4C0D5AA54212D0521E0C520026E7
:102520009A8045183246703528460A21FFF786FD05
:102530000446401C04D0204603F076FE621CF3E7FC
:10254000304670BD40F5FF1FB0630020FFFF000064
:1025500078235843034B0022C018406F0880104670
:1025600070470000B063002070B504460848094E6B
:10257000094B0022782555435D5BB54204D0A54246
:1025800002D10A80002070BD521C032AF2D370BD14
:1025900021240000FFFF0000B063002030B5034697
:1025A0000B48002910D0002A0ED028246343094C80
:1025B000094D1B195C8CAC4205D0981C2033086077
:1025C00018791070002030BD01480F3830BD000070
:1025D0002224000070670020FFFF0000052807D2BA
:1025E000002905D0074AD288904204D30648704794
:1025F0000548401E704714225043044A8018086062
:102600000020704740F5FF1F1224000000690020E1
:102610000249897801700020704700002063002083
:10262000024A0146527800200A70704740F5FF1FA9
:1026300001228A4005490346497800200A4201D018
:10264000012100E0002119707047000040F5FF1FD4
:10265000024A0146927800200A70704740F5FF1F39
:1026600010B500280AD0064A147913681B1B0360B2
:10267000002901D010790870002010BD014810BD5C
:10268000146300201324000000290BD0064AC00761
:102690001268C00FD307DB0F834200D0521E002008
:1026A0000A6070470148704714630020132400003B
:1026B00030B578235843074B074D1C5A044AAC42A7
:1026C00004D0C0186030407B08700022104630BD36
:1026D00021240000B0630020FFFF000070B57822C5
:1026E0005043094A0B46145A084D0649AC4206D0DD
:1026F000811810221846891CFFF78EFC002108461D
:1027000070BD000021240000B0630020FFFF000026
:10271000002804D00349098801800020704702483E
:10272000704700002063002013240000F0B500284B
:102730000AD0002908D00D4A0B88D288934200D9CC
:10274000134600220A4F0CE00A48F0BD14245443FB
:10275000E419268A950046532D18A47C521CAC70AF
:1027600092B29A42F2D30B800020F0BD40F5FF1FD9
:10277000006900201324000010B50B46082801D37F
:10278000084810BD002B0AD0782148430649102282
:10279000411818464431FFF73FFC002010BD0148A6
:1027A0000F3810BD22240000B063002010B50B4686
:1027B000082801D3084810BD002B0AD078214843CF
:1027C00006491022411818463231FFF725FC002037
:1027D00010BD01480F3810BD22240000B063002056
:1027E00010B50B46082801D30B4810BD002B0ED0A6
:1027F0007821484309490A4C0A5AA2420AD0411892
:10280000082218465431FFF707FC002010BD02488B
:102810000F3810BD042010BD22240000B06300203A
:10282000FFFF000010B5082806D278225043094A5D
:10283000094C135AA34201D1084810BD002905D004
:102840008018403080780870002010BD03480F3891
:1028500010BD0000B0630020FFFF00002224000034
:1028600010B50B46082801D3084810BD002B0AD02C
:102870007821484306491022411818462231FFF7B3
:10288000CBFB002010BD01480F3810BD22240000F2
:10289000B063002010B50246054B54001A5D0A7063
:1028A000E3185B780020DB001A430A7010BD0000BB
:1028B00048F5FF1FF8B5184C15460B00064615D015
:1028C000002D13D018881549884221D100202821D5
:1028D000134A414389180A4620321779B74208D172
:1028E0000024188010222846891C0DE00A4C0E3C5A
:1028F00010E09779002F0AD05279B24207D11880A0
:102900000024102228461231FFF786FB02E0401C0B
:102910000A28DCD32046F8BD21240000FFFF000078
:1029200070670020FFB593B00F461699002008701D
:102930001398374E002835D0002F33D01598002833
:1029400030D03D883348854227D100257820324950
:10295000684344182146543108221398FFF756FB68
:10296000002822D0204660301190407B002813D0F0
:102970002AA000682AA1109003C909910890123476
:102980000EAA1021204604F03DF908220EA9139842
:10299000FFF73CFB002818D06D1C032DD6D3304622
:1029A00017B0F0BD1A4E0E3EF9E73D8021460026D5
:1029B000443110221598FFF72FFB6034607B02280A
:1029C000EDD3169901200870E9E71198407B0228A1
:1029D00002D21699012008700020049005900690FC
:1029E000079004AA042110A804F06CF90AA9062093
:1029F0000191009008AB04AA1021204604F078F859
:102A00003D80002610220AA91598FFF705FBC6E7AE
:102A100021240000FFFF0000B06300206E6B626B9A
:102A20006964313238010000FFB5694F8FB00E0084
:102A300024D01198002821D0129800281ED0348864
:102A40006448844249D100247820214641436248A9
:102A50000D182846403082780F998A4214D15F4879
:102A6000807802280DD00027348029462231102298
:102A70001198FFF7D1FA2946323147E0544F0E3F03
:102A8000A3E0534F7F1DEFE76D21495D002923D05F
:102A9000C0780F9988421FD100200A90284601ADC6
:102AA000123001230AAA1021009504F03BF84B488C
:102AB000807802280DD0002734801022691C1298DB
:102AC000FFF7AAFA05A9102201311198FFF7A4FA1D
:102AD0007BE03F4F7F1DEFE7641C032CB4D372E013
:102AE00078203D49604345184220425D0F9882425C
:102AF0000FD1348078204443084621180027102243
:102B000022311198FFF788FA2946323110221298A3
:102B1000DCE7304A686F904254D078225043401826
:102B200000906030407B00284CD0E01E2B4D81B2DD
:102B30000DAAA87801F040FC0098012108AA1172A2
:102B40002549AA78903909881230022A2FD06B467D
:102B5000DA8E08AB9A72120A5A721973090AD9727C
:102B60006A46118F08AA9173090A51736A46518FF8
:102B700008AA1174090AD17301A9009109230AAAAC
:102B8000102103F0CFFF6A4611790F98814219D1C5
:102B900001A9102201311298FFF73EFA05A910226F
:102BA00001311198FFF738FA002734800DE008AAA8
:102BB0009172090A51726A46D18E08AA1173090AE4
:102BC000D172CDE7641C082C8AD3384613B0F0BD0F
:102BD00021240000FFFF0000B063002040F5FF1F2C
:102BE00070B50026064D0446022802D0A8780228B7
:102BF00002D1082001F0AEFDAC70304670BD00007F
:102C000040F5FF1FF8B50646134C0D46C80918D10C
:102C10002079124F002805D12068B0421AD22A30FC
:102C2000B04217D36846FFF70FFAA068002806D015
:102C30000099081A0A49884201DA012D0AD0009841
:102C4000A0606806400E26602071042003F096F90B
:102C50000020F8BD3846F8BD14630020FFFF0000D7
:102C60000070991470B50D4603467821484302461A
:102C70000C490D488E5A0A4C86420FD051186031CB
:102C80004A7B00242978002A04D0184602F0AAFFC3
:102C9000024602E0032900D004462A70204670BD97
:102CA00021240000B0630020FFFF0000F3B50C46B4
:102CB000C97E504F83B0012901D0A58A18E04E4B40
:102CC0004E48002528226A431218528C9A4202D09C
:102CD000A68A964202D06D1C0A2DF3D30A2D02D08B
:102CE000012905D102E0032005B0F0BD0A2D76D000
:102CF000684680893C21424E484380192030007C40
:102D000001286CD13B4F20787F1E012807D001AAF3
:102D10000021A01C03F040FE002860D10AE001ABB6
:102D20006A460021201D03F06DFE002857D1684639
:102D300000886080684680893C21484380192821AA
:102D4000095C012906D180690199884202D00021DD
:102D500003F032FA6A4690893C2250438019019967
:102D6000816160886A461080002803D11C212046BA
:102D7000FFF770F9684680893C21484380198583B4
:102D8000A17D8177E17DC1770146227E20310A70E5
:102D9000627E8A70A27ECA70406A0024002807D032
:102DA00003F0BAF9684680893C214843801944629F
:102DB00068460088002814D0684680893C22504329
:102DC000831918460121203001724178007803AA46
:102DD000243303F05DF90027022003F0CFF83846D2
:102DE00082E7684680893C2148438019203004727C
:102DF000F1E7000021240000FFFF000070670020C1
:102E000060600020002805D0010403D4034A00219B
:102E1000108000E001210846704700002063002078
:102E20007CB5044602F080FE02F05AFE14211C48D4
:102E3000FFF710F91A4864216438FFF70BF91948B5
:102E400000210180418002F049F9208BFFF7DAFF71
:102E5000A07C8007C10F80316069FFF7D3FE208A14
:102E600022461149FFF7C8FA0546A07CC00711D0D9
:102E70000D49208A2246491DFFF7BEFA208A01A982
:102E8000FFF772FB05460221684601700146808803
:102E9000FFF7E8FE054803F071F828467CBD000006
:102EA0009C63002048F5FF1F40800000FF030000E6
:102EB000FFB50B4603252A4E2A4981B01746002448
:102EC000282262435218528CB2420CD09A420AD144
:102ED000282262438A5A824201D011253CE0002513
:102EE0000A2C06D138E0641C0A2CE9D334D0002D1A
:102EF00032D1782358431C4B0122D203C618974283
:102F000008D1204603F090F9304670302146FFF793
:102F10008FF81BE028204443641827462037B879EF
:102F2000002803D16036707B012801D00B250DE00D
:102F30002046123010220499FFF76EF822462532FF
:102F40001021049803F090FE0120B871102003F0C6
:102F500015F8022003F012F8284605B0F0BD000075
:102F6000FFFF000070670020B063002000210170A7
:102F700008467047FFB56A460646177A0020104A91
:102F80009C4601463C230D465D43AC1830231B5D37
:102F9000012B0CD1237AB34209D12379BB4206D14C
:102FA0005359019CA34202D16246118002E0491CA0
:102FB0000A29E7D30A2900D1022004B0F0BD00009D
:102FC0006060002030B50C4A904212D00B49551E6B
:102FD000931ED41E4978A84202D1C80709D109E03E
:102FE000984201D1480702E0A04203D18807002897
:102FF00000DA0022104630BDFFFF000040F5FF1F41
:1030000030B50D4B002814D0010412D40B4A002116
:103010008D00545B002C08D0AD18AD78A04204D3CD
:103020006419844201D9002304E0491C0629EFD326
:1030300000E00123184630BD212400002063002059
:1030400001B581B06A46012101A803F087FC002880
:1030500004D06A46012101A803F028FD0CBD000040
:1030600038B514460D46684602F0DAFB00280BD14D
:1030700069462B8809780622044D4A43AB522170D9
:1030800003498A78521C8A7038BD000054600020C1
:1030900020630020F8B50C4615466946204602F02C
:1030A000C5FF010005D01648814200D10021084625
:1030B000F8BD684602883C20124E50438019E368F0
:1030C000C360A3694361A38A03822369C362237A2D
:1030D000037248CC48C0083C23790B48002B237A64
:1030E00007D0062463431B18D878401CD8702A8068
:1030F000DDE7062463431B189878401C9870F6E7B8
:10310000232400006060002054600020FEB50E46BD
:103110001C461546074602A902F0DEFD002809D12B
:10312000012001900094684602892B4631463846BA
:1031300002F04AFFFEBD0000FFB5E7B01F46739ED8
:10314000719C679800F03AFF012802D021486BB0CB
:10315000F0BD2148210EFAD17F2CF8D021020B0EB0
:103160002204120EE1B204AD002B0AD0E3431B028D
:103170009B0FECD16B4699745A74210C197403217E
:103180000CE023041B0E06D02304E0D56B465974D3
:103190001A74022102E06A46117401218C19FF237E
:1031A000221D81339A42D2D8681832467299FEF7AE
:1031B00033FF60A8649584827099749864AA02921F
:1031C00003900097019167A80BC8002201F09CF9B9
:1031D000BDE700002424000012240000F8B50B46CF
:1031E0003C2148431649154F45182E462036307C61
:1031F000012821D1134A14480024282161430918C9
:10320000498C0327914214D0994212D12846343078
:103210002146FEF70DFF307A012805D1A88BA1B217
:10322000884201D1002030720027022002F0A6FE61
:1032300002E0641C0A2CE0D33846F8BD21240000CB
:1032400060600020FFFF000070670020F7B52B4A88
:1032500082B0074600294ED029488860FF206B467F
:103260001870002627483546012F02D0032F42D17F
:1032700005E0406800283ED1224C18701AE0012376
:10328000A0245C4324186468002C04D05B1CDBB2CF
:10329000022BF5D32FE0A0245C432418684603706A
:1032A0000868006803882046803043830B681B68E9
:1032B0009B780377002C1ED014222046FEF7D0FE08
:1032C0002068002801D085880668BC000E482B467F
:1032D0000759324601216846B8470B482B4620184B
:1032E0004468324601216846A04769460A78049935
:1032F0000A7005B0F0BD1046FBE70000FFFF0000BC
:1033000085480111A0440020E04500201FB50B4A6C
:103310005468002C0FD000226B4600011A7008433D
:10332000587001921A81102303926A462B21044897
:10333000A04704B010BD0348FBE70000A0440020F4
:10334000DCF4FF1F14200000FFB5074621488FB0B2
:1033500040681D461646002839D0791C1EA0FEF78D
:1033600085FE26A0FEF782FE25480020C0466C465A
:1033700000212170601C10221099FEF74DFE684656
:103380008674310A41741320002D10D02B68002B55
:103390000DD0A98800290AD00AAA184603F092FC89
:1033A00004A804220AA90330FEF736FE17201022D3
:1033B00069460A764F7607940884064809951346AD
:1033C000446806AA2B210F48A04713B0F0BD0E4851
:1033D000FBE70000A0440020426561726572207422
:1033E000797065203D20256428312D6164762C207C
:1033F000322D47415454290D0A0000000D0A0000E7
:10340000D8F2FF1FDCF4FF1F1420000070B50D463A
:10341000154988B04E681446002E22D01022694605
:103420000A720001487203950C8200201346059031
:1034300002AA2B210D48B047012069460870684652
:103440000695848306AA432100F094F86846007824
:10345000401CC1B2684601700229F0D3002008B0B8
:1034600070BD0348FBE70000A0440020DCF4FF1F10
:10347000142000000148007870470000DDF4FF1FB1
:103480001FB50B4A5468002C0FD00A016946521C24
:103490000A704870002001900881102303906A464A
:1034A0002B210448A04704B010BD0348FBE70000EF
:1034B000A0440020DCF4FF1F14200000052806D2E1
:1034C000002904D0034A80001150002070470248B0
:1034D00070470000E045002011200000002901D0C5
:1034E000012801D903487047034A80001150002089
:1034F0007047000011200000F4450020F8B50D00D1
:10350000044608D028781749022828D2032C04D072
:10351000012C05D009E01448F8BD002802D004E0D1
:10352000002802D00F48401CF8BDA02250430F4A8B
:1035300080184268002A12D0A021FEF79DFDA40049
:103540000B4F00233E591A4619462846B047E0194A
:10355000002344681A4619462846A047F8BD084685
:10356000F8BD000011200000FFFF0000A044002073
:10357000E0450020F7B58CB00C98002841D0002A17
:103580003FD0106803900C9896880078A022504392
:103590003A4A841865683A48002D33D08A0989066A
:1035A000890E019201292FD002292FD0032901D0A1
:1035B000042927D100200B90204640300A90163075
:1035C0000790401E254680350590FEF75BFD82B2D0
:1035D0006A83771C0B98BA4227D200281CD0019925
:1035E000802008430A994875288B8018401E28833C
:1035F00081B20398521E09180798FEF70DFD6B8BD8
:1036000026E020480FB0F0BD2A2100E029213346F2
:10361000039A0C98A847F5E701200B9001994020E8
:1036200008430A9948750020E1E700281DD0019958
:10363000C02008430A994875288B8018401E2883AB
:10364000298B0398324609180798FEF7E5FCBBB2B0
:10365000F01A401C86B26768059A01990C98B84721
:103660000028CFD1002EB0D1CCE701200B900A9AD0
:103670000198002150752983E2E70000A044002052
:10368000FFFF00001120000008B500206946087007
:10369000A021484304494018C168002901D0684668
:1036A0008847002008BD0000A044002008B5002283
:1036B00069460A70A0214A43044951180A69002A40
:1036C00002D0014668469047002008BDA044002073
:1036D00030B5154687B0024601200C460090002008
:1036E000694608710A7208490391084906910490D5
:1036F000182269468A822246FFF7CCFC04494D60B5
:1037000022880A8007B030BDE54901113CA40111AF
:1037100034F6FF1FF7B58CB0FB4B0C980024C21A8F
:10372000032601AD98427DD02DDCF84B0027C21A4C
:10373000984243D01ADCF64BC21A98423ED00EDCB7
:10374000032853D004DC00286DD001286CD17DE122
:103750000122D203801A68D00128F7D158E2130061
:10376000FEF796FC0662622C62622C62921E1300C7
:10377000FEF78EFC0F5A245AF8F75AF65A84F5F5DC
:10378000F6F55A585A001300FEF782FC2D4E4C4EA7
:10379000F44E4E1C4EF34EF24EEC4E4E4E4E4E4EEE
:1037A0004E4E4E4E4EF14EF04EEF4EEEEDEC4E4E76
:1037B0004EEDECEB4E4E4EF34EF24E00087869465D
:1037C000087132E208786A46107148785071897839
:1037D000C900084319E188889071000AD071042457
:1037E00024E20128FCD10A796846F4E00A786846A8
:1037F00002710888020A684642718A788271488894
:10380000020A6846C2710A79027247728888020AFF
:103810006846427288790001024368464272CA795A
:10382000827203E0B9E0F3E0BCE12DE10A7AC272F2
:103830004A7A0273887A0924C000024368460273F8
:10384000087C002802D0012807D0EFE1888969466A
:103850004873000A88730B24E8E10A7B68464273C8
:103860008889020A68468273C868020C6846C27377
:10387000C868010E684601740D24D7E10E460A7827
:1038800069460A713188A81C0A0A69464A711022E1
:10389000B11CFEF7C1FBB07C69468875CF75708A94
:1038A0001724000AC875317D090108436946C875A7
:1038B000707D0876B07D4876F07D8876317EC900CF
:1038C0000843694688762021885D002802D00128B7
:1038D00007D0ABE1B08B6946C876000A0877192497
:1038E000A4E1317F6846C176B08B010A6846017752
:1038F000F069010C68464177F069010E68468177EE
:103900001B2493E188882DE106248FE101289CD1B6
:103910000A79684602728888020A684642724868D4
:10392000020C684682724868F7E0888A69468875A2
:10393000000AC875142479E1012886D1317D6846D2
:103940008175B08A010A6846C1757069010C6846C4
:1039500001767069010E68464176162466E10AE038
:103960002DE0A8E054E144E0DCE0AFE03FE123E1FA
:1039700019E109E152E10A786846027108880424D5
:10398000020A684642718A7882714888020A68464B
:10399000C271087A0028B9D1B4E70E4609786A46A0
:1039A00011713188A81C090A51711022B11CFEF74F
:1039B00033FB307E122431460028BDD1B5E70878AC
:1039C0006A46107108880224000A5071087A00289B
:1039D00000D006E7FFE682718888020A6846C27155
:1039E0004868020C684602724868010E68464172D7
:1039F0008AE7087C6A461071088A000A5071A81C80
:103A00001022FEF709FB122410E1507102240DE18F
:103A10000C46098A68460185618A4185618A224689
:103A20000020FEF719FC684686852E462A460BAB19
:103A30000AA9022000F0F4FF6846858D1022701953
:103A40002146FEF7E9FA1035ACB231E00C46098A9E
:103A500068460185618A4185618A234601220020EA
:103A6000FFF726FA684686852A460BAB0AA902208C
:103A700000F0D6FF6846868D1022A8192146FEF771
:103A8000CBFA1036B4B213E00B88684603854B8836
:103A90004385002349881846FFF70AFA68460680DE
:103AA0002A466B460AA9022000F0BAFF684604883D
:103AB000002C77D0BAE00A78684602710888020ABA
:103AC00068464271897881710324AFE00D46097818
:103AD0006846017128880424010A68464171A97862
:103AE000817168880BAB010A6846C17100202A69A0
:103AF000E968FFF73FFA002830D168466988808D71
:103B0000FEF774FB2AE00000218000001080000016
:103B10000880000001282AD088E0010E6846C172A2
:103B2000082483E00D46097868460171288804243A
:103B3000010A68464171A978817168880BAB010A56
:103B40006846C17100202A69E968FFF713FA002866
:103B500004D168466988808DFFF740FB287A0028E9
:103B6000D8D1A88869460872000A4872CCE629793B
:103B700068460172A888010A684641726868010CAB
:103B8000684681726868C8E70A78684602710888E2
:103B9000020A684642718A7882714888010A68463A
:103BA000C1711CE64CE00A78684602710888020A76
:103BB000684642710A790EE70A78684602710888F9
:103BC000020A684642718A788271CA78C2710A799B
:103BD00002728A794272C888020A684682720A7A38
:103BE000C2720889010A6846017309241EE00A7836
:103BF000684602710888020A684642718A788271B2
:103C00004888020A6846C2710979017205240DE0EC
:103C100008786A4610710888000AF6E608786A464D
:103C200010714978C90008431071012401AA0E9847
:103C30000090234603480C99FFF768FA0FB0F0BDD7
:103C40000022F4E734F6FF1F30B5154687B0024670
:103C50000B480C4600900020694608710A72094919
:103C60000391094906910490012269468A822246FD
:103C7000FFF710FA05494D6022880A8007B030BD71
:103C800001100000154C0111A8A5011174F6FF1FC9
:103C9000F8B5274D297800292DD100282CD00146D0
:103CA0000822A81CFEF7B8F9FEF7F8F902F062FA4C
:103CB00002F00CFE02F0FAFD03F03EF902F0AAF861
:103CC00002F0DEFA02F020FE02F064FA194EB06A49
:103CD0000402240AFEF7E8F9B06A0002000A011B98
:103CE00015A0FEF7C3F922A0FEF7C0F92148002075
:103CF000C04601202870F8BD5C211FA0FEF7DAF94C
:103D0000002805D05C211CA0FEF7D4F9401C00E07F
:103D100019A04F21294C0346009121A221460120E0
:103D2000FEF7CEF926A221460120FEF7C9F9F8BD1B
:103D3000D0F4FF1F00F00040636F6E73756D652057
:103D400074696D65206F662066756E6374696F6E49
:103D5000206372795F656364685F696E69743A2095
:103D6000256420525443207469636B0D0A000000DF
:103D70000D0A0000D8F2FF1F2E2E2F6D6573682FDD
:103D8000707269766174652F636F72652F636F6DF2
:103D90006D6F6E2F4D535F636F6D6D6F6E2E630091
:103DA0000A5B2A2A20455252202A2A5D3A5B257353
:103DB0005D3A5B25645D3A20000000000100004090
:103DC00044796E616D696320436F6E6669677572D1
:103DD0006174696F6E2063616E206E6F742062651E
:103DE000204E554C4C2E2052657475726E696E676C
:103DF0000A0000000149086000207047E0F4FF1F3E
:103E0000FFB591B007469C461BA82CC80026079614
:103E100008961F9C6E46378471841A99F177E904DD
:103E2000C90C09950E9138486146002947D00129EF
:103E30003FD13246B1770B2C3DD96105090E0C916B
:103E40001E990026097835460F912FE00F998020A2
:103E50000143684601730E98C004410E68464173E1
:103E60000E988100E8080143684681730C98690147
:103E700001436846C173A01BC7B2082F00D90827A9
:103E80001E983A46811904A8FEF7C6F8F019C6B282
:103E900003A80A9068463F1D87850AAA07A81399B8
:103EA00000F0A2F8002804D16D1CEDB20C998D42EF
:103EB000CCD915B0F0BD1E980A9094851EE0002064
:103EC000B0772098012801D00C2C08D90E981E99A3
:103ED0006D4613C507A8139901F0EAFBE9E79001C5
:103EE0009906890E0843307303AD2246681C1E995B
:103EF000FEF792F86946641C0A958C850AAA07A801
:103F0000139900F071F8D4E7FFFF000010B5094CD9
:103F10002168016021686068814206D30121C902DD
:103F200040186060C81002F029F82068401C20602A
:103F3000002010BD10F5FF1F30B58FB005460120E1
:103F40006946087404AC02A90AA8FEF789FB03A914
:103F50002846FEF7ADFB6946087B02282BD00021DE
:103F60006A46107A400008435074A11C2846FEF7A8
:103F700037FC6A46117A0A9841180A915177080A63
:103F80001077080CD076080E90760BA92846FEF71D
:103F9000F3FB07A808210230019100900BAB0D2222
:103FA000611C0020FEF792F8162204A90120FFF7F9
:103FB0002DFA0FB030BD0121D2E70000002803D058
:103FC000800B022800D2012070470000024A06CA76
:103FD00006C000207047000010F5FF1F014908606F
:103FE000002070470CF5FF1F7FB514460D4607C82B
:103FF00001AB07C300216846FEF732FB0098694613
:10400000C007C00F087100232246294601A803F00B
:1040100047FA04B070BD0000024905C805C1002080
:104020007047000010F5FF1FFFB5434881B00F46F1
:10403000002B11D0002F0FD00199012901D00229A6
:104040000AD13E4800250068B22807D0B12805D023
:10405000B02803D03848401E05B0F0BD184603F024
:10406000F3FE040020D036482646FF36007861363D
:10407000307402281BD0204610223249B030FDF7A0
:10408000CBFF2246FF320020813290602A490198FE
:10409000091D2D4B012811D0022828D02B4D204678
:1040A00004F096F82846D7E72348401CD4E78ECF83
:1040B0002046B0308EC003983076E2E71878FF28AB
:1040C00037D0022093607074307C0228EAD12046F9
:1040D000FF3004217530FDF7FFFF204604F088FB18
:1040E0000500DCD1B320FF340134E066DAE70120BB
:1040F0001F5CFF2F02D01B18936003E0401CC0B26E
:104100000228F5D3022814D0042070740120FF2166
:10411000B0746D310851307C0228C3D100200346B1
:10412000024600900121204604F066F80500B6D151
:10413000B8E70D46B3E700001230000024F6FF1F79
:1041400028F6FF1F346B002029F6FF1FFFFF000039
:10415000002905D0034A1060034801600020704721
:10416000024870471CF6FF1F20F6FF1F12300000A8
:10417000FFB5334E8BB015460F4600280FD0002DEB
:104180000DD003F01DFF04000BD0022F0CD0042F24
:104190001FD0072F49D0354628460FB0F0BD304616
:1041A000FBE72748801CF8E70822294608A8FDF706
:1041B00033FF0820009008AB00220321204604F0C2
:1041C0001BF80500E8D100220421204604F0D8FBAA
:1041D000E2E7E01DF930C17A022902D0032904D0B8
:1041E00006E0007B042819D002E0007B032815D0EC
:1041F00028686946C870020A8A70020C4A70000E6C
:104200000870AC20009901510020034602460521A8
:104210000090204603F0F0FF0546BDE72046294602
:10422000A0300E9AFDF7F8FEEEE71C22294601A801
:10423000FDF716FF1C20002201AB08210090E8E7E3
:104240001230000038B515460C4600280DD0002C61
:104250000BD003F0B5FE002809D0C11DF931CA7A90
:10426000022A07D0032A09D00BE0104838BD0F48B6
:10427000801C38BD097B042911D002E0097B032989
:104280000DD021686A46D1700B0A93700B0C090E91
:1042900053701170A0300099C160002038BD2146D4
:1042A0002A46A030FDF7B8FEF7E700001230000004
:1042B000F8B5074629480E460168294815460029E1
:1042C0001AD0022E07D0012E17D1264909680029DD
:1042D00012D0002D11D02548234C0670FDF7E4FEC6
:1042E0002348FDF7FFFE3046224E012808D0022861
:1042F00021D01B4C641C2046F8BD1948401CF8BD59
:10430000102229461C48FDF787FEF80706D02A8AA6
:10431000294600206B69FFF717F80446B80706D551
:104320002A8A294601206B69FFF70EF80446002C03
:10433000E1D1B12010E0F80704D001210020FFF7FF
:104340009FF80446B80704D501210846FFF798F8FE
:104350000446002CCFD1B2203060CCE720F6FF1FFE
:10436000113000001CF6FF1FFFFF000028F6FF1FA2
:10437000F46A002024F6FF1F346B002070B50D4C4A
:1043800000252079C00707D001210220FEF7BEFFDB
:1043900020794008400020712079800707D501214D
:1043A0000320FEF7B3FF2079FD2108402071284645
:1043B00070BD000024F5FF1F10B5134602280AD077
:1043C000FF20800041430548091808221846FDF7E0
:1043D00023FE002010BD08220149F7E7B449002060
:1043E000A05D0020F0B504460E4800220E4D1F26A9
:1043F0008C467601FF21890051434B199F19397C66
:1044000001290AD15B88FF7D9C4206D3D919A142BC
:1044100003D9614600200A70F0BD521C052AE9D379
:10442000F0BD000021240000B4490020F0B504468E
:104430000A781248052A01D1002202E0521C052AFE
:1044400015D2FF239B000E4D53435D191F235B01C3
:10445000EB181B7C012BF1D100230F26B6015F0066
:10446000EF19BF19BF8BA74202D100200A70F0BD1F
:104470005B1C082BF3D30028E0D1F0BD2124000001
:10448000B4490020F7B50546002086B06946088289
:10449000144E1F27488204467F01FF20800060439E
:1044A0008019C119097C012915D10088A84212D1AF
:1044B00069460798087108980872020ACA71020CC6
:1044C0008A71000E48710520009001AB03AA0021FB
:1044D000204604F0A3FE641CE4B2052CDDD30020CA
:1044E00009B0F0BDB4490020012902D0002902D052
:1044F00003E0034900E00349086000207047000022
:10450000F4F4FF1FF8F4FF1FFFB5EBB074980F2809
:1045100002D31F486FB0F0BD04260A280AD30A3818
:10452000C0B208A9FEF75AF80225002069460877AC
:10453000044607E007AA08A9FEF730F80028E9D1E9
:1045400001252C4609A8FFF7E1FC08980AAF01A94C
:10455000E1C1099800906BA807C8769B04F062FF40
:104560007698099A80887799001D80B20590049703
:10457000039206916846017F75980291009000238E
:1045800001946E9A6C996B98FFF73AFCC2E70000B1
:1045900012230000FFB5C9B00026529A5398354641
:1045A0000A2A02D95C484DB0F0BD69460A77012459
:1045B00002211300FDF76CFD0B87070C22465757AD
:1045C0006767077E870000786946487702247AE0AB
:1045D000027869464A77027908A94A7081880A0AEE
:1045E00008A90A7041680A0C6946CA7741680A0E30
:1045F00069468A77007A08A9887032E003786A46AB
:10460000537743789377037908AA53708288130A03
:1046100008AA13704268130C6A46D377037A08AA73
:10462000D3700289130A08AA9370837A1371037BEB
:1046300093718089000A507138484A9038480B2499
:10464000017040E0027869464A7742788A7782783A
:10465000CA77C27808A90A7002798A708088000A2D
:10466000487007242FE0027869468A7701880A0A91
:1046700069464A77827808A90A7040886946000A24
:10468000C87705241FE001786B465977022407AAF2
:1046900000210BE043684F00DB191B8817197B7062
:1046A0001B0A1355A41C491CE4B2C9B203898B42EE
:1046B000F0D808E0027869464A778278CA7740885D
:1046C000000A8877042447A8FFF720FC1548806A71
:1046D000479A0702002107A8069104904C98059478
:1046E000009003920196029549A807C83F0A01234A
:1046F000FFF786FB04460B48806A0102090AC91BC2
:1047000009A0FDF7B3FC11A0FDF7B0FC1048002094
:10471000C046204647E7000012230000FDFF0000CE
:10472000ECF4FF1F00F00040636F6E73756D652041
:1047300074696D65204D535F6C74726E5F73656E46
:10474000645F7064753A2025640D0A000D0A00004C
:10475000D8F2FF1F10B5164C88B0E188884302D00C
:10476000144808B010BD02A8FDF7D2FF7F216846AB
:10477000017405A8FDF754FF06A8FDF769FF684618
:10478000007E022805D06846007D4107490F684633
:1047900001756846017D41820A2004A900900191BB
:1047A0006846037C628921880089FFF7F3FED8E719
:1047B000B85D0020FFFF00007CB51C461B78069EFC
:1047C000DD0915D09D09022D14D0DD432D06AD0F56
:1047D0000DD11D0263782B431D02A3782B430325C3
:1047E0006419751BADB20195009401F08BFA7CBD84
:1047F0000125F5E71D0263782B430225F0E7000051
:1048000010B51C48002141601821816081611A495E
:10481000C16119491831C1623D210901016317497C
:10482000016468214164154968314165FF21933174
:104830008165134981661A21C16611491A31C16720
:104840006621803001600E490246803101611621E7
:1048500041610B49843A96314162042181620849E1
:104860009A3181630721C16305490020A131FDF719
:104870003FFC10BD50F5FF1F5A0200004206000029
:104880003C080000FFB581B001980E460078022870
:104890005CD2A021504C41430C196168002955D0CD
:1048A000551E0028307826D081098006800E0090A1
:1048B00003284BD8AFB200294AD0012951D0022990
:1048C0005BD0032942D127468037F98A204614302D
:1048D0000818711C521EFDF79FFBF88A4019F882D8
:1048E0000098002864D0012854D0022870D00328F2
:1048F0002CD104205DE0394C002B04D0196800292C
:1049000001D009782170292810D02A2810D02B280E
:104910001AD17078012817D8810031484358002BEC
:1049200012D0921E91B2B01C98470DE0022000E018
:10493000012081002A4814384758002F04D0721CE7
:10494000ABB202210198B8470020207005B0F0BD3D
:104950002046711C1430521EFDF75EFB9620075353
:10496000BEE7254600208035E8822046711C1430C1
:10497000521EFDF751FBEF82E8E727468037F88AA1
:1049800014340019711C521EFDF746FBF88A4019B9
:10499000F882DBE7207D810011484258002AD5D0FB
:1049A0009620005B401E81B2204615309047CDE72F
:1049B0000320022182000A4814388558002DC5D0F2
:1049C0009620035B224614320198A847BEE7FFE712
:1049D00003200146EEE70000A0440020DDF4FF1FA5
:1049E000F445002070B505AC0ECC049D00240A2DC2
:1049F00001D2074870BD074E8D1BB14201DA064E49
:104A0000B142064D6D68002D00D0A847204670BD0C
:104A1000FFFF0000288000001180000034F6FF1F17
:104A2000F0B59E46002503462C46400816E0670078
:104A3000CE5D56557E18B446B6786D1CADB23601C3
:104A40005655CF5B3F0A3E435655664676886D1CE9
:104A5000ADB2360956556D1CADB2A41CA042E6D8C5
:104A6000D80709D06300C85C5055C95A6D1CA8B25C
:104A7000090A1154401C85B2704605800020F0BD23
:104A8000F0B59E46002503462C46400816E0670018
:104A9000CE5D56557E18B446B6786D1CADB2360163
:104AA0005655CF5B3F0A3E435655664676886D1C89
:104AB000ADB2360956556D1CADB2A41CA042E6D865
:104AC000D80709D06300C85C5055C95A6D1CA8B2FC
:104AD000090A1154401C85B2704605800020F0BDC3
:104AE00070B5054600F062F812490446052809D061
:104AF000FF20800060434618204600F01DF87580B6
:104B0000204670BD00201F225201FF239B0043431B
:104B10005B189B181B7C002B05D0401CC0B20528DD
:104B2000F3D3052070BDFF229200424351184D80FF
:104B300070BD0000B4490020F8B50446FF20800095
:104B40001949604345181F2040012F18B87EFF28DF
:104B500001D0FDF7D3FA287CFF2801D0FDF7CEFA6B
:104B600028882146FDF7B4FC00242646FF20E530C6
:104B7000604340190146FF31C131CE868E86FF2148
:104B8000E1311430FDF778FA641CE4B2022CEDD365
:104B90000720C0012818C6650666466686663E740C
:104BA000FF20B8762874F8BDB449002030B502461D
:104BB00000201F2409496401FF239B0043435B1825
:104BC0001D192D7C002D02D05B88934204D0401C1F
:104BD000C0B20528F0D3052030BD0000B449002044
:104BE000F8B504460AA00068009060060F46800FE2
:104BF0006D461646285C0A21FDF786FA3870E006F5
:104C0000800F285C0A21FDF77FFA30700020F8BD84
:104C10000A0F141970B505AC0ECC044D00246D6854
:104C2000002D00D0A847204670BD000074F6FF1F7D
:104C30000246400B40030843904202D90121490338
:104C4000884370477FB50468A07B00281BD02646A8
:104C50002036F07A800704D5012503A8FDF758FD1A
:104C600003E06088694600258881FF207072206A11
:104C70007F210290019500916846E38AA2882188ED
:104C8000808900F0CDFC7FBDF0B5124D9C46AF8809
:104C90002B465C88082F14D0E3199CB2082C01D352
:104CA000083CA4B20C235C430B4BE618B1701853BC
:104CB000604672603072082F01D07F1CAF800020E8
:104CC000F0BD661CB6B26E80082EEBD100266E8059
:104CD000E8E70000E4F4FF1F5446002010B550211F
:104CE0000448FDF7C9F9034860215030FDF7C4F9C5
:104CF00010BD000004460020F0B50F4909780129D5
:104D000012D00E4B85880E4A0021CE00B418A78819
:104D1000AF420BD10778A479A74207D1965984688E
:104D2000B44203D8002304E00020F0BD491C0A2946
:104D3000EBD31846F0BD0000E4F4FF1FFFFF0000B6
:104D400004460020F0B50646944600200C4C0A4666
:104D5000034630211D464D432F19B97BB1420AD17C
:104D6000615B914207D13D7C654504D130204343CE
:104D700018198673F0BD5B1C9BB2102BE9D3F0BDF4
:104D8000B4460020FFB5054610788FB08007C00FED
:104D90000B90129817464178C809079012988B0714
:104DA0008278490690081B0EC90E18430902084371
:104DB00008901298D200C07841091143C906C90E63
:104DC000C6060291F60E2A78A9880120FFF7BAFFDD
:104DD000040011D0E08A0899884202D99C4813B097
:104DE000F0BD884208D2217C20880123A269FFF708
:104DF0004BFF204600F008FBA8680899FFF718FF52
:104E000002462978A88804AB00F090F90C9000289D
:104E10000BD0A87801281CD00C2009903878800786
:104E200019D503A8FDF774FC18E06846007C00283B
:104E30006FD1EA780120761CB0400B99401E009299
:104E400001910290A988E888089B109A00F0E8FB7D
:104E50005FE00820E1E7E88869468881701C0D90D2
:104E60000999089B48430B99401C019000916846A2
:104E70008289A988012000F0FDFA040003D0A07BFC
:104E800000280DD038E0E87800226B460B9907C364
:104E90006846A9888089089B109A00F0C1FB9EE7AC
:104EA000002001230C90A3731098A0802878207410
:104EB000A878E073E8786077A8882080E888608028
:104EC00000206074A0740799E1740899E182282297
:104ED000105526772062204623303A7802727A787D
:104EE00042721F2E17D00D9A18469040401E6062E5
:104EF000A868FFF79DFEA061204600F0F9FA204661
:104F000000F09CFA029A0120216A90400142009030
:104F100004D0002063E70020C043E8E7964206D1B2
:104F20000998314641431898C01E0818A081099974
:104F30000298A268484310181299189A401C091D3B
:104F4000121FFDF769F8206A00990843206218993A
:104F5000626AC9B2099190425BD1204600F0DEFA44
:104F6000226A7F206B460B9907C36846E38AA988AB
:104F70008089109A00F054FB1298A16800784006CE
:104F8000400E087033480068002813D03878C107F5
:104F900001D140070ED5E18AA868FFF749FEA86055
:104FA000A08900902B4EA36836682846079A10996E
:104FB000B04724E0002E00D003263878810708D5BA
:104FC0000998009078782A463146129B04F026F919
:104FD00010E000070ED50998009078782A463146EF
:104FE000129B04F01BF9E888791CFFF71FFA0C905C
:104FF0000028F0D0E18AA868FFF71AFEA860297897
:10500000A8880023AA68FFF73FFE204600F0FCF9BD
:105010001CE03878810708D50998009078782A46EE
:105020000121129B04F0FAF810E000070ED5099850
:10503000009078782A460121129B04F0EFF8E88866
:10504000791CFFF7F3F90C900028F0D00C98C6E615
:10505000FFFF0000E0F4FF1F7CB5069A00931346A3
:1050600000240246079D0194022000F003FA040088
:105070001DD0002D03D0606AA84203D1204600F065
:10508000C3F914E0207F1F2813D00121401C814068
:10509000491E226A29400A43226225462035687A41
:1050A000FDF72CF8FF206872204600F08BFA0020F4
:1050B0007CBD206A28432062EFE7000010B5046839
:1050C000A07B002808D0217C20880123A269FFF75B
:1050D000DBFD204600F098F910BD000010B5044833
:1050E00000218180418050210248FCF7C5FF10BD9E
:1050F000E4F4FF1F0446002010B5032424022146D7
:105100000948FCF7B9FF21460748FCF7B5FF002026
:10511000054BFF2130224243D21820325172401CED
:1051200091721028F6D310BDB4460020FFB5174A7F
:105130000646518897889C4613480024144A20E06C
:105140000C230D465D43535BB34213D1AB189E460F
:105150009B78019DAB420DD173465B68029DAB42CB
:1051600008D10C2041438818017A60460170002064
:1051700004B0F0BD491C89B2082900D10021641C8B
:10518000A4B2BC42DCD3F3E7FFFF0000E4F4FF1F4E
:1051900054460020FFB5044689B0E1780A98029091
:1051A000019300911E461546A378E288A1887848AD
:1051B000FCF75CFF77A0FCF759FF77480020C0465A
:1051C000E088FEF7FBFE0290A078012802D1029849
:1051D00002281AD00020014601906846017305217B
:1051E0004173A088FDF70CFF002812D06B48049093
:1051F00002986B4F0128E0880ED0010AFF291FD0CA
:10520000FDF71EFF002827D029E06448801E0DB05E
:10521000F0BD6248401EFAE7FDF7F2FE002807D015
:1052200003A9E0880131FFF7DDF8002802D023E070
:10523000012000E0022069460873002004901FE06E
:105240005749C91E884205D3FDF7BCFE01206946B7
:10525000087315E00120DAE704206946087303A902
:10526000E0880131FFF7E2F8002805D16946087BA4
:1052700008210843694608736846007B002814D05B
:105280002046FFF739FD00287FD0204600F056FA6F
:105290002978C8090BD0002877D000962B4603AA9E
:1052A00020460A99FFF76EFD6FE03C48AFE7A27811
:1052B000F0B2012A02D14906490E0DD06946029585
:1052C000097B8A072FD500906846407B2B462246F3
:1052D000002103F0A3FF38E06946097B890708D560
:1052E00000906846407B2B462246042103F096FF3F
:1052F0003CE068780102A8780843C30B4004C10C65
:10530000E878020228791043020268791043020209
:10531000A879009110430190E188A0880A9AFFF7CC
:105320009BFE002722E008070FD5F5B268460095DE
:10533000407B22460021029B03F070FF03A9E08816
:105340000131FFF773F80028F0D016480568002DEA
:105350000CD06846007BC10701D1400706D50096F6
:105360002046029B019A0A99A8470746002F0CD1B4
:105370000A98032809D16846FDF76AF9684600785B
:10538000022802D10A9804F091F804983FE700003F
:1053900014A801110D0A0000D8F2FF1F1821000007
:1053A000FFFF0000E0F4FF1F10B50068817B0029BB
:1053B00004D0FF2229210A5400F004F910BD000096
:1053C00070B50D46014600240E4A20463023434363
:1053D0009B189B7B002B03D0401C1028F6D30BE0BE
:1053E000302358438418A17306D02846FCF792FE58
:1053F000A060002802D0A581204670BD0020A073C7
:105400000446F9E7B4460020F8B50446806825460E
:105410000026FF272035002807D0FCF781FEA66074
:10542000A681687AFCF76AFE6F72A87AFF2802D01C
:10543000FCF764FEAF72A673F8BD000001B582B040
:1054400002982030807AFF2805D0FCF757FE02989A
:10545000FF212030817204200090029802AB034AA1
:1054600003492A30FCF762FE0EBD0000BD50011159
:10547000204E0080FFB5844600251C4881B08E4632
:105480002C462A46302116464E433318997B6145F7
:1054900012D1875B77450FD1DF8A049EB7420BD1CB
:1054A0000A9F012F03D05F88039EB74204D13021A9
:1054B0004A43151815D107E0002902D1002C00D16C
:1054C0001C46521C102ADDD30B98002809D0002C52
:1054D00007D02546FCF71EFEA860002804D00B98D4
:1054E000A881284605B0F0BD0025FAE7B4460020A3
:1054F00011B581B0019C2921095D0020FF2908D147
:1055000004200090204601AB024A03492930FCF7F1
:105510000DFE1CBD454C01113200008010B5044643
:105520002034617A0020FF2904D00846FCF7E6FD0C
:10553000FF21617210BD000070B504460C200A46C0
:105540004243207F8AB0884203D1A089801A85B265
:1055500000E00C25607C03AE8301A07C8006800EF9
:1055600003438020034368460373E08AC004430E6C
:1055700068464373A07D8300C8080343684683736D
:10558000207F490101436846C173A06881182A46FB
:1055900004A8FCF741FD68462D1D07960584218867
:1055A00081806188C180617FC170E17B817002A8C8
:1055B000FEF7ACFCA18807AA6846FEF715FD0AB005
:1055C00070BD000071B581B001982821095C057F8C
:1055D00000291ED0002401260AE001983246016A03
:1055E000A240114202D12146FFF7A6FF641CE4B29B
:1055F000AC42F2D9019C01AB20462034217A064A04
:10560000491E21720421009104492930FCF78EFDC6
:105610007CBDFFF7F9FE7CBDA95301112C01008070
:10562000FFB58BB00D98149F169C1E46032806D11B
:105630006846FDF70DF868460078022807D00C98F8
:10564000FEF7BCFC012807D018480FB0F0BD0D983C
:1056500003F02CFF0020F8E7002568460577159831
:10566000C101F004400E014368464177B1008177E3
:10567000210EC177210C08A80170210A41708470A5
:10568000002F00D07F2709A8FEF740FC099A0720C9
:1056900007A90695009701950BAC0295039204911A
:1056A000059007CC0123FEF7ABFBCEE7FFFF000020
:1056B000FFB581B00C9D074629460220FFF780FE0A
:1056C000040033D000262A46A0680B99FCF7A4FCFE
:1056D0000298A080B878E073F8786077B888208066
:1056E000F8886080039860740498A0740A98E08237
:1056F0000321282001550C212846FCF705FDC0B2E6
:105700000C214143A94201D1401EC0B200212077A3
:1057100021621F280CD00121401C8140491E61627A
:105720002046FFF74FFF304605B0F0BD024EFAE7C6
:105730000020C0436062F3E714220000F0B50A22A3
:105740008388114D0021CC006619B4889C4206D193
:10575000B6790778BE4202D100240A460BE0002C3D
:1057600002D10A2A00D10A46491C0A29EBD30A2A87
:1057700000D100220024D1004A19938083686B5025
:10578000007890712046F0BD04460020FEB5224E00
:105790000546706800282AD001A93078FCF7CCFCB7
:1057A000002801D000200190019F642138467468D0
:1057B0006330FCF7A9FCA1686422091A286809185B
:1057C0005043A960B8421AD83078FCF797FCFF2004
:1057D00030700420EC600090296864204143400749
:1057E00001432B460D4A0C48FCF7A0FCFEBD75603A
:1057F0002968B0680818A86004200090EDE72246E8
:1058000003E0A3688B4203D80446E0680028F8D17F
:10581000D560E068E860FEBD34F5FF1FE95E011168
:1058200030B5034600200B4A014606244C43A41819
:105830002479002C06D0491C0229F6D3022900D174
:10584000054830BD062401254C43A2181571197076
:10585000F4E7000054600020FFFF0000F0B50F46A1
:1058600028211E4A41438C1825462035A97989B044
:10587000012902D002292DD128E0282148431749C7
:1058800046181236022F02D0032F17D022E02879B3
:105890000190A11C102203A8FCF7BEFB68792871B7
:1058A000A01C10223146FCF7B7FB01986871304606
:1058B000102203A9FCF7B0FBAF710BE068792871E7
:1058C0003146A01C1022FCF7A7FB01E0032F01D1F9
:1058D0000020A871A87909B0F0BD00007067002011
:1058E000F0B595B000252EA11295096813912DA150
:1058F00009682DA2149106CA1091782148432C49B9
:1059000011924418A01C2246543210210B9001F031
:1059100079F902A80090012312AA10210B9801F036
:1059200001F96846067A2046274602A93230223716
:1059300010220131FCF770FB06A910220131384614
:10594000FCF76AFB22370C950D950E950CAA0421E5
:1059500014A80F9501F0B6F906200197009010AB3E
:105960000CAA10210B9801F0C3F818370C950D956F
:105970000E950CAA042113A80F9501F0A3F9062097
:105980000197009010AB0CAA10210B9801F0B0F811
:105990004034A670042000F0F1FA15B0F0BD00000C
:1059A0006E6B696B6E6B626B69643132380100003B
:1059B000B063002070B505460E46C01E294C94B059
:1059C00081B20DAAA078FEF7F7FC0FA93046FCF7CC
:1059D00085FE00283CD1012008A908722248A17840
:1059E0000088022936D06946CA8E08A98A72120A2E
:1059F0004A720873000AC8726946088F08A988733A
:105A0000000A48736946488F08A90874000AC873D9
:105A100001AC09230AAA10210FA8009401F082F812
:105A200078204543104869469030281803460546BB
:105A3000097940308170323322351022611C1846BA
:105A4000FCF7EAFA05A9102201312846FCF7E4FA2E
:105A500014B070BD08A98872000A48726946C88EE1
:105A600008A9C6E740F5FF1F2063002010B51848BD
:105A70007F210170002444700F2189011548FCF733
:105A8000FBFA00F051F8FF2191311348FCF7E2FADC
:105A900000F026F864211148FCF7DCFA00F030F839
:105AA0000C4818219038FCF7D5FA0A48142114380C
:105AB000FCF7D0FA074864217838FCF7CBFA0448A1
:105AC000083004804480FEF79BFE002010BD0000DB
:105AD00040F5FF1FB06300207067002000690020C0
:105AE000054A06490020282343435B18401C5A847A
:105AF0000A28F8D370470000FFFF000070670020FD
:105B000070B5074D00241420604340191421FCF7A0
:105B1000A1FA641C052CF6D302490020C88070BD90
:105B20000069002040F5FF1F064A0749002078233E
:105B30004343401CCA520828F9D3044900208880F6
:105B400070470000FFFF0000B063002040F5FF1F1A
:105B500070B50E4678214843084900224518703533
:105B600028460A21FCF76AFA0446401C05D0A0B278
:105B70003146FFF773FE621CF2E770BDB063002090
:105B8000F8B50F460646782148430A4900224518D1
:105B9000743528460321FCF751FA0446401C07D00F
:105BA000E01C80B23A463146FFF704FF621CF0E782
:105BB000F8BD0000B063002070B51646084D78228D
:105BC00050434419002B03D1295200216C20015568
:105BD0001801201810223146801CFCF71DFA70BDF8
:105BE000B0630020F3B58FB00E460F987821394A84
:105BF000484381180D4660350990002E0FD00F9A4A
:105C000078235A43334B687BD7183C4612344037CD
:105C1000002808D0012816D0022858D14FE00F984C
:105C2000FFF75EFE35E0012E51D10020029005A85D
:105C300000902046012302AA102100F073FF68465D
:105C4000007DF87025E0022E02D0032E23D03EE026
:105C5000B8780390102205A8891CFCF7DDF91D49CE
:105C600009982246095A00230F98FFF7A5FF0F98BD
:105C7000FFF736FE0398F8702046102205A9FCF7BE
:105C8000CBF931460F98FFF763FF31460F98FFF7C6
:105C900077FF6E731BE00F4809992246415A002393
:105CA0000F98FFF789FF0F98FFF71AFE31460F98FC
:105CB000FFF74EFF31460F98FFF762FF05E0032E16
:105CC00005D131460F98FFF743FF00206873687BCA
:105CD00011B0F0BDB063002010B500883C225043E5
:105CE000064A80182822125C012A01D0044810BDFF
:105CF0000A468069002100F023FC10BD606000208E
:105D000027240000FFB58BB00446002069463F4EB3
:105D100015468883888B3C21484380193021095CD3
:105D200000296AD00A2D05D229463430FCF70AFA38
:105D3000002862D06846818B0E9800F0BBF80028DE
:105D40005BD108A8FCF7E4FC6A46908B3C214843F1
:105D50008019017AE088128C821A91420BD02C4A69
:105D6000904201D3002906D0FEF728F9022818D066
:105D700003281CD041E06946898B3C225143891994
:105D8000CE68002E0BD0149A159902920E9B0193A7
:105D9000009503910246A18807A80C9BB0470FB05D
:105DA000F0BD04AA0121A01D00F080FE04E004AAB9
:105DB0000121A01D00F0D2FD00281ED16846808B75
:105DC0003C214843801938300499FCF7BBF900287E
:105DD00013D06846808B3C2148438019C768002F48
:105DE0000BD0149915980E9A029103900095019288
:105DF000E288A18807A80C9BB8476946888B401C9D
:105E000080B288830A2885D3C9E70000606000203B
:105E1000FCFF000010B50C211548FCF71BF91448D5
:105E20004B21C9000C30FCF727F9134811490180B8
:105E3000FF2101314180002484800A21C18000F0CB
:105E400033F8FFF713FE00F01DF800210B48FEF7B2
:105E50004BFB0B4800F06CF8054900200C313C224C
:105E600042435218401C54620A28F8D310BD000067
:105E70005460002004050000B8620020B9470111F9
:105E8000FF03000010B550210548FCF7F5F800218C
:105E90000448FF22416002708160084610BD000086
:105EA000C462002034F5FF1F01480F2101817047B3
:105EB000B86200203C22514330B50A4A0346891893
:105EC0000C8A4A690648002106E08D0055599D421A
:105ED00001D1002030BD491CA142F6D330BD0000E5
:105EE000FFFF000060600020F8B50F4D0068A96852
:105EF0000E4F0818A86000266C6812E0A068A96818
:105F0000884210D8A0883C214843C0190021C26AA9
:105F1000201D9047E06868602046E660FFF736FC89
:105F2000E468002CEAD1F8BD34F5FF1F6060002062
:105F3000F8B5114D0646012229780020FCF708F932
:105F4000002818DB00240120A04030420CD014208F
:105F5000214641430848001D0F18297800207A681F
:105F6000FCF7FCF838698047641C0A2CEBD32978CD
:105F70000020FCF7F9F8F8BD4CF5FF1FF8B5114DFE
:105F80000646002229781046FCF7E2F8002818DBC4
:105F900000240120A04030420CD01420214641436F
:105FA0000848001D0F18297800207A68FCF7D6F8F9
:105FB000F8688047641C0A2CEBD329780020FCF792
:105FC000D3F8F8BD4CF5FF1FF0B59446134A1C46B4
:105FD000138802883C204243114885B01218107A79
:105FE0000A9E1818938B927F0B9D80B2012A03D0D2
:105FF0000A2B03D3002206E0032204E01A462827D6
:106000007A43084FBA5A084F3F78009701AF52C7FA
:1060100004956146FDF790F805B0F0BD20630020BF
:10602000606000207067002040F5FF1FF0B50A2374
:10603000144C00223C2555432E193027BF5D002FFC
:106040000DD065590768BD420CD135790779BD423D
:1060500008D1357A067AB54204D10B48F0BD0A2B37
:1060600000D11346521C0A2AE4D30A2B08D03C2044
:10607000584300190122203002740B800020F0BD2B
:106080000248F0BD6060002023240000FFFF0000F4
:10609000F8B51E461D4B002810D0002A0ED0002E49
:1060A0000CD000231D463360194B2F01DF59002F00
:1060B00006D06D1CADB2052DF7D31EE01846F8BD15
:1060C00087098006800E002F06D0012F17D0022FDF
:1060D00017D0032F01D116E00446CC402801C51883
:1060E0002C601088A8800020E860002D05D0002CCE
:1060F00003D02846FFF74AFB35600020F8BD0A248C
:1061000002E0642400E0034C6043E5E7FFFF000089
:10611000C462002070170000F8B5144F002808D0A2
:10612000134E0025746884421AD1E068002802D01A
:1061300007E03846F8BD3078FBF7E0FFFF2030700D
:10614000B5602560A780A560E0687060E5600AE042
:10615000814205D1C168E160056087808560C560C6
:10616000E1680029F4D10020F8BD0000FFFF000025
:1061700034F5FF1F10B500F005FA0449002008703F
:10618000FF2141310248FBF777FF10BDDDF4FF1F0F
:10619000A044002010B550210648FBF76DFF0020F9
:1061A0000449FF220301401CCA540528FAD30020E9
:1061B00010BD00005044002070B500242246052880
:1061C00011D2850016482B185E18B178002901D02D
:1061D000491EB1709978002903D1D978002900D1DE
:1061E0004253802015E00A2816D21423401F58433A
:1061F0000B4B643BC0184318997C002901D0491E01
:106200009974817C002903D1C17C002900D10282CC
:106210004020FFF7B3FE00E0024C204670BD0000B6
:106220009C63002022240000F8B507462820124A6B
:1062300000217843C94380184184B8B200250090FA
:106240003C20294641430D480C1826462036307C18
:1062500001280DD1204634303946FBF7E9FE307A6B
:10626000012805D1A18B0098814201D10020307214
:106270006D1C0A2DE4D3F8BD70670020606000201B
:106280000020044902468300401CC0B2CA500228C4
:10629000F9D370472CF6FF1FF7B582B00024029A9D
:1062A0003F4996008A5925462046137C10E00C276A
:1062B000D1684743CF5D03998F4208D10C214143F8
:1062C0000C460834D568091D2C596D5802E0401C55
:1062D0008342ECD883421ED15C2132A0FBF7EAFE58
:1062E000002805D05C212FA0FBF7E4FE401C00E055
:1062F0002CA08B213C4C0346009134A22146012066
:10630000FBF7DEFE39A221460120039BFBF7D8FEF6
:10631000444805B0F0BD126801A9049890470746AB
:106320001F49019A38E08859E3008068C05810423C
:1063300031D088590D468168E000001D09580029B8
:106340000AD0049888470746A8594268002A25D0F1
:1063500039460498904721E05C2112A0FBF7AAFE81
:10636000002805D05C210FA0FBF7A4FE401C00E034
:106370000CA0BE211C4C0346009114A22146012012
:10638000FBF79EFE0398009027A221460120029B66
:10639000FBF796FE02E0641CAC42C4D93846B8E76D
:1063A0002CF6FF1F2E2E2F6D6573682F7072697685
:1063B0006174652F636F72652F66736D2F66736DE1
:1063C0005F656E67696E652E630000000A5B2A2AAE
:1063D00020455252202A2A5D3A5B25735D3A5B259F
:1063E000645D3A2000000000000200405B46534D0F
:1063F0005D3A20556E6B6E6F776E204576656E74D4
:10640000203078253032582052656365697665649E
:10641000202D2064726F7070696E67206576656EDE
:10642000740A0000FFFF00005B46534D5D3A5B2598
:106430003032585D20526563656976656420556E1B
:106440006B6E6F776E204576656E742025303258FE
:106450000A00000038B50024174B224695005D590C
:10646000002D07D0521CD2B2022AF7D30A70022A9A
:1064700003D01EE095005851F8E75C210FA0FBF710
:1064800019FE002805D05C210CA0FBF713FE401C70
:1064900000E00AA044211A4C0346009111A22146B3
:1064A0000120FBF70DFE17A221460120FBF708FE95
:1064B000224C204638BD00002CF6FF1F2E2E2F6DDB
:1064C0006573682F707269766174652F636F72658A
:1064D0002F66736D2F66736D5F656E67696E652ECF
:1064E000630000000A5B2A2A20455252202A2A5DB6
:1064F0003A5B25735D3A5B25645D3A20000000003D
:10650000000200405B46534D5D3A2046534D2052F9
:1065100065676973746572204661696C65642E20D5
:106520004E6F206672656520696E646578206176BD
:1065300061696C61626C65210A000000FFFF000068
:1065400030B50E4B052808D284000D48251869186F
:106550008978002910D0005B0CE00A280CD21424A2
:10656000401F6043064C643C00194118897C002997
:1065700002D0008A10800023184630BD222400007B
:106580009C63002010B51348806981061248890E6B
:10659000006801D1401C1BD010A0FBF767FD18A0BC
:1065A000FBF764FD17480020C04617A0FBF75EFD0F
:1065B00013A0FBF75BFD13480020C04607A0FBF7C4
:1065C00055FD0FA0FBF752FD0E480020C046FEE728
:1065D00010BD000040F00040000A00113D3D3D3D6F
:1065E0003D3D3D3D3D3D3D3D3D3D3D3D3D3D3D3DDB
:1065F0003D3D3D3D3D3D3D3D3D3D3D3D3D0A000078
:106600000D0A0000D8F2FF1F3D3D3D3D20205B44B8
:106610004F204E4F5420535550504F5254204D450B
:1066200053485D20203D3D3D3D0A000038B5002126
:1066300068460180094C02236A4621780020FBF756
:1066400099FD684600880A2806D1FF239133044A41
:1066500021780020FBF78EFD38BD00004CF5FF1FB0
:106660007067002038B50021684601800B4C02237A
:106670006A4621780020FBF77DFD684600880528E2
:106680000BD10223064A21780020FBF773FD642317
:10669000044A21780020FBF76DFD38BD4CF5FF1F43
:1066A00046F5FF1F0069002038B5002468460480C5
:1066B000094D02236A4629782046FBF75BFD6846B0
:1066C0000088062807D11823044A29780020FBF700
:1066D00051FD0248847038BD4CF5FF1F2063002037
:1066E00038B5002468460480114D02236A46297893
:1066F0002046FBF73FFD68460088022816D10C2390
:106700000C4A29780020FBF735FD0A230A4A29782C
:106710000020FBF72FFD074A00200621414389187E
:106720000C718C70401CCC700228F6D338BD000070
:106730004CF5FF1F54600020B862002038B50024DB
:10674000684604800E4D02236A4629782046FBF7EE
:1067500011FD684600880A2810D14B23DB00094A46
:1067600029780020FBF706FD064900203C22424321
:1067700052182032401C14740A28F7D338BD000088
:106780004CF5FF1F6060002038B50021684601808D
:10679000084C02236A4621780020FBF7EBFC684690
:1067A0000088052805D11423034A21780020FBF72F
:1067B000E1FC38BD4CF5FF1F9C6300201CB506486A
:1067C00004230178002001AAFBF7D4FC0198009073
:1067D0006846FDF721FC1CBD4CF5FF1F38B50021B4
:1067E000684601800F4C02236A4621780020FBF79F
:1067F000C1FC68460088082812D10C230A4A217877
:106800000020FBF7B7FC0223084A21780020FBF7A1
:10681000B1FC0F239B01064A21780020FBF7AAFC5C
:1068200038BD00004CF5FF1F1463002044F5FF1F26
:10683000B063002038B50021684601800B4C02236C
:106840006A4621780020FBF795FC684600880228FC
:106850000BD10423064A21780020FBF78BFC01238F
:10686000044A21780020FBF785FC38BD4CF5FF1F5A
:1068700048F5FF1F41F5FF1F38B50021684601802C
:10688000084C02236A4621780020FBF773FC684617
:106890000088052805D16423034A21780020FBF7EE
:1068A00069FC38BD4CF5FF1F3863002010B5FFF7B9
:1068B00069FEFEF713FAFEF711FCFEF71DFC024815
:1068C000FDF78CFB10BD00009551011110B5FFF7CD
:1068D00059FE0A48002101604160F0210848FBF799
:1068E000CBFB00F0C9FC01F055F900F049FF01F0C5
:1068F0002FFA04490120FCF7F1FD10BD10F5FF1F30
:10690000EC5D0020CD71011110B5FFF73BFE0E4983
:106910000220FCF7D3FD0D490420FCF7CFFD0C4904
:106920000020FCF7DBFD01F077FC0A4801F050FC89
:106930000949002008704870FF220A54401CC0B268
:106940000228FAD310BD0000FD7D01112D82011136
:10695000A18601116469002029F6FF1FF0B50546E4
:106960000B480C4C00239E00A65B002E0BD02F88FA
:10697000B74208D19D002C1961188978002901D0EF
:1069800000201360F0BD5B1C052BECD3F0BD0000B4
:10699000212400009C630020F8B50524174E184DF3
:1069A0008C46002399006F5A002F09D00188B94204
:1069B00009D19900491961448F787F1C8F7005E0D7
:1069C000052C00D11C465B1C052BEBD3052B01D0FD
:1069D00013600BE0052C0ED00188A000295241194C
:1069E000604608188178491C817014600026802058
:1069F000FFF7C4FA00E014603046F8BD2024000020
:106A00009C630020FFB50525264F274E81B000244A
:106A1000142060438119088A002806D010220198AA
:106A2000FBF7F4FA002812D002E0052D00D125462C
:106A3000641C052CECD3052C12D00499601D086051
:106A400014204443A019018A0398018022E01420F5
:106A50006043811902980918887C401C8874EAE711
:106A6000052D1BD01021039A019800F03DF9142048
:106A700068438419102220460199FBF7CDFA039848
:106A80000088208202982118887C401C8874049811
:106A90006D1D056000274020FFF770FA384605B0ED
:106AA000F0BD00002024000038630020F0B505464A
:106AB0000D480E4C002314265E433619368A002EEC
:106AC0000DD02F88B7420AD114255D432C196118C7
:106AD000897C002902D05B1D00201360F0BD5B1C87
:106AE000052BE8D3F0BD000021240000386300200E
:106AF000F0B587B01F4602AB009313460A46102636
:106B000001460C9D0D9C01960020FBF7DFFA02ABBD
:106B10002A463946002001960094FBF7D7FA07B0C1
:106B2000F0BD0000FFB5B9B035A01F46429D00681A
:106B300011371C462C90802F5FD831AA04212CA835
:106B400000F0C0F82DA81026009031AB019600206F
:106B50003A9A3999FBF7BAFA22460BA83B99FBF708
:106B60005BFA01210BA8015502A80090601C82B2BB
:106B700001962DAB0BA90020FBF7A8FA02A80FC8BD
:106B80000E930BAB07C30FA822463B992B90FBF744
:106B900043FA0BA8001902210A90017406A800907C
:106BA000BAB22DAB0BA901960020FBF78FFA06A80D
:106BB0000FC80E930BAB07C322463B992B98FBF7EC
:106BC0002BFA0A980321017435A80090BAB22DABB4
:106BD0000BA901960020FBF779FA6846C07D1022C8
:106BE0004006400E287006A9681CFBF715FA2846D7
:106BF000102235A91130FBF70FFA3DB0F0BD0000AF
:106C0000736D6B32F0B5064691B014A00D46006866
:106C100013A1109003C917460F910E9002AA0421E8
:106C200010A800F04FF806A81024009002AB2A46E6
:106C3000314601940020FBF749FA0AA8009006AB00
:106C400005220EA901940020FBF740FA08220CA9A6
:106C50003846FBF7E1F911B0F0BD0000736D6B33FE
:106C60006964363401000000F0B5074691B013A006
:106C70000068069012A0006815460E46079008AA04
:106C8000042106A800F01EF80CA81024009008AB00
:106C90003246394601940020FBF718FA02A800900A
:106CA0000CAB042207A901940020FBF70FFA6846F9
:106CB000C07D8006800E287011B0F0BD736D6B34FE
:106CC0006964360100B587B00023059302930393EE
:106CD0000493009210230A460193014602AB002060
:106CE000FBF7F4F907B000BD70B506468CB010A0F4
:106CF000006814460D46069007AA042106A8FFF76F
:106D0000E1FF102102A80191009007AB2A4631460D
:106D10000020FBF7DBF96846807D8006800E80301E
:106D200001026846C07D084320800CB070BD0000A1
:106D30007674616438B50A2069460880074C0223DE
:106D40006A4621780020FBF71BFAFF239133044A9F
:106D500021780020FBF714FA38BD00004CF5FF1F26
:106D60007067002038B5052069460880094C022369
:106D70006A4621780020FBF703FA0223064A2178AD
:106D80000020FBF7FDF96423044A21780020FBF77B
:106D9000F7F938BD4CF5FF1F46F5FF1F00690020CD
:106DA00038B5062069460880064C02236A462178D9
:106DB0000020FBF7E5F91823034A21780020FBF7B0
:106DC000DFF938BD4CF5FF1F2063002038B50220E5
:106DD00069460880094C03466A4621780020FBF783
:106DE000CFF90C23064A21780020FBF7C9F90A23C2
:106DF000044A21780020FBF7C3F938BD4CF5FF1F8A
:106E000054600020B862002038B50A206946088026
:106E1000074C02236A4621780020FBF7B1F94B2387
:106E2000DB00044A21780020FBF7AAF938BD0000F6
:106E30004CF5FF1F6060002038B5052069460880CA
:106E4000064C02236A4621780020FBF799F91423A7
:106E5000034A21780020FBF793F938BD4CF5FF1F5A
:106E60009C6300201CB56846FDF7B0F80348042376
:106E70000178002001AAFBF783F91CBD4CF5FF1F28
:106E800038B50820694608800D4C02236A462178EF
:106E90000020FBF775F90C230A4A21780020FBF744
:106EA0006FF90223084A21780020FBF769F90F23C4
:106EB0009B01064A21780020FBF762F938BD0000EB
:106EC0004CF5FF1F1463002044F5FF1FB063002042
:106ED00038B5022069460880094C03466A46217885
:106EE0000020FBF74DF90423064A21780020FBF728
:106EF00047F90123044A21780020FBF741F938BD06
:106F00004CF5FF1F48F5FF1F41F5FF1F38B5052061
:106F100069460880064C02236A4621780020FBF768
:106F20002FF96423034A21780020FBF729F938BDA3
:106F30004CF5FF1F38630020F8B52D48FCF75AFFC9
:106F40002C48002505702C492C48FBF795F80026A5
:106F5000FF27E137FF2080003146414327480C18C6
:106F6000FF2189002046FBF787F80720C001201881
:106F7000C565056645668566204614303946FBF7CB
:106F80007BF82046FF30F9303946FBF775F820468C
:106F9000FF30C130C58685860F20800120184583CB
:106FA0001F2105834901FF2061188876761C207413
:106FB000052ECFD30F481421458085801048FBF75C
:106FC0005BF80F48FF2404730E211430FBF742F8DE
:106FD0000B481821143004732C38FBF74DF808487F
:106FE0000E21183804752C30FBF734F8F8BD00007A
:106FF0003D9E0111ECF4FF1FEC130000B44900208A
:10700000B85D002030B5124C124B227819781E2A38
:1070100015D089181E2901D31E3989B20E4B057867
:10702000C9005D54C91845784D7083884B808068CD
:1070300048601E2A01D0521C2270002030BD4D1C19
:10704000EDB21D701E2DE9D100251D70E6E7000090
:107050001AF5FF1F18F5FF1FEC5D002070B50E46F6
:107060000546144605211046FAF7F4FF2572280A52
:10707000E071280CA071280E607120460722F11DD6
:107080000930FAF7C9FF70BDFFB5A7B00878309C8A
:10709000C0090D46207009784906490E617017A98C
:1070A000FBF7F2FA19AA29461798FFF7D7FF4648C7
:1070B0002A997CE012AB19AA1DA9284600F01CF9F8
:1070C00010A8007AC009A07010A8007A4006400EEF
:1070D000E07010A8407A010210A8807A08430102EB
:1070E00010A8C27A007B0A430102A18010A8407B4D
:1070F0000143A1802046A26000F0C8F800284CD0CF
:107100000EA8062212A90130FAF786FF2798002858
:1071100045D0032008A9087600204876002010AA50
:107120001070C87717981071010AD170010C917016
:10713000000E5070A17804208840C6B229983246CB
:107140002818811B25A8FAF767FF002125AA06A8A1
:1071500003AB029145C3084629990190891BC91FB9
:1071600089B20091EB1D0D220EA921A8FBF70EF8A4
:10717000002818DB6946087E0002E080497E08434B
:10718000E080299806A9801B093882B23298023122
:1071900002803198FAF740FF13E00B4F11E0002016
:1071A00008A90876BAE72A982A990088401C08801E
:1071B000607821AB1DAA2A99FBF736FC070000D1A5
:1071C00078E738462BB0F0BDFFFF0000F0B504466D
:1071D00006788FB0401C0D90607A27460202A07A94
:1071E0000D3710430202E07A0D4610430202207B65
:1071F000104302901F486A461082083D06AB07AA5A
:1072000004A90D98FBF78EFB00282CD108200190D3
:10721000AAB207AB214600970120FAF757FF0028D2
:1072200023DB6846008A00281DD1F10701D0022225
:1072300000E0032269460A75097E012904D105A9E7
:10724000FBF710FD00280ED1B007C10F684601758D
:107250000298FBF7D7FC002805D168463146008A22
:10726000029AFDF70FF90FB0F0BD6946088A401C7D
:107270000882C3E7FFFF00000249002008700249AE
:10728000087070471AF5FF1F18F5FF1FF0B5174972
:10729000184D154C09780023154A2D781FE0CE00B3
:1072A000B446B618B64676784778BE4210D16646E0
:1072B000965D0778BE420BD1764676888788BE42B7
:1072C00006D1764676688768BE4201D1002408E080
:1072D000491C89B21E2900D100215B1C9BB2AB4224
:1072E000DDD32046F0BD0000FFFF000018F5FF1FB2
:1072F000EC5D00201AF5FF1F70B51C4613460546CD
:1073000022461846FAF748FF002029184978225CDF
:1073100051402154401C0628F7D370BDF0B591B000
:107320001C4694460D4607460D2B73D307A804A9A7
:107330000AAE0091029008AB22460196614638469B
:10734000FFF7A2FE00287AD169464B7CCA7C897C73
:10735000069803936B4607C36846037CC28A818AFA
:107360003C48FAF783FE3CA0FAF780FE3B48002039
:10737000C0466846828B214639A0FAF777FE36A0D0
:10738000FAF774FE35480020C0466846808AFCF74C
:1073900015FE012853D10124002D05D06846818AAD
:1073A0000024284600F008FA6846C08A002832D037
:1073B00004A8FFF727FE3948374D0768002F07D08C
:1073C0006846838B018C0AAA04A8B847A84236D124
:1073D0006846C07C012832D900216846FBF728F9AD
:1073E000012109A8FBF724F968460078012803D099
:1073F00008A80079012822D16946C87C401EC874BB
:107400000196888B0881088C03281AD303A9FBF7FF
:107410009FF817E013E0022F11D16846807C012805
:107420000DD16846C07C002809D16846808B009049
:107430006846028C0AAB294604A800F0DBF911B0BB
:10744000F0BD888168468189234601AA04A800F01E
:1074500027F8F4E73CA901110D0A0000D8F2FF1F3C
:107460005B4E45542052785D6E65745F7064617444
:10747000615F6C656E203D203078253034582C20BB
:1074800074726E5F7064755F6C656E203D2030783D
:10749000253034580D0A0000182100000CF5FF1F9C
:1074A000FFB504006D48B3B0154606D0002D04D0DA
:1074B000A888102803D96948401E37B0F0BDA178CC
:1074C0000422E3788A40D7B2369A0293049201915B
:1074D0000390A06800902378E288A1886048FAF7BA
:1074E000C5FD60A0FAF7C2FD5F480020C0461EA996
:1074F0003498FBF797F906000CD002465BA034994C
:10750000FAF7B4FD57A0FAF7B1FD57480020C0467E
:107510003046D2E728A93498FBF7A2F92CA9349871
:10752000FBF744F920780FAEC10118A8007E400691
:10753000400E014308A80177A078C101E078400619
:10754000400E014308A84177217A10A801702089D4
:10755000010A08A8C177A068010C08A881772179E1
:1075600010A88170A088010A10A84170A17901714A
:10757000E088010A10A8C1703046AA88093029683D
:10758000FAF74AFDA888093085B208A8017F684645
:1075900001761FA8FBF7BCF816A80622711C013063
:1075A000FAF73AFD10A8A188828F0020914202D1FB
:1075B000E188002949D010A90876369901294AD0D6
:1075C0000026002018A9087010A9C87701461DA838
:1075D000FBF746F81D9818A90871020ACA70020C38
:1075E0008A70000E487030AA4139002002AB87C370
:1075F000E91F89B2009101902B330D2216A92CA806
:10760000FAF7D0FD06A840193A4630A9FAF704FD6A
:1076100024AA06A91D98FFF721FD20AB24AA28A9BA
:107620000FA8FFF769FE002006A920AA125C0B181C
:10763000401CC0B25A700628F7D3E81983B2E1881B
:1076400006AA304600F04AFA37E7032210A90A7664
:1076500048760226B5E70126B3E7000013210000B3
:10766000A0A901110D0A0000D8F2FF1F5B4E45547E
:107670002054785D20496E76616C69642053756290
:107680006E65742048616E646C653A3078253034DC
:10769000582E2052657475726E696E67205374613E
:1076A000747573203078253034580A0030B500786E
:1076B0000E21484310490F4C41180B46203BD87F00
:1076C000002814D0002A13D0002045004D19403D59
:1076D0006D8E954202D0401C0528F6D3997F002973
:1076E00002D0052802D303E0052801D3204630BD8F
:1076F000002030BDFFFF00004460002030B403785C
:107700000E2253430F4A00219B18403B9987037870
:107710000E2463439B18203B997703780E256B4317
:107720009A18FF24203AD477074A9468002C06D090
:1077300011700023A44630BC1A460121604730BCBA
:10774000704700004460002024F5FF1F13B5694610
:107750000A7901780E235943074BC9182039CA7793
:1077600006498C68002C05D001220A70134601AA34
:107770000021A0471CBD00004460002024F5FF1F2D
:1077800070B50E210A48FAF765FC094D0024284619
:107790000A21FAF75FFCFF20064968734870887079
:1077A000CC70CC600C718C600C70204670BD0000F9
:1077B0004460002024F5FF1F18B5002214460092F3
:1077C00002780E235A430A4BD2181346203BDB7F24
:1077D000012B0BD1403A928F002A07D16A46517093
:1077E000090A11700223012100F07AF8204618BD21
:1077F0004460002070B50D46187804991C46164662
:10780000002810D0491E012816D0022818D00328BD
:1078100008D111488668002E04D00323621C02217F
:107820002846B04770BD0229FCD859780129F9D8FB
:10783000284600F0C9F809E08BB2621C012102E081
:107840008BB2621C0221284600F04AF831462846D5
:1078500000F020F870BD000024F5FF1FF0B585B0E2
:10786000074600246846C48015460E4601A8FAF76C
:107870004FFF6846C4700121817002A8FCF746FBE7
:10788000684644700396058203AA3946FCF7ACFBB0
:1078900005B0F0BD38B50C4603216B461970017870
:1078A0000E2251430D4A89182039897F5970017879
:1078B0000E23594389184039898F6B46D970007857
:1078C0000E21484380184038808F0422000A9870A7
:1078D00069462046FFF7C2FF38BD00004460002023
:1078E000F0B584460020364D022B01D3DC0700D0D2
:1078F00028465C08012903D0022932D02846F0BD71
:1079000000232BE05D00515DAD186E7865462D7843
:107910000E2709027D430E432A4F0021ED194F0027
:10792000EF19403F7F8EB74202D0491C0529F6D39C
:10793000052912D129464039898F224F05290CD0BB
:107940004900691840394E86614609780E25694319
:10795000C91940398D8F6D1C8D875B1CA342D1D313
:10796000F0BD002328E05D00515DAD186E786546DE
:107970002D780E2709027D430E43124F0021ED1989
:107980004F00EF19403F7F8EB74211D1490069186F
:10799000002640394E86614609780A4F0E25694314
:1079A000CD19403DA98F002905D0491EA98702E0C5
:1079B000491C0529E4D35B1CA342D4D3F0BD0000CD
:1079C000FFFF00004460002070B504460E460078BA
:1079D0000E214843094D0A2140190E38FAF73AFBA7
:1079E00020780E22504340190021403881872078AA
:1079F0005043401920388677084670BD4460002007
:107A000038B519480C214088484318494418A388C0
:107A1000002B1DD06189207A226800F0B1F90100A5
:107A200008D013A0FAF722FB1EA0FAF71FFB1E488E
:107A30000020C046A0791D4A401EA07100200346C8
:107A400000901B490848FAF771FB0446204638BDF0
:107A5000184C19A0FAF70AFB12A0FAF707FB124814
:107A60000020C046F2E700001CF5FF1FDC5E00208E
:107A70005B4E45542054785D204661696C656420F6
:107A8000746F2073656E64205478207061636B6539
:107A9000742E20526573756C743A2030782530341A
:107AA000580D0A000D0A0000D8F2FF1FC57B011116
:107AB00032000080152100005B6E65745F7472698E
:107AC000676765725F74785D3A20547820517565F8
:107AD000756520456D7074790D0A0000FFB581B0A1
