:020000041FFFDC
:1008000000000000F985FF1F3C9AFF1F609AFF1F40
:10081000849FFF1F00000000000000000000000097
:1008200000000000000000000000000000000000C8
:1008300000000000000000000000000000000000B8
:1008400000000000000000000000000000000000A8
:100850000000000000000000000000000000000098
:100860000000000000000000000000000000000088
:100870000000000000000000000000000000000078
:100880000000000000000000000000000000000068
:100890000000000000000000000000000000000058
:1008A0000000000000000000000000000000000048
:1008B0000000000000000000000000000000000038
:1008C0000000000000000000000000000000000028
:1008D0000000000000000000000000000000000018
:1008E0000000000000000000000000000000000008
:1008F00000000000000000000000000000000000F8
:1009000000000000000000000000000000000000E7
:1009100000000000000000000000000000000000D7
:1009200000000000000000000000000000000000C7
:1009300000000000000000000000000000000000B7
:1009400000000000000000000000000000000000A7
:100950000000000000000000000000000000000097
:100960000000000000000000000000000000000087
:100970000000000000000000000000000000000077
:100980000000000000000000000000000000000067
:10099000F57EFF1F897FFF1FB195FF1F000000003C
:1009A0000000000000000000000000000000000047
:1009B0000000000000000000000000000000000037
:1009C0000000000000000000000000000000000027
:1009D0000000000000000000000000000000000017
:1009E0000000000000000000000000000000000007
:1009F00000000000000000000000000000000000F7
:100A000000000000000000000000000000000000E6
:100A100000000000000000000000000000000000D6
:100A200000000000000000000000000000000000C6
:100A300000000000000000000000000000000000B6
:100A400000000000000000000000000000000000A6
:100A50000000000000000000000000000000000096
:100A60000000000000000000000000000000000086
:100A70000000000000000000000000000000000076
:100A80000000000000000000000000000000000066
:100A90000000000000000000000000000000000056
:100AA0000000000000000000000000000000000046
:100AB0000000000000000000000000000000000036
:100AC0000000000000000000000000000000000026
:100AD0000000000000000000000000000000000016
:100AE0000000000000000000000000000000000006
:100AF00000000000000000000000000000000000F6
:100B000000000000000000000000000000000000E5
:100B100000000000000000000000000000000000D5
:100B200000000000000000000000000000000000C5
:100B300000000000000000000000000000000000B5
:100B400000000000000000000000000000000000A5
:100B50000000000000000000000000000000000095
:100B60000000000000000000000000000000000085
:100B7000F181FF1F000000000000000000000000E5
:100B80000000000000000000000000000000000065
:100B90000000000000000000000000000000000055
:100BA0000000000000000000000000000D7CFF1F9E
:100BB0000000000000000000000000000000000035
:100BC000F57BFF1F00000000000000000000000097
:100BD0000000000000000000000000000000000015
:100BE0000000000000000000000000000000000005
:100BF00000000000000000000000000000000000F5
:0C0C000001FF01FF01FF01FF41000000A7
:020000041FFFDC
:1048000098C4FF1FD548FF1FDD48FF1FDF48FF1F6B
:104810000000000000000000000000000000000098
:10482000000000000000000000000000E148FF1F41
:104830000000000000000000E348FF1FE548FF1FE4
:10484000E748FF1FE748FF1FE748FF1FE748FF1F34
:10485000E748FF1FE748FF1FE748FF1FE748FF1F24
:10486000E748FF1FE748FF1FE748FF1FE748FF1F14
:10487000E748FF1FE748FF1FE748FF1FE748FF1F04
:10488000E748FF1FE748FF1FE748FF1FE748FF1FF4
:104890000000000000000000000000000000000018
:1048A0000000000000000000000000000000000008
:1048B000E748FF1F00000000E748FF1FE748FF1F11
:1048C0000348854600F054F800480047A585FF1FBF
:1048D00098C4FF1F0448804704480047FEE7FEE7EE
:1048E000FEE7FEE7FEE7FEE70564FF1FC148FF1F86
:1048F00003460B439B0703D009E008C9121F08C0F9
:10490000042AFAD203E00B780370401C491C521EA3
:10491000F9D27047D2B201E00270401C491EFBD2AE
:1049200070470022F6E710B513460A4604461946BA
:10493000FFF7F0FF204610BD30B5044600200346C7
:1049400000E05B1C934203D2E05CCD5C401BF8D0DE
:1049500030BD30B505460020034600E05B1C9342A5
:1049600005D2EC5CC85C201A01D1002CF6D130BD18
:10497000064C0125064E05E0E36807CC2B430C3CB2
:1049800098471034B442F7D3FFF79EFFA49BFF1F54
:10499000F49BFF1F70B58C180578401C6B075B0FEC
:1049A00001D10378401C2A1106D10278401C03E093
:1049B00006780E70401C491C5B1EF9D12B0705D4EC
:1049C0000023521E0DD40B70491CFAE70378401CDB
:1049D000CB1A921C03E01D780D70491C5B1C521E03
:1049E000F9D5A142D8D3002070BD000003B401481E
:1049F000019001BDC13C010003B40148019001BD1B
:104A0000ED3C010003B40148019001BD1910000004
:104A100003B40148019001BDC93A010003B4014843
:104A2000019001BD5518000003B40148019001BD7B
:104A30008117000003B40148019001BD3518000042
:104A400003B40148019001BDA53C010003B4014835
:104A5000019001BD3917000003B40148019001BD68
:104A60007181000003B40148019001BD2D150000C3
:104A700003B40148019001BD6941010003B401483C
:104A8000019001BD3914000003B40148019001BD3B
:104A90001117000003B40148019001BDF13E01006F
:104AA00003B40148019001BD1B3D010003B401485E
:104AB000019001BD7114000003B40148019001BDD3
:104AC000C131000003B40148019001BDB1420100B1
:104AD00003B40148019001BDD542010003B401486F
:104AE000019001BDC912000003B40148019001BD4D
:104AF0003D42010003B40148019001BD5D19000071
:104B000003B40148019001BD593A010003B40148C2
:104B1000019001BDC118000003B40148019001BD1E
:104B20003515000003B40148019001BD4117000094
:104B300003B40148019001BDE915000003B4014828
:104B4000019001BD897B000003B40148019001BDC3
:104B5000D520000003B40148019001BDA5E5000087
:104B600003B40148019001BD3D1C000003B401489D
:104B7000019001BD0D1D000003B40148019001BD6D
:104B80008306000003B40148019001BD0143010008
:104B900003B40148019001BDE120000003B40148C5
:104BA000019001BDED3A010003B40148019001BD3F
:104BB000F53C010003B40148019001BD5D3F0100D7
:104BC00003B40148019001BDDD21000003B4014898
:104BD000019001BD6902000003B40148019001BDCC
:104BE0004103000003B40148019001BDC138010038
:104BF00003B40148019001BD5590000003B4014881
:104C0000019001BD7D3A010003B40148019001BD4E
:104C1000913F010003B40148019001BDA942010088
:104C200003B40148019001BD113A010003B40148E9
:104C3000019001BD4D2A000003B40148019001BD5F
:104C4000292A000003B40148019001BDD1360000BB
:104C500003B40148019001BD01E6000003B401481E
:104C6000019001BDBD07000003B40148019001BDE2
:104C7000891C000003B40148019001BDE907000050
:104C800003B40148019001BD6D07000003B4014861
:104C9000019001BDFD0E000003B40148019001BD6B
:104CA0002D0E000003B40148019001BD3D07000036
:104CB00003B40148019001BD211A000003B401486A
:104CC000019001BD050E000003B40148019001BD33
:104CD0008922000003B40148019001BD610E00006B
:104CE00003B40148019001BD9D0E000003B40148CA
:104CF000019001BDD50E000003B40148019001BD33
:104D0000610F000003B40148019001BDE997000064
:104D100003B40148019001BD3D98000003B401486F
:104D2000019001BDE58D000003B40148019001BD73
:104D30004977010003B40148019001BD8D3C010099
:104D400003B40148019001BDE55B000003B40148D4
:104D5000019001BDE129000003B40148019001BDAB
:104D60009937000003B40148019001BD51140000BF
:104D700003B40148019001BD091F000003B40148BC
:104D8000019001BDA579000003B40148019001BD67
:104D90005DBF000003B40148019001BDD9CE000001
:104DA00003B40148019001BD41D0000003B40148A3
:104DB000019001BDA522010003B40148019001BD8D
:104DC000E11B010003B40148019001BD351B010046
:104DD00003B40148019001BDE922010003B4014878
:104DE000019001BDD5CF000003B40148019001BD81
:104DF0009502000003B40148019001BD8D2101001E
:104E000003B40148019001BD4920010003B40148E9
:104E1000019001BD6120010003B40148019001BD72
:104E20007921010003B40148019001BD6521010011
:104E300003B40148019001BD0379010003B40148A6
:104E4000019001BD9124010010B5002413460028F3
:104E500002D00224204610BD0A4619460148FFF739
:104E6000C5FDF7E7FF9BFF1FFFB599B0002607962A
:104E700007AA089600F0A6F805460A287CD2044640
:104E80000620444320462030C0B26A460E2103F07B
:104E9000E7FB002802D168468089C6B21B984149C9
:104EA000099009781C98022913D00021179108282D
:104EB00011D020462130C7B21C2200216846FFF7DE
:104EC0009BFD6A461C21384603F0CAFB002805D02A
:104ED00010E00121EAE720462230ECE76846807EB8
:104EE000C01F092806D8F107C90F6A46179B099801
:104EF000FFF788FD142200210BA8FFF77DFD204657
:104F00002430C0B20BAA102103F0AAFB002812D152
:104F10001022FF210BA8FFF77BFD00280BD12534C1
:104F2000E0B20FAA042103F09BFBF107C90F0BAA03
:104F30001B98FFF773FD7035E8B210AA102103F03B
:104F40008FFB002811D110A801F067FE002410ADDE
:104F5000A00040190188002903D082781B9800F036
:104F6000DFFD641CE4B2042CF2D3B00704D50D4875
:104F7000017B1B9800F0C2FD1C9804280FD1094941
:104F8000087802280BD10A791B98002A00D0012248
:104F90004978002900D004211143FFF745FD002086
:104FA0001DB0F0BD409DFF1F10B5054CA061217BD9
:104FB0002620FFF73FFD207B00F050FD10BD0000D4
:104FC000409DFF1FF0B50A2485B016460F46002805
:104FD00007D0012805D00A25022810D0032847D180
:104FE0001FE0084601F0E6FD04460A2840D2002EE4
:104FF0003ED0062239463046FFF7F8FC38E01E4F17
:10500000002400910E206043C0190622801D0099E3
:10501000FFF716FD002823D1641CE4B20A2CF1D35B
:105020001CE000242046062148432330C0B26A46D3
:10503000102103F015FB00280CD11022FF21684637
:10504000FFF7E6FC002805D139466846FFF7FEFC6D
:10505000002805D0641CE4B20A2CE3D32C4607E0F8
:105060000A2C05D2002E03D03146204601F0BAFDAD
:10507000204605B0F0BD0000C0B9FF1FFEB51546C3
:1050800001229202821A00240127524E1300FFF7D8
:10509000E3FC110A11161D242B333A3F4772798124
:1050A00089979752970001297ED1287802287BD8CA
:1050B00030708DE0022977D12888F08188E00129BD
:1050C00072D1287801286FD8707081E001296BD1E6
:1050D0002878042868D8B0707AE0012964D128784B
:1050E000012861D8F07073E010295DD110222946A3
:1050F0003948FFF77BFC6BE0012955D1287801285E
:1051000052D8307164E001294ED12878F0715FE007
:10511000042949D131492868884245D8706157E04F
:10512000002941D1FFF79EFC002801D0B7724FE063
:1051300001F0C2FC19E0072936D10622691C684635
:10514000FFF796FC287800226946FFF73BFF0546EB
:105150000A280ED2FFF786FC002803D01E489C3098
:10516000475535E0284601F0B3FC502003F076FAAD
:1051700023E002242CE0012916D12878012813D835
:10518000707125E001290FD1287809280CD8B07159
:105190001EE009E0012907D12878C11F092903D899
:1051A000307215E0012901D0182411E0717A2878B5
:1051B000707200290CD101280AD101F03DFD07E0F1
:1051C0002728D6D20229D4D12988FFF733FC0446F8
:1051D0002046FEBD409DFF1FB0B9FF1F3F420F009C
:1051E00070B50C460146032000020A1A0025344817
:1051F0001300FFF731FC1D1012151C1F2326282C4D
:10520000303234383A3C3E40424446484A4E50528E
:105210005A5456585A00C07911E01022294902E028
:105220002849102210312046FFF7E0FB45E0C06A14
:10523000206042E0224906223C31F4E700782070E9
:105240003BE0808936E01E4942784231EBE71D4958
:1052500082781F39E7E7007AF1E7407AEFE71849EB
:1052600006223031DFE7807AE9E7C07AE7E7C089D4
:1052700020E0808A1EE0C0781CE0C08A1AE0008B23
:1052800018E0408B16E0808B14E00D490622363181
:10529000C9E7C08B0EE0008C0CE0408C0AE08079FE
:1052A000CDE7008A06E0408A04E0272904D20846B8
:1052B000FFF7E4FB208000E00225284670BD0000D7
:1052C000E89DFF1F8BBAFF1F70B50E4C0025607163
:1052D000A571691EE181FFF7D7FB0420E071102260
:1052E00000210948FFF788FB0748102200211030F1
:1052F000FFF782FBE562257265720120A072E572FC
:1053000070BD0000E89DFF1F8BBAFF1FFEB53B4D2F
:105310000C4608040CD56879FFF7BCFB050004D0E7
:1053200001F0DCFD2846FFF7BBFB0120C00360E075
:10533000600403D5012080034840FEBD2F48E107EB
:105340000126807900292AD02978002920D0052833
:1053500021D0297A68460170697A4170274906226E
:105360003031801CFFF742FBA97A68460172E97A66
:10537000417269466879FFF799FB002808D0072039
:10538000A871696A002903D00968002900D08847FC
:1053900020467040FEBD032069460870E4E7A1077F
:1053A0000DD5052809D1E889FFF786FBAA8A002ACE
:1053B00003D002216879FFF785FB022019E060071E
:1053C00004D5002001F0CAFD042012E0200712D508
:1053D0002879012802D002280AD107E00096AB8B79
:1053E0006A8B298BE88A00F00BF801E000F05AF98B
:1053F00008206040FEBD0020FEBD0000E89DFF1FAC
:10540000F8B5134C069EA579052D01D01420F8BDE2
:10541000104F851FBD4219D2062917D3BD1DA942C1
:1054200014D2FF27F537BA4210D20A2B0ED3AB4263
:105430000CD2E08221836283A383304601F08EFD8B
:1054400004216079FFF744FB0020F8BD1820F8BD67
:10545000E89DFF1F7A0C0000F7B50D4680490098C3
:10546000164642187F4F00247879B9791300FFF768
:10547000F3FA190E141BE92040455970777E888F86
:10548000E996A2A9B4BFC8E9E9E9E9D3E900102D7A
:1054900076D11022314674486FE0102D70D17248D9
:1054A00010223146103068E0042D69D13068F8626E
:1054B000CEE0012D64D13B7832783A70002B0AD0CF
:1054C000002A07D1022903D0062901D0042901D1DD
:1054D000FFF704FBBCE0002A0AD0012905D003290C
:1054E00003D0052901D0042902D10121FFF7FCFADC
:1054F000AEE0022D44D13088B881A9E01F2D3FD8FD
:1055000058481F2200214230FFF776FA55482A46B4
:1055100031464230FFF76AFA524B7D7042332A46D9
:10552000012112E01F2D7CD84F481F2200211F3877
:10553000FFF762FA4C482A4631461F38FFF756FA01
:10554000494B2A461F3BBD7000217879FFF7D2FAFC
:1055500083E0012D65D13078042862D8387277E075
:10556000012D5ED1307803285BD8787270E0062D6B
:1055700057D13C48062231463030FFF737FA67E012
:105580004FE0012D4DD1307807284AD8B8725FE03E
:10559000012D46D13078032843D8F87258E0022D07
:1055A0003FD13288BA82002A52D0052950D1022137
:1055B000FFF788FA4CE0012D33D13078012830D83C
:1055C000F87045E03088022D2BD1062829D3192107
:1055D000C901884225D8F8823AE03088022D20D1CE
:1055E00006281ED31921C90188421AD838832FE012
:1055F0003088022D15D1FF21F531884211D27883F0
:1056000026E03088022D0CD10A280AD31921C901BD
:10561000884206D8B8831BE03178012D01D10129D9
:1056200001D0182414E00821FFF76AFA002801D0FD
:1056300016240DE0002001F091FC04217879FFF799
:1056400047FA05E00098272801D2022D02D0022453
:105650002046FEBD3188FFF7EDF90446F8E700006B
:10566000FFFCFFFFE89DFF1F8BBAFF1F1CB50B4C13
:10567000A179002901D011201CBD002800D0606252
:10568000064907482C31034601910090103B002247
:10569000E179607900F016F800201CBDE89DFF1F3D
:1056A0009BBAFF1F10B506488179052901D0122049
:1056B00010BDC18913224079FFF728FA10BD000000
:1056C000E89DFF1FF8B51D460224069F079E0B00AC
:1056D000FFF7C2F90511041111041100FFF71CFABC
:1056E000040008D1324639462846FFF71BFAFFF777
:1056F0001FFAFFF723FA2046F8BD0000014610B557
:105700000020C90704D0034A0421034800F0ACF983
:1057100010BD0000309AFF1F689EFF1F70B50F4D2F
:105720000F4CA87029461431204600F01DF80021C6
:1057300028460B460C30CA0084521218491C090630
:105740005360090EF7D0012002F034F8A878FFF773
:10575000FBF90448FFF7FEF970BD00004C9EFF1FE7
:10576000FFFF00002970FF1F70B50A4C0025A04202
:1057700009D1002082008C525218401CC0B2957092
:105780000228F7D370BD01F01EFC0028FAD0048077
:10579000857070BDFFFF0000F8B50E4607460699FC
:1057A00000240798002902D00B242046F8BD022BC4
:1057B00001D00D24F9E711785278120289188DB2C0
:1057C0002946814301D08024EFE73846F16800F094
:1057D0003DF9A842E9D02A463846F16800F0CCF9F4
:1057E0000400E2D171892A46384600F06BF9DCE703
:1057F00070B50C46080412D50A488078FFF74AF9BC
:10580000050008D02878B02802D1284601F0F6FC1F
:105810002846FFF745F90120C003604070BD002015
:1058200070BD00004C9EFF1FFFB587B0087A0025B1
:10583000109E1C460F46C0060DD5099801F0BCFB12
:10584000030006D00A22394607989847050035D14B
:1058500001E00E2532E0387802281DD1786829222F
:105860000178407812020002081880B2811A904232
:105870007ED009DC7249401A23D0012821D00228A9
:1058800051D0032808D125E0012972D0022971D016
:1058900003296DD004296ED0099801F0B5FB0028CA
:1058A000D7D00568002DD4D012991198019100909D
:1058B0003346224639460798A847054628460BB086
:1058C000F0BD1198002873D1F86801783170027822
:1058D000416897E0119800286AD101203070F8687B
:1058E0000021007820707889401C80B2FFF738F9D9
:1058F00000280FD0317802788918891C3170817A9C
:1059000061704189090AA17002784168E01CFFF7C3
:105910006DF8D3E730780422001D30700021601C40
:10592000FFF76AF8CAE71198002872D1F86804A94D
:105930000088009004203070009820700098000AC1
:1059400060700098FFF70CF9070028D0F868059000
:105950006846028A03AB3B493846FFF707F900283F
:105960000FD13B78022138487A68FFF705F903E048
:1059700027E031E01DE049E0002802D131486946C6
:1059800088810598007802280CD105980222416888
:10599000201DFFF72BF83078801C307002E069463C
:1059A0000098888168468089A070000AE07085E7C9
:1059B0002FE0119800282CD1F968079800F046F8DC
:1059C00004E01198002824D1F86800880221317081
:1059D0002070000A607071E7F868FFF7D3F811993A
:1059E000C0B2814210D8814201D1002206E0129A51
:1059F0008918814202D31199401AC2B23270F968F3
:105A000011980918204682E7072557E711980028C2
:105A100001D00B2552E70721F86831700178217019
:105A2000417861708178A1704188090AE17001793B
:105A3000217181796171C088000AA0713EE7000080
:105A400000280000FFFF00001E7C010010B501F0DF
:105A5000BAFA002800D0807810BD00000149087013
:105A6000704700004C9EFF1F7CB51446050019D0FE
:105A7000684601950180FFF78BF803001DD1002CCB
:105A80001BD06D89002D0DD00C20FFF787F8002862
:105A90000AD0002303608580094A84605168002988
:105AA00004D006E0022308E0132306E0506004E07F
:105AB00011460A68002AFBD1086018467CBD000028
:105AC0004C9EFF1FF8B50C4C0746207815460E4635
:105AD000FF280FD00A20FFF767F801000AD0B12095
:105AE00008700020487008714F80CE800D812078AA
:105AF000FFF760F8F8BD00004C9EFF1F70B50C4624
:105B000005460649FFF7A2FF800704D5214628462F
:105B1000FFF756F870BD012070BD0000609EFF1FAA
:105B20001CB56B461A71120A5A71002200920223A8
:105B300001AA00F001F81CBDFFB583B008461E465F
:105B400001A90C9FFFF70CF8050012D06846808869
:105B500001F05AFA00280AD04468002C07D00097B8
:105B6000F3B22946059A0398A04707B0F0BD0E206E
:105B7000FBE70120F9E7000070B514460E46054624
:105B800001F021FA002806D13146054801F01BFA40
:105B9000002803D005808470002070BD112070BDE6
:105BA000FFFF0000014610B50020C90704D0034ADA
:105BB00007210348FFF758FF10BD00001C9AFF1F84
:105BC000749DFF1F70B50D46164600241D49030045
:105BD000FEF742FF08051234341934222934152DFA
:105BE00023D8162200211848FEF706FF2A46314620
:105BF0001548FEF7FBFE22E0022D16D11149108850
:105C0000103908801BE0082D0FD10E4808223146BC
:105C10000838FEF76DFE12E0012D06D1CA69094968
:105C20003078283107E0012D01D0182407E0CA6B35
:105C300004493078483101F072FE00E00224204629
:105C400070BD0000749DFF1F56BAFF1F002805DBC2
:105C5000C106C90E01208840014908607047000054
:105C600000E100E08307FF22DB0E9A408907090E5E
:105C70009940002808DB830809489B001B18186816
:105C800090430843186070470007000F08388308E6
:105C900004489B001B18D86990430843D86170479B
:105CA00000E400E000ED00E08307FF22DB0E9A40F5
:105CB0008907090E9940002808DB830809489B00E2
:105CC0001B18186890430843186070470007000FBE
:105CD0000838830804489B001B18D8699043084380
:105CE000D861704700E400E000ED00E0F8B504463C
:105CF000002003460A5C8507ED0EAA401343401CB2
:105D00000428F7DB00F0F0FB0028FBD100F076FE62
:105D100021022004090E0843FF273F022146394093
:105D2000084372B600211A4DA960194E0002803E48
:105D3000801C3060336062B600F0D6FB0028FBD1D7
:105D400000F0B6FC11200006201869462A695207A7
:105D5000FCD572B60422AA6004020204240E224377
:105D6000384002431002C01C306062B62869400708
:105D7000FCD530780870307848703078887030788A
:105D8000C8700098984201D00020F8BD0120F8BDED
:105D9000800008113EB5214C0320A11C00F0A4FC9A
:105DA00001A9052000F0A0FC02A9062000F09CFC3F
:105DB0006846007A01A9085C214614394870607071
:105DC0000A20891C00F090FC15490B2000F08CFC87
:105DD0006946072000F088FC6846008800281CD02F
:105DE0000F498860C0000521FEF7F0FE4100401811
:105DF00081B2684601800620FEF71CFE68460188D5
:105E00000720FEF717FE684601880820FEF712FEFD
:105E1000684601880920FEF70DFE3EBDA8BDFF1FA4
:105E2000AC9EFF1F10B5082803D100F051F900F017
:105E30000DF910BDF3B583B00398FEF7CDFEC0B2E7
:105E4000324D00240090A700E859FEF7C5FEC6B207
:105E5000E85932460399FEF77CFD002803D0641C04
:105E6000E4B2042CEFD3042C09D0049804700398F6
:105E7000801903900098801BC7B200242BE00020FB
:105E800005B0F0BD03980025001901901F49A80036
:105E9000103100900858FEF79FFEC6B21B4A0098CA
:105EA0001032105832460199FEF753FD002804D0F5
:105EB0006D1CEDB20E2DE9D30BE00E2D09D2049826
:105EC0002246401C0399FEF713FD04980019457003
:105ED00003E0641CE4B2BC42D4D3BC420DD2381BF4
:105EE000821B03980019811904980019801CFEF781
:105EF000FFFCB81B801CC0B2C2E704983A46401CA5
:105F00000399FEF7F5FC7F1CF8B2B9E7249FFF1F49
:105F100070B54B4E88B0307106211F20FEF78AFD08
:105F2000002468460470072101710481012505736E
:105F3000502101821921490181827D210483C900F8
:105F4000818300F0C5F86A4601213E48FFF784FAD4
:105F5000C32001AA01218000FFF77EFA394802AA76
:105F60000221401CFFF778FA324661205B321D2186
:105F7000C000FFF771FA312003AA01210001FFF7E9
:105F80006BFA304804AA02210C30FFF765FA2D485D
:105F900005AA02210D30FFF75FFA2A4806AA02215E
:105FA0000E30FFF759FAC52007AA02218000FFF73B
:105FB00053FA3246C03215210020FFF703FE68462F
:105FC0000094057105720473057481206A460421EA
:105FD000C000FFF753F8012101AA8802FFF74EF82D
:105FE000184802AA0121FD30FFF748F8154803AA16
:105FF0000121FE30FFF742F804AA01211248FFF701
:106000003DF8641E2046FFF7CDFD2046FFF776FBE6
:1060100000F05EFB00F01AF83046103000F002FC91
:1060200030461430FFF722FB30461C30FEF7BCFF31
:10603000052201213079FEF745FD08B070BD000052
:10604000AC9EFF1F050300000604000000B58DB0E4
:1060500001A917A0FFF7EEFE69460870014601AAE4
:10606000032000F0E9FB1222184906A8FEF740FCC5
:1060700006AA12210A2000F0DFFB00206946087002
:106080006A460121042000F0D7FB01206946087010
:1060900001466A46062000F0CFFB7D20C00069461D
:1060A00088850BAA0221072000F0C6FB0DB000BDB9
:1060B000687474703A2F2F7777772E706879706CC8
:1060C0007573696E632E636F6D2F000096BDFF1FA1
:1060D0001048002181700122C27002220271032245
:1060E0004271042282710523C371062303720723C0
:1060F0004372082383720923C372027351224273CD
:1061000040228273C173B022027441748174C174DD
:106110007047000094BDFF1F10B5104CE068401C94
:10612000E060A178012915D00A21FEF74FFD002972
:1061300007D0227800201021022A04D0002A0AD099
:1061400004E0202004E06278102A04D061706078B6
:1061500000F0EAF810BD6070F9E70000AC9EFF1F88
:10616000FEB5514D0C462B79080409D51846FEF7AB
:1061700091FC002801D0FEF793FC0120C0038EE0C3
:10618000E10700200126002932D069460871A027C6
:1061900001AA01214548FFF75FF939460620FEF7BD
:1061A00049FC39460720FEF745FC39460820FEF732
:1061B00041FC39460920FEF73DFC02A9052000F00C
:1061C00093FA394A394843321821801EFFF744F9BF
:1061D000694636480E706A460121001FFFF73CF9F8
:1061E000334A08212879FEF76DFC20467040FEBD39
:1061F000210732D5E97801292BD02E4A19211268BE
:10620000490111606946087003200871FFF7C2FD5B
:1062100026486A460121001FFFF71EF902A9072040
:1062200000F062FA6946087A00280BD001AA012121
:106230001E48FFF711F9687800F076F802212879F6
:10624000FEF752FC04212879AA68FEF73BFC0820DF
:1062500025E0194A08211846F7E7610714D5694671
:106260000870FFF759FF11486A460121001FFFF728
:10627000F3F802212879FEF737FC04212879AA686F
:10628000FEF720FC04200AE0A0070AD56846067045
:1062900006486A460121001FFFF7DEF80220604031
:1062A000FEBD0020FEBD0000AC9EFF1F09030000E4
:1062B0001027000074A1FF1FC0D401007FB5002487
:1062C000174D0300FEF7C8FB061D041D25251E1DE6
:1062D000C12002A98000FEF783FF6846017A0170A1
:1062E000417A4170817A81700471C470417BC171BF
:1062F000017B8171C17A41716A4608210020FEF755
:10630000A3FD7FBD69460748FEF76AFF0120E870DC
:106310007FBDE8780128FBD1EC70AC707FBD000038
:10632000AC9EFF1F15030000F8B5050003D0102D2B
:1063300001D0202D3BD11E4E0320F07130460B3092
:1063400014210746FEF7EDFA280004D0102808D0E3
:10635000202D1ED114E017490020087014240D468A
:1063600017E014491020143108706946092000F024
:10637000BBF9684600780F4D801CC4B2143508E0A4
:106380000C492020283108700E2400F017F8094D20
:106390002835224629463846FEF7AAFAF079044AFB
:1063A0000019F0710830C1B20348FFF755F8F8BD85
:1063B000D09EFF1F94BDFF1F0703000010B50F4CB8
:1063C0000320A070E820E07013202071802060710D
:1063D0000B48C068010EA171010CE171010A217224
:1063E0006072FEF7FFFB6421FEF7F0FB010EA17265
:1063F000010CE172010A2173607310BDBCBDFF1F67
:10640000AC9EFF1F024901480860704740787D013B
:1064100070A1FF1FF8B506460024FEF7E9FB05460C
:106420000648471B06E0FEF7E3FBA84201D3441BE6
:1064300000E03C18B442F6D3F8BD0000FFFFFF00B7
:1064400002E008C8121F08C1002AFAD1704770473D
:10645000002001E001C1121F002AFBD1704710B5D6
:10646000FEF7CCFB0120FEF7CFFBFEF7D3FB0020AD
:1064700010BDF0B500248E464A1E12E0714600237E
:106480000D1B6D1E0AE09E0031188C468759496825
:106490008F4202D9815161464F605B1C9D42F2D808
:1064A000641C9442EAD3F0BD10B50020054CFF21D6
:1064B0002218401C51704028FADB02F0BDF9207010
:1064C00010BD000050C0FF1F10B50020054CFF217B
:1064D0002218401C51700628FADB02F0CBF920701C
:1064E00010BD0000A8A1FF1F084801694907FCD59D
:1064F000012181600549052280390A70026952072D
:10650000FCD50878C007C00F704700008000081154
:10651000F0B58646080CFF268446002388B237462D
:106520001C46194601228A4005461540CD402C19CB
:10653000A4B2FF2F02D1012C00D18FB265462A40B0
:10654000CA40D21893B2FF2E02D1012B00D18EB2D5
:10655000491C1029E6DB012C02D0102C08D009E0E0
:10656000012B07D13001C019714608700220F0BD1F
:10657000102B01D00320F0BD0120F0BDF8B5496813
:1065800094460A784978069C090251188EB2444A0A
:10659000112100250798B71A091B964243D009DC40
:1065A000404AB21813D0012A1CD0022A25D0032A4F
:1065B00008D12EE0012F40D0022F48D0032F50D019
:1065C000292F5AD0002018700A252846F8BD082C1B
:1065D00055D20821091B814200D80846C2B21A7060
:1065E000314857E00C2C4AD20C21091B814200D8BB
:1065F0000846C2B21A702D484CE00D2C3FD20D2136
:10660000091B814200D80846C2B228481A700D30D2
:1066100040E0112C33D2814200D80846C2B2234850
:106620001A701B3036E0112C29D2814200D808465E
:10663000C2B21E481A702D302CE0112C1FD281429C
:1066400000D80846C2B219481A703F3022E0112C17
:1066500015D2814200D80846C2B214481A7051308F
:1066600018E00E2C0BD20E21091B814200D80846DF
:10667000C2B20E481A7063300CE0072C01D3072514
:10668000A3E70721091B814200D80846C2B2064889
:106690001A70C01F01196046FEF7A8F995E70000BF
:1066A000272A0000DDD5FFFFFF9BFF1F9499FF1FE6
:1066B000064801694907FCD500218160034A04218D
:1066C000803A117001694907FCD5704780000811B4
:1066D00010B5034A16210348FFF7C6F910BD0000A4
:1066E000E49AFF1F989FFF1F70B50C46C11E134808
:1066F0000025C2780B00FEF7AFF909061D0A111339
:106700001D08161A1D000E4904E0227013E00B4903
:1067100004220C312046FEF7EBF80CE0007807E08D
:106720008088208007E0064912221331F2E7807842
:10673000207000E00225284670BD0000889FFF1FE2
:10674000CABDFF1FF8B50C46097A002706981D46FA
:106750001646C90601D50820F8BD002801D00B2037
:10676000F8BD2078102804D0002018700127384682
:10677000F8BD102229496068FEF7DEF800282BD00A
:106780002649102240316068FEF7D6F8002823D051
:106790002249102220396068FEF7CEF8002821D067
:1067A0001E49102210396068FEF7C6F800281FD075
:1067B0001A49102210316068FEF7BEF800281CD07C
:1067C0001649102230316068FEF7B6F800281DD057
:1067D000002028700A27CAE701202870E0680078A6
:1067E0003070C4E70E48C1782970C278E16810E0C3
:1067F000042028700246E1680BE002202870084857
:10680000017931708088000A7070B0E712222A7016
:10681000E1683046FEF76CF8A9E70000949AFF1F84
:10682000889FFF1F002803D002498860002070471E
:1068300011207047889FFF1FF8B5C01E17460D46F0
:1068400000241C4E0300FEF707F90906320F161D3F
:106850003232222B3200122D24D80A4639461648ED
:10686000FEF746F8F57023E004291BD111480422F5
:1068700039460C3011E0012914D11078042811D2C6
:10688000307015E002290DD11088B08010E0122D73
:1068900008D109480A4639461330FEF729F807E0BF
:1068A000012901D0182403E01078B07000E0022420
:1068B0002046F8BD889FFF1FCABDFF1FF8B5087AA4
:1068C00000241E4617460D46800601D50820F8BD57
:1068D0002878022836D0102245496868FEF72CF83F
:1068E000002831D04249102210316868FEF724F8A0
:1068F000002831D03E49102220316868FEF71CF88C
:10690000002830D03A49102230316868FEF714F878
:10691000002832D03649102240316868FEF70CF862
:1069200000283ED03249102250316868FEF704F842
:10693000002848D02E49102260316868FDF7FCFF1E
:1069400000284BD00A243CE0122E3ED8294832467B
:10695000C670394628483EE0042E36D12548042228
:1069600039460C3037E0012E2FD13878032801D971
:10697000032426E01F49087023E0022E25D17978F0
:106980003878090240181B4D80B2A880C00005214C
:10699000FEF71CF980B2401E9F2812D26420A88006
:1069A0000FE0012E11D1397812480029417008D02A
:1069B00080680822002804D00168002901D0104610
:1069C00088472046F8BD122E01D00D24F9E70A4869
:1069D000324639461330FDF78BFFF2E7012EF4D132
:1069E0003878022801D98024EBE702498870E8E76B
:1069F000749AFF1F889FFF1FCABDFF1F06480169C9
:106A00004907FCD500218160034A0621803A1170B4
:106A100001694907FCD57047800008110346000250
:106A2000012100B5000A490388421BD3FFF75CFD32
:106A30000028FBD1FFF7E2FF0B4900208860190214
:106A40001804090E0843FF2109020B4018430649A8
:106A50000002803920300860FFF746FD0028FBD196
:106A6000FFF726FE00BD00008000081110B5054CA0
:106A7000E069002803D0FEF713F80020E0610A2047
:106A8000E07210BD409DFF1F70B50025094E2C46D9
:106A90000E20604380190622FF21FDF7B9FF002870
:106AA00001D16D1CEDB2641CE4B20A2CF0D328466F
:106AB00070BD0000C0B9FF1F10B50024204600F0D3
:106AC00007F8641CE4B20A2C01D20028F6D010BDED
:106AD000F0B5374C0546E07A8FB0854209D10121E7
:106AE000207BFEF79DF80221207BFEF799F8FFF747
:106AF000BDFF2C460620444326462036F0B207AAA6
:106B00000E2101F0ADFD002806D10622FF2107A8C5
:106B1000FDF77EFF002803D0002108460FB0F0BD2E
:106B20000E22FF2107A8FDF767FF1C22FF21684600
:106B3000FDF762FF1022FF210BA8FDF75DFFF0B209
:106B400007AA0E2101F0A3FD064620462130C0B25F
:106B50006A461C2101F09BFD304307462046223047
:106B6000C0B26A461C2101F092FD06462046233041
:106B70003E43C0B26A46102101F089FD064320461B
:106B80002430C0B26A46102101F081FD064325344D
:106B9000E0B26A46042101F07AFD304304467035C4
:106BA000E8B20BAA102101F072FD01462143B4E7BF
:106BB000409DFF1F70B50A4D064600240E2060431D
:106BC000401906223146FDF73BFF002801D0204640
:106BD00070BD641CE4B20A2CF0D30A2070BD000022
:106BE000C0B9FF1F7FB50C460A280CD2002C0AD072
:106BF000062148432030C0B26A460E2101F030FD24
:106C0000050003D007E0022004B070BD06226946EB
:106C10002046FDF7EBFE2846F6E700218A00835A5E
:106C2000491CDB43835212189378C9B2DB4393703B
:106C30000429F3D37047000070B5144E00240E20D1
:106C40006043821920460621484320301546C0B2D1
:106C50000E2101F005FD00280BD028460622FF2159
:106C6000FDF7CAFEA81D0622FF21FDF7C5FE002084
:106C7000A881641CE4B20A2CE1D30548407A0028BC
:106C800001D000F007F800F01FF870BDC0B9FF1F79
:106C9000409DFF1F70B5FDF7C9FF0A4E00240E206E
:106CA0006043801905460622FF21FDF7B1FE00284A
:106CB00002D12946FDF7C0FF641CE4B20A2CEED3D2
:106CC00070BD0000C0B9FF1F08B5FFF7DDFE012849
:106CD00001D9022000E00A20694608706A460121B5
:106CE0000520FEF76FFF08BDF8B57A4C877801469E
:106CF000002507266079A2793B00FDF7ADFE080567
:106D0000361A37375F9ACD36487800285CD17148FB
:106D100006223C30C91CFDF769FE0120A0716D4BB5
:106D20000146423362786079FDF7E4FE00284BD1DA
:106D3000A8E00F464978002946D1F978002906D005
:106D4000654BA2780021FDF7D5FE78700AE0022A93
:106D50000BD00121FDF7D4FE002803D10121607979
:106D6000FDF7C2FE787800282ED1F8BD49780029B9
:106D70002AD1032F09D0A289002A0CD0217800291A
:106D80000AD00121FDF79EFE06E0052A01D002206F
:106D900012E0062010E02570A079062802D0042811
:106DA00002D008E0052007E001202070014660794C
:106DB000FDF79AFE66E00320A07163E048780F4675
:106DC000002803D0312832D0A6715BE0414806226A
:106DD000391D3630FDF70AFE7889E081B8892082B6
:106DE000F88960820520A071A28A002A03D00221BE
:106DF0006079FDF767FEB889E083F8892084388AD6
:106E00006084E07801280AD11F20FDF737FE7D213C
:106E1000C9004843024604216079FDF753FE7A8990
:106E2000F8780423391DFEF71FF825702AE0257035
:106E3000C1E728480E46062200213630FDF7DCFD6A
:106E4000E5832584658404216079FDF741FE0821EE
:106E50006079FDF73DFEB079082808D00320A071C5
:106E60002078002805D06079FDF738FE07E004207F
:106E7000F5E70120207001466079FDF735FE00201E
:106E8000C043E081606A002800D16EE701680029F4
:106E9000FBD0A0798847F8BD0D460821FDF718FE04
:106EA000687829460028F6D1E888E083288920847C
:106EB0004889608404216079FDF722FE0028EAD128
:106EC000A06A0028E7D00368628C218CE08B984789
:106ED000F8BD0000E89DFF1F6CBAFF1F10B50178D8
:106EE0001C4C912906D0A2291BD0D02901D1FFF733
:106EF000FBFE10BD41780E29FBD18188164A9142D4
:106F0000F7D1816803200856A1790529F1D17F289E
:106F1000EFD0616A0029ECD049680029E9D08847A0
:106F200010BD41791329FBD10089012802D12079B4
:106F3000022808D00520FDF7A1FD0246082160794E
:106F4000FDF7C0FD10BD08216079FDF7C1FDFEF71A
:106F5000A9FB10BDE89DFF1F051400007CB5154C72
:106F60000546E08BE18A88420AD3218B884207D804
:106F7000208C618B884203D1608CA18B884217D012
:106F80000520FDF77BFD0646E18A68460180218BDE
:106F90004180618B8180A18BC18062796946E089E3
:106FA000FDF750FE2571324608216079FDF78AFD14
:106FB0007CBD0000E89DFF1F10B500F025F80028FB
:106FC00000D0806810BD00229300CB5A834202D1CA
:106FD000900040187047521CD2B2022AF4D300200D
:106FE00070470000074A0021CB00D35A834202D1E8
:106FF000C80080187047491C0906090EF4D000200B
:1070000070470000589EFF1F0649496805E08A88BE
:10701000824201D18868704709680029F7D10020B1
:10702000704700004C9EFF1FF8B50746012906D0A7
:10703000022924D10121FDF70BFE00281FD138467B
:10704000FFF7D0FF050015D000240D4E0CE0F8200E
:107050006968604308180188002908D0F8220021D7
:10706000FDF7CAFC641CE4B270788442EFD30020C0
:10707000C0432880024938461431FEF775FBF8BD3D
:107080004C9EFF1FF3B5064683B0083001900020E8
:1070900000907088FFF7A6FF07002FD0002523E09F
:1070A000F820796868430C182188002920D00198BD
:1070B000007801280FD16088009023797088621DC4
:1070C000FEF73AFD0090002805D0019900200870D5
:1070D000049821880180F82200212046FDF78CFCCD
:1070E00000206D1C2080EDB2074840788542D7D340
:1070F0000020C04338800098002802D17088FDF736
:10710000ADFD009805B0F0BD4C9EFF1FF3B50546E0
:10711000364C064685B00835162200212046FDF77C
:107120006BFC03A800902B79698828886A1DFDF7FD
:107130009BFD074644E02E482E4900780022C01FE0
:10714000C0B2009101920290284B69468A897088EA
:10715000F63B3946FEF768FB002812D12548E9794D
:10716000C01EC27891420CD120492846F639083019
:10717000FDF766FC002804D0217878898900091978
:10718000488068468289698804AB3846FDF7EEFC82
:1071900007462078810009194A88002A10D0002F5C
:1071A00005D06A46128A401C20708A800AE00206D6
:1071B0000021920DC9431219401C2070918006E0F5
:1071C000002F04D00C48217800888142B3D3207866
:1071D000002806D070882146FDF74CFD002007B03E
:1071E000F0BD0698298801800A20F8E79ABCFF1FA5
:1071F000EC10FF1F4F9EFF1FF410FF1FF0B585B06E
:10720000044600276846878120790E2867D00EDC67
:10721000082822D004DC022812D0062817D117E053
:10722000254608350A281DD00C287FD137E01028C4
:107230005AD012285DD0162860D0182876D162E086
:1072400041484049008808806088FDF719FD6DE0DD
:1072500003A92046FFF75AFF59E003A9204600F092
:1072600075F954E0288804A9FDF77AFC010014D0D0
:107270003648344E00780197401EC0B20096029006
:107280006A466088731C128AFEF7CEFA00281DD168
:1072900060883146FDF7FAFC48E0012016E02888B6
:1072A00004A9FDF75DFC0100F7D028486A88007842
:1072B000244E401EC0B20192009602906A46608839
:1072C000128A731CFEF7B0FA002803D029886A4698
:1072D00091811CE060883146FDF7DEFC26E003A9C1
:1072E000204600F0C7F912E003A9204600F082F81A
:1072F0000DE003A9204600F01FFA08E003A920468C
:1073000000F028F803E003A92046FFF7BBFE0028A1
:107310000CD06178142909D00A4922790A706A468A
:1073200092894A8008716088FDF7BCFC2046FDF711
:10733000BFFC07488168002901D02046884705B076
:10734000F0BD00009ABCFF1FEE10FF1FEC10FF1FE6
:107350004C9EFF1FF8B504460F46054608340089C9
:107360006946FDF7FDFB06003AD0307A80060ED55F
:1073700068460088FFF720FE030006D068881222C6
:1073800031469847060002D02BE00E2629E06E8891
:107390003046FFF727FE010005D11448FFF722FE13
:1073A00001000ED00E80124A0020527807E0F82625
:1073B0004B6846439B5B002B05D0401CC0B29042FB
:1073C000F5D309260DE04968F822504308182146F4
:1073D000FDF70CFB002668882146FDF76FFC02E0F4
:1073E0000126208838803046F8BD0000FFFF0000ED
:1073F0004C9EFF1FF3B58BB000200B9E07460390F9
:1074000004A800903246337B718930894C4C0D3290
:107410000836FDF729FC054678E00B98297A408864
:10742000FDF752FC070003D00C98698901806FE0DA
:107430004448002100780191801FC0B2424A029066
:1074400000920B983E4B69460A8A4088F63B2946D3
:10745000FEF7EAF90700E7D10398002834D03A484C
:107460006278C01EC178081D824254D10398411829
:1074700034480088801F81424DDC0398A97A201887
:10748000817003986989401CC0B22218090A401C07
:107490009170C0B203906846028A718807AB284693
:1074A000FDF764FB050015D06946888B03996118C8
:1074B000887003986946401C898BC0B2090A22185B
:1074C000401C9170C0B210E01F48C01EC078001D63
:1074D0006070D2E70399FF20611888700399491CF6
:1074E000C9B262189070491CC8B217490390C91EEE
:1074F000CA7813492018F639801CFDF777FA12492B
:107500000398C91EC9784018C0B20390002D84D1D9
:10751000039800280CD061780398FDF757FB207082
:107520000B9821464088FDF7D5FB00200DB0F0BD3B
:10753000002F00D10A270C99308808803846F5E7DB
:107540009ABCFF1FEC10FF1F4F9EFF1FF3B587B0C3
:10755000079F00243889434D26460837059064E08C
:1075600003A800903B7979887A1D0598FDF77CFB8C
:10757000049000284DD0408905900498017A07981E
:107580004088FDF7A1FB060054D137480021007860
:10759000364A001FC0B20191029000920798314B09
:1075A00069468A894088F63B0499FEF73DF9060052
:1075B00040D1002C30D02D486978C01EC078801C86
:1075C000814239D1294BDB1ED87821182648008802
:1075D000001F81421DDC04982919807A8870641C80
:1075E000E0B204992A184989401C090A9170194689
:1075F000CA78C4B21B492819F639801CFDF7F6F980
:107600001A481B49C01EC0782018C4B20598884289
:1076100008D1002C10D11EE01448C01EC078801C78
:107620006870CFE7401C80B205900F480088001FAB
:10763000844295DD002C0CD069782046FDF7C6FA0F
:107640002870079829464088FDF74AFB002009B0BA
:10765000F0BD002E00D10A26089805990180304619
:10766000F5E700009ABCFF1FEC10FF1F4F9EFF1FA5
:10767000FFFF0000F3B585B000272C4C059E277056
:107680003D46083641E06800305A03A9FDF768FA24
:10769000010017D02648274B00780093401EC0B247
:1076A0000022019202900598204B6A464088F63BE2
:1076B0009289FEF7B9F8070006D06800315A06989B
:1076C000018030E00127F8E71A482178C01EC07811
:1076D0000A1817480088431E9A4204DD401A1549CB
:1076E000C91E401EC8702178601C08181149C91EA7
:1076F000CA780E49F639FDF779F90E482178C01E8F
:10770000C07808186D1C2070EDB2B07DA84205D974
:10771000074821780088401E8142B4DB0598214645
:107720004088FDF7E3FA384607B0F0BD9ABCFF1F6A
:10773000EC10FF1F4F9EFF1FF3B5054683B00446B4
:107740000835008901A9FDF70BFA2746E8370646F8
:10775000002822D0307A80060ED568468088FFF750
:107760002BFC030006D060881222314698470600A1
:1077700002D013E00E2611E000200090AB7829889B
:107780006088EA1CFEF7D8F9060007D1387E002889
:1077900007D16088FDF7B0FA03E001260498298834
:1077A0000180387E002802D0002005B0F0BD3046B0
:1077B000FBE70000F8B504460246F82042431948AA
:1077C0000025074645700C377868002807D0002050
:1077D000C100C919401C00064D60000EF8D0124EC1
:1077E00000213046FDF708F9002001466143C9B287
:1077F000F82251438B190B49C2000C315218002159
:10780000536005E0F8274F435368491CDD53C9B264
:10781000A142F7D3401C0006000EE6D00148447098
:107820000020F8BD4C9EFF1FACBAFF1F7CB50C7842
:10783000069D022C0ED14C682678647824023419F7
:10784000054EA4B2F44205D1022400950194FDF73F
:10785000A3FF7CBD01207CBDFED6FFFFF8B50698D6
:1078600000271D4614460E46002801D00B20F8BD07
:1078700030780021022801D019704DE0706802783C
:10788000407800021018152280B25202801A0300BC
:10789000FDF7E2F80504121F1A254100F068FDF714
:1078A00071F9C2B20798824200D902462A70F16883
:1078B0002046FDF79BF830E0F0680221008829702F
:1078C0002070000A607028E0062028700246F168E7
:1078D000EEE701202870F068007820701DE0F06865
:1078E000002816D008212970017821700188090A22
:1078F00061708178A1704188090AE1700179217174
:107900008188090A61718179A171C088000AE071DA
:1079100003E0297001E0297001273846F8BD10B551
:107920000B78840702D50224234301E0FD24234081
:107930000B7003070B7802D50824234301E0F724DA
:1079400023400B7083060B7802D52024234301E0EB
:10795000DF2423400B700A21084201D1810603D5A0
:1079600010780C21084304E0002803D11078F3219B
:107970000840107010BD0000FFB581B008780024E9
:107980000A9E1F460D4602280FD16868017840788C
:1079900000020818152180B24902401A09D00128B6
:1079A00029D0022848D003283CD00124204605B025
:1079B000F0BDE868FDF7E6F8C0B2864205D8F019D8
:1079C0000090152803D90D24F0E70724EEE7E868B6
:1079D0003A4680190399FDF709F80098EA6880B2E1
:1079E000002111541C4840680028DFD0016800299C
:1079F000DCD0002012E0002E12D1022BE3D103993B
:107A0000E8680A78497809025118018012484068EC
:107A10000028CBD001680029C8D001208847C5E7DD
:107A20000B24C3E7002EFBD1062BCCD10622E8683D
:107A30000399FCF7DBFFB9E7002EF1D1012BC2D18E
:107A400003980078002803D0012801D08024ADE7F6
:107A5000E9680870AAE70000649DFF1F10B51228AE
:107A600001D3052010BD0C4B9C6B012282401046B7
:107A700020439863586B90435863DC6B002907D010
:107A800020469043D863186B02431A63002010BD50
:107A900010462043F6E7000000800040084A042812
:107AA00007D2012307E0184300E09843506100200B
:107AB000704701231238834050690029F5D0F2E75E
:107AC0000038004070B50F4D00242E197078022840
:107AD00007D9E0B200F042F9E2B20146104600F0E8
:107AE00059F9232C0ADA7078022807D9E0B200F09D
:107AF00035F90C216143491920314871641C232C4C
:107B0000E3DB70BDF0BDFF1F70B502211020FEF752
:107B1000CBF81020FEF79AF8114E00240C20604399
:107B2000801920300079002813D0E0B200F05AF913
:107B3000E5B2284600F012F900280ED000210C22F0
:107B40006A43921920325279824202D0284600F0CC
:107B50003FF8641C232CE1DB70BD0121EFE700003E
:107B6000F0BDFF1FF3B5194E002481B00746012573
:107B70002846A040384225D00299084201D1012070
:107B800000E000200090E0B2009900F021F80C2005
:107B9000604380194168806800290ED0002807D012
:107BA0000098002802D00021E0B203E00121FBE7A9
:107BB000E0B20021FFF752FF04E0002802D0E0B25B
:107BC0000121F7E7641C122CD2DBFEBD14BEFF1F9F
:107BD000074A0C2343439B185A68002A01D0002906
:107BE00004D09A68002A02D0012900D110477047BA
:107BF00014BEFF1F10B50448C16B034A4032106821
:107C0000D060FFF7AFFF10BD0080004010B50E48F8
:107C100080680007000F062807D007DC02280BD079
:107C2000042802D1012000F0E3FB10BD072806D094
:107C30000C28FAD10220F6E700F000FC10BD024843
:107C40004030C06B10BD000000400040C306DB0E9A
:107C500001229A40064B40098000C0180029C168E3
:107C600001D0114300E09143C16000207047000043
:107C70000038004010B5114C2078002801D00720B2
:107C800010BDFF21C9310D48FCF74BFE01202070CB
:107C90000B490020086348630A49086248620221D0
:107CA0001020FEF701F81020FDF7D0FF064A074923
:107CB0000D2000F001F9002010BD0000F0BDFF1FF5
:107CC0000080004080F00040097BFF1FC57AFF1F45
:107CD00030B50D460446042803D320461F38032838
:107CE00003D801212046FFF7D9FE00212046FFF7E7
:107CF000ADFF01230B4A122C08D2A3405068002D7F
:107D000001D0184300E09843506008E0123CA340C3
:107D10001069002D01D0184300E098431061002045
:107D200030BD00000080004070B50C460A21FCF711
:107D30004DFF4A00891801221346491C8B404D1CF7
:107D4000AA40134382000448121890688C4098435C
:107D500004439460002070BD00F000400C4A0C4BBE
:107D60000121403A122807D281405068084201D0D0
:107D7000106809E0186907E012388140106908426C
:107D800001D0D06800E05869084000D00120704759
:107D900040800040F8B50E4605460A21FCF716FF64
:107DA00048000918EA060124D20E204690406A09CC
:107DB00093000B4A9A18136A034313628C40084FCE
:107DC0002846803F0A21FCF701FF8000C019816826
:107DD000002E01D0214300E0A14381600020F8BDC6
:107DE00080F0004070B5044618480C226243151814
:107DF00069680126002902D1A968002906D0134923
:107E000024390919122C03D3032302E0122070BD78
:107E100004234B700121815400212046FFF758FFB5
:107E20006868002810D0A86800280CD02046FFF70A
:107E300095FF002801D0012100E000212046FFF736
:107E40000DFE002070BD00263146F7E714BEFF1F6F
:107E50000449420903D0002048600620704748606A
:107E60000020704768A1FF1F10B504481122436825
:107E70001521034801F05AFD002010BD68A1FF1F25
:107E80001CF0004010B578210948FCF74AFD09486C
:107E90000078012805D0022806D0032806D004283F
:107EA00004D1FCF72FFF01E0FCF732FF002010BDEA
:107EB000B8BFFF1F68A1FF1F30B50D4C00230C2574
:107EC0005D43655D854201D1072030BD002D04D0A2
:107ED0005B1C0A2BF3DB032030BD0C256B431B1905
:107EE000F9D000245C7018709A602046596030BD4B
:107EF000B8BFFF1F70B5FFF7B7FF0A4D002420463B
:107F00000C214843295C002909D040194068002809
:107F100000D08047641C0A2CF1DB002070BD1220C9
:107F200070BD0000B8BFFF1F70B515490023097868
:107F300001290FD004290DD072B60021114A0D4637
:107F40000C244C43165D002E0FD0864205D1A41898
:107F5000657007E0FCF7D6FE0CE0A4186478002CEE
:107F600000D05B1C491C0A29EADB002B04D0FCF77B
:107F7000C9FE62B6002070BDFCF7CAFEF9E700003A
:107F800068A1FF1FB8BFFF1F70B50A4D002420462F
:107F90000C214843295C002909D040198068002839
:107FA00000D08047641C0A2CF1DB002070BD122039
:107FB00070BD0000B8BFFF1F10B516490A20087039
:107FC00015490120087015490020087000F030F8AC
:107FD00013480421C16113498160C16001611249E4
:107FE000416101210A20FFF79FFE0D480D230F225A
:107FF0001221143001F09AFC00210420FDF732FE1A
:1080000001210220FDF72EFE084A00212020FFF763
:1080100053FF10BDE112FF1FE212FF1F0013FF1FED
:1080200000F00040B66DDB36B6EDC3B0B598FF1F6B
:1080300070B51548002200680424866B102513488B
:1080400013493300FCF708FD070808050C0E130858
:10805000050005600C600DE020220260052004E0B0
:10806000302305E0402202600620086002E0602321
:1080700003600A60FCF752FEFCF756FE01F098FA26
:1080800000F022FC70BD000074A1FF1F2010FF1F34
:108090002410FF1FF8B51F4D1E4F08351E4C11262A
:1080A000012820D000281DD100211020FFF73CFE20
:1080B00000211120FFF738FE03230822092128465A
:1080C00001F034FC062200231146284601F02EFC64
:1080D00016231B221F21384601F028FC2068C16AA4
:1080E000B143C162F8BD05231B221F21384601F0B0
:1080F0001DFC0A4B07221021284601F017FC06221E
:1081000001231146284601F011FC2068C16A314361
:10811000E7E7000014F0004074A1FF1FFB0300001C
:10812000F8B5FF222D322A4E2A4C002832D00123E6
:1081300029499B0402282FD08025012831D00E68C0
:108140001E430E604B6806460B360127B7403B4383
:108150004B604B682B434B60032832D0042832D04D
:108160001E492160521E1204120CFBD103461A480C
:108170000321001F01F0DAFB01208007C169184DBF
:10818000890722D580690005010E491C2068FCF78B
:108190001DFD1BE02660E5E70D681D430D601149DC
:1081A000DFE70F681F430F604B6801277F05BB4364
:1081B0004B604B683F123B434B604B682B434B601B
:1081C000E8E70949CDE70949CBE720682860F8BD11
:1081D0000048E8011810FF1F40F0004000D8B80523
:1081E0001010FF1F0024F400006CDC020090D0038C
:1081F0000020401C1028FCDBFEE70000F8B56B4AAD
:1082000069496C4B6A481160D861002084000023E2
:10821000401C0B51FF28F9DD1068FF220146803118
:10822000654B6F328B600A250565C262634A13781D
:108230008363634BC3611378022B06D01378032B3F
:1082400005D01378042B04D005E0102302E014239A
:1082500000E0182303625B4B4361594B342496338F
:1082600083613C23CB603623C363082344643A26EE
:1082700003644E6031260E603B26CE634626CE64F4
:108280000F463926403758C732260E6502260E663D
:108290001E274F664226543158C1CC608B6005249E
:1082A0000E614C615A2460390C614B613C248C6135
:1082B000AF24E40004601478022C06D01478032C58
:1082C00005D01478042C05D005E0102400E0092422
:1082D000446000E04360FF242D3484601926760159
:1082E00006616400C460384E7D278664FF00CF6756
:1082F0004762364EC664364F87627327C7650627C6
:1083000047658765C31D0827F9331F600227476645
:1083100084660924C4662F4C046708244467FF243C
:108320002D3484672C4CC4672C48066010780228D2
:1083300006D01078032807D01078042808D00AE067
:108340001220C861192001E00C20CD61086202E012
:1083500008200D62C8611C4888627D20C0008867C3
:108360006420486205200F63C862C820486300206B
:10837000886338205860AF21C90019489961186492
:108380004B201962C000D8617D2000015862164957
:10839000144888601449154880318862FEF784F8D3
:1083A000FEF792F8F8BD0000000CFF1F74A1FF1F3C
:1083B000000CFF1F0010FF1F98C4FF1FE312FF1FD8
:1083C0004605000060E3160050C30000740E000074
:1083D0006A180000204E0000881300009412FF1F4E
:1083E00000400011BD84FF1F0009FF1FC988FF1F47
:1083F00070B5104C8AB0227E0F496D46002A0BD012
:108400000D4A80325268D3B2002202E00E78AE5498
:10841000521C9A42FADB03E00A7D01230978297095
:10842000E169002904D0287506952B7705A88847AF
:108430000AB070BD30C0FF1F004000403EB51C496F
:108440000A78081D002A31D00A46097E00292DD05D
:10845000917E00292AD00178022927D18188448879
:108460008368091B89B2102901D9102101E0002974
:108470000BD0104D0A46491E89B2002A16D04288F8
:10848000541C44809A5C2A70F4E701210170002199
:1084900041808180D169002905D0074A6C460DCA08
:1084A0000DC4684688470820FFF73EFD3EBD00002A
:1084B00030C0FF1F00400040F89AFF1F70B52B48E6
:1084C0000068012803D12A48816F491C81672A4826
:1084D000284941610121C1600160284A506BC1B245
:1084E00027480078002817D126480023C356002BC0
:1084F000254BC35606DB1B04002404572002181822
:10850000401808E0FF331B04002404572002181809
:108510001E4B4018C0185063022901D2022102E00C
:10852000502900D950211A48027814481430022AE0
:1085300011D0184A1478184B1D78AC4214D914780D
:108540001B78E31A891E49104B4311784901C91A57
:1085500010314B1103E0114A1478114BECE7002263
:10856000072101F0E3F970BD1378F8E75812FF1FF7
:10857000D03BFF1FFF3F000000100340800003407E
:108580005312FF1F0013FF1F00000000FFFE00003A
:10859000E212FF1FDD12FF1FDE12FF1FDF12FF1F9F
:1085A000E012FF1F10B5124C022020700321C902F7
:1085B0001048FCF7BFFBFFF721FEFFF763FCFFF756
:1085C000FBFC2078FFF7ACFD0120FFF763FD0320E3
:1085D000FFF73EFCFFF74EFB1920FFF7BFFB00281B
:1085E00001D000F08DFAFDF73AFF002010BD000029
:1085F000E312FF1FB0A1FF1F70B500241220FCF78B
:10860000CDFA1549122208600021FCF7F5F9204641
:108610000124FCF795FB02252046FCF797FB032479
:108620002846FCF799FB04252046FCF79BFB052414
:108630002846FCF79DFB06252046FCF79FFB0724F8
:108640002846FCF741FE08252046FDF767F8284636
:10865000FDF75EFC70BD0000849FFF1F0020704787
:1086600070B514460D4601F02FF900280DD00168B1
:10867000491C0AD0011D2A462046FCF7B7F92946B5
:10868000204600F049F8002070BD0A2070BDF0B50A
:1086900091B014460D46064601F016F907462946E4
:1086A000204600F039F8002F33D03846FEF7B6F9EF
:1086B000402200216846FCF79FF900963C2D01D925
:1086C0003C2600E02E463246214601A8FCF78EF9F2
:1086D000321D6946384601F00BF9A91BA419CDB229
:1086E000002816D111E0402D01D9402600E02E4689
:1086F000324621466846FCF779F9324669463846E3
:1087000001F0F6F8A91BCDB2A419002DEBD1002879
:1087100000D00A2011B0F0BD0020491E01E0401C2D
:1087200080B28842FBDB704770B5164C144DE0698F
:1087300040084000E0610620FDF76CFE114840381B
:10874000826980210A438261E26901231A43E2615E
:10875000A26A920503D42A466D1E002AF8DC002D79
:1087600007DB226A7E23D60B82691E409A4332437E
:10877000826182698A4382613006400E70BD0000CA
:10878000983A000040F00040FFB581B00D46064623
:1087900010240C4F0CE0FFF7C7FFB04208D2A842EC
:1087A00006D90499039800F00FF8C019C72804D31C
:1087B0002046641EE4B20028EDD11020001BC0B298
:1087C00005B0F0BD21F1FFFFF0B5002591B00E46D8
:1087D00007462C460BE01020FDF71CFE1448406AAB
:1087E000A2008104890C6846641C8150E4B2BC423A
:1087F000F1D339466846FDF73CFE0E4A0020574249
:108800006C460EE081006358934201D9D91900E00B
:10881000D11A642902D9002011B0F0BD5D19401CA5
:10882000C0B2B042EED331462846FCF7CFF9F3E7A9
:1088300040F00040420F0000F8B50C4D0C4E0024F3
:10884000A000401901686846FDF762FE022805D0C5
:10885000002C02DD012800D10320F8BD3219694641
:108860000978641C5170402CEADBF8BD0008001147
:1088700050C0FF1FF8B500240C4D0D4F0526A00079
:10888000401901686846FDF743FE022805D0002C18
:1088900002DD012800D10320F8BD321B6946D21940
:1088A0000978641C5170062CE9DBF8BD0009001141
:1088B000A8A1FF1F10B5FCF767FA02498008081A43
:1088C00010BD0000FFFF3F0010B500F011F800F0F0
:1088D0007DFF064A0121582000F094FE042308225F
:1088E00019463820FFF750FF10BD0000F812FF1F97
:1088F000F8B52F4803782F4C16221B21204601F093
:1089000015F8032311221221204601F00FF8241D2F
:10891000062316221A21204601F008F8032312220A
:108920001321204601F002F823480078032828D0BC
:10893000002319221A21204600F0F8FF0B230422FD
:108940000721204600F0F2FF1C4E33781622172133
:10895000204600F0EBFF1B4D1948E86042152A61E4
:10896000194868611949A961164C40346260A060D9
:10897000E160144F1648403F38603078012802D03B
:108980000BE00323D5E7002201231146384600F00F
:10899000CDFFFF204130286160600E4800780E490D
:1089A000C006C00B4018B8630C48E861F8BD000071
:1089B000DC12FF1F40F00040E312FF1F78A1FF1FF1
:1089C00020010020C0000340A403B00000008A047E
:1089D000242D0000E112FF1F250800002FFF2600B4
:1089E00070B530492F4A4039002825D0022823D0BD
:1089F0008B1513625A020A612B4A0A632B4A1278BA
:108A000001231B03D2184A612649264CC039803CF9
:108A1000002815D06522264DD202264B012819D0F8
:108A200002281CD0244E8019086024484860226027
:108A3000A560E360224819E080231362DA02DAE7D6
:108A4000204808600020A0601F4820601F48E060A8
:108A50001F480BE01F480860A5602260E9E71D4839
:108A6000401C0860A5602260E3601B4820610D483F
:108A7000FF2300220721B43800F058FF1748606137
:108A80001748A0611748E0611748206217486062E4
:108A90001748A0621748E0621748206317486063D0
:108AA00070BD0000C000034003000001DD12FF1F85
:108AB00055555537D6BE898E00800698545A985021
:108AC000805508220080067800280B0007EE7536D6
:108AD000806608220180064280450822A49C5C54DE
:108AE0004C0C0403025A544E483C36332D007F5D33
:108AF00057514B453C363056504A443E322C262086
:108B00001FB596490A78E1204002022A06D00A7869
:108B1000032A07D00978042908D00CE00A23092287
:108B20008F4906E00A2309228E4902E00A2309221E
:108B30008D49FCF72FF98DA0FCF732F992480025FA
:108B4000C56292A0FCF72CF997A0FCF729F99DA02B
:108B5000FCF726F9A2A0FCF723F900F049FBA74E89
:108B60007562A74C706A0228FCD3A648A449027813
:108B70000E310A7040784870756200F053F9207821
:108B800000F0D4FA00F048FBA5820027D7E0207857
:108B9000022806D02078082845D020788A28F5D1E8
:108BA00041E05A2208216420FCF700F90F23042237
:108BB0000721954800F0BAFEFFF77CFE216A884243
:108BC00002D3216A401A03E0226A9049891A0818E0
:108BD0000390FCF7F1F8C0070AD08D480078002810
:108BE00006D1002F04D1FCF7EDF88A480127C561B2
:108BF000618A0398884215D385480078002802D0FE
:108C0000FCF7E6F802E0FCF7E3F80027206A618A47
:108C100040182062216A7D48814203D9216A40427E
:108C2000081820628BE0022316221A217A4800F0ED
:108C30007DFE7A48037816221721774800F076FEE9
:108C4000FCF7BAF8C0077AD0FCF7B6F8400508D5AB
:108C5000A08A401CA08201AA02A9684600F090FCEC
:108C600017E0FCF7A9F8800703D5E08A401CE082F2
:108C70000FE0FCF7A1F8400703D5208B401C2083B0
:108C800007E0A08A6649884201D1002000E0A08A5E
:108C9000A08220788A2830D1FFF70CFE216A884212
:108CA00002D3216A401A03E0226A5849891A081837
:108CB000616A884221D90A2000F038FAFF20F53095
:108CC00000F046FE822000F031FAFF20F53000F07F
:108CD0003FFE862000F02AFAFF20F53000F038FE33
:108CE000882000F023FAFF20F53000F031FEA58245
:108CF000E5822583FFF7DEFD2062FCF763F8FCF7D1
:108D000067F8A08A00281AD0A08A01281CD0E07A2F
:108D10006946097840184008E072A08A012816D0F8
:108D2000A08B6946098940184008A083A08A0128C1
:108D300010D0207B69460979401840082073706A7A
:108D4000022800D30EE722E768460078E4E7684689
:108D50000089EAE768460079F0E70000E312FF1FA8
:108D60000024F400006CDC020090D0030A3D3D3D7D
:108D700052465F5048595F44544D2056332E302E92
:108D8000303D3D3D0A000000800BFF1F3D3D3D2072
:108D9000535550504F525420424C4520314D2020C5
:108DA0003D3D3D0A000000003D3D3D2053555050E3
:108DB0004F525420424C4520324D20203D3D3D0A2B
:108DC000000000003D3D3D20535550504F5254206F
:108DD000424C52203530304B3D3D3D0A00000000F2
:108DE0003D3D3D20535550504F525420424C52204F
:108DF0003132354B3D3D3D0A000000004010FF1F61
:108E00007CA1FF1F8016FF1FD4000340FFFF3F001F
:108E1000E212FF1F4010034044F0004078A1FF1F02
:108E2000FFFF0000F8B5BA490878820908460E38F5
:108E3000427043780422B74E002B17D04378032B9F
:108E400014D04378012B02D04378022B2DD10B781C
:108E50009B069B0E83704B789B08C37049788907EB
:108E6000890F4171818A03296FD04AE10B789B06F3
:108E70009B0E83714B789B08C3714378FE24002BB3
:108E800003D08179002971D006E183790025002B78
:108E900002D1C379002B07D08379012B06D08779C3
:108EA0000123022F09D00BE00570F8BD0C210170E1
:108EB000C1798907890F0171F8BDC779012F03D0E6
:108EC0008779022F02D004E0102129E0C779022F10
:108ED00003D08779022F04D006E01221017002200E
:108EE00014E0C779032F03D08779022F04D006E05E
:108EF000162101703270F8BDC779042F03D087792D
:108F0000022F05D007E01421017003203070F8BD56
:108F1000C779202F03D08679032E04D006E01821CC
:108F200001703370F8BDC679002E03D08679032E08
:108F300002D004E0202151E0C679012E03D08679C9
:108F4000042E03D005E0222148E0D3E0C679002EAC
:108F500003D08679052E02D004E024213EE0C679B4
:108F6000002E04D08679052E03D005E091E026215D
:108F700034E0C679012E03D08679052E02D004E0B4
:108F800028212BE0C679022E03D08679052E02D047
:108F900004E02A2122E0C679032E1ED08679362EDF
:108FA0001ED08679372E22D08679382E28D0867921
:108FB000392E2ED081793A2935D081793B293BD081
:108FC00081793C294BD081793D2954D081793E2942
:108FD00056D081793F2955D059E02C210170F8BD38
:108FE00072220270826A4978120A120218E0742210
:108FF0000270826AFF231B0249789A4309020FE03C
:1090000076220270826AFF231B0449789A4309047E
:1090100006E078220270826A49781202120A090672
:109020000A438262F8BD7A210170C0790A38810052
:10903000401839490870F8BD7C210170C1790029B8
:109040000BD04573C079410034480170007801218C
:109050000903401832494861F8BD4373F8BD7E21C9
:109060000170C1792F480170037816221B212E4808
:1090700000F05CFCF8BD80210170C1798172F8BDFF
:10908000027001E006210170C1798170F8BD0470A1
:10909000F8BDC179002903D081793F2902D004E0CD
:1090A0000A219BE7C179002903D081793F2902D0A9
:1090B00004E0822192E7C179012903D081793F2917
:1090C00002D004E0842189E7C179022903D08179A3
:1090D0003F2902D004E0862180E7C179032907D027
:1090E00081793F29D3D1C1790429D0D18A2175E76B
:1090F000882173E73178042902D03178032900D11F
:1091000042714178012901D0022167E7082165E712
:109110008AA1FF1FE212FF1F0013FF1FDD12FF1FB6
:1091200080000340DC12FF1F40F0004070B52E4C61
:1091300000222270627021461039FE282FD0802331
:109140000A2830D0822832D0842834D0862837D0DC
:10915000882839D024283BD0362326283CD0A9257E
:109160002D0128283CD02A2836D02C2838D00A7245
:109170004A720878488320784A8B0B7A120A1A437D
:10918000104320706278488B497A0843024362702A
:109190002078FBF723FE6078FBF720FE70BD0A7293
:1091A00001204872E7E70B724A72888AE2E70B7285
:1091B0004A72888BDEE70B724A720C480078D9E756
:1091C0000B724A72C87AD5E70B724A72087BD1E7F4
:1091D0000A724A720C20CDE70A724A724B83CAE7C0
:1091E0000A724A724D83C6E78CA1FF1FDD12FF1F72
:1091F00001200649C0020860054841680122114368
:1092000041600449052008637047000000E100E068
:109210000040004000100240F8B5AB4E3079F178C4
:1092200080018906890E0843F070B078A74C400091
:10923000801CC7B2207801281ED02078022823D0B5
:10924000207803282AD020780428F0782BD04501F4
:10925000B07881004018401DC7B2C0359C489C4979
:10926000F8302818FBF7C0FD9949484396494882D1
:1092700008788A281CD024E0F0783D23C5001C2201
:109280001F219448503506E0F0783D2385001C22CC
:109290001F2190482C3500F049FBDFE7F0780501ED
:1092A000FF35CF35DAE72D21800109014518D5E7D3
:1092B000854D688A7D21C90048436862FFF7FAFA44
:1092C00028620320834D000440352860814E0E2023
:1092D00080363062A8157062002131627E48F060ED
:1092E00079480278002A2DD0017802293ED00178F1
:1092F00004293BD00178062938D00078082803D00B
:10930000714800788A2830D1FFF7F2FA734A0121B8
:10931000022000F077F900F04BF92078FBF76AFDA6
:109320006948428A6E49643A4A62428A643A8A6269
:109330006C4900228A56002A6B4A8A5677DB110450
:10934000C9199EE0818241830171C17041820F225F
:1093500082728183C17201730122227041710D23D7
:109360000F221221614800F0E1FAF8BD5648407B17
:10937000002805D0FFF7BCFA0421384600F0CAF9EE
:1093800000F016F95048807A00F022F92078FBF7B7
:1093900031FD54480021415600295349415602DB12
:1093A0000802C01903E008025149C019401870634F
:1093B0002078002806D04F48A8604348806AE860BB
:1093C0004D4828600020C04368603F4F3878062829
:1093D0000DD0FF204130706238782026022809D055
:1093E0002078002830D044482030286031E0FF2029
:1093F0000130F0E708230F2212213C4800F096FAD2
:10940000207800281BD02078042802D02078032858
:1094100002D1787903280BD0F8787979801C000282
:1094200030430907090F084333490843DDE724E0C7
:10943000F8783149801C00023043091DF5E7FBF73D
:10944000DFFC00F061F804E02C48286021482C493A
:1094500001600020FBF7DAFCFBF7DEFCFBF7B2FC57
:109460003878022806D12078FBF7B2FCFFF722FA01
:109470003862F8BDFBF7ACFCF8BD1104214AC919EC
:10948000891871632178002906D00021C9436960D9
:109490001849A960816AE960C178C91CFF2901D90E
:1094A000FF2006E0C178282901D2282001E0C078F9
:1094B000C01C0849C8600020FBF7A8FCFBF7B2FC01
:1094C000FBF780FCD6E700007CA1FF1FE212FF1F24
:1094D000710200000000034040401000F812FF1F1E
:1094E000001003400013FF1F0000000014F00040B4
:1094F000FFFE0000555555001000030033000B001F
:1095000002800678FFFFFE0030B5A5B00020009075
:1095100001900290039018A00068184D0490E9781B
:1095200000206A46117505AC612208E0215CCB0180
:1095300049080B4353402118401C4B70C0B2E978D6
:10954000491E8842F2DBE97804AB6A46601C891E3A
:10955000FBF76EFC6846017CE87820182038C1775C
:109560006846407CE9786054E97805A8491CFBF717
:1095700065FC25B030BD0000FFFF00007CA1FF1F8F
:1095800070B50A4B5C6A9D6AA30501269B0D7602A5
:10959000B34201D99B1B02E0FF33FF3302330B8040
:1095A000290E0170200E107070BD0000C000034035
:1095B00010B5FFF79DF90448007800F009F803485A
:1095C0000078FFF70DFA10BDE112FF1FE212FF1F36
:1095D00010B5044609483F2C0DD00D230F2212214F
:1095E00000F0A4F90648816BE2060905090DD20BCB
:1095F0001143816310BD0823F0E7000014F0004020
:1096000080000340F0B5364C666AA56A00236362A9
:10961000A362344C60630E20206263624020A0622B
:109620005020E0622A2060622E484030012926D076
:10963000802101622C49FF232A48A53340308360F2
:109640002A4B4360274B2A48403B18617D20C000CD
:10965000401EFDD2274889050F18224840388763ED
:10966000244B5B1CC91881632449234809780B00EB
:10967000FBF7F2F9070B0B100D0F100B1000FF2179
:109680000131016218498331D5E71D4802E01D48C8
:1096900000E01D481D4911601249403103E0CB6ACA
:1096A000DB439B0F11D0401EF9D20E484038876330
:1096B0000020A062E062886060622062FF2041308A
:1096C0006062074846628562F0BDC86A104B184068
:1096D000106010680122000C120480184860E4E752
:1096E0000010034080000340CA0200002020000058
:1096F00080560C206465210010270000E312FF1F34
:10970000204E000030750000409C0000000020202A
:10971000FFFF3F3FFCB50D46074600206946087035
:10972000888028490A780124274EAC40012A0BD0B2
:109730000A78032A08D00A78042A05D00978022971
:10974000694622D0087037E0694608700CE00021B5
:10975000384600F061F80146684680880918684676
:1097600081800178491C0170684600788442EEDCF3
:1097700068460FE00121384600F04EF869468988B6
:109780004018694688800878401C08700878844230
:10979000F0DC08468088E840C01C3070FCBD012128
:1097A000384600F039F8014668468088091868464E
:1097B00081800178491C0170684600788442EEDCA3
:1097C000D6E70000E212FF1FDD12FF1F00B50021E7
:1097D000022000F021F80C49801C08700021422072
:1097E00000F01AF80949801C08700121022000F0DD
:1097F00013F80749801C08700121422000F00CF882
:109800000449801C087000BDDD12FF1FDE12FF1F1F
:10981000DF12FF1FE012FF1F30B51D4C1B4A2260F4
:109820001B4A4032012914D01A49D16050630E20DE
:10983000106200215162FF201530506216480578F1
:1098400016482B00FBF708F9070A0A070C0E0F0A47
:109850000F001349E9E71148401E04E0114802E0F7
:10986000114800E01148401EFDD209488030406B8D
:1098700051620002000E11620D49D160FF21413199
:1098800051626521C902216030BD00001000030053
:10989000400003407F407200E312FF1F0F270000CB
:1098A0007F405200204E000030750000409C0000B8
:1098B0004040100010B500210420FCF7D3F901212D
:1098C0000220FCF7CFF910BD0103702807D07128E2
:1098D00005D020380C2804D20348081870470348E4
:1098E000FBE70020704700000000051100C00011D8
:1098F000F8B50402240A0E46A00701D00C20F8BDDA
:10990000D21C9007800F171A002509E00422314667
:109910002046FCF7EBF9002806D0241D2D1D361D2E
:10992000BD42F3D30020F8BD1720F8BDF0B50468A0
:109930000025ED439340012704E03E469640B543A1
:10994000521CD2B28A42F8D92C401C430460F0BDAC
:1099500070B50646FEF7AEFF064904460D1BFEF73E
:10996000A9FFA04201D3001B00E02818B042F6D99D
:1099700070BD0000FFFF3F000A18232A242A252A71
:10998000262A272A282A292A2A2A502A02000000C1
:109990007899FF1F4D6F64656C204E756D6265721E
:1099A0000053657269616C204E756D626572004688
:1099B00069726D77617265205265766973696F6E41
:1099C00000486172647761726520526576697369D7
:1099D0006F6E00536F6674776172652052657669A9
:1099E00073696F6E004D616E756661637475726543
:1099F00072204E616D6500FE006578706572696D5C
:109A0000656E74616C0000007D65FF1F0000000042
:109A10000000000002000000187C01005D78FF1FBC
:109A20007979FF1F00000000020000001A7C01008D
:109A3000000000002D78FF1F00000000DD5F000027
:109A40009930000029380000311600003520000050
:109A5000C57A00000D53FF1FF157FF1F6161FF1F03
:109A600009D881C91AB99996ABBA40868780200C6B
:109A7000EE000000D881C91AB99996ABBA40868722
:109A800084200CEED881C91AB99996ABBA40868762
:109A900086200CEED881C91AB99996ABBA40868750
:109AA00087200CEED881C91AB99996ABBA4086873F
:109AB00088200CEED881C91AB99996ABBA4086872E
:109AC00089200CEED881C91AB99996ABBA4086871D
:109AD000F1FF0CEED881C91AB99996ABBA408687C6
:109AE000F2FF0CEE4567FF1FBD68FF1F000000007E
:109AF00010000000619AFF1F03000000000000003A
:109B000000000000687474703A2F2F7777772E006A
:109B100068747470733A2F2F7777772E00000000E7
:109B2000687474703A2F2F0068747470733A2F2F12
:109B3000000000002E6F72672F0000002E636F6D13
:109B40002F0000002E696E666F2F00002E6E657468
:109B50002F0000002E6564752F0000002E676F76C1
:109B60002F0000002E62697A2F0000002E6F7267AE
:109B7000000000002E636F6D000000002E696E660D
:109B80006F0000002E6E6574000000002E65647585
:109B9000000000002E676F76000000002E62697AD8
:109BA00000000000F49BFF1FB0A1FF1F780200001F
:109BB0004064FF1FB0A1FF1FF49BFF1FBC05000006
:109BC0009449FF1F000CFF1FB0A1FF1F0C000000F5
:109BD0004064FF1FB0A1FF1F000CFF1F0004000026
:109BE0009449FF1F6C9EFF1FB0A1FF1FE8220000D9
:109BF0005064FF1F3202240104059310012914143C
:109C00001C7C0129122D8C99FF1F105A22104BF435
:109C10009B101A7A1829105AFF1069204B389D1092
:109C20005A7C20DA94405A39205A7E20DAA1205AF0
:109C30003A205A8020DAAF205A3B205A8220DAC1DB
:109C4000205A3C205A8420DAD3205A3D205A8620BC
:109C5000DAE5205A3E205A8820DAF7205A3F205A67
:109C60008A201BF89B10590129102124053F10223E
:109C70000A031CE803125032A02BE8034C5A1C5C68
:109C8000CB149A6C5AE46C5A3010CB56BA205AE571
:109C9000205A32105A641069205AE6105A38102A95
:109CA0006C101302029A019A653075FFFF12060BC1
:109CB0001E800CB681041F020106595509143E99F5
:109CC000F4DA28F44BA89E101A3A10A9301A28107A
:109CD000299B1A60205A20144169B0C809255EFFEB
:109CE0001FBD62FF1FA6080A15040303AAFE031680
:109CF000AAFEC510301107D881C91AB99996ABBA16
:109D000040868780200CEE020AFE160953696D70AA
:109D10006C654564647973746F6E65426561636FE9
:109D20006E05125018082003049BFF1F10041A2010
:109D3000041A28041A3C041A34041A54041A4C0451
:109D40001A44041A64041A5C041A74041A6C041A7F
:109D50008C041A84041A7C041A9C041A940449631F
:109D60004D204553205EC11A01DE69D83CECF6FE59
:109D7000EC1C1C7C0118212DF09AFF1F105A221098
:109D80001BF8A090311A741829334BCABD205A26EB
:109D9000201AF920A9304B45A1305AC430DADD3001
:109DA0001A4620A9305A4A305AD430CB8A9F30DA2A
:109DB0004B305A02305A8430DA9430DA03305A1376
:109DC000305A9430DA8830DA14305A22305AA430BB
:109DD000DA8C30DA23305A31301AB4302918DA8963
:109DE000301A3220100A0A55524920446174611019
:109DF000110A41647620545820507772204C766CBA
:109E0000732A0A0D100A6F776572204D6F64651012
:109E10000F0A426561636F6E20506572696F641846
:109E2000080852657365742012100A6669677261CA
:109E300074696F6E150A55494418110A45646479AE
:109E400053746F6E65204672616D65234D6D626956
:109E50006E22112980412C40787D83791061220F78
:0C9E6000391601168529417671000000BA
:040000051FFF48C1D0
:00000001FF
