:020000041FFFDC
:100800000000000045C5FF1F98D7FF1FC0D7FF1F7E
:10081000A0DCFF1F0000000000000000000000003E
:1008200000000000000000000000000000000000C8
:1008300000000000000000000000000000000000B8
:1008400000000000000000000000000000000000A8
:100850000000000000000000000000000000000098
:100860000000000000000000000000000000000088
:100870000000000000000000000000000000000078
:100880000000000000000000000000000000000068
:100890000000000000000000000000000000000058
:1008A0000000000000000000000000000000000048
:1008B0000000000000000000000000000000000038
:1008C0000000000000000000000000000000000028
:1008D0000000000000000000000000000000000018
:1008E0000000000000000000000000000000000008
:1008F00000000000000000000000000000000000F8
:1009000000000000000000000000000000000000E7
:1009100000000000000000000000000000000000D7
:1009200000000000000000000000000000000000C7
:1009300000000000000000000000000000000000B7
:1009400000000000000000000000000000000000A7
:100950000000000000000000000000000000000097
:100960000000000000000000000000000000000087
:100970000000000000000000000000000000000077
:100980000000000000000000000000000000000067
:100990007DB7FF1F41B8FF1FADD0FF1F0000000053
:1009A0000000000000000000000000000000000047
:1009B0000000000000000000000000000000000037
:1009C0000000000000000000000000000000000027
:1009D0000000000000000000000000000000000017
:1009E0000000000000000000000000000000000007
:1009F00000000000000000000000000000000000F7
:100A000000000000000000000000000000000000E6
:100A100000000000000000000000000000000000D6
:100A200000000000000000000000000000000000C6
:100A300000000000000000000000000000000000B6
:100A400000000000000000000000000000000000A6
:100A50000000000000000000000000000000000096
:100A60000000000000000000000000000000000086
:100A70000000000000000000000000000000000076
:100A80000000000000000000000000000000000066
:100A90000000000000000000000000000000000056
:100AA0000000000000000000000000000000000046
:100AB0000000000000000000000000000000000036
:100AC0000000000000000000000000000000000026
:100AD0000000000000000000000000000000000016
:100AE0000000000000000000000000000000000006
:100AF00000000000000000000000000000000000F6
:100B000000000000000000000000000000000000E5
:100B100000000000000000000000000000000000D5
:100B200000000000000000000000000000000000C5
:100B300000000000000000000000000000000000B5
:100B400000000000000000000000000000000000A5
:100B50000000000000000000000000000000000095
:100B60000000000000000000000000000000000085
:100B7000C9BBFF1F000000000000000000000000D3
:100B80000000000000000000000000000000000065
:100B90000000000000000000000000000000000055
:100BA000000000000000000000000000F5ACFF1F86
:100BB0000000000000000000000000000000000035
:100BC000D9ACFF1F00000000000000000000000082
:100BD0000000000000000000000000000000000015
:100BE0000000000000000000000000000000000005
:100BF00000000000000000000000000000000000F5
:0C0C000001FF01FF01FF01FF41000000A7
:020000041FFFDC
:1048000050070020D548FF1FDD48FF1FDF48FF1F6E
:104810000000000000000000000000000000000098
:10482000000000000000000000000000E148FF1F41
:104830000000000000000000E348FF1FE548FF1FE4
:104840000000000000000000000000000000000068
:104850000000000000000000000000000000000058
:104860000000000000000000000000000000000048
:104870000000000000000000000000000000000038
:104880000000000000000000000000000000000028
:104890000000000000000000000000000000000018
:1048A0000000000000000000000000000000000008
:1048B00000000000000000000000000000000000F8
:1048C0000348854600F038F800480047C9C0FF1F7C
:1048D000500700200448804704480047FEE7FEE7F1
:1048E000FEE7FEE7FEE7FEE7C96EFF1FC148FF1FB8
:1048F00003460B439B0703D009E008C9121F08C0F9
:10490000042AFAD203E00B780370401C491C521EA3
:10491000F9D27047D2B201E00270401C491EFBD2AE
:1049200070470022F6E710B513460A4604461946BA
:10493000FFF7F0FF204610BD064C0125064E05E0AE
:10494000E36807CC2B430C3C98471034B442F7D3B0
:10495000FFF7BAFF1CD9FF1F6CD9FF1F70B58C1869
:104960000578401C6B075B0F01D10378401C2A11AE
:1049700006D10278401C03E006780E70401C491CEA
:104980005B1EF9D12B0705D40023521E0DD40B70EA
:10499000491CFAE70378401CCB1A921C03E01D78EF
:1049A0000D70491C5B1C521EF9D5A142D8D30020C2
:1049B00070BD000003B40148019001BDF13E01004B
:1049C00003B40148019001BD1B3D010003B401483F
:1049D000019001BD211F000003B40148019001BDF9
:1049E000C920000003B40148019001BD3518000042
:1049F00003B40148019001BD3D42010003B40148E8
:104A0000019001BD8117000003B40148019001BD70
:104A10007181000003B40148019001BDF92200003A
:104A200003B40148019001BDC13C010003B4014839
:104A3000019001BD3914000003B40148019001BD8B
:104A4000ED3C010003B40148019001BDC93A0100E9
:104A500003B40148019001BD5518000003B401489A
:104A6000019001BD6902000003B40148019001BD3D
:104A70006D15000003B40148019001BDA1180000AC
:104A800003B40148019001BDB9E4000003B401483A
:104A9000019001BD2D15000003B40148019001BD36
:104AA00079E5000003B40148019001BD69410100AE
:104AB00003B40148019001BD1117000003B401487F
:104AC000019001BD7114000003B40148019001BDC3
:104AD000C131000003B40148019001BDB1420100A1
:104AE00003B40148019001BDD542010003B401485F
:104AF000019001BDC912000003B40148019001BD3D
:104B00005D19000003B40148019001BD593A01004C
:104B100003B40148019001BDC118000003B401486D
:104B2000019001BD3515000003B40148019001BD9D
:104B30004117000003B40148019001BDE9150000D0
:104B400003B40148019001BD897B000003B4014812
:104B5000019001BDD520000003B40148019001BDC2
:104B6000A5E5000003B40148019001BD3D1C000013
:104B700003B40148019001BD0D1D000003B40148BC
:104B8000019001BD8306000003B40148019001BDFE
:104B90000143010003B40148019001BDE120000080
:104BA00003B40148019001BDF53C010003B4014884
:104BB000019001BD5D3F010003B40148019001BDBA
:104BC000DD21000003B40148019001BD55900000B3
:104BD00003B40148019001BDED3A010003B401485E
:104BE000019001BD0923000003B40148019001BDFB
:104BF000C53B010003B40148019001BD7D3A0100AD
:104C000003B40148019001BD913F010003B4014884
:104C1000019001BDA942010003B40148019001BD0A
:104C2000591B000003B40148019001BDD91A0000CE
:104C300003B40148019001BD9D1A000003B401486E
:104C4000019001BD9502000003B40148019001BD2F
:104C5000710F000003B40148019001BD191000005C
:104C600003B40148019001BD113A010003B40148A9
:104C7000019001BDA53C010003B40148019001BDB4
:104C80003917000003B40148019001BD891C0000E0
:104C900003B40148019001BD4D2A000003B401484E
:104CA000019001BD292A000003B40148019001BD13
:104CB000D136000003B40148019001BD01E60000B7
:104CC00003B40148019001BD6D07000003B4014821
:104CD000019001BDBD07000003B40148019001BD72
:104CE000E907000003B40148019001BD3D07000041
:104CF00003B40148019001BD211A000003B401482A
:104D0000019001BD050E000003B40148019001BDF2
:104D10002D0E000003B40148019001BD892200005E
:104D200003B40148019001BD610E000003B40148C5
:104D3000019001BD9D0E000003B40148019001BD2A
:104D4000D50E000003B40148019001BDFD0E000026
:104D500003B40148019001BD610F000003B4014894
:104D6000019001BDE997000003B40148019001BD25
:104D70003D98000003B40148019001BDE58D00009D
:104D800003B40148019001BD4977010003B4014813
:104D9000019001BD8D3C010003B40148019001BDAB
:104DA000E55B000003B40148019001BDE12900006A
:104DB00003B40148019001BD9937000003B40148D4
:104DC000019001BD5114000003B40148019001BDE0
:104DD000091F000003B40148019001BDA57900003E
:104DE00003B40148019001BD4103000003B4014830
:104DF000019001BDC91F000070B506460C46012098
:104E0000C0032040002810D013480078FFF7D2FDDF
:104E1000051E05D0284600F025F82846FFF7D0FDEE
:104E200020460121C903484070BDE007C00F00289B
:104E30000FD0FFF7CBFD08480078FFF7CDFD0748FE
:104E400001F0AAFB064800F003FE2046012148407D
:104E5000EAE70020E8E7000054DDFF1F58DDFF1FF0
:104E600060DDFF1F10B504462078B02803D120462E
:104E700000F032F900E000BF00BF10BD30B587B0D0
:104E800004466F48047007F0D1FC6EA007F0AEFC3A
:104E900070A007F0ABFC0E2006F0EAFA002807D05D
:104EA0006EA007F0A3FC00221146714800F060FEDE
:104EB00006211F20FFF796FD012106910021059193
:104EC00001210491282103913C21029100210191AB
:104ED0007D21C900009106AA0121664801F0B2F9BE
:104EE00005AA02216348401C01F0ACF9624A142172
:104EF0006120C00001F0A6F9604A15215D48801CC0
:104F000001F0A0F904AA01213120000101F09AF971
:104F100003AA022157480C3001F094F902AA022199
:104F200054480D3001F08EF901AA022151480E308B
:104F300001F088F96A460221C520800001F082F95B
:104F40004F4A1521002001F059FEA02529460620D0
:104F5000FFF748FD29460720FFF744FD29460820B2
:104F6000FFF740FD29460920FFF73CFD0020069091
:104F70000221059100210491032103910121029155
:104F800006AA04218120C00000F0F2FD05AA01213B
:104F9000880200F0EDFD04AA01213548C01F00F091
:104FA000E7FD03AA01213248801F00F0E1FD02AABB
:104FB00001212F48C01E00F0DBFD0020C04301F09E
:104FC00009FE0020C04301F03FFB00F073FA07F038
:104FD000DDFB1B4801782B4802F0ECFC20222A491B
:104FE000002002F091FC20222849012002F08CFCD4
:104FF00020222749032002F087FC20222549022095
:1050000002F082FC20222449042002F07DFC2022B0
:105010002249052002F078FC20222149062002F0D6
:1050200073FC20221F49072002F06EFC1EA007F02F
:10503000DDFB012102480078FFF7DAFC07B030BD44
:1050400054DDFF1F416E63734170705F696E697458
:105050000A0000007374617274210A004572617362
:105060006520616C6C20626F756E64696E670A0002
:105070000904000005030000A4DCFF1FB8DCFF1FCB
:10508000CDDCFF1F3DC4FF1F1CFBFF1F3CFBFF1FB0
:105090007CFBFF1F5CFBFF1F9CFBFF1FBCFBFF1F7C
:1050A000DCFBFF1FFCFBFF1F414E43532044656D9B
:1050B0006F0A000070B506460C4615462946204684
:1050C00000F03EF870BDF8B505460E4617461C4682
:1050D000204600F09BF8F8BD3EB50446204602F09D
:1050E00043FC2079012827D1207A122824D1207B63
:1050F000052821D102A9114800F094FE01A90F480A
:10510000F43000F0F7F969460C48F83000F0F2F995
:1051100069460879C007400F0978C907890F084315
:1051200069460978C907C90F0843054629466846F4
:105130000089FFF763FC00BF01203EBD0E030000A5
:1051400070B504460D462A46214613A007F04EFBD3
:10515000002C03D118A007F049FB1BE0012C0ED155
:10516000002D07D119A007F041FB1D48008802F06F
:105170007FFC0FE029461BA007F038FB0AE0022C59
:1051800008D1002D06D11CA007F030FB1448008880
:1051900002F06EFC70BD0000416E63734170705F81
:1051A00070726F6365737350616972537461746573
:1051B0002025642C25640A0050616972696E67209D
:1051C000737461727465640A000000005061697252
:1051D000696E67205375636365737366756C0A0047
:1051E000E2DCFF1F50616972696E67206661696C5D
:1051F0003A2025640A000000426F6E64696E6720E1
:105200005375636365737366756C0A0038B505463C
:10521000084C002D03D0214607A007F0E7FA6946A5
:10522000094800F0FFFD224600216846008800F092
:105230005DFA38BDD204000050617373636F64651A
:105240003A2025640A0000000E03000010B586B065
:1052500004462300FFF7D8FB086805234856274477
:10526000646804A9C120800000F0DCFD6846017C70
:105270000172417C4172817C817200210173C17293
:10528000417DC173017D8173C17C417302AA0821F4
:10529000002000F01BF926A007F0A8FA45E028A09E
:1052A00007F0A4FA41E004A9C120800000F0BAFD93
:1052B00002AA0821002000F009F92549254800F03C
:1052C000B1FD69462348C01D00F0ACFD22A007F0E7
:1052D0008DFA24A007F08AFA28A007F087FA24E0C4
:1052E0002DA007F083FA20E010213148FFF719FBC9
:1052F00030A007F07BFA1BA007F078FA31A007F086
:1053000075FA12E010212A48FFF70BFB35A007F0D1
:105310006DFA14A007F06AFA35A007F067FA04E006
:105320003AA007F063FA00E000BF00BF06B010BD6E
:10533000496E697469616C697A65640A00000000ED
:105340004164766572746973696E670A00000000D3
:10535000E2DCFF1F0E030000436F6E6E6563746531
:10536000640A0000446973636F7665727920507235
:105370006F67726573733A09300A0000446973639A
:105380006F766572792053746174653A09436F6E64
:105390006E65637465640A00436F6E6E6563746561
:1053A00064204164766572746973696E670A0000EF
:1053B000ACFAFF1F446973636F6E6E656374656456
:1053C0000A000000446973636F7665727920537434
:1053D0006174653A09446973636F6E6E65637465E1
:1053E000640A000054696D6564204F757400000004
:1053F000446973636F766572792053746174653A9A
:105400000954696D6564206F75740A004572726F86
:10541000720A000010B504462046FFF717FF10BDC2
:10542000F0B5BFB005460E46154F294615A007F04A
:10543000DDF9022069468870012E05D10120C8706F
:1054400000216846017105E000206946C87000210E
:1054500068460171002138A8C1750176684605804B
:105460003A78B021C85B6946FFF7D4FA0446002CAD
:1054700003D021460AA007F0B9F920463FB0F0BD9D
:1054800074F9FF1F416E63735F43434344436F6E80
:105490006669672068616E646C652025640A000097
:1054A000416E63735F43434344436F6E6669672095
:1054B00025640A0010B5034A1321034801F0EAFAF3
:1054C00010BD000020D7FF1F84D9FF1FF8B5044688
:1054D0000D4616460027002C05D12A4631460448C1
:1054E000FFF79EFA01E0022700BF00BF3846F8BD73
:1054F0006DD9FF1F70B505460C46002601208002BD
:10550000281A0300FFF780FA0F090D1115191D2342
:10551000272B432F33373B3F43002348007820702D
:105520003EE02248008820803AE021480078207040
:1055300036E020480078207032E01F480078207064
:105540002EE010221D492046FFF76AFA28E01C4889
:105550000078207024E01B480078207020E01A4872
:10556000006820601CE019480078207018E0184896
:105570000078207014E017480078207010E016487A
:10558000007820700CE003F0E7FD207008E0272D84
:1055900004DA2846FFF74AFA208000E0022600BF1E
:1055A00000BF304670BD000019DBFF1F1ADBFF1F74
:1055B0001CDBFF1F1DDBFF1F1EDBFF1F78F8FF1F1B
:1055C0001FDBFF1F22DBFF1F24DBFF1F20DBFF1F72
:1055D00021DBFF1F28DBFF1F30DBFF1F10B5044658
:1055E0000248047003F03CFF10BD000018DBFF1FF1
:1055F000FFB58DB000200B900C900BAA0E990D9862
:1056000000F038FA04460A2C5EDA204603F0FFFE6A
:10561000054634480078022801D1012000E000202E
:1056200000902A462146109B0F9803F065FD142236
:10563000002106A8FFF700FA214606225143243133
:10564000C8B206AA102106F0BBFF002815D110220F
:10565000FF2106A8FFF7F6F900280ED12146062201
:1056600051432531C8B20AAA042106F0A9FFE9076F
:10567000C90F06AA0F98FFF7EBF921467031C8B29F
:1056800002AA102106F09CFF002813D102A803F003
:10569000D2FE00260CE0B00002A947183888002886
:1056A00004D0BA7839880F9801F044FA701CC6B259
:1056B000042EF0DB02202840002804D00A4801789C
:1056C0000F9801F021FA00BF1098042806D1054870
:1056D0000078022802D10F9803F02CFF002011B0AF
:1056E000F0BD000019DBFF1F18DBFF1FF8B50446F3
:1056F0000D4616460027002D10D10B493046FFF706
:10570000ADF90E4621463046FFF7AEF90746002FA9
:1057100008D001212046FFF7ADF903E029462046D5
:10572000FFF7A8F93846F8BD40420F0070B50646AD
:105730000C460120C0032040002812D027480078E2
:10574000FFF738F9051E07D0284603F08FFF002821
:1057500002D02846FFF734F920460121C90348400A
:1057600070BD02202040002810D00021084603F020
:105770005BFB002808D0012118480078FFF738F9B2
:10578000204602214840EBE70220E9E7E007C00F8E
:10579000002820D012490968888803F083FF002878
:1057A00017D01048006800280DD00E4800684068E7
:1057B000002808D00A49096888880A49096800222F
:1057C0004B680121984703F01BFB2046012148400C
:1057D000C6E70120C4E70020C2E7000018DBFF1F76
:1057E00034DBFF1F2CDBFF1F7FB50446A078801F32
:1057F0000300FFF709F90AECFDFD8B2506FDFD7995
:105800009FFD25468948006800280DD0874800681C
:105810000068002808D06B7B2A7B69898348006870
:105820000668E81CB0470AE0698981480068FFF70C
:105830001BF9002803D068890121FFF71BF9F2E06A
:105840002546687800283ED1A879C007C00F0028F7
:1058500039D078480068002835D10E2200216846EA
:10586000FFF7EAF86869002807D068690146103137
:1058700006226846FFF7D4F80DE0A888FFF700F984
:105880000646002E05D00622B11D6846FFF7C8F86F
:1058900000E0C8E000BF69468889A9790422114068
:1058A00089080843694688812946684603F0BCFA9E
:1058B000002807D1022160480078FFF799F80020FE
:1058C00004B070BD00BF5948006800280BD057488D
:1058D00000684068002806D06A78A888534909689B
:1058E0004B68012198479EE02546504800680028F3
:1058F0000BD04E4800684068002806D06278A8881F
:105900004A4909684B68022198478CE02546E878A7
:105910000022291D00F0AEF806460A2E09DA3146AB
:10592000062251432531C8B22A460C32042106F022
:1059300075FE78E0254641480078002805D0A88803
:105940003F490978FFF796F840E03E480078002884
:1059500004D1A8880521FFF78DF837E0A888FFF764
:105960008FF80646A87AC007C00F002817D0002E6F
:1059700014D07079002812D0A8898005C00F0028A3
:105980000DD1707902AAB11D00F074F8002804D17D
:10599000A8880321FFF76EF845E000E043E0717945
:1059A000A8882A46083203F005FB20480068002832
:1059B0000BD01E4800684068002806D0A8881B4904
:1059C000096800224B681146984700BF2BE0FFF79B
:1059D0005DF8002825D11C48007801280CD103F07F
:1059E0000AFC0020184908700A220021174800E02C
:1059F00018E0FFF721F80FE000250BE01348405DA9
:105A0000012805D1284603F007FC00200F4948551E
:105A1000681CC5B20A2DF1DB502006F0CDFD03F065
:105A20001FFD00E000BF00BF012049E72CDBFF1F86
:105A300024DBFF1F34DBFF1F18DBFF1F20DBFF1FF2
:105A400021DBFF1F19DBFF1F31DBFF1F14F9FF1FD5
:105A500010B5044605480460054801782620FEF785
:105A6000C1FF0348007801F00FF810BD2CDBFF1FC9
:105A700018DBFF1FF8B506460F4614460A25002E10
:105A800006D0012E05D0022E11D0032E29D11BE005
:105A900000BF384603F042FC05460A2D06DA002C0A
:105AA00004D0062239462046FEF7BAFF1AE03846EF
:105AB00003F076FC05460A2D05DA002C03D02146BA
:105AC000284603F087FC0DE0384603F003FD054649
:105AD0000A2D05DA002C03D02146284603F07AFC73
:105AE00000E000BF00BF2846F8BD0000F8B506463C
:105AF0000C46152000901C48864214D100250AE06F
:105B000022460221284603F03FFB002801D0002056
:105B10000090681CC5B20A2DF2DB002C02D013489D
:105B2000FEF7BAFF1DE03046FEF7AAFF0546002D3E
:105B300014D068790022A91DFFF79CFF07460A2FA1
:105B400006DA22460221384603F01EFB00200090B0
:105B5000002C02D0284603F0E3FC01E01420009062
:105B600000BF0098F8BD0000FFFF00002195FF1F57
:105B7000FEB506460D461446002002900120800224
:105B8000301A0300FEF740FF110A161F2B37434E51
:105B90005A6370ABB7C3D2E5E585E500012D06D1A8
:105BA0002078022803DC20787249087001E0182070
:105BB0000290DBE0022D03D120886F49088001E0CC
:105BC00018200290D2E0012D06D12078012803DCB4
:105BD00020786A49087001E018200290C6E0012D83
:105BE00006D12078042803DC20786549087001E09C
:105BF00018200290BAE0012D06D12078012803DC9C
:105C000020786049087001E018200290AEE0102D65
:105C100005D1102221465C48FEF702FF01E0182062
:105C20000290A3E0012D06D12078012803DC207822
:105C30005649087001E01820029097E0012D03D129
:105C400020785349087001E0182002908EE0042D5E
:105C500007D150492068884203D84F49206808601E
:105C600001E01820029081E0002D0FD1FEF70EFF19
:105C7000002807D103F0BFFA502006F09DFC03F086
:105C8000EFFB05E001204549087001E01820029073
:105C90006CE0072D20D10622611C6846FEF702FF4A
:105CA000207800226946FFF7E5FE07460A2F10DA42
:105CB000FEF7ECFE002808D1384603F0ADFA50207C
:105CC00006F07AFC03F0CCFB05E001203449C8550E
:105CD00001E00220029001E01820029046E0012D30
:105CE00006D12078012803DC20782E49087001E0D5
:105CF000182002903AE0012D06D12078092803DC13
:105D000020782949087001E0182002902EE0012D2A
:105D100009D12078072806DB2078102803DC2078BA
:105D20002249087001E0182002901FE0012D0DD1DA
:105D30001F48077820781E490870002F05D10846B3
:105D40000078012801D103F08BFB01E018200290BC
:105D50000CE0272E07DA022D05D121883046FEF708
:105D600041FE029001E00220029000BF00BF0298B5
:105D7000FEBD000019DBFF1F1ADBFF1F1CDBFF1F2E
:105D80001DDBFF1F1EDBFF1F78F8FF1F1FDBFF1F40
:105D900022DBFF1F3F420F0024DBFF1F31DBFF1F11
:105DA00014F9FF1F20DBFF1F21DBFF1F28DBFF1F74
:105DB00030DBFF1FF7B582B005460E461520019077
:105DC000174885420FD100240AE031462046049A44
:105DD00003F0CCFB002801D000200190601CC4B26D
:105DE0000A2CF2DB18E02846FEF74AFE0446002C97
:105DF0000FD060790022A11DFFF73CFE07460A2F55
:105E000006DA31463846049A03F0B0FB00200190D0
:105E100001E01420019000BF019805B0F0BD000022
:105E2000FFFF000070B505460C4600260320000267
:105E3000281A0300FEF7E8FD1D10141A20242A2E4C
:105E400032394044484E52565A5E62666A6E7278E3
:105E50007C809084888C900045480078207084E095
:105E6000102244492046FEF7DBFD7EE01022424925
:105E70002046FEF7D5FD78E040480068206074E0D9
:105E800006223F492046FEF7CBFD6EE03D480078F4
:105E900020706AE03C480088208066E03B48027839
:105EA0003B492046FEF7BCFD5FE03A4802783A499C
:105EB0002046FEF7B5FD58E038480078207054E0E1
:105EC00037480078207050E0062236492046FEF719
:105ED000A7FD4AE034480078207046E03348007857
:105EE000207042E03248008820803EE0314800883F
:105EF00020803AE030480078208036E02F48008843
:105F0000208032E02E48008820802EE02D48008836
:105F100020802AE02C480088208026E006222B4999
:105F20002046FEF77DFD20E02948008820801CE007
:105F300028480088208018E027480088208014E046
:105F400026480078207010E02548008820800CE06A
:105F500024480088208008E0272D04DA2846FEF730
:105F600065FD208000E0022600BF00BF304670BD06
:105F7000C6DBFF1F34F9FF1F44F9FF1FC8DBFF1FFB
:105F8000CCDBFF1FD2DBFF1FD4DBFF1FD6DBFF1FE5
:105F9000D7DBFF1FF6DBFF1F54F9FF1FF7DBFF1FE7
:105FA000F8DBFF1FF9DBFF1FFFDBFF1F00DCFF1F1C
:105FB00002DCFF1F08DCFF1F10DCFF1F12DCFF1FCD
:105FC00014DCFF1F16DCFF1F18DCFF1F0ADCFF1F9D
:105FD0001ADCFF1F1CDCFF1F1EDCFF1FC5DBFF1FC1
:105FE00004DCFF1F06DCFF1F10B5044613480470D5
:105FF000002013490870401E124908800F4800789D
:10600000FEF756FD042010490870102200210F48A9
:10601000FEF712FD102200210D48FEF70DFD0020B5
:106020000C4908600C4908700C49087001200C49A3
:10603000087000200B49087010BD0000C4DBFF1F72
:10604000C5DBFF1F02DCFF1FC6DBFF1F34F9FF1F8C
:1060500044F9FF1FC8DBFF1FF7DBFF1FF8DBFF1F43
:10606000FFDBFF1F00DCFF1FFEB506460C460120CC
:10607000C0032040002810D047480078FEF79AFC63
:10608000051E05D0284603F03FFD2846FEF798FC84
:1060900020460121C9034840FEBD01208003204065
:1060A000002804D02046012189034840F4E7E00796
:1060B000C00F00283ED039480078002836D0384834
:1060C0000078052803D10320694608700CE03548A4
:1060D00001786846017034480178684641700622AC
:1060E0003249801CFEF79CFC3148017868460172F9
:1060F0003048017868464172694627480078FEF7C3
:10610000DDFC002811D00720254908702A480068C6
:1061100000280AD0284800680068002805D02648D2
:10612000006801681E480078884700BF20460121AA
:106130004840B1E702202040002816D018480078D7
:1061400005280ED11D480088FEF7BEFC1C480088BB
:10615000002806D01A48028802210F480078FEF76E
:10616000B9FC20460221484096E704202040002840
:1061700006D0002003F064FD2046042148408BE750
:1061800008202040002805D003F00CFB2046082101
:10619000484081E700207FE7C4DBFF1FD2DBFF1F01
:1061A000C5DBFF1FF7DBFF1FF8DBFF1FF9DBFF1F5E
:1061B000FFDBFF1F00DCFF1F24DCFF1F02DCFF1FD3
:1061C00008DCFF1FF8B504460D4617461E46174863
:1061D0000078052801D01420F8BD062C23DB1920F7
:1061E000C00184421FDA062D1DDB85421BDAFF2029
:1061F000F530874217DA0A2E15DB1920C0018642D6
:1062000011DA0B4804800B4805800B4807800B48C7
:106210000680069803F014FD042109480078FEF773
:106220005FFC0020D8E71820D6E70000C5DBFF1F81
:1062300012DCFF1F14DCFF1F16DCFF1F18DCFF1F22
:10624000C4DBFF1FF8B506460C461546002000903B
:10625000BA4830180300FEF7D7FB190E1924FD2D9C
:106260006A738DA7B3BFCAD6FDE2FCFBFAF9F8FD4D
:10627000FDFDFDF7FD00102C05D110222946B04888
:10628000FEF7CEFB01E01820009054E1102C05D160
:1062900010222946AB48FEF7C3FB01E0182000900E
:1062A00049E1042C03D1A8492868086001E01820BE
:1062B000009040E1012C37D1A44807782878A34901
:1062C0000870002F14D008460078002810D1A0488C
:1062D0000078022807D09E480078062803D09C4802
:1062E000007804281FD19B480078FEF7FFFB1AE0D6
:1062F000002F18D195480078002814D094480078D1
:1063000001280BD092480078032807D090480078E5
:10631000052803D08E480078042804D101218D4837
:106320000078FEF765FB01E01820009003E1022CE5
:1063300003D128888849088001E018200090FAE0FD
:106340001F2C14DC1F2200218448FEF775FB224617
:1063500029468248FEF764FB814804707F4B224641
:1063600001217C480078FEF7C7FB009001E018206F
:106370000090E0E01F2C14DC1F2200217948FEF77A
:106380005BFB224629467748FEF74AFB76480470B5
:10639000744B027800216F480078FEF7ADFB009047
:1063A00001E018200090C6E0012C06D128780428CE
:1063B00003DC28786D49087001E018200090BAE0ED
:1063C000012C06D12878032803DC28786849087056
:1063D00001E018200090AEE0062C05D106222946E7
:1063E0006448FEF71DFB01E018200090A3E0012C9B
:1063F00006D12878072803DC28785F49087001E077
:106400001820009097E0012C06D12878032803DC9F
:1064100028785A49087001E0182000908BE0022C7F
:1064200019D128885649088008460088002814D0C9
:1064300047480078052810D10846028802214548BF
:106440000078FEF747FB08E04EE03EE030E020E059
:1064500010E003E062E0182000906CE0012C06D10F
:106460002878012803DC28784649087001E01820C4
:10647000009060E02888022C08D1062806DB19214C
:10648000C901884202DC4049088001E018210091DE
:1064900051E02888022C08D1062806DB1921C90101
:1064A000884202DC3949088001E01821009142E06D
:1064B0002888022C06D1FF21F531884202DA3449BE
:1064C000088001E01821009135E02888022C08D1CD
:1064D0000A2806DB1921C901884202DC2D490880FF
:1064E00001E01821009126E02F78012C13D1012F13
:1064F00011D1082117480078FEF704FB002807D1C6
:1065000003F09EFB042113480078FEF7E9FA04E04B
:106510001620009001E0182000900CE0272E07DAEA
:10652000022C05D129883046FEF75CFA009001E084
:106530000220009000BF00BF0098F8BDFFFCFFFFE5
:1065400034F9FF1F44F9FF1FC8DBFF1FD2DBFF1F19
:10655000C5DBFF1FC4DBFF1FD4DBFF1FD7DBFF1F23
:10656000D6DBFF1F54F9FF1FF6DBFF1FF7DBFF1F12
:10657000F8DBFF1FF9DBFF1FFFDBFF1F00DCFF1F46
:1065800008DCFF1F10DCFF1F12DCFF1F14DCFF1FE5
:1065900016DCFF1F18DCFF1F10B504460648007804
:1065A000002807D1002C01D00448046003F030FB20
:1065B000002010BD1120FCE7C5DBFF1F24DCFF1FFE
:1065C00010B507480078052807D11322054801882F
:1065D00005480078FEF79CFA10BD1220FCE7000089
:1065E000C5DBFF1F02DCFF1FC4DBFF1FF8B507463A
:1065F0000C461E4602252300FEF706FA0A0F06087F
:106600000C090F0D0F0B0E0F002508E007E0002509
:1066100005E004E003E002E001E0022500BF00BF66
:10662000002D0FD121463846FEF778FA0546002D99
:1066300008D13046079A0699FEF776FAFEF77AFAFD
:10664000FEF77EFA2846F8BD70B504460025E0073F
:10665000C00F002805D0044A0421044800F01AFAAB
:106660000546284670BD000034D7FF1FD4DAFF1F4F
:1066700010B504460F4804700F49104800F024F884
:1066800000200AE00021C943C2000D4B99520021AD
:10669000C200D2185160411CC8B20128F2DB0120AF
:1066A00004F01CF803480078FEF750FA0548FEF79E
:1066B00053FA10BDB4DAFF1FCADAFF1FFFFF000054
:1066C000B8DAFF1FF99DFF1F70B506460C4610484B
:1066D00086420ED1002009E00021C9438200A15268
:1066E0000021820012199170411CC8B20228F3DB0C
:1066F0000CE02146304603F032FB0546002D04D065
:106700000020C04328800020A87000BF70BD00009A
:10671000FFFF0000FFB581B00C4615461F46002064
:1067200000900A98002826D1022F21D12878697874
:106730000902401886B231460B988143002914D1D2
:10674000E168019800F092F9B04210D03246E16859
:10675000019800F025FA00900098002807D161897F
:106760003246019800F0B0F901E08020009004E08A
:106770000D20009001E00B200090009805B0F0BDC6
:1067800070B506460C460120C0032040002816D0F4
:106790000C480078FEF70EF9051E0BD02878B028BB
:1067A00003D1284603F03CFC00E000BF00BF2846B0
:1067B000FEF706F920460121C903484070BD0020BC
:1067C000FCE70000B4DAFF1FFFB587B00D461C469A
:1067D000109E002006900590287A1021084000287D
:1067E00014D0099803F0B0FA0746002F05D00A220A
:1067F00029460798B847059001E00E2005900598B6
:10680000002802D005980BB0F0BD00BF2878022800
:106810007ED168680078696849780902401880B2BA
:106820000490292212020498811A904271D009DC46
:106830008B49401A0FD001280ED0022848D00328D7
:1068400068D118E0012966D002297DD003297CD0C7
:106850000429F5D1C9E000BF1198002808D1EF68DC
:10686000387830703A7820467968FEF7D9F801E038
:106870000B200590D6E01198002826D10120307019
:10688000E868007820706989491C88B20021FEF709
:1068900069F90746002F0FD031783878801C081826
:1068A0003070B87A607078890012A0703A78E01C75
:1068B0007968FEF7B5F807E03078001D30700422E3
:1068C0000021601CFEF7B8F801E00B200590A9E05C
:1068D0001198002844D1E8680088019004203070A5
:1068E0000198207001980012607003A90198FEF7CA
:1068F00039F90746002F29D0F868009002AB6846A6
:10690000828958493846FEF733F900280ED103E052
:106910008AE039E083E046E03B78022152487A6819
:10692000FEF72CF9002801D1401E02900098007853
:10693000022808D1009802224168201DFEF770F855
:106940003078801C307003E00DE01EE0019802906A
:1069500068460089A070684600890012E07001E076
:106960000B2005905EE0119800280AD1E96807988D
:1069700000F07CF8074602203070277038126070F3
:1069800001E00B2005904DE000BF1198002807D1D1
:10699000E96808880221317020700112617001E0FD
:1069A0000B2005903EE0E868FEF7EEF8C7B21198BC
:1069B000B84217DC1198B84201D1002709E01299BA
:1069C00011984018B84201DA129F02E01198381A63
:1069D000C7B23770EA68119811183A462046FEF798
:1069E0001FF801E0072005901CE01198002813D142
:1069F000E8680721317001782170417861708178F1
:106A0000A17041880912E170017921718179617168
:106A1000C1880912A17101E00B20059002E001205C
:106A2000069000BF00BF01E00120069006980128F3
:106A300013D1099803F0B8F90746002F0AD012992C
:106A40001198334622460191009029460798B8478D
:106A5000059001E00E20059000BF0598D3E60000E8
:106A600000280000FFFF00001E7C010070B50546F5
:106A70000E463146284603F072F90446002C01D038
:106A8000A07870BD0020FCE7014908707047000045
:106A9000B5DAFF1FFEB504460F461646002C0FD090
:106AA000019468460780FEF775F80546002D06D16B
:106AB000002E04D06089314603F0E8FD054600E071
:106AC00002252846FEBD0000F8B505460E461746CD
:106AD0000C480078FF2813D00A20FEF761F804461E
:106AE000002C0CD0B12020700020607020716580D7
:106AF000E6802781214603480078FEF757F800BF5B
:106B0000F8BD0000B5DAFF1F70B504460D46084910
:106B10002046FFF7ABFF064602203040002804D095
:106B200029462046FEF748F870BD0120FCE700002A
:106B3000CADAFF1F7CB505460E4614466846047146
:106B40002004010E684641710020022301AA31464B
:106B50000090284600F001F87CBDFFB583B00D46DB
:106B60001E4602A92846FDF7FDFF01900198002866
:106B700011D06846008903F033F90746002F08D08A
:106B80000C98F3B20090059A01990398B84704460F
:106B900000E00E2400E00124204607B0F0BD000014
:106BA000F8B505460F4616463946284603F0D7F88D
:106BB0000446002C09D13946054803F0D0F80446B4
:106BC000002C01D11120F8BD2580A6700020FAE725
:106BD000FFFF000070B504460025E007C00F002845
:106BE00005D0044A07210448FFF754FF054628460C
:106BF00070BD000048D7FF1F54DBFF1FF8B50646E5
:106C00000C46154600273300FDF7FEFE0805143C30
:106C10003C1C3C26313C152C0ADC162200211C4869
:106C2000FDF70AFF224629461948FDF7F9FE00E064
:106C3000182729E0022C03D128881649088000E093
:106C4000182721E0082C05D1082229461248FDF713
:106C50004FFE00E0182717E0012C06D10F492878D5
:106C6000CA69283103F024FE00E018270CE0012C4B
:106C700006D10A492878CA6B483103F019FE00E0B2
:106C8000182701E0022700BF00BF3846F8BD00000A
:106C90001EF9FF1F46DBFF1F4ADBFF1F54DBFF1FF0
:106CA000002805DBC206D20E01219140014A116085
:106CB0007047000000E100E010B5002819DB1A4A17
:106CC00003231B02D21883089B00D2588307DC0ED3
:106CD000FF23A3409A438B071B0E8407E40EA340B7
:106CE0001A43114B032424021B198408A4001A51CF
:106CF00018E00E4A03071B0F083B9B089B00D25865
:106D00008307DC0EFF23A3409A438B071B0E8407E7
:106D1000E40EA3401A43054B0407240F083CA408C3
:106D2000A4001A5110BD000000E100E01CED00E0DD
:106D300010B5002819DB1A4A03231B02D218830856
:106D40009B00D2588307DC0EFF23A3409A438B0796
:106D50001B0E8407E40EA3401A43114B03242402A4
:106D60001B198408A4001A5118E00E4A03071B0FD0
:106D7000083B9B089B00D2588307DC0EFF23A340EF
:106D80009A438B071B0E8407E40EA3401A43054B5E
:106D90000407240F083CA408A4001A5110BD0000E9
:106DA00000E100E01CED00E010B5002819DB1A4AF4
:106DB00003231B02D21883089B00D2588307DC0EE2
:106DC000FF23A3409A438B071B0E8407E40EA340C6
:106DD0001A43114B032424021B198408A4001A51DE
:106DE00018E00E4A03071B0F083B9B089B00D25874
:106DF0008307DC0EFF23A3409A438B071B0E8407F7
:106E0000E40EA3401A43054B0407240F083CA408D2
:106E1000A4001A5110BD000000E100E01CED00E0EC
:106E2000F8B50446002003460A5C8507ED0EAA402B
:106E30001343401C0428F7DB01F0F4FA0028FBD1CF
:106E400001F0BAFC21022004090E0843FF273F028B
:106E500021463940084372B600211A4DA960194EE7
:106E60000002803E801C3060336062B601F0DAFAC6
:106E70000028FBD101F090FC112000062018694683
:106E80002A695207FCD572B60422AA6004020204E1
:106E9000240E2243384002431002C01C306062B608
:106EA00028694007FCD53078087030784870307811
:106EB00088703078C8700098984201D00020F8BDE2
:106EC0000120F8BD800008110148024908607047A0
:106ED00040787D0180DDFF1FF8B506460027FDF7ED
:106EE00071FE05460AE0FDF76DFE0446AC4201D393
:106EF000601B02E00348401B00190746B742F2D36B
:106F0000F8BD0000FFFFFF0008B500020091000A75
:106F100004226946FFF784FF002800D0012008BD45
:106F20000FB410B504A9074B02AA039800F01EF88D
:106F3000044602A9002000F0FFF8204610BC08BC5F
:106F400004B018473971FF1FEFF30380704702E068
:106F500008C8121F08C1002AFAD1704770470020E4
:106F600001E001C1121F002AFBD17047FFB58DB0AF
:106F70000F460546002606E025280AD0109A0F99EC
:106F800090476D1C761C28780028F5D1304611B04A
:106F9000F0BD00240121674A009400E004436D1C09
:106FA0002B780846203B98401042F7D128782E28AD
:106FB00015D10420044368786D1C2A280AD101CF1A
:106FC0006D1C00900BE000990A22514330394018A3
:106FD0006D1C00902878014630390929F3D92878AA
:106FE000692843D006DC0028D0D063280BD0642861
:106FF00004D13BE073280FD075284CD0109A0F991C
:107000009047761C94E038786946087200204872F0
:1070100002A80190012003E0386801900020C043DD
:107020003F1D61070CD5002400E0641C00998C42D0
:107030000FDA8442F9DB0199095D0029F5D108E0F6
:10704000002400E0641C8442FCDB0199095D0029F6
:10705000F8D1361907E0019801990078491C01918F
:10706000109A0F999047641EF5D261E00A200190B2
:1070700001CF002802DA40422D2102E0210504D58B
:107080002B216A461172012103E0E10701D0202182
:10709000F7E70C9104E00A20019001CF00210C9148
:1070A0000BA90B9108E00199FDF7D8FC0A460B9952
:1070B0003032491E0B910A700028F4D10B9803A9B5
:1070C000081A20300190600701D5009801E00120E6
:1070D00000900199884203DD01460198081A00E0FA
:1070E00000200024009006E002A8109A005D0F998D
:1070F0009047641C761C0C988442F5DB04E0109ADF
:1071000030200F999047761C0099481E0090002966
:10711000F5DC08E00B980B990078491C0B91109A4C
:107120000F999047761C0199481E01900029F1DCC7
:107130006D1C28E7092801000A68531C0B601070B9
:10714000704701469C204058002801D1012070471B
:107150000020FCE7F8B504460E46154632A005F0BF
:1071600045FB2946304605F027FC0020009056E0FC
:10717000A020005D0300FDF747FC09060E161E2641
:107180002E363E464D006A463146204601F0BAF999
:10719000A021085542E06A463146204605F034F900
:1071A000A02108553AE06A463146204600F0FEF933
:1071B000A021085532E06A463146204600F0A8FA80
:1071C000A02108552AE06A463146204600F00FFB10
:1071D000A021085522E06A463146204600F012FB05
:1071E000A02108551AE06A463146204600F01EFAF2
:1071F000A021085512E06A463146204600F052FBB5
:10720000A02108550AE0F82001590FA005F0EEFA78
:10721000009503E00821A020015500BF00BF0098A1
:10722000A842A5D3F8BD0000616E63735F70617200
:1072300073655F6765745F61747472735F726573A1
:10724000706F6E73653A0A005061727365207374D3
:107250006174653A20446F6E652025730D0A000045
:1072600010B504460EA005F0C1FA6078C007C00F43
:10727000002804D1607804210840002800D010BD07
:107280002078022800D1FAE7082221460948FDF7B4
:107290002FFB0848001D00F05DFB00BFEFE700007A
:1072A000616E63735F70726F636573735F6E6F742B
:1072B00069660A00E4DCFF1FF8B50D461E46079F0D
:1072C000089C13A005F092FA2068B84207D100216B
:1072D0002A68501C2860B1542068401C2060226835
:1072E0000698815C0FA005F081FA2068B84208D2A8
:1072F0002168481C20600698415C2A68501C286060
:10730000B1542068B84201D90220F8BD0120FCE741
:10731000456E636F64696E67204150502049440D8B
:107320000A00000025630D0A00000000FFB581B0CF
:107330000D4616461F460A9C10A005F057FA206815
:10734000002812D12168019800F044F8002809D0E3
:107350002078296878542868401C286031880DA05E
:1073600005F044FA2068401C20602068012802D102
:10737000032005B0F0BD0120FBE70000456E636F00
:1073800064696E672041747472696275746520491E
:10739000440D0A006F66667365742025690D0A0046
:1073A00070B506460C46154604A005F01FFA0121EB
:1073B0002268501C2060A954012070BD456E636F87
:1073C00064696E6720436F6D6D616E642049440D82
:1073D0000A00000002460B0110468430C05C012800
:1073E00000D170470020FCE770B506460025002458
:1073F00007E021463046FFF7EDFF002800D06D1C66
:10740000641C002CF5D0284670BD000010B5044661
:10741000A08C002808D0A06A8000094B195809A048
:10742000E26A05F0E3F909E0A08C002806D1A06A21
:107430008000034A115806A005F0D8F910BD0000DD
:1074400050DDFF1F25733A2025730D0A0000000050
:1074500025733A20284E2F41290D0A00F7B5C6B0F2
:10746000044616462746B037002045904490439086
:10747000429041900021A02001552046FFF7B4FF23
:107480004090E01DFD303F90002E02D1022049B017
:10749000F0BD4798805D002801D00220F7E7042264
:1074A00000213F98FDF7C8FA2CE04198002806D04B
:1074B00001280BD0022816D0032821D11FE045A9AE
:1074C00020463F9AFFF76CFF41901AE042A9479887
:1074D00001960291009043AA45A920463F9BFFF7E1
:1074E000EBFE41900DE040A844A90091019043AA11
:1074F00045A920463F9BFFF719FF419001E000E0BE
:1075000000BF00BF41980328CFD101219C20015129
:107510004598142820D9459988B2FDF759FB3E902B
:10752000459A3F993E98FDF77BFA398A30A8018643
:107530004598C1B238A80175227838883CA9FDF772
:107540004DFB0546002D06D0294613A005F04EF947
:107550003E98FDF749FB1DE000A80330459A3F998E
:10756000FDF75EFA002138A8C1750176398A6846B0
:1075700001804598C1B26846817022783888694692
:10758000FDF748FA0546002D03D0294602A005F074
:107590002DF900BF00207AE7435020575249544547
:1075A000204552524F523A0925640A0030B503462D
:1075B0001468601C10600C5DAC20C5581846D030B3
:1075C0004455AC20C4581846D030005D002806D081
:1075D000AC20C058401CAC24E050022030BD032039
:1075E000FCE710B5FDF706FB0120FDF709FBFDF7F1
:1075F0000DFB002010BDF0B500248E464A1E12E09F
:10760000714600230D1B6D1E0AE09E0031188C464A
:10761000875949688F4202D9815161464F605B1C8E
:107620009D42F2D8641C9442EAD3F0BD70B5044682
:107630000E46154694200159F420005900010818FF
:107640000189A820005B814214DDA820015BF020A5
:10765000005B81420EDA2968481C2860705CA82112
:10766000095BA822125B521C93B2A8221353F82282
:1076700012595054A820015BF020005B81420BD0CE
:1076800094200159F4200059000108180089401E77
:10769000A821095B88422DD12146CC31204600F03B
:1076A0009BF8002805D00021F8200259A820005B93
:1076B0001154A820015BF020005B814201DA072011
:1076C00070BD0DA005F092F82146CC31204600F0A7
:1076D00083F8002805D0FF20353001592046FC30C2
:1076E00088472046FFF72DFD002801D00820E7E756
:1076F0000320E5E70620E3E741747472696275745C
:10770000652066696E6973686564210D0A00000072
:1077100070B504460E4615462968481C2860715C01
:10772000F4200151015998200059814204D315A039
:1077300005F05CF8082070BD94200159F420005930
:1077400000010818C168F82001512046FFF7F9FC34
:10775000002804D011A005F049F80820EBE72146E5
:10776000CC31204600F038F8002804D09C20005985
:10777000401E9C210851F420015912A005F036F852
:107780000420D8E7417474726962757465204944B5
:1077900020496E76616C69642E0D0A00416C6C2084
:1077A0007265717565737465642061747472696261
:1077B000757465732072656365697665642E200D46
:1077C0000A0000004174747269627574652049444E
:1077D000202569200D0A00000246942080588B6AFB
:1077E0001B01C05C012800D170470020FCE710B5E8
:1077F00003461468601C10600C5DF020C452052024
:1078000010BD000070B504460E4615462968481C98
:107810002860705C0002F021095B0843F0210853E6
:107820000021A8200153F020005B002815D09420EF
:107830000159F4200059000108180089002808D0D7
:1078400094200159F420005900010818C06800284C
:1078500001D1072070BD0620FCE7F020015B0CA0E1
:1078600004F0C4FF2146CC312046FFF7B5FF0028C5
:1078700005D0FF20353001592046FC30884720468E
:10788000FFF75FFC002801D00820E3E70320E1E7D1
:10789000417474726962757465204C454E20256987
:1078A000200D0A0070B504460E461546A820015B5F
:1078B000F020005B814208DAA820005B401C81B206
:1078C000A82001532868401C2860A820015BF020F4
:1078D000005B814215D12146CC312046FFF77CFF69
:1078E000002805D0FF20353001592046FC3088475C
:1078F0002046FFF726FC002801D0082070BD032099
:10790000FCE70720FAE7000030B503460A4C0029DF
:1079100001D1022030BD002A01D0202A01DD0B2038
:10792000F8E701201D0160551801001902811801B6
:107930000019C1600020EDE778F9FF1F70B504461B
:107940000D462A4621460248FFF788FD70BD00001B
:1079500074F9FF1F10B504462146024804F0F4FBF9
:1079600010BD000074F9FF1FF8B50446104D2E46F7
:10797000B036A878012803D1204600F089F815E038
:1079800020791B2802D020791D280ED1277A7089F2
:10799000B84203D1204600F02BF805E0B08AB84287
:1079A00002D1204600F018F800E000BF0120F8BD29
:1079B00074F9FF1F70B504460D46064EFF2239329A
:1079C00000213046FDF738F83570FF2035308451FE
:1079D000002070BD74F9FF1F70B50446034DA27AF4
:1079E00021460B312846FFF7B5FB70BD74F9FF1F28
:1079F000F0B585B00546184EAF7A082F07D017A00E
:107A000004F0F4FE16A004F0F1FE05B0F0BD2C4623
:107A10000B3421786846017061784170A1788170DB
:107A2000E178C1702179017161794171A179817128
:107A3000E179C17103900821417202210172FF2096
:107A400035308059002804D0FF203530815902A8F4
:107A5000884700BFD9E7000074F9FF1F0A00000043
:107A60004572726F7220657674206C656E0A000034
:107A700070B50546054C2646B0363580012060704D
:107A8000A070002000F004F8002070BD74F9FF1F02
:107A9000F0B585B00446D24E3546B035002004908E
:107AA00070780C287ED243007B449B885B009F4407
:107AB0000B001100390065009A0018013E016D01AC
:107AC0009301B503CF03E803C6A004F08FFE0120A5
:107AD00005B0F0BDC9A004F089FECEA004F086FE7A
:107AE0000020A8800021E980D3A001460EC9C0680B
:107AF0006F460EC703903378288810226946FDF739
:107B00008BF80746002F04D1022070700020A87067
:107B100007E03946CCA004F069FEFF207070012018
:107B20000490C2E3D3A004F061FE2179D7A004F051
:107B30005DFE2079072815D1217ADFA004F056FEDA
:107B4000207A002806DD6089A880A189E9800320C9
:107B5000707012E0DBA004F049FEFF20707002207C
:107B600004900AE02179E0A004F040FED5A004F0E2
:107B70003DFEFF2070700220049096E3E4A004F024
:107B800035FEE9A004F032FE2079072826D12179BC
:107B9000D5A004F02BFE60781A2823D1A8880028ED
:107BA00020D000E07CE3E88800281BD03378EA8806
:107BB000A98828880390FDF735F807460020287229
:107BC000002F02D10420707007E03946E3A004F0D2
:107BD0000DFEFF2070700320049003E02179C2A005
:107BE00004F004FE61E3E8A004F000FEECA004F061
:107BF000FDFD2079092863D1607A152858D12046E7
:107C00000A300390002000904DE02F460A37039879
:107C1000C078039909790902401880B2029003984C
:107C20004079039989790902401880B20190EBA04C
:107C3000019A029904F0DAFDF349019840180028EE
:107C400009D0F249401800280FD0F049603140189F
:107C500000280FD104E002983880002078800AE0E4
:107C60000298F8800020388105E002987881002091
:107C7000B88100E000BF00BF287A401C2872287A33
:107C8000032809D100F0A8FD04900498002801D130
:107C9000052000E0FF2070700398153003900098D5
:107CA000401CC0B20090217A00988142ADDC17E000
:107CB000D7A004F09BFDFF207070062004900FE019
:107CC000217989A004F092FD2079012808D1274666
:107CD00008373B787A883979D6A004F087FD00BF51
:107CE000E3E2DCA004F082FDE0A004F07FFD207957
:107CF00009281BD160781A2818D13378AF897F1EE4
:107D0000BAB269892888FCF793FF0390039800288A
:107D100002D10620707008E0E3A004F067FD0020A7
:107D20006881FF2070700720049000BFBDE2E5A0CD
:107D300004F05CFDE9A004F059FD2079052824D168
:107D4000207A002821DD607A01281ED1002018E069
:107D5000830022460A329A189378870022460A3214
:107D6000BA18D27812029A1891B2EC4A914206D10E
:107D7000830022460A32D35AEB8107227270411CDB
:107D8000C8B2217A8142E3DC00BF8EE2E4A004F0B5
:107D90002DFDE9A004F02AFD207905281BD160788B
:107DA0001A2818D13378EA8AAF8A7F1CB9B228889A
:107DB000FCF73EFF03900398002802D10820707062
:107DC00008E0EAA004F012FD00212983FF20707072
:107DD0000820049000BF68E2EBA004F007FDDFE19B
:107DE00074F9FF1F446973636F766572792050726E
:107DF0006F67726573733A09310A000044697363EF
:107E00006F766572792050726F67726573733A0985
:107E1000320A0000446973636F7665727920537487
:107E20006174653A09446973636F7665722074689A
:107E30006520414E43530A00D0002D121E4B0FA463
:107E4000994ECEB531F40579414E43535F444953C1
:107E5000435F53455256494345204641494C55528C
:107E6000452C204572726F7220636F64653A092554
:107E7000640A0000446973636F76657279205072FA
:107E80006F67726573733A09330A0000446973635C
:107E90006F766572792053746174653A0953746F13
:107EA00072652074686520414E43532068616E649A
:107EB0006C65732025640A00666F756E64203A2530
:107EC000640A0000414E43535F53544F52455F5381
:107ED0004552564943455F48414E444C4553204620
:107EE00041494C5552450A00626C655F6469736391
:107EF0005F736572766963652D3E704D73672D3EC5
:107F00006D6574686F643A20307825780A00000047
:107F1000446973636F766572792050726F6772651A
:107F200073733A09340A0000446973636F766572AB
:107F3000792053746174653A09446973636F766597
:107F4000722074686520414E4353206368617261FA
:107F5000637465726973746963730A00414E4353B5
:107F60005F444953435F4348415253204641494C83
:107F70005552452C204572726F7220636F64653ACA
:107F80000925640A00000000446973636F76657216
:107F9000792050726F67726573733A09350A000071
:107FA000446973636F766572792053746174653ABE
:107FB0000953746F72652074686520414E435320E5
:107FC000636861726163746572697374696373274E
:107FD0002068616E646C65730A000000436861721A
:107FE0007320666F756E642068616E646C652069CD
:107FF000732069732025642C20757569642069736A
:108000002025780A0000000043E2FFFFC2A1FFFF25
:10801000414E43535F53544F52455F43484152537F
:108020005F48414E444C4553204641494C555245CA
:108030000A0000004154545F4552524F525F525360
:108040005020307825782C20307825782C203078F6
:1080500025780A00446973636F76657279205072DF
:108060006F67726573733A09360A00004469736377
:108070006F766572792053746174653A0944697347
:10808000636F76657220746865204E6F74696669E7
:10809000636174696F6E20536F7572636527732017
:1080A000434343440A000000414E43535F44495355
:1080B000435F4E535F4445534353204641494C551B
:1080C00052450A00446973636F7665727920507275
:1080D0006F67726573733A09370A00004469736306
:1080E0006F766572792053746174653A0953746FC1
:1080F000726520746865204E6F7469666963617487
:10810000696F6E20536F7572636527732043434315
:10811000442068616E646C650A000000022900005A
:10812000446973636F766572792050726F67726508
:1081300073733A09380A0000446973636F76657295
:10814000792053746174653A09446973636F766585
:108150007220746865204461746120536F75726386
:1081600065277320434343440A000000414E4353B4
:108170005F444953435F44535F4445534353204650
:1081800041494C5552450A00446973636F766572E4
:10819000792050726F67726573733A09390A00006B
:1081A00047A004F023FB2079052836D10020039056
:1081B000207A002830DD607A01282DD1002718E0D0
:1081C000BA0021460A3151188A78BB0021460A318B
:1081D0005918C9780902511888B24749884206D10E
:1081E000BA0021460A318A5A2A8301210391781C58
:1081F000C7B2207AB842E3DC0398002809D13FA037
:1082000004F0F4FA00212983FF2070700920049003
:1082100001E00920707000BF00BF46E0207905280A
:1082200015D160781A2812D1E8890121FDF7F8F8F4
:108230000746002F09D03BA004F0D8FA002129837B
:10824000FF2070700A2004902FE00A20707000BF99
:108250002079132814D1288B0121FDF7E1F8074676
:10826000002F09D02FA004F0C1FA00212983FF209C
:1082700070700A20049018E00C2070700220B0701A
:1082800013E0207913280AD10C2070700220B070FE
:108290002CA004F0ABFA31A004F0A8FA05E000BF6E
:1082A000FF2070700B20049000BF00BF04980028CE
:1082B00003D036A0049904F099FA049808E4000069
:1082C000446973636F766572792053746174653A9B
:1082D0000953746F7265207468652044617461206D
:1082E000536F75726365277320434343442068616D
:1082F0006E646C650A00000002290000414E435381
:108300005F53544F52455F44535F44455343535F5B
:1083100048414E444C4553204641494C5552450A2C
:1083200000000000414E43535F444154415F5352AB
:10833000435F48444C5F43434344204641494C55C6
:1083400052450A00446973636F76657279205072F2
:108350006F67726573733A0931320A004469736357
:108360006F766572792053746174653A0950726F43
:1083700063657373696E67206E6F746966696361A4
:1083800074696F6E20646174610A000044697363EC
:108390006F766572792053746174653A0944697324
:1083A000636F76657279204572726F723A20256428
:1083B0000A00000001880905090D00290ED1016895
:1083C00010310160064A127812030168914205D308
:1083D000034A127812030168891A0160704700008D
:1083E00074DDFF1F10B50020054CFF212218401C32
:1083F00051704028FADB04F0E5FC207010BD00004D
:1084000008FFFF1F10B50020054CFF212218401C5B
:1084100051700628FADB04F0F3FC207010BD000058
:1084200089DDFF1F084801694907FCD501218160EA
:108430000549052280390A7002695207FCD508787F
:10844000C007C00F7047000080000811F0B58646D5
:10845000080CFF268446002388B237461C4619467E
:1084600001228A4005461540CD402C19A4B2FF2FA9
:1084700002D1012C00D18FB265462A40CA40D218E1
:1084800093B2FF2E02D1012B00D18EB2491C1029CC
:10849000E6DB012C02D0102C08D009E0012B07D11B
:1084A0003001C019714608700220F0BD102B01D0B8
:1084B0000320F0BD0120F0BD032800DA7047012140
:1084C0008907896801228240114301229207916045
:1084D00000BFF3E701480068704700001010FF1F5D
:1084E00001218907096801228240914301229207F4
:1084F000116011460968012282401143012292074E
:1085000011607047F8B504460F4615462968481CA7
:108510002860795CA12001552046CC30FF21013133
:108520000851A120005D002802D0012817D10AE0DF
:108530000321FC200155201D942108510821982079
:108540000151012610E00421FC2001552046843011
:1085500094210851012198200151022604E004A031
:1085600004F044F9082600BF00BF3046F8BD000003
:10857000496E76616C696420436F6D6D616E642035
:1085800049440000FFB583B00F461D460D9E0C9C6C
:1085900000200290786800787968497809024018CC
:1085A00080B20190714A0198811A904268D00ADC29
:1085B0006F49401800280FD0012822D0022835D05A
:1085C000032872D147E0012973D002296FD0032913
:1085D0006ED02929F5D1ABE0082C02D307200290F8
:1085E0000EE00820001BB04201D9304601E008200F
:1085F000001B28702A785F4801190598FCF710FACB
:10860000B0E00C2C02D3072002900EE00C20001BDF
:10861000B04201D9304601E00C20001B28702A78B6
:10862000554801190598FCF7FBF99BE00D2C02D386
:10863000072002900EE00D20001BB04201D9304609
:1086400001E00D20001B28702A784C48011905987C
:10865000FCF7E6F986E0112C02D3072002900EE029
:108660001120001BB04201D9304601E01120001B4F
:1086700028702A78424801190598FCF7D1F971E071
:10868000112C02D3072002900EE01120001BB042F3
:1086900001D9304601E01120001B28702A783948A2
:1086A00001190598FCF7BCF95CE056E001E015E023
:1086B00029E0112C02D3072002900EE01120001BAC
:1086C000B04201D9304601E01120001B28702A7801
:1086D0002D4801190598FCF7A3F943E0112C02D3AA
:1086E000072002900EE01120001BB04201D9304655
:1086F00001E01120001B28702A78244801190598F0
:10870000FCF78EF92EE00E2C02D3072002900EE02B
:108710000E20001BB04201D9304601E00E20001BA4
:1087200028702A781A4801190598FCF779F919E098
:10873000072C02D3072002900EE00720001BB04256
:1087400001D9304601E00720001B28702A78114823
:1087500001190598FCF764F904E0002028700A204C
:10876000029000BF00BF029807B0F0BD272A0000AA
:10877000DDD5FFFF6DD9FF1FACD6FF1FB9D6FF1F98
:10878000C7D6FF1FD9D6FF1FEBD6FF1FFDD6FF1F91
:108790000FD7FF1F7DD9FF1F064801694907FCD588
:1087A00000218160034A0421803A11700169490760
:1087B000FCD5704780000811064801694907FCD5BF
:1087C00000218160034A0621803A1170016949073E
:1087D000FCD5704780000811FEB500200290494882
:1087E0000190B0300090009804460A342588E6884D
:1087F0006789BE4201DA304600E03846A84206DD0D
:10880000BE4201DD384600E03046608010E0BE42E6
:1088100001DA384600E03046A84206DDBE4201DDFE
:10882000304600E03846608002E00098C0886080F2
:10883000BD4201DA284600E03846B04206DDBD42BE
:1088400001DD384600E02846208110E0BD4201DA13
:10885000384600E02846B04206DDBD4201DD28462C
:1088600000E03846208102E00098C0882081B542AF
:1088700001DA284600E03046B84206DDB54201DDA7
:10888000304600E02846A08110E0B54201DA3046CB
:1088900000E02846B84206DDB54201DD284600E08A
:1088A0003046A08102E00098C088A081208800287E
:1088B0001ED0E08800281BD06089002818D02088AE
:1088C000618888420BDAE0882189884207DA60896A
:1088D000A189884203DA0CA003F088FF10E010A001
:1088E00003F084FFFF21019841700420029007E00B
:1088F0000BA003F07BFFFF2101984170052002903F
:108900000298FEBD74F9FF1F416C6C2063686172B0
:108910007320646973636F7665726965640A000029
:10892000414E43535F53544F52455F434841525366
:108930005F48414E444C4553204641494C555245B1
:108940000A00000003460002012100B5000A4903A5
:1089500088421BD3FFF766FD0028FBD1FFF72CFFF1
:108960000B490020886019021804090E0843FF21F2
:1089700009020B4018430649000280392030086084
:10898000FFF750FD0028FBD1FFF706FF00BD0000F8
:108990008000081110B50446024909680819FFF75C
:1089A000D1FF10BD78DDFF1F38B5002000900D48C5
:1089B0000078002801D1272038BD002269461046E2
:1089C00000F0E2F80446002C03D1074900984882E1
:1089D00005E0212C03D101200003034948822046F1
:1089E000EAE700007CDDFF1FF4FEFF1FF0B599B041
:1089F0000024272500266048006860490860604818
:108A000000780871FF208871102048710922FF2129
:108A10005A48C01DFCF710F84E22002105A8FCF7AB
:108A20000BF800BF48E0554909682203881804F094
:108A3000A5FC07461022394601A8FBF7F1FF4F4974
:108A400001980968884224D16846007A4B4909791F
:108A500088421ED16846407A48494979884218D1EF
:108A60006846817A46480078401E81420FDA68469F
:108A7000807AA04201D1022600E003266846807A6F
:108A800005A908556846807A3C49887112E0042699
:108A900016E00198401C00280AD16846007AFF2899
:108AA00006D16846407AFF2802D105A9085501E0A1
:108AB000042605E0601CC4B230480079A042B2DC54
:108AC00000BF042E02D1202019B0F0BD2B488079C0
:108AD000FF2800D10126012E23D100240FE02748D2
:108AE000847101460968220388181022234904F082
:108AF0005BFC002801D01F20E6E7601CC4B21F48C1
:108B00000079401EA042EADC00201C490874084697
:108B10000079401E487410204882012019490870CD
:108B200027E0002406E005A8005D002800D105E04C
:108B3000601CC4B211480079A042F4DC00BF0F48A9
:108B40000079A04215DD0D4A117912791219501ED3
:108B5000FCF774F8C8B20949487401200949087043
:108B6000FFF722FFC5B2212D03D0002D01D02A200E
:108B7000AAE70020A8E7000078DDFF1FF4FEFF1F32
:108B800074DDFF1F7CDDFF1FF7B586B00D460124A5
:108B900000200090012005901CE1974A1179537C38
:108BA000059A9818FCF74AF8C8B20490FF2C05DB28
:108BB000E01FF83884B2FF2C00DB07E1069800289C
:108BC00009D18D4A1179537C059A9818FCF736F82B
:108BD000C8B2894908740498000303900126F0E0A4
:108BE0000098012804D100200090301986B211E0CD
:108BF000012C0FDDB01E0019FF2803DA701E0019CA
:108C000086B207E0FF200230801B201A84B20120C8
:108C10000090D9E0310103980918029176490A6859
:108C20000299501804F0AAFB07460422394601A80D
:108C3000FBF7F6FE0698002804D0012831D0022860
:108C400073D168E001988003800F002804D00228C7
:108C500003D0032822D11AE000BF01980003800F3F
:108C6000012812D10199080D0C21FBF7E7FF0746F7
:108C70000199080D0C21FBF7E1FF002901D001202B
:108C800000E00020381884B200E0012407E00298D8
:108C90000005000D2860002009B0F0BD00BF00BF36
:108CA0008CE001988003800F002804D0022803D0B4
:108CB00003282DD12AE000BF01988003800F0228ED
:108CC0000AD1019880B2298889B2884204D10899D2
:108CD000029808600020DFE701980003800F012858
:108CE00012D10199080D0C21FBF7A8FF0746019945
:108CF000080D0C21FBF7A2FF002901D0012000E0A4
:108D00000020381884B200E0012402E02520C3E7E7
:108D100000BF00BF52E001988003800F002805D0FB
:108D200002282AD0032844D141E045E001980003FD
:108D3000800F012817D10199080D0C21FBF77EFF48
:108D400007460199080D0C21FBF778FF002901D097
:108D5000012000E00020381884B20C20604329680C
:108D60000818286003E0012428680C30286008985F
:108D70000068401C089908601CE001980003800FFF
:108D8000012812D10199080D0C21FBF757FF074666
:108D90000199080D0C21FBF751FF002901D001209A
:108DA00000E00020381884B200E0012402E0002036
:108DB00072E700BF00BF01E006206DE700BF701C36
:108DC00086B2FF2E00DC0BE700BF00BF0598401CF9
:108DD000C0B20590094909780598884200DADCE6B6
:108DE0000698002802D0012804D101E0212053E791
:108DF000252051E700204FE7F4FEFF1F74DDFF1F21
:108E000010B507480068002806D005480068FBF741
:108E1000D7FD0020024908600A200249087010BDF1
:108E200034DBFF1F32DBFF1F7FB504460D465D4874
:108E30000068002813D1002C01D0002D02D10120A0
:108E400004B070BD204600F069FA57490870084622
:108E500000780A2803DB00F08BFA53490870524867
:108E600000780A287EDA4F480068002823D14E494E
:108E70000978062251432031C8B222460E2103F060
:108E8000CDFB1022FF216846FBF7D6FD4649097845
:108E90007031C8B26A46102103F0C0FB424909781C
:108EA0000E225143414A88180E222146FBF7B8FD95
:108EB0003C48056071E03B4800688068002810D09D
:108EC000384909688A6838490978062359432131A5
:108ED000C8B21C2103F0A2FB002032490968886057
:108EE0005BE0304800680069002810D02D4909680F
:108EF0000A692D490978062359432231C8B21C2139
:108F000003F08CFB002027490968086145E02548EB
:108F100000684069002810D0224909684A6922493E
:108F20000978062359432331C8B2102103F076FB98
:108F300000201C49096848612FE01A480068C06891
:108F4000002820D017490968CA68174909780623FC
:108F500059432431C8B2102103F060FB114909685C
:108F6000C96800E01BE00A4610320F490978062361
:108F700059432531C8B2042103F050FB00200949B0
:108F80000968C86009E00A480078002801D000F0AC
:108F9000DBFB00F0F7FB012052E7002050E7012047
:108FA0004EE7000034DBFF1F32DBFF1F88F8FF1F96
:108FB00030DBFF1F70B588B004460D4616462022F0
:108FC00000216846FBF738FD684604804348017875
:108FD000684601714248017868464171414801780C
:108FE000684601770698400840003F490978C9075C
:108FF000C90F084306900221069888433A49097828
:109000000222114049084900114008430690D1014D
:10901000069888433449097808221140C908090292
:1090200052011140084306905100069888432E498A
:1090300009781022114009094902520111400843E0
:10904000069051000698884327490978202211404C
:1090500049098902520111400843069004210698EB
:109060008843214909780422114089088900114068
:10907000084306901A480078002805D010221B49A2
:1090800001A80230FBF7CCFC19480078002806D074
:10909000002D04D0022106988843801C0690684663
:1090A000807D13490978002901D0012100E00021C9
:1090B0000843694688756846807D0E49097800290D
:1090C00001D0042100E0002108436946887531463B
:1090D0006846FBF7B9FD08B070BD00001DDBFF1F3F
:1090E0001EDBFF1F28DBFF1F22DBFF1F78F8FF1F9F
:1090F0001FDBFF1F1CDBFF1FFFB587B00C461646AA
:109100001F46082F05D12046062148432230C5B20C
:1091100004E02046062148432130C5B21C2200212C
:109120006846FBF789FC6A461C21284603F048FA8A
:1091300000280ED16846807E07280ADB6846807EBC
:10914000102806DCF107C90F6A46109B0798FBF749
:1091500081FD0BB0F0BD000070B5002500240DE0CE
:109160000E216143074A88180622FF21FBF76AFC9B
:10917000002801D1681CC5B2601CC4B20A2CEFDB08
:10918000284670BD88F8FF1FF0B585B005460E462D
:1091900017462946062251432031C8B26A460E219D
:1091A00003F00EFA002824D10622FF216846FBF7BF
:1091B00049FC00281DD168468089C4B2002F03D025
:1091C00020463043C4B202E02046B043044668461D
:1091D0008089A0420AD068468481294606225143EC
:1091E0002031C8B26A460E2103F018FA012005B0FA
:1091F000F0BD0020FBE770B50025002405E0204607
:1092000000F00AF80546601CC4B20A2C01DA002DF1
:10921000F5D0284670BD000030B58FB004463D48FB
:10922000007884420BD101213B480078FBF718FD00
:10923000022139480078FBF713FDFFF7E1FD2146D5
:10924000062251432031C8B20BAA0E2103F0B8F90F
:1092500000285AD10622FF210BA8FBF7F3FB0028B8
:1092600053D10E22FF210BA8FBF7E6FB1C22FF21A6
:1092700004A8FBF7E1FB1022FF216846FBF7DCFBAB
:109280002146062251432031C8B20BAA0E2103F019
:10929000C5F905462146062251432131C8B204AA28
:1092A0001C2103F0BBF9054321460622514322311C
:1092B000C8B204AA1C2103F0B1F9054321460622D5
:1092C00051432331C8B204AA102103F0A7F9054382
:1092D0002146062251432431C8B204AA102103F0CA
:1092E0009DF905432146062251432531C8B204AAFF
:1092F000042103F093F9054321467031C8B26A4650
:10930000102103F08BF9054300E0002528460FB03B
:1093100030BD000032DBFF1F18DBFF1F70B50546B4
:1093200000240DE00E216143074A881806222946D1
:10933000FBF79CFC002801D0204670BD601CC4B225
:109340000A2CEFDB0A20F8E788F8FF1F03460A46DD
:10935000002108E08800105A984202D18800801845
:109360007047481CC1B20429F4DB0020F8E7000074
:1093700010B500240DE00E216143084A881806222A
:10938000FF21FBF75FFB002801D0204610BD601CC9
:10939000C4B20A2CEFDB0A20F8E7000088F8FF1FB0
:1093A00070B5054600240EE00E216143084A891875
:1093B000881D06222946FBF759FC002801D02046CB
:1093C00070BD601CC4B20A2CEEDB0A20F8E7000076
:1093D00088F8FF1F7FB504460D460A2C01DA002DE0
:1093E00002D1022004B070BD214606225143203133
:1093F000C8B26A460E2103F0E3F80646002E04D1F7
:10940000062269462846FBF70BFB3046EAE71FB504
:1094100004462146062251432031C8B26A460E2135
:1094200003F0CEF8002804D168468089C0B204B0A9
:1094300010BD0020FBE7014600200DE082008A5AA3
:10944000D2438300CA52820052189278D2438300DA
:109450005B189A70421CD0B20428EFDB7047000002
:1094600010B5002426E00E216143184BCA1821468E
:10947000062359432031C8B20E2103F0A1F8002879
:1094800016D00E216143114A88180622FF21FBF7EE
:10949000D3FA0E2161430D4A8918881D0622FF2147
:1094A000FBF7CAFA00210E206043084A8018818128
:1094B000601CC4B20A2CD6DB05480078002801D015
:1094C00000F042F900F05EF910BD000088F8FF1FBF
:1094D00030DBFF1F7FB5054600241CE02146062235
:1094E00051432331C8B26A46102103F069F80028BD
:1094F0000FD11022FF216846FBF7A4FA002808D1FB
:1095000029466846FBF7B8FB002802D1204604B084
:1095100070BD601CC4B20A2CE0DB0A20F7E7000033
:1095200010B50446608802490978FDF7EDFA10BDD0
:1095300018DBFF1F70B5054600240A480078002894
:1095400001D0012000E000200443074800780028F3
:1095500001D0042000E00020044321462846FBF708
:109560004DFA70BD1FDBFF1F1CDBFF1FF0B589B07C
:1095700006460F4614463146062251432031C8B2F2
:1095800005AA0E2103F01CF8002851D10622FF2164
:1095900005A8FBF757FA00284AD131467031C8B206
:1095A00001AA102103F00CF800283FD1009001A877
:1095B000FFF741FF002F0ED11022002101A8FBF779
:1095C00041FA002824D11022002101A8FBF734FA27
:1095D000012000901CE001A93846FFF7B7FE0546C0
:1095E000002D0AD1002C04D001A9FFF7AFFE051E03
:1095F00002D1002009B0F0BD2F80A878A04206D08B
:10960000AC70002C01D1002028800120009000BF08
:109610000098002809D001A8FFF70DFF31467031EE
:10962000C8B201AA102102F0F9FF00BF0120E1E752
:109630000020DFE710B5044620791E2804D1608899
:109640000021FCF753FA00E000BF00BF10BD70B569
:1096500004462079002806D125462A89E9886888A9
:10966000FCF7A8FB00E000BF00BF70BD70B504466A
:1096700001252078B02808D0B1280AD0D0280CD1F4
:109680002046FCF7B1F8054608E02046FFF7D2FF78
:1096900004E02046FFF7DBFF00E000BF00BF2846E4
:1096A00070BD000030B585B005462348006800282D
:1096B00009D122480223224A224900900120FBF7C7
:1096C000E1FA1D4908601C48006800282AD00220E1
:1096D000002104AA03AB009201910290174802886E
:1096E000154801682846FDF76FF800280FD1694634
:1096F000087B497B0902401884B2002C06D00E4832
:109700000068418922462846FCF754FB00BF00232D
:109710000A4802880B4908480068FBF729FA0649FD
:10972000086000BF04480068002802D1012005B08D
:1097300030BD0020FBE7000038DBFF1F3CDBFF1FD4
:10974000287C0100FFFF000010B5FBF7A1FA002400
:1097500012E00E2161430A4A88180622FF21FBF716
:1097600071F9002806D10E206043054A81180020B7
:10977000FBF794FA601CC4B20A2CEADB10BD0000AF
:1097800088F8FF1F08B5FFF7E7FC012802DD02207B
:10979000009001E00A2000906A4601210520FDF7B3
:1097A0002DFA08BD08B50E480078002815D001280C
:1097B00002D0022810D10CE0012000900948038853
:1097C000094802880948018809480088FCF7FAFC22
:1097D00004E0FCF7F5FE01E000BF00BF00BF08BDDC
:1097E00020DCFF1F18DCFF1F16DCFF1F14DCFF1F2F
:1097F00012DCFF1FF8B504460026A0780300FBF733
:1098000003F90805FE214A4B8FE3FDFE25466F78DC
:10981000002F10D10622E91CA748FBF701F901200F
:10982000A6490870A64BA74802780121A6480078EF
:10983000FBF762F90746002F02D007209F49087006
:10984000012625E12546687800281CD1E878002803
:1098500009D09E4B9E48027800219B480078FBF778
:109860004BF968700FE09548007802280BD0012171
:1098700095480078FBF746F9002804D10121924869
:109880000078FBF7B5F86878002803D007208B49EB
:1098900008700126FCE000BF2546687800283AD110
:1098A000A07803280BD185480078052803D106202D
:1098B0008249087032E00220804908702EE0854815
:1098C000008800280BD08448007800280AD08148FE
:1098D000028801217C480078FBF7FCF802E00020B8
:1098E0007D49087075480078062803D10520734922
:1098F000087013E071480078042808D101207649E7
:109900000870012170480078FBF772F806E0032028
:109910006A49087002E00720684908700126B7E02C
:1099200025466878002840D10622291D6B48FBF7A0
:1099300077F868896A490880A8896A490880E889AF
:109940006949088005205D4908706848008800283A
:1099500006D06648028802215B480078FBF7BAF817
:10996000A88963490880E88962490880288A624991
:1099700008806248007801280DD11F20FBF756F8B7
:1099800007467D20C0007843024604214E480078F7
:10999000FBF7A0F800BF6A89E8780423291DFBF7CC
:1099A00027FE00204C4908700CE06878312806D169
:1099B00000204949087003204049087002E0072050
:1099C0003E490870012663E02546062200214348EF
:1099D000FBF732F80020464908804649088046498E
:1099E0000880042138480078FBF77AF808213648C7
:1099F0000078FBF775F8A879082801E01FE046E039
:109A000003D104202D49087002E003202B4908707F
:109A1000012631480078002804D02B480078FBF755
:109A200065F807E001202C490870012126480078DC
:109A3000FAF7DEFF0020C0432949088028E02546C8
:109A4000082121480078FBF74BF8687800281DD1E1
:109A5000E888274908802889264908806889264996
:109A60000880042118480078FBF74CF800280DD135
:109A700023480068002809D02148006803681E4870
:109A800002881C4801881A480088984700E000BFF7
:109A900000BF012E0ED11B48006800280AD01948CB
:109AA00000680068002805D016480068016803486F
:109AB00000788847F8BD0000CCDBFF1FC5DBFF1F27
:109AC000D7DBFF1FD6DBFF1FC4DBFF1F54F9FF1FCF
:109AD000F6DBFF1FD4DBFF1FD2DBFF1F0ADCFF1FFB
:109AE00002DCFF1F04DCFF1F06DCFF1F08DCFF1F7A
:109AF0001ADCFF1F1CDCFF1F1EDCFF1F10DCFF1F1A
:109B000028DCFF1F24DCFF1FF8B5044620789128CD
:109B100004D0A22841D0D02861D13AE060780E2844
:109B200028D12546A8882F49884217D1A868C0782F
:109B300046B22D48007805280FD17F2E0DD02B4836
:109B40000068002809D0294800684068002804D02F
:109B5000264800684168304688470AE0A8882449BA
:109B6000884206D1A86883784278017821A002F063
:109B70003DFE0DE060780F2801D1204608E06078B6
:109B80003E2805D120468178072900D000BF00BFBC
:109B900026E02046FFF72EFE22E0254668791328AE
:109BA0001CD12E460836308801280BD11648007883
:109BB000022807D1082115480078FAF791FFFCF731
:109BC000FFFC0AE00520FAF731FF07463A46082174
:109BD0000E480078FAF77EFF00BF00BF00E000BF2C
:109BE00000BFF8BD05140000C5DBFF1F24DCFF1F0C
:109BF000222000005B48434920444C455D256420F9
:109C000025642025640A000020DCFF1FC4DBFF1F41
:109C10001CB506480649074B0022009101900648F2
:109C2000017806480078FCF7E1FC1CBDC8DBFF1F8B
:109C300044F9FF1F34F9FF1FC6DBFF1FC4DBFF1F02
:109C40007CB504461E4800881E490988884211DBFD
:109C50001B4800881C49098888420BDC1B48008887
:109C60001B490988884205D11A4800881A49098881
:109C7000884223D00520FAF7D9FE0546114801880D
:109C80006846018010480188684641801048018874
:109C900068468180104801886846C1800F48027874
:109CA00069460F480088FAF7FFFF0E4804702A46FD
:109CB00008210A480078FAF70DFF00BF7CBD0000BC
:109CC0001ADCFF1F12DCFF1F14DCFF1F1CDCFF1F50
:109CD00016DCFF1F1EDCFF1F18DCFF1FC4DBFF1F8D
:109CE00002DCFF1F20DCFF1FF8B506460F4630469A
:109CF00000F046F80446002C06D1114800F040F868
:109D00000446002C00D02680002C17D0002511E03E
:109D1000F82068436168085A002809D1F82169438E
:109D200062685018F8223946FAF77AFE0020F8BD2A
:109D3000681CC5B2034800788542E9DB0920F6E7D4
:109D4000FFFF0000C0DAFF1F70B50546284600F08F
:109D500037F80446002C00D170BDA068FCE703462C
:109D60000A46002108E08800105A984202D1880073
:109D700080187047481CC1B20229F4DB0020F8E7C4
:109D80000246002109E0C800064B185A904202D151
:109D9000C800C0187047481CC1B20129F3DB00207D
:109DA000F8E70000B8DAFF1F70B50546284600F056
:109DB00007F80446002C00D170BD2068FCE70000C5
:109DC00002460648016805E08888904201D188680B
:109DD000704709680029F7D10020F9E7C4DAFF1FAE
:109DE00070B505462846FFF7EBFF0446002C00D16E
:109DF00070BD6068FCE70000F3B581B00C46012C33
:109E000007D0022C29D101210198FAF753FF00282D
:109E100023D10198FFF7B4FF0546002D18D0002686
:109E20000EE0F820704369680F183888002800D1C8
:109E30000AE0F82200213846FAF7FEFD701CC6B28F
:109E4000064800788642ECDB00BF0020C043288033
:109E500003490198FCF738FC00BFFEBDC0DAFF1FC4
:109E6000CADAFF1F70B50446044D054800882880F3
:109E700060882946FAF724FF002070BD7EF7FF1F97
:109E8000EE10FF1FF3B585B0054628460830049054
:109E900000276888FFF774FF0646002E35D00020A3
:109EA000039029E07168F822039850430C18208829
:109EB000002800D125E004980078012811D160889D
:109EC0000090237921886888621D0290FCF745FE86
